S0100000656D3236302D7370692E73333701
S315000000005063002025830200958202009982020037
S31500000010A70B0000000000000000FFFF54000000D6
S3150000002004180900000000000000000000000000A5
S3150000003000000000000000000000000000000000BA
S315000000400000000000000000000000009B0100000E
S315000000500000000050630020258302009582020004
S3150000006099820200A70A090100010000041809ACE0
S3150000007000579B0100000000000000000000000087
S31500000080000000000000000000000000000000006A
S31500000090000000000000000000000000FFFFFFFF5E
S315000000A0FFFFFFFFFFFFFFFF0070030000000000DF
S315000000B000000000FFFFFFFFFFFFFFFF10FFFFFF35
S315000000C0FFFFFFFFFFFFFFFFFFFFFFFFFFFFFFFF3A
S315000000D0FFFFFFFF0000000000000000ED7F002092
S315000000E0ED7F002050630020CCA20200F8850200BC
S315000000F0F0590020EC0F0020000004000000000072
S315000001005063002025830200958202009982020036
S31500000110A18202009D820200A582020021830200C4
S315000001202183020021830200218302002183020031
S31500000130A98202002183020021830200218302009A
S31500000140F31402003DF401002BCF010045F4010039
S3150000015071F401004FF401004DF4010069F401004F
S315000001604B7C02000F5502009D39020021830200DC
S315000001702183020021830200918002002183020074
S31500000180218302003155020021830200651F02000F
S3150000019021830200218302002183020021830200C1
S315000001A021830200218302002183020059F4010009
S315000001B061F40100D91202002183020021830200AA
S315000001C02183020021830200218302002183020091
S315000001D02183020021830200218302002183020081
S315000001E0DFF800F0E95002002DE9F0410D46002647
S315000001F0002D044645D0DFF8AC816B4FA2B9FFF75E
S31500000200EFFF0020A8423CD254F8041BF960401CC2
S3150000021008213960414601E089B3491E3A69D2078F
S31500000220FAD40029EED12AE0FFF7DAFF002072B6F1
S315000002305E490A6812F1010F11D0521C0A600EE0E5
S315000002403A6902F01902102A08BF3A603A691207A1
S31500000250F6D554F8042BFA60401C10223A60A842E6
S31500000260F4D3086818B1401E086000D162B6414652
S3150000027001E021B1491E3869C007FAD409B96FF007
S3150000028002063046BDE8F0812DE9F047484F9A4610
S315000002903B68814643F0010300203B60940800253B
S315000002A0884602E0751908EB8608A5422DD209EBAF
S315000002B085003C4901E021B1491E7A69D207FAD48A
S315000002C011B96FF0020024E0B86001217960796904
S315000002D011F0060F09D04A0702D54FF0FF3018E09B
S315000002E0890702D56FF0010013E04005400DC0F507
S315000002F000608608601BB04238BF0646524631464B
S315000003004046FFF771FF0028CCD0396849084900FC
S315000003103960BDE8F0872649224A0B6843F001039D
S315000003200B608860012048604869400706D5086868
S315000003304008400008604FF0FF307047486980076A
S3150000034006D508684008400008606FF00100704755
S315000003500220486001E022B1521E4869C007FAD463
S3150000036032B908684008400008606FF00200704724
S31500000370086840084000086000207047002383E7B3
S315000003800B48016841F00101016046F21A31C1646F
S315000003904FF4807141604169C907FCD40021C164F2
S315000003A000207047809698000C000E4024700020B4
S315000003B008000E4010B5044601F078F8204602F019
S315000003C042F9204602F0F3FC2046BDE8104003F057
S315000003D09DB902F035BD10B5044601F0A0F82046DF
S315000003E002F060FD204602F04BF9204603F0B3F917
S315000003F02046BDE8104003F02EBB10B500E010B556
S31500000400044601F0DDF8204602F031FE204602F0F7
S315000004103DF9204603F0BBF9204603F086FB204653
S31500000420BDE8104003F0C5BD10B5044601F0F5F86F
S31500000430204602F03CFE204602F03FF9204603F03B
S31500000440D4F90CE010B5044601F00CF9204602F090
S315000004506BFE204602F031F9204603F0E3F9204610
S3150000046003F07BFB204603F0BCFD2046BDE81040B0
S3150000047003F025BB80B504F011F803F092F8BDE84F
S31500000480014002F063B910B5044603F057FC20465C
S31500000490BDE8104003F027BB80B504F072F8BDE854
S315000004A0014003F085B870472DE9F0471038E4287D
S315000004B0AAB04FF00108DFF8B897DFF8B857D6A111
S315000004C0D6A4D7A7D7A60FF2603A00F24E87DFE888
S315000004D010F028014C074C074C070605B703BC0370
S315000004E04C0789034C07DA034C074C078903E703DB
S315000004F0EE0389031C0189034C074C074C074C0784
S315000005004C07E500EB008903550144047401890397
S3150000051061049B034C074C0779017C014C07AD0134
S315000005200302D7013B024C074C074C074C074C070C
S315000005304C074C07660454024C074C074C074C0703
S315000005404C074C074C07FF004C074C074C074C0761
S315000005504C074C074C074C074C074C074C074C07FD
S315000005604C074C074C07660289036F049B0379040A
S31500000570800496049E044C07B102C1024C07EB04AA
S315000005804C07A704BF04D4020C054C074C074C07C4
S315000005900203D303D402CA04AB030F05E004FB0431
S315000005A0AB034C070A04890324044C074C07850453
S315000005B090044C074C077B02760389038903890361
S315000005C0890389037D03890389037E0589034C0713
S315000005D04C072E074C074C074C074C078903CC02E7
S315000005E04C074C073E0489034C07F9034C074C079C
S315000005F014054C0789036C054C0589033A05650308
S315000006004C071E0339034C074C074C074C074C0795
S3150000061055035C058903990687059E05AA054C07BF
S315000006204C074C07AE06B3064C07B606C106B20524
S31500000630AF054C074C074C074C074C074C07760692
S315000006404C074C0751064C074C074C074C074C0708
S315000006504C07B505C005C806CB05D5054C074C07A4
S31500000660F3050106CD064C074C074C07FC064C0764
S3150000067004064C074C0715064C074C071A062406B9
S31500000680380689034C0727054C0742057203890380
S315000006903F064C074C074C074806010701A900A86E
S315000006A002F024FB00F01ABE08208DF809000DF1B7
S315000006B00A0103A802F058FB8DF8080003AB0DF100
S315000006C00A00019002AA0DF109000090BCA1ADE15B
S315000006D008208DF80F000DF10E0200F074FE9DF853
S315000006E00E0003AB05AA04A902F04FFB8DF80D001E
S315000006F004AB03A802900DF10D020DF10F0001905D
S3150000070005A800900FF6085190E101AB0DF101022A
S31500000710ACA100F053FE01999DF8010002F044FBE4
S31500000720A2E10DF1150004900DF11E030DF1160066
S31500000730039006AA0DF1170002900DF11A00019020
S3150000074007A8009001200FF6D04104F0F6F89DF8B6
S315000007501500BDF81A30BDF81C20BDF81E10029019
S315000007609DF8160001909DF8170000909DF818005E
S3150000077004F09DF98DF8140005AAE2E103F002FFEA
S3150000078000F019FE8DF8000003F0FCFE8DF8010064
S3150000079003F024FFADF8020003F0F4FE8DF8040028
S315000007A00DF1050100F031FE03F0ECFE8DF80D00B1
S315000007B000A9284603F0FAFB07E203F0E3FE03F084
S315000007C0F6FB02E204F0A1FD4EE10DF1120304AACC
S315000007D0E9A100F0F3FD06A803F050FF03A801907D
S315000007E003AB05A800900DF10F022146404604F028
S315000007F0A4F80DF10D00029006AA05989DF80F3099
S31500000800BDF8121001909DF80C0000909DF81000A4
S3150000081002F093F92DE000BF7600000075757000B8
S315000008207570000075000000757500000DF112026C
S31500000830012004F082F806A803F020FF03A8029026
S315000008400DF10F0305A8019004AA03A800F0C7FD47
S315000008500DF10D00029006A905989DF80F309DF840
S31500000860102001909DF80C000090BDF8120002F0D7
S315000008706DF98DF80E000DF10D030DF10E025EE01F
S3150000088007A803F0FBFE04A8039005AB06A8029098
S315000008900DF1150204A801900DF11300009001203E
S315000008A00FF67C3104F049F89DF813309DF81420BA
S315000008B09DF815100DF111000290069801909DF813
S315000008C01000009007A802F04DF98DF812000DF106
S315000008D011030DF1120232E00DF1190000900DF135
S315000008E01A0307AADCA100F073FD09A803F0C6FEEF
S315000008F005A802900DF1170308A8019006AA05A8FD
S3150000090000F06DFD0DF11500049009AB08989DF8F7
S315000009101920BDF81A1003909DF8140002909DF856
S31500000920170001909DF818000090BDF81C0002F019
S3150000093034F98DF816000DF115030DF11602514626
S31500000940002003F0FAFF6EE10DF10602012003F02C
S31500000950F4FF03A803F092FE01A8009002AB01AADF
S315000009603946404603F0E9FF029B9DF80420BDF896
S31500000970060003A902F041F92FE10DF105000090F0
S315000009800DF1060302AAB5A100F022FD9DF805208F
S315000009909DF80610BDF8080004F008FEE7E000F038
S315000009A023FDAFA100F014FD039A9DF80810BDF8D1
S315000009B00A0004F0B5FE8DF809000DF10902C0E049
S315000009C0756276007577000008208DF811008DF8A5
S315000009D010000DF10E00029005A801900DF1110016
S315000009E0009008AB0FF640250DF10F02294600F0E6
S315000009F0EFFC03A802900DF11200019006A80090EA
S31500000A009DF80E30BDF814209DF80F0008A902F0DD
S31500000A1022F98DF80D0006AB03A802900DF10D0228
S31500000A200DF112000190294604A80090002003F061
S31500000A3084FFF8E000F0C5FC9DF8010001A902F072
S31500000A402FF98DF8000000AA00F0C5FC01A803F0FC
S31500000A502CFEE8E000F0B5FC01A803F02BFE9DF8A3
S31500000A60010001A902F02FF9DDE300F0C5FC0299AF
S31500000A709DF8040002F086F8AFE000AA00F0A3FC9F
S31500000A8028786A289DF8000001A902D104F086FEA4
S31500000A9001E005F07AF98DF801000DF1010200F090
S31500000AA09AFCBDF8040003F092FD9DF8060003F0E1
S31500000AB082FD0DF10701102003F0AAFD069803F050
S31500000AC097FD079803F094FD9DF8200003F073FD51
S31500000AD00DF12101C5E109A803F015FE00F084FC23
S31500000AE0214600F075FC04A80090039B9DF80820A1
S31500000AF09DF80A1009A802F0E5FD8DF809000DF130
S31500000B00090200F068FC04A803F0F8FD8BE0082059
S31500000B108DF80E008DF80D0007AB0DF10D0002905B
S31500000B2004AA05A801904FA10DF10E0000F04FFC9C
S31500000B30BDF8100005AA07A905F019FB8DF80C00F1
S31500000B4003AABFE308208DF8050002AB0DF10500EE
S31500000B5000900DF1060244A100F03AFC04A900F051
S31500000B6020FCBDF8060004AA02A905F040FB8DF89A
S31500000B70040001AAA6E300BF7576000008208DF8E0
S31500000B8001000DF1010301AA38A100F017FC00F0E5
S31500000B9007FC03A901A802F0AFFD44E300F02CFC1A
S31500000BA002999DF8040002F0F5FE8DF805000DF19E
S31500000BB0050200F010FC02F008FF03F0FCFC03F055
S31500000BC0E1FC00B1012005F0B4FDCBE300F014FC1C
S31500000BD002999DF8040005F0B5FD8DF805000DF1AC
S31500000BE005026FE32A780FF65000002600E0761C17
S31500000BF0F6B2315C9142FAD103F0C4FC0FF6500113
S31500000C0051F826108847ADE303F0BCFC064603F016
S31500000C10E5FC2978302901460CBFDFF86427DFF8A8
S31500000C20642730469047A2E300F0BEFB2878772879
S31500000C3000A802D105F09AFD94E305F0CFFA91E3FE
S31500000C4003F0CCFCDFF8401703E003F0C7FCDFF845
S31500000C503C1708808BE300BF7676750076757500C5
S31500000C6076757000766262007662000062000000AF
S31500000C7040950200BF7F002000A803F04BFD00A8AE
S31500000C8006F02AF86EE303F07DFC054603F0B7FC98
S31500000C9000F08EFB02463146284607F049F961E32B
S31500000CA000A803F0CDFC00A805F09FFE5AE303F070
S31500000CB069FC054600A803F0C3FC00A9284605F018
S31500000CC01AFF4FE303F08AFC054603F098FC00F098
S31500000CD06FFB044603F082FC034622463146284653
S31500000CE007F044FD3EE303F04DFC00A908F0EAF9E5
S31500000CF003F061FC00F04CFB9DF8020003F05BFC86
S31500000D009DF8030003F057FC00F046FB9DF8050034
S31500000D1003F051FC0DF10601A3E003F033FC00A93A
S31500000D2008F062FC03F047FC00F032FBBDF802005D
S31500000D3003F04DFC00F030FB9DF8050003F03BFC92
S31500000D409DF8060003F037FC9DF807000AE303F060
S31500000D5019FC40B208F0AAFD04E303F013FC00A955
S31500000D6003F049FA03F027FC9DF8000003F023FC8A
S31500000D709DF8010003F01FFCBDF8020003F027FCFC
S31500000D8000F00AFB0DF10501082003F041FC9DF877
S31500000D900D00E7E203F0F6FB03F00FFA34E003F090
S31500000DA01DFC00F008FB0146284608F09FFFD9E22B
S31500000DB003F0E8FB054600F027FB00A928460AF0E9
S31500000DC0CAF8CFE203F0DEFB00A90AF02FF900A96A
S31500000DD047E003F0D7FB0AF037F915E000F014FB03
S31500000DE003F0D0FB010018BF012100A80AF057FA52
S31500000DF0BDE200F009FB00A80AF034FAB2E200F006
S31500000E0003FB00A80AF061FC03F0E1FBAFE203F08C
S31500000E10E5FB00A90AF073FC03F0CDFB00A920E076
S31500000E2003F0DCFBADF800000DF1020100F0B9FAA9
S31500000E300DF1120100F0B5FA03F0A4FB8DF82200C3
S31500000E400DF1230100F0E1FA00A80AF039FD89E26C
S31500000E5000A80AF0D1FD03F0AEFB00F099FA0DF1FF
S31500000E60020108207EE003F08DFB054601A900F093
S31500000E70CCFA03F087FB064600F092FA03A833008B
S31500000E80009018BF012301AA2946002004F0E0FFC4
S31500000E9068E200F0B9FA03F075FB010018BF012102
S31500000EA000A804F095FF5DE200F0AEFA03F06AFBDD
S31500000EB0054602A900F075FA290018BF012102AA09
S31500000EC000A804F06CFF4DE203F05CFB00210091EA
S31500000ED00A4601460023404604F0BAFF42E200F00B
S31500000EE093FA00A804F06CFE3CE20BF0E3FB3EE252
S31500000EF04FF6FF7005F0DCF934E203F043FB0546DC
S31500000F0006A9302003F045FB00A9162003F041FB9B
S31500000F10280018BF012000AA06A90BF073FD21E2E4
S31500000F2003F030FB05460AA94A2003F032FB00A96C
S31500000F30252003F02EFB280018BF012000AA0AA9CD
S31500000F400BF06DFD0EE200A80BF063FD03F033FB22
S31500000F5000A9302006E000A80BF066FD03F02BFB8D
S31500000F6000A94A2003F054FB01E200F01DFA0FA984
S31500000F70302003F00EFB04A92A2003F00AFB04AA82
S31500000F800FA900A80BF056FDECE100F00DFA16A92A
S31500000F904A2003F0FEFA04A9482003F0FAFA04AA4C
S31500000FA016A900A80BF048FDDCE106A9162003F0FF
S31500000FB0F0FA0CA9302003F0ECFA00A9152003F092
S31500000FC0E8FA00AA0CA906A80BF021FDCAE103F075
S31500000FD005FB00F0F0F941B228460BF009FEC1E12D
S31500000FE00AA900F0DEF903F00AFB009003F0CAFA42
S31500000FF08DF804000DF1050100F0D3F90DF115018E
S3150000100000F0CFF900A90AA80BF06FFFAAE103F0E0
S31500001010F6FA00F0D0F900F0CBF9024671B2284694
S315000010200BF095FF9EE103F0D9FA0BF0DDFF99E195
S315000010300CF05CFB9BE10CF05EFA93E103F0A2FA84
S31500001040054600A803F03DFC00A928460CF06EFBFF
S3150000105088E103F097FA00A90CF0C4FB03F0ABFAA1
S3150000106000A803F0FCFB82E103F08CFA054600F0D1
S315000010709BF900A928460CF09FFF73E103F082FA62
S3150000108000F099F9064603F0A9FA814603F07AFAC8
S31500001090044603F077FA074603F074FA824603F033
S315000010A084FA0290CDF804A0009723464A463146BA
S315000010B028460EF06FF955E103F064FA054600A8DC
S315000010C003F09EFB03F05EFA42B200A928460CF03C
S315000010D045FD47E10CF0D6FD44E103F053FA054621
S315000010E003F07CFA064600F08FF903F04BFA03464C
S315000010F000AA314628460CF066FE33E103F042FAB8
S315000011000CF0F0FE2EE103F07AFA054603F077FACA
S31500001110014628460EF0ECFC24E103F033FA00F019
S315000011204AF900F045F9074603F058FA044603F079
S3150000113029FA009023467AB2314628460CF0FCFE86
S3150000114010E100A803F076FB00A80EF0F6FC09E11A
S3150000115000A80EF0FFFC03F02EFA00A803F056FBE1
S3150000116005E103F00FFA00F026F9014628460EF0D5
S31500001170EBF9F7E003F043FA054606A803F0D5FBC2
S3150000118003F000FA064603F029FA814603F026FA30
S31500001190044603F023FA074604A900F036F909A924
S315000011A000F0FFF809A803904B4604A802900197A7
S315000011B00094324606A928460FF064F9D7E003F0FA
S315000011C0E1F900F0F8F8064604A803F0AEFB03F0D8
S315000011D0D9F9814603F0D6F9044603F0E6F9074645
S315000011E003F0D0F9824603F0F9F90390CDF808A090
S315000011F0019700944B4604AA314628460FF01BFC83
S31500001200C0B2AFE001A803F08CFA0DF101030DF1B5
S31500001210020259A100F0D2F89DF901209DF80210B2
S3150000122001A802F077FC8DF8000000AA4AE003F05E
S31500001230A9F90CF07BF995E00CF07DF992E004A990
S3150000124000A80CF04AF900A803F09CFA04A803F0E1
S31500001250C8FA8CE000A803F0ACFA00A80CF045F937
S3150000126085E003F08FF901F0EBF97BE006A8059025
S315000012700DF11E0309A8049008AA06A803900DF113
S315000012801A00029007A801900DF11B0000900120A2
S315000012900FF29C1103F051FBBDF81C309DF81B208A
S315000012A0BDF81E1009A802909DF8180001909DF83F
S315000012B01A000090BDF8200001F097F98DF819008A
S315000012C00DF1190200F087F851E003F087F901F0FB
S315000012D0ABF947E001A900A801F015FA8DF8010065
S315000012E000AB0DF101025146002003F026FB01A9D7
S315000012F0082003F08DF9BDF80C0003F068F99DF89D
S315000013000E0003F058F99DF80F0003F054F99DF80C
S31500001310100003F050F9BDF8120003F058F99DF8DB
S31500001320140003F048F9069803F062F91FE008205C
S315000013308DF8120006AB04A803900DF1110205A862
S3150000134002900EA104A801900DF1120000F03FF8E2
S315000013509DF8110000B10120059B9DF8102006A9FB
S3150000136001F059FF03F027F901E04FF0000840466D
S315000013702AB0BDE8F0870000757300007562700042
S31500001380C7410000D5AF00000468002006680020B1
S31500001390BDF8000003F01BB99DF8040003F00BB97B
S315000013A003A9102003F0F5B800A9102003F0F1B846
S315000013B0064603F0E7B8054603F0E4B8012003F05B
S315000013C0BCBA0DF101023146012003F0B6BA009015
S315000013D0012003F0B2BA3146002003F0AEBA009005
S315000013E04946404603F0A9BA02A8019002AB03A8F9
S315000013F000900DF10A02704701A8009002AB01AA05
S315000014003946012003F099BA00A9082003F0C1B8B3
S3150000141075766275000000007576767675757500CE
S3150000142075757575700000007562767500000000B0
S315000014307676757675756200181D207A2A848586FB
S3150000144087888B8A8D959A2E5BB1A4A122E8EE003F
S31500001450A79700004B80000021610100AF900000BB
S31500001460E9440000A5CA00001DCB000033CB0000F4
S3150000147047CB000063CB0000EDCB0000D7CB0000CC
S3150000148031CC00000F2C0100317D0000977F010058
S315000014909B7F0100F15F000009CA000017CA000027
S315000014A0B56A000023CA000031CA000038B50446F8
S315000014B0207898BB6070012020722070A0780328E5
S315000014C01FD0072821D0112804D0152820D0302875
S315000014D014D021E00720DFF84059207204F10900FA
S315000014E029880FF07AFCA878E072E87820732879CA
S315000014F060736879A073A879E07331BD0FF093FC2F
S3150000150008E0DFF81809007804E00FF04BFD01E071
S3150000151010F068F8607231BD0020207031BD38B51A
S315000015200446207800284AD101202070A07804289B
S3150000153010D0072814D00E281AD011283AD0152812
S3150000154022D0172825D018282DD019282ED030289B
S3150000155014D032E0207A012814BF362000202AE079
S31500001560607A10B10FF0ECFC25E00FF0FBFC22E0F6
S31500001570607A00B1012010F06CFA02E0607A0FF098
S3150000158054FCC0B1362016E094F9090010F001F8B9
S315000015900EE0657A04F10A000FF018FC01462846B1
S315000015A010F0DAFA04E010F0D2FA01E010F0C2FA14
S315000015B0002000E03720607031BD0020207031BD72
S315000015C010B50446DFF858088078217856280CBFF5
S315000015D00120002001BBA1706178072910D130B12C
S315000015E010F010FB012814BF632062200EE0E078A3
S315000015F062280CBF0120002010F007FBA07009E054
S31500001600042909D1DFF81C1810B10878E07001E050
S31500001610E07808700120207010BD017809BB817048
S3150000162001210170417801290ED00C2909D0172912
S315000016300DD02D2902D035290CD010E0DFF8E8179F
S315000016400AE0DFF8E81707E0DFF8E41704E0DFF860
S31500001650E41701E0DFF8E017097881807047002180
S315000016600170704738B50446207800285AD1012009
S3150000167020700020A0706078012815D00C280FD0AB
S3150000168017283DD02D2802D0352844D048E0A1881F
S3150000169003293DDAC9B2DFF8900710F089FC38E07B
S315000016A0A088DFF8881739E0DFF89007008828BBA4
S315000016B0A08818B3DFF88857287810F0B9FE11F023
S315000016C0FAF980B1A188DFF86807C9B210F070FC9A
S315000016D0A07011F0FAF9DFF86C07DFF86C170068F4
S315000016E0C01C086001E03820A070012010F037FE11
S315000016F028700020DFF85417088031BD382008E034
S31500001700A08811F080FA18B9A088DFF8281705E03C
S315000017103620A07031BDA088DFF81C17087031BDD7
S315000017200020207031BD80B501208DF8000000A892
S31500001730FEF7A9FE9DF8000002BD00002DE9F04F5E
S31500001740A7B011F0E7F911F0F5F90746DFF8F4064E
S31500001750DFF8CC460068DFF8F82646788578A5706D
S3150000176006F003018DF8081001782170C11C116084
S31500001770C01CDFF8D4160860700900F00300E070A2
S3150000178011F062FB300602D55825322031E260782E
S3150000179020B9A07810B1582530202AE211F0F4FDC6
S315000017A010B95825422024E2FFF7BDFF002800F0BB
S315000017B02282A0786178DFF89CB602000FF2282812
S315000017C00FF228290FF2282A4FF6FF765CD001285F
S315000017D000F0C981022800F09480032800F0E5801B
S315000017E0052833D0062800F02E81092818BF0A28BC
S315000017F000F031810B2818BF0C2800F033810E2829
S3150000180000F03D81122800F08381132800F0B0819A
S31500001810172800F0BD81262800F0B081272800F0A7
S31500001820B281472800F0A781492800F022814E287E
S3150000183000F04F8152283CD0532851D0552877D0FC
S31500001840562800F08C8065281BD0812800F0F08097
S315000018508F2800F0A081912800F0BA81942800F02A
S31500001860A681AA2800F09780AB2800F0C380AC2898
S3150000187000F0D580AD2800F0D580AE2800F0D580E8
S31500001880F12800F06181AFE102F07CFE06460420FB
S3150000189002F091FE022002F08EFE4FF4AE4002F0FE
S315000018A096FE6078002808BF042E01D101206070E2
S315000018B0A1E100F0BFF902F065FE8DF8010000A875
S315000018C0FEF7B2FD9DF8000028B937208DF802001A
S315000018D00020ADF8040001AB0DF10202414656E0CE
S315000018E0012918BF382039D100F0A4F901AB0DF158
S315000018F001024146012003F020F800A8FEF7A2FDF0
S3150000190024E03826012912D1F91EC9B2032011F0AC
S315000019100CF90746FF2F08BF352608D011F046FD03
S31500001920002814BF00263626384610F081FDEDE06B
S31500001930042200F080F90DF103030DF1010249467E
S31500001940012002F0FAFF00A8FEF759FD9DF80000FD
S3150000195010B937208DF802009DF8020049E10422F3
S3150000196000F069F902F00EFE8DF8010000A8FEF7FE
S3150000197044FD9DF8000028B937208DF802000020AC
S315000019808DF803000DF103030DF102024946002014
S3150000199002F0D3FF2FE100F048F902F0F3FD8DF8D5
S315000019A00E0003A8FEF706FD0BE000F03EF904ABBF
S315000019B00DF10E02ADA1012002F0BFFF03A8FEF754
S315000019C008FD9DF80C0028B937208DF80D00002081
S315000019D08DF8140000F022F90DF10D025146002099
S315000019E002F0ABFF07E100BF7576000075750000D9
S315000019F07575620000F019F900F010F90DF10E028C
S31500001A005146012002F099FF03A8FEF7E4FC9DF879
S31500001A100C0000280CBF37209DF80D00E9E011F0FE
S31500001A20D9FDE8E011F0D7FDE5E011F0D8FDE2E0E0
S31500001A30042FFCDBDFF81004DFF80C1400683818FC
S31500001A40C01E0860D7E0012000F0F9F8002840F039
S31500001A50E2800725CFE009280CBF0120002002F014
S31500001A6069FDC8E00C280CBF0120002000F05AF9DF
S31500001A70C1E0002002F09FFD11F0C6FD85E002F0F6
S31500001A8081FD064602F0AAFD074602F07BFD804670
S31500001A9002F078FD8146B7F5004FB4BFB8F1040FE8
S31500001AA070200BEBC60A11DA022E10DADAF8000003
S31500001AB04246394611F0B8FDB9F1000FAAF8047094
S31500001AC008BF4FF000088AF80680002091E07020D9
S31500001AD08FE002F057FD002100260228ADF8021023
S31500001AE08DF800100BEBC00708DA386800AA0DF174
S31500001AF0020111F0A8FDB87900B10126BDF8020077
S31500001B0002F065FD9DF8000002F055FD304670E0DC
S31500001B1002F038FD070018BF0127002011F0C4FDB0
S31500001B2080464246FF2A08BF182062D0002F14BF05
S31500001B30304602207AA111F003FE002002F03BFDA0
S31500001B40404610F075FC56E00026C34F37F81600E5
S31500001B5002F03DFD761C222EF8DBA07865284AD1DE
S31500001B600FF0E8FF47E002F00DFD11F01FFF40E027
S31500001B7011F019FC3FE011F00DFC3CE0B7490820DC
S31500001B8002F046FD37E009F0EBFD02F020FD32E001
S31500001B9005F0A1F82DE0012711F060FFB04204D056
S31500001BA0002702F0EFFCAE490870384621E003A991
S31500001BB0102002F0EEFC07A9102002F0EAFC07A9AB
S31500001BC003A811F098FF03A9102002F021FD12E0EE
S31500001BD011F044FF02F0FBFC042002F0ECFC18209C
S31500001BE002F0E9FC092004E0FEF75EFC18B958256E
S31500001BF0312002F0E0FC9349207809680870072D2F
S31500001C009048006885700CBF012200229DF80800EC
S31500001C10012100F02DF827B0BDE8F08F05A801904E
S31500001C2005AB0DF11500009070478C22002103A82A
S31500001C3011F0B2BF0622002100A811F0ADBF38B5E1
S31500001C407E4D0446288810B110F07CFF08B90020AC
S31500001C5032BD288808B910F066FF82480078012254
S31500001C60214600F005F8012032BD0000757700001E
S31500001C702DE9F8438846734E73490968074630686C
S31500001C809146091AB9F1000F8DB203D04078C0F31E
S31500001C90411402E011F0D4F8044663480078844207
S31500001CA005D340F26D310FF2CC1011F09DFF6001AB
S31500001CB040F08000C92DC4B205DBC82010F03EFFFD
S31500001CC044F0020402E0E8B210F038FF66480178FA
S31500001CD019B1002144F0020401706448017819B179
S31500001CE0002144F0010401705448018811B144F008
S31500001CF00401CCB219EA080F1CBF44F00801CCB2AB
S31500001D0031684C70012F18BF022F02D1008800B134
S31500001D100027544807704046BDE8F24310F0F1BE74
S31500001D20620000002DE9F04198B0044602F02AFC5A
S31500001D3005464CB1062818BF082803D0092818BF45
S31500001D400B2801D1702061E0062D12D1282002F067
S31500001D5032FC0024464801880223224600A812F0DD
S31500001D6046F8BDF8000002F032FC641C142CF1DBCE
S31500001D704EE0082D18BF0B2D47D000260FF208188D
S31500001D8008EBC607387885422BD114B9787802F06B
S31500001D9012FC78687B780188002201A812F027F8E7
S31500001DA034B302F0EFFB01467878814201D002207D
S31500001DB02CE0002100E0491CC9B2814205D201AAEB
S31500001DC08A5CFF2AF7D0462020E001A902F0E1FB59
S31500001DD078687A78008801A912F0CBF8002002F022
S31500001DE0EAFB761CF6B20A2ECAD374B1B1200DE016
S31500001DF0092D05D1152200210DF14A0011F0CCFE66
S31500001E00787801A902F004FC02E0002002F0D3FB7E
S31500001E1018B0BDE8F08100008899020081660020B4
S31500001E20BD7F0020FC670020D4660020B17F002023
S31500001E3080660020C27F0020E8660020A27F002086
S31500001E40F66800203479002098730020467B002035
S31500001E5094730020AC680020407900203879002077
S31500001E60F5680020D27F0020C17F0020A07F0020DF
S31500001E70649E0200636F6D6D616E642D68616E64B1
S31500001E806C6572732E630000011000005C9E0200F8
S31500001E90021000005E9E020003020000609E020027
S31500001EA0051000006E9E0200070800006A9E0200F0
S31500001EB000020000589E020004020000629E02001A
S31500001EC0095C0000709E02000A140000729E020067
S31500001ED00C0800005A9E020010B50446012020702E
S31500001EE0A178DFF8A00A27290CD1217A0429A8BFF6
S31500001EF036200DDA417304F10901227A203011F0FF
S31500001F0008FE6FE028290CD1217A0829A8BF3620BF
S31500001F106FDA017304F10901227A183011F0F9FD24
S31500001F2060E0C27B1D2910D1217A042918BF362012
S31500001F305FD142F00101C173617A0172A17A4172E7
S31500001F40E17A8172217BC1724CE01E290DD1217A82
S31500001F50012918BF36204CD1617A002914BF42F0FE
S31500001F60020102F0FD01C1733CE01F290DD1217A67
S31500001F70012918BF36203CD1617A002914BF42F0EE
S31500001F80040102F0FB01C1732CE020290BD1217A58
S31500001F90082918BF36202CD1082204F10901B030D7
S31500001FA011F0B7FD1EE021290BD1217A092918BFAE
S31500001FB036201ED1092204F10901A43011F0A9FD31
S31500001FC010E0222910D1217A052918BF362010D118
S31500001FD0617A0170A17A4170E17A8170217BC170CA
S31500001FE0617B0171002004E0162904D1607A0CF0AF
S31500001FF026F8607010BD0020207010BD2DE9F54F49
S31500002000DFF88409C0780027702895B08A461E46F6
S31500002010BB4640F021813078DDF88090DFF86C898E
S31500002020DFF86049C0F302100090002500E06D1C47
S315000020300098EDB2C0B2854280F09380A8190221C3
S31500002040C07C00F072FA0028F1D0327BF07AB17AC7
S31500002050E57B130901EB0020AF0702F00F014EBF2D
S315000020600127277A07F00F07727BED0780B268D544
S315000020704FF6FF75A8421CBFB8F80050A84260D1C1
S315000020808F4222BFBB42219890425AD3159908220B
S3150000209008A811F03EFD16998DF828A00A220DF128
S315000020A02A0011F036FD1A2231460DA811F031FD35
S315000020B08DF84E90E07B80074CD5DFF8D45805F1BB
S315000020C02E06B07800283DD00822294608A811F02F
S315000020D06AFD002801BF0AAE7088698988422CD142
S315000020E0072205F10C010BA811F05DFD002802BFC7
S315000020F0307B297D884220D10F220DF135010DF16B
S31500002100350011F050FDC0B9032205F1240111A8D4
S3150000211011F049FD88B9072205F127010DF14700A5
S3150000212011F041FD002802BF9DF84E0095F82E10D3
S31500002130884202D1022101200EE0E07B00F0FD0082
S31500002140E07387E0302208A9284611F0E2FC01205E
S31500002150B0707FE00221002000F0ABF94FF0010BD8
S3150000216078E000253BE0401CC0B2884236D2DFF85A
S3150000217024288218127C9145F5D101A800F085F932
S31500002180227B04F118010DF1170011F0C2FC9DF835
S31500002190040000F08F008DF804000922217B09015C
S315000021A041F0010108438DF8040004F1A4010DF18A
S315000021B0050011F0AEFCA0788DF80F0060788DF860
S315000021C0100020788DF8110020798DF81200E07843
S315000021D08DF8130001A80DF0B0FCBB466D1C0098ED
S315000021E0EDB2C0B2854234D2BBF1000F31D1A8198D
S315000021F0C07C012802D0C0280FD0EFE7E07B012782
S315000022008007EBD51599082204F1240011F081FC12
S315000022100021012000F04DF9DFE7DFF87C1709788F
S3150000222001F0010101270AF0010081F001010843D4
S3150000223001BF16980088B8F800108842CED1DFF8A2
S3150000224054070078B9F1FF0FC0F3410195D0002083
S315000022508AE70FB1584606E0DFF82C0700787228A7
S315000022600CBF0120002017B0BDE8F08F2DE9FE4F0E
S31500002270DFF81407C07800247028A0466BD10E98AA
S31500002280DFF800A700780094C0F30210019021E067
S315000022906D1C09F10109B9F1100F43DB96B10E98D7
S315000022A00078C0070ED50E98C07AC0F30110022838
S315000022B018BFFF2F06D002990AEBC7000822243068
S315000022C011F027FCE8B2102800DAA0460098401C5E
S315000022D0C0B2009000980199884239DAB8F1000F2F
S315000022E036D10E98009908180022C17C00E0521CD5
S315000022F09AF80E30D2B29A42E8D202EB0A031B7C5D
S315000023008B42F4D1012906D0032902D0C02904D07A
S31500002310DCE70124D9E70124D8E70025FF270126B9
S315000023200124A9460AEBC90B029908220BF12400E5
S3150000233011F039FC00B90026FF2208210BF1240018
S3150000234007F090FA0028A3D0FF2FA2D14F46A0E7AE
S315000023500CB1404606E0DFF83006407874280CBF22
S3150000236001200020BDE8FE8F2DE9F44FDFF818A606
S3150000237005469AF80300002670288EB0B3467BD136
S31500002380199F38781A9CDFF8FC85C0F30210049078
S31500002390B14607E00126002D18BFC12D00D1B34676
S315000023A009F1010904985FFA89F9C0B2814560D242
S315000023B0BBF1000F5DD109EB0700C07C012848D0B6
S315000023C0032802D0C028E5D0EAE70126032CE7DB84
S315000023D0002D18BFC12DE3D107A800F056F89DF8CF
S315000023E01C0040F001008DF81C00082208F1B00125
S315000023F00DF11D0011F08DFB072200210DF12500C6
S3150000240011F0CAFB387805A90391C0F34102C0F365
S315000024100211029108F1180307F113010191FF203F
S3150000242098F80C10009107F1100100F0ADF89DF836
S315000024301C1001F08F0141EA00118DF81C100246B4
S3150000244005A90DF12F0011F064FB07A80DF075FB2F
S31500002450A5E70126002D18BFC12DA1D1032C9FDBB6
S315000024600E99082208F1240011F09DFB002897D14F
S3150000247095E70EB1584605E09AF8020076280CBF9B
S31500002480012000200FB0BDE8F08F38B5DFF8F45416
S315000024906A7B044605F1200104F1100011F039FBB6
S315000024A0207800F0F9002070697B40EA4100207036
S315000024B031BD70B588B005460E4600A8FFF7E5FFAA
S315000024C09DF80000DFF8BC44217B00F08F008DF8FA
S315000024D00000334600AA04F1180000F033F89DF816
S315000024E0000040F001008DF80000082204F1B00160
S315000024F00DF1010011F00DFB00208DF80900ADF87B
S315000025000A00002DA07A8DF80C00607A8DF80D0077
S3150000251014BF2120207A8DF80E00E07A8DF80F0086
S3150000252000A80DF00AFB08B070BD0022022808BF03
S315000025300122032808BF02228A4201D101207047E6
S31500002540002070472DE9F843144605462078884652
S315000025509946C0F3021600270BE0785D40B1494664
S31500002560FFF7E3FF20B1F2B2785D1119561CC8746B
S315000025707F1C4745F1DB207800F08F00207040EA91
S3150000258006102070BDE8F183F8B51C46002500232F
S3150000259006E0FF281CBF5E5CB04205D05B1CDBB2C8
S315000025A09342F6DB0020F2BD099E0722FF2130464A
S315000025B011F0F2FA0699079A089800230EE01F5DBB
S315000025C01CF802E0774502D1EDB2AF556D1C0CF157
S315000025D0010C5FFA8CFC8445F1D35B1C8B42B8BFBF
S315000025E04FF0000CF5DBE8B2F2BDFEB5099C082CF5
S315000025F001DB7020FEBD0A9E089D0296019400959F
S315000026000BF067FB05000DD1DE4F8022FF2107F19D
S31500002610240011F0C1FABC732246314607F11000BE
S3150000262011F077FA2846FEBD10B50BF0B1FB040099
S3150000263004D18022FF21D94811F0AEFA204610BD00
S3150000264000210BF073B810B504462078B8B9012004
S315000026502072A078262805D100206070D048007826
S3150000266060720AE016280AD104F10A000BF077FD21
S3150000267010B100213720217260700120207010BD3A
S315000026800178002908BFFFF727BC7047017899B980
S3150000269041780939C9B210290ED2C24A52F821101E
S315000026A0C14A1278562A07BF0978C170C2780A70E3
S315000026B00021817001210170704710B50446207811
S315000026C000BB6078B94A312808BF104602D03228CC
S315000026D018D1B748B0B1B4490978522908D0A188B1
S315000026E0904209D1B34A12788A4205D2362006E0D2
S315000026F00078A080002002E0C9B20FF059FCA0705B
S315000027000120207010BD70B5044686B00D463826EF
S31500002710112011F04BF9802815D1204605F032FB27
S31500002720064612231B2200A901200EF092FBBDF8DB
S31500002730060028819DF80200A8729DF80300E87241
S31500002740BDF80400E881304606B070BD80B511F0D2
S3150000275047FD0DF06AFABDE8014011F0CDBD38B570
S3150000276004460D4609220021284611F015FA218853
S3150000277028460EF032FBA11CA81CBDE838400722F3
S3150000278011F0C7B938B504460D461A22002128466D
S3150000279011F002FA207828700F22611C681C11F0D3
S315000027A0B8F92078C0F3410204F1100105F11000D8
S315000027B011F0AFF92078C0F3021204F1130105F10C
S315000027C01300BDE8384011F0A4B92DE9F0438FB0ED
S315000027D00646DB208DF808000F46904699460822EB
S315000027E031460DF1090011F094F98DF811700DF1D3
S315000027F012014046FFF7B3FF0DF11B014846FFF7F4
S31500002800C1FF169D179C8DF835508DF836402F2147
S3150000281002A812F07AF8019400954B4642463946D2
S315000028203046FFF7EBFB0FB0BDE8F0832DE9F14F23
S3150000283092B0DC208DF8140005AE9DF8480070704B
S315000028400DF115058A469046994685F801A0414640
S315000028500DF117000EF0C1FA082249460DF11900D4
S3150000286011F057F91C9C2C730DF122011D9F38465F
S31500002870FFF775FFDDF878B00DF12B015846FFF72D
S3150000288081FF1F9D86F831503321209E8DF84660CA
S3150000289005A812F03AF804960395CDF808B001970A
S315000028A000944B469DF8480042465146FFF7DEFC31
S315000028B013B0BDE8F08F2DE9F04790B08146E120D6
S315000028C08DF80C000DF10D040E46924698468DF8D3
S315000028D00D906670082251460DF10F0011F019F99E
S315000028E084F80A8006A9189D2846FFF738FF199F25
S315000028F00DF121013846FFF745FF1A9C8DF83B4044
S31500002900302103A812F001F802940197009543467E
S31500002910524631464846FFF727FD10B0BDE8F0871E
S31500002920F0B58DB004460D4616461F462F22FF21F0
S3150000293000A811F031F9DE208DF800008DF8014075
S315000029409CB9082229460DF1020011F0E2F88DF833
S315000029500A600DF10B013846FFF701FF129805A931
S31500002960FFF710FF13988DF82E002F2100A811F005
S31500002970CCFF24B908222946084811F0CAF80DB040
S31500002980F0BD0000F0730020586800209875002004
S31500002990A8740020A47500209C68002014740020F0
S315000029A09D6800205C680020BF7F0020F066002044
S315000029B0F86600208F95020080B5DA2160E010B538
S315000029C09EB01C468DF801008DF80210D5238DF8B7
S315000029D0003011460DF103000EF0FFF98DF80540A9
S315000029E00DF10700209C21998DF80640224611F032
S315000029F090F8E11D1FE010B59EB0D6248DF80210A8
S31500002A008DF801008DF800408DF803208DF8043014
S31500002A100DF1050020990EF0E0F92198229C2399EA
S31500002A208DF807008DF8084022460DF1090011F0D7
S31500002A3070F804F10901C9B200A811F066FF1EB0D2
S31500002A4010BD10B51C46E0238AB0002818BFC12867
S31500002A508DF800308DF801008DF8021008D10DF1C7
S31500002A6003011046FFF77BFE03A92046FFF78AFE07
S31500002A70262100A811F049FF0AB010BD80B5E32158
S31500002A808DF800108DF80100022100A811F03DFF1D
S31500002A9001BD80B5E421F3E72DE9F84F8046DFF864
S31500002AA0180B07780D460A9991469B4619B10B9863
S31500002AB00FF041FD02E000200FF01CFD82460C9E47
S31500002AC0BAF1FF0F03D100201824307032E0342F02
S31500002AD006D0362F0ED0382F13D0962F18D01AE0E6
S31500002AE053464A462946404602F072F9044602F029
S31500002AF084FD10E0534642464946284602F0C7F98F
S31500002B0008E05346EAB24146484602F014FA01E0AC
S31500002B1012F02EF90446962F1CBF99F80A00307061
S31500002B20E4B224B9DFF8940A00680AF800B0504607
S31500002B300FF07EFC2046BDE8F28F10B584B0089CED
S31500002B400294079C0194069C009407E010B584B09B
S31500002B500446104600F00FF80A462146FFF79CFF90
S31500002B6004B010BD10B5044684B00846114600F006
S31500002B7002F82246F2E7089A0292079A0192069A0A
S31500002B8000927047E0B50191002200901146029232
S31500002B9000230846FFF780FF0EBD2DE9F04683B0FF
S31500002BA089460C99054692461E4619B10D980FF0B6
S31500002BB0C2FC02E000200FF09DFC04460E9FFF2C95
S31500002BC003D100201825387014E00A98009001946B
S31500002BD0334652464946284602F07BF90500B07A4C
S31500002BE0387004D1DFF8D4190B9809686054204670
S31500002BF00FF01EFC2846BDE8FE8638B5DFF8C04952
S31500002C002080C888440606D5DFF8B8492478202CE9
S31500002C1003D1000401D4702032BDDFF8AC49216035
S31500002C2022B1114618460FF086FC02E000200FF094
S31500002C3061FC0546FF2D08BF18240AD0206840888D
S31500002C40294602F069FB044602F0D7FC28460FF03D
S31500002C50EFFB204632BD2DE9F041069F0D460446A6
S31500002C6016469846394608F0E1F9204608F0ECF990
S31500002C7007990880384608F0F5FA08990870294639
S31500002C80204608F068F9070007D13146204608F0CB
S31500002C90A1F94146284608F002FB3846BDE8F08116
S31500002CA0DFF828291278904201D370207047DFF8A8
S31500002CB02029126832F820300B8002EB80008078E1
S31500002CC0887000207047DFF804291278904201D3FB
S31500002CD070207047DFF8F82812680B8822F8203039
S31500002CE002EB8000897881700020704730B589B08A
S31500002CF00C4605F047F8054612231B2204A90120BD
S31500002D000EF0A7F80020207310F09AF89DF8101026
S31500002D1088420BD1BDF8160020819DF81200A072E2
S31500002D209DF81300E072BDF8140019E01023072285
S31500002D3000A901200EF08DF8082202A9204610F005
S31500002D40E8FEBDF80000208104F114019DF80200A0
S31500002D50A0729DF80300E07204F1100012F04DF924
S31500002D60E08109B0284630BD38B504460D4606F068
S31500002D70D1FC01460822204610F0CBFE06F0C6FC28
S31500002D802880DFF85008007832BDF8B504460D46B5
S31500002D9016461F4612F095FC28803A4631462046D4
S31500002DA0BDE8F84012F09DBCFF2203F0F2BF10B55B
S31500002DB004462078002842D1012020722070A07895
S31500002DC0142804D10020607012F0D1FF33E00128EE
S31500002DD00BD0022808D0082818BF0D2805D01228C5
S31500002DE018BF132801D002E020720021617001286B
S31500002DF00AD0022812D008280AD00D280BD0122893
S31500002E0015D0132815D018E0DFF8CC07007812E0AB
S31500002E1003F047FD0FE005F060FE0CE0DFF8BC07AD
S31500002E20018804F10900BDE810400DF0D6BFFF206F
S31500002E3001E003F0A8FF607210BD0020207010BDF5
S31500002E4010B5044682B0207858BB012020700020BF
S31500002E506070A07818B1022819D00BD31FE0616802
S31500002E6000AAC9B210F008FB60700220207204F1BB
S31500002E70090007E00320207200A813F048F96072E9
S31500002E8004F10A00BDF800100DF0A7FF13BD0120E4
S31500002E902072606880B213F08EFB607213BD002052
S31500002EA0207013BDF0B5044685B02078002840F0A8
S31500002EB0D88001202070A078010022D0012844D0BB
S31500002EC0022849D0052818BF06284DD0082800F04A
S31500002ED0BB80092856D00A2879D00B287CD00C282C
S31500002EE000F086800F2800F08780232818BF24284A
S31500002EF000F08F80252800F09D80292800F0A6800C
S31500002F00ADE0207A102860D100F0ADF8ADF80400ED
S31500002F10082294F90B008DF8060004F11001207BBD
S31500002F208DF80700607B8DF80800A07B8DF80900FE
S31500002F30E07BADF80A0003A810F0EBFD1023072292
S31500002F4001A900200DF085FF86E0207A01283CD1FA
S31500002F50607ADFF884167EE0207A022835D100F008
S31500002F6082F8DFF878160BE0207A02282DD100F0DF
S31500002F707AF8A17805290CBFDFF86416DFF8641625
S31500002F80088069E0DFF860060568207A46080DB912
S31500002F90DEB961E0DFF854060078B04215D30027A9
S31500002FA007E004EB470009300DF010FF25F8170085
S31500002FB07F1CB742F5DB4FF4004725F8167028460C
S31500002FC013F06BFB002848D02F80362045E000F038
S31500002FD04AF808F0EEFC3FE0DFF814060068407B94
S31500002FE020B900F040F808F0BFFB35E0382034E0A7
S31500002FF0607ADFF800162EE0657A04F10A000DF01B
S31500003000E5FEADF8000000AA2946012010F034FACA
S3150000301023E0217A042912D123280CBF0325012598
S3150000302004F1090101200DF0EAFE0146284613F0DD
S31500003030D2FC12E0607A032818BF042801D00220CF
S315000030400BE004F06AFD07E0372006E0607A00B185
S315000030500120DFF8A41508700020607001E0002050
S31500003060207005B0F0BD04F109000DF0AFBEDFF829
S3150000307048150978027856290CBF01210021AAB902
S315000030808270DFF840354278032A05D109B15978B4
S3150000309006E0C178597007E0022A07D111B1197804
S315000030A0C17001E0C1781970012101707047017883
S315000030B001B1704730B58170012101704178052951
S315000030C006D0122913D018290AD01F2912D015E0CC
S315000030D0DFF82815DFF8282509781278891A21E003
S315000030E0DFF820150A78511E8941C90F1AE0DFF86A
S315000030F0181501E0DFF81415098813E000220FF215
S315000031003C5300E0521CD2B21446E55CFF2D02D1BE
S315000031100021017030BD8D42F4D10FF23C5151F8BF
S3150000312024100978818030BD70B5044620780028C7
S3150000313070D1012020700020A0706278052A08D086
S31500003140122A2BD0182A1DD0192A02D01F2A20D0C5
S315000031502DE0DFF8AC040578DFF8A00401784E1BFB
S31500003160A188052A0CBF0E460D46A919C9B20EF054
S315000031701FFF0028A0704DD1E9B2F0B2BDE8704043
S3150000318013F040BEA188481E8041C00FDFF87414BA
S315000031903DE0A088DFF87414088070BDA18847F26E
S315000031A0315081421DDADFF86004018070BD0FF2F4
S315000031B08C4100E0401CC0B203465D5CFF2D02D18D
S315000031C00020207070BD9542F4D1042B07DADFF899
S315000031D0400450F82300A1880078884201D32B2AA6
S315000031E002D13620A07070BD0FF26C40A18850F855
S315000031F023000B2B0DDAC9B20EF0DAFEA070002800
S3150000320004BF6078112805D1A088DFF8081408707B
S3150000321070BD017070BDF8B504460D4611461846DE
S3150000322018260FF088F90746FF2F08D03A46294698
S31500003230204613F0E5FF064638460FF0F9F830460B
S31500003240F2BD38B504460D46218828460DF0C5FD69
S315000032506188A81C0DF0C1FD20792871607968711C
S31500003260A81DE1880DF0B9FD218905F108000DF0D2
S31500003270B4FDA07AA87231BD10B586B004461B20F5
S315000032808DF80000A0788DF801000DF1020021886C
S315000032900DF0A3FD0822211D01A810F03AFC00A89C
S315000032A0E1780173217B4173607B8DF80E000DF18F
S315000032B00F0000F0B9F9112100F01AF906B010BD9F
S315000032C080B58DF801008DF802101C228DF80020C3
S315000032D0D4E02DE9F04F87B005460E46144614F0AB
S315000032E086F8804622463146284610F051F80028D6
S315000032F065D10DF1090014F082F830B962208DF81D
S315000033000800092102A811F000FBFF2C0FBF4FF0A7
S31500003310000BC149096814F801B045208DF8080072
S3150000332002AF0DF10A017D703046FFF78AFF0DF1FD
S31500003330150000F079F941460DF117000DF04DFD2D
S3150000334002F00FF88DF819000025B448DFF8B092A6
S315000033500668DFF8A8A201E06D1C0C369AF800009A
S3150000336099F80010EDB2401A85420BDA30884045D4
S31500003370F2D10FF08FFDB17AC1F342018142EBD158
S31500003380BD7401E0FF20B8748DF81BB0404613F001
S3150000339012F98DF8040000B10120009001AB22461D
S315000033A0142102A811F0B9FA00281EBF854800783A
S315000033B0212804D19A48017841F00401017007B030
S315000033C0BDE8F08F2DE9F04307469348006887B0C3
S315000033D01D460E9C2E5C884691462146384601F0D5
S315000033E053FB3F208DF804008DF8057041460DF122
S315000033F006000DF0F2FC02A94846FFF722FF6F48CF
S315000034000068285C8DF813008DF814408548007814
S31500003410402804BF0026FF25002000908DF8156087
S3150000342000232A46122101A811F077FA07B0BDE859
S31500003430F0831FB5044623208DF800008DF8014067
S315000034408DF80210204612F03CF901460DF10300FA
S315000034500DF0C3FC0DF10D020DF10501204612F031
S3150000346040F90E2100F044F81FBD80B57C218DF88F
S31500003470001001460DF101000DF0AFFC032100A87C
S3150000348011F043FA01BD70B586B004467D208DF873
S3150000349000000D46164621460DF101000DF09DFC7B
S315000034A0082229460DF1030010F033FB8DF80B605E
S315000034B00C2100F01DF803A813F0A1FF18B903A909
S315000034C0204613F0A5FC06B070BD38B504460D467F
S315000034D001F0BFFA80208DF800008DF801402946E2
S315000034E00DF102000DF079FC042100F001F831BD68
S315000034F000A811F00ABA10B584B0044646208DF82B
S31500003500040001A821784170617881700DF10700EF
S3150000351000F08AF84048A1780068085C8DF8090038
S315000035200023002000900621A27801A811F0F5F9E9
S315000035301FBD80B598208DF800008DF8011000A8F9
S3150000354002219DE71FB50C4692218DF80410082232
S3150000355001460DF1050010F0DCFA0DF10D0000F04A
S3150000356063F82D480068205C8DF80F0000230020CA
S31500003570009022460C21D8E700B5274A126883B08E
S31500003580825C8DF8051093238DF8062000218DF8B6
S315000035900430009102460023032101A811F0BDF971
S315000035A007BD80B507F0CAFCBDE8014006F0C4B906
S315000035B01149002008707047BF7F0020407A002024
S315000035C0767A002015680020787A0020CC660020E4
S315000035D0C8660020A47F0020DA7F0020046900204E
S315000035E0086800200A680020687A00203C7A0020DB
S315000035F0287A0020987F0020DE7F002014670020B4
S31500003600E47F0020986600203467002024670020AD
S31500003610186800203167002088660020186700209F
S31500003620747A0020FC67002010B5044613F0D8FE1B
S31500003630601CBDE8104013F0D5BE00001102090A57
S31500003640030607081A2B2C1910131B14151C1D2012
S3150000365021222A2E333435FFA0660020DC660020A6
S31500003660AA7F0020A97F00201C670020CC660020CE
S31500003670B8660020C4660020A87F002014680020D9
S315000036803C7A0020E47F0020326700203767002064
S315000036903867002036670020B27F002026670020AA
S315000036A0AC7F00208D680020396700203A67002033
S315000036B0B07F0020B47F00201C690020E86600204F
S315000036C0C87A002038B504461046002901461A4635
S315000036D0204602D013F0F5FE01E013F0C3FE0546C6
S315000036E0002C1EBF04980028A04203D021461422B5
S315000036F013F054FF284632BD8E4B1B7802467020CD
S31500003700002B1CBF104608F0B3BF70471CB504461B
S315000037102078F8B902202072A0780A280AD010284A
S3150000372010D101A813F091FF6070BDF80400ADF848
S31500003730000004E00020607000A808F053F90120A2
S31500003740207001E0207828B1BDF8001004F10900CE
S315000037500DF043FB13BD38B504462078002804BF9E
S31500003760A078102812D104F1090101200DF047FBC1
S31500003770054604F10D000DF029FBADF8000000A987
S31500003780284613F037FF60700120207031BD6A496A
S315000037900978027856290CBF0121002122BB8270CC
S315000037A001220270427832B9644A09B1117811E0F7
S315000037B0C07810707047052A05D1614A61B1117849
S315000037C041F0500106E0062A0CD15E4A21B111787B
S315000037D041F06001C1707047C17801F00F01C170FE
S315000037E01170704700210170704710B504462078AB
S315000037F0B8B900F045F806D01E2807D0242807D00F
S31500003800362808D00BE005F089FF06E04E4800E0B8
S315000038104E48007801E04E480088A08010BD002088
S31500003820207010BD10B50446207840BB00F028F883
S3150000383006D01E280AD0242812D0362819D01CE01B
S31500003840A088BDE81040C0B205F06CBF4148A18811
S31500003850007888420AD3C9B23B480EF0A9FB06E0BD
S31500003860A1880B2902DA3948017010BD3620A070F4
S3150000387010BDA0883649088010BD0020207010BDFC
S31500003880012020700020A07060780D2870472DE977
S31500003890FF411546012D074688461C4607D10121E2
S315000038A00020022650EA01020AD103261AE0052D5D
S315000038B0F5D00021032D18BF072DF1D10120F0E727
S315000038C01E4A12783AB1012A08D0022A05D0042AE3
S315000038D008BF0E4604E0012604E058B1002601E0C8
S315000038E0022E07D007F03CFF844203D0214638461B
S315000038F012F04DFE24208DF8000039460DF101002E
S315000039000DF06BFA082241460DF1030010F001F9A3
S315000039108DF80B508DF80C6021460DF10D000DF061
S315000039205CFA0F2100A810F0F0FF304604B0BDE8A5
S31500003930F0810000DE7F0020BF7F0020116800209C
S31500003940AE7F00202C670020AD7F0020B37F0020D3
S315000039502E6700208D95020080B56E218DF800102F
S315000039608DF80100022100A810F0CFFF01BD10B5AF
S3150000397084B00C469B218DF80010082201460DF1FB
S31500003980010010F0C6F88DF809400A2100A810F0D1
S31500003990BCFF1FBD30B58BB004460D462A22FF2161
S315000039A000A810F0F9F8214628460EF0C4FD04469A
S315000039B0FF2C08BF182505D013F088FE05462046C3
S315000039C00EF036FD28460BB030BD10B54E4C2178B2
S315000039D0FF29A8B008BF702020D0002000904A23FD
S315000039E000220AA80EF0C3FD0020009025232178AE
S315000039F04A221DA80EF0BBFD00200090242321784A
S31500003A006F2201A80EF0B3FD20780EF011FDFF2005
S31500003A10207001AA0AA91DA809F008F828B010BD4F
S31500003A20F8B5394F04463878FF280D46164608D1B2
S31500003A30932100200EF07FFDFF28387001D135203C
S31500003A40F2BD01200090334639782A4620460EF012
S31500003A508EFD0020F2BD10B50446A6B0207860BBEE
S31500003A6001202070A0781A2804D024D31C2815D051
S31500003A700AD320E04A2204F1090113A810F049F8FC
S31500003A804A22002113A812E0252204F1090109A8FF
S31500003A9010F03FF825224A2109A808E0242204F163
S31500003AA0090100A810F035F824226F2100A8FFF7BD
S31500003AB0B7FF607001E00020207026B010BD0178CD
S31500003AC0002904BF417829290CD1104909785229C7
S31500003AD004D10F4909788180002100E038218170E6
S31500003AE001210170704710B5074C2078FF281FBFD1
S31500003AF006490978AB29ED2903D00EF099FCFF2081
S31500003B00207010BD0000000013680020BF7F002059
S31500003B10AF7F002011B1012903D004E0114609F05E
S31500003B20F7B809F040B90220704710B5044620786E
S31500003B30002804BF607808280ED11448007856285B
S31500003B4003D109F008FDE07002E0E07809F006FD17
S31500003B500020A0700120207010BD0178A1B9417825
S31500003B602F2908BF0A4902D030290DD1094959B178
S31500003B70064A1278522A07BF0978818082880A701D
S31500003B80002181700121017070470000BF7F002075
S31500003B903C6700203D67002030B58FB005460C46D7
S31500003BA03B22002100A80FF0F7FFB6208DF8000099
S31500003BB00DF10101284600F077F800A8DCB10021DC
S31500003BC080F82910082221460DF12A000FF0A1FFE6
S31500003BD00DF12905207A68720DF1330061890DF027
S31500003BE0FCF8A1890DF135000DF0F7F8A07BA8735C
S31500003BF0E07BE87302E0012180F829100DF139001D
S31500003C00FFF712FD3B2100F00CF80FB030BD80B578
S31500003C10B7218DF800108DF80100022100F001F89F
S31500003C2001BD00A810F071BE10B586B00446B820DC
S31500003C308DF800000DF1010021880DF0CEF86188A5
S31500003C400DF103000DF0C9F8A1880DF105000DF086
S31500003C50C4F8E1880DF107000DF0BFF821890DF1D8
S31500003C6009000DF0BAF861890DF10B000DF0B5F8F9
S31500003C70A1890DF10D000DF0B0F80DF10F00FFF761
S31500003C80D3FC1121FFF7CDFF06B010BD00B58BB0F8
S31500003C90BB218DF800100DF1010100F005F8292176
S31500003CA0FFF7BFFF0BB000BDF8B504460D46A07880
S31500003CB02870681C21880DF090F80822211DE81C48
S31500003CC00FF027FFE078E87204F11007207B2873D5
S31500003CD005F10E06607B687331463A6801200DF0E7
S31500003CE080F87A68311D01200DF07BF8398906F1DC
S31500003CF008000DF072F8082204F11C0105F1180005
S31500003D000FF007FFA18C05F120000DF066F8E18C9D
S31500003D1005F122000DF061F894F8280085F82400DA
S31500003D2094F8290085F8250094F82A0085F82600DD
S31500003D3094F82B0085F82700F1BD0000F8B5B84DC2
S31500003D400446286880782B38022801D90D382ED1F0
S31500003D5000F018FC06462868B249C01C086000211D
S31500003D60312010F091FE05464FF6FF770BE005F186
S31500003D700D0080B210F0BEFDB04213D029463120AE
S31500003D8010F082FE0546BD42F1D1002100E0294631
S31500003D90322010F079FE0546BD4208D010F0AAFD8B
S31500003DA0B042F4D1A42000F006FC00202070F1BD42
S31500003DB038B50446002100E029463F2010F064FE95
S31500003DC005464FF6FF7085420CD0284610F092FD4E
S31500003DD00228F1D1681C80B210F08CFDA042EBD114
S31500003DE0012032BD002032BD2DE9F84380464FF058
S31500003DF000090021452010F047FE04468A4D4FF683
S31500003E00FF7609E0FF21B8B210F079FDA146A1B214
S31500003E10452010F039FE0446B44223D004F11007C1
S31500003E20B8B210F067FD4045F0D1204610F062FDB3
S31500003E30022818BF0328E5D1241FA0B210F05AFDAE
S31500003E4001462888401A32182A8092B27748009292
S31500003E50091900784B1C9BB20246A1B20EF077FD01
S31500003E604C46D3E7BDE8F183F0B5714F3D788BB092
S31500003E7006466C240FF00EF80EF0E6FF6D4800784B
S31500003E80112806D0122830D1718870780FF037FBD0
S31500003E9058B3707804A90FF0D1FA88B1BDF81000B4
S31500003EA040F20911884204BF7088B0F5006F07D14F
S31500003EB0701D13F016FCB52802D0B0B9002414E02A
S31500003EC00124002500E06D1C3878EDB285420CD245
S31500003ED006A9284600F08FF99DF818000028F2D1AF
S31500003EE03146284600F092F9044631208DF800004C
S31500003EF000AF307878707078B8700DF10300718873
S31500003F000CF06BFF307978710822711D0DF10600F7
S31500003F100FF0FFFD8DF80E508DF80F40102100A810
S31500003F2010F0F3FC20460BB0F0BD38B504466C2506
S31500003F300EF0B0FF0EF088FF3E48007811280DD134
S31500003F402046FFF735FF08B1752507E0204600F04B
S31500003F50A7F9050004BF2046FFF746FF32208DF87B
S31500003F6000008DF801408DF80250032100A810F0E2
S31500003F70CCFC284632BD38B504460D46FFF718FF7F
S31500003F8008B1752510E03DB10EF05AFF6873294659
S31500003F90204600F03BF902E0204600F081F90500DA
S31500003FA004BF2046FFF720FF284632BDE3E7002185
S31500003FB0E1E721490978027856290CBF0121002141
S31500003FC0002A04BF4278012A0AD11A4A002919BFD9
S31500003FD01178C170C17811700021817001210170C2
S31500003FE0704710B504462078002804BF607804287E
S31500003FF014D111490E480978522903D10078A080BE
S31500004000002008E00D4AA18812788A4232BF362085
S31500004010C9B20DF0CDFFA0700120207010BD0000C8
S315000040203479002094730020A27F0020F6680020D7
S31500004030AB7F002012680020BF7F00208B95020016
S315000040401FB50C4602460D23142100A80FF0CFFE23
S315000040500D2200A920460FF05CFD20784009607310
S31500004060207800F01F0020701FBD30B585B00446D3
S315000040700D460D2200A80FF04CFD9DF80000697B4F
S3150000408040EA41108DF800000D2300AA21461420B5
S315000040900FF0E4FE05B030BD2DE9FF4104460025D2
S315000040A0DFF88064DFF8807413E03068A84630F8E3
S315000040B01800A0420CD100A9284600F09CF89DF8F3
S315000040C00000022804D031684FF6FD7021F8180070
S315000040D06D1CEDB238788542E7D3BDE8FF812DE946
S315000040E0F04588464FF6FF7AD04585B0044605D19F
S315000040F000F0D0F910B907F033FB33E0DFF82464A1
S31500004100DFF8247400250CE0D04508D0306830F87C
S315000041101510414504BF4FF6FD7120F81510681CB7
S31500004120C5B2387885421CDA306830F8150000F0E0
S315000041300FF9F4DA00A92846FFF782FF0822214684
S315000041400DF105000FF02FFD0028DDD13068D045B8
S3150000415002D130F8150005E020F8158013F0FEFABC
S31500004160DDE7504605B0BDE8F0852DE9FF478046FE
S3150000417089460026DFF8B473DFF8A843DFF8A853B2
S3150000418015E02068B24630F81A0000F0E1F80DDAC2
S3150000419000A93046FFF754FF082241460DF10500FD
S315000041A00FF001FD10B938680AF80090761CF6B2D7
S315000041B028788642E5D3BDE8FF87DFF868130968EB
S315000041C031F8100070471FB50C46DFF85C1309780C
S315000041D088420FD2D349096831F810104FF6FE72A3
S315000041E0914207DA00A900F006F821460DF1050014
S315000041F0FFF775FF1FBD80B5CB4A1278904201D3F9
S31500004200692002BDFFF71CFF002002BD70B5044601
S315000042100D4623460022B3A1032013F00DFF287894
S3150000422018B92046BDE870403AE0BF48007884429D
S3150000423001D3692070BD204613F0ADFE08B175208C
S3150000424070BD0EF0DBFD6873681D07F00BF80646BF
S315000042504FF6FF71681DFFF742FF02462978334685
S31500004260204600F006F829462046FFF7FEFE00200D
S3150000427070BD10B54FF6FF7409B9224608E0032950
S3150000428008BF4FF6FE7203D0A24208BF4FF6FD727A
S31500004290A449096821F81020A4490968435410BDAF
S315000042A030B505462C4685B0234601228DA1032054
S315000042B013F0C2FE9C480078854228BF69201AD2B6
S315000042C0284613F068FE08B1752014E000A92846B8
S315000042D0FFF7B6FE9DF8000030B100208DF8000013
S315000042E000A92846FFF7C1FE8E4909684FF6FF7000
S315000042F021F81400002005B030BDF0B585B00746A2
S315000043000C46884D884E00E07F1C3078FFB287420D
S315000043101BD2286830F8170000F01AF8F4D100A96B
S315000043203846FFF78DFE9DF80500E1B2884204BFCE
S315000043309DF80600B0EB142FE6D10EF05FFD9DF858
S315000043400D108142E0D1384600E0FF2005B0F0BDF7
S315000043504FF6FE71884270472DE9F14F84B00D4645
S315000043600E9C704FDFF8C0A190469946002607E0E4
S315000043703868BDF8101030F81B0088422BD0761C28
S315000043809AF80000F6B2864227D23868B34630F86B
S315000043901B00FFF7DDFFF2DA00A93046FFF750FEFB
S315000043A0B8F1000F07D19DF80100484504BF9DF8FC
S315000043B00400A042E3D10EF021FD9DF80D108142CC
S315000043C0DDD1002DD4D008220DF1050128460FF0CD
S315000043D0EAFB0028D3D1304600E0FF2005B0BDE857
S315000043E0F08F10B51446FFF72BFE2046BDE81040AF
S315000043F008224F490FF08DBB2DE9FF4704460846BA
S3150000440015461E4600F046F808B100203FE000279A
S31500004410DFF81081DFF8109100E07F1C99F80000AA
S31500004420FFB2874222D2D8F80000BA4630F81A0006
S315000044304FF6FF718842F0D000A93846FFF700FE1C
S315000044400C220DF10101601C0FF0ADFB0028E4D138
S31500004450BAF1FF0F0CD1002030700EF0EFFC30786F
S3150000446045B178B92046FFF7FFFC07E0FF27F2E7E2
S315000044700120F1E738B13846FFF757FD401E80416D
S31500004480C00F00E0012030700EF095FC012004B052
S31500004490BDE8F087082226490FF085BB30B585B008
S315000044A00024214D17E000A92046FFF7C9FD9DF81D
S315000044B00000042806DB00208DF8000000A9204635
S315000044C0FFF7D3FD9DF8001000234FF6FF7220463C
S315000044D0FFF7CFFE641C2878E4B28442E3D305B02C
S315000044E030BD00004242000030B585B002220CA16A
S315000044F0032013F0A1FD00208DF8000000240A4DD2
S3150000450004E000A92046FFF7B0FD641C2878E4B259
S315000045108442F6D3FFF7C2FF002005B030BD00008D
S315000045204200000008670020AB7F00200C670020D7
S315000045303879002030B583B0044600F023F80546EC
S31500004540202D1ADA5CB100A9082000F022F8082311
S3150000455000AA294620200FF081FC00200EE0082347
S315000045602A46202100A80FF042FC002000F023F884
S3150000457000A9082000F04CF837BD702000F01BF8A9
S3150000458037BD70472B480168491C016011F8010DC1
S31500004590704738B50446274D0846296822460FF06D
S315000045A0B8FA28682018286031BD224A11684018D8
S315000045B01060084670472049204B0A681B68D31ACA
S315000045C0C82BB8BF10700868401C0860704710B54B
S315000045D00446C0B2FFF7EFFF200A4CE010B5FFF724
S315000045E0D1FF00F03AF9000250FA84F080B210BD13
S315000045F010B5044680B2FFF7EAFF200CB3E010B511
S31500004600FFF7ECFF00F060F8000410FA84F010BD2C
S3150000461038B5094C094A2368126805469A1AAA1839
S31500004620C92A03DA024618460FF073FA20682818DA
S31500004630206031BD947300209873002034790020E7
S3150000464010B50446214600F08CF8FFF7C7FF20811D
S31500004650FFF798FFA072FFF795FFE072FFF792FF52
S315000046602073FFF7BBFFE081FFF78CFF2074FFF795
S31500004670C6FF606110BDBDE810409CE710B500F0B4
S3150000468023F82080FFF7AAFF6080FFF77BFF2071E9
S31500004690FFF778FF6071FFF7A1FFE080FFF79EFF4D
S315000046A02081FFF76FFFA07210BD10B500F009F86A
S315000046B0A078E0E710B500F007F800F007F8A07062
S315000046C010BD0446208882E7044687E7208059E724
S315000046D010B500F0C2F8A070FFF780FF2080211D02
S315000046E000F03FF8FFF74EFF00B10120E070FFF742
S315000046F049FF2073FFF746FF607310BD10B500F049
S31500004700DCF820690EE110B500F008F9FFF777FF35
S31500004710206110BD10B5FFF7D7FF208010BD2079AE
S3150000472049E710B50446FFF7D3FF04F1100000F087
S315000047301DF804F11C0100F014F8FFF74FFFA084E8
S315000047402434FFF74BFF6080FFF71CFF2071FFF753
S3150000475019FF6071FFF716FFA071FFF713FFE071F5
S3150000476010BD082015E7BDE8104030E710B5044637
S31500004770FFF745FF2060FFF742FF6060FFF72EFF5F
S31500004780208110BD10B500F011F8A088FFF71FFFBB
S31500004790E088FFF71CFF2089FFF719FF6089FFF704
S315000047A016FFA089FFF713FFA07B64E70446206885
S315000047B01EE710B50446FFF722FF2060FFF70EFF45
S315000047C0A080FFF70BFFE080FFF708FF2081FFF7CF
S315000047D005FF6081FFF702FFA081FFF7D3FEA073FC
S315000047E010BD10B5FFF7E2FFFFF799FF611D10201E
S315000047F0FFF70EFF04F11501BDE81040102007E792
S3150000480010B5FFF761FF2080A11C22E010B5044619
S315000048102078FFF7D0FE611C0F20FFF7F9FE04F1A8
S3150000482010010320FFF7F4FE04F11301BDE8104068
S315000048300720EDE610B500F010F82070611C0F207F
S31500004840FFF7A7FE04F110010320FFF7A2FE04F113
S315000048501301BDE8104007209BE6044692E638B5F2
S3150000486000F02BF804F110010820FFF7D1FEA06933
S31500004870FFF7BEFE04F11805A888FFF7A8FEE88832
S31500004880FFF7A5FE2889FFF7A2FE6889FFF79FFEBE
S3150000489004F124010720FFF7BBFEE87CFFF78BFE3F
S315000048A0287DFFF788FE687DFFF785FEA87DFFF768
S315000048B082FEE87DBDE832407DE6044621461020B2
S315000048C0A6E638B500F02AF804F11001FFF749FF13
S315000048D0FFF795FEA06104F11805FFF77FFEA8809B
S315000048E0FFF77CFEE880FFF779FE2881FFF776FE6A
S315000048F0688104F124010720FFF74BFEFFF742FE13
S31500004900E874FFF73FFE2875FFF73CFE6875FFF772
S3150000491039FEA875FFF736FEE87531BD0446214617
S31500004920102036E6BDE8104062E610B5FFF795FFA9
S315000049302072FFF764FE206010BD0CB4F8B5044683
S315000049400D4606AE07E056F8040B1CB10078FFF7DB
S315000049502CFE38606D1C2878A0B356F8047B6228BC
S3150000496024D07028EFD0732818BF752804D0762875
S315000049700BD0772812D0EDE71CB1FFF703FE387095
S31500004980E8E73878FFF717FEE4E71CB1FFF726FEE5
S315000049903880DFE73888FFF71AFEDBE714B1FFF748
S315000049A02EFED6E73868FFF723FED3E756F8040B4A
S315000049B00078002C394602D0FFF7EBFDCAE7FFF777
S315000049C027FEC7E7F1BC5DF80CFB000070B54D4D46
S315000049D06E8A044605F1080013F061FB012C08BF3E
S315000049E0AE8A02D0022C08BF022618B1FA21714302
S315000049F0884206D3310205F10800BDE8704013F085
S31500004A0041BB70BD7CB53F4C3F4E0020E07020712D
S31500004A104FF6FD75607988B14FF6FC700190002362
S31500004A200020009002460146308803F08BFE358058
S31500004A30002060710120BDE87640C7E7A178208A92
S31500004A4005F054F93088A842F4D0012060710220A4
S31500004A50F1E710B5A92818BFAA2814D12948C278A9
S31500004A600378521CC270D2B29A420CD3264A1388DB
S31500004A704FF6FD74A34202D111800021417100203E
S31500004A80BDE81040A2E710BD00281CBF012802287F
S31500004A900CD166290AD11B480179491C0171C9B29A
S31500004AA04078814224BF0020FFF790BF704710B5C1
S31500004AB0144C21829200029921709B000399628214
S31500004AC0A38261709BB20499A17092B2934208D3FB
S31500004AD0218A4FF6F87291421CBF4FF6F972914245
S31500004AE001D0702010BD002161714FF6FD71064A9C
S31500004AF0118018B10120FFF769FF00E02072002045
S31500004B0010BD0000DC7400206E6800202DE9F84F0F
S31500004B108AB088461646ADF804804FF00009F5883D
S31500004B200446CA46002704F0EEFE159860B9E8066A
S31500004B300AD59DF850009DF828300090324641462F
S31500004B40204612F0C5FD10E1680548BF4FF4805AB3
S31500004B50280548BF4AF4006AA80548BF4AF0800AFB
S31500004B6003D4E80548BF4AF0400A9DF85000029079
S31500004B700A2CC34668D8DFE804F007301B3F676796
S31500004B803F06073F190002279DF82800BDF80420BC
S31500004B9000904B469DF850004AF4027111F03CF823
S31500004BA08246BAF1FF0F51D11820DEE00327EBE76A
S31500004BB005A95FFA88F0FFF71EFB08220DF119011F
S31500004BC003A80EF0A6FFDFF8C808006830F81B003F
S31500004BD00DF10C09ADF80400D6E703A95FFA88F0D9
S31500004BE006F024FADFF8AC0800680C2101FB0B0084
S31500004BF00DF10C090088EDE74FF6F870834523DBCD
S31500004C00F0884FF4026108421ED100F03AF918BF4D
S31500004C1091201AD10298FF280FD000F076FB032CC2
S31500004C200CBF01210021401ADFF86C18029A0968AE
S31500004C30515C8842B8BF742007DB032C0CBF0C27DD
S31500004C4008272AF4C07A9FE701208EE0DFF84C0897
S31500004C5000884FF6FF71884214D0504613F035FB9A
S31500004C608346DFF8380801880BF104000CF0B5F82C
S31500004C70DFF82C08DFF8241800788BF807004FF6C9
S31500004C80FF70088032463946504611F0A0F908B93F
S31500004C90182666E0DFF80C080068C07E70B1A8062A
S31500004CA00CD5E8074CBF2020002040F001034A46FF
S31500004CB00021504612F01FF8060052D10298FF2834
S31500004CC016D0504613F0F7FADFF8D8170968C97EF0
S31500004CD001B11221DFF8C027029B12689B5C1AF80B
S31500004CE00220D218743089188842B8BF742638DB7F
S31500004CF0A80407D5504613F0F2FA40F480615046F6
S31500004D0013F0EFFA082C12BF092C504613F0F6FAEE
S31500004D10159848B1BDF80410504613F008FB1598D5
S31500004D2080F800A0002020E0E01E05D0C01E01286B
S31500004D3084BFC01E012807D8504604F05BFE002839
S31500004D400CBFA12600260CE0A80444BF4FF6BF7096
S31500004D5005402B465FFA88F22146504612F00FFDB9
S31500004D60064650460DF064FB30460BB0BDE8F08FAA
S31500004D70F0B587B00E4604460C99174618460DF056
S31500004D80DAFB0546FF2D21D0FF208DF810008DF8A7
S31500004D901100ADF80E704CF20E00ADF80C00ADF837
S31500004DA012600020ADF81400009502A80190FF23C0
S31500004DB003AA21460020FFF7A9FE044628460DF067
S31500004DC037FB002C0CBF9DF80800FF2007B0F0BD94
S31500004DD02DE9F043164685B00446F08804900D464A
S31500004DE070790FF2007103901F4630790290A84641
S31500004DF070880190434630880090082200F098F8A9
S31500004E0000F03FF818BF912019D1FF2F09D000F00C
S31500004E107CFADFF884160968795C884238BF74200A
S31500004E200DD37CB94FF6F870804528DA0020019042
S31500004E300097FF23324629462046FFF767FE05B056
S31500004E40BDE8F083022C4FF6FE790CD1DFF8580648
S31500004E500078854213D2DFF83806006830F818006B
S31500004E604845E3DB0BE0012C09D1DFF8400600786A
S31500004E70854204D2E8B206F0E7F84845D6DB0120C1
S31500004E80DDE7DFF820060068407B02287047F0B5B2
S31500004E9087B00D461646044605961F46E8880FF26B
S31500004EA04C61049023466879039009222879029080
S31500004EB0688801902888009000F03AF80020019058
S31500004EC0009733462A4621460620FFF71FFE07B005
S31500004ED0F0BD2DE9F04188B01E460E9C0794804631
S31500004EE0F08806901746707905900D4630790FF2D6
S31500004EF0086104904346708803900A223088029025
S31500004F000197009500F014F8DFF89005A0F80080EE
S31500004F102346DFF88C0507700020019032460F9873
S31500004F20009029460620FFF7F1FD08B0BDE8F081A4
S31500004F30032013F081B870B588B000F013F8DFF8DD
S31500004F40700500780096002814BF4FF6FF714FF6E3
S31500004F50FD71002001902B4622460320FFF7D6FD67
S31500004F6008B070BD04460D46069205951E46E088BB
S31500004F700FF29051049006226079039020790290F6
S31500004F8060880190208800900320238913F054B88C
S31500004F9010B5DFF820050DF020FD0446FF2C0DD0DE
S31500004FA0214604200CF09BFF18B10121204600F099
S31500004FB006F82046BDE810400DF03ABA10BD2DE9BE
S31500004FC0F04F89B082460D4613F07FF90646B01CB5
S31500004FD00BF0FCFE8346504610F0D0FE00F07EFA41
S31500004FE0804608F00309504613F083F90DF0B3FE2E
S31500004FF0DFF8C474301D0BF0E9FE3880DFF8BC44DE
S3150000500006F0AEFB834512D04FF6F87083450EDAF4
S315000050107078C0070BD4584610F08FFB002805D0D7
S31500005020388801235246594600F0B3F977E005A9BE
S31500005030504610F035FF05A82060304610F0BEFE41
S31500005040DFF87C1408600321504613F02EF9DFF8D0
S31500005050741408700421504613F027F9DFF8681419
S31500005060087055B39DF81A00800626D5DFF834641B
S3150000507006F076FB40B13068007D800704D4B9F1B4
S31500005080010F08BF102000D0002040F008030022C6
S315000050900021504611F02FFE78B108F003000128D8
S315000050A002BF3068407B11284CD100F07FFD0028FC
S315000050B048D1AF2001F08DFB44E018F0030003D087
S315000050C0022806D00AD32AE02946504600F03FF8C7
S315000050D025E05146404612F080FB20E006F040FBFA
S315000050E0398881421BD0514605200CF0F8FEB0B13C
S315000050F02168887940060DD50C2202A80EF009FD1C
S3150000510000200190FF23FF20009002AA39880A2080
S31500005110FFF7FCFC39882A46504606F0ACFC06F040
S315000051201FFB398881420BD1504610F027FE00F054
S31500005130D5F90C21084203D10021504612F06FFD2B
S31500005140002020600DF037FE09B0BDE8F08F2DE994
S31500005150FE4F814613F0B9F80546484610F00EFE9C
S31500005160014648460DF0FCFA8246687800F00100D8
S315000051700290A81C0BF02AFE4FF6F8718842ACBFCD
S315000051800127002706F0ECFADFF82C83DFF82C6302
S31500005190B8F8001081423068B0F802B002980CBF2F
S315000051A00124002438438DF804009DF804000028EB
S315000051B014BF0620082000210DF0C7FF30680188C3
S315000051C0002904BF4079002814D100A9484603F0FD
S315000051D03BFA33689DF80010421ED2B2032013F04A
S315000051E06EF9B8F80000BBF5004F19DB5A46494680
S315000051F003F03EFA306800884CF20E0188423FD137
S3150000520044F20107BB4518BFBBF5804F35D1484670
S3150000521010F03AFE0146BB450CBF0120002023E0FA
S31500005220AA4A022111703B460022494603F098F82B
S3150000523030688079400603D5FF21584600F06CF8A7
S31500005240BBF1130FD6D03068C0884004D2D4A04931
S315000052509E4809780078CA0701D50228CAD089076E
S3150000526045D50128C6D042E0491EC9B200912B4659
S315000052704A46012101F094FE39E0484613F08EF9C2
S315000052803068029919B90AF00C010C290DD1008970
S3150000529006F015F858B330680189002C14BF0325B1
S315000052A002250020FFF729F812E00179009100227B
S315000052B04379B8F800000021FFF74EF80AF00C0118
S315000052C0082904D1002C0CBF0425052500E0002583
S315000052D0804908709DF8040010B9BBF1380F01D160
S315000052E0012200E000222946484612F021F8BDE8D6
S315000052F0F78F10B5044600F008F8610548BF083876
S31500005300210548BF0838C0B210BD66490968C97E84
S31500005310642001B15220704770B5684E0C4686B0C5
S31500005320054631680C2202A80EF0F3FB30680179BD
S315000053308DF80D10FF2341798DF80C10ADF80A5049
S315000053404FF6BF71C08800940840ADF80E0002AA5F
S3150000535000200190584801880720FFF7D7FB06B0C8
S3150000536070BD5D48007808B9FF207047594800783D
S3150000537070470A4680B50C21084208D1907940064C
S3150000538005D55088FF21FFF7C7FF012002BD002089
S3150000539002BD2DE9F34F924683B01C46504610F0ED
S315000053A0EDFC00F09BF8834603201BEA000F6AD150
S315000053B042480668404807884FF0000800A9504652
S315000053C010F06EFD3D4900A808603B49BDF80C0091
S315000053D008809DF80500002804BFBDF800000028DD
S315000053E035D1504612F071FF801C0BF0EFFC4FF6E2
S315000053F0F8718842ACBF4FF00109C146002C14BFBA
S31500005400022401240125EDB2AC4236D3BDF80C00CE
S315000054104B462A46514602F0A3FF5FEA000814D025
S31500005420022C08BF012D10D1BDF810001B490880C1
S315000054301C480068417E491C4176A1F1800018494C
S31500005440087000A95846FFF794FF6D1CDBE7BDF80E
S3150000545000004CF20E01884204BFBDF8020001288C
S315000054600BD144B1BDF81000514613F0F8F800A96D
S315000054705846FFF77EFF4FF00108104806600E48B9
S315000054800780404600E0002005B0BDE8F08F000030
S315000054900867002018670020886600209A680020A8
S315000054A0CE7F0020287A0020AB7F002014670020E2
S315000054B0B47F0020A4680020767A0020787A002045
S315000054C07C7A0020D9740020DA740020CD7F002079
S315000054D0B07F0020DB7F0020747A00200146504612
S315000054E00DF03EB942575757424257004257575759
S315000054F04242574200000000425757425757424225
