S01500006D66672D73616D706C652D6170702E73333788
S31508004000F8F500207DA60108F5A50108F9A501081F
S31508004010A70A090100410008040E03AC00579B01DA
S315080040200000000000000000000000000000000082
S315080040300000000000000000000000000000000072
S315080040400000000000000000FFFFFFFFFFFFFFFF6A
S31508004050FFFFFFFF00E00708000000000000000067
S31508004060FFFFFFFFFFFFFFFFFFFFFFFFFFFFFFFF52
S31508004070FFFFFFFFFFFFFFFFFFFFFFFFFFFFFFFF42
S31508004080F0FF002000000000EDFF0020EDFF0020FB
S31508004090F8F500207CAF0108F0A8010898EC00208C
S311080040A0A40F0020000008080000012002
S31508004100F8F500207DA60108F5A50108F9A501081E
S3150800411001A60108FDA5010805A601087CA6010857
S315080041207CA601087CA601087CA601087CA60108D5
S3150800413009A601087CA601087CA60108AF9000081C
S31508004140BDA501087CA60108B39800087CA601084D
S3150800415097680008BD9600087CA601087CA6010899
S315080041603D720108BDA1000807230108C99300088C
S315080041707CA60108C39700080B9800087CA60108CE
S31508004180099E00087CA601087CA601087CA60108F1
S3150800419010B5DFF88C395C89641C5C819C89641CC9
S315080041A09C81DC796CB901245A71DC719C81997106
S315080041B0411C0278DFF86C091A71BDE8104001F05D
S315080041C09DBA10BD2DE9F047DFF854490FF6E41102
S315080041D0A28982B000F018FA207994F90530A279FC
S315080041E00FF6E41100F02FF800F00AFA0025B3A63E
S315080041F0B3A7DFF830890FF6F81917E0E81005EBD2
S3150800420010700011B5EB001A04D1494600F05BF9AD
S3150800421000F0F6F915F80820394600F0F5F9BAF174
S315080042200F0F01D100F04EF96D1CEDB220798542D1
S31508004230E4DB00F047F900F0E3F90020E071A08123
S31508004240E081BDE8F3870090012001F0C1BB38B5D5
S3150800425001F025FC044601F039FC01F053FD012369
S3150800426000220F21012001F051FD01F00AFD03464D
S3150800427022460FF68811012001F02DFE01F06AFE94
S31508004280020006D00FF68811012001F024FE8BA14A
S3150800429001E00FF69411012001F01DFE012002F045
S315080042A0FFF8DFF87C4805E000202072A089E0814D
S315080042B002F0F9F802F082FA01F03FFF02F0D4FAB0
S315080042C00546208A281A80B2C928F1DB072002F0A1
S315080042D057FBE07925820028EAD0E089A18988423F
S315080042E0E2D1207A401C2072C0B20228DED1FFF744
S315080042F069FFDBE710B59028DFF8244804D0912839
S3150800430008D0942809D00FE00FF6301100F0DBF83A
S31508004310012007E00FF6501101E00FF6781100F0C2
S31508004320D2F80020E07010BDBDE8104002460FF636
S315080043309011012001F04CBB7047704770477CB55F
S3150800434004460D46164602F097FBDFF8DC170968A7
S31508004350715C019103466988009122460FF6801127
S31508004360FFF772FF73BD0FF6A41100F01FBCF8B576
S315080043700D4604460FF6D01101F02AFB0826B1A710
S315080043807019394610F8012C204601F021FB761EDB
S31508004390F6D110E0F8B50D4604460FF6B41101F053
S315080043A017FB0026A7A7725D3946204601F010FBC9
S315080043B0761C082EF7DB41A1204601F009FBBDE873
S315080043C0F240012001F076BDF0B587B001A802F0F1
S315080043D0BBFB20B102460FF68C1100F015F90FF65B
S315080043E02C1100F070F8DFF844170120FFF7BFFF23
S315080043F04FF4AE420FF6A01100F006F9DFF8206779
S315080044000FF6A411307890A490A5002814BF2A4668
S31508004410224600F0F9F800F0F3F8307810B302F00D
S315080044201FFD074602F0F9FC02463B460FF68C11C3
S3150800443000F09CFB02F0EEFB02460FF6A81100F016
S31508004440E3F872890FF6B81100F0DEF8707818B143
S315080044500FF6CC1100F037F8B07818B10FF6DC116A
S3150800446000F031F8F07800B12C4622460FF6EC1130
S3150800447000F0CAF800F0C4F8F078C0B101F066FFA1
S3150800448002460FF6EC1100F0BFF800F0B9F8BDF8D7
S315080044900C009DF90E309DF80F200FF6E811FFF776
S315080044A0D2FE01A90120FFF775FF00F0A9F803A1C4
S315080044B000F009F800F0A4F807B0F0BD0D0A0000F6
S315080044C0257820003146012001F082BA10B586B061
S315080044D001210FF6E01002F085F890B100F043FBD9
S315080044E000F084F800F07CF800F085F800EB042072
S315080044F0ADF8080000A802F083FE02460FF6BC11CC
S3150800450050E001210FF6C41002F06CF800B318222F
S31508004510002100A801F035F90822002100A801F0C1
S3150800452030F900F020FB00F061F800F059F800F0CF
S3150800453062F800EB0420ADF8080000A900208DF809
S315080045400C00022002F0E3FE02460FF6881129E06D
S3150800455001210FF6901002F045F820B102F0C7FFCE
S315080045600FF6881109E001210FF6901002F03AF8CB
S3150800457028B104F0FCF80FF68C11024612E001216E
S315080045800FF6901002F02EF878B100F0ECFA0FF65C
S315080045908C11C4B200F037F8204602F097FE0246A6
S315080045A00FF6841100F030F818E00FF68C11FFF7BB
S315080045B08AFF0FF6B411FFF786FF0FF6DC11FFF737
S315080045C082FF00F01DF80FF6E011FFF77CFF0FF6EB
S315080045D0E811FFF778FF1EA1FFF775FF06B010BDBB
S315080045E08DF80A000421002002F025B88DF80B008A
S315080045F0032002F062B804460421012002F01BB829
S31508004600012001F057BC2246012001F0E1B970B53E
S3150800461004460D46681E20703AB10126AE420FDAEE
S3150800462004F096FA3055761CF8E70126DFF80005FF
S3150800463004E0311811F8011C3155761CAE42F8DB3E
S3150800464070BD0000257800004E4F00005945530004
S315080046500D0A00002DE9F0470FF67414DFF8C05470
S3150800466082B0012100F074FAB8B100F07CFAC4B245
S31508004670012C0CBFDFF8BC04002002F0EFFA064656
S31508004680334622460FF6501100F070FA002E03D179
S31508004690012028700020688139E2012183A001F0F9
S315080046A0A1FF88B16A890FF65411FFF7ADFF02F032
S315080046B009FB064632460FF66C11FFF7A5FF002EDA
S315080046C001D10020287022E201210FF6741001F0B2
S315080046D089FFD8B100F03BFA58B102F02FFB064625
S315080046E032460FF66411FFF78FFF002E0DD1012019
S315080046F00AE002F02EFB064632460FF66011FFF777
S3150800470083FF002E01D10020687000E201210FF618
S31508004710601001F067FFD8B100F019FA58B102F03D
S3150800472022FB064632460FF65011FFF76DFF002EA4
S315080047300DD101200AE002F024FB064632460FF6A8
S315080047405011FFF761FF002E01D10020A870DEE1AD
S3150800475057A401210FF6501001F044FF002800F07D
S31508004760938000F000FA0546042001F0A6FF0746EC
S31508004770DFF8C4630FF63810032101F033FF68B180
S315080047800122F9B23046FFF742FF812F3BDB0FF6D5
S315080047909811FFF798FE80277F203CE003210FF64B
S315080047A0181001F01FFF40B1412F04DB40233A46A1
S315080047B00FF60C11A0E00022E3E703210FF63810EC
S315080047C001F010FFE0B10027042100F0B9F9B8554F
S315080047D007EB0608052100F0B3F988F8080006215A
S315080047E000F0AEF988F81000072100F0A9F97F1C3F
S315080047F0082F88F81800E7DB3078471CBFB2C4E7F3
S315080048000FF6FC0181E1062F06DA0FF64C11FFF7C9
S315080048105AFE0627052030703B462A460FF66811D1
S3150800482000F0A4F94FF000080FF2E8290FF6841AF1
S3150800483013E04FEAE80008EB10700011B8EB00101F
S3150800484002D15146FFF73FFE18F806204946FFF702
S31508004850DBFEFFF7D5FE08F10108B845E9DB21467E
S31508004860FFF731FE2DB90FF65411012001F0B8F803
S315080048704DE1691E89B2304602F090FA0600F7D07B
S3150800488002460FF66011DCE0A3A6A4A701210FF6E5
S315080048906C1001F0A7FEE8B100F061F950B102F022
S315080048A0BCFA02460FF65C11CBE000BF656E6400E9
S315080048B00D0A000000F04FF900281FD0032001F070
S315080048C0FCFE0446C0B202F09DFA0346E2B20FF6B9
S315080048D0501111E001210FF6741001F083FE70B338
S315080048E000F03DF958B102F095F9044602F0B8FA1D
S315080048F0024623460FF65C1100F038F907E100F08E
S315080049002AF90028FAD004210FF66C1001F06AFE85
S315080049100028F3D0032001F0D0FE0446052001F05C
S31508004920CCFE0546032D09DA61B202F078FA00904A
S315080049302B46E2B20FF64811FFF786FCE7E00121A5
S315080049400FF6701001F04EFEE0B100F00CF90446C7
S31508004950032001F0C7FE0546E4B222460FF66011B1
S31508004960FFF752FE25B90FF69811FFF7ACFD04E0E4
S315080049702A460FF6D011FFF747FE2946204602F0D1
S3150800498071FAC4E00FF6E818012100F0DDF800B36B
S3150800499000F0E5F828B102F05FFA02460FF6DC11DE
S315080049A04FE000F0D8F80028EBD0032001F076FE9F
S315080049B06D780FF6EC1144B2FFF725FE0DB102F043
S315080049C0C8F9204602F03FFA002D01D002F0B6F9E8
S315080049D09DE001210FF6EC1001F004FE002833D00B
S315080049E0564804880FF6E410022101F0FBFD68B171
S315080049F000F0A9F850B102237F22214600A804F04E
S31508004A00B7F8BDF800200FF6CC111AE002210FF610
S31508004A10FC1001F0E7FD002879D000F094F8002892
S31508004A2075D002F019FAC0B240F47E40ADF8000025
S31508004A30022200A9204604F0CAF8BDF800200FF6A5
S31508004A40D411FFF7E1FD62E00FF60021FFF73BFD09
S31508004A500FF62821FFF737FD0FF62C21FFF733FD58
S31508004A60FFF7CEFD0FF63421FFF72DFD0FF63C219B
S31508004A70FFF729FD0FF64821FFF725FDFFF7C0FDD3
S31508004A800FF65021FFF71FFD0FF67821FFF71BFDE4
S31508004A900FF69821FFF717FDFFF7B2FD0FF6AC21C9
S31508004AA0FFF711FDFFF7ACFD0FF6C421FFF70BFD6D
S31508004AB00FF6E821FFF707FDFFF7A2FD0FF6EC2139
S31508004AC0FFF701FDFFF79CFD0FF60431FFF7FBFC2E
S31508004AD0FFF796FD0FF60C31FFF7F5FCFFF790FD93
S31508004AE00FF64831FFF7EFFC0FF68C31FFF7EBFCBA
S31508004AF0FFF786FD0FF69431FFF7E5FC0FF6A831B0
S31508004B00FFF7E1FCFFF77CFD2146FFF7DCFCBDE87B
S31508004B10F3870000202578007365740067657400C4
S31508004B207EF90020B0F800205CF60020A8FB0020E3
S31508004B300CF600209141000830F8002046AD010827
S31508004B40F8B201F078BD0321404601F04BBD0221C1
S31508004B50204601F047BD0221304601F043BD02213F
S31508004B60384601F03FBD022001F0A7BD012000F044
S31508004B702FBF00F0DBBF0000F8B500240FF6443560
S31508004B800FF64836004F07E04CF6002056F834205A
S31508004B902946FFF739FD641C3878E4B28442F5D318
S31508004BA0BDE8F44000A101E00D0A0000012000F074
S31508004BB00FBF00000D0A4D4647205258202532786F
S31508004BC020706B74730D0A006669727374207061C5
S31508004BD0636B65743A206C71692025752C20727395
S31508004BE073692025642C206C656E2025750D0A00D6
S31508004BF02020202020203A200000000052657365FE
S31508004C00742830782578293A25700D0A00000000A6
S31508004C104552524F523A20656D626572496E697403
S31508004C2020307825783A0000656D626572496E69AC
S31508004C3074207061737365640D0A00004556454E0D
S31508004C40543A20737461636B537461747573206E80
S31508004C506F7720454D4245525F4E4554574F524B4C
S31508004C605F55500D0A0000004556454E543A2073CC
S31508004C707461636B537461747573206E6F77204526
S31508004C804D4245525F4E4554574F524B5F444F571E
S31508004C904E0D0A004556454E543A20737461636BAF
S31508004CA0537461747573206E6F7720454D42455273
S31508004CB05F4A4F494E5F4641494C45440D0A00003C
S31508004CC04556454E543A20737461636B5374617448
S31508004CD07573206E6F7720307825780D0A000000EE
S31508004CE0525820747970652025782066726F6D2079
S31508004CF02532782C20636C7573746572202532789A
S31508004D002C206C656E202578000000004D616E75BC
S31508004D10666163747572696E67204C696272617246
S31508004D20792053616D706C65204170706C696361A0
S31508004D3074696F6E2C2076657273696F6E20312EDA
S31508004D40300D0A0D0A0000004555493A20000000BA
S31508004D50202020457874656E64656450616E4964E8
S31508004D603A2000004572726F723A20676574206EA9
S31508004D706574776F726B20706172616D65746572A8
S31508004D80206661696C65642C207374617475732080
S31508004D90307825780D0A0000737461636B205B25F3
S31508004DA032785D0D0A000000696E206D6667206D19
S31508004DB06F64653A2025700D0A0000002020206DDA
S31508004DC06667206368616E6E656C3A203078257870
S31508004DD02C206D666720706F7765723A20307825CB
S31508004DE078000000202020545820706F77657220C4
S31508004DF06D6F64653A2030782532780D0A00000018
S31508004E002020206D666720706B7473207265636559
S31508004E10697665643A2030782532780D0A000000F4
S31508004E202020206D666720546F6E65207465737444
S31508004E302072756E6E696E670D0A00002020206D5F
S31508004E4066672053747265616D2074657374207289
S31508004E50756E6E696E670D0A0000000073746163F3
S31508004E606B2069732075703A2025700D0A000000C2
S31508004E7020202073686F7274204944205B2532789D
S31508004E805D0D0A002020206368616E205B3078255E
S31508004E90785D2C20706F776572205B307825785D99
S31508004EA02C2070616E4964205B30782532785D0D60
S31508004EB00A000000666F726D00000000666F726D72
S31508004EC020307825780D0A0D0A0000006A6F696E91
S31508004ED0000000006A6F696E20307825780D0A0D8B
S31508004EE00A000000696E697400000000696E697442
S31508004EF020307825780D0A0D0A0000006C65617669
S31508004F00650000006C6561766520307825780D0AA5
S31508004F100D0A0000706A6F696E00000076616C20E9
S31508004F20307825780D0A0000704A6F696E2030784F
S31508004F3025780D0A0D0A00006E6574776F726B206E
S31508004F40666F726D203C6368616E6E656C3E203CD0
S31508004F50706F7765723E203C70616E696420696E79
S31508004F60206865783E0D0A006E6574776F726B204F
S31508004F706A6F696E203C6368616E6E656C3E203CA4
S31508004F80706F7765723E203C70616E696420696E49
S31508004F90206865783E0D0A006E6574776F726B201F
S31508004FA0696E69740D0A00006E6574776F726B20FE
S31508004FB06C656176650D0A006E6574776F726B2095
S31508004FC0706A6F696E203C74696D653E0D0A000053
S31508004FD073746172740000006D66676C6962207391
S31508004FE07461727420282578292C2073746174756D
S31508004FF07320307825780D0A0D0A00007278203063
S3150800500078253278207061636B65747320776869D8
S315080050106C6520696E206D6667206D6F64650D0A84
S31508005020000000006D66676C696220656E64207317
S31508005030746174757320307825780D0A0D0A00009E
S31508005040746F6E6500000000737461727420746F6B
S315080050506E6520307825780D0A0D0A0073746F7016
S3150800506020746F6E6520307825780D0A0D0A0000C9
S3150800507073747265616D0000737461727420737461
S315080050807265616D20307825780D0A0D0A000000DA
S3150800509073746F702073747265616D20307825782B
S315080050A00D0A0D0A0000000073656E64000000001A
S315080050B072616E646F6D00007465737400000000A1
S315080050C06C656E677468206F662030782578206C6A
S315080050D06172676572207468616E206375727265A5
S315080050E06E742074657374207061636B6574202810
S315080050F030782578290D0A006D6573736167650038
S315080051006E6F74207265636F676E697A65642C20AA
S3150800511074727920226D66672220666F7220686530
S315080051206C700D0A0000000061646A757374696E1C
S3150800513067206C656E6774682066726F6D203078BC
S31508005140257820746F206D6178696D756D206F669E
S31508005150203132380D0A000061646A757374696E0D
S3150800516067206C656E6774682066726F6D2030788C
S31508005170257820746F206D696E696D756D206F6670
S3150800518020360D0A0000000073656E64696E67209C
S315080051906D66676C696220307825327820706163A5
S315080051A06B65742873292C206C656E6774682030CB
S315080051B0782578000D0A2020203A20004572726F63
S315080051C0723A206E756D626572206F662070616333
S315080051D06B657473206D757374206265203E20308C
S315080051E0000000006D66672073656E642065727244
S315080051F02030782578200D0A0D0A00006368616E54
S31508005200000000006D666720676574206368616E3C
S315080052106E656C20307825780D0A0D0A00000000AE
S315080052206D666720736574206368616E6E656C20B1
S31508005230746F20307825782C207374617475732008
S31508005240307825780D0A0D0A00000000706F776522
S31508005250720000006D66672067657420706F776559
S3150800526072203078257820286D6F6465202532787D
S31508005270290D0A0D0A0000006D6F64650000000024
S315080052806D66672073657420706F77657220746F1A
S3150800529020307825782C206D6F646520307825328B
S315080052A0782C2073746174757320307825780D0A0C
S315080052B00D0A0000746573746D6F6463616C000099
S315080052C053657474696E67206368616E6E656C20D9
S315080052D0616E6420706572666F726D696E672063B1
S315080052E0616C6962726174696F6E20666F722063A1
S315080052F068616E6E656C20307825780D0A000000AE
S31508005300436F6E74696E756F7573204D6F642044B4
S3150800531041432043616C2C20746869732077696C5B
S315080053206C206E6576657220656E642C20726573D6
S315080053306574207061727420746F2073746F702E98
S315080053400D0A00004D6F64204441432043616C20E0
S3150800535072756E6E696E6720666F72202575206D90
S31508005360696C6C697365636F6E64730D0A0000007F
S3150800537073796E6F66667365740000006D666720E4
S315080053806765742073796E7468206F6666736574D2
S315080053903A2025642073746570730D0A0D0A00009F
S315080053A06D6667207365742073796E7468206F66FE
S315080053B0667365743A2025642073746570730D0AE4
S315080053C00D0A0000746F6B656E00000072656164FB
S315080053D0000000006D6667207265616420746F6B5B
S315080053E0656E20544F4B454E5F4D46475F53594EA9
S315080053F054485F465245515F4F46465345543A20F6
S3150800540030782532780D0A0D0A0000007772697423
S31508005410650000006D666720777269746520746F91
S315080054206B656E20544F4B454E5F4D46475F53594B
S315080054304E54485F465245515F4F46465345543A87
S315080054402030782532780D0A0D0A00006D6667202F
S315080054507374617274203C77616E742063616C6C3E
S315080054606261636B2C20303D46616C73652C20317C
S315080054703D547275653E0D0A000000006D66672092
S31508005480656E640D0A0000006D666720746F6E65B0
S315080054902073746172740D0A000000006D6667203F
S315080054A0746F6E652073746F700D0A006D666720E1
S315080054B073747265616D2073746172740D0A0000ED
S315080054C06D66672073747265616D2073746F700DF5
S315080054D00A0000006D66672073656E64203C6E7571
S315080054E06D5061636B6574733E20746573742D70BB
S315080054F061636B6574203C6C656E6774683E0D0A63
S31508005500000000006D66672073656E64203C6E754A
S315080055106D5061636B6574733E2072616E646F6D66
S31508005520203C6C656E6774683E0D0A006D666720E0
S3150800553073656E64203C6E756D5061636B6574733C
S315080055403E206D6573736167652000003C6669726D
S31508005550737420382062797465733E203C736563E2
S315080055606F6E6420382062797465733E0D0A0000F8
S315080055706D666720706F77657220736574203C705E
S315080055806F7765723E206D6F6465203C706F776536
S31508005590726D6F64653E0D0A000000006D66672037
S315080055A0706F776572206765740D0A006D666720EF
S315080055B06368616E6E656C20736574203C63686110
S315080055C06E6E656C2031312D32363E0D0A000000B4
S315080055D06D6667206368616E6E656C206765740D1D
S315080055E00A0000006D666720746573746D6F6463E6
S315080055F0616C203C6368616E6E656C2031312D32BA
S31508005600363E203C23206D696C6C697365636F6E4A
S31508005610647320746F2072756E2C2030203D3D20F7
S31508005620696E66696E6974653E0D0A006D66672067
S3150800563073796E6F666673657420736574203C2390
S315080056402031312E376B487A2073746570733E208B
S315080056502D2076616C7565206973206F6E6C7920D4
S3150800566073657420756E74696C206E657874207223
S31508005670657365740D0A00006D66672073796E6F31
S315080056806666736574206765740D0A006D66672023
S31508005690746F6B656E20726561642073796E6F66D0
S315080056A0667365740D0A00006D666720746F6B6516
S315080056B06E2077726974652073796E6F6666736596
S315080056C0740D0A0025700D0A00000000F0A80108F4
S315080056D0794B0008F8A801086743000800A90108E3
S315080056E0C943000808A90108554600080CA901087D
S315080056F0CD44000814A90108734B0008814233D22F
S3150800570010185118401E491E10E011F8013900F80A
S315080057100139121F11F8013900F8013911F8013958
S3150800572000F8013911F8013900F8013992B2042A52
S31508005730EBDA92B2002A1EBF11F8013900F80139D6
S31508005740521EF6D1704711F8013B00F8013B121FB3
S3150800575011F8013B00F8013B11F8013B00F8013B49
S3150800576011F8013B00F8013B92B2042AEBDA92B237
S31508005770002A1EBF11F8013B00F8013B521EF6D164
S315080057807047130003D00A46194603F06BBA7047F0
S3150800579010B500E0521E92B222B100F012F8F9D00C
S315080057A0181B10BD002010BD10B500E0521E92B2A5
S315080057B02AB100F006F8F9D0181B40B210BD002037
S315080057C010BD10F8013B11F8014BA34270470000C9
S315080057D070B51346101802E0A4192C705B1EDBB2D4
S315080057E04BB101F00F060909451E0A2E2846B4BF1B
S315080057F030243724F0E7101870BD2DE9F24F88B031
S31508005800804601A81446994601AD4FF0000B0027C3
S315080058108DF8000010E00127641E05A885420AD30A
S315080058209DF800002E1A00F0B5F8002839D1B344C7
S315080058305FFA8BFB01AD641C9DF800002E1A2078D8
S3150800584000280BD0252803D017B905F8010BE4E783
S31508005850002F14BF0027641C2078010000F08F80F9
S31508005860B0F1250113D00B39092968D928395DD03B
S315080058700B390ED0491E2CD008392AD0091F0BD057
S31508005880C91E09D0891E24D0C91E4FD0C5E72520B8
S31508005890DBE759F8040BD8E759F804AB00F07AF8B7
S315080058A0002873D1B3445FFA8BFB01AD002600E0F4
S315080058B0761CF6B216F80A000028F9D19DF82000E1
S315080058C032465146C047002860D1B3445FFA8BFB85
S315080058D0A3E759F8040B0021002803D52D212970C8
S315080058E040420121002200234FF0000C02E0801BF9
S315080058F00CF1010C0FF2041656F82360B042F6D2EA
S315080059005FFA8CF6002E08BF002A05D0C9B206F148
S3150800591030024A55491C01225B1C092BE4DBC9B23B
S3150800592030304855481CC0B2451976E759F8041B6B
S315080059300222C9B22846FFF74BFF05466DE7607895
S315080059400127782818BF5828F8D1641C002714F8AE
S31508005950010C322804D159F8041B042289B2E9E75C
S3150800596034287FF458AF59F804AB04224FEA1A4199
S315080059702846FFF72DFF04221FFA8AF1DBE700F01D
S3150800598009F818B906EB0B00C0B200E0002009B010
S31508005990BDE8F08F9DF82000F2B201A9404709A1A1
S315080059A016E010B5084BC35C0024012B07D113463B
S315080059B00A4601460548FFF720FF00B9012420469C
S315080059C010BD00000D0A0000405F0008335E0008A5
S315080059D00CB480B502AAFFF7E4FF02BC5DF80CFB25
S315080059E00CB438B5044604AAFFF7DBFF0546204683
S315080059F0FFF7D5FF284632BC5DF80CFB00CA9A3B78
S31508005A0000E1F5058096980040420F00A086010047
S31508005A1010270000E8030000640000000A000000E8
S31508005A2030B5224801680020002201249440CBB2F8
S31508005A30234213D00FF284001D4C30F812000628BA
S31508005A404CF23C324FF20F031DD16088984216D1B2
S31508005A502188080A0B2812DA084612E0521C92B26C
S31508005A60082AE2D31349088140F201720889904254
S31508005A7004D11148D0E90023C1E9002330BD4FF411
S31508005A80C0606280EEE740F20725A84201BF618840
S31508005A9099422188A942E5D162800846E2E705488D
S31508005AA00089000A70470348008970472C000040A7
S31508005AB00000002098F9002090000020010402044C
S31508005AC001030105060007020309010938B501208B
S31508005AD003F0F9F9002003F07DFB5A4C206840F0EA
S31508005AE00800206000F061FE03F064FB564900F0F0
S31508005AF02AF88D78554BDD608D880560CD88456020
S31508005B0000F018F800F067F8206820F01000206010
S31508005B1003F08EFC03F0D1FD03F00EFE03F08DFAC0
S31508005B2000F041FEBDE8314000F05DBE40F2016084
S31508005B3003F09EBE088910604889506088891860FD
S31508005B40C8895860704743480A78C2604B78424A09
S31508005B50D3607047F0B50B68414C0F252468960052
S31508005B6005FA06F6344215D0002606EB820724FA13
S31508005B7007F7FF070BD5B70005FA07FC23EA0C035E
S31508005B8030F812C005FA07F707EA0C073B43761CFC
S31508005B90042EEADB0B60F0BDF0B50B68304CFF2530
S31508005BA02468D600B5402C4213D00025012605EB03
S31508005BB0C20724FA07F7FF0708D506FA05F7BB4315
S31508005BC0175C06FA05FC0CEA07073B436D1C082D13
S31508005BD0EDDB0B60F0BD10B52148006808B11C4C20
S31508005BE007E010BD10B51E48006808B1164C00E065
S31508005BF010BD1C4900222046FFF7CEFF01221A4994
S31508005C002046FFF7C9FF022218492046FFF7C4FFBE
S31508005C100022104900F030F80122104900F02CF853
S31508005C2002220D4900F028F80322114900F024F851
S31508005C300422064900F020F8201DBDE81040052280
S31508005C400C4987E700BC004038F7002000B4004044
S31508005C5048F7002000B0004000B2004004B0004001
S31508005C6030FA00200CB000400CB200400CB40040E2
S31508005C7004B2004004B40040201D6BE7032003F083
S31508005C8029BF80B5FFF70BFF0FF24C01FFE701EBC9
S31508005C90800002BD10B5FFF702FF0446FFF703FFB9
S31508005CA0C0B208B9012C07D1072C11D8DFE804F0D7
S31508005CB004100608080A0C0E002010BD092010BDA5
S31508005CC0022010BD032010BD0B2010BD062010BDFC
S31508005CD044F0800010BD0000554E4B004649420076
S31508005CE042544C00455854005057520057444700F8
S31508005CF0205357004352530046534800424144003C
S31508005D00464C5400002181F3118870472DE9F0476D
S31508005D100446884691469A4600F002F9002801BFD3
S31508005D2025460FF21C20285C012823D1DFF8E46100
S31508005D3056F8257003F0E0FE0021B9803980798095
S31508005D4003F0E0FE06EB8500066903F0D5FEDFF8F2
S31508005D50C8210021B18031807180A95403F0D2FE98
S31508005D6003F0ABFC53464A4641462046BDE8F04799
S31508005D7003F09ABB2120BDE8F0872DE9F843814658
S31508005D804C46DFF8900100EB8400884606694846D1
S31508005D9000F0C6F808B1012037E0DFF87C51605DF5
S31508005DA005EB440760B1B8887188884208D103F0CA
S31508005DB0A3FE665D0021615503F0A4FE304624E08B
S31508005DC0484603F05CFCB088F0B103F095FE718894
S31508005DD00FF278128919897988F800104FF6FF783A
S31508005DE0718832F8142000F01EF87180B188414499
S31508005DF0B18003F087FE605D20B1B888404504BFD6
S31508005E003088B880002000E02620BDE8F28380882C
S31508005E100FF2241333F81110891A884201DA012087
S31508005E20704700207047491C91FBF2F302FB1311DF
S31508005E3070472DE9F047804647460FF20410385C54
S31508005E4001288A4616462FD132480FF2F80950F82B
S31508005E502740002514E003F04FFEA18801B901256B
S31508005E6022881AF8011B12199171218839F817200E
S31508005E70FFF7D9FF2180A188491CA18003F042FEC3
S31508005E803046461EC0B258B1002241462046FFF7AA
S31508005E90BEFF0028DFD10DB100F009F8222004E08A
S31508005EA000F005F8002000E00120BDE8F087404634
S31508005EB003F037BB80B501460FF284028A5C012ADB
S31508005EC005D1144A52F821108A88002AFCD103F019
S31508005ED061FB002002BD0CB438B504460D4603F03C
S31508005EE039FB04AB2A4621460C48FFF786FC0FF21D
S31508005EF050012046415C012907D1064951F8200086
S31508005F00808810B1204603F00CFB32BC00205DF8F7
S31508005F100CFB000058F7002008FB002065950008D8
S31508005F20042806DA0FF21801415C481E8041C00FAA
S31508005F307047012070470000000080000000000044
S31508005F400001000000008000000000000000400082
S31508005F500000000038B503F0D9FD03F08DFEDFF828
S31508005F6014442078002840F0A780122003F0D6FFBA
S31508005F7000060BD500F0DBF8000607D500F0DAF8C6
S31508005F80000603D500F0D0F8000610D4122003F05E
S31508005F90C5FF000614D500F0CAF8000610D400F0B4
S31508005FA0C9F800060CD500F0BFF8000608D5E07859
S31508005FB00E2861D103F014FD002800F07F8032BD61
S31508005FC000F0B5F800060FD400F0B4F800060BD5BB
S31508005FD000F0B0F8C00707D400F0A6F8000603D40E
S31508005FE0E0780C2845D1E5E700F0A1F8000609D5C8
S31508005FF000F0A0F800F08100812803D100F094F8A1
S3150800600000060DD500F093F800060ED400F092F8BD
S3150800601000F08100812808D100F086F8000604D433
S31508006020E0780D28C6D00E28DCE700F080F80006D8
S3150800603010D500F07FF800060CD400F075F80006BD
S3150800604008D5E07816281CBF01281A28B2D00F28D0
S3150800605015D1AFE700F06BF80006ABD400F06AF88C
S315080060600006A7D400F060F80006A3D5E078162845
S31508006070A0D0E07801289DD0E0781A289AD0E07858
S31508006080022818BF1B2895D0062818BF072891D0C4
S31508006090082818BF09288DD00A2818BF032889D0D0
S315080060A0102818BF112885D0122818BF1328FAD02F
S315080060B0142818BF1528F6D0B02032BDFFF7DEFD2C
S315080060C0012004F07FF904F0D7FB04F0E7FB04F0A5
S315080060D0EDFB04F09DFDDFF8A0420FF2DC2004F092
S315080060E084FF2070DFF8940204F07FFF607003F0ED
S315080060F003FD0546607804F099FF284603F002FD83
S3150800610004F0E4FF05F0BDF905F010FB06F0C8FD44
S3150800611006F0C9FD06F0DCFDDFF864024FF47041B5
S3150800612004F0DBFE002032BD002003F0F7BE10208D
S3150800613003F0F4BE112003F0F1BE2DE9F04706F096
S315080061400BFE06F01FFF07F027FA08B907F010FA4A
S31508006150DFF83082404607F08DFD08B905F0F9FDF5
S31508006160DFF82492484607F085FD08B907F0FAFEDD
S3150800617008F013FA08F0A3FBDFF8FC61307804F0A6
S3150800618020FF707804F01DFF08F016FDDFF8FC51BB
S31508006190DFF8FCA1002700240BE0204605F043F8B1
S315080061A02868007B001F022838BF012705F03CF845
S315080061B0641C9AF80000E4B28442EED3002F1EBF96
S315080061C0DFF8D0010078002805D000F02AF810285A
S315080061D008BF08F0A9FF04F0EBFC09F021FB03F067
S315080061E08BFC074607F0D8F968B1404607F042FD30
S315080061F048B1484607F03EFD28B109F00FFB10B13B
S31508006200307804F013FF384603F07CFC05F004F8F8
S3150800621018B94FF4BC7100F04AF803F06CF8BDE801
S31508006220F08710B505F017F948B109F0B1FB30B1A0
S3150800623009F06FFC00F0010080F0010400E0012481
S3150800624004F0AAF908B944F0040407F0A5F938B12E
S315080062504C4807F00FFD18B14B4807F00BFD08B97D
S3150800626044F002044C48007808B144F02004494838
S31508006270007808B144F010044848007808B144F0A2
S31508006280400409F042FC08B144F0800409F03FFCE0
S3150800629008B144F480744248007808B144F40074A4
S315080062A04048007808B144F48064A0B210BD0FF2EB
S315080062B0F80009F051BC38B5044634480068007B3C
S315080062C0C01E03280BD3204609F0F5FE4FF6FF75CE
S315080062D0A84204BF20460AF04FF9A84204D1204636
S315080062E0BDE8324004F056BB32BD70B504464FF6E1
S315080062F0F87084420D4627DA244E3CB93068007D92
S31508006300800703D428460AF096FCD8B93068418835
S315080063108C4205D1011D08222846FFF7EFF911E046
S31508006320007BC01E032808D320460AF017FEFF2864
S3150800633003D029460AF036FE20B92946204604F03D
S3150800634070FB08B1002070BD012070BD0F480068C1
S31508006350008A70470D490968088270470B4800682B
S31508006360408A7047094909684882704707480068A3
S315080063700078704796070808BDFF002020AD010881
S3150800638038FF0020D8F70020CCF700202CFC00208E
S31508006390A8F6002040FC0020BCFB0020B8FE002028
S315080063A05CFC002064FC00207A69676265652D73D1
S315080063B07461636B2E63000054FD002081E80008B9
S315080063C098FC0020B558010838FD002099490108B5
S315080063D080FC0020E1FA00084CFF00200573010844
S315080063E0BCFB0020817D0008C8FB00203B7E00081E
S315080063F040FC002025F10008B4FB002005730008C6
S31508006400E0FB00204187000874FC0020831E010879
S3150800641064FF002051A3010834FC0020FF0901088D
S31508006420C8FE0020A58E01088CFC002057A3010891
S3150800643050FC00204131010860FD0020310F0108A1
S31508006440B0FE0020D5EE0008B8FE0020A9CC000852
S315080064501CFC00209BB100085CFC002007300108EA
S3150800646064FC0020453001089CFE0020F93501082F
S3150800647054FF00201994010890FE0020D15D010800
S3150800648040FF00201F72010838FF0020D9A8010824
S3150800649024FC0020C3B20008000000000000000031
S315080064A09A490870704738B5984C207800A9FFF7C4
S315080064B064FCA0BB9DF800202078954D0A2A18BFD9
S315080064C00D2A8FA102D0202A03D010E000F028F868
S315080064D031BDFFF77DFA287841190979F9B1401CD1
S315080064E02870C0B208281AD10FF2382112E0FFF737
S315080064F06FFA287841190A79112A09DA854D9DF823
S31508006500004000EB001040191454501C087131BDAE
S315080065100FF230212078FFF75BFA00F048F831BD1A
S315080065202DE9F843794C2078012676A1FFF750FA31
S3150800653077480079002838D00025DFF8D881DFF8B9
S31508006540D891764F0DE056B100F038F909EBC50041
S315080065504068804700F032F93878401CC5B2681C9C
S31508006560C5B2387885421ADA59F8350003780146F3
S31508006570002202E0521CD2B2135C002BFAD101268B
S31508006580002006E0435C10F808C0634518BF0026E3
S31508006590401C9042F6DB002AD5D10026DFE726B953
S315080065A020780FF2BC11FFF713FABDE8F14338B5AE
S315080065B00024584D04EB0410112140190AF0C8FDB7
S315080065C0641C082CF6DB5248011D002200230CC16E
S315080065D002704DA1524802684C480078BDE8384020
S315080065E0FFF7F6B970B5002201EB011603780BB96F
S315080065F0012070BD13465A1C464D7519DBB210F8BA
S31508006600014B5B5D9C42F1D0002070BDA0F13002C9
S315080066100A2A38BF30380AD3A0F16102062A38BFE1
S31508006620573804D3A0F14101062902D23738C0B23F
S3150800663070470020704738B5364A01EB01139A189F
S31508006640092902EB400401DB002032BD6078FFF720
S31508006650DDFF05462078FFF7D9FF05EB0010C0B22D
S3150800666032BD70B52A492B4D411800EB00100A7946
S31508006670465D0021012300242D2E0BD1012409E0BB
S31508006680521E4619D2B2965D303EF6B206FB03118B
S315080066900A2673439442F3D3084670BD10B50446E0
S315080066A0092C01DB002010BDFFF7DBFF00F014F812
S315080066B004BF00B2404200B210BD10B50446082C13
S315080066C001DB002010BDFFF7CCFF00F005F804BF82
S315080066D080B2404280B210BD0E4904EB0412515CF0
S315080066E02D29704710B50446082C01DB002010BD83
S315080066F0FFF7B7FFFFF7F0FF08BF404210BD0000E5
S31508006700256300000D0A000025703E0078F700207A
S315080067109CFB002014FB0020CC5600084CF60020F9
S3150800672050F600200D0A4F5554204F462053455227
S3150800673049414C20434D44204255464645520D0A90
S31508006740000000000D0A4F5554204F46205345526D
S3150800675049414C20434D442053504143450D0A00BE
S31508006760636F6D6D616E64206E6F74207265636F02
S31508006770676E697A65640D0A000000002D48006896
S31508006780C00701D42C4870472C48704780B5FFF7DE
S31508006790F5FF2B49096801B9400802BD80B5FFF726
S315080067A0EDFF400802BD02F052BB26480121816078
S315080067B04EF6BE2141600121016070472249012041
S315080067C008607047A52805D11E484DF6AD614160A1
S315080067D00221016070471B480068C00701D50120E7
S315080067E070470020704780B51849194A102008607C
S315080067F018491948007858B103280CBF0020012011
S31508006800106040F651000860002002F066FD06E0C0
S31508006810022010604FF40060086002F0D1FA0721E8
S315080068200E4801600021016410200D49086000200F
S3150800683002BD00001C400040001BB70000366E0178
S3150800684020400040006000400860004080E100E011
S31508006850080000400C600040B9FF002014A000406A
S3150800686000E100E07047704780B500F008F880B294
S3150800687002BD80B500F003F80002000C02BD38B571
S3150800688003F03AF92C490C684D6803F03BF945EAE0
S31508006890044032BD704780B5FFF7FCFF2749072043
S315080068A0086001202649087001BD2DE9F843044611
S315080068B00025206810B9FFF725FA2AE003F01CF92D
S315080068C000F02FF8206810F1010F1CBF401C206053
S315080068D0FFF7D5FF21681A4E184F814600F01CF8BD
S315080068E021684944090C0160357002203860386413
S315080068F000F01CF801200AF0C3FE3D64307838B970
S315080069008525FFF7BCFF2168081A4844206000E087
S3150800691025602846BDE8F2830B48494489B24160A0
S3150800692070478046074910200860704710200749BD
S315080069300860404603F0E6B81060004014A0004026
S31508006940C0FF002080E100E01860004000E100E0A0
S31508006950C108032907DA012100F007029140C0089F
S315080069604002124A11507047C108032907DA01216B
S3150800697000F007029140C00840020D4A11507047C6
S3150800698010B5044603F0B8F8E108032909DA094AFC
S3150800699002EB412101230A6804F00704A3405A4088
S315080069A00A60BDE8104003F0ADB8000014B000401E
S315080069B010B000400CB0004000281CBF0620FFF7AE
S315080069C0C7BF0620D0E70000F0B52F4C0D46A168DA
S315080069D089B00646174629B1082206A8FEF78EFE94
S315080069E006A8A06027B9FFF7B1FC6188814201D1EA
S315080069F0002700E0012730460BF036F8014605ABC4
S31508006A003A4630460AF06AFEA0BB6068C18804911F
S31508006A102B4641790391112201790291418801910E
S31508006A2000880FF26801009003200BF051F901204D
S31508006A30207004F0F3FB9DF8142061682846FDF7E2
S31508006A407EFC04F0F1FB9DF81400FF2818BF06F041
S31508006A5033FE6DB96068C18848F24002114040298A
S31508006A6006D12178490703D44088FF2107F03EFC68
S31508006A700020207009B0F0BD0348017811B94FF61F
S31508006A80FF70704740887047D0FB00204242575736
S31508006A90424257005C480068408870475A48006878
S31508006AA0001D704758480068C07E704770B5564C40
S31508006AB0564D2168564E4873022819D100F0ACF895
S31508006AC078B92068007B001F022824BF304604F0EE
S31508006AD0F9F92068007BC01E032824BF284604F065
S31508006AE0F1F920684069C00054BF9024BC240AE02C
S31508006AF000F092F810B109F007F803E0307028703A
S31508006B0004F039FC9124204606F0DBF850B92346F8
S31508006B1013223CA103200BF0DBF82046BDE87040A9
S31508006B2004F0D3BB70BD38480068407B00F00F0006
S31508006B30704735480068407B00F00F00022801D1F5
S31508006B40012070470020704738B5044600F064F805
S31508006B5020B12046BDE8324008F0CABF2A4DFFF7EB
S31508006B60E8FF28B92868407B032801D0932032BD66
S31508006B70FFF7F4FB20812868C07BA0722868807B19
S31508006B80E072204601F024FD0020207304F1140170
S31508006B9004F110000BF0ADF8E081002032BD10B50D
S31508006BA0002300E05B1CDBB28B4205D210F8014BD8
S31508006BB09442F7D0002010BD012010BD80B50821F1
S31508006BC00BF031FC08B1002002BDA52002BD0E481D
S31508006BD00068407B01281CBF3128332801D10120D9
S31508006BE070470020704710B504460BF0EDFE10B94B
S31508006BF005490968CC7310BD03480068807B704757
S31508006C0000000000424200002CFC0020C8FE0020C4
S31508006C1034FC002003F0D2BB80B5FFF7A7FB03289E
S31508006C2001D1012002BD002002BD80B5FFF7F4FFA7
S31508006C3038B1BDE804404FF490710FF2080008F02F
S31508006C408BBF01BD656D6265722D737461636B2DB3
S31508006C50636F6D6D6F6E2E630000000070B5D04DCA
S31508006C600446287810B904F0F6FB08B9012070BD6F
S31508006C70CC4E0BF0A2FE30710BF0A2FE707103F041
S31508006C809DFB308103F088FC707003F08FFC307038
S31508006C9003F0C2FCB07003F0DAFCF070C248417829
S31508006CA0B1710021417001202870C048046000209D
S31508006CB003F09EFC002003F0B2FCBDE87040002003
S31508006CC003F077BC70B5B64D28780024012833D177
S31508006CD002F012FF2C700646B24DB449A8780C6033
S31508006CE003F086FCE87803F09AFC304602F00AFFC7
S31508006CF0A879AD494870287803F05BFC00B10446D2
S31508006D006878012808BF03F0E8FB28890BF087FCA0
S31508006D1000B10446A64E95F905003168C8730BF014
S31508006D2053FE00B104463168287988730BF03DFE9E
S31508006D3000B10446204670BD012070BD10B500F0B4
S31508006D401DF8012801D0012010BD03F0D2FC022055
S31508006D5021E010B500F012F8022801D0012010BD7C
S31508006D6003F0E8FC16E010B500F008F8012801D099
S31508006D70012010BD03F0ABFC03200CE0884C207802
S31508006D80704710B5FFF7FAFF032801D0012010BDA0
S31508006D9003F0A5FC01202070002010BD2DE9F04766
S31508006DA08046C0078A4604D59C210FF2242008F0A5
S31508006DB0D3FE7B480078012818BF012020D1002681
S31508006DC07C4F42F2107402F097FE8146002038701C
S31508006DD0404603F033F90546484602F093FE8C2DEB
S31508006DE003D038780028FCD001E0641EEBD1FFF709
S31508006DF0E5FC761CB6B2B24501D3002DE1D0284693
S31508006E00BDE8F08766490978012901D00120704755
S31508006E106749096888730BF0C8BD0BF0CEBD10B57D
S31508006E200C465F490978012901D0012010BD0BF0F5
S31508006E30F6FB38B95E480068C4732046BDE81040C2
S31508006E400BF0C2BD10BD80B55B4908700BF0B5FDEF
S31508006E50BDE802400BF0A9BD574890F900007047FD
S31508006E600BF0AEBD2DE9F04F544F85B00446386897
S31508006E70002580B289464FF00A0A0390A8460BF00F
S31508006E809CFD8DF8060020460BF029FCB8684C4C92
S31508006E904C4E80B202904FF6FF72A06AADF804001D
S31508006EA000212068ADF802000820D6F800B00BF0E3
S31508006EB06BFBADF80000C022114608200BF06BFBF7
S31508006EC04148007810B148F2607038614CF25C00B5
S31508006ED0F8640220A0620120206040F24C4002F0D3
S31508006EE0E1F90120F06030607F200BF053FE039833
S31508006EF000F500403860FFF7C2FC049002E0B8F1E4
S31508006F00000F04D10020706141F2111003E04FF028
S31508006F10FF3070612D48306188F00108012002F0C9
S31508006F20C1F91A2DA8BF6FF0090A04DA15F1190F6D
S31508006F30B8BF4FF00A0A554402982DB22818B8600F
S31508006F40FFF73CFCB9F1000FD9D0FFF798FC04997C
S31508006F50401A8145D3D20298B8604FF6FF7203985B
S31508006F6038601FFA8BF030600020F0600220206045
S31508006F70BDF802002060BDF80400A0620020F86495
S31508006F800820BDF800100BF006FB40F24C4002F05A
S31508006F9089F99DF8060005B0BDE8F04F0BF09FBBD8
S31508006FA085FE0020A2F9002098F70020C4FE0020E4
S31508006FB02CFC002086FE0020C1FF0020C0100040E7
S31508006FC06020004028100040A5F70020EEEEFFFFE5
S31508006FD06D66676C69622E6300000000DFF8C02AE0
S31508006FE01268127882420AD019B1012A03D10228FE
S31508006FF005D000207047022A08BF0128F9D10120D0
S315080070007047DFF8A01A0875704710B5DFF8904A80
S315080070102068407B112804D0B9210FF2100008F02F
S315080070209BFD21684120487310BD00006173736F92
S3150800703063696174696F6E2E6300000080B5022073
S3150800704004F0E8F804F0EFF800F081FC001F0228CD
S3150800705005D2DFF8500AC17C491DC17405E04FF41A
S315080070607A71DFF8440A03F038FF00F0FCBE10B569
S31508007070DFF8304A002060742078FF2803D006F035
S315080070801BFBFF20207010BD70B582B004460D466C
S3150800709006F09EFA007C00F00701400800F0380070
S315080070A000EB410000F11106DFF8C80C0068205C0F
S315080070B0F6B286420BDA831BDBB20F2BA8BF0F236F
S315080070C00020009032462146284606F094FB3046BA
S315080070D076BD1FB501200BF099FE0BF09BFE04F060
S315080070E076FB18B3DFF8BC49207800A9FFF7CCFF78
S315080070F0DFF8B419002008700DF10300617901F07A
S3150800710075F9FFF7B4FF00F012F800F01DFC007DDA
S31508007110C00702D50CF016F808B90CF00DFA0CF0F9
S3150800712010F80BF0C7FE012001F098FA1FBD10B544
S3150800713000F00AFC017BC91E032906D240884FF6D7
S31508007140FF71884208BF032008D0FFF7A3FC044656
S31508007150FFF7A4FC214603F099FB0220FFF7A6FCE3
S315080071600AF0BEFD00F083FEBDE810400CF013BA2D
S3150800717038B5DFF830492075FFF779FF00214FF65B
S31508007180FF7001F03BFADFF818592868417B03299C
S3150800719018BF00291DD0332918BF432913D101F080
S315080071A0C9F92868017BC91E032906D20321417340
S315080071B0207DBDE8324004F088B8207D04F085F8CB
S315080071C0BDE83140B3E721214173BDE8314001F004
S315080071D029BB31BD10B500F0B3FB002048734FF64C
S315080071E0FE70FFF7B7F84FF6FF70FFF7BBF8DFF84A
S315080071F0B44801F09FF9207DBDE8104004F065B859
S315080072003EB504462346E07A0FF2B80102901522ED
S3150800721094F90A0001902089009000F003FA00F022
S3150800722059FF78B920894FF6FF7188420AD0DFF8EE
S31508007230580C00780A2805D103F0F7FF10B903F0B7
S31508007240F6FF08B170203EBD2868007D800706D588
S31508007250DFF8380C007810B10CF03CFB00E0002099
S31508007260214601F07FF8050008D1012001F05DF8FC
S31508007270002101200CF0B3FC050001D028463EBDD4
S31508007280DFF82008007E08B109F012F8002208216C
S315080072902046FFF784FC30B1042120460BF0C3F8E2
S315080072A008B9A5203EBD00202074DFF8E40B606114
S315080072B00020E081204600F0F5F8054603F06DFF52
S315080072C0DCE70000423870574242000010B5044619
S315080072D02346182201F030F9DFF8B80B00210171B6
S315080072E014B1FF2C02D10121017007E0012100F839
S315080072F0041BA100491C090203F0EFFD00F0B7FDCD
S31508007300002010BDDFF88C1B00200871DEE730B5C1
S315080073100D4689B0044668690FF27C11079023462A
S31508007320287C06901622E8890590287B0490E87A3E
S31508007330039095F90A00029028890190009500F0BB
S3150800734071F9287B00280CBF4FF6FE70FEF7FEFF8A
S315080073502B46224609B0BDE83040014601202DE9FA
S31508007360F041DFF83C6780463068407B00280F46CE
S3150800737014461D464BD1002C49D0062C47DADFF8B7
S31508007380080B00780A2842D103F04FFF00283ED1A7
S3150800739003F04DFF08B1042C39DB287B032816D1EE
S315080073A04FF6FE70874214D1012C08BF002710D073
S315080073B0022C2CD1FEF7CAFF4FF6FC71884202DA7E
S315080073C0FEF7C4FF01E00CF085FA074601E0012C40
S315080073D01DD0B8F1000F0CD0287B03280CBF012163
S315080073E00021012C0CBF012000200CF0F8FB00281E
S315080073F04ED12946384600F0B5FF002848D103F09B
S315080074000EFF03F0F5FE20B103F011FF08B170205E
S315080074103EE03068DFF88C76407B33281EBF532861
S3150800742000207875204600F080FF387E20B103F0F2
S31508007430FEFE08B908F03CFF287B032803D128463E
S31508007440BDE8F0412EE00822294607F10800FEF7BC
S3150800745055F9287B0328A8BF00203874FFF707FED4
S3150800746094203875387C316800280CBF01203120FB
S315080074704873002031687A7EB8740120897B00FA47
S3150800748001F103200DF0A6F910B1326800215173FD
S31508007490BDE8F0810000000042423870574242427F
S315080074A05742440010B5044600220821FFF777FB2F
S315080074B008B1012010BDFEF749FF00224FF6FF7103
S315080074C000F078FF217C204600F090FF6269E18990
S315080074D0207C0AF038FCDFF8C8050068007B012824
S315080074E008BF0DF00EF9FFF722FE002010BD0020A0
S315080074F038B5DFF8AC4505462068407B002802BF52
S31508007500DFF8840900780A2801D0702032BD08F017
S3150800751014FB002841D12DB102222946DFF8C00B01
S31508007520FEF7ECF800A801F035F808B1932032BD53
S315080075309DF80030142200F0FFFF00F09FFF68BBA3
S315080075409DF8000000F0F1FE2068007B012818BFB6
S31508007550022806D0C01E03280FD2002001F05AF8D0
S3150800756058B100F0A2FF2068007BC01E032838BF70
S3150800757007F024F8FFF7DBFD0FE0216813204873B6
S315080075800020DFF82015887405222168897B0120F0
S3150800759000FA01F105200DF01DF9002032BDFF2289
S315080075A0FFE72DE9FC41044600F0CEF90D46017BC4
S315080075B00129904625D0407B022818BF032820D1F0
S315080075C0FFF733FBDFF8DC747A7E294603200DF0DB
S315080075D001F9060016D13320FFF768FAFFF747FDD1
S315080075E0FEF7BCFEF880002C14BF02200120387478
S315080075F007F1080000F0ECFF0020B87487F8158042
S3150800760000E070260196009523462C220FF20C0105
S3150800761000F008F83046BDE8F681000042424442D0
S315080076200000000003200AF053BB38B5044605F0F5
S31508007630CFFF054620460DF0FAFA441920460DF00C
S31508007640F7FB4FF6FF5101402046BDE834400DF0E8
S31508007650F6BB70B584B0FEF779FEDFF848440646F7
S3150800766020780B210DF0C2FA002100F0C7FFDFF8E1
S315080076703054FFF7ACFA58B11EB14FF6F87086428F
S3150800768006DB0CF027F90646286840888642F8D0BB
S315080076903046FEF75FFE207809210DF0A7FAFEF7BF
S315080076A061FE2E68307B052813D100F09CFF8DF80B
S315080076B0080002AB207C00280CBF4FF4804244F23D
S315080076C00102012000904FF48061708806F014FCD6
S315080076D00FE006208DF8080000F085FF8DF80900F8
S315080076E0022300200190009002AA708801210AF066
S315080076F017F90646FF2E08BF002011D028684188D2
S3150800770030460DF0D0FA207C02281CBF3046FFF721
S315080077108CFF00F047F80446304605F0CDFF2046BA
S3150800772004B070BD70B586B00C4616461D4638B90D
S3150800773020460DF0ABFB02AA03A908F0DAFC03A861
S3150800774007218DF808100190310A8DF80A100120DA
S315080077500A998DF80B1000908DF80960042302AA87
S31508007760012120460AF0DCF80646FF2E18D02146ED
S315080077700DF099FA15B93046FFF757FF0B9808B977
S3150800778030460DE0204608F0E0FC18B1304606F019
S3150800779043FF01E000F006F8304605F08DFFFF20B4
S315080077A006B070BD002200231146304608F0A6B880
S315080077B02DE9F64F83B004461E4600274FF6FF789C
S315080077C056B14FF0010B30460AF0E8F8814670785A
S315080077D0400800F0010A05E0BB4610460DF0CAFA5B
S315080077E08146BA4600F0B3F8C01E0328C0F0A1804F
S315080077F00E98411C9DF81000C9B206F0F3F805462C
S31508007800680800F001008DF808009DF80C0018B90A
S31508007810280658BF45F0800500F096F8407B0228F8
S3150800782004D1DFF870060078204301D102271CE056
S315080078304846FEF740FD9DF80C1084F0010202EA66
S315080078400108BBF1000F1CBF301D0DF0F1FA012134
S315080078500091434601462A46484608F0A8FB80465A
S315080078604FF6FF70804508BF0127DEB11CB94FF6F9
S31508007870FF70804504D1301D0DF0DAFA014600E0AC
S315080078804146012001900097534642464846FFF775
S3150800789049FF9DF8080050B94FF6FF71484608F0B1
S315080078A0C7FF04E03A46414648460DF09AFC002FC9
S315080078B03FD19DF80800E0B14946404608F0DBFF95
S315080078C00E2101FB00F700F03BF8896A79184A791E
S315080078D042F040024A7109F001F800F035F8806A72
S315080078E038186A0641794CBF41F0800101F07F01E2
S315080078F04171F6B1DFF8906C9DF810003070FEF714
S3150800790025FD69060FF2300C48BF0CF1010CBAF1DF
S31508007910000F18BF0CF1020C02D10CB90CF1040CC3
S3150800792001469CF800004B4642460DF0DDFCFF2060
S31508007930307005B0BDE8F08F0307000401050000AC
S31508007940DFF8481C09687047554800687047DFF833
S315080079503C0C0068007B70472DE9FE4F04468846BC
S31508007960914640460DF06DF94E4D2F7C824607B183
S3150800797001274B4E3068007B052808BF01273CB11C
S3150800798050460AF00BF88346504609F0FAFF05E020
S3150800799040460DF0EFF98346DFF8F40B0290042316
S315080079A0002000904A46414601A805F024FF0DF143
S315080079B005000DF03DFA9DF807908046D4B102986F
S315080079C0DFF8CC1B0822FDF7E3FE002863D13068F8
S315080079D0407B022808BFB9F1000F0BD14046FEF7DD
S315080079E0B9FC0BF0A9FD992300F0A5FD992003F039
S315080079F06CFC50E0FFF7EBF800284CD0002F14BFC2
S31508007A00204684F00100002845D0B9F1000F03D0C4
S31508007A109420FFF7ADFB3EE030684088594608F0F1
S31508007A202AFF08F05BFF306841885A46404600F056
S31508007A30C1FC3068417B012916BF31291121432138
S31508007A404173022003F0E5FBDFF87C7C40F6B83191
S31508007A50384603F042FA06F0B1FD0020E8743068B3
S31508007A60C17E19B9384603F02DFA11E034B19AF8F7
S31508007A700110890702D5FFF72CFB09E0007B001FE0
S31508007A80022805D20521384603F027FA0620E874AD
S31508007A90AD20FFF7B6FA03F080FBBDE8F78F0000CC
S31508007AA02CFC00207CF70020BCFB00202DE9F04FC1
S31508007AB08DB005460DF0C5F881460DF007F903901F
S31508007AC028460DF057F9804602AB052205A9284637
S31508007AD00DF0A0FE0446022C8DF800002ED0284694
S31508007AE00DF0A5F8039908189DF808100818C6B2ED
S31508007AF03146284605F076FF0190FFF78DF820B14C
S31508007B00019807281AD1012C18D00198DFF8BCBBB8
S31508007B10DFF8787AF41C01284FF6FF7A0FD002288E
S31508007B2015D0042800F0F680062816D0072800F09D
S31508007B30818008283AD07C2800F0B48019E1002119
S31508007B40009600232A460846FFF732FE11E1324620
S31508007B5029460020FFF700FF0BE1404608F0ABFA84
S31508007B60044654451AD0214640460DF0EBFADFF894
S31508007B70640B0078800711D520460DF087F9FF2899
S31508007B800CD0DFF8542B1268002142F82010DFF8D9
S31508007B904C1B0968425C42F0F00242543868407B4C
S31508007BA0022802D1404602F008F8E2E000200BF075
S31508007BB02DF9711C00F0E0F88146E1B200F0DDF81D
S31508007BC00446B11D00F0D8F806465645EDD006F035
S31508007BD0F5FC3868407B132808D100F066FC284677
S31508007BE00DF0C8F80146204608F045FE3868407B87
S31508007BF0022818BF13281CD13046FEF7ABFB4846AF
S31508007C00FEF7B0FB0021002000F0F0FB41462046BD
S31508007C1000F0F4FC9BF80300DFF8C41A087000F0C3
S31508007C2026F93868417B132903D1232141730CF0C7
S31508007C305EFE9EE001210398484405F0C0FD044617
S31508007C40002200232146104601F0B9FF204605F020
S31508007C5033FD3868407B022802BFDFF8884A20785F
S31508007C600028E6D19DF8001005AA28460DF002FE68
S31508007C70002816D000F06CFF05469BF91910012064
S31508007C808840C0EB00181FFA88F6002003F0C1FAF6
S31508007C9095FBF6F006FB1050411C89B2204603F00E
S31508007CA01CF966E0284605F093FC301841786529EA
S31508007CB004BF80786D285CD12E480068285CE4B241
S31508007CC0844256D20822414603A8FDF717FD00ABA9
S31508007CD000222146284609F001FD002849D19DF8D1
S31508007CE00000FF2845D0DFF8004ADFF89C6801202D
S31508007CF02070357003F092FA03A89DF8001001F081
S31508007D0014FF03F091FAFF203070002020709DF8D0
S31508007D1000002CE028460DF04AF80446DFF8CC09A6
S31508007D200078FE2809DB28460CF095FF000B00F0CA
S31508007D300101204601F0FFFE1BE00FF60020008837
S31508007D40ADF80A0002230020019000900DF10A0206
S31508007D500121204609F0E4FD0546FF2D09D02146FC
S31508007D600CF0A1FF0021284603F0C2FA284605F0C8
S31508007D70A3FCACE15CF60020C9B2284605F0D9BEE2
S31508007D8070B5022003F046FA03F04DFADFF83859C9
S31508007D90DFF8F8670020287003F019FD28B130686D
S31508007DA0C07E10B9FFF795F93EE0DFF8204903F0E9
S31508007DB00EFD10B9FEF70BFF58B1E07C48B1C8219B
S31508007DC0284603F08AF8E07C401EE07403F0C5FA02
S31508007DD02AE03068407B132809D0FEF7F8FE30B950
S31508007DE03068407B11281CBF4328412803D1207DD9
S31508007DF0FFF7BEF918E0022818BF032803D00028A9
S31508007E0018BF212810D10024DFF8E45808E02046DE
S31508007E1003F009FA002000F021FC03F005FA641CBF
S31508007E202878E4B28442F2D3BDE8704003F0FCB986
S31508007E30DFF898180020C874704780B5002003F052
S31508007E40E9F903F0F0F9DFF89C1800200870DFF86C
S31508007E503C070068417B022905D1007BC01E032828
S31508007E6028BF0DF0DDF9BDE8014003F0DDB980B5A6
S31508007E7003F0E7F9FF28DFF87C181ABF05480078F1
S31508007E800020087001BD0000DCF70020D2FF0020AA
S31508007E9000F8FF07B0FB00202DE9F04F0446DFF895
S31508007EA0580800688DB0205C0090204605F090FBCD
S31508007EB00646B01D0CF0BCFF074606F109000CF09B
S31508007EC0B7FF814606F10B000CF0B2FFADF80A00C9
S31508007ED006F10D000CF0ACFF8346C00B8DF80800C8
S31508007EE0FEF79AFE18B1204607F00CFEEFE008A947
S31508007EF02046FFF7C9F808AEB178C1F3C30103916C
S31508007F00717801F00F0A00992029ACBF9DF82E80E0
S31508007F104FF00008021F0023D2B22146052001F0C7
S31508007F204EFE00F0D7F8022812D1FEF717FA81455F
S31508007F300ED104A800F04CFB00981C2806DB08228A
S31508007F400DF1230104A8FDF723FC08B10AF02FF868
S31508007F50B7F5004F02BF2BF4404040F6FF71884248
S31508007F60C4D100981C28C1DB002208210DF123008A
S31508007F70FEF715FE002839D1DFF8800700780128BA
S31508007F8030D19DF808000FF2AC710090CDF804A02E
S31508007F904B462722FFF746FBDFF8640700788DF883
S31508007FA01200ADF810908DF81CA08DF81D800822DF
S31508007FB09DF808008DF813000DF1230105A8FDF7BB
S31508007FC09DFB2868DFF8C075407B01281CBF332855
S31508007FD03C7003F023F904A8FCF7AFF9FF203870CA
S31508007FE003F022F9DFF8E476B87C00286FD1FEF7B3
S31508007FF0EEFD00286BD0012078740022082107F1D5
S315080080000800FEF7CCFD10B1F888814508D0082293
S315080080100DF1230107F10800FDF7BAFB002856D138
S315080080209DF8080028B92868407B312818BF3328EE
S315080080304DD101215046FEF7D1FF002847D09DF8C3
S315080080402000002802BF7078000902283FD128685E
S31508008050017BB278022902D1500709D437E012060B
S3150800806006D405291EBF4088BDF80A1088422ED1BD
S315080080703878DFF89056DFF89066FF2813D07879BD
S3150800808080450BD197F9020096F9001088420ADB61
S315080080901DD178782978884205D318E0A8EB000026
S315080080A0C0B2812813DAFEF7E2FF3C70204605F0DD
S315080080B0F5FA287878703078B87003980F28B4BF26
S315080080C0401C0F20F87087F804A087F805800DB0CB
S315080080D0BDE8F08FDFF834562868407B704700000B
S315080080E0C4FB00202DE9FF410546DFF8E0450120E5
S315080080F00E461746A07404F0DFFD002813D1A846E3
S31508008100B8F1010F18BF002D0ED10097334626226D
S31508008110B5A1FFF787FA03F081F839463046FCF730
S315080081200BF903F081F8A4E0FEF776FD28B13A468C
S315080081303146284607F0E5FC9BE0FFF7CBFF2328EE
S315080081400DD1FEF7A7FC0446FEF7A8FC214602F06F
S315080081509DFB0220FEF7AAFC0AF0ACFE89E0002F80
S31508008160FCD121281CBF0428532802D100F05AFB51
S315080081707FE0FEF72CFD00285BD02678FF2E05D180
S31508008180607C00280CBFAB20942066E02868007B42
S31508008190C01E032889412079C90FFEF71FFF08B9B9
S315080081A098205AE002F0C6F9052130460CF039FD50
S315080081B02968887302F0F1FF207C68BB2868007B79
S315080081C0052829D000F00FFA0746092130460CF099
S315080081D00DFD80460B2130460CF008FD3A46414617
S315080081E00CF0E4FFE0B99420FEF70BFF022003F041
S315080081F010F82968DFF8D0044A7B012A07D0312A0B
S3150800820018BF332A0ED1097B091F02290AD2C821B1
S3150800821002F063FE03200AE0FFF71BFA0028E2D10A
S3150800822094201AE04FF4167102F057FE0020E0740D
S315080082301FE02868407B132815D100F017F9BDF810
S315080082400000FEF78FF800F030F92868017BC91E98
S31508008250032905D2332141739620FEF789FF08E0EA
S31508008260FEF765FF05E0B8F1020F04BF304606F0D9
S3150800827098FD4FF4006007F0FBFD10B907F090FB7E
S3150800828008B10DF0FDFABDE8FF811FB504460020D0
S315080082908DF80000FFF758FB007840F020008DF8B5
S315080082A00100FEF7B9FC18B1204607F034FC3AE0A5
S315080082B00DF1030000F08CF90322FF210DF10B00EC
S315080082C0FDF75FFA09F029FD8DF80E00DFF8401476
S315080082D0DFF81804DFF83C240078DFF83C34097826
S315080082E012781B78FE28A8BF0020091A9B1A90420C
S315080082F0B4BF101A0020DFF8E8231278DBB2C0B248
S31508008300D200C018C9B242F004028842B8BF42F08F
S3150800831080028DF8022000A90F22204605F0D5FA22
S31508008320401E8041C00F04B010BD38B5DFF8DC53DD
S3150800833004462868017BA14203D00473204602F054
S31508008340C1FF24B12868007B001F022805D202F06D
S3150800835036FFFF2808BF012000D00020BDE83240C4
S3150800836002F027B938B50D460446E87A0B381028C6
S3150800837001D38A2032BD95F90A00FEF734FC08B10C
S315080083808B2032BD8148E97A026891730068A97A20
S31508008390C1732046FDF7DEFF4FF6FE7084420CBF20
S315080083A04FF6FF702889FDF7DDFF2889C749C88081
S315080083B0002032BD38B50C461546FDF7CBFF0BF04D
S315080083C05DFA2946204600F019F9C0480178FF29C8
S315080083D018BFC07805D1FFF7BAFA01280CBF0020EC
S315080083E00120BF49087031BD424242007FB50446AC
S315080083F00D4600F03BF8654E94B1C84A0021284660
S3150800840009F0A1FC306801788DF804100822007B79
S315080084108DF80500214602A8FDF770F908F0BEFBA5
S315080084203068817B8DF80310C07B8DF80200FDF75C
S3150800843095FFADF80000FDF789FFADF8060000F0DE
S3150800844017F87FBD1FB5044600F010F81CB10020D0
S315080084508DF8050007E0FDF779FFADF80600FDF792
S315080084607DFFADF8000000F003F81FBD00A835E059
S315080084701023072200A900200DF03DBC00B58BB0E3
S31508008480FFF7F4FFBDF80000ADF8180004A99DF841
S3150800849003008DF81B009DF802008DF81A00BDF840
S315080084A00600FFF75FFF0BB000BD1FB5012000F007
S315080084B0B1F8044608F07DFBFFF7D8FF1CB9002287
S315080084C04FF6FF7103E0FFF73FFA4188021DBDF83A
S315080084D00600FFF76FFF0DF078FC1FBD014610235D
S315080084E0072201200DF007BC38B5082002F092FEDD
S315080084F0044602F098FE254D894829680078887355
S3150800850002F08FFEA04208BF02F01DFE00210020E7
S31508008510FFF76CFF9B2300F00EF89B2002F0D5FEB8
S3150800852028680021A0F84410A0F84610BDE831409C
S3150800853002F07ABE237D132265A1032009F0C8BB89
S3150800854080B5A0F10B01102901D38A2002BDFFF7DF
S31508008550F7F9497B022918BF032901D0702002BD0B
S315080085606F490870082002F054FE00216D4802F099
S3150800857049FF20B1012808BFFFF7B6FF01E0A12097
S3150800858002BD002002BD0000A0F700202CFC002040
S31508008590A8FB00201FB50446FEF73EFB18B120468F
S315080085A007F0A8FA12E000A8FFF798FF9DF8050063
S315080085B040B1062806DAFFF7C3F99DF804200978C2
S315080085C0914201D0932001E02070002004B010BD34
S315080085D01FB5044600A8FFF781FF082202A9204616
S315080085E0FDF78CF81FBD5048007800B14020474A77
S315080085F04E491268127B515C08437047434A136818
S31508008600588019B90822181DFDF7BBB80822181D8D
S31508008610FDF774B810B504462B48007AC00784B035
S3150800862011D50A230A2200A901200DF064FBBDF822
S3150800863008004FF6FF71884205D00822FF2100A8DE
S31508008640FEF7ADFA08B1002006E024B1BDF808002F
S3150800865000A9FFF7D3FF012004B010BD70B51A4D6D
S315080086600446287AC00784B00CD5284E306841885D
S315080086704FF6FF72914207D100220821001DFEF72E
S315080086808EFA08B100201DE044B1022002F0C1FDB7
S315080086904FF4F041284602F020FC12E03068418889
S315080086A0ADF808100822011D00A8FDF727F80A23CF
S315080086B00A22FFF7DFFE02230B221D4900200DF0D8
S315080086C01AFB012004B070BDBCFB00207CF700201B
S315080086D0424200006CFC00207CF60020C8F6002010
S315080086E0D5FF0020C8FB0020D0FB0020B3FF0020E8
S315080086F0A8F60020D7FF00205CF60020DCF7002053
S31508008700CFFF0020CDFF0020CEFF00202CFC00204C
S31508008710E8F6002095FF002094FF002000F8FF07E8
S31508008720BCFF0020E984000819AD0108F00401081F
S315080087306EFC002042574242000000000460000020
S3150800874080B5DFF8841300200871062002F062FD68
S3150800875002F069FDDFF874030068407B042814BF43
S31508008760532800F05FF8BDE8014002F05DBD80B512
S3150800877017229DA1032009F0ABFAFEF756FABDE8C9
S31508008780024000204AE0F8B5DFF8404323685D7BE5
S31508008790002D18BF212D05F00F0607D01D7B012DD2
S315080087A001D1850602D4C84D2F790FB17020F2BDCC
S315080087B02A70012EC64A118004D12120587300F070
S315080087C031F829E081064CBF5321042159732168E9
S315080087D00A7BD21E032A39BF4A8800F020004FF6CA
S315080087E0FD7200F0A0000146104600F032F920683C
S315080087F0407B042804BF0120FFF724FE062002F070
S3150800880008FD2068007BC01E032834BF022008200C
S315080088100102281D02F061FB0020F2BDFF224FF67F
S31508008820FF71B0E780B506F0B0FB07F0BEF806F0BA
S3150800883042F8A84800780A281CBFBDE801400CF099
S3150800884056B8062002F0E5FCBDE8044001210FF207
S31508008850090002F0D7BD000010B5062002F0DAFCC8
S3150800886002F0E1FC994C2068417B532906D103218B
S31508008870417301200021FEF792FE26E0042918BF65
S31508008880212922D10120FFF7DDFD4FF6FE70FDF705
S3150800889061FD4FF6FF70FDF765FD0020FFF745FD0A
S315080088A0FFF7E5FA02F06DFF04F008FA2068407B4E
S315080088B0212802D1FEF78EFC07E00020FEF7F6F825
S315080088C000214FF4004008F066F902F0ADFCBDE85F
S315080088D0104002F062BC2DE9F8430E468046511C52
S315080088E0C9B2304605F07EF8054630460CF0A9F9BF
S315080088F00646B01C0CF09CFA0746A809DFF8CC918E
S3150800890000F00104D9F80000017B032903DB408845
S31508008910804503D022E04069C0011FD484B1707835
S31508008920000708D5304609F02CF808226A49FCF7F2
S315080089302FFF002802E0FDF709FD874251D107E025
S315080089400329A4BF4FF6F870874209DBE80907D068
S315080089500122414605F0A000FFF715FF002C40D183
S31508008960D9F80000007B03283BDA7078C00638D5B2
S31508008970304609F013F806463146002007F0BDFADE
S315080089800446FF2C554F09D0387808B1A80602D4FA
S31508008990204600F02BF8204607F076FC404607F004
S315080089A018FEFF280DD007F0B4FE387848B1A8069F
S315080089B007D4FDF7CBFC20B10222314640460BF026
S315080089C09DFBFDF7C3FC60B902F028FC4FF6FF7368
S315080089D002223146404601F09AF8BDE8F14302F01A
S315080089E023BCBDE8F1830000420000001CB507F077
S315080089F070FB044600A907F0CDFB50B1FDF7A6FCB5
S31508008A0038B1FEF74FF820B1022200A920460BF034
S31508008A1075FB13BD38B504460D460CF037FA01460A
S31508008A20FF2901D1012032BD284A1268D27E4AB1F7
S31508008A302B4A126832F81110490403D507F024FCB2
S31508008A40002032BDFFF7D2FF45F040012046BDE8C1
S31508008A50344030B50446880985B000F00105042085
S31508008A608DF808008DF8091045B103A9204607F0CE
S31508008A7091FB08B9012024E003A800E0002001903A
S31508008A800095022302AA0121204608F049FF05465F
S31508008A90FF2D08BF182014D04FF6F870844206DB65
S31508008AA0002300220221284606F028FF03E021467B
S31508008AB0284603F015F80446284604F0FDFD84F020
S31508008AC0010005B030BD0000DCFB00202CFC0020B6
S31508008AD0A2F70020DCF70020A8FB0020D2FF002028
S31508008AE078F6002038B504460CF0ABF80546204663
S31508008AF008F035FF411CC9B2204604F073FF6978B7
S31508008B0009070AD5284608F03CFF0146002007F069
S31508008B10F4F9BDE8324007F0B7BB40065CBFBDE8D4
S31508008B203140FFF70DBE31BD81B209B94BF6EF6191
S31508008B300E4A1180000C08BF4FF6CE2050807047B1
S31508008B400288130448BF4A40510001801046704706
S31508008B5038B5064C62212046FFF7F2FF054641F27A
S31508008B600B01A01CFFF7ECFF684032BDF0F60020B1
S31508008B7030B5044610467F2808BF00204BF2346201
S31508008B80914283B01AD108237F2240F6120100A829
S31508008B90FFF7EEFF08220FF2C40100A8FCF7F8FD64
S31508008BA030B908237F2240F2A27100A8FFF7E0FF40
S31508008BB0082200A92046FCF7A1FD37BD1F4D294311
S31508008BC000FB03111A462046FCF798FD37BD2DE930
S31508008BD0F0440C4619490FF2780A41EA0006C00724
S31508008BE0154602D5622100F02FF8E80702D5632161
S31508008BF000F02AF81248864204D3A819401E1149E3
S31508008C00884202D3642100F01FF8002706E0B85D09
S31508008C10FF2802D06B2100F017F87F1CAF42F6D36D
S31508008C206A08214630460DF01FF928B15046BDE8BE
S31508008C30F044712106F090BFBDE8F08400000808F2
S31508008C400008080800100808504606F085BF00000E
S31508008C506D66672D746F6B656E2E6300FFFFFFFFF1
S31508008C60FFFFFFFF62F30F2262F31F42401810F066
S31508008C70030308D0C91A1FD3DB0748BF00F8012D24
S31508008C8028BF20F8022D130030B4144615461039B3
S31508008C9028BF20E93C00FAD8490728BF20E90C007C
S31508008CA048BF40F8042D890028BF20F8022D48BF88
S31508008CB000F8012D30BC7047C91818BF00F8012DFF
S31508008CC0CB0728BF00F8012D70470000DFF888148D
S31508008CD05120086070472DE9F0410546FDF756FD1D
S31508008CE0DFF87814B0FBF1F64FF4F070B0FBF6F746
S31508008CF01E2D3FB201DBE81B04D5A8B2BDE8F04142
S31508008D0000F0D0BA00F0F8FE80460DF0F1F8DFF872
S31508008D105014DFF85024012048700721DFF8480472
S31508008D2000F041F8E91B09B27143C91C8908491EBC
S31508008D30DFF83854416000F0BDF8DFF81C743C6871
S31508008D40386820F0400038600DF0D4F83C602E609A
S31508008D500DF0D4F80DF0DAF84046BDE8F04100F021
S31508008D60D1BE38B50546FDF711FDDFF8F013B0FBA7
S31508008D70F1F44FF4F070B0FBF4F02D1A1E2D04DA5E
S31508008D8092210FF2244006F0E7FEDFF8DC03DFF855
S31508008D90D423072100F007F805FB04F1C91C89084C
S31508008DA0491E416031BD01600021416081604FF07C
S31508008DB0007111607047DFF8A82301215170D0E7D0
S31508008DC0DFF8AC03006800B970472DE9F041DFF819
S31508008DD0A453DFF8A46300242C6034604FF4A04049
S31508008DE0706041F29A084046FFF775FF6F68FDF715
S31508008DF0D5FC000142F21071B0FBF1F000F5C87025
S31508008E00C01B00B24FF4487190FBF1F000B208287D
S31508008E10A8BF072004DA10F1080FB8BF6FF00700E3
S31508008E2030604046FFF757FF08274046FFF753FFD5
S31508008E30686804197F1EF8D1FDF7B0FC211D4001B2
S31508008E40C908B0FBF1F080B27060BDE8F081DFF8C8
S31508008E502003006800B9704738B5DFF820530120B1
S31508008E606FF00F04A8602C608020FFF734FFE868D5
S31508008E70FF2802D8641C102CF5DB31BD70B5DFF86D
S31508008E800003016841F0010101600121416000F021
S31508008E9033FE0446DFF8D45200F00CF85120DFF810
S31508008EA0B81208602E600DF029F82046BDE870401B
S31508008EB000F028BE2E6828684008400028600DF09B
S31508008EC01DB8002070472DE9F041DFF8A442DFF80D
S31508008ED09052226840F2DC51012A8846DFF8A462E3
S31508008EE0DFF8A47217DA0221B9803160B16901F09E
S31508008EF0030103295BD02168002903D5B16941F034
S31508008F000201B161FFF7DDFF5FEA00081BD12068A7
S31508008F1000284CD549E0B8884FF6FF74A0421DD109
S31508008F209A48018802237F22381DFFF721FEB88858
S31508008F30A04204BF0220B880B069800703D4B06994
S31508008F4040F00200B0610120A870B88830600FFABE
S31508008F5088F0FFF730FF4046BDE8F081B3699B070C
S31508008F60EDD5AB780BB10846F6E7B168B36811F0F2
S31508008F70010103D10F2809D2401C06E09B0705D53D
S31508008F803B781BB1032801DB2018B880B8883970F4
S31508008F900228BCBF0220B8803068B9888842D2D17E
S31508008FA0B06900F00300032801D0FFF767FF00202F
S31508008FB0D2E72DE9F047804675480178002569B95A
S31508008FC0C078072818BF09280DD0032818BF11280C
S31508008FD009D013281CBF15280B2804D06D48016832
S31508008FE041F48071016000F087FD81460CF080FF36
S31508008FF04046FFF768FF08B9012515E05B4F3C6856
S3150800900038684008400038600CF078FF524ED6F8B1
S3150800901000A0306820F0400030600CF06BFFC6F806
S3150800902000A03C600CF06AFF0CF070FF484600F0A8
S3150800903069FD002DD7D0BDE8F0870220B9E710B545
S315080090404948474C002141608160016821F00201CE
S315080090500160002060704FF0007042490860A078F7
S3150800906038B10020A0700620FFF72BFF00F02BF880
S315080090701CDBE078012814D14748012101604749E3
S315080090800968C90748BF03200FD40221E170016CA3
S3150800909041F0010101640420414908604149086022
S315080090A010BDE078042801D10520E07010BD80B518
S315080090B02B48407800281CBFBDE80140FFF7BFBF1A
S315080090C001F053F801BD2A480068012870472DE9C8
S315080090D0F843234C2179207881F0010108422ED0EB
S315080090E0FFF7F1FF23DA40F2EB310FF2BC0006F08E
S315080090F033FD1CE000F000FD80460CF0F9FEE07838
S3150800910005280FD000F01FF8134DD5F800902868F1
S3150800911020F0400028600CF0EDFEC5F8009037609E
S315080091200CF0ECFE0CF0F2FE404600F0EBFCE078AA
S315080091300528DFD10020A0700520FFF73AFF0020A0
S315080091402070BDE8F183094E376830684008400052
S3150800915030600CF0D3BE00000080004090D00300C1
S31508009160C6FF002004ED00E010E000E094ED00E00A
S315080091700CAD0108104000400C00004008400040BB
S315080091801C40004004400040C0F7002044AD0108E0
S31508009190960708083840004018A000400C400040D8
S315080091A080E200E000E100E0636C6F636B732E639E
S315080091B00000000010B5754C00200CF006FF40F6C4
S315080091C08C2188422068B4BF40F0080020F00800CF
S315080091D0206010BD10B504466D48018882B000F0C5
S315080091E05CF89DF800109DF80100FF2902BFFF28D2
S315080091F00420002104B1801C664A1368C0B20828FE
S31508009200A8BF072023F4607343EAC010106008293A
S315080092101068A8BF0721C00841EAC00010605E4870
S31508009220047013BD00B55D48018883B000F035F8B9
S31508009230BDF800004FF6FF7188420EBF4FF4E1609B
S315080092400A2190FBF1F0ADF800005348007808B306
S315080092504F48018802237F2201A8FFF789FC9DF861
S315080092600500BDF80030FF2808BF0420811CC9B2DC
S315080092700829A8BF0721C1F12F0202EBD272C0F15B
S315080092802F00521000FB0320C1F12F01B0FBF1F0B3
S31508009290ADF80000BDF800000EBD02237F2200A82D
S315080092A0FFF766BC70B53E4C25680646FDF776FAAC
S315080092B03C49B0FBF1F070432F303021B0FBF1F0A0
S315080092C0032809D3616D41F0010161652168491BD5
S315080092D00903090B8142F9D370BD10B5040004D106
S315080092E010BD4FF47A70FFF7DDFF2046441E80B2AA
S315080092F00028F6D110BD2C48017869B9C07807282E
S3150800930018BF092814D0032818BF112810D013280D
S315080093101CBF15280B280BD02448016841F480721D
S315080093200260C80504D438210FF2900006F014BC78
S31508009330704738B50C4620B101280FD0032820D035
S3150800934021E01B4D44B1FDF729FA1A49B0FBF1F0AB
S31508009350401EB0F5005F0CD2286012E04CB1FDF754
S315080093601DFA610801EB4000B0FBF4F0B0F5003FD0
S3150800937001D3202032BD104900F001024A6040089E
S315080093800860002032BD212032BD000000BC00402C
S315080093903AAD010818000040C4FF00203CAD0108A2
S315080093A03820004090D0030096070808384000404F
S315080093B0100004E020A1070068C800407573625FCA
S315080093C06572726F722E630070B52C4C2C4D6078E6
S315080093D02968490726D5032824DAA18804EB400220
S315080093E091810121A27801FA00F01043A070254A64
S315080093F0207890B1002320FA03F6F60708D599409D
S3150800940063704840207014EB4300808A106009E0BE
S315080094105B1CDBB2032BEEDB04E01060FDF722FADF
S31508009420032060704FF6FF702860BFF35F8F70BD32
S315080094301248002101700022032141700021C170E9
S315080094400521018100218170001D0E490A604A60CC
S315080094504FF400428A601022CA6048610120886180
S315080094600320C8600421064801644FF6FF710160B5
S315080094704FF400600449086009F0C2B860F900209A
S3150800948010A8004004E0004000E100E09848016CA4
S3150800949041F4C04141F0090101644FF6FF710160D2
S315080094A0202094490860704770B5012815461E4665
S315080094B035D113293CBF0FF26C20095C08096422D8
S315080094C0504301F00F010B2903DA884006E00A220F
S315080094D050430A46511ED2B20B2AF8DA0146012039
S315080094E0FFF727FFE0B9300907280CBF0020022044
S315080094F0012D08BF40F0180003D0022D08BF40F028
S31508009500080006F00F0102297B49A8BF40F00400B5
S31508009510886001200860FFF7B9FF002062BD21209E
S3150800952062BD012800D0704720B57348006801283D
S315080095300FD100F0E1FA05467048016841F00601CE
S315080095400160012000F09CF82846BDE8204000F0A4
