S0160000656D3236302D756172742D6669666F2E733337BA
S3150800400088F1002051780208C9770208CD7702089E
S31508004010A70A090100410008041003AC00579B01D8
S315080040200000000000000000000000000000000082
S315080040300000000000000000000000000000000072
S315080040400000000000000000FFFFFFFFFFFFFFFF6A
S31508004050FFFFFFFF007007080000000000000000D7
S31508004060FFFFFFFFFFFFFFFFFFFFFFFFFFFFFFFF52
S31508004070FFFFFFFFFFFFFFFFFFFFFFFFFFFFFFFF42
S31508004080F0FF002000000000F0FF0020F0FF0020F5
S3150800409088F1002074820208147B020828E80020B0
S311080040A0EC0F00200000080800000120BA
S3150800410088F1002051780208C9770208CD7702089D
S31508004110D5770208D1770208D977020850780208BD
S315080041205078020850780208507802085078020839
S31508004130DD7702085078020850780208B32C020886
S3150800414091770208507802080B4202085078020854
S31508004150ABFA01084B410208507802085078020869
S315080041605D35020809450108DBCC0108A13D0208B6
S31508004170507802086B760208B3760208695001087F
S31508004180F10A0208507802085078020850780208A6
S3150800419010B501F007010368012405E010B501F028
S315080041A00301890003680F2400F05DF8016010BD63
S315080041B070B500F0DDF8044600F0DAF8054600F0C0
S315080041C0D7F800F00106182C05F00F05A8BF362011
S315080041D03BDA00F09FF810F0010018BF382034D100
S315080041E0E00803D0022809D004D30CE03246214661
S315080041F0504806E0324621464F4802E032462146FC
S315080042004E48FFF7C5FFA00805281DD8DFE800F0CF
S3150800421003070B0F13172A462146494812E02A4678
S31508004220214648480EE02A46214647480AE02A46DB
S315080042302146464806E02A462146454802E02A46DF
S3150800424021464448FFF7AAFF0020BDE8704000F069
S31508004250A8B810B501F00301890003880F2400F0FF
S3150800426002F8018010BD8C40A34302FA01F11943FC
S31508004270704710B501F0070103780124FFF7F3FF33
S31508004280017010BD2DE9F84300F072F8044600F0FD
S315080042906FF8054600F06CF8064600F069F8074620
S315080042A000F066F805F00F0806F0010500F00109B0
S315080042B0182C07F00F06A8BF362023DA00F02AF8D4
S315080042C010F0010018BF38201CD1600804EB90706C
S315080042D087082148424600F019F82048324600F07F
S315080042E015F8A00804EB5070C6081D482A46214652
S315080042F03018FFF7BEFF1B484A4621463018FFF71D
S31508004300B8FF0020BDE8F24300F04BB8214600EBA9
S3150800431047009EE74FF4F0500021224600F04ABAC3
S3150800432080B500F061F81049104A08400021C2E93A
S31508004330000101BD0CB000400CB200400CB40040B6
S3150800434000B0004004B0004000B2004004B2004093
S3150800435000B4004004B40040C0F20020D4F20020AB
S31508004360B0F20020B8F20020FFE1FF00E8F20020DA
S315080043702A480168491C016011F8010D704738B5D3
S315080043800446264D08462968224600F022FA28687F
S315080043902018286031BD214A116840181060084667
S315080043A070471F491F4B0A681B68D31AC82BB8BF2A
S315080043B010700868401C0860704710B50446C0B203
S315080043C0FFF7EFFF200A4AE010B5FFF7D1FF00F02C
S315080043D038F904EB002080B210BD10B5044680B24F
S315080043E0FFF7EBFF200CB2E010B5FFF7EDFF00F08A
S315080043F05FF804EB004010BD38B5094C094A23683C
S31508004400126805469A1AAA18C92A03DA02461846ED
S3150800441000F0DFF920682818206031BD3CF800203C
S3150800442040F800206CFC002010B50446214600F038
S315080044308CF8FFF7C9FF2081FFF79AFFA072FFF7F4
S3150800444097FFE072FFF794FF2073FFF7BDFFE08147
S31508004450FFF78EFF2074FFF7C7FF606110BDBDE848
S3150800446010409EE710B500F023F82080FFF7ACFF58
S315080044706080FFF77DFF2071FFF77AFF6071FFF715
S31508004480A3FFE080FFF7A0FF2081FFF771FFA0726E
S3150800449010BD10B500F009F8A078E0E710B500F0F7
S315080044A007F800F007F8A07010BD0446208884E7D6
S315080044B0044689E720805BE710B500F0C2F8A070D3
S315080044C0FFF782FF2080211D00F03FF8FFF750FF1D
S315080044D000B10120E070FFF74BFF2073FFF748FF9C
S315080044E0607310BD10B500F0DCF820690EE110B558
S315080044F000F008F9FFF778FF206110BD10B5FFF747
S31508004500D7FF208010BD20794BE710B50446FFF78A
S31508004510D3FF04F1100000F01DF804F11C0100F0AF
S3150800452014F8FFF751FFA0842434FFF74DFF60808D
S31508004530FFF71EFF2071FFF71BFF6071FFF718FFDB
S31508004540A071FFF715FFE07110BD082017E7BDE859
S31508004550104032E710B50446FFF746FF2060FFF724
S3150800456043FF6060FFF730FF208110BD10B500F0F3
S3150800457011F8A088FFF721FFE088FFF71EFF2089C2
S31508004580FFF71BFF6089FFF718FFA089FFF715FFE4
S31508004590A07B64E7044620681FE710B50446FFF7CA
S315080045A023FF2060FFF710FFA080FFF70DFFE080D4
S315080045B0FFF70AFF2081FFF707FF6081FFF704FF77
S315080045C0A081FFF7D5FEA07310BD10B5FFF7E2FF77
S315080045D0FFF799FF611D1020FFF70EFF04F1150183
S315080045E0BDE81040102007E710B5FFF761FF2080EF
S315080045F0A11C22E010B504462078FFF7D2FE611C04
S315080046000F20FFF7F9FE04F110010320FFF7F4FE6F
S3150800461004F11301BDE810400720EDE610B500F0DF
S3150800462010F82070611C0F20FFF7A9FE04F1100195
S315080046300320FFF7A4FE04F11301BDE8104007208C
S315080046409DE6044694E638B500F02BF804F110010F
S315080046500820FFF7D1FEA069FFF7BFFE04F1180591
S31508004660A888FFF7AAFEE888FFF7A7FE2889FFF7BC
S31508004670A4FE6889FFF7A1FE04F124010720FFF7CD
S31508004680BBFEE87CFFF78DFE287DFFF78AFE687D76
S31508004690FFF787FEA87DFFF784FEE87DBDE8324078
S315080046A07FE6044621461020A6E638B500F02AF82B
S315080046B004F11001FFF749FFFFF796FEA06104F128
S315080046C01805FFF781FEA880FFF77EFEE880FFF752
S315080046D07BFE2881FFF778FE688104F12401072014
S315080046E0FFF74DFEFFF744FEE874FFF741FE287515
S315080046F0FFF73EFE6875FFF73BFEA875FFF738FE25
S31508004700E87531BD04462146102038E6BDE810405C
S3150800471063E610B5FFF795FF2072FFF765FE206088
S3150800472010BD0CB4F8B504460D4606AE07E056F8BB
S31508004730040B1CB10078FFF72EFE38606D1C287834
S31508004740A0B356F8047B622824D07028EFD07328CB
S3150800475018BF752804D076280BD0772812D0EDE735
S315080047601CB1FFF705FE3870E8E73878FFF719FE41
S31508004770E4E71CB1FFF728FE3880DFE73888FFF743
S315080047801CFEDBE714B1FFF72FFED6E73868FFF704
S3150800479024FED3E756F8040B0078002C394602D0DD
S315080047A0FFF7EDFDCAE7FFF727FEC7E7F1BC5DF89F
S315080047B00CFB0000D2B2203A22BF21FA02F00021F7
S315080047C070472032D141D04048409140D1404840BE
S315080047D07047814233D210185118401E491E10E006
S315080047E011F8013900F80139121F11F8013900F8DA
S315080047F0013911F8013900F8013911F8013900F8C1
S31508004800013992B2042AEBDA92B2002A1EBF11F8D5
S31508004810013900F80139521EF6D1704711F8013BEB
S3150800482000F8013B121F11F8013B00F8013B11F893
S31508004830013B00F8013B11F8013B00F8013B92B23D
S31508004840042AEBDA92B2002A1EBF11F8013B00F8DF
S31508004850013B521EF6D17047130003D00A4619468B
S3150800486000F020B8704710B500E0521E92B222B18F
S3150800487000F012F8F9D0181B10BD002010BD10B5B5
S3150800488000E0521E92B22AB100F006F8F9D0181BC1
S3150800489040B210BD002010BD10F8013B11F8014BC5
S315080048A0A342704762F30F2262F31F42401810F0CA
S315080048B0030308D0C91A1FD3DB0748BF00F8012D28
S315080048C028BF20F8022D130030B4144615461039B7
S315080048D028BF20E93C00FAD8490728BF20E90C0080
S315080048E048BF40F8042D890028BF20F8022D48BF8C
S315080048F000F8012D30BC7047C91818BF00F8012D03
S31508004900CB0728BF00F8012D7047000010B50446F4
S3150800491001F078F8204602F078F9204602F029FDE1
S315080049202046BDE8104003F0D3B902F06BBD10B5C0
S31508004930044601F0A0F8204602F096FD204602F053
S3150800494081F9204603F0E9F92046BDE8104003F056
S3150800495064BB10B500E010B5044601F0E4F8204643
S3150800496002F067FE204602F073F9204603F0F1F9DB
S31508004970204603F0BCFB2046BDE8104003F0FBBD13
S3150800498010B5044601F0FCF8204602F072FE2046F7
S3150800499002F075F9204603F00AFA0CE010B5044651
S315080049A001F013F9204602F0A1FE204602F067F94D
S315080049B0204603F019FA204603F0B1FB204603F01F
S315080049C0F2FD2046BDE8104003F05BBB80B504F05D
S315080049D047F803F0C8F8BDE8014002F099B910B5E8
S315080049E0044603F08DFC2046BDE8104003F05DBB8D
S315080049F080B504F0A8F8BDE8014003F0BBB87047DD
S31508004A002DE9F0471038E428AAB04FF00108DFF87E
S31508004A10B897DFF8B857D6A1D6A4D7A7D7A60FF266
S31508004A20603A00F24E87DFE810F028014C074C0781
S31508004A304C070605B703BC034C0789034C07DA0382
S31508004A404C074C078903E703EE0389031C01890316
S31508004A504C074C074C074C074C07E500EB0089034D
S31508004A60550144047401890361049B034C074C07F0
S31508004A7079017C014C07AD010302D7013B024C07C3
S31508004A804C074C074C074C074C074C076604540266
S31508004A904C074C074C074C074C074C074C07FF00C4
S31508004AA04C074C074C074C074C074C074C074C0760
S31508004AB04C074C074C074C074C074C074C0766023B
S31508004AC089036F049B037904800496049E044C07AB
S31508004AD0B102C1024C07EB044C07A704BF04D40279
S31508004AE00C054C074C074C070203D303D402CA042F
S31508004AF0AB030F05E004FB04AB034C070A04890368
S31508004B0024044C074C07850490044C074C077B0289
S31508004B107603890389038903890389037D03890346
S31508004B2089037E0589034C074C072E074C074C075B
S31508004B304C074C078903CC024C074C073E048903F3
S31508004B404C07F9034C074C0714054C0789036C05F9
S31508004B504C0589033A0565034C071E0339034C07C0
S31508004B604C074C074C074C0755035C058903990607
S31508004B7087059E05AA054C074C074C07AE06B306E3
S31508004B804C07B606C106B205AF054C074C074C07DD
S31508004B904C074C074C0776064C074C0751064C0742
S31508004BA04C074C074C074C074C07B505C005C8060B
S31508004BB0CB05D5054C074C07F3050106CD064C0772
S31508004BC04C074C07FC064C0704064C074C07150611
S31508004BD04C074C071A062406380689034C0727058E
S31508004BE04C074205720389033F064C074C074C07DE
S31508004BF04806010701A900A802F05AFB00F01ABEF0
S31508004C0008208DF809000DF10A0103A802F08EFBB1
S31508004C108DF8080003AB0DF10A00019002AA0DF108
S31508004C2009000090BCA1ADE108208DF80F000DF138
S31508004C300E0200F074FE9DF80E0003AB05AA04A947
S31508004C4002F085FB8DF80D0004AB03A802900DF168
S31508004C500D020DF10F00019005A800900FF60851FE
S31508004C6090E101AB0DF10102ACA100F053FE0199F0
S31508004C709DF8010002F07AFBA2E10DF115000490FF
S31508004C800DF11E030DF11600039006AA0DF117008B
S31508004C9002900DF11A00019007A8009001200FF666
S31508004CA0D041FFF73EFD9DF81500BDF81A30BDF856
S31508004CB01C20BDF81E1002909DF8160001909DF864
S31508004CC0170000909DF8180003F0AFFF8DF8140048
S31508004CD005AAE2E1FFF74CFB00F019FE8DF800008B
S31508004CE0FFF746FB8DF80100FFF76EFBADF80200F3
S31508004CF0FFF73EFB8DF804000DF1050100F031FECB
S31508004D00FFF736FB8DF80D0000A9284603F030FCA6
S31508004D1007E2FFF72DFB03F02CFC02E204F0B3FBDD
S31508004D204EE10DF1120304AAE9A100F0F3FD06A86D
S31508004D30FFF798FB03A8019003AB05A800900DF1B7
S31508004D400F0221464046FFF7ECFC0DF10D000290DC
S31508004D5006AA05989DF80F30BDF8121001909DF827
S31508004D600C0000909DF8100002F0C9F92DE000BF74
S31508004D7076000000757570007570000075000000FB
S31508004D80757500000DF112020120FFF7CAFC06A88E
S31508004D90FFF768FB03A802900DF10F0305A8019021
S31508004DA004AA03A800F0C7FD0DF10D00029006A99C
S31508004DB005989DF80F309DF8102001909DF80C007D
S31508004DC00090BDF8120002F0A3F98DF80E000DF15F
S31508004DD00D030DF10E025EE007A8FFF743FB04A8DA
S31508004DE0039005AB06A802900DF1150204A80190E0
S31508004DF00DF11300009001200FF67C31FFF791FCAE
S31508004E009DF813309DF814209DF815100DF111002A
S31508004E100290069801909DF81000009007A802F0ED
S31508004E2083F98DF812000DF111030DF1120232E02B
S31508004E300DF1190000900DF11A0307AADCA100F084
S31508004E4073FD09A8FFF70EFB05A802900DF11703DD
S31508004E5008A8019006AA05A800F06DFD0DF1150039
S31508004E60049009AB08989DF81920BDF81A1003900C
S31508004E709DF8140002909DF8170001909DF81800FF
S31508004E800090BDF81C0002F06AF98DF816000DF1C5
S31508004E9015030DF1160251460020FFF742FC6EE19C
S31508004EA00DF106020120FFF73CFC03A8FFF7DAFA2A
S31508004EB001A8009002AB01AA39464046FFF731FC2B
S31508004EC0029B9DF80420BDF8060003A902F077F9B5
S31508004ED02FE10DF1050000900DF1060302AAB5A118
S31508004EE000F022FD9DF805209DF80610BDF8080083
S31508004EF004F01AFCE7E000F023FDAFA100F014FD72
S31508004F00039A9DF80810BDF80A0004F0C7FC8DF84E
S31508004F1009000DF10902C0E0756276007577000098
S31508004F2008208DF811008DF810000DF10E00029082
S31508004F3005A801900DF11100009008AB0FF6402569
S31508004F400DF10F02294600F0EFFC03A802900DF1BF
S31508004F501200019006A800909DF80E30BDF81420A6
S31508004F609DF80F0008A902F058F98DF80D0006AB58
S31508004F7003A802900DF10D020DF1120001902946C9
S31508004F8004A800900020FFF7CCFBF8E000F0C5FC71
S31508004F909DF8010001A902F065F98DF8000000AA44
S31508004FA000F0C5FC01A8FFF774FAE8E000F0B5FCCC
S31508004FB001A8FFF773FA9DF8010001A902F065F947
S31508004FC0DDE300F0C5FC02999DF8040002F0BCF888
S31508004FD0AFE000AA00F0A3FC28786A289DF8000034
S31508004FE001A902D104F098FC01E004F08CFF8DF8C9
S31508004FF001000DF1010200F09AFCBDF80400FFF76C
S31508005000DCF99DF80600FFF7CCF90DF10701102031
S31508005010FFF7F2F90698FFF7E0F90798FFF7DDF9C9
S315080050209DF82000FFF7BDF90DF12101C5E109A89A
S31508005030FFF75DFA00F084FC214600F075FC04A831
S315080050400090039B9DF808209DF80A1009A802F015
S315080050501BFE8DF809000DF1090200F068FC04A892
S31508005060FFF740FA8BE008208DF80E008DF80D004A
S3150800507007AB0DF10D00029004AA05A801904FA1F7
S315080050800DF10E0000F04FFCBDF8100005AA07A9A7
S3150800509005F02BF98DF80C0003AABFE308208DF85C
S315080050A0050002AB0DF1050000900DF1060244A1C2
S315080050B000F03AFC04A900F020FCBDF8060004AA9A
S315080050C002A905F052F98DF8040001AAA6E300BF6B
S315080050D07576000008208DF801000DF1010301AA7C
S315080050E038A100F017FC00F007FC03A901A802F09C
S315080050F0E5FD44E300F02CFC02999DF8040002F05B
S315080051002BFF8DF805000DF1050200F010FC02F0EA
S315080051103EFFFFF746F9FFF72BF900B1012005F02E
S31508005120C6FBCBE300F014FC02999DF8040005F0D9
S31508005130C7FB8DF805000DF105026FE32A780FF617
S315080051405000002600E0761CF6B2315C9142FAD196
S31508005150FFF70EF90FF6500151F826108847ADE310
S31508005160FFF706F90646FFF72FF929783029014691
S315080051700CBFDFF86427DFF8642730469047A2E3C0
S3150800518000F0BEFB2878772800A802D105F0ACFB12
S3150800519094E305F0E1F891E3FFF716F9DFF8401715
S315080051A003E0FFF711F9DFF83C1708808BE300BF2F
S315080051B0767675007675750076757000766262008B
S315080051C07662000062000000147B0208AEFF002031
S315080051D000A8FFF793F900A805F03CFE6EE3FFF779
S315080051E0C7F80546FFF700F900F08EFB0246314680
S315080051F0284606F05BFF61E300A8FFF715F900A84B
S3150800520005F0B1FC5AE3FFF7B3F8054600A8FFF727
S315080052100BF900A9284605F02CFD4FE3FFF7D4F853
S315080052200546FFF7E1F800F06FFB0446FFF7CCF8F8
S31508005230034622463146284607F054FB3EE3FFF76D
S3150800524097F800A907F0F8FFFFF7ABF800F04CFB5A
S315080052509DF80200FFF7A5F89DF80300FFF7A1F8EF
S3150800526000F046FB9DF80500FFF79BF80DF10601D7
S31508005270A3E0FFF77DF800A908F06DFAFFF791F8AB
S3150800528000F032FBBDF80200FFF797F800F030FB9C
S315080052909DF80500FFF785F89DF80600FFF781F8E9
S315080052A09DF807000AE3FFF763F840B208F093FB9E
S315080052B004E3FFF75DF800A903F07FFAFFF771F83A
S315080052C09DF80000FFF76DF89DF80100FFF769F8F3
S315080052D0BDF80200FFF771F800F00AFB0DF10501B1
S315080052E00820FFF789F89DF80D00E7E2FFF740F878
S315080052F003F045FA34E0FFF767F800F008FB0146CB
S31508005300284608F07FFDD9E2FFF732F8054600F097
S3150800531027FB00A9284609F0A9FECFE2FFF728F8DF
S3150800532000A909F00EFF00A947E0FFF721F809F0E8
S3150800533016FF15E000F014FBFFF71AF8010018BF76
S31508005340012100A80AF036F8BDE200F009FB00A822
S315080053500AF013F8B2E200F003FB00A80AF029FAF3
S31508005360FFF72BF8AFE2FFF72FF800A90AF03BFA90
S31508005370FFF717F800A920E0FFF726F8ADF80000B8
S315080053800DF1020100F0B9FA0DF1120100F0B5FABB
S31508005390FEF7EEFF8DF822000DF1230100F0E1FA89
S315080053A000A80AF0FBFA89E200A80AF093FBFEF7C8
S315080053B0F8FF00F099FA0DF1020108207EE0FEF7E9
S315080053C0D7FF054601A900F0CCFAFEF7D1FF06463D
S315080053D000F092FA03A83300009018BF012301AA2F
S315080053E02946002004F0F2FD68E200F0B9FAFEF75B
S315080053F0BFFF010018BF012100A804F0A7FD5DE268
S3150800540000F0AEFAFEF7B4FF054602A900F075FAF9
S31508005410290018BF012102AA00A804F07EFD4DE26A
S31508005420FEF7A6FF002100910A46014600234046E2
S3150800543004F0CCFD42E200F093FA00A804F07EFCEA
S315080054403CE20BF0A5F93EE24FF6FF7004F0EEFFE2
S3150800545034E2FEF78DFF054606A93020FEF78FFFDA
S3150800546000A91620FEF78BFF280018BF012000AA06
S3150800547006A90BF033FB21E2FEF77AFF05460AA9D7
S315080054804A20FEF77CFF00A92520FEF778FF2800B2
S3150800549018BF012000AA0AA90BF02DFB0EE200A8EE
S315080054A00BF023FBFEF77DFF00A9302006E000A8DD
S315080054B00BF026FBFEF775FF00A94A20FEF79CFFB6
S315080054C001E200F01DFA0FA93020FEF758FF04A9E3
S315080054D02A20FEF754FF04AA0FA900A80BF016FB12
S315080054E0ECE100F00DFA16A94A20FEF748FF04A9D8
S315080054F04820FEF744FF04AA16A900A80BF008FBEB
S31508005500DCE106A91620FEF73AFF0CA93020FEF7C3
S3150800551036FF00A91520FEF732FF00AA0CA906A837
S315080055200BF0E1FACAE1FEF74FFF00F0F0F941B2DD
S3150800553028460BF0D0FBC1E10AA900F0DEF9FEF718
S3150800554053FF0090FEF714FF8DF804000DF10501D6
S3150800555000F0D3F90DF1150100F0CFF900A90AA85A
S315080055600BF034FDAAE1FEF73FFF00F0D0F900F09A
S31508005570CBF9024671B228460BF05AFD9EE1FEF7BA
S3150800558023FF0BF0A2FD99E10CF022F99BE10CF048
S3150800559023F893E1FEF7ECFE054600A8FFF785F829
S315080055A000A928460CF034F988E1FEF7E1FE00A9C7
S315080055B00CF08AF9FEF7F5FE00A8FFF744F882E139
S315080055C0FEF7D6FE054600F09BF900A928460CF022
S315080055D065FD73E1FEF7CCFE00F099F90646FEF785
S315080055E0F3FE8146FEF7C4FE0446FEF7C1FE0746F3
S315080055F0FEF7BEFE8246FEF7CEFE0290CDF804A068
S31508005600009723464A46314628460DF033FF55E1B2
S31508005610FEF7AEFE054600A8FEF7E6FFFEF7A8FE73
S3150800562042B200A928460CF00BFB47E10CF09CFBA4
S3150800563044E1FEF79DFE0546FEF7C6FE064600F067
S315080056408FF9FEF795FE034600AA314628460CF068
S315080056502CFC33E1FEF78CFE0CF0B6FC2EE1FEF7CF
S31508005660C3FE0546FEF7C0FE014628460EF0B0FA10
S3150800567024E1FEF77DFE00F04AF900F045F90746F9
S31508005680FEF7A2FE0446FEF773FE009023467AB2A2
S31508005690314628460CF0C2FC10E100A8FEF7BEFF12
S315080056A000A80EF0BAFA09E100A80EF0C3FAFEF750
S315080056B078FE00A8FEF79EFF05E1FEF759FE00F00A
S315080056C026F9014628460DF0AFFFF7E0FEF78CFEF7
S315080056D0054606A8FFF71DF8FEF74AFE0646FEF73A
S315080056E073FE8146FEF770FE0446FEF76DFE07461A
S315080056F004A900F036F909A900F0FFF809A80390F3
S315080057004B4604A8029001970094324606A92846FB
S315080057100EF0DBFCD7E0FEF72BFE00F0F8F80646A5
S3150800572004A8FEF7F6FFFEF723FE8146FEF720FEE5
S315080057300446FEF730FE0746FEF71AFE8246FEF7D7
S3150800574043FE0390CDF808A0019700944B4604AA9F
S31508005750314628460EF0B3FCC0B2AFE001A8FEF70A
S31508005760D4FE0DF101030DF1020259A100F0D2F8A1
S315080057709DF901209DF8021001A802F0ADFC8DF8F4
S31508005780000000AA4AE0FEF7F3FD0BF040FF95E0A3
S315080057900BF042FF92E004A900A80BF00FFF00A847
S315080057A0FEF7E4FE04A8FEF710FF8CE000A8FEF75B
S315080057B0F4FE00A80BF00AFF85E0FEF7D9FD01F01C
S315080057C021FA7BE006A805900DF11E0309A80490AE
S315080057D008AA06A803900DF11A00029007A80190DE
S315080057E00DF11B00009001200FF29C11FEF799FFA6
S315080057F0BDF81C309DF81B20BDF81E1009A80290A4
S315080058009DF8180001909DF81A000090BDF8200038
S3150800581001F0CDF98DF819000DF1190200F087F89D
S3150800582051E0FEF7D1FD01F0E1F947E001A900A832
S3150800583001F04BFA8DF8010000AB0DF1010251465B
S315080058400020FEF76EFF01A90820FEF7D5FDBDF87A
S315080058500C00FEF7B2FD9DF80E00FEF7A2FD9DF8BE
S315080058600F00FEF79EFD9DF81000FEF79AFDBDF8A5
S315080058701200FEF7A2FD9DF81400FEF792FD0698A9
S31508005880FEF7ABFD1FE008208DF8120006AB04A852
S3150800589003900DF1110205A802900EA104A801902B
S315080058A00DF1120000F03FF89DF8110000B101203B
S315080058B0059B9DF8102006A901F08FFFFEF771FDE4
S315080058C001E04FF0000840462AB0BDE8F087000026
S315080058D075730000756270008B870008EBF000088E
S315080058E0F8F20020FAF20020BDF80000FEF765BDC8
S315080058F09DF80400FEF755BD03A91020FEF73FBD2D
S3150800590000A91020FEF73BBD0646FEF731BD054649
S31508005910FEF72EBD0120FEF704BF0DF10102314648
S315080059200120FEF7FEBE00900120FEF7FABE3146C2
S315080059300020FEF7F6BE009049464046FEF7F1BE47
S3150800594002A8019002AB03A800900DF10A02704765
S3150800595001A8009002AB01AA39460120FEF7E1BE74
S3150800596000A90820FEF70BBD7576627500000000D9
S31508005970757676767575750075757575700000009F
S315080059807562767500000000767675767575620024
S31508005990181D207A2A84858687888B8A8D959A2E63
S315080059A05BB1A4A122E8EE0017D90008C7C1000818
S315080059B0B59A010823D20008AD8A00087D0B0108B4
S315080059C0F50B01080B0C01081F0C01083B0C01081C
S315080059D0D30C0108BD0C0108FF0C0108516501082C
S315080059E0ADBE000829B901082DB901086DA1000846
S315080059F0E10A0108EF0A010831AC0008FB0A0108B0
S31508005A00090B010838B50446207898BB6070012058
S31508005A1020722070A07803281FD0072821D01128CB
S31508005A2004D0152820D0302814D021E00720DFF82C
S31508005A30A859207204F1090029880EF04EFBA878AF
S31508005A40E072E8782073287960736879A073A8797A
S31508005A50E07331BD0EF067FB08E0DFF880090078D7
S31508005A6004E00EF021FC01E00FF054F8607231BD3D
S31508005A700020207031BD38B504462078002851D161
S31508005A8001202070A078042810D007281BD00E28E3
S31508005A9021D0112841D0152829D017282CD018280C
S31508005AA034D0192835D030281BD039E0207A01287F
S31508005AB01BD1607A00B10120DFF824190870002094
S31508005AC00FF072F927E0607A10B10EF0BBFB25E003
S31508005AD00EF0CAFB22E0607A00B101200FF0D8FA76
S31508005AE002E0607A0EF021FBC0B1362016E094F988
S31508005AF009000EF0E7FF0EE0657A04F10A000EF0E1
S31508005B00E5FA014628460FF0B4FB04E00FF0ACFBBB
S31508005B1001E00FF09CFB002000E03720607031BDEB
S31508005B200020207031BD10B50446DFF8B80880782B
S31508005B30217856280CBF0120002001BBA17061788E
S31508005B40072910D130B10FF0E9FB012814BF6320F3
S31508005B5062200EE0E07862280CBF012000200FF0DA
S31508005B60E0FBA07009E0042909D1DFF87C1810B120
S31508005B700878E07001E0E07808700120207010BD18
S31508005B80017809BB817001210170417801290ED085
S31508005B900C2909D017290DD02D2902D035290CD06A
S31508005BA010E0DFF848180AE0DFF8441807E0DFF8E5
S31508005BB0441804E0DFF8401801E0DFF840180978D7
S31508005BC08180704700210170704738B504462078F7
S31508005BD000285AD1012020700020A0706078012882
S31508005BE015D00C280FD017283DD02D2802D03528DF
S31508005BF044D048E0A18803293DDAC9B2DFF8EC07AA
S31508005C000FF05EFD38E0A088DFF8E41739E0DFF82A
S31508005C10F007008828BBA08818B3DFF8E85728786B
S31508005C200FF076FF0EF0D4FF80B1A188DFF8C40725
S31508005C30C9B20FF045FDA0700EF0D4FFDFF8C80713
S31508005C40DFF8C8170068C01C086001E03820A0709B
S31508005C5001200FF0F4FE28700020DFF8B417088042
S31508005C6031BD382008E0A08810F0C7FA18B9A08816
S31508005C70DFF8841705E03620A07031BDA088DFF86C
S31508005C807C17087031BD0020207031BD80B5012019
S31508005C908DF8000000A8FEF7A2FE9DF8000002BDE0
S31508005CA02DE9F04FA7B00EF0DAFF0EF0F5FF074624
S31508005CB0DFF85407DFF82C470068DFF858274678DE
S31508005CC08578A57006F003018DF808100178217013
S31508005CD0C11C1160C01CDFF834170860700900F099
S31508005CE00300E07010F0E4FD300602D55825322096
S31508005CF03BE2607820B9A07810B15825302034E20C
S31508005D0011F076F810B9582542202EE2FFF7BEFFAB
S31508005D10002800F02C82A0786178DFF8FCB6020033
S31508005D200FF230280FF230290FF2302A4FF6FF769D
S31508005D3060D0012800F0D381022800F0988003285B
S31508005D4000F0E980052834D0062800F032810928B9
S31508005D5018BF0A2800F035810B2818BF0C2800F058
S31508005D6037810E2800F04181122800F08781132818
S31508005D7000F0BA81172800F0C781262800F0BA81FA
S31508005D80272800F0BC81472800F0B181492800F097
S31508005D9026814E2800F05381522840D0532855D0EA
S31508005DA0552800F07B80562800F08F8065281ED085
S31508005DB0812800F0F3808F2800F0A981912800F04F
S31508005DC0C381942800F0AF819D2800F08381AA281A
S31508005DD000F09780AB2800F0C380AC2800F0D5808F
S31508005DE0AD2800F0D580AE2800F0D580F12800F067
S31508005DF06181B5E1FEF7BCFA06460420FEF7D1FA42
S31508005E000220FEF7CEFA4FF4AE40FEF7D6FA6078D7
S31508005E10002808BF042E01D101206070A7E100F018
S31508005E20C5F9FEF7A5FA8DF8010000A8FEF7A8FD4A
S31508005E309DF8000028B937208DF802000020ADF83B
S31508005E40040001AB0DF10202414656E0012918BFD4
S31508005E50382039D100F0AAF901AB0DF1010241460B
S31508005E600120FEF75EFC00A8FEF798FD24E0382620
S31508005E70012912D1F91EC9B203200EF0F9FE074610
S31508005E80FF2F08BF352608D010F0C4FF002814BF1E
S31508005E900026362638460FF03BFEEDE0042200F0D9
S31508005EA086F90DF103030DF1010249460120FEF7BB
S31508005EB038FC00A8FEF74FFD9DF8000010B9372002
S31508005EC08DF802009DF802004FE1042200F06FF9F8
S31508005ED0FEF74EFA8DF8010000A8FEF73AFD9DF888
S31508005EE0000028B937208DF8020000208DF803003D
S31508005EF00DF103030DF1020249460020FEF711FCDD
S31508005F0035E100F04EF9FEF733FA8DF80E0003A8D6
S31508005F10FEF7FCFC0BE000F044F904AB0DF10E02B1
S31508005F20ADA10120FEF7FDFB03A8FEF7FEFC9DF8D8
S31508005F300C0028B937208DF80D0000208DF81400C4
S31508005F4000F028F90DF10D0251460020FEF7E9FB95
S31508005F500DE100BF75760000757500007575620065
S31508005F6000F01FF900F016F90DF10E025146012056
S31508005F70FEF7D7FB03A8FEF7DAFC9DF80C0000280D
S31508005F800CBF37209DF80D00EFE0FEF711F9EEE0A3
S31508005F90FEF778F9EBE0FEF7C3F9E8E0042FFCDB3F
S31508005FA0DFF86804DFF8641400683818C01E086053
S31508005FB0DDE0012000F0FFF8002840F0E880072522
S31508005FC0D5E009280CBF0120002002F095FDCEE09F
S31508005FD00C280CBF0120002000F066F9C7E000205D
S31508005FE0FEF7DFF911F03EF88BE0FEF7C1F9064639
S31508005FF0FEF7EAF90746FEF7BBF98046FEF7B8F959
S315080060008146B7F5004FB4BFB8F1040F70200BEB0B
S31508006010C60A11DA022E10DADAF8000042463946C4
S3150800602011F030F8B9F1000FAAF8047008BF4FF064
S3150800603000088AF80680002097E0702095E0FEF7B1
S3150800604097F9002100260228ADF802108DF80010F5
S315080060500BEBC00708DA386800AA0DF1020111F047
S3150800606020F8B87900B10126BDF80200FEF7A5F9B7
S315080060709DF80000FEF795F9304676E0FEF778F9C8
S31508006080070018BF0127002011F03CF88046424659
S31508006090FF2A08BF182068D0002F14BF30460220F8
S315080060A080A111F07BF80020FEF77BF940460FF03F
S315080060B02FFD5CE00026DFF8647337F81600FEF75C
S315080060C07CF9761C222EF8DBA07865284FD10FF0D4
S315080060D0BEF84CE0FEF778F90EF04AFE47E0FEF708
S315080060E047F911F0ABF940E010F091FE3FE010F0EF
S315080060F085FE3CE0CA490820FEF77EF937E009F03C
S31508006100A3FBFEF75AF932E004F0A3FE2DE00127BF
S3150800611011F008FAB04204D00027FEF729F9C14960
S315080061200870384621E003A91020FEF728F907A9C8
S315080061301020FEF724F907A903A811F039FA03A9D4
S315080061401020FEF759F912E011F0ECF9FEF735F9CF
S315080061500420FEF726F91020FEF723F9032004E0B1
S31508006160FEF74EFC18B958253120FEF71AF9A6494C
S31508006170207809680870072DA348006885700CBF49
S31508006180012200229DF80800012100F027F827B017
S31508006190BDE8F08F05A8019005AB0DF1150000903C
S315080061A070478C22002103A8FEF756BB0622002161
S315080061B000A8FEF751BB10B504469148008848B1BF
S315080061C00EF075FD30B1984800780122214600F09E
S315080061D005F8012010BD0000757700002DE9F84389
S315080061E08846DFF82492894909680446D9F80000E8
S315080061F0091A16468FB21EB14078C0F3411502E05F
S3150800620010F052FB054679480078854205D340F2DE
S315080062106D310FF2242011F0D7F9680140F08000A3
S31508006220C92FC5B205DBC8200EF03CFD45F00205B6
S3150800623002E0F8B20EF036FD7C48017819B100216B
S3150800624045F0020501707A48017819B1002145F038
S31508006250010501706A48018811B145F00401CDB203
S315080062603EB1B8F1000F14BF45F0080145F0100122
S31508006270CDB2D9F800106C4A4D70012C008818BFB1
S31508006280022C05D108B9147004E00020107004E04F
S31508006290147010B900200EF087FD4046BDE8F243A1
S315080062A00EF0CEBC620000002DE9F0419AB004461B
S315080062B0FEF75EF805464CB1062818BF082803D035
S315080062C0092818BF0B2801D170207FE0062D12D1AE
S315080062D02820FEF766F8002456480188022322463D
S315080062E001A811F0A1FABDF80400FEF766F8641CCF
S315080062F0142CF1DB6CE0082D1DD14020FEF751F877
S315080063000024042322460C2100A811F08DFA9DF8DA
S315080063100000FEF746F89DF80100FEF742F89DF8E2
S315080063200200FEF73EF89DF80300FEF73AF8641CF3
S31508006330102CE6DB4CE00B2D47D000260FF20C188C
S3150800634008EBC607387885422BD114B97878FEF75A
S3150800635028F878687B780188002202A811F064FA88
S3150800636034B3FEF705F801467878814201D0022059
S315080063702CE0002100E0491CC9B2814205D202AADC
S315080063808A5CFF2AF7D0462020E002A9FDF7F7FF2E
S3150800639078687A78008802A911F0D5FA0020FEF705
S315080063A000F8761CF6B20A2ECAD374B1B1200DE0F5
S315080063B0092D05D1152200210DF14E00FEF74CFAE4
S315080063C0787802A9FEF718F802E00020FDF7E9FF41
S315080063D01AB0BDE8F08100009C7F0208A9F10020F0
S315080063E0B2FF0020ACFF0020F0F20020FCF10020F4
S315080063F0A1FF0020A8F10020B1FF002010F2002024
S315080064007AFF0020EEF300206CFC002040F8002004
S31508006410C6F900203CF80020B0F3002084FC0020D8
S3150800642070FC0020ECF30020D2FF0020B0FF002013
S3150800643078FF00207C7F0208636F6D6D616E642DA6
S3150800644068616E646C6572732E630000011000004B
S31508006450707F020802100000727F02080302000023
S31508006460747F020805100000787F020807080000FC
S315080064707A7F0208000200006C7F0208040200000E
S31508006480767F0208095C00007E7F02080A14000075
S31508006490807F02080C0800006E7F020810B50446CB
S315080064A001202070A178DFF8A00A27290CD1217ACB
S315080064B00429A8BF36200DDA417304F10901227AAE
S315080064C02030FEF786F96FE028290CD1217A0829B1
S315080064D0A8BF36206FDA017304F10901227A183051
S315080064E0FEF777F960E0C27B1D2910D1217A0429CD
S315080064F018BF36205FD142F00101C173617A01727B
S31508006500A17A4172E17A8172217BC1724CE01E291F
S315080065100DD1217A012918BF36204CD1617A00297C
S3150800652014BF42F0020102F0FD01C1733CE01F29CD
S315080065300DD1217A012918BF36203CD1617A00296C
S3150800654014BF42F0040102F0FB01C1732CE02029BC
S315080065500BD1217A082918BF36202CD1082204F13C
S315080065600901B030FEF735F91EE021290BD1217A51
S31508006570092918BF36201ED1092204F10901A430C1
S31508006580FEF727F910E0222910D1217A052918BF2C
S31508006590362010D1617A0170A17A4170E17A817052
S315080065A0217BC170617B0171002004E0162904D1AA
S315080065B0607A0BF0B6FD607010BD0020207010BD2B
S315080065C02DE9F54FDFF88409C0780027702895B0C3
S315080065D08A461E46BB4640F021813078DDF8809019
S315080065E0DFF86C89DFF86049C0F3021000900025D7
S315080065F000E06D1C0098EDB2C0B2854280F0938031
S31508006600A8190221C07C00F072FA0028F1D0327B6A
S31508006610F07AB17AE57B130901EB0020AF0702F0A7
S315080066200F014EBF0127277A07F00F07727BED0788
S3150800663080B268D54FF6FF75A8421CBFB8F800505F
S31508006640A84260D18F4222BFBB42219890425AD3BA
S315080066501599082208A8FEF7BCF816998DF828A0FF
S315080066600A220DF12A00FEF7B4F81A2231460DA8BF
S31508006670FEF7AFF88DF84E90E07B80074CD5DFF833
S31508006680D45805F12E06B07800283DD008222946B0
S3150800669008A8FEF7E8F8002801BF0AAE70886989DD
S315080066A088422CD1072205F10C010BA8FEF7DBF86E
S315080066B0002802BF307B297D884220D10F220DF1A8
S315080066C035010DF13500FEF7CEF8C0B9032205F104
S315080066D0240111A8FEF7C7F888B9072205F1270192
S315080066E00DF14700FEF7BFF8002802BF9DF84E00DF
S315080066F095F82E10884202D1022101200EE0E07B97
S3150800670000F0FD00E07387E0302208A92846FEF76E
S3150800671060F80120B0707FE00221002000F0ABF99C
S315080067204FF0010B78E000253BE0401CC0B28842E0
S3150800673036D2DFF824288218127C9145F5D101A8B3
S3150800674000F085F9227B04F118010DF11700FEF718
S3150800675040F89DF8040000F08F008DF80400092227
S31508006760217B090141F0010108438DF8040004F179
S31508006770A4010DF10500FEF72CF8A0788DF80F009E
S3150800678060788DF8100020788DF8110020798DF842
S315080067901200E0788DF8130001A80DF03EFABB460A
S315080067A06D1C0098EDB2C0B2854234D2BBF1000F21
S315080067B031D1A819C07C012802D0C0280FD0EFE734
S315080067C0E07B01278007EBD51599082204F1240000
S315080067D0FDF7FFFF0021012000F04DF9DFE7DFF8A4
S315080067E07C17097801F0010101270AF0010081F000
S315080067F00101084301BF16980088B8F800108842BE
S31508006800CED1DFF854070078B9F1FF0FC0F3410184
S3150800681095D000208AE70FB1584606E0DFF82C0726
S31508006820007872280CBF0120002017B0BDE8F08F51
S315080068302DE9FE4FDFF81407C07800247028A0461B
S315080068406BD10E98DFF800A700780094C0F3021009
S31508006850019021E06D1C09F10109B9F1100F43DB24
S3150800686096B10E980078C0070ED50E98C07AC0F378
S315080068700110022818BFFF2F06D002990AEBC7009D
S3150800688008222430FDF7A5FFE8B2102800DAA04652
S315080068900098401CC0B2009000980199884239DAE5
S315080068A0B8F1000F36D10E98009908180022C17C5D
S315080068B000E0521C9AF80E30D2B29A42E8D202EBA5
S315080068C00A031B7C8B42F4D1012906D0032902D086
S315080068D0C02904D0DCE70124D9E70124D8E700253C
S315080068E0FF2701260124A9460AEBC90B02990822AB
S315080068F00BF12400FDF7B7FF00B90026FF22082197
S315080069000BF1240007F043F80028A3D0FF2FA2D1EB
S315080069104F46A0E70CB1404606E0DFF8300640785F
S3150800692074280CBF01200020BDE8FE8F2DE9F44F26
S31508006930DFF818A605469AF80300002670288EB0D8
S31508006940B3467BD1199F38781A9CDFF8FC85C0F3CB
S3150800695002100490B14607E00126002D18BFC12D8C
S3150800696000D1B34609F1010904985FFA89F9C0B262
S31508006970814560D2BBF1000F5DD109EB0700C07CF1
S31508006980012848D0032802D0C028E5D0EAE7012626
S31508006990032CE7DB002D18BFC12DE3D107A800F0B3
S315080069A056F89DF81C0040F001008DF81C000822DE
S315080069B008F1B0010DF11D00FDF70BFF07220021BC
S315080069C00DF12500FDF748FF387805A90391C0F3B6
S315080069D04102C0F30211029108F1180307F11301ED
S315080069E00191FF2098F80C10009107F1100100F0B2
S315080069F0ADF89DF81C1001F08F0141EA00118DF8E1
S31508006A001C10024605A90DF12F00FDF7E2FE07A8A6
S31508006A100DF003F9A5E70126002D18BFC12DA1D158
S31508006A20032C9FDB0E99082208F12400FDF71BFFB3
S31508006A30002897D195E70EB1584605E09AF8020066
S31508006A4076280CBF012000200FB0BDE8F08F38B5BE
S31508006A50DFF8F4546A7B044605F1200104F11000BE
S31508006A60FDF7B7FE207800F0F9002070697B40EA50
S31508006A704100207031BD70B588B005460E4600A8A5
S31508006A80FFF7E5FF9DF80000DFF8BC44217B00F026
S31508006A908F008DF80000334600AA04F1180000F0B4
S31508006AA033F89DF8000040F001008DF80000082238
S31508006AB004F1B0010DF10100FDF78BFE00208DF801
S31508006AC00900ADF80A00002DA07A8DF80C00607A4E
S31508006AD08DF80D0014BF2120207A8DF80E00E07A7B
S31508006AE08DF80F0000A80DF098F808B070BD0022C8
S31508006AF0022808BF0122032808BF02228A4201D1C0
S31508006B0001207047002070472DE9F84314460546D2
S31508006B10207888469946C0F3021600270BE0785D70
S31508006B2040B14946FFF7E3FF20B1F2B2785D11198B
S31508006B30561CC8747F1C4745F1DB207800F08F008F
S31508006B40207040EA06102070BDE8F183F8B51C46AF
S31508006B500025002306E0FF281CBF5E5CB04205D076
S31508006B605B1CDBB29342F6DB0020F2BD099E0722CE
S31508006B70FF213046FDF770FE0699079A089800230C
S31508006B800EE01F5D1CF802E0774502D1EDB2AF5565
S31508006B906D1C0CF1010C5FFA8CFC8445F1D35B1C6F
S31508006BA08B42B8BF4FF0000CF5DBE8B2F2BDFEB57C
S31508006BB0099C082C01DB7020FEBD0A9E089D0296E2
S31508006BC0019400950BF0F7F805000DD1DE4F8022F1
S31508006BD0FF2107F12400FDF73FFEBC73224631462C
S31508006BE007F11000FDF7F5FD2846FEBD10B50BF0C0
S31508006BF041F9040004D18022FF21D948FDF72CFE73
S31508006C00204610BD00210AF003BE10B504462078C0
S31508006C10B8B901202072A078262805D10020607016
S31508006C20D048007860720AE016280AD104F10A00F2
S31508006C300BF007FB10B1002137202172607001208C
S31508006C40207010BD0178002908BFFFF727BC7047E0
S31508006C50017899B941780939C9B210290ED2C24AC0
S31508006C6052F82110C14A1278562A07BF0978C1700E
S31508006C70C2780A700021817001210170704710B531
S31508006C800446207800BB6078B94A312808BF104608
S31508006C9002D0322818D1B748B0B1B4490978522978
S31508006CA008D0A188904209D1B34A12788A4205D2FF
S31508006CB0362006E00078A080002002E0C9B20EF077
S31508006CC0FFFCA0700120207010BD70B5044686B088
S31508006CD00D463826112010F0B1FB802815D1204624
S31508006CE005F00EF9064612231C2200A901200DF014
S31508006CF032FABDF8060028819DF80200A8729DF8B0
S31508006D000300E872BDF80400E881304606B070BD9D
S31508006D1080B510F036FF0CF0F8FFBDE8014010F022
S31508006D20BBBF38B504460D46092200212846FDF7A3
S31508006D3093FD218828460DF0D0F9A11CA81CBDE8B2
S31508006D4038400722FDF745BD38B504460D461A22D8
S31508006D5000212846FDF780FD207828700F22611C47
S31508006D60681CFDF736FD2078C0F3410204F11001D6
S31508006D7005F11000FDF72DFD2078C0F3021204F18D
S31508006D80130105F11300BDE83840FDF722BD2DE9D2
S31508006D90F0438FB00646DB208DF808000F46904674
S31508006DA09946082231460DF10900FDF712FD8DF8C6
S31508006DB011700DF112014046FFF7B3FF0DF11B01EB
S31508006DC04846FFF7C1FF169D179C8DF835508DF87C
S31508006DD036402F2102A811F067FA019400954B4618
S31508006DE0424639463046FFF7EBFB0FB0BDE8F08365
S31508006DF02DE9F14F92B0DC208DF8140005AE9DF810
S31508006E00480070700DF115058A469046994685F832
S31508006E1001A041460DF117000DF05FF90822494619
S31508006E200DF11900FDF7D5FC1C9C2C730DF1220100
S31508006E301D9F3846FFF775FFDDF878B00DF12B0179
S31508006E405846FFF781FF1F9D86F831503321209E53
S31508006E508DF8466005A811F027FA04960395CDF833
S31508006E6008B0019700944B469DF8480042465146A3
S31508006E70FFF7DEFC13B0BDE8F08F2DE9F04790B0C0
S31508006E808146E1208DF80C000DF10D040E46924660
S31508006E9098468DF80D906670082251460DF10F0040
S31508006EA0FDF797FC84F80A8006A9189D2846FFF77F
S31508006EB038FF199F0DF121013846FFF745FF1A9C47
S31508006EC08DF83B40302103A811F0EEF902940197A2
S31508006ED000954346524631464846FFF727FD10B00F
S31508006EE0BDE8F087F0B58DB004460D4616461F4638
S31508006EF02F22FF2100A8FDF7AFFCDE208DF8000049
S31508006F008DF801409CB9082229460DF10200FDF7CB
S31508006F1060FC8DF80A600DF10B013846FFF701FF9A
S31508006F20129805A9FFF710FF13988DF82E002F2148
S31508006F3000A811F0B9F924B9082229460848FDF72E
S31508006F4048FC0DB0F0BD0000C4F800205CF300203A
S31508006F5038FA00207CF9002044FA0020A0F300202B
S31508006F60E8F80020A1F3002060F30020AEFF00201F
S31508006F7018F2002020F200206B7B020880B5DA2187
S31508006F8060E010B59EB01C468DF801008DF8021021
S31508006F90D5238DF8003011460DF103000DF09DF84C
S31508006FA08DF805400DF10700209C21998DF80640C3
S31508006FB02246FDF70EFCE11D1FE010B59EB0D62453
S31508006FC08DF802108DF801008DF800408DF8032029
S31508006FD08DF804300DF1050020990DF07EF8219802
S31508006FE0229C23998DF807008DF8084022460DF15A
S31508006FF00900FDF7EEFB04F10901C9B200A811F07A
S3150800700053F91EB010BD10B51C46E0238AB00028FF
S3150800701018BFC1288DF800308DF801008DF80210D0
S3150800702008D10DF103011046FFF77BFE03A92046A0
S31508007030FFF78AFE262100A811F036F90AB010BD1E
S3150800704080B5E3218DF800108DF80100022100A813
S3150800705011F02AF901BD80B5E421F3E72DE9F84FCF
S315080070608046DFF8180B07780D460A9991469B4625
S3150800707019B10B980EF0CFFD02E000200EF0AAFD24
S3150800708082460C9EBAF1FF0F03D1002018243070F7
S3150800709032E0342F06D0362F0ED0382F13D0962F45
S315080070A018D01AE053464A462946404601F04EFF94
S315080070B0044602F060FB10E053464246494628461D
S315080070C001F0A3FF08E05346EAB24146484601F0FC
S315080070D0F0FF01E011F018FB0446962F1CBF99F843
S315080070E00A003070E4B224B9DFF8940A00680AF896
S315080070F000B050460EF00CFD2046BDE8F28F10B5E4
S3150800710084B0089C0294079C0194069C009407E0AE
S3150800711010B584B00446104600F00FF80A4621461A
S31508007120FFF79CFF04B010BD10B5044684B00846AE
S31508007130114600F002F82246F2E7089A0292079AE8
S315080071400192069A00927047E0B5019100220090DC
S315080071501146029200230846FFF780FF0EBD2DE96F
S31508007160F04683B089460C99054692461E4619B1E3
S315080071700D980EF050FD02E000200EF02BFD04469F
S315080071800E9FFF2C03D100201825387014E00A98AA
S3150800719000900194334652464946284601F057FF67
S315080071A00500B07A387004D1DFF8D4190B9809684D
S315080071B0605420460EF0ACFC2846BDE8FE8638B57D
S315080071C0DFF8C0492080C888440606D5DFF8B849E4
S315080071D02478202C03D1000401D4702032BDDFF8B6
S315080071E0AC49216022B1114618460EF014FD02E0A2
S315080071F000200EF0EFFC0546FF2D08BF18240AD024
S3150800720020684088294602F045F9044602F0B3FA98
S3150800721028460EF07DFC204632BD2DE9F041069F3A
S315080072200D46044616469846394607F08AFF204614
S3150800723007F095FF07990880384608F09EF80899E0
S3150800724008702946204607F011FF070007D1314686
S31508007250204607F04AFF4146284608F0ABF838466C
S31508007260BDE8F081DFF828291278904201D3702012
S315080072707047DFF82029126832F820300B8002EBBD
S3150800728080008078887000207047DFF8042912781B
S31508007290904201D370207047DFF8F82812680B88EF
S315080072A022F8203002EB8000897881700020704730
S315080072B030B589B00C4604F023FE054612231C227D
S315080072C004A901200CF047FF002020730FF0ECFA08
S315080072D09DF8101088420BD1BDF8160020819DF844
S315080072E01200A0729DF81300E072BDF8140019E0B0
S315080072F01023072200A901200CF02DFF082202A95D
S315080073002046FDF766FABDF80000208104F1140155
S315080073109DF80200A0729DF80300E07204F11000C7
S3150800732011F037FBE08109B0284630BD38B5044670
S315080073300D4606F0A7FA014608222046FDF749FA47
S3150800734006F09CFA2880DFF85008007832BDF8B5B8
S3150800735004460D4616461F4611F07FFE28803A461B
S3150800736031462046BDE8F84011F087BEFF2203F0FB
S31508007370CEBD10B504462078002842D101202072DF
S315080073802070A078142804D10020607012F0B9F992
S3150800739033E001280BD0022808D0082818BF0D288A
S315080073A005D0122818BF132801D002E02072002148
S315080073B0617001280AD0022812D008280AD00D28A0
S315080073C00BD0122815D0132815D018E0DFF8CC07F3
S315080073D0007812E003F023FB0FE005F03AFC0CE01E
S315080073E0DFF8BC07018804F10900BDE810400CF07D
S315080073F074BEFF2001E003F084FD607210BD00201A
S31508007400207010BD10B5044682B0207858BB012004
S31508007410207000206070A07818B1022819D00BD30C
S315080074201FE0616800AAC9B20FF05AFD6070022019
S31508007430207204F1090007E00320207200A812F068
S3150800744030FB607204F10A00BDF800100CF045FE2E
S3150800745013BD01202072606880B212F076FD60725A
S3150800746013BD0020207013BDF0B5044685B0207802
S31508007470002840F0D88001202070A078010022D092
S31508007480012844D0022849D0052818BF06284DD01F
S31508007490082800F0BB80092856D00A2879D00B287E
S315080074A07CD00C2800F086800F2800F087802328DF
S315080074B018BF242800F08F80252800F09D802928F1
S315080074C000F0A680ADE0207A102860D100F0ADF873
S315080074D0ADF80400082294F90B008DF8060004F1B3
S315080074E01001207B8DF80700607B8DF80800A07BD3
S315080074F08DF80900E07BADF80A0003A8FDF769F9E5
S315080075001023072201A900200CF025FE86E0207A28
S3150800751001283CD1607ADFF884167EE0207A0228BA
S3150800752035D100F082F8DFF878160BE0207A0228C9
S315080075302DD100F07AF8A17805290CBFDFF864167A
S31508007540DFF86416088069E0DFF860060568207AC7
S3150800755046080DB9DEB961E0DFF854060078B04296
S3150800756015D3002707E004EB470009300CF0AEFD01
S3150800757025F817007F1CB742F5DB4FF4004725F8BE
S315080075801670284612F053FD002848D02F80362062
S3150800759045E000F04AF808F07AFA3FE0DFF814060A
S315080075A00068407B20B900F040F808F051F935E052
S315080075B0382034E0607ADFF800162EE0657A04F1A8
S315080075C00A000CF083FDADF8000000AA2946012048
S315080075D00FF086FC23E0217A042912D123280CBF58
S315080075E00325012504F1090101200CF088FD014657
S315080075F0284612F0BAFE12E0607A032818BF04285B
S3150800760001D002200BE004F046FB07E0372006E035
S31508007610607A00B10120DFF8A415087000206070B8
S3150800762001E00020207005B0F0BD04F109000CF05F
S315080076304DBDDFF848150978027856290CBF012197
S315080076400021AAB98270DFF840354278032A05D1AD
S3150800765009B1597806E0C178597007E0022A07D1BE
S3150800766011B11978C17001E0C17819700121017052
S315080076707047017801B1704730B5817001210170FA
S315080076804178052906D0122913D018290AD01F29AE
S3150800769012D015E0DFF82815DFF8282509781278C2
S315080076A0891A21E0DFF820150A78511E8941C90F89
S315080076B01AE0DFF8181501E0DFF81415098813E059
S315080076C000220FF23C5300E0521CD2B21446E55C8D
S315080076D0FF2D02D10021017030BD8D42F4D10FF289
S315080076E03C5151F824100978818030BD70B50446A4
S315080076F02078002870D1012020700020A0706278C0
S31508007700052A08D0122A2BD0182A1DD0192A02D0E9
S315080077101F2A20D02DE0DFF8AC040578DFF8A00496
S3150800772001784E1BA188052A0CBF0E460D46A919DD
S31508007730C9B20DF0C5FF0028A0704DD1E9B2F0B26C
S31508007740BDE8704013F028B8A188481E8041C00FD4
S31508007750DFF874143DE0A088DFF87414088070BD63
S31508007760A18847F2315081421DDADFF860040180B2
S3150800777070BD0FF28C4100E0401CC0B203465D5C50
S31508007780FF2D02D10020207070BD9542F4D1042B44
S3150800779007DADFF8400450F82300A1880078884209
S315080077A001D32B2A02D13620A07070BD0FF26C408F
S315080077B0A18850F823000B2B0DDAC9B20DF080FF13
S315080077C0A070002804BF6078112805D1A088DFF8CA
S315080077D00814087070BD017070BDF8B504460D46F2
S315080077E01146184618260EF016FA0746FF2F08D037
S315080077F03A462946204613F0CDF9064638460EF095
S3150800780087F93046F2BD38B504460D462188284624
S315080078100CF063FC6188A81C0CF05FFC20792871C9
S3150800782060796871A81DE1880CF057FC218905F17B
S3150800783008000CF052FCA07AA87231BD10B586B0CB
S3150800784004461B208DF80000A0788DF801000DF184
S31508007850020021880CF041FC0822211D01A8FCF732
S31508007860B8FF00A8E1780173217B4173607B8DF82E
S315080078700E000DF10F0000F0B9F9112100F01AF908
S3150800788006B010BD80B58DF801008DF802101C22D7
S315080078908DF80020D4E02DE9F04F87B005460E4656
S315080078A0144613F06EFA80462246314628460FF0F3
S315080078B0A3FA002865D10DF1090013F06AFA30B968
S315080078C062208DF80800092102A810F0EDFCFF2CB3
S315080078D00FBF4FF0000BC149096814F801B04520E5
S315080078E08DF8080002AF0DF10A017D703046FFF7EA
S315080078F08AFF0DF1150000F079F941460DF11700E0
S315080079000CF0EBFB01F0EBFD8DF819000025B448EF
S31508007910DFF8B0920668DFF8A8A201E06D1C0C3605
S315080079209AF8000099F80010EDB2401A85420BDA71
S3150800793030884045F2D10EF0E1FFB17AC1F3420139
S315080079408142EBD1BD7401E0FF20B8748DF81BB0FD
S31508007950404612F0FAFA8DF8040000B101200090B2
S3150800796001AB2246142102A810F0A6FC00281EBF6F
S3150800797085480078212804D19A48017841F0040105
S31508007980017007B0BDE8F08F2DE9F043074693482C
S31508007990006887B01D460E9C2E5C88469146214697
S315080079A0384601F02FF93F208DF804008DF8057050
S315080079B041460DF106000CF090FB02A94846FFF778
S315080079C022FF6F480068285C8DF813008DF8144074
S315080079D085480078402804BF0026FF25002000902F
S315080079E08DF8156000232A46122101A810F064FCC0
S315080079F007B0BDE8F0831FB5044623208DF80000C4
S31508007A008DF801408DF80210204611F026FB01463C
S31508007A100DF103000CF061FB0DF10D020DF10501EE
S31508007A20204611F02AFB0E2100F044F81FBD80B550
S31508007A307C218DF8001001460DF101000CF04DFB7C
S31508007A40032100A810F030FC01BD70B586B00446CD
S31508007A507D208DF800000D46164621460DF10100E1
S31508007A600CF03BFB082229460DF10300FCF7B1FE9A
S31508007A708DF80B600C2100F01DF803A813F089F9A6
S31508007A8018B903A9204612F08DFE06B070BD38B5A8
S31508007A9004460D4601F09BF880208DF800008DF80D
S31508007AA0014029460DF102000CF017FB042100F0F5
S31508007AB001F831BD00A810F0F7BB10B584B0044634
S31508007AC046208DF8040001A82178417061788170FC
S31508007AD00DF1070000F08AF84048A1780068085CB4
S31508007AE08DF809000023002000900621A27801A83D
S31508007AF010F0E2FB1FBD80B598208DF800008DF8C8
S31508007B00011000A802219DE71FB50C4692218DF8A9
S31508007B100410082201460DF10500FCF75AFE0DF186
S31508007B200D0000F063F82D480068205C8DF80F0002
S31508007B3000230020009022460C21D8E700B5274AEA
S31508007B40126883B0825C8DF8051093238DF80620A1
S31508007B5000218DF80430009102460023032101A874
S31508007B6010F0AAFB07BD80B507F074FABDE801401E
S31508007B7005F06EBF1149002008707047AEFF00205F
S31508007B8054FD00208AFD002017F300208CFD0020FC
S31508007B90F4F10020F0F100207CFF0020DCFF00203B
S31508007BA00AF40020FCF20020FEF200207CFD0020F2
S31508007BB050FD002054FC002070FF0020E0FF00204C
S31508007BC03CF20020E8FF0020C0F100205CF2002013
S31508007BD04CF200201CF3002059F20020B0F10020DE
S31508007BE040F2002088FD0020F0F2002010B504467F
S31508007BF013F0C0F8601CBDE8104013F0BDB80000D3
S31508007C001102090A030607081A2B2C1910131B144C
S31508007C10151C1D2021222A2E333435FFC8F10020D9
S31508007C2004F200209AFF002099FF002044F2002069
S31508007C30F4F10020E0F10020ECF1002098FF00208C
S31508007C4016F3002050FD0020E8FF00205AF200201D
S31508007C505FF2002060F200205EF20020A2FF002002
S31508007C604EF200209CFF002091F3002061F20020D4
S31508007C7062F20020A0FF0020A4FF002028F40020C4
S31508007C8010F20020DCFD002038B504461046002915
S31508007C9001461A46204602D013F0DDF801E013F03B
S31508007CA0ABF80546002C1EBF04980028A04203D056
S31508007CB02146142213F03CF9284632BD8E4B1B7818
S31508007CC002467020002B1CBF104608F03FBD7047C7
S31508007CD01CB504462078F8B902202072A0780A2834
S31508007CE00AD0102810D101A813F079F96070BDF8F0
S31508007CF00400ADF8000004E00020607000A807F05A
S31508007D00DFFE0120207001E0207828B1BDF80010C0
S31508007D1004F109000CF0E1F913BD38B504462078E2
S31508007D20002804BFA078102812D104F10901012007
S31508007D300CF0E5F9054604F10D000CF0C7F9ADF8AD
S31508007D40000000A9284613F01FF960700120207072
S31508007D5031BD6A490978027856290CBF01210021EC
S31508007D6022BB827001220270427832B9644A09B194
S31508007D70117811E0C07810707047052A05D1614A5C
S31508007D8061B1117841F0500106E0062A0CD15E4A2D
S31508007D9021B1117841F06001C1707047C17801F0D6
S31508007DA00F01C1701170704700210170704710B53E
S31508007DB004462078B8B900F045F806D01E2807D042
S31508007DC0242807D0362808D00BE005F05FFD06E02A
S31508007DD04E4800E04E48007801E04E480088A080F2
S31508007DE010BD0020207010BD10B50446207840BB99
S31508007DF000F028F806D01E280AD0242812D03628E3
S31508007E0019D01CE0A088BDE81040C0B205F042BDFC
S31508007E104148A188007888420AD3C9B23B480DF088
S31508007E204FFC06E0A1880B2902DA3948017010BD1B
S31508007E303620A07010BDA0883649088010BD0020E5
S31508007E40207010BD012020700020A07060780D28D9
S31508007E5070472DE9FF411546012D074688461C4601
S31508007E6007D101210020022650EA01020AD1032681
S31508007E701AE0052DF5D00021032D18BF072DF1D1E5
S31508007E800120F0E71E4A12783AB1012A08D0022AE0
S31508007E9005D0042A08BF0E4604E0012604E058B1BE
S31508007EA0002601E0022E07D007F0CEFC844203D05C
S31508007EB02146384612F035F824208DF80000394658
S31508007EC00DF101000CF009F9082241460DF10300F5
S31508007ED0FCF77FFC8DF80B508DF80C6021460DF1F0
S31508007EE00D000CF0FAF80F2100A810F0DDF9304665
S31508007EF004B0BDE8F0810000E0FF0020AEFF0020DE
S31508007F0013F300209EFF002054F200209DFF00205E
S31508007F10A3FF002056F20020697B020880B56E2177
S31508007F208DF800108DF80100022100A810F0BCF9A8
S31508007F3001BD10B584B00C469B218DF800100822AF
S31508007F4001460DF10100FCF744FC8DF809400A21B1
S31508007F5000A810F0A9F91FBD30B58BB004460D4630
S31508007F602A22FF2100A8FCF777FC214628460DF0B7
S31508007F7052FE0446FF2C08BF182505D013F070F8EA
S31508007F80054620460DF0C4FD28460BB030BD10B599
S31508007F904E4C2178FF29A8B008BF702020D00020B9
S31508007FA000904A2300220AA80DF051FE00200090F6
S31508007FB0252321784A221DA80DF049FE00200090AD
S31508007FC0242321786F2201A80DF041FE20780DF0B8
S31508007FD09FFDFF20207001AA0AA91DA808F092FD9E
S31508007FE028B010BDF8B5394F04463878FF280D4635
S31508007FF0164608D1932100200DF00DFEFF28387093
S3150800800001D13520F2BD01200090334639782A4641
S3150800801020460DF01CFE0020F2BD10B50446A6B0A1
S31508008020207860BB01202070A0781A2804D024D3B9
S315080080301C2815D00AD320E04A2204F1090113A806
S31508008040FCF7C7FB4A22002113A812E0252204F1F7
S31508008050090109A8FCF7BDFB25224A2109A808E061
S31508008060242204F1090100A8FCF7B3FB24226F219E
S3150800807000A8FFF7B7FF607001E00020207026B067
S3150800808010BD0178002904BF417829290CD110496F
S315080080900978522904D10F4909788180002100E026
S315080080A03821817001210170704710B5074C20787E
S315080080B0FF281FBF06490978AB29ED2903D00DF023
S315080080C027FDFF20207010BD0000000015F30020DA
S315080080D0AEFF00209FFF002011B1012903D004E064
S315080080E0114608F086BE08F0CFBE0220704710B5CC
S315080080F004462078002804BF607808280ED1144862
S315080081000078562803D109F097FAE07002E0E07883
S3150800811009F095FA0020A0700120207010BD0178A2
S31508008120A1B941782F2908BF0A4902D030290DD1B3
S31508008130094959B1064A1278522A07BF0978818037
S3150800814082880A7000218170012101707047000041
S31508008150AEFF002064F2002065F2002030B58FB033
S3150800816005460C463B22002100A8FCF775FBB62005
S315080081708DF800000DF10101284600F077F800A8F7
S31508008180DCB1002180F82910082221460DF12A00C9
S31508008190FCF71FFB0DF12905207A68720DF13300F3
S315080081A061890BF09AFFA1890DF135000BF095FF57
S315080081B0A07BA873E07BE87302E0012180F8291010
S315080081C00DF13900FFF712FD3B2100F00CF80FB056
S315080081D030BD80B5B7218DF800108DF80100022159
S315080081E000F001F801BD00A810F05EB810B586B021
S315080081F00446B8208DF800000DF1010021880BF027
S315080082006CFF61880DF103000BF067FFA1880DF183
S3150800821005000BF062FFE1880DF107000BF05DFF2A
S3150800822021890DF109000BF058FF61890DF10B004A
S315080082300BF053FFA1890DF10D000BF04EFF0DF168
S315080082400F00FFF7D3FC1121FFF7CDFF06B010BDD5
S3150800825000B58BB0BB218DF800100DF1010100F0BF
S3150800826005F82921FFF7BFFF0BB000BDF8B5044696
S315080082700D46A0782870681C21880BF02EFF08226E
S31508008280211DE81CFCF7A5FAE078E87204F110074E
S31508008290207B287305F10E06607B687331463A68C1
S315080082A001200BF01EFF7A68311D01200BF019FF23
S315080082B0398906F108000BF010FF082204F11C01A9
S315080082C005F11800FCF785FAA18C05F120000BF0E2
S315080082D004FFE18C05F122000BF0FFFE94F828005C
S315080082E085F8240094F8290085F8250094F82A00D2
S315080082F085F8260094F82B0085F82700F1BD0000C4
S31508008300F8B5B84D0446286880782B38022801D974
S315080083100D382ED1FCF72CF806462868B249C01C41
S3150800832008600021312010F07CF805464FF6FF77EB
S315080083300BE005F10D0080B20FF0ABFFB04213D091
S315080083402946312010F06DF80546BD42F1D10021CD
S3150800835000E02946322010F064F80546BD4208D0F0
S315080083600FF097FFB042F4D1A420FCF71AF80020CA
S315080083702070F1BD38B50446002100E029463F20AB
S3150800838010F04FF805464FF6FF7085420CD0284688
S315080083900FF07FFF0228F1D1681C80B20FF079FF39
S315080083A0A042EBD1012032BD002032BD2DE9F843B1
S315080083B080464FF000090021452010F032F80446A7
S315080083C08A4D4FF6FF7609E0FF21B8B20FF066FF37
S315080083D0A146A1B2452010F024F80446B44223D0A1
S315080083E004F11007B8B20FF054FF4045F0D120460B
S315080083F00FF04FFF022818BF0328E5D1241FA0B2AB
S315080084000FF047FF01462888401A32182A8092B290
S3150800841077480092091900784B1C9BB20246A1B214
S315080084200DF000FE4C46D3E7BDE8F183F0B5714F79
S315080084303D788BB006466C240EF060FA0EF038FADA
S315080084406D480078112806D0122830D171887078C6
S315080084500EF089FD58B3707804A90EF023FD88B193
S31508008460BDF8100040F20911884204BF7088B0F5C3
S31508008470006F07D1701D12F0FEFDB52802D0B0B905
S31508008480002414E00124002500E06D1C3878EDB2C4
S3150800849085420CD206A9284600F08FF99DF81800E7
S315080084A00028F2D13146284600F092F904463120D8
S315080084B08DF8000000AF307878707078B8700DF1DC
S315080084C0030071880BF009FE307978710822711D56
S315080084D00DF10600FCF77DF98DF80E508DF80F406A
S315080084E0102100A80FF0E0FE20460BB0F0BD38B50D
S315080084F004466C250EF002FA0EF0DAF93E480078CA
S3150800850011280DD12046FFF735FF08B1752507E07C
S31508008510204600F0A7F9050004BF2046FFF746FFEE
S3150800852032208DF800008DF801408DF802500321A5
S3150800853000A80FF0B9FE284632BD38B504460D46E8
S31508008540FFF718FF08B1752510E03DB10EF0ACF93C
S3150800855068732946204600F03BF902E0204600F001
S3150800856081F9050004BF2046FFF720FF284632BDE3
S31508008570E3E70021E1E721490978027856290CBF8B
S3150800858001210021002A04BF4278012A0AD11A4A89
S31508008590002919BF1178C170C17811700021817046
S315080085A001210170704710B504462078002804BFE1
S315080085B06078042814D111490E480978522903D144
S315080085C00078A080002008E00D4AA18812788A4227
S315080085D032BF3620C9B20DF073F8A07001202070A2
S315080085E010BD00006CFC00203CF800207AFF00203B
S315080085F0EEF300209BFF002014F30020AEFF0020BE
S31508008600677B02081FB50C4602460D23152100A8F4
S315080086100FF00AF90D2200A92046FCF7DAF82078AF
S3150800862040096073207800F01F0020701FBD30B528
S3150800863085B004460D460D2200A8FCF7CAF89DF839
S315080086400000697B40EA41108DF800000D2300AA5E
S31508008650214615200FF00FF905B030BD2DE9FF4171
S3150800866004460025DFF88064DFF8807413E030687C
S31508008670A84630F81800A0420CD100A9284600F0F8
S315080086809CF89DF80000022804D031684FF6FD706A
S3150800869021F818006D1CEDB238788542E7D3BDE89D
S315080086A0FF812DE9F04588464FF6FF7AD04585B01B
S315080086B0044605D100F0D0F910B907F0C5F833E043
S315080086C0DFF82464DFF8247400250CE0D04508D0D0
S315080086D0306830F81510414504BF4FF6FD7120F893
S315080086E01510681CC5B2387885421CDA306830F82F
S315080086F0150000F00FF9F4DA00A92846FFF782FF03
S31508008700082221460DF10500FCF7ADF80028DDD159
S315080087103068D04502D130F8150005E020F81580FC
S3150800872012F0E6FCDDE7504605B0BDE8F0852DE918
S31508008730FF47804689460026DFF8B473DFF8A8436A
S31508008740DFF8A85315E02068B24630F81A0000F0A2
S31508008750E1F80DDA00A93046FFF754FF0822414632
S315080087600DF10500FCF77FF810B938680AF8009093
S31508008770761CF6B228788642E5D3BDE8FF87DFF88F
S315080087806813096831F8100070471FB50C46DFF802
S315080087905C13097888420FD2D349096831F810105A
S315080087A04FF6FE72914207DA00A900F006F8214654
S315080087B00DF10500FFF775FF1FBD80B5CB4A12788E
S315080087C0904201D3692002BDFFF71CFF002002BDBD
S315080087D070B504460D4623460022B3A1032013F0C4
S315080087E0F3F8287818B92046BDE870403AE0BF4843
S315080087F00078844201D3692070BD204613F094F8AE
S3150800880008B1752070BD0EF02DF86873681D06F066
S31508008810B4FD06464FF6FF71681DFFF742FF024694
S3150800882029783346204600F006F829462046FFF701
S31508008830FEFE002070BD10B54FF6FF7409B922463A
S3150800884008E0032908BF4FF6FE7203D0A24208BF0C
S315080088504FF6FD72A449096821F81020A449096851
S31508008860435410BD30B505462C4685B02346012233
S315080088708DA1032013F0A8F89C480078854228BFEC
S3150800888069201AD2284613F04FF808B1752014E06B
S3150800889000A92846FFF7B6FE9DF8000030B1002073
S315080088A08DF8000000A92846FFF7C1FE8E49096821
S315080088B04FF6FF7021F81400002005B030BDF0B562
S315080088C085B007460C46884D884E00E07F1C3078F8
S315080088D0FFB287421BD2286830F8170000F01AF852
S315080088E0F4D100A93846FFF78DFE9DF80500E1B2E0
S315080088F0884204BF9DF80600B0EB142FE6D10DF0B0
S31508008900B1FF9DF80D108142E0D1384600E0FF2006
S3150800891005B0F0BD4FF6FE71884270472DE9F14F5C
S3150800892084B00D460E9C704FDFF8C0A1904699465C
S31508008930002607E03868BDF8101030F81B0088429A
S315080089402BD0761C9AF80000F6B2864227D23868F1
S31508008950B34630F81B00FFF7DDFFF2DA00A9304610
S31508008960FFF750FEB8F1000F07D19DF80100484502
S3150800897004BF9DF80400A042E3D10DF073FF9DF8F3
S315080089800D108142DDD1002DD4D008220DF105014C
S315080089902846FBF768FF0028D3D1304600E0FF20C1
S315080089A005B0BDE8F08F10B51446FFF72BFE20463C
S315080089B0BDE8104008224F49FBF70BBF2DE9FF47DA
S315080089C00446084615461E4600F046F808B100203B
S315080089D03FE00027DFF81081DFF8109100E07F1CE8
S315080089E099F80000FFB2874222D2D8F80000BA46AA
S315080089F030F81A004FF6FF718842F0D000A93846C1
S31508008A00FFF700FE0C220DF10101601CFBF72BFF9E
S31508008A100028E4D1BAF1FF0F0CD1002030700DF018
S31508008A2041FF307845B178B92046FFF7FFFC07E0EB
S31508008A30FF27F2E70120F1E738B13846FFF757FD7F
S31508008A40401E8041C00F00E0012030700DF0E7FEA7
S31508008A50012004B0BDE8F08708222649FBF703BFCA
S31508008A6030B585B00024214D17E000A92046FFF750
S31508008A70C9FD9DF80000042806DB00208DF80000DB
S31508008A8000A92046FFF7D3FD9DF8001000234FF6F6
S31508008A90FF722046FFF7CFFE641C2878E4B28442B2
S31508008AA0E3D305B030BD00004242000030B585B0C2
S31508008AB002220CA1032012F087FF00208DF8000087
S31508008AC000240A4D04E000A92046FFF7B0FD641C07
S31508008AD02878E4B28442F6D3FFF7C2FF002005B037
S31508008AE030BD00004200000030F200209BFF00204D
S31508008AF034F2002070FC002030B583B00446FBF742
S31508008B0037FC0546202D1ADA5CB100A90820FBF7C8
S31508008B1036FC082300AA294621200EF0ACFE0020C8
S31508008B200EE008232A46212100A80EF07DFE00202B
S31508008B30FBF737FC00A90820FBF75EFC37BD702061
S31508008B40FBF72FFC37BD704770B54D4D6E8A04464E
S31508008B5005F1080012F06AFF012C08BFAE8A02D0A0
S31508008B60022C08BF022618B1FA217143884206D39F
S31508008B70310205F10800BDE8704012F04ABF70BD29
S31508008B807CB53F4C3F4E0020E07020714FF6FD75D6
S31508008B90607988B14FF6FC700190002300200090A0
S31508008BA002460146308803F089FE35800020607150
S31508008BB00120BDE87640C7E7A178208A05F022F9AA
S31508008BC03088A842F4D0012060710220F1E710B580
S31508008BD0A92818BFAA2814D12948C2780378521C94
S31508008BE0C270D2B29A420CD3264A13884FF6FD7445
S31508008BF0A34202D11180002141710020BDE8104036
S31508008C00A2E710BD00281CBF012802280CD166293E
S31508008C100AD11B480179491C0171C9B240788142C1
S31508008C2024BF0020FFF790BF704710B5144C21826F
S31508008C309200029921709B0003996282A382617057
S31508008C409BB20499A17092B2934208D3218A4FF637
S31508008C50F87291421CBF4FF6F972914201D070200A
S31508008C6010BD002161714FF6FD71064A118018B1D9
S31508008C700120FFF769FF00E02072002010BD000008
S31508008C80B0F9002072F300202DE9F84F8AB0884623
S31508008C901646ADF804804FF00009F5880446CA4622
S31508008CA0002704F0BCFE159860B9E8060AD59DF8B9
S31508008CB050009DF82830009032464146204612F072
S31508008CC0D1F910E1680548BF4FF4805A280548BF16
S31508008CD04AF4006AA80548BF4AF0800A03D4E805A2
S31508008CE048BF4AF0400A9DF8500002900A2CC34635
S31508008CF068D8DFE804F007301B3F67673F06073F81
S31508008D00190002279DF82800BDF8042000904B465C
S31508008D109DF850004AF4027110F048FC8246BAF1F8
S31508008D20FF0F51D11820DEE00327EBE705A95FFA0C
S31508008D3088F0FFF742FD08220DF1190103A8FBF799
S31508008D4048FDDFF8C808006830F81B000DF10C096B
S31508008D50ADF80400D6E703A95FFA88F006F0F1F942
S31508008D60DFF8AC0800680C2101FB0B000DF10C09BB
S31508008D700088EDE74FF6F870834523DBF0884FF45B
S31508008D80026108421ED100F03AF918BF91201AD1A3
S31508008D900298FF280FD000F076FB032C0CBF0121A8
S31508008DA00021401ADFF86C18029A0968515C88425B
S31508008DB0B8BF742007DB032C0CBF0C2708272AF43E
S31508008DC0C07A9FE701208EE0DFF84C0800884FF64E
S31508008DD0FF71884214D0504612F03FFF8346DFF8F1
S31508008DE0380801880BF104000BF077F9DFF82C0836
S31508008DF0DFF8241800788BF807004FF6FF70088014
S31508008E0032463946504610F0ABFD08B9182666E0DA
S31508008E10DFF80C080068C07E70B1A8060CD5E80714
S31508008E204CBF2020002040F001034A46002150464E
S31508008E3011F02BFC060052D10298FF2816D0504696
S31508008E4012F001FFDFF8D8170968C97E01B11221AF
S31508008E50DFF8C027029B12689B5C1AF80220D2181A
S31508008E60743089188842B8BF742638DBA80407D539
S31508008E70504612F0FCFE40F48061504612F0F9FEAE
S31508008E80082C12BF092C504612F000FF159848B15D
S31508008E90BDF80410504612F012FF159880F800A08D
S31508008EA0002020E0E01E05D0C01E012884BFC01E99
S31508008EB0012807D8504604F029FE00280CBFA12631
S31508008EC000260CE0A80444BF4FF6BF7005402B46A9
S31508008ED05FFA88F22146504612F01BF906465046BC
S31508008EE00CF016FE30460BB0BDE8F08FF0B587B033
S31508008EF00E4604460C99174618460CF08CFE054695
S31508008F00FF2D21D0FF208DF810008DF81100ADF847
S31508008F100E704CF20E00ADF80C00ADF81260002091
S31508008F20ADF81400009502A80190FF2303AA214674
S31508008F300020FFF7A9FE044628460CF0E9FD002CA0
S31508008F400CBF9DF80800FF2007B0F0BD2DE9F043DF
S31508008F50164685B00446F08804900D4670790FF2DF
S31508008F60007103901F4630790290A84670880190D8
S31508008F70434630880090082200F098F800F03FF841
S31508008F8018BF912019D1FF2F09D000F07CFADFF81D
S31508008F9084160968795C884238BF74200DD37CB979
S31508008FA04FF6F870804528DA002001900097FF23D5
S31508008FB0324629462046FFF767FE05B0BDE8F0832E
S31508008FC0022C4FF6FE790CD1DFF858060078854258
S31508008FD013D2DFF83806006830F818004845E3DB96
S31508008FE00BE0012C09D1DFF840060078854204D24F
S31508008FF0E8B206F0B4F84845D6DB0120DDE7DFF82D
S3150800900020060068407B02287047F0B587B00D46F9
S315080090101646044605961F46E8880FF24C610490EA
S315080090202346687903900922287902906888019076
S315080090302888009000F03AF80020019000973346FF
S315080090402A4621460620FFF71FFE07B0F0BD2DE988
S31508009050F04188B01E460E9C07948046F08806901C
S315080090601746707905900D4630790FF2086104901D
S315080090704346708803900A2230880290019700952B
S3150800908000F014F8DFF89005A0F800802346DFF812
S315080090908C0507700020019032460F9800902946EB
S315080090A00620FFF7F1FD08B0BDE8F081032012F0B5
S315080090B08BBC70B588B000F013F8DFF8700500783F
S315080090C00096002814BF4FF6FF714FF6FD71002079
S315080090D001902B4622460320FFF7D6FD08B070BD47
S315080090E004460D46069205951E46E0880FF29051F5
S315080090F00490062260790390207902906088019096
S31508009100208800900320238912F05EBC10B5DFF892
S3150800911020050CF0CDFF0446FF2C0DD02146042077
S315080091200CF065FA18B10121204600F006F8204631
S31508009130BDE810400CF0ECBC10BD2DE9F04F89B02D
S3150800914082460D4612F089FD0646B01C0AF0BEFF9F
S315080091508346504610F0DCFA00F07EFA804608F0A6
S315080091600309504612F08DFD0DF029FBDFF8C47493
S31508009170301D0AF0ABFF3880DFF8BC4406F064FB0C
S31508009180834512D04FF6F87083450EDA7078C0071B
S315080091900BD458460FF09DFF002805D038880123C8
S315080091A05246594600F0B3F977E005A9504610F043
S315080091B040FB05A82060304610F0C9FADFF87C1499
S315080091C008600321504612F038FDDFF87414087061
S315080091D00421504612F031FDDFF86814087055B3C3
S315080091E09DF81A00800626D5DFF8346406F02CFBB5
S315080091F040B13068007D800704D4B9F1010F08BF7B
S31508009200102000D0002040F008030022002150461C
S3150800921011F03BFA78B108F00300012802BF306864
S31508009220407B11284CD100F07FFD002848D1AF20A3
S3150800923001F08DFB44E018F0030003D0022806D0A5
S315080092400AD32AE02946504600F03FF825E0514661
S31508009250404611F08CFF20E006F0F6FA3988814284
S315080092601BD0514605200CF0C2F9B0B121688879A7
S3150800927040060DD50C2202A8FBF7ABFA0020019098
S31508009280FF23FF20009002AA39880A20FFF7FCFC7A
S3150800929039882A46504606F05CFC06F0D5FA398825
S315080092A081420BD1504610F033FA00F0D5F90C2163
S315080092B0084203D10021504612F07AF900202060B6
S315080092C00DF0ADFA09B0BDE8F08F2DE9FE4F8146E5
S315080092D012F0C3FC0546484610F01AFA01464846FD
S315080092E00CF0ACFD8246687800F001000290A81CDC
S315080092F00AF0ECFE4FF6F8718842ACBF012700274A
S3150800930006F0A2FADFF82C83DFF82C63B8F8001011
S3150800931081423068B0F802B002980CBF01240024DC
S3150800932038438DF804009DF80400002814BF062071
S31508009330082000210DF03DFC30680188002904BF93
S315080093404079002814D100A9484603F03AFA336850
S315080093509DF80010421ED2B2032012F079FDB8F82B
S315080093600000BBF5004F19DB5A46494603F03DFAA3
S31508009370306800884CF20E0188423FD144F201075A
S31508009380BB4518BFBBF5804F35D1484610F045FAA6
S315080093900146BB450CBF0120002023E0AA4A022152
S315080093A011703B460022494603F098F830688079E8
S315080093B0400603D5FF21584600F06CF8BBF1130FA1
S315080093C0D6D03068C0884004D2D4A0499E480978CF
S315080093D00078CA0701D50228CAD0890745D50128C9
S315080093E0C6D042E0491EC9B200912B464A46012121
S315080093F001F094FE39E0484612F09AFD3068029969
S3150800940019B90AF00C010C290DD1008905F0E2FF03
S3150800941058B330680189002C14BF032502250020A3
S31508009420FFF74DFA12E00179009100224379B8F866
S3150800943000000021FFF772FA0AF00C01082904D18E
S31508009440002C0CBF0425052500E00025804908707E
S315080094509DF8040010B9BBF1380F01D1012200E0D4
S3150800946000222946484611F02DFCBDE8F78F10B5B5
S31508009470044600F008F8610548BF0838210548BFCA
S315080094800838C0B210BD66490968C97E642001B1B2
S315080094905220704770B5684E0C4686B0054631684E
S315080094A00C2202A8FBF795F9306801798DF80D10A2
S315080094B0FF2341798DF80C10ADF80A504FF6BF71AD
S315080094C0C08800940840ADF80E0002AA002001905A
S315080094D0584801880720FFF7D7FB06B070BD5D48DE
S315080094E0007808B9FF2070475948007870470A463F
S315080094F080B50C21084208D19079400605D55088D8
S31508009500FF21FFF7C7FF012002BD002002BD2DE99C
S31508009510F34F924683B01C46504610F0F9F800F017
S315080095209BF8834603201BEA000F6AD14248066867
S31508009530404807884FF0000800A9504610F079F90E
S315080095403D4900A808603B49BDF80C0008809DF815
