S00F00005A335377697463682E733337E6
S31508002000D0190020BD5302083526020839260208D1
S31508002010A70A090100210008040303AC00579B0125
S3150800202000000000000000000000000000000000A2
S315080020300000000000000000000000000000000092
S315080020400000000000000000FFFFFFFFFFFFFFFF8A
S31508002050FFFFFFFF00E0020800000000000000008C
S31508002060FFFFFFFFFFFFFFFFFFFFFFFFFFFFFFFF72
S31508002070FFFFFFFFFFFFFFFFFFFFFFFFFFFFFFFF62
S31508002080F02F002000000000EC2F0020EC2F00208D
S31508002090D0190020E0D50208D85602087010002092
S311080020A0380F0020000003080030002064
S31508002100D0190020BD5302083526020839260208D0
S31508002110412602083D26020845260208102902081B
S315080021201029020810290208102902081029020895
S31508002130492602081029020810290208B12C0008AD
S31508002140D921020810290208EB6C00081029020898
S3150800215011C60008AF6A00081029020810290208EB
S31508002160B95D0008713A0008393500089121000860
S3150800217010290208FB6B0008436C000810290208A6
S31508002180EDB10008102902081029020810290208D2
S3150800219070B52C4C2C4D60782968490726D503283C
S315080021A024DAA18804EB400291810121A27801FA80
S315080021B000F01043A070254A207890B1002320FA39
S315080021C003F6F60708D5994063704840207014EB6B
S315080021D04300808A106009E05B1CDBB2032BEEDB50
S315080021E004E0106000F0AAF8032060704FF6FF7054
S315080021F02860BFF35F8F70BD12480021017000226E
S31508002200032141700021C1700521018100218170DF
S31508002210001D0E490A604A604FF400428A60102287
S31508002220CA604861012088610320C8600421064805
S3150800223001644FF6FF7101604FF4006004490860BD
S3150800224000F0BAB8701D002010A8004004D0004065
S3150800225000E100E02D480068C00701D42C4870470B
S315080022602C48704780B5FFF7F5FF2B49096801B977
S31508002270400802BD80B5FFF7EDFF400802BD00F03B
S315080022800ABC2648012181604EF6BE214160012123
S31508002290016070472249012008607047A52805D1CA
S315080022A01E484DF6AD6141600221016070471B482A
S315080022B00068C00701D5012070470020704780B527
S315080022C01849194A1020086018491948007858B161
S315080022D003280CBF00200120106040F6510008605A
S315080022E0002000F0F8FD06E0022010604FF40060C0
S315080022F0086000F089FB07210E480160002101648F
S3150800230010200D490860002002BD00001C40004056
S31508002310001BB70000366E012040004000600040F8
S315080023200860004080E100E0080000400C600040C2
S31508002330AA2F002014A0004000E100E07047704773
S31508002340DFF8E83433F810001040C840704730B55D
S315080023500FF29854DFF8D83434F810409C601140D6
S31508002360DFF8C84434F8105095432943D96002224F
S315080023701A6000221A6024F8101058680028FCD148
S3150800238030BDDFF8B024DFF8B0041278DFF8AC14FB
S315080023900AB149780EE0895611F1090FB8BF302104
S315080023A008DBC16D39B1C26D40F24A31B1FBF2F1B9
S315080023B089B2C91E01607047E0B5DFF88404018858
S315080023C00A2300F064F8BDF806104FF6FF720D20D8
S315080023D0FFF7BDFF07BDF8B50546B5F5004FDFF8B1
S315080023E05C4419D1DFF85C040188022300F04FF839
S315080023F0BDF80000000AFF2814BF002818206070E6
S31508002400BDF800000006C00E10281CBF001D00F015
S315080024109CF9BDF80000C543DFF81864707808B168
S31508002420002005E0A089ADB26840C00701D50120AB
S315080024307070DFF81404A58105F00104016841F401
S3150800244000410160C5F340070FF2C44000EB4400A9
S315080024504FF440524078010389B20220FFF777FF14
S31508002460204600F087FD4022B90100F009FA2D0642
S31508002470A80E00F0010038433070FFF782FF70782D
S3150800248018B1FFF799FF002070700020F2BD7F2277
S3150800249000A800F0E5BD2DE9F04FDFF8B443207839
S315080024A087B0042304900C210B38C0B2039000A80F
S315080024B0039A00F093FE9DF800008DF80A009DF837
S315080024C001008DF809009DF802008DF808009DF8B6
S315080024D003008DF80500DFF87C030078012806BFA5
S315080024E0607880F00105012501F0FEF882469DF925
S315080024F002000399D54F0AF10A06AAF10A09B04261
S31508002500B6BF81454FF001084FF00008012088400A
S31508002510ADF806009DF80100000604D47888BDF8D9
S315080025200610084201D04FF0010801F055F99DF850
S31508002530030000060AD4B888BDF80610084205D17B
S315080025409DF90000B042B8BF814502DB4FF0010992
S3150800255001E04FF0000948EA050059EA000000F0DA
S31508002560A480DFF8F4B2BD49DBF80000400800F0AB
S3150800257001008DF80400BA48006800F4E060059090
S315080025804FF4E0600860002001F00BFD00F0A8FBA6
S31508002590B44EADB1607858B1DBF80000AD494008DB
S315080025A04000CBF800000120087000F079FC07E035
S315080025B0306840F400503060306820F48050306055
S315080025C0A4480078012810D161780D4208BF01F0AF
S315080025D0FFFDDBF800009F4940F00100CBF8000042
S315080025E000200870642000F05BFC607880F0010031
S315080025F0054203D00498C0B201F0ABFE607838B14A
S31508002600306820F480503060306840F40050306004
S31508002610BDF80600C543B8F1000F08D001F084FFE5
S315080026208DF801008DF802A0788828407880B9F1E5
S31508002630000F08D002F029F88DF803008DF800A0E5
S31508002640B8882840B8809DF900009DF90A1088428C
S3150800265002BF9DF801009DF8091088420BD19DF92B
S3150800266002009DF90810884202BF9DF803009DF8F4
S315080026700510884206D00399042300AAC9B20C2083
S3150800268000F0BDFD05987649086000F0EFFD9DF85D
S31508002690040001F086FC02F018F9607828B148F2C7
S315080026A060703060642000F0FBFB9DF8010001F0CB
S315080026B0A7FE9DF8030001F0E3FF07B0BDE8F08F21
S315080026C080B501F004F8BDE80140E4E600F0FFBF7C
S315080026D070B50646A6F10B0401F0CBFB0546A6F13C
S315080026E00B00102801D38A2070BD5F48816809074E
S315080026F002D40068C00701D58C2070BD5448067006
S315080027005A4801680C290FD00FF27811584A92F9E5
S315080027100020A4B231F824105118C161FFF7BBFE9E
S31508002720012D08BF01F036FB002070BD10B5044628
S3150800273000F0CDFF2046BDE81040C9E744480078C0
S3150800274070473E4890F9000070472DE9F04104466D
S3150800275014F12B0F86B045DB464801881423FFF792
S3150800276096FEBDF810004FF6FF71884203D040046C
S3150800277048BF012606D43F2200211020FFF7E0FDBE
S315080027800546002604F12B022F2A2C483A491AD26C
S3150800279013220FF2301300E0521ED2B213F9127050
S315080027A0BC42F9DB03EB4204032764780C6000247F
S315080027B013F81210017000208046AEB1BDF8101053
S315080027C04FF6BF7229E0092C0CDA225C0A60047005
S315080027D014232A480188FFF75AFE01240320A0463D
S315080027E02827EAE78B201DE0C1024FF4605200F06B
S315080027F047F84FF4E062210200F042F880224FEADF
S31508002800C81100F03DF885F020003D18ADB2402D06
S31508002810A8BF3F253F2285F0200100F031F8FFF7D9
S31508002820B0FD002006B0BDE8F0810000702B002046
S31508002830E8100040B92F002064100040DC1C00207E
S31508002840EAD10208F6D102081C100040802F0020A9
S31508002850DA1C0020541D00208020004080E100E0A2
S3150800286000E100E0D010004060200040AC100040BD
S31508002870B82F0020E6D10208C0100040E8D10208AF
S315080028800B2064E5AA2129005523290000252800E4
S31508002890AA26270055282700002A2600AA2B260044
S315080028A0552D2500002F2400AA3024005532230078
S315080028B000342200AA3522005537210000392000AD
S315080028C0AA3A2000D500E601EC02EF03F204F4056B
S315080028D0F506F707F808F909FA0AFB0BFC0DFD0FD0
S315080028E0FE11FF1300160119021C031F1000110028
S315080028F02000300040004100500060007000800059
S315080029009000A000B000C000D000E000F000000079
S3150800291000000103DFF838145120086070472DE9DC
S31508002920F0410546FFF79EFCDFF82814B0FBF1F6E8
S315080029304FF4F070B0FBF6F71E2D3FB201DBE81B33
S3150800294004D5A8B2BDE8F04100F0AABA01F0F8FF34
S31508002950804601F0FBFFDFF80014DFF800240120B1
S3150800296048700721DFF8F80300F041F8E91B09B2BF
S315080029707143C91C8908491EDFF8E853416000F015
S31508002980BDF8DFF8CC733C68386820F04000386042
S3150800299001F0DEFF3C602E6001F0DEFF01F0E4FF8F
S315080029A04046BDE8F04101F0E1BF38B50546FFF7FE
S315080029B059FCDFF8A013B0FBF1F44FF4F070B0FB4C
S315080029C0F4F02D1A1E2D04DA92210FF2D83001F0F8
S315080029D0D3FFDFF88C03DFF88423072100F007F81C
S315080029E005FB04F1C91C8908491E416031BD016017
S315080029F00021416081604FF0007111607047DFF877
S31508002A00582301215170D0E7DFF85C03006800B94C
S31508002A1070472DE9F041DFF85453DFF8546300247A
S31508002A202C6034604FF4A040706041F29A0840462A
S31508002A30FFF775FF6F68FFF71DFC000142F2107182
S31508002A40B0FBF1F000F5C870C01B00B24FF4487136
S31508002A5090FBF1F000B20828A8BF072004DA10F1AD
S31508002A60080FB8BF6FF0070030604046FFF757FF02
S31508002A7008274046FFF753FF686804197F1EF8D1F8
S31508002A80FFF7F8FB211D4001C908B0FBF1F080B241
S31508002A907060BDE8F081DFF8D002006800B97047C1
S31508002AA038B5DFF8D05201206FF00F04A8602C600B
S31508002AB08020FFF734FFE868FF2802D8641C102C32
S31508002AC0F5DB31BD70B5DFF8B002016841F00101F0
S31508002AD001600121416001F033FF0446DFF88452AA
S31508002AE000F00CF85120DFF8681208602E6001F03B
S31508002AF033FF2046BDE8704001F038BF2E682868CD
S31508002B0040084000286001F027BF002070472DE9E3
S31508002B10F041954C904D226840F2DC51012A8846D6
S31508002B20964E974F17DA0221B9803160B16901F0E4
S31508002B30030103295BD02168002903D5B16941F057
S31508002B400201B161FFF7E1FF5FEA00081BD12068C7
S31508002B5000284CD549E0B8884FF6FF74A0421DD12D
S31508002B608848018802237F22381D00F079FAB88840
S31508002B70A04204BF0220B880B069800703D4B069B8
S31508002B8040F00200B0610120A870B88830600FFAE2
S31508002B9088F0FFF734FF4046BDE8F081B3699B072C
S31508002BA0EDD5AB780BB10846F6E7B168B36811F016
S31508002BB0010103D10F2809D2401C06E09B0705D561
S31508002BC03B781BB1032801DB2018B880B888397018
S31508002BD00228BCBF0220B8803068B9888842D2D1A2
S31508002BE0B06900F00300032801D0FFF76BFF00204F
S31508002BF0D2E72DE9F04780460024554D594E01F09D
S31508002C009FFE814601F0A2FE4046FFF780FF08B905
S31508002C1001240AE000F05DF8D5F800A000F0BCF841
S31508002C20C5F800A0376001F097FE01F09DFE484602
S31508002C3001F09CFE002CE2D0BDE8F0870220D8E720
S31508002C4010B54748444C002141608160016821F075
S31508002C5002010160002060704FF000703F49086073
S31508002C60A07838B10020A0700620FFF74EFF00F0CC
S31508002C702BF81CDBE078012814D1434801210160B8
S31508002C8042490968C90748BF03200FD40221E170E9
S31508002C90016C41F00101016404203D4908603D4989
S31508002CA0086010BDE078042801D10520E07010BD49
S31508002CB080B52948407800281CBFBDE80140FFF7C9
S31508002CC0BFBF00F0ACFE01BD274800680128704769
S31508002CD0244E3768306840084000306001F03CBE3A
S31508002CE02DE9F8431C4C2179207881F0010108422E
S31508002CF02AD0FFF7E9FF1FDA40F2EB310FF2A40002
S31508002D0001F03AFE18E001F01BFE804601F01EFEB7
S31508002D10E07805280BD0FFF7DBFF0D4DD5F80090BE
S31508002D2000F03AF8C5F80090376001F015FE01F09A
S31508002D301BFE404601F01AFEE0780528E3D1002084
S31508002D40A0700520FFF755FF00202070BDE8F1832D
S31508002D500080004090D00300CB2F002004ED00E057
S31508002D6010E000E094ED00E004CB020810400040BB
S31508002D700C000040084000401C4000400440004051
S31508002D80321D0020FAD1020818A000400C4000406D
S31508002D9080E200E000E100E0286820F040002860BA
S31508002DA001F0D6BD636C6F636B732E630000000081
S31508002DB010B5664C002001F08EFD40F68C21884245
S31508002DC02068B4BF40F0080020F00800206010BD5D
S31508002DD010B504465E48018882B000F05CF89DF89C
S31508002DE000109DF80100FF2902BFFF2804200021DA
S31508002DF004B1801C574A1368C0B20828A8BF072028
S31508002E0023F4607343EAC010106008291068A8BF4D
S31508002E100721C00841EAC00010604F48047013BD7E
S31508002E2000B54E48018883B000F035F8BDF80000BB
S31508002E304FF6FF7188420EBF4FF4E1600A2190FBFE
S31508002E40F1F0ADF800004448007808B3404801881E
S31508002E5002237F2201A800F003F99DF80500BDF8BA
S31508002E600030FF2808BF0420811CC9B20829A8BF62
S31508002E700721C1F12F0202EBD272C0F12F005210C6
S31508002E8000FB0320C1F12F01B0FBF1F0ADF8000003
S31508002E90BDF800000EBD02237F2200A800F0E0B8AE
S31508002EA070B52F4C25680646FFF7E4F92D49B0FBA7
S31508002EB0F1F070432F303021B0FBF1F0032809D32D
S31508002EC0616D41F0010161652168491B0903090B20
S31508002ED08142F9D370BD10B5040004D110BD4FF47A
S31508002EE07A70FFF7DDFF2046441E80B20028F6D12F
S31508002EF010BD704738B50C4620B101280FD00328FD
S31508002F0020D021E0184D44B1FFF7B4F91749B0FBBA
S31508002F10F1F0401EB0F5005F0CD2286012E04CB10B
S31508002F20FFF7A8F9610801EB4000B0FBF4F0B0F533
S31508002F30003F01D3202032BD0D4900F001024A604E
S31508002F4040080860002032BD212032BD00BC004088
S31508002F50ECD1020818000040BB2F0020EED1020871
S31508002F603820004090D00300100004E020A107009C
S31508002F7068C80040F0B5044689B00020FFF728FF6E
S31508002F80264801880A237F2200A800F069F8BDF8C0
S31508002F9002004FF6FF75A84204D1DC210FF2940017
S31508002FA001F0EAFC0FF2A407002601E02A4616B94A
S31508002FB04FF47C4203E0022E08BF4EF23F0200A8FF
S31508002FC000F032F8761C052EF0D3012C03D1142319
S31508002FD07F22134802E014237F221248018803A89F
S31508002FE000F03EF800260FF26C072A4608E02A464B
S31508002FF0012E08BF4FF6C07202D0082E08BF002265
S3150800300003A800F011F8761C0A2EF0D3012C04BF91
S315080030100120FFF7DDFE09B0F0BD0000EAD1020885
S31508003020E8D10208E6D1020830F81610F05DFFF77D
S315080030308EB90000616E616C6F6775652D63656C8E
S315080030406C2D626961732E630000000000100C0D80
S315080030500E000000010203040708090A0B0F00000E
S3150800306030B5044610467F2808BF00204BF234626C
S31508003070914283B01AD108237F2240F6120100A894
S31508003080FFF7EEFF08220FF2C40100A801F0BCFD0D
S3150800309030B908237F2240F2A27100A8FFF7E0FFAB
S315080030A0082200A9204601F065FD37BD1F4D2943BA
S315080030B000FB03111A46204601F05CFD37BD2DE9D9
S315080030C0F0440C4619490FF2780A41EA0006C0078F
S315080030D0154602D5622100F02FF8E80702D56321CC
S315080030E000F02AF81248864204D3A819401E11494E
S315080030F0884202D3642100F01FF8002706E0B85D75
S31508003100FF2802D06B2100F017F87F1CAF42F6D3D8
S315080031106A082146304601F0E1FD28B15046BDE86F
S31508003120F044712101F028BCBDE8F08400000408D1
S315080031300008040800100408504601F01DBC0000F1
S315080031406D66672D746F6B656E2E6300FFFFFFFF5C
S31508003150FFFFFFFF30B50FF21011DFF8FC500A68C9
S3150800316083B001A80024026001202870002001F025
S31508003170FBFD30B1002001F0F7FD10B12C7049209D
S315080031803EBDDFF8D800018802237F220DF1020038
S3150800319000F024F802237F22002100A800F01EF880
S315080031A0204601A9BDF8022031F81010914208BF47
S315080031B00124401C0228F4D3BDF8000024B1B0F560
S315080031C07F7F07D100203EBDB0F57F7F0CBF06206C
S315080031D0042000E00720002129703EBD10B5FF2914
S315080031E008DCDFF87440247844B1BDE81040C9B261
S315080031F002F0C8B8BDE81040FFF732BF10BD2DE990
S31508003200F0410546FF2D0E46174698460FF2500028
S3150800321013DCDFF844402178A1B1617811B1C021EF
S3150800322001F0AAFB01206070434632463946E8B2EF
S3150800323002F010FA0020607004E0BDE8F041CB21EE
S3150800324001F09ABBBDE8F08103490978002918BF47
S3150800325002F006BB70470000B42F0020F2D1020826
S31508003260746F6B656E2E6300FE01FD0210B5DFF804
S3150800327010451020206301F063FBDFF808150A6883
S3150800328042F001020A6001F071FBDFF8FC0400F16C
S3150800329008016160216092306168893161600121AD
S315080032A02163E060A060DFF8E414E0688930E0603C
S315080032B0022020634FF6FF70086010BDDFF8D004C7
S315080032C045F26401C1601E21416250210162C82194
S315080032D0C1618165F021C16545F690014166882185
S315080032E081660621C16644F2066101604FF6FF71E8
S315080032F04160DFF8A004007838B1DFF89C0448F292
S31508003300607101604FF4C1514160DFF890040168B3
S3150800331041F0040101600020DFF88414487070470A
S315080033202DE9F047DFF860248A2101FB002101F12D
S31508003330080909F1010104244B78097801EB0321F6
S315080033401FFA81FA00210AF44063B3F5006F0546B7
S315080033500AF4404708BF082403D0B3F5406F08BFF6
S315080033600E2427B15FEA4A635CBFA41CE4B2DFF807
S3150800337034341B78537000EB02080AF02700232820
S3150800338088F8021067D1DFF82064706E000662D5EF
S31508003390B7F5404F04EB090003D102F018FB0146CC
S315080033A017E0B7F5004F14D1407814F8091001EB6F
S315080033B0002080B202F016FB0021FF2808D0DFF8B3
S315080033C0EC23126832F810004FF4FE62104200D067
S315080033D001214FF480604FF40062F9B15FEA0A7385
S315080033E01CD4B7F5004F08BFA41C03D0B7F5404F4F
S315080033F001D10834E4B26308002D14BF7768376832
S315080034009F421CD3002D14BF7768376803F1010C5F
S315080034106745F7D314F80930042B10D179B1F16D4B
S31508003420C90608D4B16C05B11046014203D0706CC8
S3150800343040F001007064012088F802000BE0F16D8D
S31508003440C90608D5B16C05B11046014203D0706CA7
S31508003450400840007064BDE8F0872DE9F04E044648
S31508003460DFF82463DFF840538A2000FB046000F18C
S31508003470080B002C0CBF28686868C1B2052903DA56
S315080034807068401C706055E040005FFA80F909EBEF
S315080034900B00A0F108073878797801EB00201FFAAD
S315080034A080FA7078387002F06CFB7870C04FF86B51
S315080034B020F48050F863686E14B93868400504D45F
S315080034C0012C1FD1386800051CD5BA48017889B186
S315080034D0002101701AF4E45FB748016802D000229F
S315080034E0402005E09BF80100000900F001028F204A
S315080034F002F0C5FB002C0CBF4FF480604FF400604F
S31508003500386012E01AF4E45F0FD100F047FD10B1FD
S315080035105FEA4A4009D59BF80000802805DAA01919
S3150800352049468278584602F073FC002C0CBF0120ED
S3150800353002202861BDE8F08E2DE9F84F934C9A4E8B
S315080035402068216CDFF874A2DFF86882DFF8389209
S315080035509B4F01EA00051AE040B14878C00605D439
S315080035609548016800228F2002F089FB280605D5B8
S3150800357002F0E2FB802025F080052060E80506D5EC
S3150800358002F0DAFB4FF4807025F480752060002D78
S3150800359068D0280706D50020FFF7C2FE082025F0C8
S315080035A008052060E80606D50120FFF7B9FE1020B9
S315080035B025F01005206005F06000602803D1B06C86
S315080035C0C0050AD401E0A80605D52020206025F00C
S315080035D02005002006E0680606D54020206025F074
S315080035E040050120FFF739FFE80410D54FF4805055
S315080035F0206025F48055D7F800B008203860786830
S31508003600000548BF00F020F91FFA8BF03860E8077C
S31508003610ACD5012020606D0899F800006D000028DF
S31508003620A4D000F030FC0128A0D198F800000028AA
S315080036309CD09AF80000042898D1F068400800F059
S3150800364001008A2101FB00910831002814BF726825
S31508003650326812B92268D204F7D5002814BF7068F8
S31508003660306879E700202060BDE8F18F554800688A
S315080036707047F0B504460D4689B00021032001F0D5
S31508003680CDF804AE1BE0002701F0E3F826F8170092
S3150800369001F0DFF800A921F817007F1C082FF3DBDB
S315080036A004A802F047FD00202080218836F8102063
S315080036B05140401C08282180F7DB6D1EA41CEDB282
S315080036C0002DE0D101F001F9012009B0F0BD032178
S315080036D0022001F0A3B84FF6FF71081A292190FBC2
S315080036E0F1F03A3040B2704738B501F0B2F8FFF75A
S315080036F0F2FF354D04462878B0B90321032001F0BE
S315080037008DF83248018802237F2200A8FFF7A8FC1B
S3150800371001F09FF8BDF80010401880B2FFF7DBFFF4
S31508003720153868700120287001F0CFF86878201ADB
S3150800373040B232BD80B50321022001F06FF8BDE822
S315080037400140D1E770B522480078002490B9FFF708
S31508003750F1FF134E0546707848B13078401B40B2E9
S3150800376002F0F1FC0B2805DB3570012402E001208C
S3150800377035707070204670BD164800787047000096
S315080037800020004084200040A82C002000A0004013
S315080037904C100040DB1C0020D01000408020004068
S315080037A0D72F0020DA1C002020200040F41A002021
S315080037B004A00040C42D0020CC2D0020531D00205D
S315080037C0B820004038200040D52F0020F0D102084C
S315080037D0541D0020D92F002010B50D48018884B04B
S315080037E00A237F2200A8FFF73BFCBDF800004FF62E
S315080037F0FF74A04204D14E210FF2180001F0BCF864
S31508003800BDF8001022460020FEF7A1FD1FBD0000EE
S31508003810EAD10208616E616C6F6775652D66696C21
S315080038207465722E63000000DFF8E007007848B17F
S31508003830DFF8DC070179012904BF4079042801D1A2
S315080038400120704700207047DFF8C807016821F497
S3150800385080510160DFF8C007017881B1002101704D
S31508003860DFF8B8170A68520852000A600A6842F078
S3150800387001020A6000228168402002F000BA7047FF
S315080038800FF630014008405C7047010603D54FF635
S315080038907F710840C0007047491C800189B2B0FB9F
S315080038A0F1F080B2FF288CBF0020C0F1FF00C0B243
S315080038B0704738B5DFF86007C17809B1002032BD16
S315080038C0DFF86047617871B1E178007945182079A9
S315080038D0ADB2854228BF054602F04EFC0121A9403B
S315080038E0491E084000E0002061790818C0B232BDC0
S315080038F02DE9F0470446C00705D54FF4BE710FF20F
S31508003900A47001F039F8DFF82057286DC00748BFC2
S315080039108C2000F18280DFF80007DFF808770021A5
S315080039200170417829B9397819B1A96F41F00101B7
S3150800393002E0A96F49084900A967DFF8D4867A78B2
S3150800394098F80610DFF8E496DFF8E46692B10022EC
S3150800395002710129286D40F00400286506D14FF64A
S31508003960FF7030604FF40070C9F80000FFF7A1FF40
S3150800397082460CE0286D20F00400012928654FF0E6
S31508003980000A04D100F043FA6420FFF789FAA86F09
S3150800399020F00800A8671420E864C5F848A07878DD
S315080039A038B198F80600002801BFA86C0028012045
S315080039B0A864B8790028286D14BF40F0080020F0E4
S315080039C008002865FFF730FF18B1306C40F0080092
S315080039D03064202028626C602C604FF4E0646868CC
S315080039E07F30686004202862DFF84806046006E035
S315080039F002F0D2FB18B102F0D7FB00F0A1FFDFF806
S31508003A003806006800F003000328F1D0C9F8004022
S31508003A10286D40F0010028650020BDE8F087DFF832
S31508003A201C06002141608160016821F002010160E5
S31508003A304FF00070DFF8081608600120DFF804165A
S31508003A4008707047A0F13301DFF8FC25914200D3D6
S31508003A50704710B5DFF8EC4500212170FEF7A5FF89
S31508003A6002E0012002F0A4FB20780028F9D010BD5E
S31508003A702DE9F84FDFF8D465DFF89C557068716C4E
S31508003A80DFF8A47508401FFA80F8C6F8048068783D
S31508003A90002840F0DD805FEAC870DFF8B445DFF83B
S31508003AA0849553D5D7F800A0386C796C41EA004163
S31508003AB099F80000A960002844D09AF80100800609
S31508003AC040D5012028704FF480503060306C40F4A7
S31508003AD080503064FFF7A8FEC0B31920FFF7E0F95D
S31508003AE04FF44040DFF86CB5CBF82800DBF800004F
S31508003AF00090E06E40F40050E066E06E40F48050BE
S31508003B00E0669AF80010A8684901B83101EB000A86
S31508003B10FFF7ACFDAAEB00000003000BFFF792FFCE
S31508003B20E06E80098001E06600A9E06E0988084316
S31508003B30E0660020CBF8280048F26070E066E88866
S31508003B40206003E00022002002F099F85FEA08608E
S31508003B500CD5287830B1002028700022A9684020AA
S31508003B6002F08DF8306C20F4805030645FEA4860CB
S31508003B7008D5687830B9FFF779FD01460022892013
S31508003B8002F07DF85FEAC86054D5DFF884A4DFF850
S31508003B909CB49AF80400012804BF9AF80610012973
S31508003BA01FD100F015FB386F40F001003867002080
S31508003BB08AF80600FFF75AFB0A20FFF771F94FF655
S31508003BC0FF7070604FF000084FF4E060CBF800001B
S31508003BD00920B8660120B864B86F40F00800B867D5
S31508003BE018E0297999F80220491C2971C9B291422D
S31508003BF015D2012808BF00F0CDF8B86F20F00800EC
S31508003C00B8671420B866FFF754FEB8644FF400701E
S31508003C10CBF80000386D40F0010038650AE001284D
S31508003C2008BF00F0B7F8FFF721FD014600228D20F6
S31508003C3002F025F85FEA08700AD5FFF7F5FD38B1F6
S31508003C402068E88001202060706C20F0080070640D
S31508003C505FEA88600AD520203862687830B9FFF7AD
S31508003C6005FD01460022882002F009F8687820B18F
S31508003C7018F4407F04BF0120A870BDE8F18F70B525
S31508003C8082B00446FEF722FDDFF8D403DFF88C5332
S31508003C90002101601521E960092101651F214160A4
S31508003CA001210166DFF8B4030088FEF794FBFFF7ED
S31508003CB005FB02F0BBFD00F037F9DFF854633089E5
S31508003CC000F05FF9708900F064F900F039FE696860
S31508003CD041F04001696000F049FE707800F0F5F89F
S31508003CE0B07800F006F9DFF87C03007800F033F9C5
S31508003CF0DFF8740390F90000FEF727FD307800F02E
S31508003D0050F996F9030000F058F9DFF8600300F05F
S31508003D1076F9BDF80000DFF85813C0054CBF00203F
S31508003D20BDF800000870DFF84C030078FEF7D0FCF9
S31508003D3028B10FF2703040F2B23100F01DFE012CAE
S31508003D4005D12868C00711D500F024F80EE06CB933
S31508003D502868C0070AD400F03BFA286840F001003A
S31508003D602860C820FFF79CF80020B071F120DFF822
S31508003D70C042206440F2F910E063FFF777FA28683A
S31508003D80C00704D54FF6FF70206000F06DF8FEF707
S31508003D90A7FF73BD70B5DFF8E052DFF874422E68EE
S31508003DA0A079012832D000F0CBFD48F2D001296075
S31508003DB06A68520509D548F222022A606A68D2055D
S31508003DC0F5D529606A685207F1D4B6B2DFF86422DD
S31508003DD02E604FF4E0611160DFF87C120A6A52081F
S31508003DE052000A620A68520852000A600A6842F0DB
S31508003DF002020A604A6A42F001024A620121A1717E
S31508003E0000F0B4FDBDE8704000F0DBB970BD70B5D8
S31508003E107F4CA07938B300F0DBF900F091FD054638
S31508003E20DFF858127E4E01200860306D40F0010020
S31508003E3030650020A071FFF719FA20203060306B3A
S31508003E4040F002003063F06D40F00800F065284647
S31508003E5000F08CFD0A20FFF723F875494FF6FF702E
S31508003E60086000F001F870BD4FF4E0606F49086023
S31508003E70704767488079704765480079012808BF08
S31508003E80FFF788BF704762480079704780B50228F7
S31508003E9001DB012002BD5E4908718979884205D097
S31508003EA010B9FFF7B4FF01E0FFF774FF002002BD69
S31508003EB073480068800200149A3801B211F1800F25
S31508003EC0B8BF6FF07F0040B2704710B5044600F0E7
S31508003ED037FD6C490A68002C04D042F012020A60C9
S31508003EE0012103E022F012020A600021484A5170BB
S31508003EF040E038B5044600F023FD0546FFF73CFCD4
S31508003F0040B960480168002C14BF41F0800121F0D7
S31508003F10800101603E4884702846BDE8324000F0C2
S31508003F2025BD3B488078704757494A780B785748EB
S31508003F3003EB022202608B78CA7803EB0222426006
S31508003F400B794A7903EB02228260CA79897901EBF7
S31508003F500221C160704710B5044600F0F1FC4949DA
S31508003F600A68002C14BF42F0200222F020020A60E0
S31508003F703C490C70BDE8104000F0F8BC24480089A4
S31508003F80704723490881424908607047204840899C
S31508003F9070471F4948813F49086070473E48007886
S31508003FA070471E490A68002814BF42F0020222F030
S31508003FB002020A6016490870704738B504467F2C15
S31508003FC00AD1364800F01BF8BDF80000C00554BFFA
S31508003FD0BDF800406FF04A0400F0B2FC0546FFF752
S31508003FE0CBFB30B964B204F19A0080052C49000C69
S31508003FF008600748C470284600F0B8FC31BD01883F
S3150800400002237F2200A8FFF72BB80000DE2F00202E
S315080040104E1D002040A00040C42D002080200040F6
S3150800402030200040141D00201020004000E100E070
S3150800403004A0004080E100E0A820004010E000E075
S3150800404004ED00E0DF2F0020CDFF070000A00040B0
S3150800405064100040E410004060200040E81C002086
S315080040605C100040DD2F0020DC1C0020FCD102087B
S31508004070B82F0020DA1C00201C1000402810004031
S315080040800C10004084200040D82B002098200040C7
S3150800409094200040902000404C1D002000D20208C9
S315080040A0541000407068792D636F6D6D6F6E2E63C6
S315080040B000000000FEF7C80138B50120FEF727FD0D
S315080040C00020FEF785FE5A4C206840F00800206064
S315080040D0FEF7D7F8FEF76CFE564900F02AF88D78F9
S315080040E0554BDD608D880560CD88456000F018F871
S315080040F000F067F8206820F010002060FEF77CF8D2
S3150800410002F0D4FC02F034FDFEF798FDFEF7B7F88E
S31508004110BDE83140FEF7D3B840F2016002F0C4BDF5
S31508004120088910604889506088891860C88958606D
S31508004130704743480A78C2604B78424AD360704752
S31508004140F0B50B68414C0F252468960005FA06F66B
S31508004150344215D0002606EB820724FA07F7FF0734
S315080041600BD5B70005FA07FC23EA0C0330F812C092
S3150800417005FA07F707EA0C073B43761C042EEADB29
S315080041800B60F0BDF0B50B68304CFF252468D600EF
S31508004190B5402C4213D00025012605EBC20724FAA8
S315080041A007F7FF0708D506FA05F7BB43175C06FAB3
S315080041B005FC0CEA07073B436D1C082DEDDB0B607D
S315080041C0F0BD10B52148006808B11C4C07E010BDC9
S315080041D010B51E48006808B1164C00E010BD1C4911
S315080041E000222046FFF7CEFF01221A492046FFF794
S315080041F0C9FF022218492046FFF7C4FF00221049CA
S3150800420000F030F80122104900F02CF802220D497E
S3150800421000F028F80322114900F024F80422064980
S3150800422000F020F8201DBDE8104005220C4987E75C
S3150800423000BC0040C01B002000B80040D01B002076
S3150800424000B0004000B4004004B00040A0260020A2
S315080042500CB000400CB400400CB8004004B4004058
S3150800426004B80040201D6BE70320FEF7EDBF80B5BC
S3150800427002F023FE0FF2600109E080B502F021FE8C
S315080042800FF280010204120E51F82210C0B201EB9F
S31508004290800002BD10B502F010FE044602F011FEC1
S315080042A0C0B208B9012C07D1072C11D8DFE804F0F1
S315080042B004100608080A0C0E002010BD092010BDBF
S315080042C0022010BD032010BD0B2010BD062010BD16
S315080042D044F0800010BD0000554E4B004649420090
S315080042E042544C0045585400505752005744470012
S315080042F02053570043525300465348004241440056
S31508004300464C540008CB02080CCB020864CB0208C2
S3150800431084CB02088CCB020898CB0208A4CB0208EF
S31508004320B0CB0208B8CB0208C4CB0208D4CB02082B
S315080043302A490A68920992010A600A6810430860C5
S315080043404FF4004126480160002101606420FEF711
S31508004350A7BD2DE9F047234D204FD5F80090224CF4
S315080043608046286840F400402860386820F4805069
S315080043703860207868B162781C48A17800EB820220
S3150800438000EB880012F82A2C10F82A0C891A46180D
S3150800439002E0012020262070B0B2FFF7C9FF0FF215
S315080043A0500A02E0B0B2FFF7C3FF386B042805D005
S315080043B0386B400754BF761E761CF3E7F86A38B1A7
S315080043C084F80180A6701FFA89F02860BDE8F08796
S315080043D040F22111504600F0CFFAE6E7D01000402F
S315080043E0181000401C100040DA2F0020842800080E
S315080043F0616E616C6F6775652D76636F2E6300005D
S3150800440081014FF4FE5289B20C20FDF7A0BF2DE9B9
S31508004410F84F8F4CA56820680127ADB200264FF0EB
S315080044200A08B9461FFA80FA00F04FFAB02020634E
S31508004430DFF820B208E016F1190FB8BF4FF00A08E6
S31508004440464436B27019A060DBF80000000702D5B2
S3150800445059EA070028D00120FEF722FDB9F1000F1E
S3150800446011D0AAF10300874202DAF81C87B213E0DA
S315080044700AF50040206057460621092000F0CEF9CB
S315080044804FF000090BE0DBF80000000707D5042F02
S31508004490A6BFF81E87B2002707F5004020601A2E2F
S315080044A0C9DB6FF00908CBE7A560C4F800A00820AF
S315080044B0CBF800006848006880B2BDE8F28F80B586
S315080044C0624B66491B784FF0FF326BB1002819BF63
S315080044D04A606348486041F21110086061484188A3
S315080044E00088BDE8044092E7002819BF4A600A60C0
S315080044F04860086000F0E9F9BDE804400621092093
S3150800450000F0DDB938B50120FFF7D9FF04460020D1
S31508004510FFF7D5FF05460120FFF7D1FF4042001BF4
S3150800452000EB450000B232BD2DE9FE4F4E4CDFF8D8
S315080045303C81A06A454EADF802002568D8F800B05F
S31508004540307860B14FF6FF7200210820FDF7F8FEBB
S31508004550ADF80000C022C0210820FDF7F8FE444847
S31508004560DFF81091007818B148F26070C9F80000B9
S31508004570708840F4404040F04C00C9F83C000220E6
S31508004580A0620120206040F24C40FEF789FC012021
S31508004590C8F80C00C8F800000020324F38804020C8
S315080045A07880307800B12020FFF72AFFFFF7AAFFAE
S315080045B08246402038807F207880FFF721FFFFF76A
S315080045C0A1FF0290504601F0BEFDFE2101FB00F757
S315080045D00298AAEB00000190307860B1029801F0C9
S315080045E0B2FD8246019801F0AEFD80B207EB8A1152
S315080045F0B1FBF0F005E0019801F0A5FD80B2B7FB2C
S31508004600F0F080B2401CC7031FFA8BF0C8F8000010
S31508004610ADB20020C8F80C00022020602560BDF865
S315080046200200A0620020C9F83C00307830B1BDF81D
S3150800463000104FF6FF720820FDF789FE40F24C4045
S31508004640FEF72EFC380CBDE8FE8F0000481D002042
S31508004650C010004018A0004000700040381000400C
S31508004660EEEEFFFF902F002060200040281000404B
S31508004670DB1C0020D010004041003F2289B201E037
S3150800468001463F220220FDF762BE2DE9F04F564C47
S31508004690564D95B0E06CADF810004FF6FF782068DF
S315080046A0ADF80E004246E86AADF80C00002101207C
S315080046B0FDF746FEADF80A00424600210B20FDF73D
S315080046C03FFEADF808004FF4004020600020286146
S315080046D0686148F2020000F08BF84CF68C30E06412
S315080046E04FF4805248F2F000E86211460120FDF7C7
S315080046F02EFE424600210B20FDF729FE0621062044
S3150800470000F0DDF8019000F085F800904CF69C303A
S31508004710E0640020FFF7B0FF0621084600F07EF8A7
S3150800472000260DF1140BB0B2FFF7A6FF06210620EE
S3150800473000F074F800F08DF82BF81600761C202E81
S31508004740F1DB00F086F81020FFF796FF00F062F81C
S315080047500099019A401ABBF82010891A404301FBB8
S3150800476001094FF0100A112700F04EF800F052F830
S3150800477000F043F806DB81461FFA87FA781C07B271
S31508004780202FF1DBBAF1100F0ED10F2700F03CF8FD
S3150800479000F040F800F031F806DB81461FFA87FA88
S315080047A0781E07B2002FF1D5BDF81000E064424626
S315080047B0BDF80E002060BDF80C00E8620120BDF8C7
S315080047C00A10FDF7C4FDBDF8081042460B20FDF798
S315080047D0BEFD01202861002000F00AF84FEA4A00D1
S315080047E0C0B215B0BDE8F08FC010004018100040E8
S315080047F0286040F24C40FEF753BB0099401A4043EC
S3150800480006FB0600484570473BF817000199461A0B
S31508004810B8B231E70621072000F051B870B5054651
S315080048200E4600F093F83F4C206C20F008002064F8
S3150800483000F09AF800F084F8310341EAC5113A4AC3
S3150800484041F00101116008212160BDE8704000F0C7
S315080048508DB82DE9F041354C354D324E25E000F046
S3150800486075F8344904200860306C40F0080030645C
S315080048702F68286840084000286000F06DF8D4F8D2
S315080048800080206820F04000206000F061F8C4F83D
S3150800489000802F6000F060F8306C274920F008008F
S315080048A030640420086000F05FF830680007D6D549
S315080048B0082030602148006880B2BDE8F08180B5E4
S315080048C0FFF7ACFFBDE80140C3E717480168490890
S315080048D0490001607047F8B50746FEF7A1FA044695
S315080048E039460320FFF7EBFF054639460120FFF757
S315080048F0E6FF0646FDF723FD39460020FFF7DFFFF2
S315080049000746FDF71BFD084801684908490001608C
S31508004910781B0004711BB0FBF1F060434000000CEB
S31508004920F2BD000018A0004004700040008000405E
S3150800493094ED00E000E100E080E200E00070004055
S31508004940EFF31180602181F31188704772B67047C2
S3150800495000BF30BF00BF7047BFF35F8FBFF34F8FF5
S31508004960BFF36F8F7047704762B6704780F3118840
S315080049707047000042DE704738B504460D46FDF71D
S3150800498089FCFFF7DDFF2946204602F0D0FA2B46C0
S3150800499022460FF2CC11012002F03BFD29462046A3
S315080049A0BDE83440E6E72DE9F84F6548654D0168EE
S315080049B02E1D4FF4206A7165016AB165624909685E
S315080049C0F165416A3166816A7166C16AB166016BD1
S315080049D0F166806B306796F8340040074CBFF76B7A
S315080049E0B76BBB4602F0FFF90022584CDFF860812E
S315080049F0DFF86091F2648742014624BFA4F12003E0
S31508004A00BB4231651DD357F8180F306457F8040FA9
S31508004A107064706DC005C00D062815D1306C484508
S31508004A2012D3404510D200884DF6426290420BD10F
S31508004A3005F18C006A68426040F2017A7268826009
S31508004A4002E03264726483464348814202D20146D8
S31508004A5000E0091DA14203D20B68B3F1CD3FF8D09F
S31508004A60601AB064182105F1780002F013FD0020E1
S31508004A7003E0C0B205EB80029167A34523D254F840
S31508004A80041D4945F9D34145F7D2CA07F5D5002291
S31508004A9005EB82039B6F8B4203D0521CD2B2062AC7
S31508004AA0F6DB062AE9D1002814BF401E0520E0E7F8
S31508004AB0716F002205EB8203521CDF6F9F67052A80
S31508004AC0F8DBC5F88C100146481EC9B20029EFD19B
S31508004AD0706DC005C00D02280AD0032815D0042819
S31508004AE016D0052817D0062818D00C281CD01EE08A
S31508004AF01A480168890748BF40F6021A1CD400689C
S31508004B00C00719D540F2025A16E040F6012A13E00A
S31508004B1040F6022A10E040F6032A0DE0BAF5206FA7
S31508004B200AD140F6042A07E040F6052A04E018B13F
S31508004B30242838BF40F6072A5046BDE8F28F000001
S31508004B4004ED00E00000002000E300E0D01900209A
S31508004B50D856020890210008980000201CA00040A2
S31508004B600D0A5B4153534552543A25703A25645D04
S31508004B700D0A0000814233D210185118401E491EF2
S31508004B8010E011F8013900F80139121F11F801393E
S31508004B9000F8013911F8013900F8013911F801391D
S31508004BA000F8013992B2042AEBDA92B2002A1EBF43
S31508004BB011F8013900F80139521EF6D1704711F87B
S31508004BC0013B00F8013B121F11F8013B00F8013BBD
S31508004BD011F8013B00F8013B11F8013B00F8013BD5
S31508004BE092B2042AEBDA92B2002A1EBF11F8013BF0
S31508004BF000F8013B521EF6D17047130003D00A464F
S31508004C00194602F04BBC704710B500E0521E92B22E
S31508004C1022B100F012F8F9D0181B10BD002010BD03
S31508004C2010B500E0521E92B22AB100F006F8F9D08B
S31508004C30181B40B210BD002010BD10F8013B11F83A
S31508004C40014BA342704700004148018A40F6A7720B
S31508004C50914202BF408A4FF47F41084203D102289D
S31508004C6001DB01207047002070472DE9F84F824686
S31508004C708846FFF765FE374D2F68044628684008C2
S31508004C8040002860FFF768FE0120DFF8C0B08BF807
S31508004C900000FFF7D9FF20B9FE210FF2BC00FFF78D
S31508004CA06BFE2B48D0F8289041464AF48070C847D6
S31508004CB006462F60FFF750FE2046FFF757FE0020F6
S31508004CC08BF800000FF298040EB1305D04E04146FF
S31508004CD04AF40070C847005DBDE8F28F2DE9F84F29
S31508004CE0804689464FEA420AFFF72AFE194E376878
S31508004CF005463068400840003060FFF72DFEFFF794
S31508004D00A3FF28B940F241110FF24C00FFF734FE19
S31508004D100F48D0F824B00023524649464046D847A3
S31508004D2004463760FFF718FE2846FFF71FFE0FF206
S31508004D3030050CB1605D05E0534600224946404601
S31508004D40D847405DBDE8F28F00000000CA2F00205A
S31508004D500000040894ED00E0666C6173682E630039
S31508004D60000202024B4B46472DE9F04F89B08046B8
S31508004D7021252122FF2100A8FFF73FFFDFF8ACA07D
S31508004D809822FF215046FFF738FF0027284CDFF806
S31508004D90A490294EB85D17F809B0395D401C00EBA0
S31508004DA0D070401001B11930401C00FB0BF22348AB
S31508004DB030F817100FF2880092B202F0A3FBBBF18D
S31508004DC0010F1CBF2AF817505D447F1C212FE1DB19
S31508004DD00FF28800212340F21C4240F25D2102F0C6
S31508004DE091FB0FF2A8054FF4E04000F00DF918B159
S31508004DF0CA212846FFF7C0FD4FF4804000F004F9A9
S31508004E0018B1CC212846FFF7B7FD4FF4805000F0C3
S31508004E10FBF818B1CE212846FFF7AEFD00A940469B
S31508004E2000F01FF909B0BDE8F08F0000A82900209E
S31508004E3028CE020870CE02084CCE0208E4CD02083D
S31508004E4043726561746F723A2030782532582C2087
S31508004E50576F7264733A2025640A000053696D45DA
S31508004E604520646174613A20256420776F72647303
S31508004E70206F66202564206D61782C20746F6B6521
S31508004E806E436F756E743A2025640A0073696D2D3A
S31508004E90656570726F6D2E630000000010B5DFF84F
S31508004EA0B44ADFF8B43A2488001B06E010B5DFF8E8
S31508004EB0AC4ADFF8A43A24681B1B03EB4000002326
S31508004EC004E030F8134021F813405B1C9342F8DBEA
S31508004ED0002010BD2DE9F04182B004460D46164665
S31508004EE00027DFF8748A01E0B81CC7B2B74217DAA0
S31508004EF07819795D4078DFF85C3A1B8801EB002069
S31508004F00ADF80000012207EBD77004EB6000C01A69
S31508004F1000F09BFB0028E7D002F014FB002000E01D
S31508004F200120BDE8F681F8B504460E461546002769
S31508004F300DE000F019F8BDF8000004EB4701000A7F
S31508004F404870761CBDF8000004F817007F1CB7EB04
S31508004F50550FEEDBE80706D500F006F8BDF80000A9
S31508004F60291901F8010CF1BD012200A9B0B295E793
S31508004F70DFF8E029DFF8E0191288801A01EB400112
S31508004F800220FFF772BEDFF8D819DFF8D829415C8E
S31508004F90825CDFF8D439C05C10B102F5997292B21E
S31508004FA041EAC21080B2704710B5DFF8C039DFF8A1
S31508004FB0B04903EB4002005D012801D1104610BD3F
S31508004FC01088081803EB400010BD38B50C46DFF80A
S31508004FD0A0190D782A462146FFF760FF2088002889
S31508004FE01CBF4FF6FF7188420AD0012000E0401C22
S31508004FF0C0B2A84206D234F8101022889142F6D0E0
S31508005000002032BD012032BDF0B5DFF8501987B057
S3150800501008600C2200A90020FFF748FF00A9002518
S31508005020C88A8A890346040A01204FF6FF7631F8B2
S315080050301570BDF800C0BC4503D1B74218BF002F94
S3150800504000D100206D1C062DF1DBB21A944518BF5D
S315080050500020DBB2C4F1FF018B4218BF002007B065
S31508005060F0BD2DE9F24F0446DFF8086900203070DC
S3150800507070809CB0DFF800090088ADF8020007A927
S31508005080FFF7A3FF83460120707009A9DFF8EC0833
S315080050900588DFF8EC08B0F80080DFF8B808BDF836
S315080050A002A007883846FFF790FFB8B1BBF1000F9A
S315080050B03CD0BDF81C10BDF824004FF6FE72914294
S315080050C002D1012804D10CE0012908BF90422DD055
S315080050D00846BDF82410884228D202E0BBF1000F2A
S315080050E023D000207070029750460695CDF81080A0
S315080050F00122DFF87C1891F800804044ADF80600DC
S3150800510000A9BDF80600FFF7C9FEDFF87808008891
S3150800511005904FF6FF79BDF80000000B404518BF13
S315080051200F2800D10CB3002516E00124707800285A
S31508005130D9D03846CDF808A0CDF818800495D7E719
S31508005140059805FB00F4E01900F02AFCBDF80200FA
S31508005150201800F025FC6D1C4545F1DB0120307058
S315080051604D2002F0EFF90025FEE0BDF806500122B9
S3150800517001A92846FFF792FEBDF80400C043C0B255
S31508005180ADF804006F1CDFF800080588BDF80400B8
S31508005190A84218BF01244FF0000A20E0401CC1B203
S315080051A0A94218D2C0B2DFF8E417BDF80E2083462C
S315080051B031F81B109142F1D1FFF7E5FE4FF68071E9
S315080051C00840BDF80C104FF680721140884204BFA3
S315080051D01C980BF800A00AF101001FFA80FABDF826
S315080051E00400824507DA022203A9B8B2FFF756FE81
S315080051F0BF1C0020D3E7002001E0401C80B2A84273
S3150800520017DA1C99415C8142F7D0012411E02AF88B
S315080052101070BDF8060000EB4300401C00F0D5FAFC
S31508005220BDF80200C0F3C710401C00EBD07007EBB6
S3150800523060070498DFF834A7BFB2874211DA012263
S3150800524000A93846FFF72AFEBDF80000484508D0F1
S31508005250030A00F07F01BDF804007F1C834202DBCD
S31508005260012400252FE0002001E0401C80B2A8425E
S31508005270CFDA1C9A825C9A42F7D1C0B2FF28C8D00E
S31508005280DFF8DC26825C7F290CBF4FF0000C8C46C9
S3150800529094450BDABDF800C0DFF8CCE610F80EE04E
S315080052A04FEA0C6C4FEADC7CF44501D00124B0E7E8
S315080052B0012AACD07F293AF8100008BF0021081847
S315080052C0A5E76D1CADB2DFF8C8060088854204DA8A
S315080052D03AF815004845F4D1012477800498BDB200
S315080052E085420ADA012200A92846FFF7D7FDBDF84C
S315080052F000006F1C4845F1D032E7002CFCD102981B
S3150800530001220BA980B2FFF7C9FDBDF82C0048455C
S315080053100DD105E0401C80B2202813DB2034A4B24E
S315080053200699029A891A8C4205DB01203070002002
S315080053301DB0BDE8F08FA51820220BA9A8B2FFF76B
S31508005340ADFD00200BA931F810104945E2D0A8B2EE
S31508005350FFF70EFE203CA4B2E0E70298059905FB8C
S31508005360010000F01DFB6D1C4545F6DB0120307081
S31508005370494600F042F818B100F02CF90028D6D1B9
S315080053800120D5E72DE9F0420F46DFF8FC15DFF8D6
S31508005390D45509888F420446164699460CD2DFF83A
S315080053A0C015795C30467F2808BF0020884203DA9A
S315080053B0785D814500D11CB940F2D64100F001FA6A
S315080053C031463846FFF7F0FD0188DFF89C05385C62
S315080053D060B1384600F02AFA795D012908BF2070C5
S315080053E009D0022914BF2060208004E04A462046DE
S315080053F0BDE8F04297E5BDE8F0822DE9F34FDFF806
S315080054005405DFF86C150488DFF8680509784078D4
S3150800541083B000281ABFDFF86005008820460D18FB
S31508005420DFF864050088ADF80800ADB2C043C0B225
S3150800543000EB013000F55060ADF802002B1BDFF8D9
S31508005440180500F0C8F96E1C0028B6B238D1002538
S31508005450DFF8387514E0E8B2FFF795FDADF80400FB
S31508005460331B37F81500ADF806000222DFF8E8040A
S3150800547000F0ABF8002823D1B61C6D1CB6B2ADB24D
S31508005480BDF808008542E6DB002501E06D1CADB2DB
S31508005490BDF80800854280F293804FF0000A1CE0B0
S315080054A001220DF102011FFA89F0FFF7F7FCBB197B
S315080054B0DFF8A4041B1B09F1010900F08CF9002888
S315080054C078D17F1CFFB2B7EB1B6FE9DBDFF8C404AA
S315080054D0285C8619B6B20AF1010ADFF8840415F8C1
S315080054E000B05FFA8AFADA45D0D25146E8B2FFF739
S315080054F05BFD8046DFF87004B8F800902F5CF80171
S3150800550040EA0520ADF80000BBF1010FBDF8000028
S315080055100CBF40F07F004AEA0000ADF80000311BDE
S31508005520DFF8340400EB4100711C89B201914FF693
S31508005530FF7189451EBFBDF80010BDF810209142C5
S3150800554018D19DF80C100029C5D0012200A9FFF733
S31508005550C5FB019E70BBDFF80C04A8F800602A5C46
S31508005560DFF8340450F82510B0B2FFF7B3FC002872
S31508005570ACD122E0DFF8EC13695C491C01EBD17170
S315080055804FEAC15B012200A9FFF7A8FB019E88B973
S31508005590002FA8F8006095D04946E8B200F046F911
S315080055A00190331BDFF8B0034FEA1B6200F00DF8D9
S315080055B000288BD001F0C6FF002005B0BDE8F08FAB
S315080055C0DFF8B00346800120F7E701A900EB4300A6
S315080055D0FFF784BB2DE9F041DFF89C03DFF894530D
S315080055E00688DFF8700304886878002882B012BF3E
S315080055F0204630462646012200A9FFF74FFCBDF893
S315080056000000DFF8548301280CBF4FF6FE70401ED9
S31508005610ADF80000DFF8580307783846471E58B13A
S31508005620BFB2B819001B012200F00FF80028F4D009
S3150800563001F088FF002006E0687880F001006870B5
S31508005640002028700120BDE8F68100A908EB40007B
S31508005650FFF744BB2DE9FE4F0D46CB490988884222
S31508005660044617461E464FF000094FF001080CD2B3
S31508005670BB49615C38467F2808BF0020884204DAA7
S31508005680B848205C864200D11DB940F2FA5100F0B4
S3150800569098F839462046FFF787FC0190B54F787889
S315080056A020B1B648B0F800A0AA4803E0B448B0F85C
S315080056B000A0B1483978008849B97988081AB749E5
S315080056C009888842B4BF4320442001F03BFF019873
S315080056D00188A548205CF8B1204600F0A7F8012EFD
S315080056E008BF297803D0022E0CBF29882968814271
S315080056F065D001980088401E00F067F8A548265C2A
S315080057007888AAF10101891B814201DB002835D17D
S31508005710387858BB452044E00291CB4620E00298F1
S315080057200BEBDB7300EB630000F03DF90BEB0500B8
S315080057301BF80510407801EB0020711E8B4580B2DE
S3150800574005D1BDF80010C9B2C0B2ADF80010BDF859
S31508005750001088420BF1020018BFC8465FFA80FBAA
S31508005760B345DCDBB8F1000FC3D028E0BDF8021062
S315080057700020FFF742FE10B34FF0010978887949F7
S31508005780401C788080B2625C2946FFF7A3FBB0B163
S31508005790704C7B88248870485B1E1B1B00F01BF826
S315080057A010B101F0CFFE0AE0B9F1000F02D0FFF701
S315080057B011FF20B101997888088030187880BDE8F3
S315080057C0F78F0FF2EC10FFF7D7B801220DF102019F
S315080057D080B2FFF763BB01220DF1020100EB430023
S315080057E0FFF77CBA70B582B0044600251926012257
S315080057F000A9A0B2FFF752FBBDF80000641C48B12F
S315080058004FF47F41401A02D0FF3806D007E0681CE3
S3150800581040B276BDAD1C761EE9D168B276BDBDF83C
S315080058200000C0B200B96D1CE843F1E738B50C4674
S31508005830002100914B49455C2A46214600A8FFF7FE
S3150800584072FB681C00EBD07004EB600080B2FFF7B7
S31508005850C9FF002848BFC043009940B2401832BD6E
S31508005860F0B5494909880446404883B0254630F8CA
S3150800587015608C4202D23C48285C18B940F23B714C
S31508005880FFF79FFF37482D5C681C00EBD07006EBCE
S315080058906007B8B2FFF7A6FF322814D2C107BFB215
S315080058A007EB60002B4F2C4B3F884CBF00214FF471
S315080058B07F41ADF80410C01B012201A903EB40008B
S315080058C0FFF70CFA60B131462046FFF7AFFF0090AC
S315080058D02B46401C00907F2200A92046FFF7BAFEFF
S315080058E0F7BDF8B5234C20780027002830D1194891
S315080058F00588607800281ABF1F4806882E461C4867
S3150800590007783846471E02281BDBFFB2B81900F095
S315080059104AF8BDF800000028F3D01A48008807FBAB
S31508005920006000F03DF80020ADF80000BB190A48F9
S315080059305B1B012200A9FFF749FE48B101F002FEF0
S3150800594006E03046FFF714FBFFB20FB901202070BE
S315080059503846F2BDB0CD020800E00208E82B002068
S3150800596070CE02084CCE020828CE0208A8290020CC
S31508005970ACCD02088A2F0020B4CD0208B2CD0208A9
S31508005980B6CD0208AECD0208BACD0208E4CD0208AB
S31508005990BCCD0208C0CD020800D10208B8CD020865
S315080059A080B2FFF7E5BA012200A980B2FFF776BAFE
S315080059B073696D2D656570726F6D2D696E7465728C
S315080059C06E616C2E6300000070470120704700204E
S315080059D070470020704700207047002070477047C6
S315080059E070477047F8B50D4C2768060014D0FEF7C7
S315080059F0A7FF0B4D21682A7821F8126037F8021B99
S31508005A00B142FBD1FEF7B2FFB81E2168401AC005A5
S31508005A102978000E884200D1FF20F2BDEC1A00203A
S31508005A20F01A002010B57348734C00682060606057
S31508005A3048220021FFF7E1F87048216800780870CD
S31508005A40002021680873216848730B202168887331
S31508005A5003202168C8734FF6FE71206801824FF64D
S31508005A60FF71418200F088FB2168087600F084FB0C
S31508005A702168487600F080FB2168887660482168AE
S31508005A800078C8765F492068096881625E490978A6
S31508005A9080F82C105D4821680068086310BD10B5B1
S31508005AA0FCF74CFE544C6168897B884203D0084653
S31508005AB0FCF73CFE50B9FCF744FE0146606890F9D5
S31508005AC00F00814204D0FCF740FE08B1012010BD4A
S31508005AD06068008AFEF755FA6068408AFEF759FA48
S31508005AE06068007B012818BF0020FEF734FA002002
S31508005AF010BD10B5464C0020207001F07EFF20B97D
S31508005B002046BDE8104001F0ABBF02F073F908B1BA
S31508005B1002F0A1F962E080B5002000F015F828B17E
S31508005B20002000F005F808B1002002BDFF2002BDE4
S31508005B3031480068407B02281CBF1128432801D140
S31508005B4001207047002070472B480068007B012819
S31508005B5018BF022804D003281CBF0628072801D12D
S31508005B6001207047002070470020704700207047CA
S31508005B707047704700207047012070477047002023
S31508005B80704700207047704770470020704780B5FF
S31508005B900020FFF7CDFF18B1BDE802400020D3E78B
S31508005BA002BD80B50020FFF7C3FF30B11248006878
S31508005BB0007B032801DA002002BDFF2002BD10B5D4
S31508005BC0040004D0E5210FF26C00FEF7D5FE094863
S31508005BD00068482101FB040007494860BDE81040F9
S31508005BE05DE705484068008A704703484068408A70
S31508005BF0704700000C1B0020A42B0020541B00201B
S31508005C00551B0020141B0020181B00201C1B0020FD
S31508005C10942B00207047002070470020704702F040
S31508005C2076B97047704702F0DCBB02F0C7BD02F0D8
S31508005C305DBF0000656D6265722D6D756C74692DAA
S31508005C406E6574776F726B2D737475622E630000C0
S31508005C5038B504460D46012003F024F85F48002DA8
S31508005C6012BF00210178491C01705D4844705D48E7
S31508005C70FDF73EFEBDE83240002003F013B810B52C
S31508005C800028144643D0402823D0882818BF8928DE
S31508005C9044D08D2831D08F284AD15348007804281B
S31508005CA00DD144B151490220087040F60620BDE8DE
S31508005CB0104002F0FFBFFEF7DFF8312034E0012084
S31508005CC001F024FCFEF7D8F8002C0CBF3120002088
S31508005CD02AE003F01DF8FEF7CFF84048444900785B
S31508005CE00978884204D2BDE8104000210120AFE7B8
S31508005CF0002001F00BFC402016E0002001F006FC15
S31508005D00FEF7BAF800212020FFF791FF0BE00120EB
S31508005D1001F0FCFBFEF7B0F8002005E0002001F0DA
S31508005D20F5FBFEF7A9F88D20BDE8104002F0B6B9DC
S31508005D30BDE81040A6213BE02C480078022800D098
S31508005D40704780B52B480078042807D00C280ED158
S31508005D5029480078022818BF7C2808D102F0C5FF18
S31508005D60FEF78AF8BDE80240002002F097B901BDA7
S31508005D7038B50024FEF7E4FD05461C48007810B93E
S31508005D80FDF7E0FC04462846FEF7F0FD002C1CBF94
S31508005D90BDE8314001F0D4BB31BD80B5FFF7E8FF5F
S31508005DA0BDE804404FF4A051144801F064BEE22156
S31508005DB00FF25000FEF7E0BD38B5114C2068216C93
S31508005DC001EA0005ADB2680705D5206C20F004008D
S31508005DD0206401F0F1FC256031BD0000E72F0020AA
S31508005DE0141D0020DC2D0020531D0020D02D00207E
S31508005DF06C1D0020C72F0020C82F00203C2F002034
S31508005E0008A000406D61632D656D3235302E630044
S31508005E1070B504460D461646FEF783F838B1607825
S31508005E20002E14BF40F0200000F0DF006070294605
S31508005E30204603F066F8FF2821D0974C0146201D1E
S31508005E4003F093FA954D28882188401C288080B253
S31508005E5081420AD26888401C6880201D03F09AFA9D
S31508005E6002F0CCFF2888401E28802088298888428E
S31508005E70F3D3BDE870408A48007801F0DFBE70BDF4
S31508005E802DE9F04FA5B082460027FEF759FD834C51
S31508005E902188491E2180FEF769FD504602F03AFF27
S31508005EA090F8009081784078009700EB01201FFA5F
S31508005EB080F800F0D4F8A0F108020823D2B25146BF
S31508005EC002A803F03AF802AD6878FFF75CFE754859
S31508005ED0007808B3606800281DD0E878FDF7D5FC7F
S31508005EE04946FDF7D9FC074695F9020000F1660513
S31508005EF00020009009F10103DBB20022514604A8F4
S31508005F0003F01BF8FFF73AFE63686AB2394604A83D
S31508005F109847FFF739FE98E008F0070002282DD0C9
S31508005F20FF208DF80400504602F0F4FE00F1010B44
S31508005F30584603F0D5FA0446A9EB0400801E46B27B
S31508005F40002E1BD45FEA885003D508F00700032803
S31508005F5010D101A9584603F07DFC002876D108F037
S31508005F60070001280BD19DF8040004EB0B0104F08F
S31508005F7090FF20B99DF8040002F040FF66E04A4908
S31508005F809DF804000968475C4849096800F801A0BB
S31508005F9000F065F800F120019DF80400C9B202F08E
S31508005FA0BFFE9DF8040003F065FA00F00C00042813
S31508005FB01CBFA619002470B280B20090631C9DF81D
S31508005FC004009BB25246394603F09EF9F1199DF832
S31508005FD00400C9B203F05DF8354968780978884243
S31508005FE004D3CD210FF2D000FEF7C6FC9DF80400BD
S31508005FF003F03BFA69788004800C40EA81319DF809
S31508006000040089B203F033FAE878FDF73EFC494606
S31508006010FDF742FC02469DF80400032103F004FA4A
S31508006020A87800F166029DF80400D2B2042103F0B4
S31508006030FBF99DF808209DF80400052103F0F4F902
S315080060409DF804A0504602F085F80127504602F054
S31508006050D5FEFFF799FD384625B0BDE8F08F124802
S3150800606000681AF80000704710B50C4C618829B111
S31508006070C9B21D20FFF7DBFD002060800D4803F044
S3150800608089F9FF2803D0FFF7FBFE0028F6D010BDDC
S31508006090084803F0A5B90000641D0020C42E00209E
S315080060A0C52F0020C52D0020D81A0020E01A002090
S315080060B0101B0020681D00206D61632D72656365E5
S315080060C06976652E630000000268174912BACA602D
S315080060D0426812BA8A60826812BA4A60C06800BA10
S315080060E008607047704710B5104980220A60062379
S315080060F00F4A136007230B6013689B07FCD5002320
S3150800610050F823405B1C24BA042B8C62F8D313681E
S315080061105B07FCD500220B6B1BBA40F82230521CD9
S31508006120042AF8D310BD0000383000400030004083
S3150800613010A0004010B504460846FFF7C5FF2046E4
S31508006140BDE81040CFE7002848BF4042704700002E
S3150800615081B209B94BF6EF610E4A1180000C08BFEF
S315080061604FF6CE20508070470288130448BF4A4035
S31508006170510001801046704738B5064C622120460A
S31508006180FFF7F2FF054641F20B01A01CFFF7ECFFF3
S31508006190684032BD721C0020EFF3118060288041F0
S315080061A0C043C00F70470000002181F31188704773
S315080061B02DE9F04FDFF818469BB0804660681990C5
S315080061C0B8F1070F08BF4FF003080AD0B8F1080F57
S315080061D008BF4FF0020804D0B8F1050F08BF4FF00A
S315080061E00408DFF8F0552868696840EA0120A968BC
S315080061F040EA014000906868400703D5E06940F02E
S315080062000200E0612868400703D5E06940F0040011
S31508006210E06100982969C840C00703D5E06940F0E5
S315080062200800E0610020DFF8A465DFF8AC9530606F
S31508006230B8F1010F00F06F82C0F09882B8F1030F31
S315080062401ED005D3B8F1040F40F09082606017E0C5
S31508006250D9F84000C00703D5E06940F04000E06186
S31508006260D9F84000400703D5E06940F02000E06116
S31508006270D9F84000800703D5E06940F01000E061D6
S31508006280FEF75EFBFCF713F88DF860004FF0000B85
S31508006290D9F84000DFF844A5DFF84475DFF844155F
S315080062A01790D9F844001690DFF83C05C06C159095
S315080062B0DFF83405006D1490DFF82C05406D139057
S315080062C0DFF82405806D1290DAF800001190DAF8EC
S315080062D004001090DAF814000F90DAF824000E90F3
S315080062E0DAF834000D9038680C9078680B90B86826
S315080062F00A90F86809903869089078690790B8692B
S315080063000690F8690590B86B0490DFF8E004006819
S315080063100968039102212160DFF8D41409688DF811
S315080063200410DFF8D01409688DF80510DFF8C814D2
S3150800633009688DF806104FF0FF316162DFF8BC146A
S315080063400968C9040BD56968C90708D5E169C90789
S3150800635005D5316841F480714FF0010B3160DFF8E3
S315080063609C14096889040BD56968490608D5E1694A
S31508006370C90705D5316841F480414FF0010B3160FA
S315080063800121DFF87824126852040ED5009AEB68CA
S31508006390DA40D20709D5E269D20706D53268EB6832
S315080063A001FA03F31A438B463260DFF85024126869
S315080063B0120410D5009A2B69DA40D2070BD5E26988
S315080063C0D20702D4E269120705D532682B698B46D3
S315080063D0994011433160DFF824140968C90308D5C8
S315080063E0E169090605D5F17841F008014FF0010B7E
S315080063F0F17000216A68D2076A6848BF4FF4805175
S315080064005206009AEB6848BF41F40051DA40D207B9
S31508006410009A2B6948BF41F48041DA40D207E26905
S3150800642048BF41F40041D20605D4E269920602D477
S31508006430E269520601D541F01001E269120648BF29
S3150800644041F4803108400290A520FBF727FF012080
S31508006450E063E069A16B11B1616A0142FAD0616A31
S31508006460014200F0F5800020E0634FF0010BF07860
S3150800647040F04000F070FEF769FA0D98DFF86813EF
S31508006480CAF834000720C9F800000F20086004F095
S3150800649085FD1998D44960601798C9F84000169880
S315080064A0C9F844001598C86414980865139848658F
S315080064B012988865CD491198CAF800001098CAF84C
S315080064C004000F98CAF814000E98CAF824000C980D
S315080064D038600B9878600A98B8600998F860089848
S315080064E03861079878610698B8610598F861049844
S315080064F0B86302980860BB49039808604FF0FF30FC
S31508006500BF490860BA4800683070BA4800687070B9
S31508006510B9480068B070626AE06910402A69336851
S3150800652001994B4000990B400106490E01F0010103
S3150800653043EA81230106890E01F0010143EA81033A
S315080065400106C90E01F0010101FA02F21A4300F42C
S315080065507C7042EA00503060FEF7F2F9FEF704FA62
S31508006560002020609DF8600008B1FBF78AFEF078ED
S315080065709E490968C90304D5C0F3C00109B12021A1
S315080065802162D9F84010890704D5C10744BF022102
S31508006590C9F80C10D9F84010490705D5C0F34001D1
S315080065A011B10421C9F80C10D9F84010C90705D54E
S315080065B0C0F3800010B10120C9F80C0030688A4980
S315080065C0C96C11F0E00F05D0C10503D58B4A4FF40D
S315080065D0805111608449096D11F0E00F05D041041E
S315080065E003D5864A4FF4005111607F49496D11F071
S315080065F0E00F08D0E96820FA01F1C90703D57F4AF8
S315080066004FF4804111607849896D11F0E00F07D089
S315080066102969C840C00703D578494FF40040086087
S31508006620BBF1000F6ED17748006800056AD560682F
S31508006630800767D5B8F1040F64D06C480068C006B7
S315080066403DD56E480068C00639D50120307159E03D
S31508006650BBF1000F7FF40BAFDAF818006149400868
S315080066604000CAF818005F48806840F00400886057
S3150800667040F2072164480088884201BF6248408882
S315080066804FF20F01884205D15F494CF23C304880F1
S315080066904FF0010B012004F0BBFCBBF1000F05D045
S315080066A059494FF20F0048804FF0000B554855499D
S315080066B040680004B06089680843B060DDE6FBF70F
S315080066C0D9FD5249B0FBF1F04FF47A7148432F30A7
S315080066D03021B0FBF1F0002131714D494A6D42F08D
S315080066E001024A650A68474B464C5B68A46844EA57
S315080066F00343B468A34205D10B689B1A1B031B0B03
S315080067008342F0D3F07840F08000F0701BB0BDE80B
S31508006710F04FFFF749BDFBF7CAFD0446A520FBF776
S31508006720BDFDFEF713F9FFF73FFD3A4F3E6838689F
S31508006730400840003860FEF70FF9DFF8DCB0DBF8F8
S315080067400050DBF8000020F04000CBF80000FEF710
S31508006750FFF8CBF800503E60FEF7FEF80CB1FBF7E9
S3150800676090FD1BB0BDE8F04FFEF7FEB81BB0BDE8C4
S31508006770F04F40F24C410FF2AC00FEF7FDB811F1B4
S31508006780010F144A07D0CBB21360C1F30723536035
S31508006790C1F307419160002320490B601368002B61
S315080067A004BF5368002B01D192681AB10A6842F0F7
S315080067B001020A600A6842F400720A600A6842F036
S315080067C080020A60F4E41649D9E70000402A00204E
S315080067D00400004008BC004014A0004004400040EB
S315080067E00050004008ED00E014A8004000E100E079
S315080067F008B0004008B4004008B8004000E200E0D5
S3150800680080E200E00C6000400000002090D0030009
S315080068103820004094ED00E0008000402000004051
S3150800682000404000736C6565702E6300034801885C
S31508006830034808237F22FCF713BC00BF02D20208D4
S31508006840D82B0020DFF8D802016C41F4C04141F092
S31508006850090101644FF6FF7101602020DFF8C412B8
S315080068600860704770B515461E46002804BFBDE887
S31508006870614004F0F3BB012835D113293CBF0FF260
S31508006880DC20095C08096422504301F00F010B293A
S3150800689003DA884006E00A2250430A46511ED2B25D
S315080068A00B2AF8DA01460120FCF724FBE0B9300987
S315080068B007280CBF00200220012D08BF40F0180051
S315080068C003D0022D08BF40F0080006F00F01022988
S315080068D09549A8BF40F00400886001200860FFF7CA
S315080068E0B1FF002062BD212062BD38B5040012D177
S315080068F08E480468608828B14FF42C710FF2542032
S31508006900FEF73AF8A188C9B2A01D00F01DFB0020C9
S31508006910A080208031BD012802BF83480068012875
S315080069200FD1FEF70DF805468148016841F00601CA
S315080069300160012000F09AF82846BDE83240FEF7CB
S3150800694015B831BD012804D17948016821F006013E
S315080069500160704780B50B46114620B9184600F00D
S31508006960F3FA002002BD012802BF72488269012A93
S3150800697007D0212002BDC2685207FCD513F8012BA7
S3150800698002600A46511ED2B2002AF4D1C1684906ED
S31508006990FCD5E6E710B50446FBF77CFC012C03D1D1
S315080069A0674800684006FBD510BD70B5624A634B60
S315080069B012680CE0158810F8014BAD18AC711488F4
S315080069C01D8800F06DF814809488641C94800C4629
S315080069D0611EE4B254B194885A4D2D886D1EAC429E
S315080069E0E8DBBDE870402321002079E070BD2DE981
S315080069F0F84304465048DFF84491DFF848814D4F84
S31508006A00254650F8256014E0B18838F81520521E3E
S31508006A1091421CDA318889198871308839F815103D
S31508006A20401C90FBF1F201FB12003080B088401C3C
S31508006A30B080F868800716D5F86810F0380138680D
S31508006A40E2D0080705D4C80605D5242107E0232186
S31508006A5005E0272103E088064CBF252101212046B1
S31508006A6000F03EF8E5E7BDE8F183704770B52F49B9
S31508006A70354A51F820102F4B0CE04C886418A4793D
S31508006A801C604C8832F8105000F00AF84C808C884C
S31508006A90641E8C808C8814B1DC686407EDD470BDE4
S31508006AA0641C94FBF5F605FB16447047704738B529
S31508006AB01B4C0FE046F229700542256003D0A9B2A7
S31508006AC00120FFF794FF41F6D60005421CBF0120BE
S31508006AD0FFF7CCFF2068216C11EA0005EAD131BD29
S31508006AE030B5154A194C52F82020055D184B25B9C2
S31508006AF0128823F81020015530BD33F81030138062
S31508006B000155138851888B4205D20E4C34F8100073
S31508006B10401A181800E0581A908030BD000000008E
S31508006B2008A8004000E100E054C80040981C002076
S31508006B3048A800403CC80040A81C002088740008EB
S31508006B4048C80040A4CD020880740008882900209F
S31508006B508C290020756172742E630000306090C025
S31508006B60C1C2C394C495C55C96C6AC9798990D00E6
S31508006B702DE9F041454C464EDFF818810020206586
S31508006B804FF40055356002202060E560002020653E
S31508006B90206D40F0600020650E2000F01DF888F892
S31508006BA000004FF4804700206065376004202060AD
S31508006BB0E76016203849086000206065606D40F07F
S31508006BC060006065162000F007F888F80100334871
S31508006BD005600760BDE8F0810E2802D0162802D0AD
S31508006BE009E02F4800E02F480068800900F00100FE
S31508006BF080F0010070470020704710B523484FF415
S31508006C000051C160022101600E20FFF7E5FF214C0B
S31508006C10227801468A4218BF21700DD1501E804144
S31508006C20C00F20700E20217804F098FF2178481EA6
S31508006C308041C00F20702178BDE810400E2004F076
S31508006C408DBF10B511484FF48041C1600421016021
S31508006C501620FFF7C1FF0F4C627801468A4218BF1B
S31508006C6061700DD1501E8041C00F6070162061788A
S31508006C7004F074FF6178481E8041C00F6070617827
S31508006C80BDE81040162004F069BF000014A80040B3
S31508006C9080E100E0982F002014BC004000E100E0ED
S31508006CA008B4004008B8004010B50446FDF748FE91
S31508006CB04E49302008604E4908604E490860102049
S31508006CC04D4908604FF20F01200A00284B4808BFBB
S31508006CD0240204804180BFF35F8F49480021016088
S31508006CE0416048484849086010BD10B5474C2068BF
S31508006CF0C0060BD5464941480A68C0F89420496839
S31508006D00C0F8901040F60620FFF7CEFF2068C007AF
S31508006D1008D5404903200870206C400840002064CC
S31508006D20012020602068000703D5206C20F00800A9
S31508006D30206410BD80B5002000F009F830B9BDE820
S31508006D400440FC210FF2E000FDF716BE01BD2DE957
S31508006D50F044314C21680D1A15F01F0105D00028A2
S31508006D6052BF6D1A681A00F120052C48A5F12006B5
S31508006D70A84224BF2A48864203D3EFF308808542F7
S31508006D8001D300202DE0FDF7DBFD8246254800688B
S31508006D9010F0010718BF04F019F9206801468D4262
S31508006DA006D2A84224BFCD2100F80119F9D206E07F
S31508006DB02038002201E000F8012B8842FBD3256029
S31508006DC0304604F008F9E22001E006F8010BAE426D
S31508006DD0FBD30FB104F0E2F85046FDF7C7FD206873
S31508006DE02038BDE8F0840C48006870473020004021
S31508006DF030C8004030C0004010D0004000000020DD
S31508006E001C4000400400FA050CED00E018A0004004
S31508006E1030500040CE2F0020241D00207010002086
S31508006E20380F002094ED00E06D6963726F2D696E6E
S31508006E307465726E616C2E630000000030B52248DE
S31508006E4001680020002201249440CBB2234213D0CB
S31508006E500FF284001D4C30F8120006284CF23C3222
S31508006E604FF20F031DD16088984216D12188080A6F
S31508006E700B2812DA084612E0521C92B2082AE2D30C
S31508006E801349088140F201720889904204D11148D9
S31508006E90D0E90023C1E9002330BD4FF4C060628009
S31508006EA0EEE740F20725A84201BF6188994221888A
S31508006EB0A942E5D162800846E2E705480089000A4A
S31508006EC070470348008970472C00004000000020E6
S31508006ED0B01F0020900000200104020401030105F0
S31508006EE0060007020309010970B5B24C204602F0F4
S31508006EF077FAD8B9204602F04DFAFF28044615D08D
S31508006F00AD490968405C851EE9B2204602F0C4F91D
S31508006F100646E9B2204602F0BCF82146304600F0A3
S31508006F20F7F82046BDE8704001F068BF70BD03461B
S31508006F300A469EA10420FFE70CB480B502AA00F019
S31508006F403CF801BC5DF80CFB21B103460A4698A142
S31508006F501120F1E7704700B587B0FDF79BF90021CE
S31508006F6005910491024657210391002300210291BD
S31508006F7001910120914900910FF25021FFF7DCFFA2
S31508006F808F488179C3788278039101880291417983
S31508006F9001910179009142200FF23C21FFF7CCFFC5
S31508006FA007B000BD10B504462146824802F0DDF957
S31508006FB02046BDE8104001F013BF2DE9F04F85B01B
S31508006FC005460C469046002600F0A4FAF8B904F0E7
S31508006FD07AF8E0B1012001F0A8FE8246BAF1FF0F67
S31508006FE015D0002101F09CFE294601A804F07BF883
S31508006FF005469CB900F087F830B9504604F0EDF81C
S3150800700010B1042000F082FA504601F0F7FE05B0F0
S31508007010BDE8F08F8DF804200125641C207800282F
S31508007020E8D0A0F130010A2905D20A2101FB0600A1
S31508007030A0F13006F1E700F066F80028E4D12278DE
S315080070400025422A01A80ED0442A1AD0462A25D05D
S31508007050572A0DD0622A3AD0662A2AD06C2A25D019
S31508007060702A26D0D6E758F8040B8DF80400D3E723
S3150800707058F8041B8DF8041002250904090E4170FE
S31508007080CBE758F8041B8DF804100A0A4270042549
S315080070900A0C8270080E8DF80700BEE758F8041B24
S315080070A0504601F0B6FF0028B7D0ADE758F8046B94
S315080070B0B3E7012358F8041B662A08BF0223F2B275
S315080070C0504601F088FF002808BF0026ECE73A483A
S315080070D058F8041B00681AF80090CFB2FF2F9CD00E
S315080070E017F800B00BEB0901C9B2504601F0D1FF01
S315080070F0002889D1CDF800B000233A4649465046C3
S3150800710002F002F989E72A4601A9504601F07FBF35
S315080071102DE9F043122885B080460D4609D03A2855
S315080071201DD04FF6FE71884204BF284600F0FBF9D1
S3150800713034E02148234F00682E5C08E0284601F019
S31508007140E9FD2146FFF731FC38682D5C203EFF2D0E
S3150800715024D0F6B2212EACBF20243446EEE700F048
S31508007160CEFD8146FCF712FF0646FBF7EAFA07460C
S31508007170FBF7E4FA0446FCF701FF02460F480FF254
S3150800718060010390CDF8109023460F4800684088A8
S315080071900290019600973B20FFF7CEFE294640460F
S315080071A005B0BDE8F04300F0B7B900005746000047
S315080071B06C700000201D0020D81A0020D82B002053
S315080071C004D20208E01A0020A42B0020424238709C
S315080071D0424242425742420042424242574200001D
S315080071E05742425757387042000000002DE9F047D1
S315080071F00446884691469A4600F031F9002801BFB0
S3150800720025460FF27820285C012823D1DFF8406252
S3150800721056F82570FDF794FB0021B98039807980EE
S31508007220FDF7A4FB06EB85000669FDF789FBDFF889
S3150800723024220021B18031807180A954FDF796FB84
S31508007240FFF734FC53464A4641462046BDE8F04718
S31508007250FFF708BB2120BDE8F08710B50446FFF705
S3150800726004FCDFF8EC0100EB84000069808810BD9F
S315080072702DE9F84381464C46DFF8D40100EB84003B
S3150800728088460669484600F0EAF808B1012037E062
S31508007290DFF8C051605D05EB440760B1B8887188B6
S315080072A0884208D1FDF74CFB665D00216155FDF764
S315080072B05DFB304624E04846FFF7D7FBB088F0B1BF
S315080072C0FDF73EFB71880FF2C0128919897988F893
S315080072D000104FF6FF78718832F8142000F03BF85A
S315080072E07180B1884144B180FDF740FB605D20B1F3
S315080072F0B888404504BF3088B880002000E02620C2
S31508007300BDE8F2830FF27411415C01290AD10FF22C
S3150800731064114F4A31F8101052F820008088081A74
S3150800732080B270470020704710B50446FFF7EAFFA1
S315080073300FF2401131F81410081A80B210BD808877
S315080073400FF2301333F81110891A884201DA012036
S31508007350704700207047491C91FBF2F302FB13119A
S3150800736070472DE9F84F804647460FF21010385CF3
S3150800737001288B46164638D135480FF2141950F8AD
S3150800738027400FF2FC0A002514E0FDF7D9FAA18878
S3150800739001B9012522881BF8011B12199171218850
S315080073A03AF81720FFF7D7FF2180A188491CA1804A
S315080073B0FDF7DCFA3046461EC0B288B100224146C7
S315080073C02046FFF7BCFF0028DFD11DB14046FFF776
S315080073D08CFA002517F809000028EFD1222005E0CD
S315080073E04046FFF782FA002000E00120BDE8F28F50
S315080073F080B501460FF284028A5C012A05D1144A37
S3150800740052F821108A88002AFCD1FFF7C3FA002017
S3150800741002BD0CB438B504460D46FFF793FA04AB23
S315080074202A4621460C4804F05CFD0FF2500120461E
S31508007430415C012907D1064951F82000808810B11E
S315080074402046FFF752FA32BC00205DF80CFB00001C
S31508007450981C0020882900205569000870470428D0
S3150800746006DA0FF21801415C481E8041C00F7047CA
S315080074700120704780008000000000000101000024
S3150800748080008000000000008000800000000000EE
S3150800749001010000002204F037BE000062F30F224B
S315080074A062F31F42401810F0030308D0C91A1FD30D
S315080074B0DB0748BF00F8012D28BF20F8022D13006E
S315080074C030B414461546103928BF20E93C00FAD8CE
S315080074D0490728BF20E90C0048BF40F8042D890059
S315080074E028BF20F8022D48BF00F8012D30BC704790
S315080074F0C91818BF00F8012DCB0728BF00F8012DC1
S31508007500704770470EB403B07047704770470CB4A5
S3150800751002B07047002070470020704770477047D8
S31508007520704770477047704770477047002070472C
S31508007530704770477047704770477047002070471C
S31508007540FBF7BEB870B5044643380FF2840508D079
S31508007550401E012809D9801E01280ED9C01F32D025
