S0110000656D3236302D756172742E73333790
S3150000400020640020ADAB0200D5AA0200D9AA0200A6
S31500004010A70A090100410000041809AC00579B01DA
S31500004020000000000000000000000000000000008A
S31500004030000000000000000000000000000000007A
S315000040400000000000000000FFFFFFFFFFFFFFFF72
S31500004050FFFFFFFF007003000000000000000000EB
S31500004060FFFFFFFFFFFFFFFF10FFFFFFFFFFFFFF49
S31500004070FFFFFFFFFFFFFFFFFFFFFFFFFFFFFFFF4A
S315000040800000000000000000EC7F0020EC7F002014
S3150000409020640020D8CA0200E0AD0200C05A002009
S311000040A0EC0F00200000040000000000EF
S3150000410020640020ADAB0200D5AA0200D9AA0200A5
S31500004110E1AA0200DDAA0200E5AA020061AB0200E4
S3150000412061AB020061AB020061AB020061AB020051
S31500004130E9AA020061AB020061AB020061AB0200BA
S31500004140934E02009124020003010200992402000A
S31500004150C5240200A3240200A1240200BD240200FB
S3150000416017A402002F8F0200056F020065AB020044
S3150000417061AB020061AB0200D1A8020061AB020094
S3150000418061AB0200518F020061AB020061AB02001D
S3150000419061AB020061AB020061AB020061AB0200E1
S315000041A061AB020061AB020061AB0200AD2402000C
S315000041B0B5240200774C020061AB020061AB02003D
S315000041C061AB020061AB020061AB020061AB0200B1
S315000041D061AB020061AB020061AB020061AB0200A1
S315000041E0DFF800F0218E02002DE9F0410D46002691
S315000041F0002D044645D0DFF8AC816B4FA2B9FFF71E
S31500004200EFFF0020A8423CD254F8041BF960401C82
S3150000421008213960414601E089B3491E3A69D2074F
S31500004220FAD40029EED12AE0FFF7DAFF002072B6B1
S315000042305E490A6812F1010F11D0521C0A600EE0A5
S315000042403A6902F01902102A08BF3A603A69120761
S31500004250F6D554F8042BFA60401C10223A60A842A6
S31500004260F4D3086818B1401E086000D162B6414612
S3150000427001E021B1491E3869C007FAD409B96FF0C7
S3150000428002063046BDE8F0812DE9F047484F9A46D0
S315000042903B68814643F0010300203B6094080025FB
S315000042A0884602E0751908EB8608A5422DD209EB6F
S315000042B085003C4901E021B1491E7A69D207FAD44A
S315000042C011B96FF0020024E0B860012179607969C4
S315000042D011F0060F09D04A0702D54FF0FF3018E05B
S315000042E0890702D56FF0010013E04005400DC0F5C7
S315000042F000608608601BB04238BF0646524631460B
S315000043004046FFF771FF0028CCD0396849084900BC
S315000043103960BDE8F0872649224A0B6843F001035D
S315000043200B608860012048604869400706D5086828
S315000043304008400008604FF0FF307047486980072A
S3150000434006D508684008400008606FF00100704715
S315000043500220486001E022B1521E4869C007FAD423
S3150000436032B908684008400008606FF002007047E4
S31500004370086840084000086000207047002383E773
S315000043800B48016841F00101016046F21A31C1642F
S315000043904FF4807141604169C907FCD40021C164B2
S315000043A000207047809698000C000E40FC7000209C
S315000043B008000E4010B5044601F078F8204602F0D9
S315000043C058F9204602F009FD2046BDE8104003F0EA
S315000043D0B3B902F04BBD10B5044601F0A0F8204673
S315000043E002F076FD204602F061F9204603F0C9F995
S315000043F02046BDE8104003F044BB10B500E010B500
S31500004400044601F0E4F8204602F047FE204602F09A
S3150000441053F9204603F0D1F9204603F09CFB2046D1
S31500004420BDE8104003F0DBBD10B5044601F0FCF812
S31500004430204602F052FE204602F055F9204603F0CF
S31500004440EAF90CE010B5044601F013F9204602F033
S3150000445081FE204602F047F9204603F0F9F920468E
S3150000446003F091FB204603F0D2FD2046BDE8104044
S3150000447003F03BBB80B504F027F803F0A8F8BDE8CD
S31500004480014002F079B910B5044603F06DFC2046F0
S31500004490BDE8104003F03DBB80B504F088F8BDE8E8
S315000044A0014003F09BB870472DE9F0471038E42827
S315000044B0AAB04FF00108DFF8B897DFF8B857D6A1D1
S315000044C0D6A4D7A7D7A60FF2603A00F24E87DFE848
S315000044D010F028014C074C074C070605B703BC0330
S315000044E04C0789034C07DA034C074C078903E7039B
S315000044F0EE0389031C0189034C074C074C074C0744
S315000045004C07E500EB008903550144047401890357
S3150000451061049B034C074C0779017C014C07AD01F4
S315000045200302D7013B024C074C074C074C074C07CC
S315000045304C074C07660454024C074C074C074C07C3
S315000045404C074C074C07FF004C074C074C074C0721
S315000045504C074C074C074C074C074C074C074C07BD
S315000045604C074C074C07660289036F049B037904CA
S31500004570800496049E044C07B102C1024C07EB046A
S315000045804C07A704BF04D4020C054C074C074C0784
S315000045900203D303D402CA04AB030F05E004FB04F1
S315000045A0AB034C070A04890324044C074C07850413
S315000045B090044C074C077B02760389038903890321
S315000045C0890389037D03890389037E0589034C07D3
S315000045D04C072E074C074C074C074C078903CC02A7
S315000045E04C074C073E0489034C07F9034C074C075C
S315000045F014054C0789036C054C0589033A056503C8
S315000046004C071E0339034C074C074C074C074C0755
S3150000461055035C058903990687059E05AA054C077F
S315000046204C074C07AE06B3064C07B606C106B205E4
S31500004630AF054C074C074C074C074C074C07760652
S315000046404C074C0751064C074C074C074C074C07C8
S315000046504C07B505C005C806CB05D5054C074C0764
S31500004660F3050106CD064C074C074C07FC064C0724
S3150000467004064C074C0715064C074C071A06240679
S31500004680380689034C0727054C0742057203890340
S315000046903F064C074C074C074806010701A900A82E
S315000046A002F03AFB00F01ABE08208DF809000DF161
S315000046B00A0103A802F06EFB8DF8080003AB0DF1AA
S315000046C00A00019002AA0DF109000090BCA1ADE11B
S315000046D008208DF80F000DF10E0200F074FE9DF813
S315000046E00E0003AB05AA04A902F065FB8DF80D00C8
S315000046F004AB03A802900DF10D020DF10F0001901D
S3150000470005A800900FF6085190E101AB0DF10102EA
S31500004710ACA100F053FE01999DF8010002F05AFB8E
S31500004720A2E10DF1150004900DF11E030DF1160026
S31500004730039006AA0DF1170002900DF11A000190E0
S3150000474007A8009001200FF6D04104F00CF99DF85F
S315000047501500BDF81A30BDF81C20BDF81E100290D9
S315000047609DF8160001909DF8170000909DF818001E
S3150000477004F0B3F98DF8140005AAE2E103F018FF7E
S3150000478000F019FE8DF8000003F012FF8DF801000D
S3150000479003F03AFFADF8020003F00AFF8DF80400BB
S315000047A00DF1050100F031FE03F002FF8DF80D005A
S315000047B000A9284603F010FC07E203F0F9FE03F017
S315000047C00CFC02E204F0B7FD4EE10DF1120304AA5F
S315000047D0E9A100F0F3FD06A803F066FF03A8019027
S315000047E003AB05A800900DF10F022146404604F0E8
S315000047F0BAF80DF10D00029006AA05989DF80F3043
S31500004800BDF8121001909DF80C0000909DF8100064
S3150000481002F0A9F92DE000BF760000007575700062
S315000048207570000075000000757500000DF112022C
S31500004830012004F098F806A803F036FF03A80290BA
S315000048400DF10F0305A8019004AA03A800F0C7FD07
S315000048500DF10D00029006A905989DF80F309DF800
S31500004860102001909DF80C000090BDF8120002F097
S3150000487083F98DF80E000DF10D030DF10E025EE0C9
S3150000488007A803F011FF04A8039005AB06A8029041
S315000048900DF1150204A801900DF1130000900120FE
S315000048A00FF67C3104F05FF89DF813309DF8142064
S315000048B09DF815100DF111000290069801909DF8D3
S315000048C01000009007A802F063F98DF812000DF1B0
S315000048D011030DF1120232E00DF1190000900DF1F5
S315000048E01A0307AADCA100F073FD09A803F0DCFE99
S315000048F005A802900DF1170308A8019006AA05A8BD
S3150000490000F06DFD0DF11500049009AB08989DF8B7
S315000049101920BDF81A1003909DF8140002909DF816
S31500004920170001909DF818000090BDF81C0002F0D9
S315000049304AF98DF816000DF115030DF116025146D0
S31500004940002004F010F86EE10DF10602012004F0DB
S315000049500AF803A803F0A8FE01A8009002AB01AA7A
S315000049603946404603F0FFFF029B9DF80420BDF840
S31500004970060003A902F057F92FE10DF1050000909A
S315000049800DF1060302AAB5A100F022FD9DF805204F
S315000049909DF80610BDF8080004F01EFEE7E000F0E2
S315000049A023FDAFA100F014FD039A9DF80810BDF891
S315000049B00A0004F0CBFE8DF809000DF10902C0E0F3
S315000049C0756276007577000008208DF811008DF865
S315000049D010000DF10E00029005A801900DF11100D6
S315000049E0009008AB0FF640250DF10F02294600F0A6
S315000049F0EFFC03A802900DF11200019006A80090AA
S31500004A009DF80E30BDF814209DF80F0008A902F09D
S31500004A1038F98DF80D0006AB03A802900DF10D02D2
S31500004A200DF112000190294604A80090002003F021
S31500004A309AFFF8E000F0C5FC9DF8010001A902F01C
S31500004A4045F98DF8000000AA00F0C5FC01A803F0A6
S31500004A5042FEE8E000F0B5FC01A803F041FE9DF837
S31500004A60010001A902F045F9DDE300F0C5FC029959
S31500004A709DF8040002F09CF8AFE000AA00F0A3FC49
S31500004A8028786A289DF8000001A902D104F09CFE4E
S31500004A9001E005F090F98DF801000DF1010200F03A
S31500004AA09AFCBDF8040003F0A8FD9DF8060003F08B
S31500004AB098FD0DF10701102003F0C0FD069803F0E4
S31500004AC0ADFD079803F0AAFD9DF8200003F089FDCF
S31500004AD00DF12101C5E109A803F02BFE00F084FCCD
S31500004AE0214600F075FC04A80090039B9DF8082061
S31500004AF09DF80A1009A802F0FBFD8DF809000DF1DA
S31500004B00090200F068FC04A803F00EFE8BE0082002
S31500004B108DF80E008DF80D0007AB0DF10D0002901B
S31500004B2004AA05A801904FA10DF10E0000F04FFC5C
S31500004B30BDF8100005AA07A905F02FFB8DF80C009B
S31500004B4003AABFE308208DF8050002AB0DF10500AE
S31500004B5000900DF1060244A100F03AFC04A900F011
S31500004B6020FCBDF8060004AA02A905F056FB8DF844
S31500004B70040001AAA6E300BF7576000008208DF8A0
S31500004B8001000DF1010301AA38A100F017FC00F0A5
S31500004B9007FC03A901A802F0C5FD44E300F02CFCC4
S31500004BA002999DF8040002F00BFF8DF805000DF147
S31500004BB0050200F010FC02F01EFF03F012FD03F0E8
S31500004BC0F7FC00B1012005F0CAFDCBE300F014FCB0
S31500004BD002999DF8040005F0CBFD8DF805000DF156
S31500004BE005026FE32A780FF65000002600E0761CD7
S31500004BF0F6B2315C9142FAD103F0DAFC0FF65001BD
S31500004C0051F826108847ADE303F0D2FC064603F0C0
S31500004C10FBFC2978302901460CBFDFF86427DFF852
S31500004C20642730469047A2E300F0BEFB2878772839
S31500004C3000A802D105F0B0FD94E305F0E5FA91E392
S31500004C4003F0E2FCDFF8401703E003F0DDFCDFF8D9
S31500004C503C1708808BE300BF767675007675750085
S31500004C60767570007662620076620000620000006F
S31500004C7040BD0200BE7F002000A803F061FD00A831
S31500004C8006F040F86EE303F093FC054603F0CDFC16
S31500004C9000F08EFB02463146284607F05FF961E3D5
S31500004CA000A803F0E3FC00A805F0B5FE5AE303F004
S31500004CB07FFC054600A803F0D9FC00A9284605F0AC
S31500004CC030FF4FE303F0A0FC054603F0AEFC00F016
S31500004CD06FFB044603F098FC0346224631462846FD
S31500004CE007F05AFD3EE303F063FC00A908F000FA62
S31500004CF003F077FC00F04CFB9DF8020003F071FC1A
S31500004D009DF8030003F06DFC00F046FB9DF80500DE
S31500004D1003F067FC0DF10601A3E003F049FC00A9CE
S31500004D2008F078FC03F05DFC00F032FBBDF80200F1
S31500004D3003F063FC00F030FB9DF8050003F051FC26
S31500004D409DF8060003F04DFC9DF807000AE303F00A
S31500004D502FFC40B208F09DFD04E303F029FC00A9F6
S31500004D6003F05FFA03F03DFC9DF8000003F039FC08
S31500004D709DF8010003F035FCBDF8020003F03DFC90
S31500004D8000F00AFB0DF10501082003F057FC9DF821
S31500004D900D00E7E203F00CFC03F025FA34E003F023
S31500004DA033FC00F008FB0146284608F089FFD9E2EB
S31500004DB003F0FEFB054600F027FB00A928460AF093
S31500004DC0B4F8CFE203F0F4FB00A90AF019F900A940
S31500004DD047E003F0EDFB0AF021F915E000F014FBC3
S31500004DE003F0E6FB010018BF012100A80AF041FA12
S31500004DF0BDE200F009FB00A80AF01EFAB2E200F0DC
S31500004E0003FB00A80AF016FC03F0F7FBAFE203F081
S31500004E10FBFB00A90AF028FC03F0E3FB00A920E055
S31500004E2003F0F2FBADF800000DF1020100F0B9FA53
S31500004E300DF1120100F0B5FA03F0BAFB8DF822006D
S31500004E400DF1230100F0E1FA00A80AF0E3FC89E283
S31500004E5000A80AF07BFD03F0C4FB00F099FA0DF1FF
S31500004E60020108207EE003F0A3FB054601A900F03D
S31500004E70CCFA03F09DFB064600F092FA03A8330035
S31500004E80009018BF012301AA2946002004F0F6FF6E
S31500004E9068E200F0B9FA03F08BFB010018BF0121AC
S31500004EA000A804F0ABFF5DE200F0AEFA03F080FB71
S31500004EB0054602A900F075FA290018BF012102AAC9
S31500004EC000A804F082FF4DE203F072FB002100917E
S31500004ED00A4601460023404604F0D0FF42E200F0B5
S31500004EE093FA00A804F082FE3CE20BF08DFB3EE252
S31500004EF04FF6FF7005F0F2F934E203F059FB054670
S31500004F0006A9302003F05BFB00A9162003F057FB2F
S31500004F10280018BF012000AA06A90BF01DFD21E2FA
S31500004F2003F046FB05460AA94A2003F048FB00A900
S31500004F30252003F044FB280018BF012000AA0AA977
S31500004F400BF017FD0EE200A80BF00DFD03F049FB78
S31500004F5000A9302006E000A80BF010FD03F041FB8D
S31500004F6000A94A2003F06AFB01E200F01DFA0FA92E
S31500004F70302003F024FB04A92A2003F020FB04AA16
S31500004F800FA900A80BF000FDECE100F00DFA16A940
S31500004F904A2003F014FB04A9482003F010FB04AADE
S31500004FA016A900A80BF0F2FCDCE106A9162003F016
S31500004FB006FB0CA9302003F002FB00A9152003F024
S31500004FC0FEFA00AA0CA906A80BF0CBFCCAE103F076
S31500004FD01BFB00F0F0F941B228460BF0B3FDC1E12E
S31500004FE00AA900F0DEF903F020FB009003F0E0FAD6
S31500004FF08DF804000DF1050100F0D3F90DF115014E
S3150000500000F0CFF900A90AA80BF010FFAAE103F0FF
S315000050100CFB00F0D0F900F0CBF9024671B228463D
S315000050200BF036FF9EE103F0EFFA0BF07EFF99E1FD
S315000050300CF0FEFA9BE10CF0FFF993E103F0B8FAED
S31500005040054600A803F053FC00A928460CF010FB07
S3150000505088E103F0ADFA00A90CF066FB03F0C1FA93
S3150000506000A803F012FC82E103F0A2FA054600F064
S315000050709BF900A928460CF041FF73E103F098FA6A
S3150000508000F099F9064603F0BFFA814603F090FA5C
S31500005090044603F08DFA074603F08AFA824603F0C7
S315000050A09AFA0290CDF804A0009723464A46314664
S315000050B028460EF011F955E103F07AFA054600A8E4
S315000050C003F0B4FB03F074FA42B200A928460CF0D0
S315000050D0E7FC47E10CF078FD44E103F069FA054688
S315000050E003F092FA064600F08FF903F061FA0346E0
S315000050F000AA314628460CF008FE33E103F058FAC0
S315000051000CF092FE2EE103F090FA054603F08DFABC
S31500005110014628460EF08EFC24E103F049FA00F021
S315000051204AF900F045F9074603F06EFA044603F023
S315000051303FFA009023467AB2314628460CF09EFE8E
S3150000514010E100A803F08CFB00A80EF098FC09E122
S3150000515000A80EF0A1FC03F044FA00A803F06CFBD3
S3150000516005E103F025FA00F026F9014628460EF07F
S315000051708DF9F7E003F059FA054606A803F0EBFBB4
S3150000518003F016FA064603F03FFA814603F03CFAAE
S31500005190044603F039FA074604A900F036F909A9CE
S315000051A000F0FFF809A803904B4604A80290019767
S315000051B00094324606A928460EF0B9FED7E003F061
S315000051C0F7F900F0F8F8064604A803F0C4FB03F06C
S315000051D0EFF9814603F0ECF9044603F0FCF90746C3
S315000051E003F0E6F9824603F00FFA0390CDF808A023
S315000051F0019700944B4604AA314628460EF091FECC
S31500005200C0B2AFE001A803F0A2FA0DF101030DF15F
S31500005210020259A100F0D2F89DF901209DF8021072
S3150000522001A802F08DFC8DF8000000AA4AE003F008
S31500005230BFF90CF01CF995E00CF01EF992E004A9F8
S3150000524000A80CF0EBF800A803F0B2FA04A803F0EB
S31500005250DEFA8CE000A803F0C2FA00A80CF0E6F82B
S3150000526085E003F0A5F901F001FA7BE006A80590B8
S315000052700DF11E0309A8049008AA06A803900DF1D3
S315000052801A00029007A801900DF11B000090012062
S315000052900FF29C1103F067FBBDF81C309DF81B2034
S315000052A0BDF81E1009A802909DF8180001909DF8FF
S315000052B01A000090BDF8200001F0ADF98DF8190034
S315000052C00DF1190200F087F851E003F09DF901F0A5
S315000052D0C1F947E001A900A801F02BFA8DF80100F9
S315000052E000AB0DF101025146002003F03CFB01A981
S315000052F0082003F0A3F9BDF80C0003F07EF99DF831
S315000053000E0003F06EF99DF80F0003F06AF99DF8A0
S31500005310100003F066F9BDF8120003F06EF99DF86F
S31500005320140003F05EF9069803F078F91FE00820F0
S315000053308DF8120006AB04A803900DF1110205A822
S3150000534002900EA104A801900DF1120000F03FF8A2
S315000053509DF8110000B10120059B9DF8102006A9BB
S3150000536001F06FFF03F03DF901E04FF00008404601
S315000053702AB0BDE8F0870000757300007562700002
S31500005380F3810000A9EF0000D0680020D268002059
S31500005390BDF8000003F031B99DF8040003F021B90F
S315000053A003A9102003F00BB900A9102003F007B9D8
S315000053B0064603F0FDB8054603F0FAB8012003F0EF
S315000053C0D2BA0DF101023146012003F0CCBA0090A9
S315000053D0012003F0C8BA3146002003F0C4BA009099
S315000053E04946404603F0BFBA02A8019002AB03A8A3
S315000053F000900DF10A02704701A8009002AB01AAC5
S315000054003946012003F0AFBA00A9082003F0D7B847
S31500005410757662750000000075767676757575008E
S315000054207575757570000000756276750000000070
S315000054307676757675756200181D207A2A848586BB
S3150000544087888B8A8D959A2E5BB1A4A122E8EE00FF
S31500005450D3D7000077C0000055930100DBD00000D1
S3150000546015850000F9090100710A0100870A01008B
S315000054709B0A0100B70A0100410B01002B0B01003A
S31500005480850B0100335E01005DBD0000CBB101005C
S31500005490CFB101001DA000005D0901006B090100EC
S315000054A0E1AA0000770901008509010038B5044624
S315000054B0207898BB6070012020722070A0780328A5
S315000054C01FD0072821D0112804D0152820D0302835
S315000054D014D021E00720DFF86859207204F1090092
S315000054E029880EF02CFDA878E072E87820732879D8
S315000054F060736879A073A879E07331BD0EF045FD3D
S3150000550008E0DFF84009007804E00EF0FDFD01E058
S315000055100FF01AF9607231BD0020207031BD38B528
S3150000552004462078002851D101202070A078042854
S3150000553010D007281BD00E2821D0112841D01528BD
S3150000554029D017282CD0182834D0192835D030283F
S315000055501BD039E0207A01281BD1607A00B10120E6
S31500005560DFF8E418087000200FF06CFB27E0607A83
S3150000557010B10EF097FD25E00EF0A6FD22E0607A50
S3150000558000B101200FF009FC02E0607A0EF0FFFC8A
S31500005590C0B1362016E094F909000FF0ACF80EE021
S315000055A0657A04F10A000EF0C3FC014628460FF0A6
S315000055B077FC04E00FF06FFC01E00FF05FFC0020C9
S315000055C000E03720607031BD0020207031BD10B57D
S315000055D00446DFF878088078217856280CBF012029
S315000055E0002001BBA1706178072910D130B10FF0FE
S315000055F0ADFC012814BF632062200EE0E07862282B
S315000056000CBF012000200FF0A4FCA07009E00429C3
S3150000561009D1DFF83C1810B10878E07001E0E078B5
S3150000562008700120207010BD017809BB817001212E
S315000056300170417801290ED00C2909D017290DD007
S315000056402D2902D035290CD010E0DFF808180AE021
S31500005650DFF8041807E0DFF8041804E0DFF80018A4
S3150000566001E0DFF800180978818070470021017099
S31500005670704738B50446207800285AD1012020709A
S315000056800020A0706078012815D00C280FD01728AC
S315000056903DD02D2802D0352844D048E0A1880329E2
S315000056A03DDAC9B2DFF8AC070FF026FE38E0A08875
S315000056B0DFF8A41739E0DFF8B007008828BBA08818
S315000056C018B3DFF8A857287810F056F80FF0CEF97F
S315000056D080B1A188DFF88407C9B20FF00DFEA07073
S315000056E00FF0CEF9DFF88807DFF888170068C01CCE
S315000056F0086001E03820A07001200FF0D4FF287068
S315000057000020DFF87417088031BD382008E0A08833
S3150000571010F08BFB18B9A088DFF8441705E0362097
S31500005720A07031BDA088DFF83C17087031BD00209D
S31500005730207031BD80B501208DF8000000A8FEF76D
S31500005740A2FE9DF8000002BD2DE9F04FA7B00FF0B4
S31500005750D4F90FF0EFF90746DFF81407DFF8EC4647
S315000057600068DFF8182746788578A57006F00301EB
S315000057708DF8081001782170C11C1160C01CDFF87B
S31500005780F4160860700900F00300E07010F06EFC7B
S31500005790300602D5582532203AE2607820B9A07842
S315000057A010B15825302033E210F000FF10B958250B
S315000057B042202DE2FFF7BEFF002800F02B82A078E2
S315000057C06178DFF8BCB602000FF230280FF23029FC
S315000057D00FF2302A4FF6FF7660D0012800F0D28112
S315000057E0022800F09880032800F0E980052834D0CC
S315000057F0062800F03281092818BF0A2800F03581F2
S315000058000B2818BF0C2800F037810E2800F04181C4
S31500005810122800F08781132800F0B981172800F0BC
S31500005820C681262800F0B981272800F0BB814728C9
S3150000583000F0B081492800F026814E2800F05381FF
S31500005840522840D0532855D0552800F07B80562842
S3150000585000F08F8065281ED0812800F0F3808F2805
S3150000586000F0A881912800F0C281942800F0AE8152
S315000058709D2800F08281AA2800F09780AB2800F0CE
S31500005880C380AC2800F0D580AD2800F0D580AE28C6
S3150000589000F0D580F12800F06181B4E102F088FEC5
S315000058A00646042002F09DFE022002F09AFE4FF406
S315000058B0AE4002F0A2FE6078002808BF042E01D197
S315000058C001206070A6E100F0C4F902F071FE8DF8C7
S315000058D0010000A8FEF7A8FD9DF8000028B93720B2
S315000058E08DF802000020ADF8040001AB0DF10202B4
S315000058F0414656E0012918BF382039D100F0A9F9F0
S3150000590001AB0DF101024146012003F02CF800A87D
S31500005910FEF798FD24E03826012912D1F91EC9B2F6
S3150000592003200FF0F3F80746FF2F08BF352608D0EF
S3150000593010F04EFE002814BF0026362638460FF01B
S315000059401BFFEDE0042200F085F90DF103030DF1D4
S3150000595001024946012003F006F800A8FEF74FFDB4
S315000059609DF8000010B937208DF802009DF802005E
S315000059704EE1042200F06EF902F01AFE8DF80100E5
S3150000598000A8FEF73AFD9DF8000028B937208DF8EB
S31500005990020000208DF803000DF103030DF1020251
S315000059A04946002002F0DFFF34E100F04DF902F035
S315000059B0FFFD8DF80E0003A8FEF7FCFC0BE000F0DF
S315000059C043F904AB0DF10E02ACA1012002F0CBFFAE
S315000059D003A8FEF7FEFC9DF80C0028B937208DF8C9
S315000059E00D0000208DF8140000F027F90DF10D02CE
S315000059F05146002002F0B7FF0CE100BF75760000AB
S31500005A00757500007575620000F01EF900F015F955
S31500005A100DF10E025146012002F0A5FF03A8FEF784
S31500005A20DAFC9DF80C0000280CBF37209DF80D000D
S31500005A30EEE010F0E1FEEDE010F0DFFEEAE010F03F
S31500005A40E0FEE7E0042FFCDBDFF82804DFF824148F
S31500005A5000683818C01E0860DCE0012000F0FEF87F
S31500005A60002840F0E7800725D4E009280CBF012074
S31500005A70002002F075FDCDE00C280CBF01200020AF
S31500005A8000F064F9C6E0002002F0ABFD10F0CEFE97
S31500005A908AE002F08DFD064602F0B6FD074602F0EA
S31500005AA087FD804602F084FD8146B7F5004FB4BFFE
S31500005AB0B8F1040F70200BEBC60A11DA022E10DAC9
S31500005AC0DAF800004246394610F0C0FEB9F1000F80
S31500005AD0AAF8047008BF4FF000088AF80680002074
S31500005AE096E0702094E002F063FD00210026022873
S31500005AF0ADF802108DF800100BEBC00708DA386815
S31500005B0000AA0DF1020110F0B0FEB87900B101262D
S31500005B10BDF8020002F071FD9DF8000002F061FD83
S31500005B20304675E002F044FD070018BF012700204B
S31500005B3010F0CCFE80464246FF2A08BF182067D0E8
S31500005B40002F14BF304602207FA110F00BFF00206B
S31500005B5002F047FD40460FF00FFE5BE00026C94FFE
S31500005B6037F8160002F049FD761C222EF8DBA078E5
S31500005B7065284FD10FF082F94CE002F045FD0FF099
S31500005B8045F847E002F014FD11F02AF840E010F065
S31500005B901CFD3FE010F010FD3CE0BB49082002F080
S31500005BA04DFD37E009F091FD02F027FD32E005F0EA
S31500005BB0A8F82DE0012711F06BF8B04204D00027B9
S31500005BC002F0F6FCB1490870384621E003A910201E
S31500005BD002F0F5FC07A9102002F0F1FC07A903A8C2
S31500005BE011F0A3F803A9102002F028FD12E011F02D
S31500005BF04FF802F002FD042002F0F3FC182002F038
S31500005C00F0FC092004E0FEF74FFC18B958253120B6
S31500005C1002F0E7FC9649207809680870072D944839
S31500005C20006885700CBF012200229DF80800012142
S31500005C3000F026F827B0BDE8F08F05A8019005AB67
S31500005C400DF11500009070478C22002103A811F079
S31500005C50BDB80622002100A811F0B8B810B5044658
S31500005C608148008848B10EF070FF30B1884800784E
S31500005C700122214600F004F8012010BD75770000CE
S31500005C802DE9F8438846DFF8E8917A490968044621
S31500005C90D9F80000091A16468FB21EB14078C0F333
S31500005CA0411502E010F0DEF905466A4800788542A3
S31500005CB005D340F26D310FF2E81011F0AFF868012C
S31500005CC040F08000C92FC5B205DBC8200EF038FFB2
S31500005CD045F0020502E0F8B20EF032FF6D48017899
S31500005CE019B1002145F0020501706B48017819B120
S31500005CF0002145F0010501705B48018811B145F0AE
S31500005D000401CDB23EB1B8F1000F14BF45F0080151
S31500005D1045F01001CDB2D9F800105D4A4D70012C46
S31500005D20008818BF022C05D108B9147004E00020C1
S31500005D30107004E0147010B900200EF083FF404686
S31500005D40BDE8F2430EF0CABE620000002DE9F04144
S31500005D5098B0044602F02CFC05464CB1062818BF44
S31500005D60082803D0092818BF0B2801D1702061E04C
S31500005D70062D12D1282002F034FC00244748018861
S31500005D800223224600A811F04CF9BDF8000002F0EB
S31500005D9034FC641C142CF1DB4EE0082D18BF0B2DCF
S31500005DA047D000260FF20C1808EBC6073878854254
S31500005DB02BD114B9787802F014FC78687B780188C6
S31500005DC0002201A811F02DF934B302F0F1FB0146CF
S31500005DD07878814201D002202CE0002100E0491CA5
S31500005DE0C9B2814205D201AA8A5CFF2AF7D04620B1
S31500005DF020E001A902F0E3FB78687A78008801A91F
S31500005E0011F0D1F9002002F0ECFB761CF6B20A2E56
S31500005E10CAD374B1B1200DE0092D05D11522002198
S31500005E200DF14A0010F0D2FF787801A902F006FCC5
S31500005E3002E0002002F0D5FB18B0BDE8F0810000BA
S31500005E4088C1020051670020C27F0020BC7F00206D
S31500005E50C8680020A4670020AF7F0020506700209C
S31500005E60C17F0020B86700208E7F0020C369002014
S31500005E70007900208C730020127B0020887300209C
S31500005E80786900200C79002004790020C16900207F
S31500005E90D27F0020C07F00208C7F002064C60200D5
S31500005EA0636F6D6D616E642D68616E646C6572738F
S31500005EB02E630000011000005CC602000210000004
S31500005EC05EC602000302000060C602000510000064
S31500005ED06EC60200070800006AC602000002000043
S31500005EE058C602000402000062C60200095C0000F7
S31500005EF070C602000A14000072C602000C080000F8
S31500005F005AC6020010B5044601202070A178DFF8B9
S31500005F10A00A27290CD1217A0429A8BF36200DDA38
S31500005F20417304F10901227A203010F00CFF6FE072
S31500005F3028290CD1217A0829A8BF36206FDA0173E7
S31500005F4004F10901227A183010F0FDFE60E0C27BF0
S31500005F501D2910D1217A042918BF36205FD142F0BD
S31500005F600101C173617A0172A17A4172E17A81728B
S31500005F70217BC1724CE01E290DD1217A012918BF5F
S31500005F8036204CD1617A002914BF42F0020102F09A
S31500005F90FD01C1733CE01F290DD1217A012918BFEB
S31500005FA036203CD1617A002914BF42F0040102F088
S31500005FB0FB01C1732CE020290BD1217A082918BFD7
S31500005FC036202CD1082204F10901B03010F0BBFEB6
S31500005FD01EE021290BD1217A092918BF36201ED1AE
S31500005FE0092204F10901A43010F0ADFE10E02229C7
S31500005FF010D1217A052918BF362010D1617A017097
S31500006000A17A4170E17A8170217BC170617B017157
S31500006010002004E0162904D1607A0BF0B2FF60700C
S3150000602010BD0020207010BD2DE9F54FDFF8840962
S31500006030C0780027702895B08A461E46BB4640F0B9
S3150000604021813078DDF88090DFF86C89DFF86049CF
S31500006050C0F302100090002500E06D1C0098EDB220
S31500006060C0B2854280F09380A8190221C07C00F05E
S3150000607072FA0028F1D0327BF07AB17AE57B130907
S3150000608001EB0020AF0702F00F014EBF0127277A70
S3150000609007F00F07727BED0780B268D54FF6FF75E4
S315000060A0A8421CBFB8F80050A84260D18F4222BF58
S315000060B0BB42219890425AD31599082208A810F09D
S315000060C042FE16998DF828A00A220DF12A0010F03A
S315000060D03AFE1A2231460DA810F035FE8DF84E9084
S315000060E0E07B80074CD5DFF8D45805F12E06B07852
S315000060F000283DD00822294608A810F06EFE002888
S3150000610001BF0AAE7088698988422CD1072205F141
S315000061100C010BA810F061FE002802BF307B297D20
S31500006120884220D10F220DF135010DF1350010F016
S3150000613054FEC0B9032205F1240111A810F04DFE4A
S3150000614088B9072205F127010DF1470010F045FE39
S31500006150002802BF9DF84E0095F82E10884202D105
S31500006160022101200EE0E07B00F0FD00E07387E0F5
S31500006170302208A9284610F0E6FD0120B0707FE025
S315000061800221002000F0ABF94FF0010B78E000256A
S315000061903BE0401CC0B2884236D2DFF82428821881
S315000061A0127C9145F5D101A800F085F9227B04F116
S315000061B018010DF1170010F0C6FD9DF8040000F05F
S315000061C08F008DF804000922217B090141F00101AD
S315000061D008438DF8040004F1A4010DF1050010F048
S315000061E0B2FDA0788DF80F0060788DF81000207849
S315000061F08DF8110020798DF81200E0788DF81300E3
S3150000620001A80DF03CFCBB466D1C0098EDB2C0B277
S31500006210854234D2BBF1000F31D1A819C07C0128C8
S3150000622002D0C0280FD0EFE7E07B01278007EBD52F
S315000062301599082204F1240010F085FD00210120A3
S3150000624000F04DF9DFE7DFF87C17097801F001016E
S3150000625001270AF0010081F00101084301BF1698E9
S315000062600088B8F800108842CED1DFF854070078CD
S31500006270B9F1FF0FC0F3410195D000208AE70FB1B5
S31500006280584606E0DFF82C07007872280CBF01207C
S31500006290002017B0BDE8F08F2DE9FE4FDFF8140798
S315000062A0C07800247028A0466BD10E98DFF800A7AE
S315000062B000780094C0F30210019021E06D1C09F1F2
S315000062C00109B9F1100F43DB96B10E980078C007AB
S315000062D00ED50E98C07AC0F30110022818BFFF2F02
S315000062E006D002990AEBC7000822243010F02BFDD5
S315000062F0E8B2102800DAA0460098401CC0B2009010
S3150000630000980199884239DAB8F1000F36D10E9813
S31500006310009908180022C17C00E0521C9AF80E3041
S31500006320D2B29A42E8D202EB0A031B7C8B42F4D12A
S31500006330012906D0032902D0C02904D0DCE70124B4
S31500006340D9E70124D8E70025FF2701260124A9461D
S315000063500AEBC90B029908220BF1240010F03DFD4F
S3150000636000B90026FF2208210BF1240007F06DFA80
S315000063700028A3D0FF2FA2D14F46A0E70CB140467C
S3150000638006E0DFF83006407874280CBF01200020B4
S31500006390BDE8FE8F2DE9F44FDFF818A605469AF8FA
S315000063A00300002670288EB0B3467BD1199F38783B
S315000063B01A9CDFF8FC85C0F302100490B14607E092
S315000063C00126002D18BFC12D00D1B34609F10109E0
S315000063D004985FFA89F9C0B2814560D2BBF1000F1B
S315000063E05DD109EB0700C07C012848D0032802D004
S315000063F0C028E5D0EAE70126032CE7DB002D18BF0D
S31500006400C12DE3D107A800F056F89DF81C0040F016
S3150000641001008DF81C00082208F1B0010DF11D00E5
S3150000642010F091FC072200210DF1250010F0CEFCA2
S31500006430387805A90391C0F34102C0F30211029115
S3150000644008F1180307F113010191FF2098F80C10C9
S31500006450009107F1100100F0ADF89DF81C1001F055
S315000064608F0141EA00118DF81C10024605A90DF1B5
S315000064702F0010F068FC07A80DF001FBA5E7012628
S31500006480002D18BFC12DA1D1032C9FDB0E99082228
S3150000649008F1240010F0A1FC002897D195E70EB171
S315000064A0584605E09AF8020076280CBF0120002025
S315000064B00FB0BDE8F08F38B5DFF8F4546A7B0446B8
S315000064C005F1200104F1100010F03DFC207800F0E9
S315000064D0F9002070697B40EA4100207031BD70B53B
S315000064E088B005460E4600A8FFF7E5FF9DF80000B8
S315000064F0DFF8BC44217B00F08F008DF800003346A6
S3150000650000AA04F1180000F033F89DF8000040F0EE
S3150000651001008DF80000082204F1B0010DF1010020
S3150000652010F011FC00208DF80900ADF80A00002DCE
S31500006530A07A8DF80C00607A8DF80D0014BF21202A
S31500006540207A8DF80E00E07A8DF80F0000A80DF085
S3150000655096FA08B070BD0022022808BF012203285F
S3150000656008BF02228A4201D10120704700207047ED
S315000065702DE9F84314460546207888469946C0F327
S31500006580021600270BE0785D40B14946FFF7E3FFAE
S3150000659020B1F2B2785D1119561CC8747F1C4745AC
S315000065A0F1DB207800F08F00207040EA06102070A2
S315000065B0BDE8F183F8B51C460025002306E0FF2858
S315000065C01CBF5E5CB04205D05B1CDBB29342F6DBBF
S315000065D00020F2BD099E0722FF21304610F0F6FB8F
S315000065E00699079A089800230EE01F5D1CF802E042
S315000065F0774502D1EDB2AF556D1C0CF1010C5FFA77
S315000066008CFC8445F1D35B1C8B42B8BF4FF0000C69
S31500006610F5DBE8B2F2BDFEB5099C082C01DB702063
S31500006620FEBD0A9E089D0296019400950BF0F3FAB2
S3150000663005000DD1DE4F8022FF2107F1240010F066
S31500006640C5FBBC732246314607F1100010F07BFBF8
S315000066502846FEBD10B50BF03DFB040004D1802298
S31500006660FF21D94810F0B2FB204610BD00210AF0E8
S31500006670FFBF10B504462078B8B901202072A07873
S31500006680262805D100206070D048007860720AE0A4
S3150000669016280AD104F10A000BF003FD10B10021FF
S315000066A03720217260700120207010BD017800290A
S315000066B008BFFFF727BC7047017899B941780939B7
S315000066C0C9B210290ED2C24A52F82110C14A127814
S315000066D0562A07BF0978C170C2780A7000218170F6
S315000066E001210170704710B50446207800BB607820
S315000066F0B94A312808BF104602D0322818D1B74807
S31500006700B0B1B4490978522908D0A188904209D17C
S31500006710B34A12788A4205D2362006E00078A08075
S31500006720002002E0C9B20EF0E7FDA0700120207043
S3150000673010BD70B5044686B00D463826112010F0FF
S315000067404FFA802815D1204605F032FB0646122363
S315000067501B2200A901200DF02EFCBDF806002881A1
S315000067609DF80200A8729DF80300E872BDF80400C7
S31500006770E881304606B070BD80B510F04BFE0DF0D6
S31500006780F6F9BDE8014010F0D1BE38B504460D4615
S3150000679009220021284610F019FB218828460DF011
S315000067A0CEFBA11CA81CBDE83840072210F0CBBACE
S315000067B038B504460D461A220021284610F006FB7D
S315000067C0207828700F22611C681C10F0BCFA207813
S315000067D0C0F3410204F1100105F1100010F0B3FA04
S315000067E02078C0F3021204F1130105F11300BDE88D
S315000067F0384010F0A8BA2DE9F0438FB00646DB20EA
S315000068008DF808000F4690469946082231460DF14C
S31500006810090010F098FA8DF811700DF1120140463A
S31500006820FFF7B3FF0DF11B014846FFF7C1FF169DA9
S31500006830179C8DF835508DF836402F2102A811F09F
S315000068407EF9019400954B46424639463046FFF79D
S31500006850EBFB0FB0BDE8F0832DE9F14F92B0DC20E1
S315000068608DF8140005AE9DF8480070700DF1150501
S315000068708A469046994685F801A041460DF11700D3
S315000068800DF05DFB082249460DF1190010F05BFA88
S315000068901C9C2C730DF122011D9F3846FFF775FFD6
S315000068A0DDF878B00DF12B015846FFF781FF1F9DEB
S315000068B086F831503321209E8DF8466005A811F0E8
S315000068C03EF904960395CDF808B0019700944B461F
S315000068D09DF8480042465146FFF7DEFC13B0BDE87E
S315000068E0F08F2DE9F04790B08146E1208DF80C003D
S315000068F00DF10D040E46924698468DF80D90667081
S31500006900082251460DF10F0010F01DFA84F80A8096
S3150000691006A9189D2846FFF738FF199F0DF121019A
S315000069203846FFF745FF1A9C8DF83B40302103A8F7
S3150000693011F005F9029401970095434652463146F7
S315000069404846FFF727FD10B0BDE8F087F0B58DB0DB
S3150000695004460D4616461F462F22FF2100A810F0BA
S3150000696035FADE208DF800008DF801409CB908222A
S3150000697029460DF1020010F0E6F98DF80A600DF1D6
S315000069800B013846FFF701FF129805A9FFF710FF24
S3150000699013988DF82E002F2100A811F0D0F824B9F5
S315000069A008222946084810F0CEF90DB0F0BD0000C7
S315000069B0E473002024690020607500209C74002088
S315000069C06C75002068690020087400206969002041
S315000069D028690020BE7F0020C0670020C86700200D
S315000069E08FBD020080B5DA2160E010B59EB01C466E
S315000069F08DF801008DF80210D5238DF80030114670
S31500006A000DF103000DF09BFA8DF805400DF107001E
S31500006A10209C21998DF80640224610F094F9E11D3C
S31500006A201FE010B59EB0D6248DF802108DF8010037
S31500006A308DF800408DF803208DF804300DF1050027
S31500006A4020990DF07CFA2198229C23998DF8070055
S31500006A508DF8084022460DF1090010F074F904F192
S31500006A600901C9B200A811F06AF81EB010BD10B530
S31500006A701C46E0238AB0002818BFC1288DF80030D4
S31500006A808DF801008DF8021008D10DF103011046B2
S31500006A90FFF77BFE03A92046FFF78AFE262100A802
S31500006AA011F04DF80AB010BD80B5E3218DF8001045
S31500006AB08DF80100022100A811F041F801BD80B552
S31500006AC0E421F3E72DE9F84F8046DFF8180B077845
S31500006AD00D460A9991469B4619B10B980EF0CFFECA
S31500006AE002E000200EF0AAFE82460C9EBAF1FF0FCD
S31500006AF003D100201824307032E0342F06D0362F10
S31500006B000ED0382F13D0962F18D01AE053464A4687
S31500006B102946404602F072F9044602F084FD10E070
S31500006B20534642464946284602F0C7F908E053460E
S31500006B30EAB24146484602F014FA01E011F032FA90
S31500006B400446962F1CBF99F80A003070E4B224B9A7
S31500006B50DFF8940A00680AF800B050460EF00CFE02
S31500006B602046BDE8F28F10B584B0089C0294079CBD
S31500006B700194069C009407E010B584B004461046C4
S31500006B8000F00FF80A462146FFF79CFF04B010BD3F
S31500006B9010B5044684B00846114600F002F82246B5
S31500006BA0F2E7089A0292079A0192069A00927047B3
S31500006BB0E0B501910022009011460292002308469A
S31500006BC0FFF780FF0EBD2DE9F04683B089460C998C
S31500006BD0054692461E4619B10D980EF050FE02E08B
S31500006BE000200EF02BFE04460E9FFF2C03D1002042
S31500006BF01825387014E00A980090019433465246DE
S31500006C004946284602F07BF90500B07A387004D16F
S31500006C10DFF8D4190B980968605420460EF0ACFDD5
S31500006C202846BDE8FE8638B5DFF8C0492080C8880A
S31500006C30440606D5DFF8B8492478202C03D1000491
S31500006C4001D4702032BDDFF8AC49216022B1114673
S31500006C5018460EF014FE02E000200EF0EFFD054689
S31500006C60FF2D08BF18240AD020684088294602F064
S31500006C7069FB044602F0D7FC28460EF07DFD20464F
S31500006C8032BD2DE9F041069F0D460446164698464C
S31500006C90394608F0B5F9204608F0C0F9079908808A
S31500006CA0384608F0C9FA089908702946204608F0BF
S31500006CB03CF9070007D13146204608F075F94146F0
S31500006CC0284608F0D6FA3846BDE8F081DFF82829CC
S31500006CD01278904201D370207047DFF8202912689D
S31500006CE032F820300B8002EB80008078887000201C
S31500006CF07047DFF804291278904201D3702070475C
S31500006D00DFF8F82812680B8822F8203002EB8000A2
S31500006D10897881700020704730B589B00C4605F03F
S31500006D2047F8054612231B2204A901200DF043F95A
S31500006D30002020730FF096F99DF8101088420BD1B1
S31500006D40BDF8160020819DF81200A0729DF8130070
S31500006D50E072BDF8140019E01023072200A90120F3
S31500006D600DF029F9082202A920460FF0ECFFBDF824
S31500006D700000208104F114019DF80200A0729DF824
S31500006D800300E07204F1100011F051FAE08109B03D
S31500006D90284630BD38B504460D4606F0D1FC0146FE
S31500006DA0082220460FF0CFFF06F0C6FC2880DFF849
S31500006DB05008007832BDF8B504460D4616461F4603
S31500006DC011F099FD28803A4631462046BDE8F84044
S31500006DD011F0A1BDFF2203F0F2BF10B504462078E2
S31500006DE0002842D1012020722070A078142804D1F6
S31500006DF00020607012F0D5F833E001280BD002288D
S31500006E0008D0082818BF0D2805D0122818BF132847
S31500006E1001D002E020720021617001280AD0022808
S31500006E2012D008280AD00D280BD0122815D0132806
S31500006E3015D018E0DFF8CC07007812E003F047FD24
S31500006E400FE005F060FE0CE0DFF8BC07018804F1F6
S31500006E500900BDE810400DF072B8FF2001E003F014
S31500006E60A8FF607210BD0020207010BD10B504464A
S31500006E7082B0207858BB0120207000206070A07876
S31500006E8018B1022819D00BD31FE0616800AAC9B255
S31500006E900FF004FC60700220207204F1090007E084
S31500006EA00320207200A812F04CFA607204F10A0066
S31500006EB0BDF800100DF043F813BD01202072606884
S31500006EC080B212F092FC607213BD0020207013BDD8
S31500006ED0F0B5044685B02078002840F0D88001201F
S31500006EE02070A078010022D0012844D0022849D081
S31500006EF0052818BF06284DD0082800F0BB800928B1
S31500006F0056D00A2879D00B287CD00C2800F0868031
S31500006F100F2800F08780232818BF242800F08F80D0
S31500006F20252800F09D80292800F0A680ADE0207A73
S31500006F30102860D100F0ADF8ADF80400082294F9ED
S31500006F400B008DF8060004F11001207B8DF8070078
S31500006F50607B8DF80800A07B8DF80900E07BADF81A
S31500006F600A0003A80FF0EFFE1023072201A9002054
S31500006F700DF021F886E0207A01283CD1607ADFF80E
S31500006F8084167EE0207A022835D100F082F8DFF8F8
S31500006F9078160BE0207A02282DD100F07AF8A17835
S31500006FA005290CBFDFF86416DFF86416088069E06F
S31500006FB0DFF860060568207A46080DB9DEB961E09B
S31500006FC0DFF854060078B04215D3002707E004EB3B
S31500006FD0470009300CF0ACFF25F817007F1CB742BC
S31500006FE0F5DB4FF4004725F81670284612F06FFCC3
S31500006FF0002848D02F80362045E000F04AF808F0F7
S3150000700082FC3FE0DFF814060068407B20B900F000
S3150000701040F808F05EFB35E0382034E0607ADFF8AF
S3150000702000162EE0657A04F10A000CF081FFADF837
S31500007030000000AA294601200FF030FB23E0217A48
S31500007040042912D123280CBF0325012504F10901C7
S3150000705001200CF086FF0146284612F0D6FD12E00C
S31500007060607A032818BF042801D002200BE004F040
S315000070706AFD07E0372006E0607A00B10120DFF8FC
S31500007080A41508700020607001E00020207005B093
S31500007090F0BD04F109000CF04BBFDFF84815097884
S315000070A0027856290CBF01210021AAB98270DFF8A7
S315000070B040354278032A05D109B1597806E0C178EE
S315000070C0597007E0022A07D111B11978C17001E0A1
S315000070D0C1781970012101707047017801B17047BC
S315000070E030B58170012101704178052906D0122939
S315000070F013D018290AD01F2912D015E0DFF8281559
S31500007100DFF8282509781278891A21E0DFF820159A
S315000071100A78511E8941C90F1AE0DFF8181501E0F7
S31500007120DFF81415098813E000220FF23C5300E043
S31500007130521CD2B21446E55CFF2D02D1002101702B
S3150000714030BD8D42F4D10FF23C5151F8241009782C
S31500007150818030BD70B504462078002870D10120AA
S3150000716020700020A0706278052A08D0122A2BD041
S31500007170182A1DD0192A02D01F2A20D02DE0DFF8A8
S31500007180AC040578DFF8A00401784E1BA188052A17
S315000071900CBF0E460D46A919C9B20EF0ADF800286F
S315000071A0A0704DD1E9B2F0B2BDE8704012F044BF14
S315000071B0A188481E8041C00FDFF874143DE0A08806
S315000071C0DFF87414088070BDA18847F231508142FF
S315000071D01DDADFF86004018070BD0FF28C4100E01B
S315000071E0401CC0B203465D5CFF2D02D1002020701A
S315000071F070BD9542F4D1042B07DADFF8400450F84D
S315000072002300A1880078884201D32B2A02D1362098
S31500007210A07070BD0FF26C40A18850F823000B2BB4
S315000072200DDAC9B20EF068F8A070002804BF6078C5
S31500007230112805D1A088DFF80814087070BD017008
S3150000724070BDF8B504460D461146184618260EF0D0
S3150000725016FB0746FF2F08D03A462946204613F06C
S31500007260E9F8064638460EF087FA3046F2BD38B5DC
S3150000727004460D46218828460CF061FE6188A81C4C
S315000072800CF05DFE2079287160796871A81DE1888F
S315000072900CF055FE218905F108000CF050FEA07A8D
S315000072A0A87231BD10B586B004461B208DF80000CB
S315000072B0A0788DF801000DF1020021880CF03FFE48
S315000072C00822211D01A80FF03EFD00A8E1780173F8
S315000072D0217B4173607B8DF80E000DF10F0000F0ED
S315000072E0B9F9112100F01AF906B010BD80B58DF874
S315000072F001008DF802101C228DF80020D4E02DE943
S31500007300F04F87B005460E46144613F08AF98046BC
S315000073102246314628460FF04DF9002865D10DF179
S31500007320090013F086F930B962208DF808000921AA
S3150000733002A810F004FCFF2C0FBF4FF0000BC14950
S31500007340096814F801B045208DF8080002AF0DF168
S315000073500A017D703046FFF78AFF0DF1150000F037
S3150000736079F941460DF117000CF0E9FD02F00FF82E
S315000073708DF819000025B448DFF8B0920668DFF8EA
S31500007380A8A201E06D1C0C369AF8000099F80010CE
S31500007390EDB2401A85420BDA30884045F2D10EF044
S315000073A08BFEB17AC1F342018142EBD1BD7401E09B
S315000073B0FF20B8748DF81BB0404612F016FA8DF80F
S315000073C0040000B10120009001AB2246142102A85E
S315000073D010F0BDFB00281EBF85480078212804D187
S315000073E09A48017841F00401017007B0BDE8F08FBA
S315000073F02DE9F04307469348006887B01D460E9C6A
S315000074002E5C884691462146384601F053FB3F20C4
S315000074108DF804008DF8057041460DF106000CF05C
S315000074208EFD02A94846FFF722FF6F480068285CD8
S315000074308DF813008DF8144085480078402804BF65
S315000074400026FF25002000908DF8156000232A46AF
S31500007450122101A810F07BFB07B0BDE8F0831FB531
S31500007460044623208DF800008DF801408DF80210A7
S31500007470204611F040FA01460DF103000CF05FFDC5
S315000074800DF10D020DF10501204611F044FA0E2111
S3150000749000F044F81FBD80B57C218DF80010014630
S315000074A00DF101000CF04BFD032100A810F047FB85
S315000074B001BD70B586B004467D208DF800000D46EE
S315000074C0164621460DF101000CF039FD0822294629
S315000074D00DF103000FF037FC8DF80B600C2100F066
S315000074E01DF803A813F0A5F818B903A9204612F051
S315000074F0A9FD06B070BD38B504460D4601F0BFFAC9
S3150000750080208DF800008DF8014029460DF102001B
S315000075100CF015FD042100F001F831BD00A810F0B3
S315000075200EBB10B584B0044646208DF8040001A8B1
S3150000753021784170617881700DF1070000F08AF8BA
S315000075404048A1780068085C8DF8090000230020F7
S3150000755000900621A27801A810F0F9FA1FBD80B5A7
S3150000756098208DF800008DF8011000A802219DE7F3
S315000075701FB50C4692218DF80410082201460DF124
S3150000758005000FF0E0FB0DF10D0000F063F82D484B
S315000075900068205C8DF80F00002300200090224632
S315000075A00C21D8E700B5274A126883B0825C8DF8B3
S315000075B0051093238DF8062000218DF804300091E4
S315000075C002460023032101A810F0C1FA07BD80B5C9
S315000075D007F09EFCBDE8014006F098B9114900206D
S315000075E008707047BE7F00200C7A0020427A002087
S315000075F0E1680020447A00209C67002098670020FC
S31500007600907F0020D97F0020D4690020D468002014
S31500007610D6680020347A0020087A0020F479002009
S31500007620847F0020DD7F0020E4670020E37F0020C8
S315000076306867002004680020F4670020E4680020E2
S315000076400168002058670020E8670020407A002083
S31500007650C868002010B5044612F0DCFF601CBDE8C7
S31500007660104012F0D9BF00001102090A03060708EC
S315000076701A2B2C1910131B14151C1D2021222A2E1F
S31500007680333435FF70670020AC670020A87F0020E8
S31500007690A77F0020EC6700209C67002088670020F9
S315000076A094670020A67F0020E0680020087A00206A
S315000076B0E37F002002680020076800200868002099
S315000076C006680020B07F0020F6670020AA7F002011
S315000076D059690020096800200A680020AE7F002052
S315000076E0B27F0020EC690020B8670020947A002061
S315000076F038B504461046002901461A46204602D0EF
S3150000770012F0F9FF01E012F0C7FF0546002C1EBF7C
S3150000771004980028A04203D02146142213F058F8FA
S31500007720284632BD8E4B1B7802467020002B1CBFAC
S31500007730104608F047BF70471CB504462078F8B9D4
S3150000774002202072A0780A280AD0102810D101A899
S3150000775013F095F86070BDF80400ADF8000004E081
S315000077600020607000A808F0E7F80120207001E012
S31500007770207828B1BDF8001004F109000CF0DFFBF9
S3150000778013BD38B504462078002804BFA078102819
S3150000779012D104F1090101200CF0E3FB054604F1C6
S315000077A00D000CF0C5FBADF8000000A9284613F04B
S315000077B03BF860700120207031BD6A490978027873
S315000077C056290CBF0121002122BB827001220270C2
S315000077D0427832B9644A09B1117811E0C078107064
S315000077E07047052A05D1614A61B1117841F050010F
S315000077F006E0062A0CD15E4A21B1117841F06001FB
S31500007800C1707047C17801F00F01C17011707047E7
S3150000781000210170704710B504462078B8B900F011
S3150000782045F806D01E2807D0242807D0362808D0C9
S315000078300BE005F089FF06E04E4800E04E48007870
S3150000784001E04E480088A08010BD0020207010BDC9
S3150000785010B50446207840BB00F028F806D01E2854
S315000078600AD0242812D0362819D01CE0A088BDE8FA
S315000078701040C0B205F06CBF4148A188007888422C
S315000078800AD3C9B23B480DF037FD06E0A1880B29A3
S3150000789002DA3948017010BD3620A07010BDA088EC
S315000078A03649088010BD0020207010BD01202070D0
S315000078B00020A07060780D2870472DE9FF4115461D
S315000078C0012D074688461C4607D1012100200226C5
S315000078D050EA01020AD103261AE0052DF5D000214F
S315000078E0032D18BF072DF1D10120F0E71E4A1278AB
S315000078F03AB1012A08D0022A05D0042A08BF0E464A
S3150000790004E0012604E058B1002601E0022E07D06B
S3150000791007F0DBFE844203D02146384611F051FFC2
S3150000792024208DF8000039460DF101000CF007FB0C
S31500007930082241460DF103000FF005FA8DF80B50B1
S315000079408DF80C6021460DF10D000CF0F8FA0F21B0
S3150000795000A810F0F4F8304604B0BDE8F08100004D
S31500007960DD7F0020BE7F0020DD680020AC7F002088
S31500007970FC670020AB7F0020B17F0020FE6700205F
S315000079808DBD020080B56E218DF800108DF80100C6
S31500007990022100A810F0D3F801BD10B584B00C4642
S315000079A09B218DF80010082201460DF101000FF011
S315000079B0CAF98DF809400A2100A810F0C0F81FBDC9
S315000079C030B58BB004460D462A22FF2100A80FF0E1
S315000079D0FDF9214628460DF052FF0446FF2C08BF4C
S315000079E0182505D012F08CFF054620460DF0C4FE82
S315000079F028460BB030BD10B54E4C2178FF29A8B0F3
S31500007A0008BF702020D0002000904A2300220AA838
S31500007A100DF051FF00200090252321784A221DA851
S31500007A200DF049FF00200090242321786F2201A841
S31500007A300DF041FF20780DF09FFEFF20207001AA77
S31500007A400AA91DA808F09CFF28B010BDF8B5394F4B
S31500007A5004463878FF280D46164608D193210020A3
S31500007A600DF00DFFFF28387001D13520F2BD012041
S31500007A700090334639782A4620460DF01CFF002038
S31500007A80F2BD10B50446A6B0207860BB0120207078
S31500007A90A0781A2804D024D31C2815D00AD320E0B5
S31500007AA04A2204F1090113A80FF04DF94A220021D8
S31500007AB013A812E0252204F1090109A80FF043F9E1
S31500007AC025224A2109A808E0242204F1090100A878
S31500007AD00FF039F924226F2100A8FFF7B7FF607075
S31500007AE001E00020207026B010BD0178002904BFF7
S31500007AF0417829290CD110490978522904D10F4916
S31500007B0009788180002100E038218170012101700F
S31500007B10704710B5074C2078FF281FBF0649097823
S31500007B20AB29ED2903D00DF027FEFF20207010BDF4
S31500007B3000000000DF680020BE7F0020AD7F00202F
S31500007B4011B1012903D004E0114609F082B809F009
S31500007B50CBB80220704710B504462078002804BF31
S31500007B60607808280ED114480078562803D109F009
S31500007B7093FCE07002E0E07809F091FC0020A07030
S31500007B800120207010BD0178A1B941782F2908BFC6
S31500007B900A4902D030290DD1094959B1064A12784D
S31500007BA0522A07BF0978818082880A700021817075
S31500007BB00121017070470000BE7F00200C68002084
S31500007BC00D68002030B58FB005460C463B220021DB
S31500007BD000A80FF0FBF8B6208DF800000DF10101AA
S31500007BE0284600F077F800A8DCB1002180F82910BB
S31500007BF0082221460DF12A000FF0A5F80DF12905FE
S31500007C00207A68720DF1330061890CF098F9A18928
S31500007C100DF135000CF093F9A07BA873E07BE873B7
S31500007C2002E0012180F829100DF13900FFF712FD5D
S31500007C303B2100F00CF80FB030BD80B5B7218DF8B0
S31500007C4000108DF80100022100F001F801BD00A826
S31500007C500FF075BF10B586B00446B8208DF8000049
S31500007C600DF1010021880CF06AF961880DF103001D
S31500007C700CF065F9A1880DF105000CF060F9E188BA
S31500007C800DF107000CF05BF921890DF109000CF0EC
S31500007C9056F961890DF10B000CF051F9A1890DF12E
S31500007CA00D000CF04CF90DF10F00FFF7D3FC11217C
S31500007CB0FFF7CDFF06B010BD00B58BB0BB218DF828
S31500007CC000100DF1010100F005F82921FFF7BFFFB3
S31500007CD00BB000BDF8B504460D46A0782870681CA8
S31500007CE021880CF02CF90822211DE81C0FF02BF836
S31500007CF0E078E87204F11007207B287305F10E0680
S31500007D00607B687331463A6801200CF01CF97A688A
S31500007D10311D01200CF017F9398906F108000CF025
S31500007D200EF9082204F11C0105F118000FF00BF8FA
S31500007D30A18C05F120000CF002F9E18C05F122007E
S31500007D400CF0FDF894F8280085F8240094F8290032
S31500007D5085F8250094F82A0085F8260094F82B006B
S31500007D6085F82700F1BD0000F8B5B84D044628682F
S31500007D7080782B38022801D90D382ED100F018FC56
S31500007D8006462868B249C01C0860002131200FF061
S31500007D9095FF05464FF6FF770BE005F10D0080B223
S31500007DA00FF0C2FEB04213D0294631200FF086FFF5
S31500007DB00546BD42F1D1002100E0294632200FF0F0
S31500007DC07DFF0546BD4208D00FF0AEFEB042F4D1AD
S31500007DD0A42000F006FC00202070F1BD38B5044652
S31500007DE0002100E029463F200FF068FF05464FF6C8
S31500007DF0FF7085420CD028460FF096FE0228F1D17E
S31500007E00681C80B20FF090FEA042EBD1012032BD7B
S31500007E10002032BD2DE9F84380464FF000090021CD
S31500007E2045200FF04BFF04468A4D4FF6FF7609E0DA
S31500007E30FF21B8B20FF07DFEA146A1B245200FF09A
S31500007E403DFF0446B44223D004F11007B8B20FF048
S31500007E506BFE4045F0D120460FF066FE022818BFA3
S31500007E600328E5D1241FA0B20FF05EFE0146288844
S31500007E70401A32182A8092B277480092091900787F
S31500007E804B1C9BB20246A1B20DF005FF4C46D3E750
S31500007E90BDE8F183F0B5714F3D788BB006466C2492
S31500007EA00EF00AF90EF0E2F86D480078112806D0B7
S31500007EB0122830D1718870780EF033FC58B3707880
S31500007EC004A90EF0CDFB88B1BDF8100040F20911EF
S31500007ED0884204BF7088B0F5006F07D1701D12F09C
S31500007EE01AFDB52802D0B0B9002414E001240025FB
S31500007EF000E06D1C3878EDB285420CD206A9284602
S31500007F0000F08FF99DF818000028F2D13146284676
S31500007F1000F092F9044631208DF8000000AF307869
S31500007F2078707078B8700DF1030071880CF007F85E
S31500007F30307978710822711D0DF106000EF003FFED
S31500007F408DF80E508DF80F40102100A80FF0F7FDA8
S31500007F5020460BB0F0BD38B504466C250EF0ACF8E3
S31500007F600EF084F83E48007811280DD12046FFF720
S31500007F7035FF08B1752507E0204600F0A7F9050092
S31500007F8004BF2046FFF746FF32208DF800008DF82B
S31500007F9001408DF80250032100A80FF0D0FD2846BD
S31500007FA032BD38B504460D46FFF718FF08B17525F2
S31500007FB010E03DB10EF056F868732946204600F0F1
S31500007FC03BF902E0204600F081F9050004BF204697
S31500007FD0FFF720FF284632BDE3E70021E1E721490C
S31500007FE00978027856290CBF01210021002A04BF16
S31500007FF04278012A0AD11A4A002919BF1178C1709C
S31500008000C17811700021817001210170704710B58F
S3150000801004462078002804BF6078042814D111494A
S315000080200E480978522903D10078A080002008E084
S315000080300D4AA18812788A4232BF3620C9B20DF0A5
S315000080405BF9A0700120207010BD000000790020AF
S31500008050887300208E7F0020C3690020A97F00203E
S31500008060DE680020BE7F00208BBD02001FB50C46D7
S3150000807002460D23142100A80EF0D3FF0D2200A9FD
S3150000808020460EF060FE207840096073207800F0EC
S315000080901F0020701FBD30B585B004460D460D2269
S315000080A000A80EF050FE9DF80000697B40EA4110E2
S315000080B08DF800000D2300AA214614200EF0E8FFDB
S315000080C005B030BD2DE9FF4104460025DFF8806488
S315000080D0DFF8807413E03068A84630F81800A04234
S315000080E00CD100A9284600F09CF89DF80000022853
S315000080F004D031684FF6FD7021F818006D1CEDB202
S3150000810038788542E7D3BDE8FF812DE9F0458846FA
S315000081104FF6FF7AD04585B0044605D100F0D0F978
S3150000812010B907F0D2FA33E0DFF82464DFF82474DC
S3150000813000250CE0D04508D0306830F815104145D0
S3150000814004BF4FF6FD7120F81510681CC5B23878CB
S3150000815085421CDA306830F8150000F00FF9F4DAC1
S3150000816000A92846FFF782FF082221460DF10500E7
S315000081700EF033FE0028DDD13068D04502D130F84C
S31500008180150005E020F8158012F002FCDDE75046E8
S3150000819005B0BDE8F0852DE9FF47804689460026F3
S315000081A0DFF8B473DFF8A843DFF8A85315E02068BA
S315000081B0B24630F81A0000F0E1F80DDA00A93046B0
S315000081C0FFF754FF082241460DF105000EF005FEAB
S315000081D010B938680AF80090761CF6B228788642FC
S315000081E0E5D3BDE8FF87DFF86813096831F81000AA
S315000081F070471FB50C46DFF85C13097888420FD22A
S31500008200D349096831F810104FF6FE72914207DA29
S3150000821000A900F006F821460DF10500FFF775FFED
S315000082201FBD80B5CB4A1278904201D3692002BDAA
S31500008230FFF71CFF002002BD70B504460D4623461D
S315000082400022B3A1032013F011F8287818B92046AC
S31500008250BDE870403AE0BF480078844201D3692007
S3150000826070BD204612F0B1FF08B1752070BD0DF04B
S31500008270D7FE6873681D06F0DFFF06464FF6FF71EE
S31500008280681DFFF742FF024629783346204600F074
S3150000829006F829462046FFF7FEFE002070BD10B501
S315000082A04FF6FF7409B9224608E0032908BF4FF6C6
S315000082B0FE7203D0A24208BF4FF6FD72A4490968B8
S315000082C021F81020A4490968435410BD30B505466D
S315000082D02C4685B0234601228DA1032012F0C6FF4D
S315000082E09C480078854228BF69201AD2284612F099
S315000082F06CFF08B1752014E000A92846FFF7B6FE0A
S315000083009DF8000030B100208DF8000000A9284635
S31500008310FFF7C1FE8E4909684FF6FF7021F8140079
S31500008320002005B030BDF0B585B007460C46884D37
S31500008330884E00E07F1C3078FFB287421BD2286847
S3150000834030F8170000F01AF8F4D100A93846FFF704
S315000083508DFE9DF80500E1B2884204BF9DF8060037
S31500008360B0EB142FE6D10DF05BFE9DF80D108142A7
S31500008370E0D1384600E0FF2005B0F0BD4FF6FE71B3
S31500008380884270472DE9F14F84B00D460E9C704F20
S31500008390DFF8C0A190469946002607E03868BDF888
S315000083A0101030F81B0088422BD0761C9AF800007B
S315000083B0F6B2864227D23868B34630F81B00FFF77C
S315000083C0DDFFF2DA00A93046FFF750FEB8F1000FE4
S315000083D007D19DF80100484504BF9DF80400A0425E
S315000083E0E3D10DF01DFE9DF80D108142DDD1002D6B
S315000083F0D4D008220DF1050128460EF0EEFC002827
S31500008400D3D1304600E0FF2005B0BDE8F08F10B5AF
S315000084101446FFF72BFE2046BDE8104008224F49C0
S315000084200EF091BC2DE9FF470446084615461E4648
S3150000843000F046F808B100203FE00027DFF8108181
S31500008440DFF8109100E07F1C99F80000FFB2874228
S3150000845022D2D8F80000BA4630F81A004FF6FF715B
S315000084608842F0D000A93846FFF700FE0C220DF135
S315000084700101601C0EF0B1FC0028E4D1BAF1FF0F37
S315000084800CD1002030700DF0EBFD307845B178B995
S315000084902046FFF7FFFC07E0FF27F2E70120F1E7A0
S315000084A038B13846FFF757FD401E8041C00F00E047
S315000084B0012030700DF091FD012004B0BDE8F08779
S315000084C0082226490EF089BC30B585B00024214D1E
S315000084D017E000A92046FFF7C9FD9DF80000042813
S315000084E006DB00208DF8000000A92046FFF7D3FD2B
S315000084F09DF8001000234FF6FF722046FFF7CFFECF
S31500008500641C2878E4B28442E3D305B030BD000091
S315000085104242000030B585B002220CA1032012F0C1
S31500008520A5FE00208DF8000000240A4D04E000A9F5
S315000085302046FFF7B0FD641C2878E4B28442F6D3E7
S31500008540FFF7C2FF002005B030BD0000420000006A
S31500008550D8670020A97F0020DC670020047900206E
S3150000856030B583B0044600F023F80546202D1ADA0C
S315000085705CB100A9082000F022F8082300AA2946C9
S3150000858020200EF085FD00200EE008232A4620213B
S3150000859000A80EF046FD002000F023F800A90820F0
S315000085A000F04CF837BD702000F01BF837BD70475F
S315000085B02B480168491C016011F8010D704738B558
S315000085C00446274D0846296822460EF0BCFB28685B
S315000085D02018286031BD224A1168401810600846EC
S315000085E070472049204B0A681B68D31AC82BB8BFAE
S315000085F010700868401C0860704710B50446C0B289
S31500008600FFF7EFFF200A4CE010B5FFF7D1FF00F0AF
S315000086103AF9000250FA84F080B210BD10B5044653
S3150000862080B2FFF7EAFF200CB3E010B5FFF7ECFFCE
S3150000863000F060F8000410FA84F010BD38B5094C5B
S31500008640094A2368126805469A1AAA18C92A03DA3B
S31500008650024618460EF077FB20682818206031BDC8
S31500008660887300208C7300200079002010B5044622
S31500008670214600F08CF8FFF7C7FF2081FFF798FF2F
S31500008680A072FFF795FFE072FFF792FF2073FFF7E6
S31500008690BBFFE081FFF78CFF2074FFF7C6FF606128
S315000086A010BDBDE810409CE710B500F023F820800F
S315000086B0FFF7AAFF6080FFF77BFF2071FFF778FFC7
S315000086C06071FFF7A1FFE080FFF79EFF2081FFF7B3
S315000086D06FFFA07210BD10B500F009F8A078E0E7B2
S315000086E010B500F007F800F007F8A07010BD0446BA
S315000086F0208882E7044687E7208059E710B500F016
S31500008700C2F8A070FFF780FF2080211D00F03FF81F
S31500008710FFF74EFF00B10120E070FFF749FF20731D
S31500008720FFF746FF607310BD10B500F0DCF8206956
S315000087300EE110B500F008F9FFF777FF206110BDD4
S3150000874010B5FFF7D7FF208010BD207949E710B597
S315000087500446FFF7D3FF04F1100000F01DF804F102
S315000087601C0100F014F8FFF74FFFA0842434FFF734
S315000087704BFF6080FFF71CFF2071FFF719FF607148
S31500008780FFF716FFA071FFF713FFE07110BD082079
S3150000879015E7BDE8104030E710B50446FFF745FF82
S315000087A02060FFF742FF6060FFF72EFF208110BDBB
S315000087B010B500F011F8A088FFF71FFFE088FFF75B
S315000087C01CFF2089FFF719FF6089FFF716FFA089B4
S315000087D0FFF713FFA07B64E7044620681EE710B589
S315000087E00446FFF722FF2060FFF70EFFA080FFF789
S315000087F00BFFE080FFF708FF2081FFF705FF608190
S31500008800FFF702FFA081FFF7D3FEA07310BD10B5DE
S31500008810FFF7E2FFFFF799FF611D1020FFF70EFF3C
S3150000882004F11501BDE81040102007E710B5FFF769
S3150000883061FF2080A11C22E010B504462078FFF7D6
S31500008840D0FE611C0F20FFF7F9FE04F11001032092
S31500008850FFF7F4FE04F11301BDE810400720EDE632
S3150000886010B500F010F82070611C0F20FFF7A7FE6E
S3150000887004F110010320FFF7A2FE04F11301BDE885
S31500008880104007209BE6044692E638B500F02BF828
S3150000889004F110010820FFF7D1FEA069FFF7BEFE24
S315000088A004F11805A888FFF7A8FEE888FFF7A5FEDB
S315000088B02889FFF7A2FE6889FFF79FFE04F12401CD
S315000088C00720FFF7BBFEE87CFFF78BFE287DFFF74E
S315000088D088FE687DFFF785FEA87DFFF782FEE87DAE
S315000088E0BDE832407DE6044621461020A6E638B5AE
S315000088F000F02AF804F11001FFF749FFFFF795FE93
S31500008900A06104F11805FFF77FFEA880FFF77CFE43
S31500008910E880FFF779FE2881FFF776FE688104F18B
S3150000892024010720FFF74BFEFFF742FEE874FFF72E
S315000089303FFE2875FFF73CFE6875FFF739FEA87500
S31500008940FFF736FEE87531BD04462146102036E6AF
S31500008950BDE8104062E610B5FFF795FF2072FFF7FD
S3150000896064FE206010BD0CB4F8B504460D4606AE94
S3150000897007E056F8040B1CB10078FFF72CFE3860B0
S315000089806D1C2878A0B356F8047B622824D0702882
S31500008990EFD0732818BF752804D076280BD0772817
S315000089A012D0EDE71CB1FFF703FE3870E8E7387820
S315000089B0FFF717FEE4E71CB1FFF726FE3880DFE776
S315000089C03888FFF71AFEDBE714B1FFF72EFED6E76D
S315000089D03868FFF723FED3E756F8040B0078002C1F
S315000089E0394602D0FFF7EBFDCAE7FFF727FEC7E7D8
S315000089F0F1BC5DF80CFB000070B54D4D6E8A044667
S31500008A0005F1080012F065FC012C08BFAE8A02D001
S31500008A10022C08BF022618B1FA217143884206D3F8
S31500008A20310205F10800BDE8704012F045BC70BD8A
S31500008A307CB53F4C3F4E0020E07020714FF6FD752F
S31500008A40607988B14FF6FC700190002300200090F9
S31500008A5002460146308803F08BFE358000206071A7
S31500008A600120BDE87640C7E7A178208A05F028F9FD
S31500008A703088A842F4D0012060710220F1E710B5D9
S31500008A80A92818BFAA2814D12948C2780378521CED
S31500008A90C270D2B29A420CD3264A13884FF6FD749E
S31500008AA0A34202D11180002141710020BDE810408F
S31500008AB0A2E710BD00281CBF012802280CD1662998
S31500008AC00AD11B480179491C0171C9B2407881421B
S31500008AD024BF0020FFF790BF704710B5144C2182C9
S31500008AE09200029921709B0003996282A3826170B1
S31500008AF09BB20499A17092B2934208D3218A4FF691
S31500008B00F87291421CBF4FF6F972914201D0702063
S31500008B1010BD002161714FF6FD71064A118018B132
S31500008B200120FFF769FF00E02072002010BD000061
S31500008B30D07400203A6900202DE9F84F8AB08846A3
S31500008B401646ADF804804FF00009F5880446CA467B
S31500008B50002704F0C2FE159860B9E8060AD59DF80C
S31500008B6050009DF82830009032464146204611F0CC
S31500008B70C9FE10E1680548BF4FF4805A280548BF72
S31500008B804AF4006AA80548BF4AF0800A03D4E805FB
S31500008B9048BF4AF0400A9DF8500002900A2CC3468E
S31500008BA068D8DFE804F007301B3F67673F06073FDA
S31500008BB0190002279DF82800BDF8042000904B46B6
S31500008BC09DF850004AF4027110F040F98246BAF15D
S31500008BD0FF0F51D11820DEE00327EBE705A95FFA66
S31500008BE088F0FFF71EFB08220DF1190103A80EF00D
S31500008BF0AAF8DFF8C808006830F81B000DF10C0968
S31500008C00ADF80400D6E703A95FFA88F006F0F8F994
S31500008C10DFF8AC0800680C2101FB0B000DF10C0914
S31500008C200088EDE74FF6F870834523DBF0884FF4B4
S31500008C30026108421ED100F03AF918BF91201AD1FC
S31500008C400298FF280FD000F076FB032C0CBF012101
S31500008C500021401ADFF86C18029A0968515C8842B4
S31500008C60B8BF742007DB032C0CBF0C2708272AF497
S31500008C70C07A9FE701208EE0DFF84C0800884FF6A7
S31500008C80FF71884214D0504612F039FC8346DFF853
S31500008C90380801880BF104000BF051F9DFF82C08B5
S31500008CA0DFF8241800788BF807004FF6FF7008806D
S31500008CB032463946504610F0A4FA08B9182666E03E
S31500008CC0DFF80C080068C07E70B1A8060CD5E8076E
S31500008CD04CBF2020002040F001034A4600215046A8
S31500008CE011F023F9060052D10298FF2816D05046FB
S31500008CF012F0FBFBDFF8D8170968C97E01B1122113
S31500008D00DFF8C027029B12689B5C1AF80220D21873
S31500008D10743089188842B8BF742638DBA80407D592
S31500008D20504612F0F6FB40F48061504612F0F3FB19
S31500008D30082C12BF092C504612F0FAFB159848B1C0
S31500008D40BDF80410504612F00CFC159880F800A0EF
S31500008D50002020E0E01E05D0C01E012884BFC01EF2
S31500008D60012807D8504604F02FFE00280CBFA12684
S31500008D7000260CE0A80444BF4FF6BF7005402B4602
S31500008D805FFA88F22146504611F013FE0646504619
S31500008D900CF0F2FC30460BB0BDE8F08FF0B587B0B2
S31500008DA00E4604460C99174618460CF068FD054613
S31500008DB0FF2D21D0FF208DF810008DF81100ADF8A1
S31500008DC00E704CF20E00ADF80C00ADF812600020EB
S31500008DD0ADF81400009502A80190FF2303AA2146CE
S31500008DE00020FFF7A9FE044628460CF0C5FC002C1F
S31500008DF00CBF9DF80800FF2007B0F0BD2DE9F04339
S31500008E00164685B00446F08804900D4670790FF238
S31500008E10007103901F4630790290A8467088019031
S31500008E20434630880090082200F098F800F03FF89A
S31500008E3018BF912019D1FF2F09D000F07CFADFF876
S31500008E4084160968795C884238BF74200DD37CB9D2
S31500008E504FF6F870804528DA002001900097FF232E
S31500008E60324629462046FFF767FE05B0BDE8F08387
S31500008E70022C4FF6FE790CD1DFF8580600788542B1
S31500008E8013D2DFF83806006830F818004845E3DBEF
S31500008E900BE0012C09D1DFF840060078854204D2A8
S31500008EA0E8B206F0BBF84845D6DB0120DDE7DFF87F
S31500008EB020060068407B02287047F0B587B00D4653
S31500008EC01646044605961F46E8880FF24C61049044
S31500008ED023466879039009222879029068880190D0
S31500008EE02888009000F03AF8002001900097334659
S31500008EF02A4621460620FFF71FFE07B0F0BD2DE9E2
S31500008F00F04188B01E460E9C07948046F088069075
S31500008F101746707905900D4630790FF20861049076
S31500008F204346708803900A22308802900197009584
S31500008F3000F014F8DFF89005A0F800802346DFF86B
S31500008F408C0507700020019032460F980090294644
S31500008F500620FFF7F1FD08B0BDE8F081032012F00E
S31500008F6085B970B588B000F013F8DFF870050078A1
S31500008F700096002814BF4FF6FF714FF6FD710020D2
S31500008F8001902B4622460320FFF7D6FD08B070BDA0
S31500008F9004460D46069205951E46E0880FF290514E
S31500008FA004900622607903902079029060880190EF
S31500008FB0208800900320238912F058B910B5DFF8F5
S31500008FC020050CF0AEFE0446FF2C0DD021460420F1
S31500008FD00CF029F918B10121204600F006F82046C8
S31500008FE0BDE810400CF0C8BB10BD2DE9F04F89B0AC
S31500008FF082460D4612F083FA0646B01C0AF098FF28
S31500009000834650460FF0D4FF00F07EFA804608F003
S315000090100309504612F087FA0CF0AFFFDFF8C4746C
S31500009020301D0AF085FF3880DFF8BC4406F04DFBA2
S31500009030834512D04FF6F87083450EDA7078C00774
S315000090400BD458460FF093FC002805D0388801232E
S315000090505246594600F0B3F977E005A9504610F09C
S3150000906039F805A8206030460FF0C2FFDFF87C14FF
S3150000907008600321504612F032FADFF874140870C3
S315000090800421504612F02BFADFF86814087055B325
S315000090909DF81A00800626D5DFF8346406F015FB25
S315000090A040B13068007D800704D4B9F1010F08BFD4
S315000090B0102000D0002040F0080300220021504676
S315000090C010F033FF78B108F00300012802BF3068C2
S315000090D0407B11284CD100F07FFD002848D1AF20FD
S315000090E001F08DFB44E018F0030003D0022806D0FF
S315000090F00AD32AE02946504600F03FF825E05146BB
S31500009100404611F084FC20E006F0DFFA39888142FF
S315000091101BD0514605200CF086F8B0B1216888793D
S3150000912040060DD50C2202A80DF00DFE0020019080
S31500009130FF23FF20009002AA39880A20FFF7FCFCD3
S3150000914039882A46504606F040FC06F0BEFA3988B1
S3150000915081420BD150460FF02BFF00F0D5F90C21C0
S31500009160084203D10021504611F073FE0020206012
S315000091700CF033FF09B0BDE8F08F2DE9FE4F8146B4
S3150000918012F0BDF9054648460FF012FF0146484663
S315000091900CF08AFC8246687800F001000290A81C58
S315000091A00AF0C6FE4FF6F8718842ACBF01270027C9
S315000091B006F08BFADFF82C83DFF82C63B8F8001082
S315000091C081423068B0F802B002980CBF0124002436
S315000091D038438DF804009DF80400002814BF0620CB
S315000091E0082000210DF0C3F830680188002904BF6B
S315000091F04079002814D100A9484603F03BFA3368A9
S315000092009DF80010421ED2B2032012F073FAB8F88D
S315000092100000BBF5004F19DB5A46494603F03EFAFB
S31500009220306800884CF20E0188423FD144F20107B3
S31500009230BB4518BFBBF5804F35D148460FF03EFF02
S315000092400146BB450CBF0120002023E0AA4A0221AB
S3150000925011703B460022494603F098F83068807941
S31500009260400603D5FF21584600F06CF8BBF1130FFA
S31500009270D6D03068C0884004D2D4A0499E48097828
S315000092800078CA0701D50228CAD0890745D5012822
S31500009290C6D042E0491EC9B200912B464A4601217A
S315000092A001F094FE39E0484612F094FA30680299CB
S315000092B019B90AF00C010C290DD1008905F0E9FF56
S315000092C058B330680189002C14BF032502250020FD
S315000092D0FFF729F812E00179009100224379B8F8E6
S315000092E000000021FFF74EF80AF00C01082904D10E
S315000092F0002C0CBF0425052500E0002580490870D8
S315000093009DF8040010B9BBF1380F01D1012200E02D
S3150000931000222946484611F025F9BDE8F78F10B519
S31500009320044600F008F8610548BF0838210548BF23
S315000093300838C0B210BD66490968C97E642001B10B
S315000093405220704770B5684E0C4686B005463168A7
S315000093500C2202A80DF0F7FC306801798DF80D108B
S31500009360FF2341798DF80C10ADF80A504FF6BF7106
S31500009370C08800940840ADF80E0002AA00200190B3
S31500009380584801880720FFF7D7FB06B070BD5D4837
S31500009390007808B9FF2070475948007870470A4698
S315000093A080B50C21084208D19079400605D5508831
S315000093B0FF21FFF7C7FF012002BD002002BD2DE9F6
S315000093C0F34F924683B01C4650460FF0F1FD00F075
S315000093D09BF8834603201BEA000F6AD142480668C1
S315000093E0404807884FF0000800A950460FF072FE6B
S315000093F03D4900A808603B49BDF80C0008809DF86F
S315000094000500002804BFBDF80000002835D15046ED
S3150000941012F075F8801C0AF08BFD4FF6F871884241
S31500009420ACBF4FF00109C146002C14BF0224012431
S315000094300125EDB2AC4236D3BDF80C004B462A46A8
S31500009440514602F0A3FF5FEA000814D0022C08BFC1
S31500009450012D10D1BDF810001B4908801C4800687A
S31500009460417E491C4176A1F180001849087000A987
S315000094705846FFF794FF6D1CDBE7BDF800004CF281
S315000094800E01884204BFBDF8020001280BD144B189
S31500009490BDF81000514612F0FEF900A95846FFF734
S315000094A07EFF4FF00108104806600E4807804046D0
S315000094B000E0002005B0BDE8F08F0000D86700206E
S315000094C0E86700205867002066690020CE7F0020EC
S315000094D0F4790020A97F0020E4670020B27F0020F5
S315000094E070690020427A0020447A0020487A0020E1
S315000094F0CD740020CE740020CD7F0020AE7F0020EA
S31500009500DA7F0020407A0020014650460CF0CCBAA3
S3150000951042575757424257004257575742425742BF
S315000095200000000042575742575742425742000038
S3150000953042575742424257424200000010B5334953
S315000095400C2212FB00140CF091FD05F00FF908B186
S3150000955000F00FF8A279A1882068BDE810400DF050
