S0100000656D3236302D7370692E73333701
S31508002000C0210020055D02087D5C0208815C02088B
S31508002010A70A090100210008040303AC00579B0125
S3150800202000000000000000000000000000000000A2
S315080020300000000000000000000000000000000092
S315080020400000000000000000FFFFFFFFFFFFFFFF8A
S31508002050FFFFFFFF007002080000000000000000FC
S31508002060FFFFFFFFFFFFFFFFFFFFFFFFFFFFFFFF72
S31508002070FFFFFFFFFFFFFFFFFFFFFFFFFFFFFFFF62
S31508002080F02F002000000000EB2F0020EB2F00208F
S31508002090C02100205067020844600208601800202A
S311080020A0EC0F00200000030800300020B0
S31508002100C0210020055D02087D5C0208815C02088A
S31508002110895C0208855C02088D5C0208045D020879
S31508002120045D0208045D0208045D0208045D0208F5
S31508002130915C0208045D0208045D0208891E020813
S31508002140045D0208045D02082F2D0208045D0208DA
S3150800215021E90108045D0208452A0208045D02080F
S315080021602D1A0208A133010819BB0108752B0208AC
S31508002170045D0208E12A0208EF2A0208913D0108D7
S31508002180F9FC0108045D0208045D0208045D020802
S3150800219010B501F007010368012405E010B501F048
S315080021A00301890003680F2400F05AF8016010BD86
S315080021B038B500F0D1F8044600F0CEF8054600F030
S315080021C0CBF800F00102182C05F00F05A8BF362041
S315080021D038DA45F20F40E040C00748BF382031D40E
S315080021E0E00803D0022807D003D309E021464B486C
S315080021F004E021464A4801E021464A48FFF7C8FF5D
S31508002200A00805281DD8DFE800F003070B0F1317F1
S315080022102A462146444812E02A46214643480EE00B
S315080022202A46214642480AE02A462146414806E00F
S315080022302A462146404802E02A4621463F48FFF7FB
S31508002240ADFF0020BDE8324000F09FB810B501F0A0
S315080022500301890003880F2400F002F8018010BDED
S315080022608C40A34302FA01F11943704710B501F0F7
S31508002270070103780124FFF7F3FF017010BD2DE96C
S31508002280F04100F069F8044600F066F8054600F0EB
S3150800229063F8064600F060F8074600F05DF805F0BA
S315080022A00F0200F00108182C06F0010507F00F07C9
S315080022B0A8BF362022DA45F20F40E040C00748BFE3
S315080022C038201BD4600804EB907086081C4800F080
S315080022D019F81C483A4600F015F8A00804EB5070A7
S315080022E0C70819482A4621463818FFF7BFFF174876
S315080022F0424621463818FFF7B9FF0020BDE8F041ED
S3150800230000F043B8214600EB46009FE780B500F091
S315080023105FF80F4908400F49086001BD0CB000403E
S315080023200CB400400CB8004000B0004004B00040B7
S3150800233000B4004004B4004000B8004004B80040AF
S31508002340CC220020D8220020C4220020C822002047
S31508002350F0ABFF00E42200202A480168491C01600E
S3150800236011F8010D704738B50446264D0846296808
S31508002370224600F012FA28682018286031BD214A42
S31508002380116840181060084670471F491F4B0A68B5
S315080023901B68D31AC82BB8BF10700868401C0860A1
S315080023A0704710B50446C0B2FFF7EFFF200A4AE0AF
S315080023B010B5FFF7D1FF00F038F904EB002080B222
S315080023C010BD10B5044680B2FFF7EBFF200CB2E053
S315080023D010B5FFF7EDFF00F05FF804EB004010BD05
S315080023E038B5094C094A2368126805469A1AAA1884
S315080023F0C92A03DA0246184600F0CFF920682818D9
S31508002400206031BD3428002038280020642C0020A4
S3150800241010B50446214600F08CF8FFF7C9FF208165
S31508002420FFF79AFFA072FFF797FFE072FFF794FF96
S315080024302073FFF7BDFFE081FFF78EFF2074FFF7DB
S31508002440C7FF606110BDBDE810409EE710B500F0FB
S3150800245023F82080FFF7ACFF6080FFF77DFF20712F
S31508002460FFF77AFF6071FFF7A3FFE080FFF7A0FF91
S315080024702081FFF771FFA07210BD10B500F009F8B2
S31508002480A078E0E710B500F007F800F007F8A070AC
S3150800249010BD0446208884E7044689E720805BE768
S315080024A010B500F0C2F8A070FFF782FF2080211D4A
S315080024B000F03FF8FFF750FF00B10120E070FFF78A
S315080024C04BFF2073FFF748FF607310BD10B500F08F
S315080024D0DCF820690EE110B500F008F9FFF778FF7F
S315080024E0206110BD10B5FFF7D7FF208010BD2079F9
S315080024F04BE710B50446FFF7D3FF04F1100000F0D0
S315080025001DF804F11C0100F014F8FFF751FFA08430
S315080025102434FFF74DFF6080FFF71EFF2071FFF799
S315080025201BFF6071FFF718FFA071FFF715FFE07139
S3150800253010BD082017E7BDE8104032E710B504467D
S31508002540FFF746FF2060FFF743FF6060FFF730FFA5
S31508002550208110BD10B500F011F8A088FFF721FF03
S31508002560E088FFF71EFF2089FFF71BFF6089FFF74A
S3150800257018FFA089FFF715FFA07B64E704462068CB
S315080025801FE710B50446FFF723FF2060FFF710FF8B
S31508002590A080FFF70DFFE080FFF70AFF2081FFF715
S315080025A007FF6081FFF704FFA081FFF7D5FEA07340
S315080025B010BD10B5FFF7E2FFFFF799FF611D102068
S315080025C0FFF70EFF04F11501BDE81040102007E7DC
S315080025D010B5FFF761FF2080A11C22E010B5044664
S315080025E02078FFF7D2FE611C0F20FFF7F9FE04F1F1
S315080025F010010320FFF7F4FE04F11301BDE81040B3
S315080026000720EDE610B500F010F82070611C0F20C9
S31508002610FFF7A9FE04F110010320FFF7A4FE04F159
S315080026201301BDE8104007209DE6044694E638B538
S3150800263000F02BF804F110010820FFF7D1FEA0697D
S31508002640FFF7BFFE04F11805A888FFF7AAFEE88879
S31508002650FFF7A7FE2889FFF7A4FE6889FFF7A1FE02
S3150800266004F124010720FFF7BBFEE87CFFF78DFE87
S31508002670287DFFF78AFE687DFFF787FEA87DFFF7AE
S3150800268084FEE87DBDE832407FE6044621461020F8
S31508002690A6E638B500F02AF804F11001FFF749FF5D
S315080026A0FFF796FEA06104F11805FFF781FEA880E2
S315080026B0FFF77EFEE880FFF77BFE2881FFF778FEAE
S315080026C0688104F124010720FFF74DFEFFF744FE59
S315080026D0E874FFF741FE2875FFF73EFE6875FFF7B9
S315080026E03BFEA875FFF738FEE87531BD044621465E
S315080026F0102038E6BDE8104063E610B5FFF795FFF1
S315080027002072FFF765FE206010BD0CB4F8B50446CC
S315080027100D4606AE07E056F8040B1CB10078FFF725
S315080027202EFE38606D1C2878A0B356F8047B622804
S3150800273024D07028EFD0732818BF752804D07628BF
S315080027400BD0772812D0EDE71CB1FFF705FE3870DD
S31508002750E8E73878FFF719FEE4E71CB1FFF728FE2B
S315080027603880DFE73888FFF71CFEDBE714B1FFF790
S315080027702FFED6E73868FFF724FED3E756F8040B92
S315080027800078002C394602D0FFF7EDFDCAE7FFF7BF
S3150800279027FEC7E7F1BC5DF80CFB814233D210185F
S315080027A05118401E491E10E011F8013900F8013988
S315080027B0121F11F8013900F8013911F8013900F82A
S315080027C0013911F8013900F8013992B2042AEBDA15
S315080027D092B2002A1EBF11F8013900F80139521EBB
S315080027E0F6D1704711F8013B00F8013B121F11F8AA
S315080027F0013B00F8013B11F8013B00F8013B11F8D9
S31508002800013B00F8013B92B2042AEBDA92B2002AA5
S315080028101EBF11F8013B00F8013B521EF6D1704766
S31508002820130003D00A46194600F020B8704710B5C1
S3150800283000E0521E92B222B100F012F8F9D0181B2D
S3150800284010BD002010BD10B500E0521E92B22AB18C
S3150800285000F006F8F9D0181B40B210BD002010BDD4
S3150800286010F8013B11F8014BA342704762F30F229F
S3150800287062F31F42401810F0030308D0C91A1FD389
S31508002880DB0748BF00F8012D28BF20F8022D1300EA
S3150800289030B414461546103928BF20E93C00FAD84A
S315080028A0490728BF20E90C0048BF40F8042D8900D5
S315080028B028BF20F8022D48BF00F8012D30BC70470C
S315080028C0C91818BF00F8012DCB0728BF00F8012D3D
S315080028D07047000010B5044601F078F8204602F06B
S315080028E060F9204602F011FD2046BDE8104003F0CD
S315080028F0BBB902F053BD10B5044601F0A0F8204656
S3150800290002F07EFD204602F069F9204603F0D1F96F
S315080029102046BDE8104003F04CBB10B500E010B5EA
S31508002920044601F0DDF8204602F04FFE204602F08C
S315080029305BF9204603F0D9F9204603F0A4FB2046AC
S31508002940BDE8104003F0E3BD10B5044601F0F5F804
S31508002950204602F05AFE204602F05DF9204603F0B2
S31508002960F2F90CE010B5044601F00CF9204602F025
S3150800297089FE204602F04FF9204603F001FA204668
S3150800298003F099FB204603F0DAFD2046BDE8104027
S3150800299003F043BB80B504F02FF803F0B0F8BDE8A8
S315080029A0014002F081B910B5044603F075FC2046D3
S315080029B0BDE8104003F045BB80B504F090F8BDE8CB
S315080029C0014003F0A3B870472DE9F0471038E42812
S315080029D0AAB04FF00108DFF8B897DFF8B857D6A1C4
S315080029E0D6A4D7A7D7A60FF2603A00F24E87DFE83B
S315080029F010F028014C074C074C070605B703BC0323
S31508002A004C0789034C07DA034C074C078903E7038D
S31508002A10EE0389031C0189034C074C074C074C0736
S31508002A204C07E500EB00890355014404740189034A
S31508002A3061049B034C074C0779017C014C07AD01E7
S31508002A400302D7013B024C074C074C074C074C07BF
S31508002A504C074C07660454024C074C074C074C07B6
S31508002A604C074C074C07FF004C074C074C074C0714
S31508002A704C074C074C074C074C074C074C074C07B0
S31508002A804C074C074C07660289036F049B037904BD
S31508002A90800496049E044C07B102C1024C07EB045D
S31508002AA04C07A704BF04D4020C054C074C074C0777
S31508002AB00203D303D402CA04AB030F05E004FB04E4
S31508002AC0AB034C070A04890324044C074C07850406
S31508002AD090044C074C077B02760389038903890314
S31508002AE0890389037D03890389037E0589034C07C6
S31508002AF04C072E074C074C074C074C078903CC029A
S31508002B004C074C073E0489034C07F9034C074C074E
S31508002B1014054C0789036C054C0589033A056503BA
S31508002B204C071E0339034C074C074C074C074C0748
S31508002B3055035C058903990687059E05AA054C0772
S31508002B404C074C07AE06B3064C07B606C106B205D7
S31508002B50AF054C074C074C074C074C074C07760645
S31508002B604C074C0751064C074C074C074C074C07BB
S31508002B704C07B505C005C806CB05D5054C074C0757
S31508002B80F3050106CD064C074C074C07FC064C0717
S31508002B9004064C074C0715064C074C071A0624066C
S31508002BA0380689034C0727054C0742057203890333
S31508002BB03F064C074C074C074806010701A900A821
S31508002BC002F042FB00F01ABE08208DF809000DF14C
S31508002BD00A0103A802F076FB8DF8080003AB0DF195
S31508002BE00A00019002AA0DF109000090BCA1ADE10E
S31508002BF008208DF80F000DF10E0200F074FE9DF806
S31508002C000E0003AB05AA04A902F06DFB8DF80D00B2
S31508002C1004AB03A802900DF10D020DF10F0001900F
S31508002C2005A800900FF6085190E101AB0DF10102DD
S31508002C30ACA100F053FE01999DF8010002F062FB79
S31508002C40A2E10DF1150004900DF11E030DF1160019
S31508002C50039006AA0DF1170002900DF11A000190D3
S31508002C6007A8009001200FF6D041FFF74EFD9DF80A
S31508002C701500BDF81A30BDF81C20BDF81E100290CC
S31508002C809DF8160001909DF8170000909DF8180011
S31508002C9003F097FF8DF8140005AAE2E1FFF75CFB45
S31508002CA000F019FE8DF80000FFF756FB8DF80100BD
S31508002CB0FFF77EFBADF80200FFF74EFB8DF8040028
S31508002CC00DF1050100F031FEFFF746FB8DF80D000A
S31508002CD000A9284603F018FC07E2FFF73DFB03F0BE
S31508002CE014FC02E204F09BFB4EE10DF1120304AA68
S31508002CF0E9A100F0F3FD06A8FFF7A8FB03A80190D9
S31508002D0003AB05A800900DF10F0221464046FFF7D8
S31508002D10FCFC0DF10D00029006AA05989DF80F30EF
S31508002D20BDF8121001909DF80C0000909DF8100057
S31508002D3002F0B1F92DE000BF76000000757570004D
S31508002D407570000075000000757500000DF112021F
S31508002D500120FFF7DAFC06A8FFF778FB03A8029024
S31508002D600DF10F0305A8019004AA03A800F0C7FDFA
S31508002D700DF10D00029006A905989DF80F309DF8F3
S31508002D80102001909DF80C000090BDF8120002F08A
S31508002D908BF98DF80E000DF10D030DF10E025EE0B4
S31508002DA007A8FFF753FB04A8039005AB06A80290F3
S31508002DB00DF1150204A801900DF1130000900120F1
S31508002DC00FF67C31FFF7A1FC9DF813309DF814200F
S31508002DD09DF815100DF111000290069801909DF8C6
S31508002DE01000009007A802F06BF98DF812000DF19B
S31508002DF011030DF1120232E00DF1190000900DF1E8
S31508002E001A0307AADCA100F073FD09A8FFF71EFB49
S31508002E1005A802900DF1170308A8019006AA05A8AF
S31508002E2000F06DFD0DF11500049009AB08989DF8AA
S31508002E301920BDF81A1003909DF8140002909DF809
S31508002E40170001909DF818000090BDF81C0002F0CC
S31508002E5052F98DF816000DF115030DF116025146BB
S31508002E600020FFF752FC6EE10DF106020120FFF784
S31508002E704CFC03A8FFF7EAFA01A8009002AB01AAE6
S31508002E8039464046FFF741FC029B9DF80420BDF8F1
S31508002E90060003A902F05FF92FE10DF10500009085
S31508002EA00DF1060302AAB5A100F022FD9DF8052042
S31508002EB09DF80610BDF8080004F002FCE7E000F0F3
S31508002EC023FDAFA100F014FD039A9DF80810BDF884
S31508002ED00A0004F0AFFC8DF809000DF10902C0E004
S31508002EE0756276007577000008208DF811008DF858
S31508002EF010000DF10E00029005A801900DF11100C9
S31508002F00009008AB0FF640250DF10F02294600F098
S31508002F10EFFC03A802900DF11200019006A800909C
S31508002F209DF80E30BDF814209DF80F0008A902F090
S31508002F3040F98DF80D0006AB03A802900DF10D02BD
S31508002F400DF112000190294604A800900020FFF711
S31508002F50DCFBF8E000F0C5FC9DF8010001A902F0D1
S31508002F604DF98DF8000000AA00F0C5FC01A8FFF78E
S31508002F7084FAE8E000F0B5FC01A8FFF783FA9DF8AB
S31508002F80010001A902F04DF9DDE300F0C5FC029944
S31508002F909DF8040002F0A4F8AFE000AA00F0A3FC34
S31508002FA028786A289DF8000001A902D104F080FC5F
S31508002FB001E004F074FF8DF801000DF1010200F044
S31508002FC09AFCBDF80400FFF7ECF99DF80600FFF738
S31508002FD0DCF90DF107011020FFF702FA0698FFF752
S31508002FE0F0F90798FFF7EDF99DF82000FFF7CDF9FE
S31508002FF00DF12101C5E109A8FFF76DFA00F084FC7F
S31508003000214600F075FC04A80090039B9DF8082053
S315080030109DF80A1009A802F003FE8DF809000DF1C3
S31508003020090200F068FC04A8FFF750FA8BE00820B4
S315080030308DF80E008DF80D0007AB0DF10D0002900E
S3150800304004AA05A801904FA10DF10E0000F04FFC4F
S31508003050BDF8100005AA07A905F013F98DF80C00AC
S3150800306003AABFE308208DF8050002AB0DF10500A1
S3150800307000900DF1060244A100F03AFC04A900F004
S3150800308020FCBDF8060004AA02A905F03AF98DF855
S31508003090040001AAA6E300BF7576000008208DF893
S315080030A001000DF1010301AA38A100F017FC00F098
S315080030B007FC03A901A802F0CDFD44E300F02CFCAF
S315080030C002999DF8040002F013FF8DF805000DF132
S315080030D0050200F010FC02F026FFFFF756F9FFF78D
S315080030E03BF900B1012005F0AEFBCBE300F014FC80
S315080030F002999DF8040005F0AFFB8DF805000DF167
S3150800310005026FE32A780FF65000002600E0761CC9
S31508003110F6B2315C9142FAD1FFF71EF90FF650016B
S3150800312051F826108847ADE3FFF716F90646FFF76C
S315080031303FF92978302901460CBFDFF86427DFF804
S31508003140642730469047A2E300F0BEFB287877282C
S3150800315000A802D105F094FB94E305F0C9F891E3C1
S31508003160FFF726F9DFF8401703E0FFF721F9DFF844
S315080031703C1708808BE300BF767675007675750078
S315080031807675700076626200766200006200000062
S3150800319044600208AD2F002000A8FFF7A3F900A895
S315080031A005F024FE6EE3FFF7D7F80546FFF710F99A
S315080031B000F08EFB02463146284606F043FF61E3DF
S315080031C000A8FFF725F900A805F099FC5AE3FFF7D0
S315080031D0C3F8054600A8FFF71BF900A9284605F01D
S315080031E014FD4FE3FFF7E4F80546FFF7F1F800F0A2
S315080031F06FFB0446FFF7DCF80346224631462846AD
S3150800320007F03CFB3EE3FFF7A7F800A907F0E0FF4D
S31508003210FFF7BBF800F04CFB9DF80200FFF7B5F886
S315080032209DF80300FFF7B1F800F046FB9DF805008E
S31508003230FFF7ABF80DF10601A3E0FFF78DF800A93B
S3150800324008F055FAFFF7A1F800F032FBBDF80200C6
S31508003250FFF7A7F800F030FB9DF80500FFF795F893
S315080032609DF80600FFF791F89DF807000AE3FFF7B7
S3150800327073F840B208F09EFB04E3FFF76DF800A967
S3150800328003F067FAFFF781F89DF80000FFF77DF86D
S315080032909DF80100FFF779F8BDF80200FFF781F8FD
S315080032A000F00AFB0DF105010820FFF799F89DF8D3
S315080032B00D00E7E2FFF750F803F02DFA34E0FFF7C8
S315080032C077F800F008FB0146284608F093FDD9E296
S315080032D0FFF742F8054600F027FB00A9284609F043
S315080032E0BDFECFE2FFF738F800A909F022FF00A9D2
S315080032F047E0FFF731F809F02AFF15E000F014FB64
S31508003300FFF72AF8010018BF012100A80AF04AF8B9
S31508003310BDE200F009FB00A80AF027F8B2E200F0C7
S3150800332003FB00A80AF072FAFFF73BF8AFE2FFF7D3
S315080033303FF800A90AF084FAFFF727F800A920E069
S31508003340FFF736F8ADF800000DF1020100F0B9FA02
S315080033500DF1120100F0B5FAFEF7FEFF8DF8220016
S315080033600DF1230100F0E1FA00A80AF04FFB89E20B
S3150800337000A80AF0E7FBFFF708F800F099FA0DF144
S31508003380020108207EE0FEF7E7FF054601A900F0E6
S31508003390CCFAFEF7E1FF064600F092FA03A83300DE
S315080033A0009018BF012301AA2946002004F0DAFD7F
S315080033B068E200F0B9FAFEF7CFFF010018BF012155
S315080033C000A804F08FFD5DE200F0AEFAFEF7C4FF38
S315080033D0054602A900F075FA290018BF012102AABC
S315080033E000A804F066FD4DE2FEF7B6FF0021009145
S315080033F00A4601460023404604F0B4FD42E200F0C6
S3150800340093FA00A804F066FC3CE20BF0F9F93EE2F8
S315080034104FF6FF7004F0D6FF34E2FEF79DFF05462F
S3150800342006A93020FEF79FFF00A91620FEF79BFF8E
S31508003430280018BF012000AA06A90BF087FB21E285
S31508003440FEF78AFF05460AA94A20FEF78CFF00A95F
S315080034502520FEF788FF280018BF012000AA0AA920
S315080034600BF081FB0EE200A80BF077FBFEF78DFF51
S3150800347000A9302006E000A80BF07AFBFEF785FFCE
S3150800348000A94A20FEF7ACFF01E200F01DFA0FA9D9
S315080034903020FEF768FF04A92A20FEF764FF04AA75
S315080034A00FA900A80BF06AFBECE100F00DFA16A9CB
S315080034B04A20FEF758FF04A94820FEF754FF04AA3D
S315080034C016A900A80BF05CFBDCE106A91620FEF79E
S315080034D04AFF0CA93020FEF746FF00A91520FEF783
S315080034E042FF00AA0CA906A80BF035FBCAE1FEF7B5
S315080034F05FFF00F0F0F941B228460BF024FCC1E169
S315080035000AA900F0DEF9FEF763FF0090FEF724FF34
S315080035108DF804000DF1050100F0D3F90DF1150140
S3150800352000F0CFF900A90AA80BF091FDAAE1FEF771
S315080035304FFF00F0D0F900F0CBF9024671B22846E9
S315080035400BF0B7FD9EE1FEF733FF0BF0FFFD99E1A7
S315080035500CF07EF99BE10CF080F893E1FEF7FCFE97
S31508003560054600A8FFF795F800A928460CF090F93B
S3150800357088E1FEF7F1FE00A90CF0E6F9FEF705FF73
S3150800358000A8FFF754F882E1FEF7E6FE054600F0CC
S315080035909BF900A928460CF0C1FD73E1FEF7DCFE95
S315080035A000F099F90646FEF703FF8146FEF7D4FEBA
S315080035B00446FEF7D1FE0746FEF7CEFE8246FEF724
S315080035C0DEFE0290CDF804A0009723464A4631460F
S315080035D028460DF08FFF55E1FEF7BEFE054600A80A
S315080035E0FEF7F6FFFEF7B8FE42B200A928460CF031
S315080035F067FB47E10CF0F8FB44E1FEF7ADFE054634
S31508003600FEF7D6FE064600F08FF9FEF7A5FE03463E
S3150800361000AA314628460CF088FC33E1FEF79CFEEA
S315080036200CF012FD2EE1FEF7D3FE0546FEF7D0FE9E
S31508003630014628460EF00CFB24E1FEF78DFE00F04D
S315080036404AF900F045F90746FEF7B2FE0446FEF7CA
S3150800365083FE009023467AB2314628460CF01EFDBA
S3150800366010E100A8FEF7CEFF00A80EF016FB09E150
S3150800367000A80EF01FFBFEF788FE00A8FEF7AEFFB7
S3150800368005E1FEF769FE00F026F9014628460EF028
S315080036900BF8F7E0FEF79CFE054606A8FFF72DF89F
S315080036A0FEF75AFE0646FEF783FE8146FEF780FEC3
S315080036B00446FEF77DFE074604A900F036F909A977
S315080036C000F0FFF809A803904B4604A8029001975A
S315080036D00094324606A928460EF084FFD7E0FEF786
S315080036E03BFE00F0F8F8064604A8FFF706F8FEF7D2
S315080036F033FE8146FEF730FE0446FEF740FE0746D7
S31508003700FEF72AFE8246FEF753FE0390CDF808A080
S31508003710019700944B4604AA314628460FF03BFA17
S31508003720C0B2AFE001A8FEF7E4FE0DF101030DF10A
S31508003730020259A100F0D2F89DF901209DF8021065
S3150800374001A802F095FC8DF8000000AA4AE0FEF7F1
S3150800375003FE0BF09DFF95E00BF09FFF92E004A996
S3150800376000A80BF06CFF00A8FEF7F4FE04A8FEF70D
S3150800377020FF8CE000A8FEF704FF00A80BF067FF07
S3150800378085E0FEF7E9FD01F009FA7BE006A8059059
S315080037900DF11E0309A8049008AA06A803900DF1C6
S315080037A01A00029007A801900DF11B000090012055
S315080037B00FF29C11FEF7A9FFBDF81C309DF81B20DF
S315080037C0BDF81E1009A802909DF8180001909DF8F2
S315080037D01A000090BDF8200001F0B5F98DF819001F
S315080037E00DF1190200F087F851E0FEF7E1FD01F04E
S315080037F0C9F947E001A900A801F033FA8DF80100DC
S3150800380000AB0DF1010251460020FEF77EFF01A92B
S315080038100820FEF7E5FDBDF80C00FEF7C2FD9DF891
S315080038200E00FEF7B2FD9DF80F00FEF7AEFD9DF8FF
S315080038301000FEF7AAFDBDF81200FEF7B2FD9DF8CE
S315080038401400FEF7A2FD0698FEF7BBFD1FE0082050
S315080038508DF8120006AB04A803900DF1110205A815
S3150800386002900EA104A801900DF1120000F03FF895
S315080038709DF8110000B10120059B9DF8102006A9AE
S3150800388001F077FFFEF781FD01E04FF000084046A2
S315080038902AB0BDE8F08700007573000075627000F5
S315080038A023670008DBD00008F4220020F622002057
S315080038B0BDF80000FEF775BD9DF80400FEF765BD6E
S315080038C003A91020FEF74FBD00A91020FEF74BBD37
S315080038D00646FEF741BD0546FEF73EBD0120FEF74A
S315080038E014BF0DF1010231460120FEF70EBF00900C
S315080038F00120FEF70ABF31460020FEF706BF0090FA
S3150800390049464046FEF701BF02A8019002AB03A84C
S3150800391000900DF10A02704701A8009002AB01AAB7
S3150800392039460120FEF7F1BE00A90820FEF71BBDA7
S315080039307576627500000000757676767575750081
S315080039407575757570000000756276750000000063
S315080039507676757675756200181D207A2A848586AE
S3150800396087888B8A8D959A2E5BB1A4A122E8EE00F2
S31508003970AFB800085FA10008F5880108BBB10008C8
S31508003980456A0008EDEB000865EC00087BEC0008CA
S315080039908FEC0008ABEC000843ED00082DED00089D
S315080039A06FED000891530108459E000869A70108B4
S315080039B06DA701080581000851EB00085FEB0008B8
S315080039C0C98B00086BEB000879EB000838B504468C
S315080039D0207898BB6070012020722070A078032898
S315080039E01FD0072821D0112804D0152820D0302828
S315080039F014D021E00720DFF87C59207204F1090071
S31508003A0029880FF09AFAA878E072E878207328795E
S31508003A1060736879A073A879E07331BD0FF0B3FAC3
S31508003A2008E0DFF85409007804E00FF06DFB01E0C8
S31508003A300FF0D3FF607231BD0020207031BD38B55C
S31508003A400446207800284AD101202070A07804284E
S31508003A5010D0072814D00E281AD011283AD01528C5
S31508003A6022D0172825D018282DD019282ED030284E
S31508003A7014D032E0207A012814BF362000202AE02C
S31508003A80607A10B10FF00EFB25E00FF01DFB22E067
S31508003A90607A00B1012010F08FF902E0607A0FF029
S31508003AA074FAC0B1362016E094F909000FF06DFFDC
S31508003AB00EE0657A04F10A000FF038FA0146284646
S31508003AC010F067FA04E010F05FFA01E010F04FFA20
S31508003AD0002000E03720607031BD0020207031BD25
S31508003AE010B50446DFF894088078217856280CBF6C
S31508003AF00120002001BBA1706178072910D130B1DF
S31508003B0010F09CFA012814BF632062200EE0E078CA
S31508003B1062280CBF0120002010F093FAA07009E07B
S31508003B20042909D1DFF8581810B10878E07001E0C7
S31508003B30E07808700120207010BD017809BB8170FB
S31508003B4001210170417801290ED00C2909D01729C5
S31508003B500DD02D2902D035290CD010E0DFF8241815
S31508003B600AE0DFF8241807E0DFF8201804E0DFF899
S31508003B70201801E0DFF81C180978818070470021B9
S31508003B800170704738B50446207800285AD10120BC
S31508003B9020700020A0706078012815D00C280FD05E
S31508003BA017283DD02D2802D0352844D048E0A188D2
S31508003BB003293DDAC9B2DFF8CC0710F011FC38E06A
S31508003BC0A088DFF8C41739E0DFF8CC07008828BBDF
S31508003BD0A08818B3DFF8C457287810F029FE11F02A
S31508003BE064F980B1A188DFF8A407C9B210F0F8FB20
S31508003BF0A07011F064F9DFF8A807DFF8A8170068C5
S31508003C00C01C086001E03820A070012010F0A7FD54
S31508003C1028700020DFF89017088031BD382008E0AA
S31508003C20A08811F00AFA18B9A088DFF8641705E029
S31508003C303620A07031BDA088DFF85817087031BD4E
S31508003C400020207031BD80B501208DF8000000A845
S31508003C50FEF7A9FE9DF8000002BD00002DE9F04F11
S31508003C60A7B011F04EF911F05CF90746DFF83007F6
S31508003C70DFF808470068DFF8342746788578A570A6
S31508003C8006F003018DF8081001782170C11C116037
S31508003C90C01CDFF810170860700900F00300E07018
S31508003CA011F026FD300602D55825322032E260781A
S31508003CB020B9A07810B1582530202BE211F0B8FFB2
S31508003CC010B95825422025E2FFF7BDFF002800F06D
S31508003CD02382A0786178DFF8D8B602000FF2282888
S31508003CE00FF228290FF2282A4FF6FF765CD0012812
S31508003CF000F0CA81022800F09480032800F0E580CD
S31508003D00052833D0062800F02E81092818BF0A286E
S31508003D1000F031810B2818BF0C2800F033810E28DB
S31508003D2000F03D81122800F08381132800F0B1814C
S31508003D30172800F0BE81262800F0B181272800F058
S31508003D40B381472800F0A881492800F022814E282F
S31508003D5000F04F8152283CD0532851D0552877D0AF
S31508003D60562800F08C8065281BD0812800F0F0804A
S31508003D708F2800F0A181912800F0BB81942800F0DB
S31508003D80A781AA2800F09780AB2800F0C380AC284A
S31508003D9000F0D580AD2800F0D580AE2800F0D5809B
S31508003DA0F12800F06181B0E1FEF7D6FA0646042054
S31508003DB0FEF7EBFA0220FEF7E8FA4FF4AE40FEF7FC
S31508003DC0F0FA6078002808BF042E01D1012060703F
S31508003DD0A2E100F0C0F9FEF7BFFA8DF8010000A8CD
S31508003DE0FEF7B2FD9DF8000028B937208DF80200CD
S31508003DF00020ADF8040001AB0DF10202414656E081
S31508003E00012918BF382039D100F0A5F901AB0DF109
S31508003E10010241460120FEF778FC00A8FEF7A2FD44
S31508003E2024E03826012912D1F91EC9B2032011F05F
S31508003E3073F80746FF2F08BF352608D011F00AFF8A
S31508003E40002814BF00263626384610F0F1FCEDE0AF
S31508003E50042200F081F90DF103030DF10102494630
S31508003E600120FEF752FC00A8FEF759FD9DF8000058
S31508003E7010B937208DF802009DF802004AE10422A5
S31508003E8000F06AF9FEF768FA8DF8010000A8FEF757
S31508003E9044FD9DF8000028B937208DF8020000205F
S31508003EA08DF803000DF103030DF1020249460020C7
S31508003EB0FEF72BFC30E100F049F9FEF74DFA8DF8D4
S31508003EC00E0003A8FEF706FD0BE000F03FF904AB71
S31508003ED00DF10E02ADA10120FEF717FC03A8FEF7AF
S31508003EE008FD9DF80C0028B937208DF80D00002034
S31508003EF08DF8140000F023F90DF10D02514600204B
S31508003F00FEF703FC08E100BF757600007575000032
S31508003F107575620000F01AF900F011F90DF10E023C
S31508003F2051460120FEF7F1FB03A8FEF7E4FC9DF8D5
S31508003F300C0000280CBF37209DF80D00EAE0FEF7BC
S31508003F4037F9E9E0FEF79BF9E6E0FEF7DFF9E3E08B
S31508003F50042FFCDBDFF84C04DFF848140068381837
S31508003F60C01E0860D8E0012000F0FAF8002840F0EA
S31508003F70E3800725D0E009280CBF0120002002F0C5
S31508003F8087FDC9E00C280CBF0120002000F05AF973
S31508003F90C2E00020FEF7F9F911F084FF86E0FEF78B
S31508003FA0DBF90646FEF704FA0746FEF7D5F980461A
S31508003FB0FEF7D2F98146B7F5004FB4BFB8F1040F42
S31508003FC070200BEBC60A11DA022E10DADAF80000B6
S31508003FD04246394611F076FFB9F1000FAAF8047087
S31508003FE008BF4FF000088AF80680002092E070208B
S31508003FF090E0FEF7B1F9002100260228ADF802107C
S315080040008DF800100BEBC00708DA386800AA0DF126
S31508004010020111F066FFB87900B10126BDF8020069
S31508004020FEF7BFF99DF80000FEF7AFF9304671E0DC
S31508004030FEF792F9070018BF0127002011F082FF4A
S3150800404080464246FF2A08BF182063D0002F14BFB7
S31508004050304602207AA111F0C1FF0020FEF795F93B
S31508004060404610F0E5FB57E00026DFF8487337F8BE
S315080040701600FEF796F9761C222EF8DBA07865283E
S315080040804AD10FF074FF47E0FEF766F912F0F6F82A
S3150800409040E011F0DCFD3FE011F0D0FD3CE0C64900
S315080040A00820FEF79DF937E009F0FBFBFEF779F9E2
S315080040B032E004F09AFE2DE0012712F053F9B042DF
S315080040C004D00027FEF748F9BC490870384621E0B5
S315080040D003A91020FEF747F907A91020FEF743F9B0
S315080040E007A903A812F084F903A91020FEF778F9A6
S315080040F012E012F037F9FEF754F90420FEF745F9F5
S315080041000320FEF742F9032004E0FEF75DFC18B928
S3150800411058253120FEF739F9A14920780968087031
S31508004120072D9F48006885700CBF012200229DF864
S315080041300800012100F02CF827B0BDE8F08F05A88B
S31508004140019005AB0DF11500009070478C220021F7
S3150800415003A8FEF765BB0622002100A8FEF760BB90
S3150800416038B58D4D0446288810B110F0E2FE08B91E
S31508004170002032BD288808B910F0CCFE9048007897
S315080041800122214600F004F8012032BD75770000AF
S315080041902DE9F8438846824E824909680746306801
S315080041A09146091AB9F1000F8DB203D04078C0F3D1
S315080041B0411402E011F098FA0446724800788442E5
S315080041C005D340F26D310FF2082012F01DF9600197
S315080041D040F08000C92DC4B205DBC82010F0A5FE4A
S315080041E044F0020402E0E8B210F09FFE7548017838
S315080041F019B1002144F0020401707348017819B11D
S31508004200002144F0010401706348018811B144F0AB
S315080042100401CCB219EA080F1CBF44F00801CCB25D
S3150800422031684C70012F18BF022F02D1008800B1E7
S315080042300027634807704046BDE8F24310F058BEB1
S31508004240620000002DE9F0419AB00446FEF784F8B2
S3150800425005464CB1062818BF082803D0092818BFF8
S315080042600B2801D170207FE0062D12D12820FEF7F9
S315080042708CF80024554801880223224601A812F02A
S31508004280F3F9BDF80400FEF78CF8641C142CF1DB76
S315080042906CE0082D1DD14020FEF777F80024042392
S315080042A022460C2100A812F0DFF99DF80000FEF75F
S315080042B06CF89DF80100FEF768F89DF80200FEF715
S315080042C064F89DF80300FEF760F8641C102CE6DB22
S315080042D04CE00B2D47D000260FF2081808EBC6074E
S315080042E0387885422BD114B97878FEF74EF8786875
S315080042F07B780188002202A812F0B6F934B3FEF7DB
S315080043002BF801467878814201D002202CE0002162
S3150800431000E0491CC9B2814205D202AA8A5CFF2A7A
S31508004320F7D0462020E002A9FEF71DF878687A78CB
S31508004330008802A912F027FA0020FEF726F8761C54
S31508004340F6B20A2ECAD374B1B1200DE0092D05D1F3
S31508004350152200210DF14E00FEF762FA787802A9BF
S31508004360FEF73EF802E00020FEF70FF81AB0BDE8A7
S31508004370F081000098640208C1210020AB2F0020BC
S31508004380EC22002014220020A22F0020C0210020A9
S31508004390B02F0020282200208E2F0020E3230020A3
S315080043A0642C002038280020BE290020342800204C
S315080043B0AC2300207C2C0020682C0020E22300205F
S315080043C0CC2F0020AF2F00208C2F0020CA640208B3
S315080043D0636F6D6D616E642D68616E646C65727372
S315080043E02E63000001100000BE64020802100000DF
S315080043F0C064020803020000C26402080510000037
S31508004400C664020807080000C86402080002000023
S31508004410BA64020804020000C4640208095C0000C9
S31508004420CC6402080A140000CE6402080C080000D6
S31508004430BC64020810B5044601202070A178DFF894
S31508004440A00A27290CD1217A0429A8BF36200DDA1B
S31508004450417304F10901227A2030FEF79EF96FE0D4
S3150800446028290CD1217A0829A8BF36206FDA0173CA
S3150800447004F10901227A1830FEF78FF960E0C27B51
S315080044801D2910D1217A042918BF36205FD142F0A0
S315080044900101C173617A0172A17A4172E17A81726E
S315080044A0217BC1724CE01E290DD1217A012918BF42
S315080044B036204CD1617A002914BF42F0020102F07D
S315080044C0FD01C1733CE01F290DD1217A012918BFCE
S315080044D036203CD1617A002914BF42F0040102F06B
S315080044E0FB01C1732CE020290BD1217A082918BFBA
S315080044F036202CD1082204F10901B030FEF74DF917
S315080045001EE021290BD1217A092918BF36201ED190
S31508004510092204F10901A430FEF73FF910E0222927
S3150800452010D1217A052918BF362010D1617A017079
S31508004530A17A4170E17A8170217BC170617B01713A
S31508004540002004E0162904D1607A0BF02AFE607078
S3150800455010BD0020207010BD2DE9F54FDFF8840945
S31508004560C0780027702895B08A461E46BB4640F09C
S3150800457021813078DDF88090DFF86C89DFF86049B2
S31508004580C0F302100090002500E06D1C0098EDB203
S31508004590C0B2854280F09380A8190221C07C00F041
S315080045A072FA0028F1D0327BF07AB17AE57B1309EA
S315080045B001EB0020AF0702F00F014EBF0127277A53
S315080045C007F00F07727BED0780B268D54FF6FF75C7
S315080045D0A8421CBFB8F80050A84260D18F4222BF3B
S315080045E0BB42219890425AD31599082208A8FEF78B
S315080045F0D4F816998DF828A00A220DF12A00FEF79C
S31508004600CCF81A2231460DA8FEF7C7F88DF84E9059
S31508004610E07B80074CD5DFF8D45805F12E06B07834
S3150800462000283DD00822294608A8FEF700F90028E8
S3150800463001BF0AAE7088698988422CD1072205F124
S315080046400C010BA8FEF7F3F8002802BF307B297D82
S31508004650884220D10F220DF135010DF13500FEF704
S31508004660E6F8C0B9032205F1240111A8FEF7DFF820
S3150800467088B9072205F127010DF14700FEF7D7F89B
S31508004680002802BF9DF84E0095F82E10884202D1E8
S31508004690022101200EE0E07B00F0FD00E07387E0D8
S315080046A0302208A92846FEF778F80120B0707FE086
S315080046B00221002000F0ABF94FF0010B78E000254D
S315080046C03BE0401CC0B2884236D2DFF82428821864
S315080046D0127C9145F5D101A800F085F9227B04F1F9
S315080046E018010DF11700FEF758F89DF8040000F0C0
S315080046F08F008DF804000922217B090141F0010190
S3150800470008438DF8040004F1A4010DF10500FEF735
S3150800471044F8A0788DF80F0060788DF8100020789E
S315080047208DF8110020798DF81200E0788DF81300C5
S3150800473001A80DF0B2FABB466D1C0098EDB2C0B2E6
S31508004740854234D2BBF1000F31D1A819C07C0128AB
S3150800475002D0C0280FD0EFE7E07B01278007EBD512
S315080047601599082204F12400FEF717F80021012004
S3150800477000F04DF9DFE7DFF87C17097801F0010151
S3150800478001270AF0010081F00101084301BF1698CC
S315080047900088B8F800108842CED1DFF854070078B0
S315080047A0B9F1FF0FC0F3410195D000208AE70FB198
S315080047B0584606E0DFF82C07007872280CBF01205F
S315080047C0002017B0BDE8F08F2DE9FE4FDFF814077B
S315080047D0C07800247028A0466BD10E98DFF800A791
S315080047E000780094C0F30210019021E06D1C09F1D5
S315080047F00109B9F1100F43DB96B10E980078C0078E
S315080048000ED50E98C07AC0F30110022818BFFF2FE4
S3150800481006D002990AEBC70008222430FDF7BDFF2F
S31508004820E8B2102800DAA0460098401CC0B20090F2
S3150800483000980199884239DAB8F1000F36D10E98F6
S31508004840009908180022C17C00E0521C9AF80E3024
S31508004850D2B29A42E8D202EB0A031B7C8B42F4D10D
S31508004860012906D0032902D0C02904D0DCE7012497
S31508004870D9E70124D8E70025FF2701260124A94600
S315080048800AEBC90B029908220BF12400FDF7CFFFAA
S3150800489000B90026FF2208210BF1240007F066F86C
S315080048A00028A3D0FF2FA2D14F46A0E70CB140465F
S315080048B006E0DFF83006407874280CBF0120002097
S315080048C0BDE8FE8F2DE9F44FDFF818A605469AF8DD
S315080048D00300002670288EB0B3467BD1199F38781E
S315080048E01A9CDFF8FC85C0F302100490B14607E075
S315080048F00126002D18BFC12D00D1B34609F10109C3
S3150800490004985FFA89F9C0B2814560D2BBF1000FFD
S315080049105DD109EB0700C07C012848D0032802D0E6
S31508004920C028E5D0EAE70126032CE7DB002D18BFEF
S31508004930C12DE3D107A800F056F89DF81C0040F0F9
S3150800494001008DF81C00082208F1B0010DF11D00C8
S31508004950FDF723FF072200210DF12500FDF760FF73
S31508004960387805A90391C0F34102C0F302110291F8
S3150800497008F1180307F113010191FF2098F80C10AC
S31508004980009107F1100100F0ADF89DF81C1001F038
S315080049908F0141EA00118DF81C10024605A90DF198
S315080049A02F00FDF7FAFE07A80DF077F9A5E701260F
S315080049B0002D18BFC12DA1D1032C9FDB0E9908220B
S315080049C008F12400FDF733FF002897D195E70EB1CB
S315080049D0584605E09AF8020076280CBF0120002008
S315080049E00FB0BDE8F08F38B5DFF8F4546A7B04469B
S315080049F005F1200104F11000FDF7CFFE207800F044
S31508004A00F9002070697B40EA4100207031BD70B51D
S31508004A1088B005460E4600A8FFF7E5FF9DF800009A
S31508004A20DFF8BC44217B00F08F008DF80000334688
S31508004A3000AA04F1180000F033F89DF8000040F0D1
S31508004A4001008DF80000082204F1B0010DF1010003
S31508004A50FDF7A3FE00208DF80900ADF80A00002D29
S31508004A60A07A8DF80C00607A8DF80D0014BF21200D
S31508004A70207A8DF80E00E07A8DF80F0000A80DF068
S31508004A800CF908B070BD0022022808BF01220328CD
S31508004A9008BF02228A4201D10120704700207047D0
S31508004AA02DE9F84314460546207888469946C0F30A
S31508004AB0021600270BE0785D40B14946FFF7E3FF91
S31508004AC020B1F2B2785D1119561CC8747F1C47458F
S31508004AD0F1DB207800F08F00207040EA0610207085
S31508004AE0BDE8F183F8B51C460025002306E0FF283B
S31508004AF01CBF5E5CB04205D05B1CDBB29342F6DBA2
S31508004B000020F2BD099E0722FF213046FDF788FEE8
S31508004B100699079A089800230EE01F5D1CF802E024
S31508004B20774502D1EDB2AF556D1C0CF1010C5FFA59
S31508004B308CFC8445F1D35B1C8B42B8BF4FF0000C4C
S31508004B40F5DBE8B2F2BDFEB5099C082C01DB702046
S31508004B50FEBD0A9E089D0296019400950BF06BF91E
S31508004B6005000DD1DE4F8022FF2107F12400FDF755
S31508004B7057FEBC732246314607F11000FDF70DFEBD
S31508004B802846FEBD10B50BF0B5F9040004D1802205
S31508004B90FF21D948FDF744FE204610BD00210AF042
S31508004BA077BE10B504462078B8B901202072A078DF
S31508004BB0262805D100206070D048007860720AE087
S31508004BC016280AD104F10A000BF07BFB10B100216C
S31508004BD03720217260700120207010BD01780029ED
S31508004BE008BFFFF727BC7047017899B9417809399A
S31508004BF0C9B210290ED2C24A52F82110C14A1278F7
S31508004C00562A07BF0978C170C2780A7000218170D8
S31508004C1001210170704710B50446207800BB607802
S31508004C20B94A312808BF104602D0322818D1B748E9
S31508004C30B0B1B4490978522908D0A188904209D15F
S31508004C40B34A12788A4205D2362006E00078A08058
S31508004C50002002E0C9B20FF0C3FBA070012020704B
S31508004C6010BD70B5044686B00D463826112011F0E1
S31508004C7005FB802815D1204605F00EF906461223B5
S31508004C801C2200A901200EF096F9BDF8060028811D
S31508004C909DF80200A8729DF80300E872BDF80400AA
S31508004CA0E881304606B070BD80B511F08AFE0DF079
S31508004CB06CF8BDE8014011F00FBF38B504460D4643
S31508004CC0092200212846FDF7ABFD218828460EF06B
S31508004CD034F9A11CA81CBDE838400722FDF75DBDC4
S31508004CE038B504460D461A2200212846FDF798FDD8
S31508004CF0207828700F22611C681CFDF74EFD20786D
S31508004D00C0F3410204F1100105F11000FDF745FD5D
S31508004D102078C0F3021204F1130105F11300BDE86F
S31508004D203840FDF73ABD2DE9F0438FB00646DB2043
S31508004D308DF808000F4690469946082231460DF12F
S31508004D400900FDF72AFD8DF811700DF11201404694
S31508004D50FFF7B3FF0DF11B014846FFF7C1FF169D8C
S31508004D60179C8DF835508DF836402F2102A812F081
S31508004D70BBF9019400954B46424639463046FFF743
S31508004D80EBFB0FB0BDE8F0832DE9F14F92B0DC20C4
S31508004D908DF8140005AE9DF8480070700DF11505E4
S31508004DA08A469046994685F801A041460DF11700B6
S31508004DB00EF0C3F8082249460DF11900FDF7EDFC7F
S31508004DC01C9C2C730DF122011D9F3846FFF775FFB9
S31508004DD0DDF878B00DF12B015846FFF781FF1F9DCE
S31508004DE086F831503321209E8DF8466005A812F0CA
S31508004DF07BF904960395CDF808B0019700944B46C5
S31508004E009DF8480042465146FFF7DEFC13B0BDE860
S31508004E10F08F2DE9F04790B08146E1208DF80C001F
S31508004E200DF10D040E46924698468DF80D90667063
S31508004E30082251460DF10F00FDF7AFFC84F80A80F1
S31508004E4006A9189D2846FFF738FF199F0DF121017D
S31508004E503846FFF745FF1A9C8DF83B40302103A8DA
S31508004E6012F042F90294019700954346524631469C
S31508004E704846FFF727FD10B0BDE8F087F0B58DB0BE
S31508004E8004460D4616461F462F22FF2100A8FDF7A9
S31508004E90C7FCDE208DF800008DF801409CB9082279
S31508004EA029460DF10200FDF778FC8DF80A600DF130
S31508004EB00B013846FFF701FF129805A9FFF710FF07
S31508004EC013988DF82E002F2100A812F00DF924B999
S31508004ED0082229460848FDF760FC0DB0F0BD000021
S31508004EE0BC280020582300205C2A002074290020B2
S31508004EF0682A00209C230020E02800209D2300200B
S31508004F005C230020AD2F002030220020382200200C
S31508004F109360020880B5DA2160E010B59EB01C46A1
S31508004F208DF801008DF80210D5238DF80030114652
S31508004F300DF103000EF001F88DF805400DF107009C
S31508004F40209C21998DF806402246FDF726FCE11D96
S31508004F501FE010B59EB0D6248DF802108DF801001A
S31508004F608DF800408DF803208DF804300DF105000A
S31508004F7020990DF0E2FF2198229C23998DF80700CD
S31508004F808DF8084022460DF10900FDF706FC04F1EC
S31508004F900901C9B200A812F0A7F81EB010BD10B5D5
S31508004FA01C46E0238AB0002818BFC1288DF80030B7
S31508004FB08DF801008DF8021008D10DF10301104695
S31508004FC0FFF77BFE03A92046FFF78AFE262100A8E5
S31508004FD012F08AF80AB010BD80B5E3218DF80010EA
S31508004FE08DF80100022100A812F07EF801BD80B5F7
S31508004FF0E421F3E72DE9F84F8046DFF8180B077828
S315080050000D460A9991469B4619B10B980FF093FCE9
S3150800501002E000200FF06EFC82460C9EBAF1FF0FEC
S3150800502003D100201824307032E0342F06D0362FF2
S315080050300ED0382F13D0962F18D01AE053464A466A
S315080050402946404601F04EFF044602F060FB10E098
S31508005050534642464946284601F0A3FF08E0534610
S31508005060EAB24146484601F0F0FF01E012F06CFA58
S315080050700446962F1CBF99F80A003070E4B224B98A
S31508005080DFF8940A00680AF800B050460FF0D0FB23
S315080050902046BDE8F28F10B584B0089C0294079CA0
S315080050A00194069C009407E010B584B004461046A7
S315080050B000F00FF80A462146FFF79CFF04B010BD22
S315080050C010B5044684B00846114600F002F8224698
S315080050D0F2E7089A0292079A0192069A0092704796
S315080050E0E0B501910022009011460292002308467D
S315080050F0FFF780FF0EBD2DE9F04683B089460C996F
S31508005100054692461E4619B10D980FF014FC02E0AA
S3150800511000200FF0EFFB04460E9FFF2C03D1002062
S315080051201825387014E00A980090019433465246C0
S315080051304946284601F057FF0500B07A387004D171
S31508005140DFF8D4190B980968605420460FF070FBF5
S315080051502846BDE8FE8638B5DFF8C0492080C888ED
S31508005160440606D5DFF8B8492478202C03D1000474
S3150800517001D4702032BDDFF8AC49216022B1114656
S3150800518018460FF0D8FB02E000200FF0B3FB0546E7
S31508005190FF2D08BF18240AD020684088294602F047
S315080051A045F9044602F0B3FA28460FF041FB2046BB
S315080051B032BD2DE9F041069F0D460446164698462F
S315080051C0394607F0B6FF204607F0C1FF0799088061
S315080051D0384608F0CAF8089908702946204607F0A4
S315080051E03DFF070007D13146204607F076FF4146C6
S315080051F0284608F0D7F83846BDE8F081DFF82829B0
S315080052001278904201D370207047DFF8202912687F
S3150800521032F820300B8002EB8000807888700020FE
S315080052207047DFF804291278904201D3702070473E
S31508005230DFF8F82812680B8822F8203002EB800085
S31508005240897881700020704730B589B00C4604F023
S3150800525023FE054612231C2204A901200DF0ABFEED
S315080052600020207310F040FA9DF8101088420BD1E8
S31508005270BDF8160020819DF81200A0729DF8130053
S31508005280E072BDF8140019E01023072200A90120D6
S315080052900DF091FE082202A92046FDF77EFABDF818
S315080052A00000208104F114019DF80200A0729DF807
S315080052B00300E07204F1100012F08BFAE08109B0E5
S315080052C0284630BD38B504460D4606F0A7FA01460D
S315080052D008222046FDF761FA06F09CFA2880DFF8D6
S315080052E05008007832BDF8B504460D4616461F46E6
S315080052F012F0D3FD28803A4631462046BDE8F840EC
S3150800530012F0DBBDFF2203F0CEBD10B504462078AF
S31508005310002842D1012020722070A078142804D1D8
S315080053200020607013F00DF933E001280BD0022835
S3150800533008D0082818BF0D2805D0122818BF13282A
S3150800534001D002E020720021617001280AD00228EB
S3150800535012D008280AD00D280BD0122815D01328E9
S3150800536015D018E0DFF8CC07007812E003F023FB2D
S315080053700FE005F03AFC0CE0DFF8BC07018804F101
S315080053800900BDE810400DF0D8BDFF2001E003F08C
S3150800539084FD607210BD0020207010BD10B5044653
S315080053A082B0207858BB0120207000206070A07859
S315080053B018B1022819D00BD31FE0616800AAC9B238
S315080053C010F0AEFC60700220207204F1090007E0BC
S315080053D00320207200A813F084FA607204F10A0010
S315080053E0BDF800100DF0A9FD13BD012020726068FC
S315080053F080B213F0CAFC607213BD0020207013BD82
S31508005400F0B5044685B02078002840F0D880012001
S315080054102070A078010022D0012844D0022849D063
S31508005420052818BF06284DD0082800F0BB80092893
S3150800543056D00A2879D00B287CD00C2800F0868014
S315080054400F2800F08780232818BF242800F08F80B3
S31508005450252800F09D80292800F0A680ADE0207A56
S31508005460102860D100F0ADF8ADF80400082294F9D0
S315080054700B008DF8060004F11001207B8DF807005B
S31508005480607B8DF80800A07B8DF80900E07BADF8FD
S315080054900A0003A8FDF781F91023072201A90020B5
S315080054A00DF089FD86E0207A01283CD1607ADFF884
S315080054B084167EE0207A022835D100F082F8DFF8DB
S315080054C078160BE0207A02282DD100F07AF8A17818
S315080054D005290CBFDFF86416DFF86416088069E052
S315080054E0DFF860060568207A46080DB9DEB961E07E
S315080054F0DFF854060078B04215D3002707E004EB1E
S31508005500470009300DF012FD25F817007F1CB74239
S31508005510F5DB4FF4004725F81670284613F0A7FC6C
S31508005520002848D02F80362045E000F04AF808F0D9
S31508005530E6FA3FE0DFF814060068407B20B900F081
S3150800554040F808F0B2F935E0382034E0607ADFF840
S3150800555000162EE0657A04F10A000DF0E7FCADF8B6
S31508005560000000AA2946012010F0DAFB23E0217A80
S31508005570042912D123280CBF0325012504F10901AA
S3150800558001200DF0ECFC0146284613F00EFE12E051
S31508005590607A032818BF042801D002200BE004F023
S315080055A046FB07E0372006E0607A00B10120DFF805
S315080055B0A41508700020607001E00020207005B076
S315080055C0F0BD04F109000DF0B1BCDFF84815097803
S315080055D0027856290CBF01210021AAB98270DFF88A
S315080055E040354278032A05D109B1597806E0C178D1
S315080055F0597007E0022A07D111B11978C17001E084
S31508005600C1781970012101707047017801B170479E
S3150800561030B58170012101704178052906D012291B
S3150800562013D018290AD01F2912D015E0DFF828153B
S31508005630DFF8282509781278891A21E0DFF820157D
S315080056400A78511E8941C90F1AE0DFF8181501E0DA
S31508005650DFF81415098813E000220FF23C5300E026
S31508005660521CD2B21446E55CFF2D02D1002101700E
S3150800567030BD8D42F4D10FF23C5151F8241009780F
S31508005680818030BD70B504462078002870D101208D
S3150800569020700020A0706278052A08D0122A2BD024
S315080056A0182A1DD0192A02D01F2A20D02DE0DFF88B
S315080056B0AC040578DFF8A00401784E1BA188052AFA
S315080056C00CBF0E460D46A919C9B20EF089FE002870
S315080056D0A0704DD1E9B2F0B2BDE8704013F07CBFBE
S315080056E0A188481E8041C00FDFF874143DE0A088E9
S315080056F0DFF87414088070BDA18847F231508142E2
S315080057001DDADFF86004018070BD0FF28C4100E0FD
S31508005710401CC0B203465D5CFF2D02D100202070FC
S3150800572070BD9542F4D1042B07DADFF8400450F82F
S315080057302300A1880078884201D32B2A02D136207B
S31508005740A07070BD0FF26C40A18850F823000B2B97
S315080057500DDAC9B20EF044FEA070002804BF6078C6
S31508005760112805D1A088DFF80814087070BD0170EB
S3150800577070BDF8B504460D461146184618260FF0B2
S31508005780DAF80746FF2F08D03A462946204614F08D
S3150800579021F9064638460FF04BF83046F2BD38B5C3
S315080057A004460D46218828460DF0C7FB6188A81CCB
S315080057B00DF0C3FB2079287160796871A81DE1880E
S315080057C00DF0BBFB218905F108000DF0B6FBA07AA8
S315080057D0A87231BD10B586B004461B208DF80000AE
S315080057E0A0788DF801000DF1020021880DF0A5FBC7
S315080057F00822211D01A8FCF7D0FF00A8E178017353
S31508005800217B4173607B8DF80E000DF10F0000F0CF
S31508005810B9F9112100F01AF906B010BD80B58DF856
S3150800582001008DF802101C228DF80020D4E02DE925
S31508005830F04F87B005460E46144614F0C2F9804666
S3150800584022463146284610F0F7F9002865D10DF1B1
S31508005850090014F0BEF930B962208DF80800092154
S3150800586002A811F041FCFF2C0FBF4FF0000BC149F5
S31508005870096814F801B045208DF8080002AF0DF14B
S315080058800A017D703046FFF78AFF0DF1150000F01A
S3150800589079F941460DF117000DF04FFB01F0EBFDCC
S315080058A08DF819000025B448DFF8B0920668DFF8CD
S315080058B0A8A201E06D1C0C369AF8000099F80010B1
S315080058C0EDB2401A85420BDA30884045F2D10FF026
S315080058D035FFB17AC1F342018142EBD1BD7401E0D3
S315080058E0FF20B8748DF81BB0404613F04EFA8DF8B9
S315080058F0040000B10120009001AB2246142102A841
S3150800590011F0FAFB00281EBF85480078212804D12B
S315080059109A48017841F00401017007B0BDE8F08F9C
S315080059202DE9F04307469348006887B01D460E9C4C
S315080059302E5C884691462146384601F02FF93F20CD
S315080059408DF804008DF8057041460DF106000DF03E
S31508005950F4FA02A94846FFF722FF6F480068285C58
S315080059608DF813008DF8144085480078402804BF48
S315080059700026FF25002000908DF8156000232A4692
S31508005980122101A811F0B8FB07B0BDE8F0831FB5D6
S31508005990044623208DF800008DF801408DF802108A
S315080059A0204612F07AFA01460DF103000DF0C5FA09
S315080059B00DF10D020DF10501204612F07EFA0E21B9
S315080059C000F044F81FBD80B57C218DF80010014613
S315080059D00DF101000DF0B1FA032100A811F084FBC6
S315080059E001BD70B586B004467D208DF800000D46D1
S315080059F0164621460DF101000DF09FFA08222946A8
S31508005A000DF10300FCF7C9FE8DF80B600C2100F0C0
S31508005A101DF803A814F0DDF818B903A9204613F0F9
S31508005A20E1FD06B070BD38B504460D4601F09BF899
S31508005A3080208DF800008DF8014029460DF10200FE
S31508005A400DF07BFA042100F001F831BD00A811F031
S31508005A504BBB10B584B0044646208DF8040001A857
S31508005A6021784170617881700DF1070000F08AF89D
S31508005A704048A1780068085C8DF8090000230020DA
S31508005A8000900621A27801A811F036FB1FBD80B54B
S31508005A9098208DF800008DF8011000A802219DE7D6
S31508005AA01FB50C4692218DF80410082201460DF107
S31508005AB00500FCF772FE0DF10D0000F063F82D48A5
S31508005AC00068205C8DF80F00002300200090224615
S31508005AD00C21D8E700B5274A126883B0825C8DF896
S31508005AE0051093238DF8062000218DF804300091C7
S31508005AF002460023032101A811F0FEFA07BD80B56E
S31508005B0007F0A0FABDE8014005F09ABF1149002048
S31508005B1008707047AD2F00207C2D0020B22D002084
S31508005B2013230020B42D00200C2200200822002078
S31508005B30902F0020D72F002000240020F8220020D4
S31508005B40FA220020A42D0020782D0020642D0020A4
S31508005B50842F0020DB2F002054220020E32F002072
S31508005B60D821002074220020642200201823002057
S31508005B7071220020C821002058220020B02D0020C4
S31508005B80EC22002010B5044614F014F8601CBDE899
S31508005B90104014F011B800001102090A030607089C
S31508005BA01A2B2C1910131B14151C1D2021222A2E02
S31508005BB0333435FFE02100201C2200209B2F0020D3
S31508005BC09A2F00205C2200200C220020F8210020B9
S31508005BD004220020832F002012230020782D002085
S31508005BE0E32F00207222002077220020782200204E
S31508005BF076220020A32F0020662200209D2F002059
S31508005C008D230020792200207A220020A12F00204F
S31508005C10A52F00201C24002028220020042E002066
S31508005C2038B504461046002901461A46204602D0D1
S31508005C3014F031F801E013F0FFFF0546002C1EBFF3
S31508005C4004980028A04203D02146142214F090F8A4
S31508005C50284632BD8E4B1B7802467020002B1CBF8F
S31508005C60104608F0ABBD70471CB504462078F8B955
S31508005C7002202072A0780A280AD0102810D101A87C
S31508005C8014F0CDF86070BDF80400ADF8000004E02B
S31508005C900020607000A807F04BFF0120207001E08B
S31508005CA0207828B1BDF8001004F109000DF045F977
S31508005CB013BD38B504462078002804BFA0781028FC
S31508005CC012D104F1090101200DF049F9054604F144
S31508005CD00D000DF02BF9ADF8000000A9284614F0C8
S31508005CE073F860700120207031BD6A49097802781E
S31508005CF056290CBF0121002122BB827001220270A5
S31508005D00427832B9644A09B1117811E0C078107046
S31508005D107047052A05D1614A61B1117841F05001F1
S31508005D2006E0062A0CD15E4A21B1117841F06001DD
S31508005D30C1707047C17801F00F01C17011707047CA
S31508005D4000210170704710B504462078B8B900F0F4
S31508005D5045F806D01E2807D0242807D0362808D0AC
S31508005D600BE005F05FFD06E04E4800E04E4800787F
S31508005D7001E04E480088A08010BD0020207010BDAC
S31508005D8010B50446207840BB00F028F806D01E2837
S31508005D900AD0242812D0362819D01CE0A088BDE8DD
S31508005DA01040C0B205F042BD4148A188007888423B
S31508005DB00AD3C9B23B480EF013FB06E0A1880B29AB
S31508005DC002DA3948017010BD3620A07010BDA088CF
S31508005DD03649088010BD0020207010BD01202070B3
S31508005DE00020A07060780D2870472DE9FF41154600
S31508005DF0012D074688461C4607D1012100200226A8
S31508005E0050EA01020AD103261AE0052DF5D0002131
S31508005E10032D18BF072DF1D10120F0E71E4A12788D
S31508005E203AB1012A08D0022A05D0042A08BF0E462C
S31508005E3004E0012604E058B1002601E0022E07D04E
S31508005E4007F02FFD844203D02146384612F089FF19
S31508005E5024208DF8000039460DF101000DF06DF88B
S31508005E60082241460DF10300FCF797FC8DF80B500C
S31508005E708DF80C6021460DF10D000DF05EF80F212E
S31508005E8000A811F031F9304604B0BDE8F0810000F1
S31508005E90DB2F0020AD2F00200F2300209F2F00208E
S31508005EA06C2200209E2F0020A42F00206E220020A6
S31508005EB09160020880B56E218DF800108DF80100FA
S31508005EC0022100A811F010F901BD10B584B00C46E6
S31508005ED09B218DF80010082201460DF10100FCF700
S31508005EE05CFC8DF809400A2100A811F0FDF81FBDD9
S31508005EF030B58BB004460D462A22FF2100A8FCF7D0
S31508005F008FFC214628460EF016FD0446FF2C08BFD6
S31508005F10182505D013F0C4FF054620460EF088FC68
S31508005F2028460BB030BD10B54E4C2178FF29A8B0D5
S31508005F3008BF702020D0002000904A2300220AA81B
S31508005F400EF015FD00200090252321784A221DA871
S31508005F500EF00DFD00200090242321786F2201A861
S31508005F600EF005FD20780EF063FCFF20207001AAD4
S31508005F700AA91DA808F0FEFD28B010BDF8B5394FCE
S31508005F8004463878FF280D46164608D19321002086
S31508005F900EF0D1FCFF28387001D13520F2BD012062
S31508005FA00090334639782A4620460EF0E0FC002059
S31508005FB0F2BD10B50446A6B0207860BB012020705B
S31508005FC0A0781A2804D024D31C2815D00AD320E098
S31508005FD04A2204F1090113A8FCF7DFFB4A22002133
S31508005FE013A812E0252204F1090109A8FCF7D5FB3C
S31508005FF025224A2109A808E0242204F1090100A85B
S31508006000FCF7CBFB24226F2100A8FFF7B7FF6070CF
S3150800601001E00020207026B010BD0178002904BFD9
S31508006020417829290CD110490978522904D10F49F8
S3150800603009788180002100E03821817001210170F2
S31508006040704710B5074C2078FF281FBF0649097806
S31508006050AB29ED2903D00EF0EBFBFF20207010BD15
S315080060600000000011230020AD2F0020A02F0020E3
S3150800607011B1012903D004E0114608F0FBBE08F06F
S3150800608044BF0220704710B504462078002804BF94
S31508006090607808280ED114480078562803D109F0EC
S315080060A00CFBE07002E0E07809F00AFB0020A07023
S315080060B00120207010BD0178A1B941782F2908BFA9
S315080060C00A4902D030290DD1094959B1064A127830
S315080060D0522A07BF0978818082880A700021817058
S315080060E00121017070470000AD2F00207C2200209E
S315080060F07D22002030B58FB005460C463B22002194
S3150800610000A8FCF78DFBB6208DF800000DF1010103
S31508006110284600F077F800A8DCB1002180F829109D
S31508006120082221460DF12A00FCF737FB0DF1290557
S31508006130207A68720DF1330061890CF0FEFEA189A0
S315080061400DF135000CF0F9FEA07BA873E07BE8732F
S3150800615002E0012180F829100DF13900FFF712FD40
S315080061603B2100F00CF80FB030BD80B5B7218DF893
S3150800617000108DF80100022100F001F801BD00A809
S3150800618010F0B2BF10B586B00446B8208DF80000EE
S315080061900DF1010021880CF0D0FE61880DF1030095
S315080061A00CF0CBFEA1880DF105000CF0C6FEE188C7
S315080061B00DF107000CF0C1FE21890DF109000CF064
S315080061C0BCFE61890DF10B000CF0B7FEA1890DF13B
S315080061D00D000CF0B2FE0DF10F00FFF7D3FC1121F4
S315080061E0FFF7CDFF06B010BD00B58BB0BB218DF80B
S315080061F000100DF1010100F005F82921FFF7BFFF96
S315080062000BB000BDF8B504460D46A0782870681C8A
S3150800621021880CF092FE0822211DE81CFCF7BDFA25
S31508006220E078E87204F11007207B287305F10E0662
S31508006230607B687331463A6801200CF082FE7A6802
S31508006240311D01200CF07DFE398906F108000CF09D
S3150800625074FE082204F11C0105F11800FCF79DFAEA
S31508006260A18C05F120000CF068FEE18C05F12200F6
S315080062700CF063FE94F8280085F8240094F82900A9
S3150800628085F8250094F82A0085F8260094F82B004E
S3150800629085F82700F1BD0000F8B5B84D0446286812
S315080062A080782B38022801D90D382ED1FCF754F8FE
S315080062B006462868B249C01C08600021312010F043
S315080062C0D0FF05464FF6FF770BE005F10D0080B2CB
S315080062D010F0FFFEB04213D02946312010F0C1FF5E
S315080062E00546BD42F1D1002100E02946322010F0D2
S315080062F0B8FF0546BD4208D010F0EBFEB042F4D117
S31508006300A420FCF742F800202070F1BD38B50446F9
S31508006310002100E029463F2010F0A3FF05464FF66E
S31508006320FF7085420CD0284610F0D3FE0228F1D122
S31508006330681C80B210F0CDFEA042EBD1012032BD20
S31508006340002032BD2DE9F84380464FF000090021B0
S31508006350452010F086FF04468A4D4FF6FF7609E081
S31508006360FF21B8B210F0BAFEA146A1B2452010F03E
S3150800637078FF0446B44223D004F11007B8B210F0EF
S31508006380A8FE4045F0D1204610F0A3FE022818BF0B
S315080063900328E5D1241FA0B210F09BFE01462888E9
S315080063A0401A32182A8092B2774800920919007862
S315080063B04B1C9BB20246A1B20EF0C4FC4C46D3E776
S315080063C0BDE8F183F0B5714F3D788BB006466C2475
S315080063D00FF0B4F90FF08CF96D480078112806D043
S315080063E0122830D1718870780FF0DDFC58B37078B8
S315080063F004A90FF077FC88B1BDF8100040F2091126
S31508006400884204BF7088B0F5006F07D1701D13F07D
S3150800641052FDB52802D0B0B9002414E001240025A5
S3150800642000E06D1C3878EDB285420CD206A92846E4
S3150800643000F08FF99DF818000028F2D13146284659
S3150800644000F092F9044631208DF8000000AF30784C
S3150800645078707078B8700DF1030071880CF06DFDD6
S31508006460307978710822711D0DF10600FCF795F94F
S315080064708DF80E508DF80F40102100A810F034FE4C
S3150800648020460BB0F0BD38B504466C250FF056F91A
S315080064900FF02EF93E48007811280DD12046FFF757
S315080064A035FF08B1752507E0204600F0A7F9050075
S315080064B004BF2046FFF746FF32208DF800008DF80E
S315080064C001408DF80250032100A810F00DFE284661
S315080064D032BD38B504460D46FFF718FF08B17525D5
S315080064E010E03DB10FF000F968732946204600F028
S315080064F03BF902E0204600F081F9050004BF20467A
S31508006500FFF720FF284632BDE3E70021E1E72149EE
S315080065100978027856290CBF01210021002A04BFF8
S315080065204278012A0AD11A4A002919BF1178C1707E
S31508006530C17811700021817001210170704710B572
S3150800654004462078002804BF6078042814D111492D
S315080065500E480978522903D10078A080002008E067
S315080065600D4AA18812788A4232BF3620C9B20DF088
S3150800657037FFA0700120207010BD0000642C002099
S31508006580342800208E2F0020E32300209C2F002093
S3150800659010230020AD2F00208F6002081FB50C467F
S315080065A002460D23152100A810F05EF80D2200A959
S315080065B02046FCF7F2F8207840096073207800F04E
S315080065C01F0020701FBD30B585B004460D460D224C
S315080065D000A8FCF7E2F89DF80000697B40EA411044
S315080065E08DF800000D2300AA2146152010F063F847
S315080065F005B030BD2DE9FF4104460025DFF880646B
S31508006600DFF8807413E03068A84630F81800A04216
S315080066100CD100A9284600F09CF89DF80000022835
S3150800662004D031684FF6FD7021F818006D1CEDB2E4
S3150800663038788542E7D3BDE8FF812DE9F0458846DD
S315080066404FF6FF7AD04585B0044605D100F0D0F95B
S3150800665010B907F026F933E0DFF82464DFF824746C
S3150800666000250CE0D04508D0306830F815104145B3
S3150800667004BF4FF6FD7120F81510681CC5B23878AE
S3150800668085421CDA306830F8150000F00FF9F4DAA4
S3150800669000A92846FFF782FF082221460DF10500CA
S315080066A0FCF7C5F80028DDD13068D04502D130F8AE
S315080066B0150005E020F8158013F03AFCDDE7504692
S315080066C005B0BDE8F0852DE9FF47804689460026D6
S315080066D0DFF8B473DFF8A843DFF8A85315E020689D
S315080066E0B24630F81A0000F0E1F80DDA00A9304693
S315080066F0FFF754FF082241460DF10500FCF797F80D
S3150800670010B938680AF80090761CF6B228788642DE
S31508006710E5D3BDE8FF87DFF86813096831F810008C
S3150800672070471FB50C46DFF85C13097888420FD20C
S31508006730D349096831F810104FF6FE72914207DA0C
S3150800674000A900F006F821460DF10500FFF775FFD0
S315080067501FBD80B5CB4A1278904201D3692002BD8D
S31508006760FFF71CFF002002BD70B504460D46234600
S315080067700022B3A1032014F047F8287818B9204658
S31508006780BDE870403AE0BF480078844201D36920EA
S3150800679070BD204613F0E8FF08B1752070BD0EF0F5
S315080067A081FF6873681D06F0E0FD06464FF6FF7127
S315080067B0681DFFF742FF024629783346204600F057
S315080067C006F829462046FFF7FEFE002070BD10B5E4
S315080067D04FF6FF7409B9224608E0032908BF4FF6A9
S315080067E0FE7203D0A24208BF4FF6FD72A44909689B
S315080067F021F81020A4490968435410BD30B5054650
S315080068002C4685B0234601228DA1032013F0FCFFF8
S315080068109C480078854228BF69201AD2284613F07A
S31508006820A3FF08B1752014E000A92846FFF7B6FEB5
S315080068309DF8000030B100208DF8000000A9284618
S31508006840FFF7C1FE8E4909684FF6FF7021F814005C
S31508006850002005B030BDF0B585B007460C46884D1A
S31508006860884E00E07F1C3078FFB287421BD228682A
S3150800687030F8170000F01AF8F4D100A93846FFF7E7
S315080068808DFE9DF80500E1B2884204BF9DF806001A
S31508006890B0EB142FE6D10EF005FF9DF80D108142DE
S315080068A0E0D1384600E0FF2005B0F0BD4FF6FE7196
S315080068B0884270472DE9F14F84B00D460E9C704F03
S315080068C0DFF8C0A190469946002607E03868BDF86B
S315080068D0101030F81B0088422BD0761C9AF800005E
S315080068E0F6B2864227D23868B34630F81B00FFF75F
S315080068F0DDFFF2DA00A93046FFF750FEB8F1000FC7
S3150800690007D19DF80100484504BF9DF80400A04240
S31508006910E3D10EF0C7FE9DF80D108142DDD1002DA2
S31508006920D4D008220DF105012846FBF780FF002880
S31508006930D3D1304600E0FF2005B0BDE8F08F10B592
S315080069401446FFF72BFE2046BDE8104008224F49A3
S31508006950FBF723BF2DE9FF470446084615461E46A2
S3150800696000F046F808B100203FE00027DFF8108164
S31508006970DFF8109100E07F1C99F80000FFB287420B
S3150800698022D2D8F80000BA4630F81A004FF6FF713E
S315080069908842F0D000A93846FFF700FE0C220DF118
S315080069A00101601CFBF743FF0028E4D1BAF1FF0F91
S315080069B00CD1002030700EF095FE307845B178B9CC
S315080069C02046FFF7FFFC07E0FF27F2E70120F1E783
S315080069D038B13846FFF757FD401E8041C00F00E02A
S315080069E0012030700EF03BFE012004B0BDE8F087B0
S315080069F008222649FBF71BBF30B585B00024214D78
S31508006A0017E000A92046FFF7C9FD9DF800000428F5
S31508006A1006DB00208DF8000000A92046FFF7D3FD0D
S31508006A209DF8001000234FF6FF722046FFF7CFFEB1
S31508006A30641C2878E4B28442E3D305B030BD000074
S31508006A404242000030B585B002220CA1032013F0A3
S31508006A50DBFE00208DF8000000240A4D04E000A9A2
S31508006A602046FFF7B0FD641C2878E4B28442F6D3CA
S31508006A70FFF7C2FF002005B030BD0000420000004D
S31508006A80482200209C2F00204C220020682C002041
S31508006A9030B583B00446FBF75FFC0546202D1ADAAD
S31508006AA05CB100A90820FBF75EFC082300AA29466A
S31508006AB021200FF000FE00200EE008232A4621219F
S31508006AC000A80FF0D1FD0020FBF75FFC00A9082005
S31508006AD0FBF786FC37BD7020FBF757FC37BD7047C0
S31508006AE070B54D4D6E8A044605F1080013F0BEFEDA
S31508006AF0012C08BFAE8A02D0022C08BF022618B1A4
S31508006B00FA217143884206D3310205F10800BDE82F
S31508006B10704013F09EBE70BD7CB53F4C3F4E0020C2
S31508006B20E07020714FF6FD75607988B14FF6FC70FC
S31508006B30019000230020009002460146308803F0A9
S31508006B4089FE3580002060710120BDE87640C7E7E0
S31508006B50A178208A05F04EF93088A842F4D00120A1
S31508006B6060710220F1E710B5A92818BFAA2814D128
S31508006B702948C2780378521CC270D2B29A420CD302
S31508006B80264A13884FF6FD74A34202D111800021CC
S31508006B9041710020BDE81040A2E710BD00281CBFC7
S31508006BA0012802280CD166290AD11B480179491CFB
S31508006BB00171C9B24078814224BF0020FFF790BF17
S31508006BC0704710B5144C21829200029921709B00DF
S31508006BD003996282A38261709BB20499A17092B2F2
S31508006BE0934208D3218A4FF6F87291421CBF4FF69A
S31508006BF0F972914201D0702010BD002161714FF6E3
S31508006C00FD71064A118018B10120FFF769FF00E0FF
S31508006C102072002010BD0000A82900206E23002045
S31508006C202DE9F84F8AB088461646ADF804804FF02D
S31508006C300009F5880446CA46002704F0E8FE1598B8
S31508006C4060B9E8060AD59DF850009DF828300090EE
S31508006C5032464146204613F025F910E1680548BF3B
S31508006C604FF4805A280548BF4AF4006AA80548BF69
S31508006C704AF0800A03D4E80548BF4AF0400A9DF85E
S31508006C80500002900A2CC34668D8DFE804F00730A3
S31508006C901B3F67673F06073F190002279DF8280034
S31508006CA0BDF8042000904B469DF850004AF4027146
S31508006CB011F09CFB8246BAF1FF0F51D11820DEE095
S31508006CC00327EBE705A95FFA88F0FFF742FD0822DC
S31508006CD00DF1190103A8FBF760FDDFF8C808006885
S31508006CE030F81B000DF10C09ADF80400D6E703A92E
S31508006CF05FFA88F006F01DFADFF8AC0800680C2188
S31508006D0001FB0B000DF10C090088EDE74FF6F87052
S31508006D10834523DBF0884FF4026108421ED100F058
S31508006D203AF918BF91201AD10298FF280FD000F01F
S31508006D3076FB032C0CBF01210021401ADFF86C18E2
S31508006D40029A0968515C8842B8BF742007DB032C95
S31508006D500CBF0C2708272AF4C07A9FE701208EE08B
S31508006D60DFF84C0800884FF6FF71884214D0504669
S31508006D7013F093FE8346DFF8380801880BF1040008
S31508006D800CF0DBF8DFF82C08DFF8241800788BF80D
S31508006D9007004FF6FF70088032463946504611F014
S31508006DA0FFFC08B9182666E0DFF80C080068C07E04
S31508006DB070B1A8060CD5E8074CBF2020002040F08B
S31508006DC001034A460021504612F07FFB060052D1C5
S31508006DD00298FF2816D0504613F055FEDFF8D8174C
S31508006DE00968C97E01B11221DFF8C027029B126823
S31508006DF09B5C1AF80220D218743089188842B8BFEA
S31508006E00742638DBA80407D5504613F050FE40F424
S31508006E108061504613F04DFE082C12BF092C5046CF
S31508006E2013F054FE159848B1BDF80410504613F0F7
S31508006E3066FE159880F800A0002020E0E01E05D028
S31508006E40C01E012884BFC01E012807D8504604F07A
S31508006E5055FE00280CBFA12600260CE0A80444BF56
S31508006E604FF6BF7005402B465FFA88F2214650461A
S31508006E7013F06FF8064650460DF0DAFC30460BB0B4
S31508006E80BDE8F08FF0B587B00E4604460C99174654
S31508006E9018460DF050FD0546FF2D21D0FF208DF830
S31508006EA010008DF81100ADF80E704CF20E00ADF81A
S31508006EB00C00ADF812600020ADF81400009502A889
S31508006EC00190FF2303AA21460020FFF7A9FE0446E6
S31508006ED028460DF0ADFC002C0CBF9DF80800FF20DD
S31508006EE007B0F0BD2DE9F043164685B00446F08894
S31508006EF004900D4670790FF2007103901F463079A1
S31508006F000290A8467088019043463088009008226F
S31508006F1000F098F800F03FF818BF912019D1FF2F1C
S31508006F2009D000F07CFADFF884160968795C884293
S31508006F3038BF74200DD37CB94FF6F870804528DA2F
S31508006F40002001900097FF23324629462046FFF786
S31508006F5067FE05B0BDE8F083022C4FF6FE790CD12A
S31508006F60DFF858060078854213D2DFF8380600683D
S31508006F7030F818004845E3DB0BE0012C09D1DFF8AF
S31508006F8040060078854204D2E8B206F0E0F84845A3
S31508006F90D6DB0120DDE7DFF820060068407B022803
S31508006FA07047F0B587B00D461646044605961F4647
S31508006FB0E8880FF24C610490234668790390092209
S31508006FC028790290688801902888009000F03AF89D
S31508006FD000200190009733462A4621460620FFF7EF
S31508006FE01FFE07B0F0BD2DE9F04188B01E460E9C85
S31508006FF007948046F08806901746707905900D46E6
S3150800700030790FF2086104904346708803900A228B
S31508007010308802900197009500F014F8DFF8900583
S31508007020A0F800802346DFF88C0507700020019041
S3150800703032460F98009029460620FFF7F1FD08B062
S31508007040BDE8F081032013F0DFBB70B588B000F00F
S3150800705013F8DFF8700500780096002814BF4FF67D
S31508007060FF714FF6FD71002001902B462246032042
S31508007070FFF7D6FD08B070BD04460D460692059585
S315080070801E46E0880FF2905104900622607903901C
S315080070902079029060880190208800900320238937
S315080070A013F0B2BB10B5DFF820050DF091FE0446CB
S315080070B0FF2C0DD0214604200DF029F918B1012125
S315080070C0204600F006F82046BDE810400DF0B0BB9B
S315080070D010BD2DE9F04F89B082460D4613F0DDFC50
S315080070E00646B01C0BF022FF8346504611F030FAD4
S315080070F000F07EFA804608F00309504613F0E1FCDA
S315080071000EF07DFADFF8C474301D0BF00FFF3880DF
S31508007110DFF8BC4406F0C5FB834512D04FF6F8707D
S3150800712083450EDA7078C0070BD4584610F0F1FE86
S31508007130002805D0388801235246594600F0B3F98D
S3150800714077E005A9504611F094FA05A82060304664
S3150800715011F01DFADFF87C1408600321504613F07D
S315080071608CFCDFF8741408700421504613F085FC73
S31508007170DFF86814087055B39DF81A00800626D5FE
S31508007180DFF8346406F08DFB40B13068007D800777
S3150800719004D4B9F1010F08BF102000D0002040F038
S315080071A0080300220021504612F08FF978B108F042
S315080071B00300012802BF3068407B11284CD100F03B
S315080071C07FFD002848D1AF2001F08DFB44E018F080
S315080071D0030003D0022806D00AD32AE029465046DF
S315080071E000F03FF825E05146404612F0E0FE20E068
S315080071F006F057FB398881421BD0514605200DF011
S3150800720086F8B0B12168887940060DD50C2202A807
S31508007210FBF7C3FA00200190FF23FF20009002AA83
S3150800722039880A20FFF7FCFC39882A46504606F0BA
S31508007230C8FC06F036FB398881420BD1504611F05E
S3150800724087F900F0D5F90C21084203D100215046F0
S3150800725013F0CEF8002020600EF001FA09B0BDE860
S31508007260F08F2DE9FE4F814613F017FC0546484678
S3150800727011F06EF9014648460DF070FC82466878B2
S3150800728000F001000290A81C0BF050FE4FF6F871B2
S315080072908842ACBF0127002706F003FBDFF82C83E2
S315080072A0DFF82C63B8F8001081423068B0F802B0F5
S315080072B002980CBF0124002438438DF804009DF879
S315080072C00400002814BF0620082000210EF091FBB8
S315080072D030680188002904BF4079002814D100A924
S315080072E0484603F03AFA33689DF80010421ED2B2B7
S315080072F0032013F0CCFCB8F80000BBF5004F19DBEF
S315080073005A46494603F03DFA306800884CF20E01A9
S3150800731088423FD144F20107BB4518BFBBF5804FF1
S3150800732035D1484611F099F90146BB450CBF0120F5
S31508007330002023E0AA4A022111703B460022494652
S3150800734003F098F830688079400603D5FF2158463F
S3150800735000F06CF8BBF1130FD6D03068C088400433
S31508007360D2D4A0499E4809780078CA0701D50228D0
S31508007370CAD0890745D50128C6D042E0491EC9B2F8
S3150800738000912B464A46012101F094FE39E0484611
S3150800739013F0ECFC3068029919B90AF00C010C29B3
S315080073A00DD1008906F00EF858B330680189002C13
S315080073B014BF032502250020FFF74DFA12E00179D4
S315080073C0009100224379B8F800000021FFF772FA0D
S315080073D00AF00C01082904D1002C0CBF0425052548
S315080073E000E00025804908709DF8040010B9BBF13B
S315080073F0380F01D1012200E000222946484612F042
S3150800740081FBBDE8F78F10B5044600F008F8610562
S3150800741048BF0838210548BF0838C0B210BD6649BC
S315080074200968C97E642001B15220704770B5684E5C
S315080074300C4686B0054631680C2202A8FBF7ADF962
S31508007440306801798DF80D10FF2341798DF80C10FD
S31508007450ADF80A504FF6BF71C08800940840ADF8E1
S315080074600E0002AA00200190584801880720FFF75D
S31508007470D7FB06B070BD5D48007808B9FF20704795
S315080074805948007870470A4680B50C21084208D149
S315080074909079400605D55088FF21FFF7C7FF0120E0
S315080074A002BD002002BD2DE9F34F924683B01C466B
S315080074B0504611F04DF800F09BF8834603201BEA6E
S315080074C0000F6AD142480668404807884FF000080E
S315080074D000A9504611F0CDF83D4900A808603B497F
S315080074E0BDF80C0008809DF80500002804BFBDF80B
S315080074F00000002835D1504613F0CFFA801C0BF057
S3150800750015FD4FF6F8718842ACBF4FF00109C14628
S31508007510002C14BF022401240125EDB2AC4236D357
S31508007520BDF80C004B462A46514602F0A3FF5FEA17
S31508007530000814D0022C08BF012D10D1BDF8100088
S315080075401B4908801C480068417E491C4176A1F108
S3150800755080001849087000A95846FFF794FF6D1C6B
