S01C00007365637572652D6170702D626F6F746C6F616465722E7333378B
S31508000000000400207500000881000008810000082F
S31508000010A70B090100000000010200570040000874
S3150800002004080000310F0008F3130008F006000862
S31508000030170900088D0A0008D50A0008950900085E
S3150800004073090008610B0008790900089B01000084
S31508000050FFFFFFFF05480068202100EA010020B1E4
S315080000600348016842688D46104770472C000040D7
S3150800007000400008FFF7EEFF00F00DF800F042F828
S3150800008005E00000854670474548008870474FF4EC
S31508000090017000F09FB838B54FF20F04414D00F0DB
S315080000A0C7F828B140F2052028806C80012032BDAF
S315080000B03D480068C00615D56888A0421ED1288824
S315080000C040F2022188421CBF40F20621884215D020
S315080000D040F2011188421EBFB0F58A7F40F2111125
S315080000E088420BD0314C208A40F6A721884205D198
S315080000F02068FFF7C7FF6068804700BF002032BD51
S315080001000000000038B50400294872B6016849089D
S315080001104900016000F0D2F823480068000910F091
S3150800012001000CBF2349244902E0CD2201F8012B26
S31508000130224A9142F9D32249224A234B03E011F875
S31508000140015B02F8015B9A42F9D32049204A002351
S3150800015001E001F8013B9142FBD3124A53884FF262
S315080001600F05AB4240F205210AD113888B4205D010
S3150800017030B1180A012818BF022801D1194601E032
S3150800018004B90021064801804CF23C30508000F04A
S3150800019073FA4FF40170BDE8324000F01BB8000056
S315080001A0B40C0020000000202C000040004000088D
S315080001B0FCED00E00000002098000020000400206C
S315080001C03819000800040020040400200404002054
S315080001D0BD0C00200E4A302111600E4A11600E4AED
S315080001E0116010210D4A1160010A00290C4908BF47
S315080001F0000208804FF20F004880BFF35F8F09485E
S3150800020000210160416008480849086070470000FD
S315080002103020004030C8004030C0004010E00040A8
S31508000220000000201C4000400400FA050CED00E028
S315080002300020704780B500F074FA0121062000F00E
S315080002407DFA062000F0AAFA0121072000F076FAC6
S31508000250072000F097FA1748016821F0100101609D
S3150800026001BD0000052800D9704710B5DFE800F089
S315080002701721030F1C17104C2088411E2180C0B976
S31508000280072000F097FA42F21070208010BD072070
S3150800029000F084FABDE81040062000F08BBABDE8ED
S315080002A01040062000F06EBABDE81040062000F0A7
S315080002B075BA10BD00BC0040B60C00207A49512022
S315080002C00860704738B5054600F01EFA7749B0FB56
S315080002D0F1F44FF4F070B0FBF4F02D1A1E2DBCBFEC
S315080002E04FF40170FFF776FF7148724A07210160E3
S315080002F00021416081604FF00071116005FB04F137
S31508000300C91C8908491E416031BD6B4A01215170DB
S31508000310D8E76B48016841F001010160012141609D
S315080003205120614908607047002070472DE9F04761
S31508000330624D614E2968814640F2DC580129C24661
S315080003405B48604F604C1DDA0221618039600068A5
S31508000350C00348BF00F08FF8B86900F0030003280F
S3150800036061D02868002803D5B86940F00200B86152
S315080003704846FFF7D9FF5FEA000A1BD1286800281C
S3150800038051D54EE061884FF6FF75A9421DD14F48F9
S31508000390018802237F22A01C00F022FA6088A84266
S315080003A004BF02206080B869800703D4B86940F0AA
S315080003B00200B8610120B070608838600FFA8AF0D0
S315080003C0FFF7A3FF5046BDE8F087B9698907EDD561
S315080003D00068C00348BF00F04EF8B07808B1404640
S315080003E0F1E7B868B968628810F0010003D10F2AEE
S315080003F008D2521C06E0890704D5217811B1032AD0
S31508000400A8BFAA1892B2022A2070B8BF0222628038
S31508000410386861888842CDD1B86900F0030003289E
S3150800042001D0FFF776FF0020CDE710B5044628482F
S31508000430017869B9C078072818BF092813D0032896
S3150800044018BF11280FD013281CBF15280B280AD04F
S315080004502048016841F48071016004E000F0F6F973
S315080004600620FFF761FF2046FFF760FF0028F5D159
S3150800047010BD0220D9E70E480E4A0021416081606E
S31508000480016821F00201016000210B4841704FF01C
S3150800049000711160817801B9704780B500218170BB
S315080004A00620FFF741FF01BD0080004090D0030001
S315080004B010E000E004ED00E0B80C00202419000864
S315080004C01C40004004400040000400203419000885
S315080004D096070808384000400078704700210160F8
S315080004E08180C18001817047F8B504460D461646DD
S315080004F0002710E02068803020600020E0808020FF
S315080005002081A088401CA080E088411C0019E18059
S31508000510807A78557F1CBFB2B7420CD2E088218911
S315080005208842F1D32068802204F10A0100F0AEFA6D
S315080005300028DFD0F2BD0020F2BD0020704710B5BC
S31508000540044600F0F7F82046BDE8104000F030BB3E
S315080005502DE9F043A5B000F011FB00F0EBF800F030
S3150800056067FB012100A800F06BFB414C04F18005F4
S3150800057000206860A86000F0FCF900280FBFE8605A
S315080005808168E9604088A4F8800000A800F01FFC94
S31508000590070047D1BDF80610BDF8042000A80818C2
S315080005A000F10A0694F8800080075FFA82F80FD5F2
S315080005B0E96869B1686808EB00024B1E22EA03077E
S315080005C010B1A868B84203D2384600F0C9FAAF603D
S315080005D068684246314600F07DFA070010D168681F
S315080005E04246214600F052FA002001E0401CC0B203
S315080005F0404505DA015D825D9142F7D0832706E022
S3150800060068684044002F6860BFD01B2FBDD0042007
S31508000610FFF728FE0121384600F062FB384625B070
S31508000620BDE8F083172FF0D10020F8E770B5DAB0EF
S31508000630044636A8FFF752FF012000904FF40263E4
S315080006400C4A36A901A800F073FC0FF2A4050FF2B4
S31508000650940600F06FF8002C14BF3246002201A958
S31508000660284600F0C6FE5028F3D05AB070BD0000E8
S31508000670240C00200404002038B5FFF705FD0446C5
S31508000680FFF7F7FEB4F58A7F40F2111508D100F09E
S3150800069075FA00F0B2FA0028FBD02846FFF79AFD53
S315080006A0FFF7C8FD00F037F918B14FF40170FFF7EE
S315080006B091FD00F03FF840F20110844218BFAC42A9
S315080006C009D0B4F58A7F1FBF40F20520844240F264
S315080006D00320844201D1012000E0002000F0B6FE8C
S315080006E0002032BD9B180008D7180008D904000856
S315080006F0E90400083B0500081A480068C00701D449
S31508000700194870471948704780B5FFF7F5FF18492B
S31508000710096801B9400802BD80B5FFF7EDFF40083A
S3150800072002BD1448012181604EF6BE2141600121B7
S31508000730016070471049012008607047C2084307E6
S3150800074010B54CBF0D4B0E4B03EB422200F00300D5
S31508000750800013680F248440A34301FA00F018436D
S31508000760106010BD1C400040001BB70000366E012B
S3150800077020400040006000400860004004B000408F
S3150800078000B00040C108032907DA012100F007027A
S315080007909140C00840020F4A11507047C10803290A
S315080007A007DA012100F007029140C00840020A4A10
S315080007B011507047C10803290ADA084A02EB412199
S315080007C001230A6800F0070003FA00F050400860A9
S315080007D07047000014B0004010B000400CB0004054
S315080007E030B5044610467F2808BF00204BF2346215
S315080007F0914283B01AD108237F2240F6120100A83D
S31508000800FFF7EEFF08220FF23C0100A800F082FE77
S3150800081030B908237F2240F2A27100A8FFF7E0FF53
S31508000820082200A9204600F055FE37BD044D29438D
S3150800083000FB03111A46204600F04CFE37BD0000A7
S3150800084000000808FFFFFFFFFFFFFFFF70B5234CFE
S3150800085025680646FFF760FF2149B0FBF1F07043B3
S315080008602F303021B0FBF1F0032809D3616D41F038
S31508000870010161652168491B0903090B8142F9D306
S3150800088070BD38B50C4620B101280FD0032820D0FA
S3150800089021E0144D44B1FFF73FFF1349B0FBF1F0D7
S315080008A0401EB0F5005F0CD2286012E04CB1FFF78D
S315080008B033FF610801EB4000B0FBF4F0B0F5003FF0
S315080008C001D3202032BD094900F001024A604008E0
S315080008D00860002032BD212032BD000038200040CB
S315080008E090D00300100004E020A1070068C800406B
S315080008F09749086048680007FCD508687047944916
S31508000900FF2008604A681207FCD54A68920748BF64
S315080009100868C0B2704710B509210020FFF70EFF1E
S3150800092004210120FFF70AFF09210220FFF706FF2D
S3150800093001210320FFF702FF86480021C1600161FB
S315080009404160102141600221016044F62060FFF7F2
S315080009507DFF814C082060609F20FFF7C9FFFFF7E5
S31508000960CEFF08211F28216001D1002010BD862056
S3150800097010BD0FF2F01070470020704710B5764C86
S3150800098008206060D720FFF7B3FFFFF7B8FF0821FC
S31508000990216010BD80B5FFF7F1FF8028FBDB01BDA4
S315080009A0F8B504460D461646FFF7E8FF8028FBDB38
S315080009B0694F08207860D220FFF79AFF6002000E80
S315080009C0FFF796FF200A4006000EFFF791FFE0B2F8
S315080009D0FFF78EFF00F016F800F014F800F012F892
S315080009E000F010F805E0FFF7A5FEFFF788FF05F809
S315080009F0010B3046461E80B20028F4D10820386024
S31508000A000020F2BD002073E72DE9F8430646884624
S31508000A109146FFF7B3FF8028FBDB300A4400F50B4D
S31508000A20B9F1FF0F4C4F13DC082078605320FFF70D
S31508000A305FFFE8B2FFF75CFFE0B2FFF759FFF0B2DD
S31508000A40FFF756FF08203860FFF798FF8028FBDB82
S31508000A50082078608220FFF74BFFE8B2FFF748FFCF
S31508000A60E0B2FFF745FFF0B203E0FFF763FE18F8C0
S31508000A70010BFFF73DFF4846A0F1010980B20028A7
S31508000A80F3D1082038600020BDE8F2832DE9F84349
S31508000A9000F057F83ABF3119814285200CD200F090
S31508000AA044F804D000F047F803D3071B02E04E458C
S31508000AB004DA37461EB90020BDE8F2834746BAB2C3
S31508000AC029462046FFF76CFF0028F5D100F026F8E6
S31508000AD0F4DAEEE72DE9F84300F033F83ABF3119B6
S31508000AE0814285200CD200F020F804D000F023F8CB
S31508000AF003D3071B02E04E4504DA37461EB9002029
S31508000B00BDE8F2834746BAB229462046FFF77CFF7E
S31508000B100028F5D100F002F8F4DAEEE7F61BB6B2D3
S31508000B20B8B24E45044405447047200640F2011900
S31508000B304FF480787047200A000200F580708142E1
S31508000B407047044605480D4616468442704700001D
S31508000B503CC0004054C0004010B0004001000400F2
S31508000B608820704702010000000000000001000014
S31508000B7000000400281900080100000080B54FF4A1
S31508000B80E1310120FFF77DFE26480221816001211F
S31508000B90016009200921FFF7D1FDBDE804400421C1
S31508000BA00A20FFF7CBBD204800684006FBD57047F2
S31508000BB01E49CA685207FCD50860704710B5044636
S31508000BC003E014F8010BFFF7F3FF20780028F8D1AB
S31508000BD010BD10B5044620090A28ACBF373030309E
S31508000BE0C0B2FFF7E5FF04F00F000A28BDE8104081
S31508000BF0ACBF37303030C0B2DAE70B480068800740
S31508000C0001D5012070470020704710B50446FFF74C
S31508000C10F4FF20B1054800682070002010BD0120AF
S31508000C2010BD000054C8004048C800403CC80040F9
S31508000C3080B500A8FFF7E9FF0028FAD001BD00003B
S31508000C40017001224270012982700CBF8021402167
S31508000C5081800021C18001811F4801600E218162C7
S31508000C60016821F01001016000214163416270476B
S31508000C70F8B50D4604461949174F4FF0FF3008607E
S31508000C801646FE6200207862386840F00100386037
S31508000C90FFF750FD012C11D135B9FFF7AEFF00F073
S31508000CA0010080F0010002E02846FFF7AEFF38B9E0
S31508000CB038684008400038600020F2BD0120F2BDC7
S31508000CC0786AB042E4D3002EE2D038684008400083
S31508000CD038601620F2BD000000F0004000A8004071
S31508000CE038B504460D4600F009F800F007F82A461C
S31508000CF02146BDE838401820FFF721BC2A46214680
S31508000D001820FFF71CBC38B50446002020814AF697
S31508000D10B432207800A9FFF7ABFF08B11C2032BD1A
S31508000D209DF80000032818BF182801D1182032BDE5
S31508000D30042801D1172032BD012801D0212032BD57
S31508000D40002500E06D1CA188EDB2091D8D420BDA65
S31508000D50281900F10A01207840F2DD22FFF788FF02
S31508000D600028EFD0262032BD0025002006E00146E7
S31508000D70EDB22819007B00F0DFFB6D1CA188EAB2F2
S31508000D808A42F4D3A27AE37A9B18FF2B01D0222059
S31508000D9032BD0B191D7BB5EB102F01D0232032BDB8
S31508000DA05B7BC0B2834201D0242032BDA078824248
S31508000DB007D0401EC0B2824201D1272032BD25206D
S31508000DC032BD881C20810220E080002032BD38B563
S31508000DD004466078012804D028D3032859D01DD3A7
S31508000DE024E02078012816D13B2500A8FFF70DFF3F
S31508000DF00028FAD04320FFF7DBFE207840F2DD22F8
S31508000E000021FFF735FF30B12846451EC0B200283D
S31508000E10F0D11B2032BD022060700FE0FFF708FFFB
S31508000E2000F039F8A078401CA07007E0182032BD01
S31508000E30A0782278411EC9B200F02FF82046FFF7A5
S31508000E4062FF050018BFFFF7F3FE272DF0D0A806AE
S31508000E500BD52278A1781520FFF771FB002DEDD16F
S31508000E600320FFF7FFF9002032BD680603D4182DCA
S31508000E7018BF1C2D07D121782846FFF731FF04201B
S31508000E806070284632BD172DE8D100F004F803201B
S31508000E906070172032BD2278A1780620FFF74FBB75
S31508000EA0F8B504460D4616461F4607E03046A047E5
S31508000EB0294600F053FB05467F1E761CBFB2002F5D
S31508000EC0F4D12846F2BD38B50C46154605E001466C
S31508000ED014F8010B00F042FB6D1EADB2002DF6D1E1
S31508000EE032BDF8B507460E461D46144630683B68BF
S31508000EF02A4621469847070005D1F0682A46214622
S31508000F00FFF7E1FFF060D6F8A8002818C6F8A80091
S31508000F1096F8A70050B1AC362A462146304600F06E
S31508000F20EFFB2A462146304600F06CFB3846F2BDF8
S31508000F3010B5029C847203814260016028224FF03A
S31508000F40FF31C16000210174A0F8A410802180F847
S31508000F50A610002180F8A710C0F8A810AC30BDE88C
S31508000F60104000F0D0BA2DE9F84F8946044699F8A2
S31508000F701BB0D068A049BBF1800FA8BF4FF0800B0B
S31508000F8088421E4651D1002E4DD0B06800904FF0D1
S31508000F90FF38002509EB450A9AF848700DE0FFF777
S31508000FA0C9FBF80240F0006200984FF4006341461E
S31508000FB0FFF776FF8046781CC7B20AF148004078EA
S31508000FC0B84204DA681CC5B2062D02DAE2E7FF2F3A
S31508000FD0E5D1D9F844006FEA0801884225D1A0680E
S31508000FE0736800BA4FEA5B0249469847C8B9E06891
S31508000FF005BAA06802BAB0685B464FF0FF31FFF742
S315080010004FFFC04385420CD140F6A720A9F810002F
S315080010100122A068736800BA09F1100110309847D8
S3150800102008B1422002E0172000E04320BDE8F28F15
S315080010302DE9F04F0D4683B08046D5F804B02889CF
S31508001040ADF80400914605F1140707F110040423CE
S315080010505A464046FFF745FF002823D1BBF8000053
S3150800106040BA80B20090BBF8020040BA86B2F007D8
S3150800107048BF462074D4B6F5026FC8BF4E206FDC51
S31508001080002E6CD00098DFF874A140B14FF60441E9
S31508001090401A64D0FF3865D0FE3863D0A9E0287CB2
S315080010A008B151205CE08D2E28BF4F2058D2334618
S315080010B03A1D00F09BF9002852D1E27E802AA8BF8B
S315080010C0802202F10C00864201BFB88840BA00F4BB
S315080010D07F40B0F5007F3ED1F88840BA4EF25031D5
S315080010E0884202BF208A40F6A721884233D1608A07
S315080010F000F47F40B0F5807F01BFB86800BADAF81F
S315080011001C10884227D1BAF8180040F203218842F9
S315080011100BD1608AB0F5847F1DDBE06D41051AD1DD
S315080011203749081AB0F5F02F15D84FF6FF70208208
S3150800113007F110014FF0FF30FFF7C5FEF96809BA4D
S31508001140C943884204BF207E042804D1607E08284B
S3150800115018BF062801D0452002E001202874002087
S31508001160BDE8FE8F287C08B94120F9E7042300F082
S315080011703CF90028F4D1DBF8000007BA301F86B224
S31508001180DAF81C00874238BF4820E9D3616DF019A8
S31508001190884228BF4920E3D200984FF60351884277
S315080011A00DD1B9F1000F0AD0D9F80020394602202E
S315080011B0904720B14A20D3E7301B86B2E719002EA4
S315080011C0CDD0BDF804008642B4BF34460446234653
S315080011D000F00BF90028C3D1B9F1000FECD0D9F80B
S315080011E0043062085946384698470028E4D04B2010
S315080011F0B6E74420B4E70000E320BBDE00000008A1
S3150800120000E007082DE9F04F0D4685B080466F6867
S3150800121005F11400009005F1A404103004909146DD
S31508001220A078832805D1A68882214FF60710A170D9
S315080012300CE004233A464046FFF753FE002840F0E8
S31508001240D1807988388849BA40BA8EB2F10748BF42
S31508001250462000F1C78080B24FF20972A178801A41
S3150800126005F1AC0A05F1040B00F08A804FF4FF7211
S31508001270801A6BD0FF3830D0FF3803D0FF3800F023
S315080012809A80AEE0802929D1062E23D3062302AA06
S3150800129029464046FFF725FEE8B9BDF8080040BADA
S315080012A000F47F40B0F5007F01BFBDF80C0040BADE
S315080012B04EF2503188420DD1BDF80A0040BA0128D5
S315080012C018BF522007D1BDF80A0040BAA5F8A400F5
S315080012D0002000E04520812181E081296DD1BBF8FD
S315080012E00490102E38BF4E202ED30423524600F009
S315080012F07DF848BB0C230AF1040200F077F818BB06
S31508001300DAF8000000BAA6F11001CAF800008EB299
S315080013103146504600F03EF905E069683A465046BF
S3150800132000F070F9F61BB6B256B137464E4588BF7F
S315080013304F466A683B4600F059F80028EDD003E0AE
S31508001340504600F082F90020822148E0822934D1F3
S31508001350042E2BD30120E0704A46002060602946FF
S315080013604046FFF765FE08BB0021E17061688E42C2
S315080013701CD3B14236D28322A270711A616031E061
S3150800138082291AD1504600F060F9BBF80400B04231
S31508001390B8BF4F2026DB33463A4600F027F808BB8D
S315080013A0F2B23946504600F076F908B9542019E0E9
S315080013B00020842113E0842901D0512012E0042E54
S315080013C018BF4C200ED104233A4600F00FF848B94E
S315080013D0049900984B462A46FFF7C5FD8521A1705A
S315080013E000E0442005B0BDE8F08F5A46294640463D
S315080013F077E570B50C4605462089C107164601D41F
S31508001400802801DA4F2070BD00F0B8F808B95320DB
S3150800141070BD324621462846FFF7F4FE002818BF5D
S31508001420172803D08F2184F8A61070BD94F8A6005B
S31508001430852806D1206869688847172805D10020BD
S3150800144070BDA07A0028E4D0502070BD10B50446BF
S315080014500020FEF707FF24BB0020FFF7E7F850B986
S315080014600120FFF7E3F830B90520FEF7FBFE40F24E
S315080014700120FEF7AFFE0420FEF7F4FE0120FEF77A
S31508001480F1FEBDE8104040F20320FEF7A3BE0FF2BE
S315080014903400FFF793FBFFF786FB40F20220FEF7C6
S315080014A099FEFFF755F80400F1D00FF22000FFF778
S315080014B085FB2046FFF78DFB01A0FFF77FFBF0E7D2
S315080014C00D0A00000D0A4F6B0D0A00000D0A455261
S315080014D052200000814212D210185118401E491E8F
S315080014E092B2002A1EBF11F8013900F80139521EBE
S315080014F0F6D1704711F8013B00F8013B521E92B233
S31508001500002AF7D17047130003D00A46194600F09F
S3150800151021B9704710B500E0521E92B222B100F010
S3150800152005F8F9D0181B10BD002010BD10F8013BB6
S3150800153011F8014BA34270470A0242EA11214840BA
S31508001540C0F30311484080EA003041010206C9B2DF
S31508001550D20E41EA0221484080B270470A0A484042
S31508001560C0B208214308C00746BF0348584018467A
S31508001570491EF7D1504070472083B8ED00205F49D7
S31508001580415CFF2901D001207047401C1028F6DB7A
S315080015900020704712B5044683B02068039900BA44
S315080015A000903A2001B17A2020740C22211D04F102
S315080015B01100FFF78FFF03220DF1010104F11D0051
S315080015C0FFF788FF00F03CF80398D0B1B0F57F4FDD
S315080015D005D200BA039002220DF10E010EE00FF2B9
S315080015E070100088ADF804000222039800BA039030
S315080015F001A9204600F006F8042203A9204600F0B7
S3150800160001F81FBDF8B504460D461646002714E036
S3150800161094F825007A5D0019017C5140017494F80C
S315080016202500401C84F82500C0B2102804D300F019
S3150800163007F8002084F825007F1CB742E8D3F1BDDF
S315080016402E4904F1100000F0EFB81FB5044600A8B3
S31508001650102100F0F3F894F82500C0F11000C1102D
S3150800166000EB11710911A0EB011200A92046FFF742
S31508001670C9FF1FBD1FB50C46011D00AA002000F0BA
S3150800168026F8002000AA015D825C51400155401CE5
S315080016901028F7DB1FBD38B5102A04460D4612D1AF
S315080016A0216A94F82420206802EB011188420AD1A5
S315080016B029462046FFF7DEFF102204F110012846CE
S315080016C0FFF728FF08B1002032BD012032BD11B551
S315080016D081B000BA01901446022020700C22601CCA
S315080016E0FFF7F8FE03220DF1050104F10D00FFF7DF
S315080016F0F1FE0249204600F097F813BDF8080808DD
S315080017002DE9FF4104460D4690460020002704F1C6
S31508001710200619E030B9206A00AA211D401CFFF7EF
S31508001720D6FF01203379795D00AA9A5C5140795534
S315080017303179491CC9B2102904DB206A401C206291
S315080017400021002031717F1C4745E3D3BDE8FF81A6
S31508001750FFFE000062F30F2262F31F42401810F0EA
S31508001760030308D0C91A1FD3DB0748BF00F8012DA9
S3150800177028BF20F8022D130030B414461546103938
S3150800178028BF20E93C00FAD8490728BF20E90C0001
S3150800179048BF40F8042D890028BF20F8022D48BF0D
S315080017A000F8012D30BC7047C91818BF00F8012D84
S315080017B0CB0728BF00F8012D7047000002681749BB
S315080017C012BACA60426812BA8A60826812BA4A6055
S315080017D0C06800BA0860704710B5114980220A60CF
S315080017E00623104A136007230B6013689B07FCD572
S315080017F0002350F823405B1C24BA042B8C62F8D3D0
S3150800180013685B07FCD500220B6B1BBA40F8223025
S31508001810521C042AF8D310BD0000000038300040DE
S315080018200030004010A0004010B504460846FFF7F7
S31508001830C5FF2046BDE81040CEE70000002200F0B4
S3150800184001B8000000B500BF13009646944610394B
S3150800185028BFA0E80C50FAD85FEA417C28BF0CC024
S3150800186048BF40F8042BC90728BF20F8022B48BFF9
S3150800187000F8012B00BD00002748018A40F6A77230
S31508001880914202BF408A4FF47F41084203D10228A1
S3150800189001DB0120704700207047F8B504461D4E4D
S315080018A001200D463070FFF7E7FF18B94FF40170B5
S315080018B0FEF790FC29461848876A44F48070B847B2
S315080018C0002131700FF2540618B9294644F4007005
S315080018D0B847805DF2BD2DE9F041044688465600BA
S315080018E0FFF7CAFF18B94FF40170FEF773FC0A48F0
S315080018F0476A0023324641462046B8470FF21C0580
S3150800190020B93346002241462046B847405DBDE827
S31508001910F0810000BC0C002000000808000202024A
S315080019204B4B464700366E014154343544423032FB
S3110800193031440000EE0800000100FFFF33
S705080000757D
