S00F00006E6F6465746573742E7333377F
S31508002000E82300203D0901089D080108A1080108E8
S31508002010A70A090100210008040503AC00579B0123
S3150800202000000000000000000000000000000000A2
S315080020300000000000000000000000000000000092
S315080020400000000000000000FFFFFFFFFFFFFFFF8A
S31508002050FFFFFFFF00E0010800000000000000008D
S31508002060FFFFFFFFFFFFFFFFFFFFFFFFFFFFFFFF72
S31508002070FFFFFFFFFFFFFFFFFFFFFFFFFFFFFFFF62
S31508002080F02F002000000000EE2F0020EE2F002089
S31508002090E8230020B02D0108060B0108881A002045
S311080020A05C0F0020000002080030002041
S31508002100E82300203D0901089D080108A1080108E7
S31508002110A9080108A5080108AD080108240901084D
S3150800212024090108240901082409010824090108C9
S31508002130B10801082409010824090108597800088A
S315080021404FE30008240901087F82000824090108D2
S315080021503D7C000875810008240901082409010846
S3150800216005CA00080D970008CFB10008D9B70008BE
S315080021702409010813BB00085BBB00083B71000873
S31508002180D539000824090108240901082409010889
S3150800219070472DE9F84FDFF83C580FF29C010446CA
S315080021A02878002600F098FD0FF2BC2A0FF2845B0F
S315080021B00FF27058DFF8209804E0514600F08CFDC5
S315080021C0701C86B22168287837017A185368CBB113
S315080021D04B4509D15269130018BF4A45F0D07A58C1
S315080021E0414600F079FDEBE793687A58594600F0C6
S315080021F073FD20683818C2682878002ADDD00FF2E7
S315080022003C51EEE70FF2AC0100F066FD28780FF2BC
S31508002210CC0100F061FD28780FF2F00100F05CFDBA
S3150800222028780FF2141100F057FD28785146BDE8BA
S31508002230F44F00F051BD0000434F4D4D414E442030
S315080022405B504152414D45544552535D205B2D200C
S315080022504445534352495054494F4E5D0D0A202078
S3150800226077686572653A20623D6275666665722CA6
S315080022702073313D696E74385F742C2073323D6962
S315080022806E7431365F742C2075313D75696E7438FD
S315080022905F742C2075323D75696E7431365F742C07
S315080022A02075343D75696E7433325F740D0A0D0AF4
S315080022B00000000020202120202D20526563616C3B
S315080022C06C73207468652070726576696F75732003
S315080022D0636F6D6D616E640D0A00000020205B74EB
S315080022E061625D202D20417474656D70747320746D
S315080022F06F2074616220636F6D706C65746520630E
S315080023006F6D6D616E640D0A0000000020202020AC
S315080023102A2A204E4F54453A20616C6C20696E700B
S3150800232075742076616C7565732061726520696EB7
S3150800233020686578210D0A00202020202A2A2043BB
S315080023406F6D6D616E647320617265204E4F542007
S31508002350636173652073656E7369746976650D0AC2
S3150800236000000000A0F141011A293CBF2030C0B28C
S3150800237070472DE9F84F0546DFF86016A86800682B
S315080023800968DFF85066C0B2002410F80180B8F179
S31508002390210FA34607DB30780FF2D001BDE8F84FCE
S315080023A0202200F099BC00F0BFFC8246A14607E057
S315080023B019F80A00FFF7D6FF09F80A0009F101091A
S315080023C0C145F5DB42460FF2E801504600F048FFEA
S315080023D040B94FF0010B05E030780FF2DC013A46C0
S315080023E000F07AFC2968200142185268130039D097
S315080023F0641CDFF8E4954A45A4B2F3D14758BBF10B
S31508002400000FE9D1384600F03FFF4045EAD1424681
S315080024105146384600F018FF0028E3D10FF2F82895
S315080024200FF2183B0FF2980A04E0414600F054FCFC
S31508002430641CA4B22868270139184A68130018BF13
S315080024404A450FD03A588B683078514600F044FC1C
S3150800245028683818C2683078002AE6D0594600F04D
S315080024603BFCE5E7BDE8F18F0D0A00004572726F87
S31508002470723A206C69737420617267756D656E7443
S3150800248020746F6F206C6F6E672C207765206F6ED7
S315080024906C7920737570706F727420757020746F04
S315080024A02025752062797465732E0D0A00000000D8
S315080024B06D6F64756C65730025700D0A0000000069
S315080024C0257020257000000070B5044688B0A06805
S315080024D0016801B10121DFF808552970406800B18B
S315080024E00120DFF8006530700FF25C0001F0BAF8E1
S315080024F0A068C16801B10121DFF8EC2411700069F8
S3150800250000B10120DFF8E4142B78087008780790EA
S3150800251004F111010FF25800069010780FF25802D4
S3150800252005900FF25C000490012003907BA00290B6
S31508002530307801900FF2500000900FF2540001F02D
S3150800254091F808B070BD00005475726E696E672008
S315080025506F66662074616773206E6F742079657480
S3150800256020737570706F727465640D0A0000000040
S31508002570746578740000000068656164657200001F
S3150800258064656C696D000000636F6D6D616E640053
S315080025907B264E20566572626F73697479206F7058
S315080025A074696F6E732073657420746F3A0D0A260A
S315080025B074750D0A2674750D0A2674750D0A267427
S315080025C0750D0A2674757D0D0A000000DFF82014C3
S315080025D0007C51F82020DFF8FC030FF20801007890
S315080025E000F07ABB4349204572726F723A20257013
S315080025F00D0A000038B5DFF8DC43207846A500F060
S3150800260039FA20780FF2340100F066FB00F031FA4F
S3150800261020780FF24C0100F05FFB207840A100F013
S315080026205BFB20780FF2440100F056FB20780FF28E
S315080026304801BDE8344000F04FBB0000456D6265B7
S3150800264072204E6F64652054657374204170706CF7
S3150800265069636174696F6E2076312E300000000060
S3150800266046656220323120323031360031353A350E
S31508002670343A3030000000000D0A0D0A0000000050
S315080026802DE9F24F044682B0256BDFF84893904651
S31508002690002705E020A100F01FFB7F1CBFB2103504
S315080026A06868B8B32E68DDF808A04FF0000B0EE096
S315080026B01AF8010BFFF756FE009016F8010BFFF704
S315080026C051FE0099C9B28142E7D10BF1010B1FFAFD
S315080026D08BFBC345ECD32068DFF8FCC23E013118FA
S315080026E032584B6899F80000634504D10FF234015B
S315080026F000F0F2FAD1E78B680FF2380100F0ECFA35
S3150800270020683018C26899F80000002AC2D00FF273
S315080027102C01EDE7BDE8F78F0D0A0000746167002C
S315080027202C2000002D2D2D2D202570202D2D2D2D12
S315080027300D0A00002020257020257000202D202558
S31508002740700D0A002DE9F0439BB00EA80FF2A421E4
S31508002750342200F0B9FF4FF000098DF80190A5204A
S3150800276001F002F801F052F8002201230F21104669
S3150800277001F0BCF9050006D0002201230A21104603
S3150800278001F0B4F90546012300220F21184601F08D
S31508002790ADF9060006D0012300220A21184601F0E9
S315080027A0A5F90646012300220F21022001F09EF911
S315080027B05FEA000806D0012300220A21022001F060
S315080027C095F9804601F098FB824C5DB1002E68D0E1
S315080027D0B8F1000F6BD040F2E5110FF24C2001F072
S315080027E091FB04E0002E18BFB8F1000F62D084F800
S315080027F00090201D01F0B4FC201DFFF7FBFE0FF230
S31508002800382500F036F920780FF2802100F064FAB6
S3150800281020786DA600F02AF9201D01F037FF00F098
S3150800282028F920780FF2702100F056FA00F01DF909
S31508002830201D01F09CFF00F01CF920780FF264219E
S3150800284000F04AFA00F011F9201D03F0CCFA00F066
S3150800285010F920780FF2582100F03EFA00F005F939
S31508002860201D03F0E3FA00F004F920780FF24C215A
S3150800287000F032FA00F0F9F8201D03F0F4FA00F03F
S31508002880F8F820780FF2402100F026FA00F0EDF86B
S31508002890201D03F073FF4DA54DA60FF2A41801AF36
S315080028A03FE0B8F1000F05D001202070A1E7022013
S315080028B0FBE725702078FF289BD1002500A928462C
S315080028C001F056F938B99DF800000D2818BF0A28F6
S315080028D018BF2A28EDD06D1CEDB2032DEEDBE9E713
S315080028E08DF800009DF80010CA5D481C0A2A18BF1A
S315080028F00D2A18BF002AF3D10D22CA558DF80000FB
S3150800290001A99DF80020201D01F036FC9DF8002045
S3150800291001A90EA800F04EFC9DF8009000208DF845
S31508002920010000F09EF820780DF10103322201A97A
S3150800293001F068F90028D3D000F012FF04F0F4F98A
S315080029409DF8010020B39DF8011001A8081810F899
S31508002950010C09281CD100F088F89DF80100401EDA
S315080029608DF8010001A99DF80120201DFFF788FEBA
S315080029709DF801100020C85500F073F8002004E007
S3150800298000F06AF89DF80000401C00F05DF8F7D3E7
S315080029909DF804002128C6D100F067F84A460EA91A
S315080029A001A800F007FCA9F101008DF8010000F06C
S315080029B058F8002000F048F8B5D200F04DF89DF818
S315080029C00000401CF6E700005D0D0A0025630000C4
S315080029D00D0A0000E8230020912100085424002055
S315080029E02024002021240020222400202324002043
S315080029F0FC2400200D00000000000000000000007C
S31508002A0000000000000000000000000000000000B8
S31508002A1000000000000000000000000000000000A8
S31508002A200000000000000000706C6174666F726D33
S31508002A30746573742E6300005B494E495420000088
S31508002A400D0A3E20000000008DF800009DF80110D8
S31508002A509DF8000088427047C25D2078294600F03C
S31508002A603BB94146207800F037B92078314600F066
S31508002A7033B92078294600F02FB980B504F0F6F965
S31508002A80BDE8024000205DE600207047637261736E
S31508002A9068696E666F000000696E6974546F6B65CD
S31508002AA06E7300007265736574737472696E67007D
S31508002AB0696E6974526164696F00000073656564C4
S31508002AC0506E726700000000736574506572546535
S31508002AD0737454780000000070B51346101802E0AD
S31508002AE0A4192C705B1EDBB24BB101F00F06090965
S31508002AF0451E0A2E2846B4BF30243724F0E710189E
S31508002B0070BD2DE9F24F88B0804601A81446994653
S31508002B1001AD4FF0000B00278DF8000010E00127EB
S31508002B20641E05A885420AD39DF800002E1A00F0F7
S31508002B30B5F8002839D1B3445FFA8BFB01AD641CA4
S31508002B409DF800002E1A207800280BD0252803D0DF
S31508002B5017B905F8010BE4E7002F14BF0027641C1A
S31508002B602078010000F08F80B0F1250113D00B39D1
S31508002B70092968D928395DD00B390ED0491E2CD0C1
S31508002B8008392AD0091F0BD0C91E09D0891E24D09E
S31508002B90C91E4FD0C5E72520DBE759F8040BD8E74F
S31508002BA059F804AB00F07AF8002873D1B3445FFAF9
S31508002BB08BFB01AD002600E0761CF6B216F80A007B
S31508002BC00028F9D19DF8200032465146C047002812
S31508002BD060D1B3445FFA8BFBA3E759F8040B0021D5
S31508002BE0002803D52D212970404201210022002307
S31508002BF04FF0000C02E0801B0CF1010C0FF20416DA
S31508002C0056F82360B042F6D25FFA8CF6002E08BF5B
S31508002C10002A05D0C9B206F130024A55491C0122DC
S31508002C205B1C092BE4DBC9B230304855481CC0B2DE
S31508002C30451976E759F8041B0222C9B22846FFF758
S31508002C404BFF05466DE760780127782818BF582896
S31508002C50F8D1641C002714F8010C322804D159F85D
S31508002C60041B042289B2E9E734287FF458AF59F8DF
S31508002C7004AB04224FEA1A412846FFF72DFF042227
S31508002C801FFA8AF1DBE700F009F818B906EB0B0022
S31508002C90C0B200E0002009B0BDE8F08F9DF8200022
S31508002CA0F2B201A9404709A116E010B5084BC35C6A
S31508002CB00024012B07D113460A4601460548FFF7AB
S31508002CC020FF00B90124204610BD00000D0A0000AF
S31508002CD0E03E0008C33D00080CB480B502AAFFF721
S31508002CE0E4FF02BC5DF80CFB0CB438B5044604AA34
S31508002CF0FFF7DBFF05462046FFF7D5FF284632BC1F
S31508002D005DF80CFB00CA9A3B00E1F5058096980031
S31508002D1040420F00A086010010270000E8030000CB
S31508002D20640000000A000000DFF85814096801EB87
S31508002D3040107047DFF850241268815470472DE917
S31508002D40F041040035D004F0CDFADFF84014DFF87E
S31508002D5040340E78FF228046FE2EDFF838041BD159
S31508002D6000260E70DFF830C4DFF8306437781F703D
S31508002D70002708E007F1010E07F805E0DCF8005027
S31508002D807A555FFA8EF796F800E005687745F1DB25
S31508002D900EEB050606F8012C1E78A6420BD2404615
S31508002DA004F0A6FA052004F0DEFA00211B2004F040
S31508002DB027FBFF201CE0361B1E70DFF8E4330E7875
S31508002DC00F78D3F800E0012507F80E50641E056851
S31508002DD017F805E081F800E0E4B2002CF0D17A5546
S31508002DE000213046FFF7A6FF404604F081FA304638
S31508002DF0BDE8F08110B5044604F074FADFF8A013B4
S31508002E000968625C521C6254BDE8104004F070BA4E
S31508002E102DE9F041054600F031F8044604F062FA5F
S31508002E20DFF86823DFF86833DFF86863DFF8708354
S31508002E30FF2D1FD0D8F800106F5C7F1E6F547F27B8
S31508002E40D8F800E015F80E10394213D13168695CDC
S31508002E50002705F80E701F787F1C1F70FF2937683A
S31508002E6092F800E005F807E0157006BF2546FF242E
S31508002E700D46DDE7BDE8F04104F03ABA80B5DFF863
S31508002E8020130968415C090603D5FFF74DFF007852
S31508002E9002BDFF2002BD70B504460D4605F11F00B0
S31508002EA00004400D82B0C0B2FFF749FF0646FF2E68
S31508002EB00CD02946FFF73EFF3CB1012000902B4677
S31508002EC000223146204600F002F8304676BD73B53A
S31508002ED000F0BBF8085C15461E467119884203DAED
S31508002EE04FF4B07100F0DAF866B1294601A800F08F
S31508002EF0D9F8024606989DF80410009033462046F5
S31508002F0000F001F873BD2DE9F843089CDFF88482C8
S31508002F100546894616461F460BE04A5D0A54491C73
S31508002F20B142FADBD8F80000BF1B751919F80090F2
S31508002F300026FFB2BFB14846FFF7F6FE3018F11972
S31508002F402029B2BF3E46C6F12006F6B2324624B95B
S31508002F500146284600F02EF9E4E7012C08BF294669
S31508002F60F8D00021DCE7BDE8F1832DE9F04100F057
S31508002F706CF882B01600255C88461F460ED071197B
S31508002F80C9B2204600F04FF808B1182007E00097AC
S31508002F9033462A4621464046FFF799FF0020BDE8FA
S31508002FA0F6810123E1E70A4600E0521C1378002B5C
S31508002FB0FBD1521A0223D2B2D7E7F8B5044601F17B
S31508002FC01F00C50402F11F00C0042D0E000E05B92E
S31508002FD0012500B90120854223D08542DFF8B46176
S31508002FE010DA401BC0B2FFF7AAFE0746FF2F01D131
S31508002FF00020F2BD691EC9B2204600F02BF83168E0
S3150800300047540EE08A420CD2411EC9B2204600F04F
S3150800301021F804463068205CFFF7FAFE3168FF2085
S3150800302060540120F2BD38B500F00FF80D46215C5A
S315080030302A462046FFF7C1FF28B129462046FFF752
S3150800304079FE002032BD182032BD0446DFF838016B
S315080030500068704704E0DFF83C211268805C491E6E
S31508003060C9B20029F7D1704711B581B0DFF8180148
S3150800307000680C469DF80410085C844203D34FF49C
S31508003080F47100F00BF8214601A800F00BF804468D
S315080030909DF80400FFF748FE201816BD0FF204102D
S315080030A000F030BF38B504460D46E9042078090E0D
S315080030B0FFF7D0FF207005F01F0032BD80B5FFF77F
S315080030C0D3FF007802BD10B51446FFF7CDFF047094
S315080030D010BD70B500F00AF800F004F800EB062001
S315080030E080B270BD064629462046E7E70D46691CAC
S315080030F00446C9B2E2E72DE9F541089C1F464CB3E0
S31508003100254689B200A8FFF7CDFF0646B9B201A841
S31508003110FFF7C8FF07463046B84238BF3846C0F101
S315080031202000C0B2A842B8BF05469DF80400FFF7C4
S31508003130FBFD80469DF80000FFF7F6FDAAB207EBF7
S315080031400801301800F036F8641BA919EF19A4B263
S31508003150002CD5D1BDE8F38170B504460D4604F0C0
S31508003160C1F80D4B21781B68FF2908BFED5403D021
S31508003170C9180E78EE540D702570BDE8704004F03D
S31508003180B7B800005024002054240020D82400207A
S315080031904D2400205C240020602400204C240020BC
S315080031A0582400207061636B65742D6275666665C8
S315080031B0722E6300814233D210185118401E491EE0
S315080031C010E011F8013900F80139121F11F8013918
S315080031D000F8013911F8013900F8013911F80139F7
S315080031E000F8013992B2042AEBDA92B2002A1EBF1D
S315080031F011F8013900F80139521EF6D1704711F855
S31508003200013B00F8013B121F11F8013B00F8013B96
S3150800321011F8013B00F8013B11F8013B00F8013BAE
S3150800322092B2042AEBDA92B2002A1EBF11F8013BC9
S3150800323000F8013B521EF6D17047130003D00A4628
S31508003240194604F0DFB8704710B500E0521E92B276
S3150800325022B100F012F8F9D0181B10BD002010BDDD
S3150800326010B500E0521E92B22AB100F006F8F9D065
S31508003270181B40B210BD002010BD10F8013B11F814
S31508003280014BA3427047000000F10103810704D0F7
S3150800329010F8011B89B18107FAD10268B2F1013130
S315080032A0914311F0803F04BF50F8042FF6E710F859
S315080032B0011B11B110F8011BFBE7C01A704700008B
S315080032C038B50446611D206A2368451A2079EAB292
S315080032D0984708B1002032BD00F018F8601D20623A
S315080032E0012032BD38B50446002500E06D1CEDB25C
S315080032F0685C0028FAD1207923682A46984718B9C5
S3150800330000F004F8012032BD002032BD94F82900EF
S31508003310281884F8290070472DE9F04F044683B031
S31508003320601D206204F1200704F1150078600E463E
S31508003330002091467872DFF8608312E010B1601DB4
S315080033402062164625B17D2000F065F901F8010DC9
S31508003350206A7968884203D300F063F9002863D0AD
S31508003360761C3078002800F04D81252898F8011041
S3150800337018BF26280AD07B281CBF7D28232802D1FF
S315080033800029E5D0E0E798F80210F9E716F8012FCA
S31508003390252A18BF262A04D100F03DF901F8012D87
S315080033A0D6E726280BD151B101256E2A18BF4E2A19
S315080033B006D000F030F97B2001F8010D00E0002569
S315080033C0317800204E2906D0542926D06E2902D0FD
S315080033D0742922D034E098F8000059F804BB002874
S315080033E0B6D03DB1206A7B2100F8011B411C216241
S315080033F02821017000F015F9002815D000F008F909
S31508003400002811D0002DA3D0206A292100F8011B1D
S31508003410411C21627D2101709AE700F000F900281D
S3150800342002D000F0F5F800287BD000F0FAF8002862
S3150800343077D000F0F0F83A2001F8010D761C01204B
S31508003440317896F801E0A1F13002D2B2911E052931
S315080034503CD2BEF1640F18BFBEF1750F36D159F8CC
S31508003460041B1FFA81FC00230121BEF1640FE2460A
S3150800347009D15FEA0C4E06D56FEA0C0C0CF1010C6B
S3150800348001231FFA8CFCBCF1000F0AD04FF00A0E7C
S315080034909CFBFEFC5B1C1FFA8CFCBCF1000FF5D1F3
S315080034A00BE05B1C09E0D7F800E00EF1010EC7F847
S315080034B000E04FF0200C0EF801CD9C460CF10103FC
S315080034C05FFA8CFC9445EEDB761C00E0002133782D
S315080034D0721E002B00F09280322B18BF342B69D055
S315080034E0482B5CD0582B5CD0632B0CD0642B1BD09C
S315080034F0682B54D0702B18BF732B0BD0752B13D099
S31508003500782B4ED01AE7206A411C216259F8041B11
S31508003510017017E700F083F818B100F079F8002871
S31508003520F7D10020BDE8FE8F002919BF1FFA8AFAD5
S31508003530514659F8041B89B229B900F06CF83020B5
S3150800354001F8010DFEE60020642B0DD10A040BD507
S315080035503B685B1C2D223B60B1F5004F03F8012D3B
S3150800356002D0494289B259B10A2291FBF2F20A23E2
S3150800357003FB121100ABC0B2C154401C91B2F2E772
S315080035800146481EC9B2002913D000A9C0B23A683C
S31508003590415C521C3A60303102F8011DF0E700F038
S315080035A042F8022259F8041B206AC9B2FFF794FAB6
S315080035B02062C7E616F8010F682818BF48280BD1FD
S315080035C000F031F816F8011C206A32290AD159F898
S315080035D0041B042289B2E9E7782818BF5828F1D0D5
S315080035E0761EAFE659F804BB04224FEA1B41FFF7E3
S315080035F073FA206204221FFA8BF1D7E700287FF4BA
S315080036009DAE9EE600F00DF800288AD0787A89E704
S315080036105946204666E63968491C3960704759F8A4
S3150800362004BB20464CE6206A302100F8011B411CE9
S3150800363021627821017070470EB410B517490978D0
S315080036408BB0002409B900200BE0154900910DAA9A
S3150800365000F01CF8014600A8FFF75EFE00B9012439
S3150800366020460FE00EB410B58BB00D49009100242A
S3150800367000F00CF80DAA014600A8FFF74DFE00B9A8
S31508003680012420460BB010BC5DF810FB05490978EB
S315080036908DF8041070470000212400202024002003
S315080036A0C33D0008E823002062B38B0708D0521EEA
S315080036B011F8013B00F8013B00F024808B07F6D196
S315080036C0830740F0208000BF103A07D330B4B1E832
S315080036D03810103AA0E83810F9D230BC530724BF86
S315080036E0B1E80810A0E8081044BF51F8043B40F8B8
S315080036F0043BD20724BF31F8022B20F8022B44BF23
S315080037000B7803707047083A07D3B1E80810083AEF
S3150800371040F8043B40F804CBF7D25307E4E700002F
S315080037202D480068C00701D42C4870472C487047BC
S3150800373080B5FFF7F5FF2B49096801B9400802BDB6
S3150800374080B5FFF7EDFF400802BD03F050BF2648DD
S31508003750012181604EF6BE2141600121016070475A
S315080037602249012008607047A52805D11E484DF654
S31508003770AD6141600221016070471B480068C007BF
S3150800378001D5012070470020704780B51849194AAD
S315080037901020086018491948007858B103280CBF4A
S315080037A000200120106040F651000860002004F057
S315080037B0D8F906E0022010604FF40060086003F0B4
S315080037C0CFFE07210E4801600021016410200D4933
S315080037D00860002002BD00001C400040001BB70026
S315080037E000366E012040004000600040086000403E
S315080037F080E100E0080000400C600040D32F002064
S3150800380014A0004000E100E07047704780B5A54865
S315080038100021416041708170A5210170012003F0EB
S315080038206BFD03F09BFD00F01EF8002002BD9E48CC
S315080038300168C90700D4704780B59C490A6822F414
S3150800384040620A6001684908490001600168090286
S31508003850FCD49748006810B1642004F067F99549CC
S315080038600020086001BD80B59348016841F0807169
S3150800387001600120914908600020914904F07FF910
S315080038809049914A022008600020904908609049B2
S315080038909048016001211160834A8F49116040F206
S315080038A0014101654FF480308C49086001BD8148AB
S315080038B0006800281EBF7E480068002805D07E489C
S315080038C00068000E00F00100704700207047D12202
S315080038D002704170090A817081490A78C270501CC9
S315080038E00870042070472DE9F14F82B0DFF8F481A3
S315080038F000900026D8F800000099085C451DEDB236
S3150800390004F07EF901904FF6FF7B19E0B11E9DF891
S315080039100800C9B2FFF7D2FB0746594604F0A2F9D8
S3150800392083465646F9B24FEAC90001FA00F0044345
S3150800393009F10109B9F1040F17DB4FF06040046083
S31508003940F6B2FFF7B4FF90B3AE4230DA04F058F996
S315080039500199401A80B2B0F5FA7F28DC4FF0604032
S3150800396000680128ECD10024A146F6B216B95B27F7
S315080039700126D7E7012E06F1010A04D1D8F800007E
S3150800398000990F5CCDE7E91E8E4208BF5F46C8D096
S31508003990A91E8E4208BF4FEA1B27C2D0691E8E4257
S315080039A008BF5D27BDD0AE42B0D10027BAE74FF4B5
S315080039B0C87004F0BBF8AE420CBF00200120BDE879
S315080039C0FE8F48490968415C0429A8BFFFF78BBFE9
S315080039D0012070472DE9F04D324D6E78002E5ED0ED
S315080039E004F00EF9834631460020FFF754FA0446E0
S315080039F0FF2CA04602D10020687050E0202EB4BFEC
S31508003A0037462027FFF790F96860AF70DFF8D8A02F
S31508003A1004E04046FFF788F96860AF706878C0B17F
S31508003A2004F0EEF8A0EB0B0080B2B0F5FA7F10DCDC
S31508003A30A8780028F2D1F61B6E70F6B2002EEDD0EB
S31508003A40DAF8000018F80080202EB4BF3746202781
S31508003A50DFE7002E04BF6878002818D1A878B0B927
S31508003A6020480068205C851EE9B22046FFF731FB36
S31508003A70122808D1E9B22046FFF7D5FA21461220C6
S31508003A8004F0CCF906E0204604F012F902E0002022
S31508003A906870A8702046BDE8F04DFFF7B9B9BDE8D3
S31508003AA0F08D0000F02F0020800E00E0001000E0EE
S31508003AB034000040100004E0FCED00E0040004E0DF
S31508003AC020A10700F00004E0000E00E0040304E073
S31508003AD055CEACC5B00F00E00D00010000E100E0D6
S31508003AE0D72F0020542400205C2400202DE9F0471D
S31508003AF00446884691469A4600F0E3F9002801BF35
S31508003B0025460FF2DC30285C012823D1DFF8A463B0
S31508003B1056F8257003F0E6FB0021B98039807980D4
S31508003B2003F0E6FB06EB8500066903F0DBFBDFF82E
S31508003B3088230021B18031807180A95403F0D8FB15
S31508003B4004F017FB53464A4641462046BDE8F0476F
S31508003B5004F0D6B92120BDE8F08710B5044604F074
S31508003B60D2FADFF8500300EB84000069808810BDA4
S31508003B702DE9F84381464C46DFF8380300EB84000C
S31508003B8088460669484600F09CF908B1012037E0E6
S31508003B90DFF82453605D05EB440760B1B888718887
S31508003BA0884208D103F09EFB665D0021615503F04B
S31508003BB09FFB304624E0484604F0A5FAB088F0B1E9
S31508003BC003F090FB71880FF224328919897988F8F5
S31508003BD000104FF6FF78718832F8142000F0EBF8E1
S31508003BE07180B1884144B18003F082FB605D20B1E9
S31508003BF0B888404504BF3088B880002000E02620F9
S31508003C00BDE8F283F8B51F46044638780D461646D1
S31508003C1008B1B04208D30020287005E03878411C66
S31508003C2039709DF80010415500A92046FFF7A0FFFE
S31508003C30002855D19DF800008028F5DA397819B999
S31508003C400A2818BF0028EFD0B14207D300203870E1
S31508003C509DF800000D2818BF0028E5D09DF8000043
S31508003C60082818BF7F280CD138780028DCD0401ED9
S31508003C7038700021C0B2415520468DA100F057F892
S31508003C80D2E73878801C8642BCBF0D208DF800002C
S31508003C909DF80010204600F038F89DF800006138BD
S31508003CA01A2804D29DF8000020388DF800009DF8E7
S31508003CB000000D2818BF0A28B0D1397800204855C9
S31508003CC09DF800000D2805D10A21204600F01DF8B0
S31508003CD0002603E00D21204600F017F83E7000206C
S31508003CE0F2BD70B582B0044600200D4616468DF822
S31508003CF0000001E0FFF734FD00AB324629462046B6
S31508003D00FFF780FF0028F5D176BD02B5012200A98C
S31508003D1000F057F802BD80880FF2BC1333F8111073
S31508003D20891A884201DA01207047002070472DE978
S31508003D30F047824656460FF2A810305C01280D4619
S31508003D4036D15C480FF2AC1850F826700FF2941969
S31508003D50002414E003F0C6FAB98801B901243A88A8
S31508003D6015F8011BD2199171398839F8162000F017
S31508003D7022F83980B988491CB98003F0B9FA28783D
S31508003D8088B1002251463846FFF7C5FF0028E1D121
S31508003D901CB1504604F0F7F8002416F8080000286D
S31508003DA0EFD1222005E0504604F0EDF8002000E0AF
S31508003DB00120BDE8F087491C91FBF2F302FB1311C1
S31508003DC070472DE9F84F804647460FF21410385CC5
S31508003DD001288B46164638D136480FF2181950F87E
S31508003DE027400FF2001A002514E003F07BFAA18899
S31508003DF001B9012522881BF8011B12199171218826
S31508003E003AF81720FFF7D7FF2180A188491CA1801F
S31508003E1003F06EFA3046461EC0B288B1002241460B
S31508003E202046FFF778FF0028DFD11DB1404604F091
S31508003E30AAF8002517F809000028EFD1222005E086
S31508003E40404604F0A0F8002000E00120BDE8F28F0B
S31508003E5080B501460FF288028A5C012A05D1154A07
S31508003E6052F821108A88002AFCD104F0E1F80020D3
S31508003E7002BD0CB438B504460D4604F0B1F804ABDF
S31508003E802A4621460D48FEF73CFE0FF2540120460D
S31508003E90415C012907D1074951F82000808810B1F3
S31508003EA0204604F070F832BC00205DF80CFB0000D8
S31508003EB008200800DC240020902D0020F17F00084F
S31508003EC07047042806DA0FF21801415C481E804143
S31508003ED0C00F704701207047800080008000800076
S31508003EE00101010180008000800080004000400040
S31508003EF04000400001010101002181F3118870474B
S31508003F0042DE704738B504460D46FFF729FC03F034
S31508003F10E9F92946204603F0B7FE2B4622460FF25A
S31508003F20CC110120FFF7A5FF29462046BDE83440FD
S31508003F30E6E72DE9F84F6548654D01682E1D4FF4F3
S31508003F40206A7165016AB16562490968F165416A65
S31508003F503166816A7166C16AB166016BF166806B0A
S31508003F60306796F8340040074CBFF76BB76BBB4613
S31508003F7004F003FA0022584CDFF86081DFF86091FC
S31508003F80F2648742014624BFA4F12003BB4231658F
S31508003F901DD357F8180F306457F8040F7064706D06
S31508003FA0C005C00D062815D1306C484512D34045CA
S31508003FB010D200884DF6426290420BD105F18C0072
S31508003FC06A68426040F2017A7268826002E032648E
S31508003FD0726483464348814202D2014600E0091DC5
S31508003FE0A14203D20B68B3F1CD3FF8D0601AB06492
S31508003FF0182105F1780004F0EBF9002003E0C0B2BF
S3150800400005EB80029167A34523D254F8041D494560
S31508004010F9D34145F7D2CA07F5D5002205EB820345
S315080040209B6F8B4203D0521CD2B2062AF6DB062AB5
S31508004030E9D1002814BF401E0520E0E7716F002271
S3150800404005EB8203521CDF6F9F67052AF8DBC5F86C
S315080040508C100146481EC9B20029EFD1706DC00503
S31508004060C00D02280AD0032815D0042816D0052822
S3150800407017D0062818D00C281CD01EE01A4801684C
S31508004080890748BF40F6021A1CD40068C00719D52C
S3150800409040F2025A16E040F6012A13E040F6022AD8
S315080040A010E040F6032A0DE0BAF5206F0AD140F673
S315080040B0042A07E040F6052A04E018B1242838BF88
S315080040C040F6072A5046BDE8F28F000004ED00E0EE
S315080040D00000002000E300E0E8230020060B0108AA
S315080040E090210008980000201CA000400D0A5B41A2
S315080040F053534552543A25703A25645D0D0A00001B
S315080041002DE9F8430446DFF8F8030068255C002625
S31508004110E807B14648BF002020D400270FF204580C
S3150800412002E04FEA00197F1CFFB2AF4211DA3946A6
S315080041302046FEF7C3FF10F80800F90700F00F0045
S31508004140EFD549EA0002F1B22046FEF7BCFF761C1D
S31508004150E9E7F1B22046FEF7EDFD0120BDE8F2835E
S31508004160FF2180F826100021C173C18380F824102E
S3150800417081730168016370472DE9F64F83B0814664
S3150800418000208DF8010009F104050AE0687A09F1B2
S31508004190240148720120E87249469DF8000000F0A3
S315080041A0C1F903980026002760BB9DF8100000A9F6
S315080041B0FFF7DEFC002839D0262826D001214846FC
S315080041C000F0A2F97820B0468DF8000010260020ED
S315080041D08DF80100E87A0828E3D8DFE810F00A002D
S315080041E04D009700FD00FD0055016101BA00AA00C7
S315080041F0D7E7102ECAD09DF80000232838D108200A
S31508004200E872CEE79DF8100020B99DF8010005B0C8
S31508004210BDE8F08F0398401C0390401E00788DF887
S3150800422000009DF81000401E8DF81000B0469DF85D
S315080042300000672811D29DF800100FF2E830085CDC
S3150800424000F0300600F00F08400609D509F12401F0
S31508004250497A884504D2012702E07B2838BF102610
S315080042609DF800000A2818BF0D28B0D10120AFE735
S31508004270202E96D003203DE1102E1CBF9DF800008D
S315080042805F2800D027B199F824000C28F2DA83E7D2
S31508004290202E18BF302E48D199F824104944002002
S315080042A04874002409F11100029009F12400D0F89D
S315080042B00CA00DE01BF8010B00F02DF90199491C23
S315080042C00191491E0978814209D0641C0AF1100A35
S315080042D0DAF8040048B3DAF800B0029801900198B9
S315080042E000780028E6D19BF800000028EDD109F1F6
S315080042F024006C83C068698B00EB01108068E86154
S315080043000020A87289F824000220E87209F1240125
S31508004310687A487287B32B20087209F12400C0F81E
S315080043200480687A487204206AE70321484600F048
S31508004330EBF89DF8010000280AD0287B28B1D9F8A7
S31508004340041048468847002028734846FFF708FFA8
S3150800435027E79DF8010018B1484600F0EFF8F4E7A2
S315080043609DF80000232803D1484600F0E7F846E701
S31508004370202EEDD00420BDE09DF800002D2818BFA2
S315080043802B2806D1087200204860687A48720320F4
S3150800439036E722280CD10120FEF7D1FC09F12401C9
S315080043A0FF2888700DD00021FEF7C4FC052027E7FA
S315080043B07B28CED10120FEF7C2FC09F12401FF2893
S315080043C0887000F096800021FEF7B4FC09F12401FC
S315080043D010204872062013E76FB109F1240009F18D
S315080043E024014068497A01FB00800421E97209F139
S315080043F024014860D5E69DF80010782918BF582989
S3150800440008D109F12401496821B909F124011020CC
S315080044104872C6E603285AD0202E18BF302E56D129
S3150800442009F12403E8691B7A0278407809F1240126
S315080044302D2B496808BF4942752A08D134281AD055
S315080044400022312814BF4FF6FF70FF200FE0732AB1
S3150800445008D1312807BF6FF07F027F20294A47F627
S31508004460FF7004E00421484600F04EF861E79142E7
S31508004470A8BF884206DB0222484600F07EF80028DC
S31508004480F4D041E70621EEE79DF80000222820D166
S315080044900021484600F086F80028BAD00220AFE688
S315080044A09DF800007D280FD109F124008078FFF7D8
S315080044B027FE06460121484600F074F808B1022096
S315080044C0E872002EA5D102E0202EA2D00FB907204F
S315080044D010E009F124000A4980780968415CFF293F
S315080044E008BF082006D0012200A9FEF75AFD0028B9
S315080044F08FD002208DF800009DF8001016E7000006
S31508004500542400200080FFFF027C1AB90822C273D7
S3150800451001745DE07047A0F141011A293CBF2030C3
S31508004520C0B2704738B50C4694F82450FFF7F3FF2D
S3150800453029194874681C84F8240031BD10B504464E
S31508004540206A017831B162290CBF01210221085C79
S315080045502A2807D1216BE28B01EB02112046496814
S31508004560884706E0042020742046616888470020B2
S3150800457020742046BDE810402AE010B5837B047BF2
S31508004580A34201D105211FE0846844F82310817BEA
S31508004590491C8173016A535C2A2B1CBF511801629E
S315080045A0012010BD10B5026A1278622A01D00421D2
S315080045B00AE000F12002FF24937994710122BDE8F4
S315080045C0104003EB0121D8E7FFF79EFF002010BD3E
S315080045D0F8B5044604F10805A86AE98A00EB011053
S315080045E00027866805E00220815D2A2918BF8619FA
S315080045F07F1CA879FFB287420AD230786228F2D1A6
S31508004600A06850F82700C0B2FEF702FC0120EBE7CD
S315080046100020A871A87FFF2803D0FEF7F9FBFF202A
S31508004620A877F1BD0000000000000000002020204F
S31508004630202000000000000000000000000000002C
S3150800464000000000200030300000000000000030AC
S31508004650003000004041424344454647484900006F
S3150800466000000000005A5B5C5D5E5F1010101010C1
S31508004670101010101010101010101010101010300C
S3150800468000000000005A5B5C5D5E5F0010B540F2FA
S31508004690A17403F0E0FE24FA00F0C0070BD5064C1F
S315080046A0207803F0EFFE207803F076FF2078BDE847
S315080046B0104004F074B810BDE823002010B5DFF8E8
S315080046C034440FF218012078FEF706FB20780FF223
S315080046D01C01BDE81040FEF7FFBA0000286C69749B
S315080046E0746C6520656E6469616E00002C20616CCF
S315080046F06C206461746120726570726573656E748E
S3150800470065642061732062797465206172726179CB
S31508004710290D0A000178A1F130030A2B0AD3A1F169
S315080047204103062B38BF373904D3A1F16102062AA3
S3150800473003D257390907090E00E000214078A0F195
S3150800474030030A2B02D2401830380CE0A0F141039E
S31508004750062B02D24018373805E0A0F16102062A76
S3150800476003D240185738C0B270470809704710B5C9
S3150800477004F01EFB02001AD0DE4C2078042A08BF7B
S315080047800FF22C0108D0062A08BF0FF2700103D0D9
S31508004790072A04D10FF2A801FEF79EFA03E00FF2EA
S315080047A0E801FEF799FA20780FF2101191E710BD8B
S315080047B068616C537461636B496E6974546F6B6599
S315080047C06E73204641494C454420776974682045F4
S315080047D04D4245525F454550524F4D5F4D46475FE6
S315080047E0535441434B5F56455253494F4E5F4D49CB
S315080047F0534D415443480D0A0000000068616C534C
S315080048007461636B496E6974546F6B656E73204689
S3150800481041494C4544207769746820454D424552C4
S315080048205F454550524F4D5F4D46475F564552537B
S31508004830494F4E5F4D49534D415443480D0A0000B8
S3150800484068616C537461636B496E6974546F6B6508
S315080048506E73204641494C45442077697468204563
S315080048604D4245525F454550524F4D5F5354414363
S315080048704B5F56455253494F4E5F4D49534D415430
S3150800488043480D0A0000000068616C537461636B4D
S31508004890496E6974546F6B656E73204641494C4581
S315080048A044207769746820456D6265725374617433
S315080048B075733A2025580D0A00000000546F6B6581
S315080048C06E7320617265207374696C6C2061637401
S315080048D0697665207768656E207573696E672074DA
S315080048E0686973206170706C69636174696F6E2E94
S315080048F00D0A00002DE9F04FC1B080680568FFF782
S31508004900DDFEA8B204F066FC0446A8B204F0C9FAB3
S315080049108046A8B204F02FFD764F8346002C3878DF
S315080049201ABF4FF6FF7188450FF27C212CD023461B
S31508004930AAB20FF21411FEF7CFF900250FF2AC193F
S315080049400FF2AC1A0AE000A9725C38784946FEF7FD
S31508004950C3F9761CF6B2A642F5DB6D1CEDB25D45D1
S3150800496010DABBF1010F234603D17F2200F011F8BC
S3150800497006E02A4600F00DF838785146FEF7ACF9FD
S315080049800026E7E738785146FEF7A6F941B0BDE8B4
S31508004990F08F414600A804F04FBA2DE9F047C0B0A1
S315080049A0806804684768FFF789FEA0B204F012FC25
S315080049B08146A0B204F075FA8046A0B204F0DBFC8A
S315080049C04C4E0546B9F1000F30781ABF4FF6FF7105
S315080049D088450FF2D41132D0A5F1010A15B1FFB2FC
S315080049E0BA450BDA0FF2CC11FEF776F930780FF2EA
S315080049F0FC1153460022FEF76FF922E04B46A2B29D
S31508004A000FF24401FEF768F9012D08BF7F274B46D0
S31508004A103A46FFF7BEFF36A430782146FEF75CF922
S31508004A2000270FF2C80805E000AA4146BA5CFEF75F
S31508004A3053F97F1C3078FFB24F45F5DB2146FEF768
S31508004A404BF940B0BDE8F0875B2532785D282564D0
S31508004A5029203D002DE9F047C2B080680668FFF7B7
S31508004A602DFEB0B204F0B6FB8146B0B204F019FAD6
S31508004A708246B0B204F07FFC0646B9F1000F1CBFAF
S31508004A804FF6FF708245DFF8807D05D138780FF242
S31508004A901811FEF721F928E00FF27418002403E034
S31508004AA0504604F0DAF9641CB4421EDA002513E015
S31508004AB006FB09F0431E387809FB04524146FEF707
S31508004AC00BF93878032200A9FFF70BF900A8FFF7BE
S31508004AD021FE01A968546D1C4D45E9DB012E4B46A4
S31508004AE001AA0CBF7F21E1B2DAE759E02025580078
S31508004AF00D0A0000E82300202DE9F047C2B08068BF
S31508004B0007684468FFF7DAFDB8B204F063FB80462D
S31508004B10B8B204F0C6F98146B8B204F02CFCDFF846
S31508004B20E85C0746B8F1000F28781CBF4FF6FF71FE
S31508004B30894504D10FF27001FEF7CEF830E07E1EEB
S31508004B4017B1E4B2A6420BDA0FF26801FEF7C4F811
S31508004B5028780FF2980133460022FEF7BDF81FE0C9
S31508004B6000260FF2AC0A10E02878A8F101033246B5
S31508004B7000F020FF2878032200A9FFF7B2F800A862
S31508004B80FFF7C8FD01A97054761C4645ECDB012FDA
S31508004B9008BF7F24434601AA2146484604F05DF92A
S31508004BA042B0BDE8F08700006E6F7420666F756EC0
S31508004BB0640D0A004552524F523A20446573697291
S31508004BC0656420696E646578206973206F75742042
S31508004BD06F662072616E676520666F7220746869F9
S31508004BE07320746F6B656E0D0A000000202020206C
S31508004BF020202056616C69642072616E67652069A1
S31508004C007320255820746872752025580D0A0000EF
S31508004C106461746120627974655B2564206F66201F
S31508004C2025645D3A000000002DE9F043FDB0FFF76A
S31508004C3045FDDFF8D44B0FF6E83820784CF24432BD
S31508004C4000F0BBFE20780FF6E031FFF770F8DFF8CA
S31508004C50BC0B01880FF2883918237F221DA804F09F
S31508004C60EBF800271DA849463A5C00F0E0FE7F1CD9
S31508004C70182FF7D3DBA700F08CFE20784FF26402DA
S31508004C8000F09BFE20780FF6B031FFF750F8DFF8FA
S31508004C90800B0188062300F065FE002500F0C4FE9F
S31508004CA06D1C062DFAD300F074FE20784FF264428C
S31508004CB000F083FE20780FF69031FFF738F8DFF81A
S31508004CC0540B018806237F2212A804F0B5F80025A4
S31508004CD012A800F0AAFE6D1C062DF9D300F059FEA5
S31508004CE020784EF2455200F068FE20780FF66831BB
S31508004CF0FFF71DF8DFF8200B00F032FE002500F064
S31508004D0093FE6D1C082DFAD300F043FE20784FF26F
S31508004D106E4200F052FE20780FF65031FFF707F882
S31508004D20DFF8F80A018814237F2214A804F084F80F
S31508004D30002514A800F079FE6D1C142DF9D300F097
S31508004D4028FE20784FF2424200F037FE20780FF610
S31508004D503431FEF7ECFFDFF8440C00F0F5FD0025D2
S31508004D6008A800F062FE6D1C142DF9D300F011FEA0
S31508004D7020784FF2624200F020FE20780FF61C31B0
S31508004D80FEF7D5FFDFF8180C01880A237F220EA844
S31508004D9004F052F800250EA800F047FE6D1C0A2DF7
S31508004DA0F9D300F0F6FD20784FF2742200F005FEE4
S31508004DB020780FF60031FEF7BAFF0125DFF8E40B7D
S31508004DC000F0DBFD00F0DFFD9DF8012000F0DDFDC1
S31508004DD06D1EF3D100F0DDFD20784FF2762200F04B
S31508004DE0ECFD20780FF6DC21FEF7A1FF0125DFF8A0
S31508004DF0B80B00F0BBFD9DF8022000F0C6FD9DF83B
S31508004E00032000F0C2FD6D1EF1D100F0C2FD20782E
S31508004E104FF2766200F0D1FD20780FF6BC21FEF73E
S31508004E2086FF0125DFF8840B00F0A7FD00F0ABFD37
S31508004E309DF8012000F0A9FD6D1EF3D100F0A9FD33
S31508004E4020784FF2634200F0B8FD20780FF69C21D7
S31508004E50FEF76DFF0125DFF8580B00F087FD9DF87A
S31508004E60022000F092FD9DF8032000F08EFD6D1ED5
S31508004E70F1D100F08EFD20784FF2744200F09DFDCE
S31508004E8020780FF67821FEF752FF0125DFF8300B60
S31508004E9000F073FD00F077FD9DF8012000F075FD28
S31508004EA06D1EF3D100F075FD20784FF6097200F0FB
S31508004EB084FD20780FF65421FEF739FF0125DFF827
S31508004EC0040B00F053FD9DF8022000F05EFD9DF8EE
S31508004ED0032000F05AFD6D1EF1D100F05AFD20782E
S31508004EE04EF2636200F069FD20780FF63021FEF776
S31508004EF01EFF0125DFF8D00A00F03FFD00F043FD54
S31508004F009DF8012000F041FD6D1EF3D100F041FD32
S31508004F1020784EF26F6200F050FD20780FF61021CF
S31508004F20FEF705FFDFF8A40A00F01AFD00F07CFD85
S31508004F306D1C082DFAD300F02CFD20784EF26F3246
S31508004F4000F03BFD20780FF6F411FEF7F0FEDFF8CF
S31508004F50800A00F0FFFC002504A800F066FD6D1C21
S31508004F60102DF9D300F015FD20784CF2563200F0DA
S31508004F7024FD20780FF6BC21FEF7D9FE0125DFF8BF
S31508004F80540A00F0FAFC00F0FEFC9DF8012000F03F
S31508004F90FCFC6D1EF3D100F0FCFC20784EF2453285
S31508004FA000F00BFD20780FF6A021FEF7C0FEDFF813
S31508004FB0280A00F0D5FC00F037FD6D1C082DFAD341
S31508004FC000F0E7FC20784EF6735200F0F6FC2078E5
S31508004FD00FF68821FEF7ABFEDFF8000A04E000BFF3
S31508004FE0202558000D0A000000F0B4FC002504A88E
S31508004FF000F01BFD6D1C102DF9D300F0CAFC2078BB
S315080050004CF24E2200F0D9FC20780FF65C21FEF710
S315080050108EFEDFF8CC09018810237F2219A803F039
S315080050200BFF002519A800F000FD6D1C102DF9D303
S3150800503000F0AFFC20784CF6441200F0BEFC207855
S315080050400FF63421FEF773FE0125DFF8980900F004
S3150800505094FC00F098FC9DF8012000F096FC6D1E6B
S31508005060F3D100F096FC20784DF2430200F0A5FC3F
S3150800507020780FF61421FEF75AFE0125DFF8680995
S3150800508000F074FC9DF8022000F07FFC9DF80320D8
S3150800509000F07BFC6D1EF1D100F07BFC20784CF211
S315080050A04B2200F08AFC20780FF6EC11FEF73FFE43
S315080050B0DFF8380900F04EFC04A800F0B6FC6D1CB9
S315080050C0102DF9D300F065FC20784CF6535200F009
S315080050D074FC20780FF6D811FEF729FEDFF81009C0
S315080050E000F03EFC002500F09FFC6D1C082DFAD34D
S315080050F000F04FFC20784CF2431200F05EFC20785A
S315080051000FF6C011FEF713FE0025DFF8E808018840
S315080051100223EAB2FFF73EFC00F035FC9DF80120B9
S3150800512000F033FC6D1C142DEFDB00F032FC207808
S315080051304CF2423200F041FC20780FF69811FEF747
S31508005140F6FDDFF8B40801885C237F2266A803F021
S3150800515073FE002566A800F068FC6D1C5C2DF9D36B
S3150800516000F017FC20784CF6431200F026FC207855
S315080051700FF67011FEF7DBFDDFF8800800F0E4FBA0
S31508005180002508A800F051FC6D1C142DF9D300F079
S3150800519000FC20784BF2542200F00FFC20780FF622
S315080051A05C11FEF7C4FD0125DFF8540800F0E5FBA5
S315080051B000F0E9FB9DF8012000F0E7FB6D1EF3D136
S315080051C000F0E7FB20784DF2463200F0F6FB207837
S315080051D00FF64011FEF7ABFD0125DFF8280800F0B1
S315080051E0C5FB9DF8022000F0D0FB9DF8032000F0D7
S315080051F0CCFB6D1EF1D100F0CCFB20784BF253228C
S3150800520000F0DBFB20780FF62411FEF790FD012550
S31508005210DFF8F40700F0B1FB00F0B5FB9DF80120BC
S3150800522000F0B3FB6D1EF3D100F0B3FB20784DF20E
S31508005230433200F0C2FB20780FF60811FEF777FD1F
S315080052400125DFF8C80700F091FB9DF8022000F061
S315080052509CFB9DF8032000F098FB6D1EF1D100F031
S3150800526098FB20784CF2433200F0A7FB20780FF623
S31508005270E801FEF75CFD0125DFF8940700F07DFBE9
S3150800528000F081FB9DF8012000F07FFB6D1EF3D135
S3150800529000F07FFB20784DF2423200F08EFB20783A
S315080052A00FF6C801FEF743FDDFF8680700F052FB6A
S315080052B004A800F0BAFB6D1C102DF9D300F069FBA9
S315080052C020784CF2545200F078FB20780FF6B8019B
S315080052D0FEF72DFDDFF840070188062300F042FBA4
S315080052E0002500F0A1FB6D1C062DFAD300F051FB3A
S315080052F020784CF2453200F060FB20780FF6A001CA
S31508005300FEF715FDDFF81407018894237F2241A8CC
S3150800531003F092FD002541A800F087FB6D1C942D33
S31508005320F9D300F036FB20784DF6540200F045FB21
S3150800533020780FF68001FEF7FAFC0125DFF8E00673
S3150800534000F01BFB00F01FFB9DF8012000F01DFB81
S315080053506D1EF3D100F01DFB20784BF2346200F08D
S315080053602CFB20780FF65801FEF7E1FCDFF8B406AF
S3150800537000F0F6FA00F058FB6D1C082DFAD300F081
S3150800538008FB20784FF6017200F017FB20780FF61D
S315080053903C01FEF7CCFC012502237F220021FFF702
S315080053A0F9FA00F0F0FA9DF8012000F0EEFA6D1E09
S315080053B0F2D100F0EEFA20784EF2231200F0FDFA50
S315080053C020780FF62001FEF7B2FC04237F22012184
S315080053D003A803F031FD03A800F027FB6D1C042D7C
S315080053E0F9D300F0D6FA20784EF2754200F0E5FAC5
S315080053F020780FF60801FEF79AFC11237F22022176
S3150800540000F0A5FA002508A800F00FFB6D1C112D69
S31508005410F9D300F0BEFA20784EF2632200F0CDFAF6
S3150800542020780FF2EC71FEF782FC04237F22032119
S3150800543003A803F001FD002503A800F0F6FA6D1C89
S31508005440042DF9D300F0A5FA20784EF2635200F045
S31508005450B4FA20780FF2CC71FEF769FC04237F2298
S31508005460042111A803F0E8FC002511A800F0DDFAD4
S315080054706D1C042DF9D300F08CFA20784EF26212D6
S3150800548000F09BFA20780FF2B071FEF750FC012568
S3150800549002237F220521FFF77DFA00F074FA9DF8B2
S315080054A0012000F072FA6D1EF2D100F072FA20782F
S315080054B04EF6793200F081FA20780FF29471FEF7F1
S315080054C036FC11237F22062100F041FA08A800F0D5
S315080054D0ACFA6D1C112DF9D300F05BFA20784EF664
S315080054E0646200F06AFA20780FF27071FEF71FFC0A
S315080054F010237F22072104A803F09EFC002504A898
S3150800550000F093FA6D1C102DF9D300F042FA2078BA
S315080055104EF2241200F051FA20780FF25071FEF77D
S3150800552006FC1A237F2208213AA803F085FC0025E9
S315080055303AA800F07AFA6D1C1A2DF9D300F029FA68
S3150800554020784EF2251200F038FA20780FF23071E2
S31508005550FEF7EDFB08237F22092101A803F06CFC66
S31508005560002500F061FA6D1C082DFAD300F011FA37
S3150800557020784EF2261200F020FA20780FF21C71DD
S31508005580FEF7D5FB0A237F220A210EA803F054FC56
S3150800559000250EA800F049FA6D1C0A2DF9D300F073
S315080055A0F8F920784EF2271200F007FA20780FF261
S315080055B00071FEF7BCFB012502237F220B21FFF7B2
S315080055C0E9F900F0E0F99DF8012000F0DEF96D1E1A
S315080055D0F2D100F0DEF920784DF2452200F0EDF91F
S315080055E020780FF2EC61FEF7A2FB0423EAB20C2145
S315080055F003A803F021FC002603A84946325C00F004
S3150800560016FA761C042EF7D36D1C102DEDDB00F070
S31508005610C0F920784EF2742200F0CFF920780FF204
S31508005620C061FEF784FB00F0B4F920784FF60D72DE
S3150800563000F0C3F920780FF2BC61FEF778FB00256D
S315080056400B23EAB20E210EA803F0F6FB00260EA8DD
S315080056504946325C00F0EBF9761C0B2EF7D36D1C2D
S31508005660062DEDDB00F095F920784EF2564200F053
S31508005670A4F920780FF29061FEF759FB00F089F93A
S3150800568020784FF4654200F098F920780FF2886187
S31508005690FEF74DFB00F07DF920784EF2035200F03C
S315080056A08CF920780FF28861FEF741FB002501236B
S315080056B0EAB211210DA803F0BFFB9DF8342000F0D3
S315080056C064F96D1C062DF2DB00F063F920784EF2C2
S315080056D0015200F072F920780FF27061FEF727FB8D
S315080056E010237F22122104A803F0A6FB002504A894
S315080056F000F09BF96D1C102DF9D300F04AF92078BB
S315080057004EF2025200F059F920780FF25061FEF776
S315080057100EFB28237F22132130A803F08DFB0025DA
S3150800572030A800F082F96D1C282DF9D300F031F964
S3150800573020784EF2502200F040F920780FF23061BE
S31508005740FEF7F5FA12237F22142100F000F900254E
S3150800575008A800F06AF96D1C122DF9D300F019F9A2
S3150800576020784EF2512200F028F920780FF21461C1
S31508005770FEF7DDFA00F00DF920784EF2582200F017
S315080057801CF920780FF21861FEF7D1FA12237F224E
S31508005790162114A803F050FB002514A800F045F9BB
S315080057A06D1C122DF9D300F0F4F820784EF2592228
S315080057B000F003F920780FF2F851FEF7B8FA002541
S315080057C03423EAB2172123A803F036FB002623A8C0
S315080057D04946325C00F02BF9761C342EF7D36D1C43
S315080057E0052DEDDB00F0D5F820784EF25A2200F0B0
S315080057F0E4F820780FF2D051FEF799FA00F0C9F8CC
S315080058007DB0BDE8F0830000E8230020F42B0108F2
S31508005810F62B0108F82B0108FA2B0108FC2B0108C6
S315080058205B2532585D2000004D46475F4348495086
S315080058305F444154410000004D46475F5041525471
S315080058405F444154410000004D46475F5445535458
S3150800585045525F44415441004D46475F454D4245D8
S31508005860525F4555495F3634000000004D46475F94
S31508005870414E414C4F475F5452494D5F4E4F524D32
S31508005880414C00004D46475F414E414C4F475F54DF
S3150800589052494D5F424F4F53540000004D46475FF3
S315080058A0414E414C4F475F5452494D5F424F544811
S315080058B0000000004D46475F5245475F5452494D28
S315080058C0000000004D46475F3156385F5245475F36
S315080058D0564F4C54414745004D46475F565245463C
S315080058E05F564F4C54414745000000004D46475F00
S315080058F054454D505F43414C000000004D46475FFC
S31508005900544553545F54454D500000004D46475F7B
S315080059104649425F56455253494F4E004D46475FEA
S315080059204649425F434845434B53554D00000000E6
S315080059304D46475F4649425F4F4253004D46475FD3
S315080059404349425F4F425300018814237F2208A827
S3150800595003F072BA018810237F2204A803F06CBAF8
S31508005960018808237F2201A803F066BA018802236A
S315080059707F220DF1020003F05FBA018802237F221D
S3150800598000A803F059BA9DF8002020784946FDF78B
S31508005990A3B920783946FDF79FB90000FE2B010808
S315080059A0002C0108022C0108042C0108062C010809
S315080059B0082C01085146FDF78FB94146FDF78CB909
S315080059C00A2C01080C2C01080E2C0108102C0108C1
S315080059D0122C0108142C0108162C0108182C010891
S315080059E01A2C01081C2C01081E2C0108202C010861
S315080059F0222C0108242C0108262C0108282C010831
S31508005A002A2C01082C2C01082E2C0108302C010800
S31508005A10322C0108342C0108362C0108382C0108D0
S31508005A203A2C01083C2C010801A849462A5C207832
S31508005A30FDF752B94D46475F435553544F4D5F5690
S31508005A40455253494F4E00004D46475F4355535400
S31508005A504F4D5F4555495F36340000004D46475F58
S31508005A60535452494E4700004D46475F424F4152F4
S31508005A70445F4E414D4500004D46475F4D414E55EA
S31508005A80465F4944000000004D46475F5048595F4D
S31508005A90434F4E46494700004D46475F424F4F54D5
S31508005AA04C4F41445F4145535F4B45590000000048
S31508005AB04D46475F455A53505F53544F52414745E9
S31508005AC0000000004D46475F4153485F434F4E462E
S31508005AD0494700004D46475F43424B455F444154A2
S31508005AE0410000004D46475F494E5354414C4C41D6
S31508005AF054494F4E5F434F44450000004D46475FAB
S31508005B004F534332344D5F424941535F5452494DD6
S31508005B10000000004D46475F53594E54485F4652B1
S31508005B2045515F4F46465345540000004D46475F72
S31508005B304F534332344D5F534554544C455F4445A7
S31508005B404C4159004D46475F5345435552495459B0
S31508005B505F434F4E464947004D46475F4343415FC3
S31508005B605448524553484F4C440000004D46475F41
S31508005B705345435552455F424F4F544C4F41444558
S31508005B80525F4B45590000004D46475F455448450E
S31508005B90524E45545F414444524553530000000059
S31508005BA04D46475F43424B455F3238334B315F447E
S31508005BB0415441004D46475F584F5F54554E450086
S31508005BC04D46475F4555495F3634000053544143B7
S31508005BD04B5F4E56444154415F56455253494F4ECA
S31508005BE000000000535441434B5F4150535F4652F7
S31508005BF0414D455F434F554E54455200535441431A
S31508005C004B5F414C5445524E4154455F4B455900F4
S31508005C10535441434B5F424F4F545F434F554E5485
S31508005C2045520000535441434B5F4E4F4E43455F28
S31508005C30434F554E54455200535441434B5F414ED2
S31508005C40414C595349535F5245424F4F5400000047
S31508005C50535441434B5F4B455953000053544143FA
S31508005C604B5F4E4F44455F444154410053544143B2
S31508005C704B5F54525553545F43454E5445520000AA
S31508005C80535441434B5F4E4554574F524B5F4D411A
S31508005C904E4147454D454E5400000000535441437C
S31508005CA04B5F504152454E545F494E464F000000E7
S31508005CB0535441434B5F504152454E545F4144440F
S31508005CC04954494F4E414C5F494E464F000000002B
S31508005CD0535441434B5F43414C5F44415441000098
S31508005CE0535441434B5F42494E44494E475F5441E2
S31508005CF0424C4500535441434B5F4348494C445F2B
S31508005D005441424C45000000535441434B5F4B45B8
S31508005D10595F5441424C4500535441434B5F4345F8
S31508005D205254494649434154455F5441424C450003
S31508005D30535441434B5F4144444954494F4E414CA7
S31508005D405F4348494C445F444154410053544143DE
S31508005D504B5F5A4C4C5F44415441000053544143F5
S31508005D604B5F5A4C4C5F53454355524954590000B2
S31508005D70535441434B5F52463443455F4441544173
S31508005D8000000000535441434B5F52463443455F7D
S31508005D9050414952494E475F5441424C4500000024
S31508005DA0535441434B5F47505F4441544100000000
S31508005DB0535441434B5F47505F50524F58595F54B5
S31508005DC041424C4500000000535441434B5F475045
S31508005DD05F53494E4B5F5441424C450021210FF217
S31508005DE02C00FEF78FB810B501F094F9044601F0BF
S31508005DF08BF90246234604480FF220010078BDE8D5
S31508005E001040FCF769BF0000E8230020726573653F
S31508005E10742D746573742E63000000005245534553
S31508005E20543A25702D25700D0A00000010B5044659
S31508005E30002003F095FE002003F0A6FE01F0C8FA44
S31508005E40012003F06EFD03F068FD10F0060018BF90
S31508005E50012004F00AF8204604F002FC2046BDE8BA
S31508005E60104000F095BC80B5022100F0D9F80098E2
S31508005E7004F0F6FC01BD8068006800B10120DFF877
S31508005E80B8120FF2D022087008780028DFF8AC02A2
S31508005E90D0F870130FF2B02014BF0FF2C8230FF218
S31508005EA0CC23FDF7DFBB80B503F035FE012808BF1C
S31508005EB00FF2C42305D000280CBF0FF2C4230FF23B
S31508005EC0C823DFF878020FF2F022D0F8B0130FF2E9
S31508005ED0C820BDE80050FDF7C5BB38B50446A06824
S31508005EE00568DFF85802D0F8C0130FF2D820FDF77E
S31508005EF0B9FBEDB215B1012D07D00CE00FF2CC209D
S31508005F00FDF7B0FB03F098FD05E00FF2D420FDF78E
S31508005F10A9FB03F0CEFD0FF2D820FDF7A3FB204620
S31508005F20BDE83240BFE7F8B504F0E3FE054604F0E5
S31508005F309EFE0446284603F071FF0646DFF8FC017C
S31508005F400FF2CC22D0F880130FF2AC202B46FDF7C7
S31508005F5089FBAE420FF2C02705D032460FF2C021A8
S31508005F603846FDF77FFB14F1010F0FF2BC200FF244
S31508005F70C02108BF0FF2C0220DD014B90FF2C022FB
S31508005F8009E0DFF8BC01B4FBF0F200FB124028B9C7
S31508005F900FF2C0213846FDF765FB11E04FF47A7120
S31508005FA0DFF8A0010078B4FBF1F201FB12410029E9
S31508005FB00EBF0FF2A82122460FF2B021FCF78CFE85
S31508005FC0BDE8F24059A0FDF74DBB38B5044603F0CD
S31508005FD0A2FD05005948D0F890130FF2A02018BF6B
S31508005FE00125FDF73FFB03F064FDA0680068C0B219
S31508005FF004F077FE02460FF298110FF2B420FDF76F
S3150800600031FB0DB103F018FD2046BDE832408AE7A2
S31508006010FFE700F111010FF2A020FDF723BB0121D4
S3150800602000A805F071B938B5044603F074FD0500FB
S3150800603018BF012503F03DFD502001F077FD03F060
S3150800604044FE03463AA204F111010FF28420FDF73B
S3150800605009FB002D1CBFBDE8314003F0EDBC31BD86
S315080060602DE9F84F0646894615464FF07F0A6FF028
S315080060707F0B4FF0000803F04EFD040018BF012403
S3150800608003F04CFD002E8DF8000008D101260020F3
S3150800609003F047FD502001F049FD37460FE0F6D5DD
S315080060A07642F4E7802001F041FD03F04CFD83457C
S315080060B0B8BF83465045D8BF824680447F1E012F0D
S315080060C0F0DA9DF8000003F02CFD0CB103F0B4FCE7
S315080060D0B9F1000F18BF89F800A015B198FBF6F0C2
S315080060E028705846BDE8F28F10B500F01AF804F18A
S315080060F01101BDE8104003460FF2F4120FF2DC104E
S31508006100FDF7B0BA10B500F00CF803F013FA04F175
S315080061101101BDE81040034606A20FF2DC10FDF798
S31508006120A1BA044600220021012099E77D0D0A0044
S31508006130434341004544000025240020141C01085F
S3150800614040420F00E82300207B264E202674737DEC
S315080061500D0A00005045522054657374204D6F6433
S3150800616065000000656E61626C6564006469736150
S31508006170626C65640000000061736C656570000000
S315080061806177616B65000000656E6572677900006E
S3150800619073746174757300007B264E2052616469BE
S315080061A06F20706F7765722073746174652026742A
S315080061B0737D0D0A00000000706F77657220737496
S315080061C0617465007B264E2000000000536C6565EF
S315080061D070696E6720726164696F2E2E2E0000004A
S315080061E057616B696E6720726164696F2E2E2E0087
S315080061F0646F6E657D0D0A007B264E2052616469C8
S315080062006F206368616E6E656C20267468000000F6
S315080062106368616E6E656C00202674750000000068
S315080062205074694368616E0020267470000000008F
S315080062306672657100000000696C6C6567616C00C8
S3150800624050657252616D526164696F436F6E66691B
S3150800625067000000667265714D487A00207B667299
S3150800626065714B487A3A256C7D000000207B667282
S315080062706571487A3A256C7D000000007B264E2021
S3150800628053657474696E67206368616E6E656C2009
S31508006290616E642063616C6962726174696E6720FD
S315080062A0286173206E6565646564292E2E2E0000AC
S315080062B02674687D0D0A00007B264E206E6F7420BA
S315080062C0696D706C656D656E7465647D0D0A000098
S315080062D07B264E202674647D0D0A00007B264E2000
S315080062E0267464205B64426D5D7D0D0A0000000023
S315080062F052535349000000007B264E202674642022
S315080063005B3830322E31352E3420756E6974735DE4
S315080063107D0D0A00DFF89414DFF894340A785A7071
S31508006320486003F033B92DE9F843DFF88444DFF811
S3150800633084740FF2B4490D466169491C16466161B9
S31508006340804640B1402814D0892820D08D2817D0FF
S315080063508F2807D01DE06068401C6060387B10B34A
S315080063609E211DE0E068401CE060387BD8B1A22180
S3150800637016E02069401C2061387BA0B1AD210FE0F2
S31508006380A068401CA060387B68B1B12108E0BB2139
S3150800639006E042460FF268410120FDF76AFDC12179
S315080063A04846FDF7AFFDB8F1400F267025620BD1C0
S315080063B06078401E6070C0B230B16088401C608052
S315080063C0BDE8F14305F0EBB801203873BDE8F18369
S315080063D080B504F091FC0346DFF8DC030FF2604257
S315080063E0D0F860140FF24C40BDE80050FDF73AB9FA
S315080063F030B5044683B0A068056868B204F080FC2E
S3150800640001906BB20FF264400FF250420090DFF831
S31508006410A803D0F870140FF23440FDF723F98BA0C7
S31508006420FDF720F92046BDE83E40D1E700B5DFF884
S3150800643084130FF25442CB890FF2644183B0009162
S31508006440019300F111010FF22C40FDF70BF907BD7E
S315080064508168DFF860230968D181E7E72DE9FE4FF7
S3150800646000218DF808100124806800880090401EDD
S315080064708041C00F019003F04EFB5FEA00090098C7
S31508006480DFF83073DFF8346318BFA14601284FF0F0
S3150800649000081BD030780FF22041FCF71DFC30783D
S315080064A0019921B10FF21841FCF716FC03E0009A96
S315080064B067A1FCF711FCFA8930780FF21041FCF756
S315080064C00BFC30780FF21431FCF706FCDFF8F0A26B
S315080064D00025019818B90098ADB285423DDA3078A2
S315080064E06D1C02A9FDF744FB9DF80800652834D009
S315080064F0DFF8D002007820B104F06FFF08B105F08C
S31508006500D1F8F88901F012FBDFF8BC02007860B117
S315080065109AF80000504400F8034CA4B29AF8001008
S315080065205144200A01F8020C641C002038735046B6
S31508006530FFF7F0FE5FEA00080FD101F061FB834622
S31508006540387B0028C5D101F05BFBA0EB0B0080B2BD
S31508006550B0F57A7FF4D94FF0010830780FF284311C
S31508006560AAB2FCF7B9FB30780FF294314246FCF731
S31508006570B3FBDFF858020FF2A43102883078FCF733
S31508006580ABFB30780FF2B431FCF7A6FBDFF82042FC
S3150800659030782178002914BF0FF2BC310FF2C031D0
S315080065A0FCF79AFB03F0ABFB28B1E26930780FF2EF
S315080065B0B831FCF791FB226A30780FF2D831FCF734
S315080065C08BFB642001F0B2FAB9F1000F18BF03F093
S315080065D033FABDE8F78F10B58068006800B101206E
S315080065E0C0B200F0BEFDDFF8D44100F0A1FD70B1E5
S315080065F004F00DFF002820780FF2C831BDE81040DE
S3150800660014BF0FF2E8320FF2EC32FCF765BB2078C4
S315080066100FF2E831BDE81040FCF75EBB70B50446E2
S3150800662000F086FD48B1DFF8A8516E780120687041
S315080066302046FFF713FF6E7070BDBDE87040DFF8A7
S315080066407C010FF2D4310078FCF746BB0D0A000036
S315080066502575000038B500F039F800F030F818BF95
S315080066600124FCF739FB03F024FA03F0E5FA01E00C
S3150800667000F007F89DF800006528F9D103F0E4FA60
S3150800668019E0287800A9FDF773BA38B500F01EF8A6
S3150800669000F015F818BF0124FCF71EFB03F009FAF1
S315080066A003F0DCFA01E0FFF7ECFF9DF8000065282F
S315080066B0F9D103F0F4FA0CB103F0BEF931BD0400C8
S315080066C0DFF8F8500FF214112878704700208DF87B
S315080066D0000003F020BA2DE9F041DFF8E0400FF2A0
S315080066E06C312078FCF7F8FA0FF270360FF264383E
S315080066F0DFF8CC70002515E0EA5D20784146FCF706
S31508006700EBFA681005EB90708010B5EB800007D1A6
S315080067103878854204DA20782A463146FCF7DCFACE
S315080067206D1CEDB23878401C8542E5DBBDE8F0818A
S31508006730806823490068087070472DE9F8430446C5
S315080067400025A0681D4E07680FF21C39DFF8708017
S31508006750781CC7B2802F06DAA06800EB850040686F
S3150800676007F8080005E030786B1C7A1E4946FCF7E6
S31508006770B3FA6D1C042DEBDBBDE8F1831048142138
S31508006780017001214A1E0A54491C8029FAD3704710
S31508006790104A07480021116041608160C1600161AB
S315080067A04161816141800C4A116070472C240020A8
S315080067B02427002034240020141C0108E823002084
S315080067C03C2F00202624002025240020DC2D002034
S315080067D044240020E02D0020E82D00202765276EA0
S315080067E0642E2E2E000000007068792D636F6D6D83
S315080067F06F6E2D74782D746573742E630000000017
S31508006800656D626572526164696F5472616E736D0B
S315080068106974436F6D706C65746549737243616C16
S315080068206C6261636B207374617475733A20307897
S31508006830257800007B264E2026746464426D7D0010
S3150800684061637475616C506F776572007B264E20A4
S3150800685026746464426D202674647D0072657175C1
S315080068606573746564506F7765720000737461743C
S31508006870757300007B264E20267464757320267473
S31508006880327875737D0000007472616E736D697479
S315080068902064656C6179202864656329000000001E
S315080068A07472616E736D69742064656C61792028F1
S315080068B068657829000000005478696E6720000032
S315080068C0696E66696E697465000000002070616310
S315080068D06B657473202575207573206170617274F9
S315080068E02E2000000D0A2575207061636B65747390
S315080068F0207472616E736D69747465642E0D0A0076
S315080069004C617374207061636B6574207374617471
S3150800691075733A2030782532780D0A004C61737405
S31508006920207061636B6574206261636B6F66663A9B
S315080069302030782532780D0A000000004672616D15
S31508006940652070656E64696E6720696E206C617378
S31508006950742041434B3A20005965732E0D0A0000F6
S315080069604E6F2E0D0A0000005346442074696D656B
S315080069702028766961205346442073656E74206327
S31508006980616C6C6261636B293A2030782532780D28
S315080069900A0000005346442074696D65202876690C
S315080069A06120545820636F6D706C6574652063614F
S315080069B06C6C6261636B293A2030782532780D0A4F
S315080069C000000000526164696F20486F6C644F666E
S315080069D06620656E61626C65642C20726164696FFD
S315080069E02069732025700D0A0000000068656C6434
S315080069F00000000066726565000000005261646967
S31508006A006F20486F6C644F66662064697361626CB8
S31508006A1065640D0A00000000526164696F20486FC2
S31508006A206C644F6666206973206E6F7420656E61AC
S31508006A30626C65643B207573652022736574486FC4
S31508006A406C644F66662031222E0D0A00206C656E36
S31508006A503A20000030782578200000000D0A3078AA
S31508006A6025783A20000000007061796C6F61642017
S31508006A706279746520696E6465783A2025642069B0
S31508006A8073206F7574206F662072616E67652E209D
S31508006A90617267756D656E742025642069676E6F0F
S31508006AA07265642E0D0A00002DE9F04184B000F0ED
S31508006AB019FC00210FF22C2400AD54F8212092680D
S31508006AC000F04AF8F9DB00F013FC0027DFF86462EF
S31508006AD00FF2642800F045F87F1C032FFADB00F05C
S31508006AE001FC002154F82120D26800F035F8F9DBC2
S31508006AF000F0FEFB0FF25828002700F032F87F1C42
S31508006B00032FFADB00F0EEFB002154F8212053682E
S31508006B10126842EA034200F01FF8F6DB00F0E8FBD1
S31508006B2000240FF2442755F82430307804F1410246
S31508006B303946FCF7D1F8641C032CF4DB3078DFF80F
S31508006B40F011096889064CBF0FF238210FF244216B
S31508006B50FCF7C2F8BDE8FF8145F82120491C032946
S31508006B60704755F82730307807F141024146FCF75F
S31508006B70B3B8806801784368A02905DB01F00700EF
S31508006B800122090902FA00F30A29DFF8A8010078A8
S31508006B90A4BF0A39C9B203290BDA0FF2481252F810
S31508006BA02120DBB2136101F141020FF2F811FCF763
S31508006BB093B81FE0806801784368A02905DB01F0D7
S31508006BC007000122090902FA00F30A29DFF864011D
S31508006BD00078A4BF0A39C9B203290BDA0FF20412E6
S31508006BE052F82120DBB2536101F141020FF2EC1198
S31508006BF0FCF772B843220FF2C411FCF76DB870B5F2
S31508006C008068017803790124A0294FF0FF3206DB5A
S31508006C1001F00702090913B104FA02F3DBB20A29E3
S31508006C20DFF810010078A4BF0A39C9B2032916DAB9
S31508006C300FF2B00555F821500C35160006D42E680B
S31508006C4004FA02F2D24332401343DBB22B6001F15D
S31508006C504102BDE870400FF29C11FCF73DB8BDE853
S31508006C607040C7E7F8B5806801784368DFF8C40064
S31508006C700078A0294FF0FF350CDB01F0070509095C
S31508006C80102B05D3BDE8F4400FF28011FCF724B8A9
S31508006C90AA0093400A29A4BF0A39C9B203291EDAF1
S31508006CA00FF2400252F82140221D2E000AD426680F
S31508006CB0176846EA07460F27AD0007FA05F526EADC
S31508006CC005052B439DB225601C0C146001B0BDE878
S31508006CD0F04001F141020FF29001FBF7FDBFBDE85C
S31508006CE0F84087E700B0004000B4004000B8004014
S31508006CF00146104889680E4A09680078C9B2002911
S31508006D0011680AD041F0200111601168890654BF44
S31508006D100FF220110FF20C1104E021F0200111608E
S31508006D200FF22811FBF7D8BF0FF2301004F02DBD73
S31508006D3000BC0040E82300204750494F5F502563B8
S31508006D40494E20202020203D20307825580D0A0065
S31508006D504750494F5F5025634F5554202020203D0A
S31508006D6020307825580D0A004750494F5F50256353
S31508006D70434647482F4C203D2030782534580D0A85
S31508006D800000000053574A2044697361626C6564C9
S31508006D900D0A000053574A20456E61626C65640D02
S31508006DA00A0000004750494F5F5025635345542059
S31508006DB03D20307825580D0A0000000054686520EB
S31508006DC06F6E6C79206C6567616C20706F72747376
S31508006DD02061726520412D25630D0A004750494FF1
S31508006DE05F502563434C52203D20307825580D0AC4
S31508006DF0000000004750494F5F5025634F55542007
S31508006E003D20307825580D0A00000000436F6E6655
S31508006E1069672073686F756C6420626520302D443D
S31508006E200D0A000044697361626C696E67205357E6
S31508006E304A0D0A0043616E6E6F742064697361625D
S31508006E406C652053574A0D0A00000000456E6162C2
S31508006E506C696E672053574A0D0A00003C2A0020C9
S31508006E6025090108000000000000000038B50120CF
S31508006E7000F021FC002000F0F1FDDFF8B4432068A3
S31508006E8040F008002060FCF762FC00F0D7FDDFF850
S31508006E90A413DFF8A4030A78C2604B78DFF89C23B2
S31508006EA0D3608D78DFF89833DD600D8905604D89EC
S31508006EB0456088891060C8895060088A1860488AC1
S31508006EC0586000F0A0F8206820F01000206004F058
S31508006ED0E6FC04F0D9FD00F085FCFCF736FCBDE8BD
S31508006EE03140FCF752BC10B5FCF7A1FC01F02CF9B7
S31508006EF0DFF84013DFF840030A79C2604B79DFF800
S31508006F003C23D3608C79DFF83833DC608C8A0460E4
S31508006F10CC8A4460088B1060488B5060888B186058
S31508006F20C88B586010BD10B500F09DFB00F086FDBB
S31508006F3000F011F800F008F800F09AFC01F00DF9DD
S31508006F40BDE81040FCF78FBCB948016821F0100174
S31508006F50016004F0A4BCB749B7480A78C2604B7808
S31508006F60B64AD3608C78B64BDC600C8904604C89D1
S31508006F70446088891060C8895060088A1860488A01
S31508006F80586040E0F0B50B68AF4C0F256468960072
S31508006F9005FA06F6344215D0002606EB820724FACF
S31508006FA007F7FF070BD5B70005FA07FC23EA0C031A
S31508006FB030F812C005FA07F707EA0C073B43761CB8
S31508006FC0042EEADB0B60F0BDF0B50B689E4CFF257E
S31508006FD06468D600B5402C4213D00025012605EB7F
S31508006FE0C20724FA07F7FF0708D506FA05F7BB43D1
S31508006FF0175C06FA05FC0CEA07073B436D1C082DCF
S31508007000EDDB0B60F0BD10B58F48017801F0FD018E
S315080070100170C90703D58D4A4FF4004111604068D5
S31508007020002827D000F069F8201DFFF7CDFF0122C0
S315080070308749201DFFF7C8FF02228649201DFFF752
S31508007040C3FF00227C4900F016F801227D4900F0B2
S3150800705012F80222794900F00EF803227E4900F060
S315080070600AF80422764900F006F804F11400BDE88F
S31508007070104046E010BD04F1140083E738B5724CA1
S31508007080207840F002002070C00707D56F484FF4FB
S315080070900045056000F051F87048056060680028F2
S315080070A027D000F02AF82046FFF78EFF012268490C
S315080070B02046FFF789FF022266492046FFF784FF2C
S315080070C000225D4900F016F801225E4900F012F828
S315080070D002225A4900F00EF803225F4900F00AF826
S315080070E00422574900F006F804F10800BDE83840C4
S315080070F007E031BD04F1080044E74E4C5849002228
S315080071007047052257493DE780B501F0A4F90FF20B
S315080071107C1109E080B501F0A2F90FF29C11020476
S31508007120120E51F82210C0B201EB800002BD000019
S315080071304548007800F00100704743494A480978F5
S31508007140C9070BD54FF40041C160082101604748C3
S315080071500068800900F0010004F05CB908210160AC
S3150800716070472DE9F041DFF8E0803F4F054698F873
S31508007170000000F0010129434FF4004406D0002125
S31508007180B96532490C6008213960FC6000F0FE00E0
S31508007190284388F8000000F0A5F8002D294E254957
S315080071A0326822F4706214D042F400623260B26827
S315080071B022F04002B260082200F062F802F0BF0234
S315080071C00A70082200F056F802F0BF020A71602120
S315080071D013E042F480723260B26842F04002B26054
S315080071E0012200F04DF842F040020A70012200F038
S315080071F041F842F040020A710021B96506211C4A8D
S31508007200116000F075F865B198F8000080070BD595
S315080072107068800900F0010004F0FCF80F4804606B
S3150800722002E0002004F0F6F80020BDE8F081000036
S3150800723000BC0040B824002000B0004000B4004064
S3150800724000B8004004B000401C2A002080E100E09D
S315080072500CB400400CB8004004B4004000E100E063
S315080072600CB0004004B8004014A8004008B0004024
S3150800727018BC0040CB8A62F30B230A79CB8270478D
S315080072804B8962F30B230A784B817047554E4B00A6
S315080072904649420042544C00455854005057520043
S315080072A0574447002053570043525300465348005B
S315080072B042414400464C54000C2A0108102A010891
S315080072C0682A0108882A0108902A01089C2A0108C8
S315080072D0A82A0108B42A0108BC2A0108C82A0108F4
S315080072E0D82A0108EFF31180602181F311887047CD
S315080072F080F31188704700002B49087070470EB458
S315080073003CB504462848007828B3FCF7D0FA10B3F1
S31508007310FCF7D6FD0120FBF712FD0546FF2D1AD016
S31508007320FBF702FD0221FCF7D2FA01462846FBF7D5
S3150800733001FD05AB224629461C48FBF7E2FBC0B215
S3150800734030B12846FCF73DFB10B1042000F00BF8DD
S315080073502846FBF75DFD33BC5DF810FB0C220021C7
S315080073601348FBF76ABF124931F81020521C21F85E
S31508007370102070470C490978A1B9002818BF0128C0
S3150800738010D0042818BF05280CD0312818BF332878
S3150800739008D037281EBF3B284FF6FF71884201D018
S315080073A00120704700207047D62F0020A32F000821
S315080073B09C2D0020302818BF322806D034281CBF40
S315080073C03628382801D00020704701207047000071
S315080073D010B5094C08220021201DFBF72EFF03F0EB
S315080073E053FA207003F050FA607003F04DFAA0705B
S315080073F002480078E07010BD442A0020702400205E
S3150800740004F04FB962F30F2262F31F42401810F0DE
S31508007410030308D0C91A1FD3DB0748BF00F8012D9C
S3150800742028BF20F8022D130030B41446154610392B
S3150800743028BF20E93C00FAD8490728BF20E90C00F4
S3150800744048BF40F8042D890028BF20F8022D48BF00
S3150800745000F8012D30BC7047C91818BF00F8012D77
S31508007460CB0728BF00F8012D70470000DFF8641528
S315080074705120086070472DE9F0410546FCF758F998
S31508007480DFF85415B0FBF1F64FF4F070B0FBF6F7E1
S315080074901E2D3FB201DBE81B04D5A8B2BDE8F041BA
S315080074A000F044BBFFF71EFF804604F089FBDFF8B7
S315080074B02C15DFF82C25012048700721DFF8240554
S315080074C000F041F8E91B09B27143C91C8908491E35
S315080074D0DFF81455416000F0BDF8DFF8F8743C6831
S315080074E0386820F04000386004F06CFB3C602E6081
S315080074F004F06CFB04F072FB4046BDE8F041FFF770
S31508007500F7BE38B50546FCF713F9DFF8CC14B0FB1F
S31508007510F1F44FF4F070B0FBF4F02D1A1E2D04DAD6
S3150800752092210FF20C50FCF7EDFCDFF8B804DFF8F7
S31508007530B024072100F007F805FB04F1C91C8908E7
S31508007540491E416031BD01600021416081604FF0F4
S31508007550007111607047DFF8842401215170D0E76B
