S02100007365637572652D657A73702D7370692D626F6F746C6F616465722E7333378C
S31508000000000400207500000881000008810000082F
S31508000010A70B090100000000040100570040000872
S31508000020041F0000DD0B000877100008DC06000836
S3150800003000000000000000000000000000000000B2
S315080000400000000000000000000000009B01000006
S31508000050FFFFFFFF05480068202100EA010020B1E4
S315080000600348016842688D46104770472C000040D7
S3150800007000400008FFF7EEFF00F00DF800F042F828
S3150800008005E00000854670474548008870474FF4EC
S31508000090017000F09FB838B54FF20F04414D00F0DB
S315080000A0C7F828B140F2052028806C80012032BDAF
S315080000B03D480068C00615D56888A0421ED1288824
S315080000C040F2022188421CBF40F20621884215D020
S315080000D040F2011188421EBFB0F58A7F40F2111125
S315080000E088420BD0314C208A40F6A721884205D198
S315080000F02068FFF7C7FF6068804700BF002032BD51
S315080001000000000038B50400294872B6016849089D
S315080001104900016000F0ECF823480068000910F077
S3150800012001000CBF2349244902E0CD2201F8012B26
S31508000130224A9142F9D32249224A234B03E011F875
S31508000140015B02F8015B9A42F9D32049204A002351
S3150800015001E001F8013B9142FBD3124A53884FF262
S315080001600F05AB4240F205210AD113888B4205D010
S3150800017030B1180A012818BF022801D1194601E032
S3150800018004B90021064801804CF23C30508000F04A
S31508000190E1F94FF40170BDE8324000F01BB80000E9
S315080001A0840D0020000000202C00004000400008BC
S315080001B0FCED00E00000002098000020000400206C
S315080001C02819000800040020040400200404002064
S315080001D0970D00200E4A302111600E4A11600E4A12
S315080001E0116010210D4A1160010A00290C4908BF47
S315080001F0000208804FF20F004880BFF35F8F09485E
S3150800020000210160416008480849086070470000FD
S315080002103020004030C8004030C0004010E00040A8
S31508000220000000201C4000400400FA050CED00E028
S3150800023010B5002408210E2000F076FA294840213E
S3150800024081600A2100BF491EFCD1C82102685206F6
S3150800025001D4012401E0491EF8D104210E2000F042
S3150800026063FA204610BD80B500F051FA0121152029
S3150800027000F05AFA152000F087FA0121072000F04D
S3150800028053FA072000F074FA1748016821F01001A4
S31508000290016001BD052800D9704710B5DFE800F0F8
S315080002A01721030F1C17114C2088411E2180C0B945
S315080002B0072000F075FA42F21070208010BD072062
S315080002C000F062FABDE81040152000F069BABDE8F2
S315080002D01040152000F04CBABDE81040152000F07B
S315080002E053BA10BD08B2004000BC0040900D002073
S315080002F07A4951200860704738B5054600F0FAF982
S315080003007749B0FBF1F44FF4F070B0FBF4F02D1A16
S315080003101E2DBCBF4FF40170FFF75CFF7148724A8F
S31508000320072101600021416081604FF00071116072
S3150800033005FB04F1C91C8908491E416031BD6B4A99
S3150800034001215170D8E76B48016841F0010101604D
S3150800035001214160512061490860704700207047BB
S315080003602DE9F047624D614E2968814640F2DC5816
S315080003700129C2465B48604F604C1DDA0221618044
S3150800038039600068C00348BF00F08FF8B86900F00C
S315080003900300032861D02868002803D5B86940F00F
S315080003A00200B8614846FFF7D9FF5FEA000A1BD189
S315080003B02868002851D54EE061884FF6FF75A94296
S315080003C01DD14F48018802237F22A01C00F0FEF9A8
S315080003D06088A84204BF02206080B869800703D4F9
S315080003E0B86940F00200B8610120B07060883860D2
S315080003F00FFA8AF0FFF7A3FF5046BDE8F087B96900
S315080004008907EDD50068C00348BF00F04EF8B078FC
S3150800041008B14046F1E7B868B968628810F001008B
S3150800042003D10F2A08D2521C06E0890704D5217881
S3150800043011B1032AA8BFAA1892B2022A2070B8BF1F
S3150800044002226280386861888842CDD1B86900F096
S315080004500300032801D0FFF776FF0020CDE710B58B
S3150800046004462848017869B9C078072818BF0928BA
S3150800047013D0032818BF11280FD013281CBF15281E
S315080004800B280AD02048016841F48071016004E015
S3150800049000F0D2F90620FFF761FF2046FFF760FF5C
S315080004A00028F5D110BD0220D9E70E480E4A0021D2
S315080004B041608160016821F00201016000210B485A
S315080004C041704FF000711160817801B9704780B5AD
S315080004D0002181700620FFF741FF01BD0080004022
S315080004E090D0030010E000E004ED00E0920D00203B
S315080004F01C1900081C40004004400040000400206D
S315080005002419000896070808384000400078704704
S3150800051030B5DBB00446214636A800F0ADF9002018
S3150800052000904FF40263584A36A901A800F056FB1A
S315080005300FF29C120FF2A41001A900F09CFD0546CB
S3150800054000F0EEF81DB12146284600F0E0F92846ED
S315080005505BB030BD80B5FFF7A6FFFFF795FDB0F598
S315080005608A7F09D100F0B4FD00F0C6FD0028FBD053
S3150800057040F21110FFF72EFEFFF775FE00F0A8FDFA
S3150800058000F0CEF800F0D4FD0020FFF783FE07E068
S315080005901A2000F0B5FA01220021522000F023F8B3
S315080005A000F0BEF80220FFF775FE00A800F092FDE5
S315080005B00028F5D19DF800005128E9D033490020DC
S315080005C008700120FFF7A4FF20B90520FFF762FE97
S315080005D0012000E00420FFF75DFE40F20120FFF74E
S315080005E0F9FD002002BDF8B506460F461546284C0B
S315080005F00FF2B4011D22204600F09BFD0A2204F1E9
S315080006003401201D00F095FD2248018808237F2229
S3150800061004F10E0000F0DAF8522EA6761BD135202A
S31508000620207006220FF2A00104F12E0000F081FDD1
S315080006300120E0760223184801887F2204F11C0075
S3150800064000F0C4F81548018810237F2204F11E0023
S3150800065000F0BCF802E01D202070E776012D12D1CB
S315080006602078A0F11B05012000F014FE0C48FD219E
S3150800067001704570EAB204F11A01801C00F059FDB8
S31508000680084901200870F1BD640500208F0D00207F
S315080006902405002026190008221900082019000838
S315080006A0940400208E0D00200063CC00FFFF00009C
S315080006B0000000000000FFFFFFFFFFFFFFFF7C6553
S315080006C06D0100000000000000041F005700000034
S315080006D093180008CF1800080D0500088F0A0008AF
S315080006E0C70A00081A480068C00701D419487047A5
S315080006F01948704780B5FFF7F5FF1849096801B929
S31508000700400802BD80B5FFF7EDFF400802BD14485A
S31508000710012181604EF6BE214160012101607047CA
S315080007201049012008607047C208430710B54CBF3E
S315080007300D4B0E4B03EB422200F0030080001368BA
S315080007400F248440A34301FA00F01843106010BD3B
S315080007501C400040001BB70000366E0120400040D8
S31508000760006000400860004004B0004000B000404F
S31508000770C108032907DA012100F007029140C008E1
S3150800078040020F4A11507047C108032907DA0121B0
S3150800079000F007029140C00840020A4A115070470B
S315080007A0C10803290ADA084A02EB412101230A682B
S315080007B000F0070003FA00F0504008607047000098
S315080007C014B0004010B000400CB0004030B50446EC
S315080007D010467F2808BF00204BF23462914283B04E
S315080007E01AD108237F2240F6120100A8FFF7EEFF70
S315080007F008220FF23C0100A800F0BBFC30B9082320
S315080008007F2240F2A27100A8FFF7E0FF082200A9A4
S31508000810204600F08EFC37BD044D294300FB03112A
S315080008201A46204600F085FC37BD0000000008087F
S31508000830FFFFFFFFFFFFFFFF70B50D4C256806465B
S31508000840FFF760FF0B49B0FBF1F070432F30302102
S31508000850B0FBF1F0032809D3616D41F00101616530
S315080008602168491B0903090B8142F9D370BD0000B1
S315080008703820004090D003000170012242700129FF
S3150800088082700CBF8021402181800021C1800181B6
S31508000890A94801600E218162016821F010010160FA
S315080008A00021416341627047F8B50D460446A349E5
S315080008B0A14F4FF0FF3008601646FE6200207862AE
S315080008C0386840F001003860FFF72AFF012C11D183
S315080008D035B900F011FC00F0010080F0010002E0DB
S315080008E0284600F0F7FB38B93868400840003860F9
S315080008F00020F2BD0120F2BD786AB042E4D3002E92
S31508000900E2D038684008400038601620F2BD80B54D
S315080009100A4601461820FFF766FE012000F0BAFCD9
S31508000920BDE80140EFE038B50446002020814AF6CC
S31508000930B432207800A9FFF7B7FF08B11C2032BDF2
S315080009409DF80000032818BF182801D1182032BDC9
S31508000950042801D1172032BD012801D0212032BD3B
S31508000960002500E06D1CA188EDB2091D8D420BDA49
S31508000970281900F10A01207840F2DD22FFF794FFDA
S315080009800028EFD0262032BD0025002006E00146CB
S31508000990EDB22819007B00F0CBFD6D1CA188EAB2E8
S315080009A08A42F4D3A27AE37A9B18FF2B01D022203D
S315080009B032BD0B191D7BB5EB102F01D0232032BD9C
S315080009C05B7BC0B2834201D0242032BDA07882422C
S315080009D007D0401EC0B2824201D1272032BD252051
S315080009E032BD881C20810220E080002032BD38B547
S315080009F004466078012804D00ED3032845D003D3D3
S31508000A000AE0022060700FE000F092FB00F065F843
S31508000A10A078401CA07007E0182032BDA078227884
S31508000A20411EC9B200F05BF82046FFF77CFF054679
S31508000A302078012804BF284600F062F80DB100F0BE
S31508000A4077FB272DEAD0A8060BD52278A1781520A2
S31508000A50FFF7C9FD002DE7D10320FFF71BFC002097
S31508000A6032BD680603D4182D18BF1C2D07D121786E
S31508000A702846FFF74CFF04206070284632BD172D24
S31508000A80E8D100F02AF803206070172032BDF8B5C7
S31508000A9004460D461646002706E0E088411C001964
S31508000AA0E180807A78557F1CBFB2B74209D2E088C8
S31508000AB021898842F1D32046FFF799FF0028ECD018
S31508000AC0F2BD0020F2BD10B50446FFF790FF00F016
S31508000AD004F800F018F8172010BD2278A17806202F
S31508000AE0FFF781BD80B51649FD220A70887001227C
S31508000AF04A70012000F0CFFC12490020087001BDA1
S31508000B0000B91920EEE710B582B00F4C207860B115
S31508000B10002000F0C0FC0028F8D0002000F0BAFB46
S31508000B20012000F0B8FC0020207040F2DD2200A968
S31508000B300120FFF7B9FE13BD00F0004000A80040F1
S31508000B40940400208D0D00208E0D0020F8B5044673
S31508000B500D4616461F4607E03046A047294600F0D0
S31508000B60F9FC05467F1E761CBFB2002FF4D1284635
S31508000B70F2BD38B50C46154605E0014614F8010BDA
S31508000B8000F0E8FC6D1EADB2002DF6D132BDF8B509
S31508000B9007460E461D46144630683B682A462146D7
S31508000BA09847070005D1F0682A462146FFF7E1FF76
S31508000BB0F060D6F8A8002818C6F8A80096F8A70086
S31508000BC050B1AC362A462146304600F095FD2A46F5
S31508000BD02146304600F012FD3846F2BD10B5029C9B
S31508000BE0847203814260016028224FF0FF31C160A0
S31508000BF000210174A0F8A410802180F8A610002115
S31508000C0080F8A710C0F8A810AC30BDE8104000F076
S31508000C10A9BA2DE9F84F8946044699F81BB0D06859
S31508000C209749BBF1800FA8BF4FF0800B88421E463C
S31508000C3051D1002E4DD0B06800904FF0FF380025F6
S31508000C4009EB450A9AF848700DE0FFF769FDF802C6
S31508000C5040F0006200984FF400634146FFF776FFC4
S31508000C608046781CC7B20AF148004078B84204DAD0
S31508000C70681CC5B2062D02DAE2E7FF2FE5D1D9F8DE
S31508000C8044006FEA0801884225D1A068736800BA53
S31508000C904FEA5B0249469847C8B9E06805BAA068B2
S31508000CA002BAB0685B464FF0FF31FFF74FFFC0430B
S31508000CB085420CD140F6A720A9F810000122A068A9
S31508000CC0736800BA09F110011030984708B142203C
S31508000CD002E0172000E04320BDE8F28F2DE9F04F2F
S31508000CE00D4683B08046D5F804B02889ADF80400CF
S31508000CF0914605F1140707F1100404235A464046A5
S31508000D00FFF745FF00286FD1BBF8000040BA80B254
S31508000D100090BBF8020040BA86B2F00748BF4620EA
S31508000D2062D4B6F5026FC8BF4E205DDC002E5AD0DD
S31508000D300098DFF850A140B14FF60441401A52D04E
S31508000D40FF3853D0FE3851D097E0287C08B151209F
S31508000D504AE08D2E28BF4F2046D233463A1D00F072
S31508000D6087F9002840D1E27E802AA8BF802202F1B6
S31508000D700C00864201BFB88840BA00F47F40B0F53F
S31508000D80007F2CD1F88840BA4EF25031884202BF13
S31508000D90208A40F6A721884221D1608A00F47F4044
S31508000DA0B0F5807F01BFB86800BADAF81C1088422F
S31508000DB015D14FF6FF70208207F110014FF0FF3072
S31508000DC0FFF7D7FEF96809BAC943884204BF207EEF
S31508000DD0042804D1607E1F2818BF062801D04520A4
S31508000DE002E0012028740020BDE8FE8F287C08B99F
S31508000DF04120F9E7042300F03AF90028F4D1DBF89A
S31508000E00000007BA301F86B2DAF81C00874238BFDE
S31508000E104820E9D3616DF019884228BF4920E3D2FA
S31508000E2000984FF6035188420DD1B9F1000F0AD048
S31508000E30D9F8002039460220904720B14A20D3E746
S31508000E40301B86B2E719002ECDD0BDF804008642C5
S31508000E50B4BF34460446234600F009F90028C3D136
S31508000E60B9F1000FECD0D9F8043062085946384673
S31508000E7098470028E4D04B20B6E74420B4E70000A2
S31508000E80E320BBDE000000082DE9F04F0D4685B0D3
S31508000E9080466F6805F11400009005F1A40410302F
S31508000EA004909146A078832805D1A68882214FF61A
S31508000EB00710A1700CE004233A464046FFF767FE88
S31508000EC0002840F0D1807988388849BA40BA8EB26D
S31508000ED0F10748BF462000F1C78080B24FF2097279
S31508000EE0A178801A05F1AC0A05F1040B00F08A8096
S31508000EF04FF4FF72801A6BD0FF3830D0FF3803D01A
S31508000F00FF3800F09A80AEE0802929D1062E23D337
S31508000F10062302AA29464046FFF739FEE8B9BDF876
S31508000F20080040BA00F47F40B0F5007F01BFBDF865
S31508000F300C0040BA4EF2503188420DD1BDF80A0075
S31508000F4040BA012818BF522007D1BDF80A0040BA96
S31508000F50A5F8A400002000E04520812181E0812930
S31508000F606DD1BBF80490102E38BF4E202ED3042323
S31508000F70524600F07DF848BB0C230AF1040200F043
S31508000F8077F818BBDAF8000000BAA6F11001CAF81B
S31508000F9000008EB23146504600F0F8FA05E069685E
S31508000FA03A46504600F02AFBF61BB6B256B137460B
S31508000FB04E4588BF4F466A683B4600F059F80028F8
S31508000FC0EDD003E0504600F03CFB0020822148E0CB
S31508000FD0822934D1042E2BD30120E0704A46002002
S31508000FE0606029464046FFF779FE08BB0021E1709C
S31508000FF061688E421CD3B14236D28322A270711A1E
S31508001000616031E082291AD1504600F01AFBBBF81C
S315080010100400B042B8BF4F2026DB33463A4600F0FC
S3150800102027F808BBF2B23946504600F030FB08B93B
S31508001030542019E00020842113E0842901D051208E
S3150800104012E0042E18BF4C200ED104233A4600F0B5
S315080010500FF848B9049900984B462A46FFF7D9FD78
S315080010608521A17000E0442005B0BDE8F08F5A46FE
S31508001070294640468BE570B50C4605462089C107CA
S31508001080164601D4802801DA4F2070BD00F072FAA6
S3150800109008B9532070BD324621462846FFF7F4FEAC
S315080010A0002818BF172803D08F2184F8A61070BD12
S315080010B094F8A600852806D1206869688847172805
S315080010C005D1002070BDA07A0028E4D0502070BD5C
S315080010D000F097B810B5044600F00EF850B1124863
S315080010E0124982785118897821708178491C817053
S315080010F0002010BD012010BD10B50B4C207888B912
S3150800110000F0C9F978B1607840B1002000F0C2F863
S31508001110012000F0C0F90020607010BD0120207089
S315080011200020A070012010BD8D0D002004040020B1
S315080011307047814212D210185118401E491E92B2A9
S31508001140002A1EBF11F8013900F80139521EF6D1DE
S31508001150704711F8013B00F8013B521E92B2002A73
S31508001160F7D17047130003D00A46194600F0EEBAC5
S31508001170704710B500E0521E92B222B100F005F891
S31508001180F9D0181B10BD002010BD10F8013B11F84E
S31508001190014BA34270470000DFF85003002141715C
S315080011A081711022DFF84803016C4908490001647F
S315080011B0016C21F400710164CE490A6320220A6396
S315080011C000224A650A664A668A6502224A65CA4A4A
S315080011D00A608D324A60C94A0A618D324A61C84A34
S315080011E01268D20609D5026C42F001020264026C4A
S315080011F042F40072026401220A634FF6FF7101602D
S31508001200704710B5B948002181700121C17001717C
S315080012100021017009214170FFF7BEFF4FF480538A
S31508001220B848B94A016801F00F0141F4884141F014
S3150800123090010160002441680909090141F004018F
S315080012404160102101611360B049CC640468240927
S31508001250240144F008040460012404610C60AC48CD
S31508001260AC4C03604023CB644FF4804313600022E8
S315080012704A650C22226004220A6003602020486521
S315080012808021A548C160016821F4704141F480516C
S31508001290016010BD58B19A480168C90705D50068AC
S315080012A0C00602D59D4980200860002000E0012084
S315080012B08E49C87070478D490A7922B9087001228B
S315080012C000200A714870704780B5954A1021116050
S315080012D089494978A72907BF884908700320FFF775
S315080012E0EAFFBDE802400120D5E02DE9F8437F4C2E
S315080012F08C4D2179DFF8089229B1D9F80020D20659
S3150800130044BF80226A60A278B2B18020686001E09A
S31508001310FFF706FAD9F80000C007F9D5802028603B
S315080013200020A070E07820B93220FFF785FA8020E7
S3150800133068600020BDE8F28362796D4E7A4FDFF867
S31508001340BC81104235D031B10020207102222146DD
S315080013504046FFF7EEFEE07808B18020286098F84E
S315080013600000052804DAA72088F80200032010E008
S31508001370FE2818BFFD2808D198F801104144A72077
S31508001380887098F80100C01C03E0A72088F80100BF
S315080013900220A071A0794044401E3860FF20B86240
S315080013A0012030600420F861306C40F001003064A0
S315080013B0BDE7BA69D2074FF4007014D4D9F80020F3
S315080013C0D20610D500F060F800F05EF8012232600F
S315080013D03060326C42F001023264326C42F40072C0
S315080013E032640122FA61FA6812B932689205A0D508
S315080013F00122627180222A603F4A53781478356840
S31508001400AD051ED4FD68022D93D30A2C06D00B2CED
S3150800141008D0FD2C18BFFE2C06D08AE78220FFF7DD
S3150800142053FF86E7C120FAE7862B05DBFFF7B4FEF4
S315080014300120FFF740FF7CE7FD6803F1030C6545D3
S31508001440F9D3356C6D086D003564356C25F4007577
S3150800145035641025FD61306019B1012000F01BF8D4
S3150800146067E798188078A72803D00320FFF723FF9B
S31508001470F3E7FE2C03D10420FFF71DFFEDE7FD205F
S3150800148088F80000012055E7BA6A8DF80020BA6A84
S315080014908DF80020704770B504461548134D01684D
S315080014A0204EC90703D58021316001216971C168C1
S315080014B0C90702D50121C160A970C168490711D5BC
S315080014C00421C1608020306018480068A9798842E4
S315080014D01CBF0220FFF7EFFEFFF75EFEE87808B9AB
S315080014E0802070602046BDE87040FEE6860D00202C
S315080014F008A8004000C80040040400209404002006
S3150800150008B2004000B2004080E100E014A80040A4
S3150800151080E200E020BC004004B4004014B400405F
S3150800152030C8004010B4004014C8004028C8004025
S315080015300A0242EA11214840C0F30311484080EAF2
S31508001540003041010206C9B2D20E41EA02214840E2
S3150800155080B270470A0A4840C0B208214308C0074B
S3150800156046BF034858401846491EF7D150407047B1
S315080015702083B8ED00205F49415CFF2901D0012096
S315080015807047401C1028F6DB0020704712B5044649
S3150800159083B02068039900BA00903A2001B17A20F6
S315080015A020740C22211D04F11100FFF7C2FD03224D
S315080015B00DF1010104F11D00FFF7BBFD00F03CF839
S315080015C00398D0B1B0F57F4F05D200BA0390022236
S315080015D00DF10E010EE00FF270100088ADF8040050
S315080015E00222039800BA039001A9204600F006F8E3
S315080015F0042203A9204600F001F81FBDF8B50446E9
S315080016000D461646002714E094F825007A5D001961
S31508001610017C5140017494F82500401C84F825008B
S31508001620C0B2102804D300F007F8002084F825007B
S315080016307F1CB742E8D3F1BD2E4904F1100000F033
S31508001640EFB81FB5044600A8102100F0F3F894F887
S315080016502500C0F11000C11000EB11710911A0EBB3
S31508001660011200A92046FFF7C9FF1FBD1FB50C468A
S31508001670011D00AA002000F026F8002000AA015D3E
S31508001680825C51400155401C1028F7DB1FBD38B558
S31508001690102A04460D4612D1216A94F8242020689F
S315080016A002EB011188420AD129462046FFF7DEFFE0
S315080016B0102204F110012846FFF75BFD08B100204F
S315080016C032BD012032BD11B581B000BA0190144671
S315080016D0022020700C22601CFFF72BFD03220DF15F
S315080016E0050104F10D00FFF724FD0249204600F02C
S315080016F097F813BDF80808082DE9FF4104460D467A
S3150800170090460020002704F1200619E030B9206A27
S3150800171000AA211D401CFFF7D6FF01203379795D09
S3150800172000AA9A5C514079553179491CC9B21029E9
S3150800173004DB206A401C20620021002031717F1CD6
S315080017404745E3D3BDE8FF81FFFE000062F30F22A1
S3150800175062F31F42401810F0030308D0C91A1FD3BA
S31508001760DB0748BF00F8012D28BF20F8022D13001B
S3150800177030B414461546103928BF20E93C00FAD87B
S31508001780490728BF20E90C0048BF40F8042D890006
S3150800179028BF20F8022D48BF00F8012D30BC70473D
S315080017A0C91818BF00F8012DCB0728BF00F8012D6E
S315080017B0704700000268174912BACA60426812BA2E
S315080017C08A60826812BA4A60C06800BA08607047C0
S315080017D010B5114980220A600623104A13600723B0
S315080017E00B6013689B07FCD5002350F823405B1C4D
S315080017F024BA042B8C62F8D313685B07FCD5002245
S315080018000B6B1BBA40F82230521C042AF8D310BDC1
S3150800181000000000383000400030004010A00040B2
S3150800182010B504460846FFF7C5FF2046BDE8104038
S31508001830CEE70000002200F001B8000000B500BFA6
S31508001840130096469446103928BFA0E80C50FAD8DB
S315080018505FEA417C28BF0CC048BF40F8042BC90783
S3150800186028BF20F8022B48BF00F8012B00BD000056
S315080018702748018A40F6A772914202BF408A4FF470
S315080018807F41084203D1022801DB0120704700206E
S315080018907047F8B504461D4E01200D463070FFF717
S315080018A0E7FF18B94FF40170FEF794FC294618486B
S315080018B0876A44F48070B847002131700FF25406E5
S315080018C018B9294644F40070B847805DF2BD2DE981
S315080018D0F041044688465600FFF7CAFF18B94FF488
S315080018E00170FEF777FC0A48476A002332464146EC
S315080018F02046B8470FF21C0520B933460022414658
S315080019002046B847405DBDE8F0810000960D0020EE
S3150800191000000808000202024B4B464700366E01DB
S311080019202A083A08EE0834B60100FFFF5A
S705080000757D
