S00F00006E6F6465746573742E7333377F
S31508002000D02300202D0B01088D0A0108910A01082A
S31508002010A70A090100210008041903AC00579B010F
S3150800202000000000000000000000000000000000A2
S315080020300000000000000000000000000000000092
S315080020400000000000000000FFFFFFFFFFFFFFFF8A
S31508002050FFFFFFFF00E0010800000000000000008D
S31508002060FFFFFFFFFFFFFFFFFFFFFFFFFFFFFFFF72
S31508002070FFFFFFFFFFFFFFFFFFFFFFFFFFFFFFFF62
S31508002080F02F002000000000ED2F0020ED2F00208B
S31508002090D0230020D82F0108F60C0108701A00205A
S311080020A0A40F00200000020800300020F9
S31508002100D02300202D0B01088D0A0108910A010829
S31508002110990A0108950A01089D0A0108140B010885
S31508002120140B0108140B0108140B0108140B010801
S31508002130A10A0108140B0108140B0108F17700081D
S31508002140F3E20008140B010817820008140B0108B3
S31508002150D57B00080D810008140B0108140B010833
S31508002160CDC9000819970008D3B10008A1B700081F
S31508002170140B0108DBBA000823BB0008140B01087E
S31508002180D5390008140B0108140B0108140B0108B3
S3150800219070472DE9F84FDFF83C580FF29C010446CA
S315080021A02878002600F098FD0FF2BC2A0FF2845B0F
S315080021B00FF27058DFF8209804E0514600F08CFDC5
S315080021C0701C86B22168287837017A185368CBB113
S315080021D04B4509D15269130018BF4A45F0D07A58C1
S315080021E0414600F079FDEBE793687A58594600F0C6
S315080021F073FD20683818C2682878002ADDD00FF2E7
S315080022003C51EEE70FF2AC0100F066FD28780FF2BC
S31508002210CC0100F061FD28780FF2F00100F05CFDBA
S3150800222028780FF2141100F057FD28785146BDE8BA
S31508002230F44F00F051BD0000434F4D4D414E442030
S315080022405B504152414D45544552535D205B2D200C
S315080022504445534352495054494F4E5D0D0A202078
S3150800226077686572653A20623D6275666665722CA6
S315080022702073313D696E74385F742C2073323D6962
S315080022806E7431365F742C2075313D75696E7438FD
S315080022905F742C2075323D75696E7431365F742C07
S315080022A02075343D75696E7433325F740D0A0D0AF4
S315080022B00000000020202120202D20526563616C3B
S315080022C06C73207468652070726576696F75732003
S315080022D0636F6D6D616E640D0A00000020205B74EB
S315080022E061625D202D20417474656D70747320746D
S315080022F06F2074616220636F6D706C65746520630E
S315080023006F6D6D616E640D0A0000000020202020AC
S315080023102A2A204E4F54453A20616C6C20696E700B
S3150800232075742076616C7565732061726520696EB7
S3150800233020686578210D0A00202020202A2A2043BB
S315080023406F6D6D616E647320617265204E4F542007
S31508002350636173652073656E7369746976650D0AC2
S3150800236000000000A0F141011A293CBF2030C0B28C
S3150800237070472DE9F84F0546DFF86016A86800682B
S315080023800968DFF85066C0B2002410F80180B8F179
S31508002390210FA34607DB30780FF2D001BDE8F84FCE
S315080023A0202200F099BC00F0BFFC8246A14607E057
S315080023B019F80A00FFF7D6FF09F80A0009F101091A
S315080023C0C145F5DB42460FF2E801504600F048FFEA
S315080023D040B94FF0010B05E030780FF2DC013A46C0
S315080023E000F07AFC2968200142185268130039D097
S315080023F0641CDFF8E4954A45A4B2F3D14758BBF10B
S31508002400000FE9D1384600F03FFF4045EAD1424681
S315080024105146384600F018FF0028E3D10FF2F82895
S315080024200FF2183B0FF2980A04E0414600F054FCFC
S31508002430641CA4B22868270139184A68130018BF13
S315080024404A450FD03A588B683078514600F044FC1C
S3150800245028683818C2683078002AE6D0594600F04D
S315080024603BFCE5E7BDE8F18F0D0A00004572726F87
S31508002470723A206C69737420617267756D656E7443
S3150800248020746F6F206C6F6E672C207765206F6ED7
S315080024906C7920737570706F727420757020746F04
S315080024A02025752062797465732E0D0A00000000D8
S315080024B06D6F64756C65730025700D0A0000000069
S315080024C0257020257000000070B5044688B0A06805
S315080024D0016801B10121DFF808552970406800B18B
S315080024E00120DFF8006530700FF25C0001F0BAF8E1
S315080024F0A068C16801B10121DFF8EC2411700069F8
S3150800250000B10120DFF8E4142B78087008780790EA
S3150800251004F111010FF25800069010780FF25802D4
S3150800252005900FF25C000490012003907BA00290B6
S31508002530307801900FF2500000900FF2540001F02D
S3150800254091F808B070BD00005475726E696E672008
S315080025506F66662074616773206E6F742079657480
S3150800256020737570706F727465640D0A0000000040
S31508002570746578740000000068656164657200001F
S3150800258064656C696D000000636F6D6D616E640053
S315080025907B264E20566572626F73697479206F7058
S315080025A074696F6E732073657420746F3A0D0A260A
S315080025B074750D0A2674750D0A2674750D0A267427
S315080025C0750D0A2674757D0D0A000000DFF82014C3
S315080025D0007C51F82020DFF8FC030FF20801007890
S315080025E000F07ABB4349204572726F723A20257013
S315080025F00D0A000038B5DFF8DC43207846A500F060
S3150800260039FA20780FF2340100F066FB00F031FA4F
S3150800261020780FF24C0100F05FFB207840A100F013
S315080026205BFB20780FF2440100F056FB20780FF28E
S315080026304801BDE8344000F04FBB0000456D6265B7
S3150800264072204E6F64652054657374204170706CF7
S3150800265069636174696F6E2076312E300000000060
S3150800266046656220323120323031360031353A340F
S31508002670353A3339000000000D0A0D0A0000000043
S315080026802DE9F24F044682B0256BDFF84893904651
S31508002690002705E020A100F01FFB7F1CBFB2103504
S315080026A06868B8B32E68DDF808A04FF0000B0EE096
S315080026B01AF8010BFFF756FE009016F8010BFFF704
S315080026C051FE0099C9B28142E7D10BF1010B1FFAFD
S315080026D08BFBC345ECD32068DFF8FCC23E013118FA
S315080026E032584B6899F80000634504D10FF234015B
S315080026F000F0F2FAD1E78B680FF2380100F0ECFA35
S3150800270020683018C26899F80000002AC2D00FF273
S315080027102C01EDE7BDE8F78F0D0A0000746167002C
S315080027202C2000002D2D2D2D202570202D2D2D2D12
S315080027300D0A00002020257020257000202D202558
S31508002740700D0A002DE9F0439BB00EA80FF2A421E4
S31508002750342200F0B9FF4FF000098DF80190A5204A
S3150800276001F002F801F052F8002201230F21104669
S3150800277001F0BCF9050006D0002201230A21104603
S3150800278001F0B4F90546012300220F21184601F08D
S31508002790ADF9060006D0012300220A21184601F0E9
S315080027A0A5F90646012300220F21022001F09EF911
S315080027B05FEA000806D0012300220A21022001F060
S315080027C095F9804601F098FB824C5DB1002E68D0E1
S315080027D0B8F1000F6BD040F2E5110FF24C2001F072
S315080027E091FB04E0002E18BFB8F1000F62D084F800
S315080027F00090201D01F0B4FC201DFFF7FBFE0FF230
S31508002800382500F036F920780FF2802100F064FAB6
S3150800281020786DA600F02AF9201D01F037FF00F098
S3150800282028F920780FF2702100F056FA00F01DF909
S31508002830201D01F09CFF00F01CF920780FF264219E
S3150800284000F04AFA00F011F9201D03F0C6FB00F06B
S3150800285010F920780FF2582100F03EFA00F005F939
S31508002860201D03F0DDFB00F004F920780FF24C215F
S3150800287000F032FA00F0F9F8201D03F0EEFB00F044
S31508002880F8F820780FF2402100F026FA00F0EDF86B
S31508002890201D04F033F84DA54DA60FF2A41801AF7C
S315080028A03FE0B8F1000F05D001202070A1E7022013
S315080028B0FBE725702078FF289BD1002500A928462C
S315080028C001F056F938B99DF800000D2818BF0A28F6
S315080028D018BF2A28EDD06D1CEDB2032DEEDBE9E713
S315080028E08DF800009DF80010CA5D481C0A2A18BF1A
S315080028F00D2A18BF002AF3D10D22CA558DF80000FB
S3150800290001A99DF80020201D01F036FC9DF8002045
S3150800291001A90EA800F04EFC9DF8009000208DF845
S31508002920010000F09EF820780DF10103322201A97A
S3150800293001F068F90028D3D000F012FF04F06EFA0F
S315080029409DF8010020B39DF8011001A8081810F899
S31508002950010C09281CD100F088F89DF80100401EDA
S315080029608DF8010001A99DF80120201DFFF788FEBA
S315080029709DF801100020C85500F073F8002004E007
S3150800298000F06AF89DF80000401C00F05DF8F7D3E7
S315080029909DF804002128C6D100F067F84A460EA91A
S315080029A001A800F007FCA9F101008DF8010000F06C
S315080029B058F8002000F048F8B5D200F04DF89DF818
S315080029C00000401CF6E700005D0D0A0025630000C4
S315080029D00D0A0000D0230020912100083C24002085
S315080029E008240020092400200A2400200B240020A3
S315080029F0F42400200D000000000000000000000084
S31508002A0000000000000000000000000000000000B8
S31508002A1000000000000000000000000000000000A8
S31508002A200000000000000000706C6174666F726D33
S31508002A30746573742E6300005B494E495420000088
S31508002A400D0A3E20000000008DF800009DF80110D8
S31508002A509DF8000088427047C25D2078294600F03C
S31508002A603BB94146207800F037B92078314600F066
S31508002A7033B92078294600F02FB980B504F070FAEA
S31508002A80BDE8024000205DE600207047637261736E
S31508002A9068696E666F000000696E6974546F6B65CD
S31508002AA06E7300007265736574737472696E67007D
S31508002AB0696E6974526164696F00000073656564C4
S31508002AC0506E726700000000736574506572546535
S31508002AD0737454780000000070B51346101802E0AD
S31508002AE0A4192C705B1EDBB24BB101F00F06090965
S31508002AF0451E0A2E2846B4BF30243724F0E710189E
S31508002B0070BD2DE9F24F88B0804601A81446994653
S31508002B1001AD4FF0000B00278DF8000010E00127EB
S31508002B20641E05A885420AD39DF800002E1A00F0F7
S31508002B30B5F8002839D1B3445FFA8BFB01AD641CA4
S31508002B409DF800002E1A207800280BD0252803D0DF
S31508002B5017B905F8010BE4E7002F14BF0027641C1A
S31508002B602078010000F08F80B0F1250113D00B39D1
S31508002B70092968D928395DD00B390ED0491E2CD0C1
S31508002B8008392AD0091F0BD0C91E09D0891E24D09E
S31508002B90C91E4FD0C5E72520DBE759F8040BD8E74F
S31508002BA059F804AB00F07AF8002873D1B3445FFAF9
S31508002BB08BFB01AD002600E0761CF6B216F80A007B
S31508002BC00028F9D19DF8200032465146C047002812
S31508002BD060D1B3445FFA8BFBA3E759F8040B0021D5
S31508002BE0002803D52D212970404201210022002307
S31508002BF04FF0000C02E0801B0CF1010C0FF20416DA
S31508002C0056F82360B042F6D25FFA8CF6002E08BF5B
S31508002C10002A05D0C9B206F130024A55491C0122DC
S31508002C205B1C092BE4DBC9B230304855481CC0B2DE
S31508002C30451976E759F8041B0222C9B22846FFF758
S31508002C404BFF05466DE760780127782818BF582896
S31508002C50F8D1641C002714F8010C322804D159F85D
S31508002C60041B042289B2E9E734287FF458AF59F8DF
S31508002C7004AB04224FEA1A412846FFF72DFF042227
S31508002C801FFA8AF1DBE700F009F818B906EB0B0022
S31508002C90C0B200E0002009B0BDE8F08F9DF8200022
S31508002CA0F2B201A9404709A116E010B5084BC35C6A
S31508002CB00024012B07D113460A4601460548FFF7AB
S31508002CC020FF00B90124204610BD00000D0A0000AF
S31508002CD0E03E0008C33D00080CB480B502AAFFF721
S31508002CE0E4FF02BC5DF80CFB0CB438B5044604AA34
S31508002CF0FFF7DBFF05462046FFF7D5FF284632BC1F
S31508002D005DF80CFB00CA9A3B00E1F5058096980031
S31508002D1040420F00A086010010270000E8030000CB
S31508002D20640000000A000000DFF85814096801EB87
S31508002D3040107047DFF850241268815470472DE917
S31508002D40F041040035D004F061FADFF84014DFF8EA
S31508002D5040340E78FF228046FE2EDFF838041BD159
S31508002D6000260E70DFF830C4DFF8306437781F703D
S31508002D70002708E007F1010E07F805E0DCF8005027
S31508002D807A555FFA8EF796F800E005687745F1DB25
S31508002D900EEB050606F8012C1E78A6420BD2404615
S31508002DA004F03AFA052004F072FA00211B2004F018
S31508002DB0F1FAFF201CE0361B1E70DFF8E4330E78AC
S31508002DC00F78D3F800E0012507F80E50641E056851
S31508002DD017F805E081F800E0E4B2002CF0D17A5546
S31508002DE000213046FFF7A6FF404604F015FA3046A4
S31508002DF0BDE8F08110B5044604F008FADFF8A01320
S31508002E000968625C521C6254BDE8104004F004BABA
S31508002E102DE9F041054600F031F8044604F0F6F9CC
S31508002E20DFF86823DFF86833DFF86863DFF8708354
S31508002E30FF2D1FD0D8F800106F5C7F1E6F547F27B8
S31508002E40D8F800E015F80E10394213D13168695CDC
S31508002E50002705F80E701F787F1C1F70FF2937683A
S31508002E6092F800E005F807E0157006BF2546FF242E
S31508002E700D46DDE7BDE8F04104F0CEB980B5DFF8D0
S31508002E8020130968415C090603D5FFF74DFF007852
S31508002E9002BDFF2002BD70B504460D4605F11F00B0
S31508002EA00004400D82B0C0B2FFF749FF0646FF2E68
S31508002EB00CD02946FFF73EFF3CB1012000902B4677
S31508002EC000223146204600F002F8304676BD73B53A
S31508002ED000F0BBF8085C15461E467119884203DAED
S31508002EE04FF4B07100F0DAF866B1294601A800F08F
S31508002EF0D9F8024606989DF80410009033462046F5
S31508002F0000F001F873BD2DE9F843089CDFF88482C8
S31508002F100546894616461F460BE04A5D0A54491C73
S31508002F20B142FADBD8F80000BF1B751919F80090F2
S31508002F300026FFB2BFB14846FFF7F6FE3018F11972
S31508002F402029B2BF3E46C6F12006F6B2324624B95B
S31508002F500146284600F02EF9E4E7012C08BF294669
S31508002F60F8D00021DCE7BDE8F1832DE9F04100F057
S31508002F706CF882B01600255C88461F460ED071197B
S31508002F80C9B2204600F04FF808B1182007E00097AC
S31508002F9033462A4621464046FFF799FF0020BDE8FA
S31508002FA0F6810123E1E70A4600E0521C1378002B5C
S31508002FB0FBD1521A0223D2B2D7E7F8B5044601F17B
S31508002FC01F00C50402F11F00C0042D0E000E05B92E
S31508002FD0012500B90120854223D08542DFF8B46176
S31508002FE010DA401BC0B2FFF7AAFE0746FF2F01D131
S31508002FF00020F2BD691EC9B2204600F02BF83168E0
S3150800300047540EE08A420CD2411EC9B2204600F04F
S3150800301021F804463068205CFFF7FAFE3168FF2085
S3150800302060540120F2BD38B500F00FF80D46215C5A
S315080030302A462046FFF7C1FF28B129462046FFF752
S3150800304079FE002032BD182032BD0446DFF838016B
S315080030500068704704E0DFF83C211268805C491E6E
S31508003060C9B20029F7D1704711B581B0DFF8180148
S3150800307000680C469DF80410085C844203D34FF49C
S31508003080F47100F00BF8214601A800F00BF804468D
S315080030909DF80400FFF748FE201816BD0FF204102D
S315080030A000F030BF38B504460D46E9042078090E0D
S315080030B0FFF7D0FF207005F01F0032BD80B5FFF77F
S315080030C0D3FF007802BD10B51446FFF7CDFF047094
S315080030D010BD70B500F00AF800F004F800EB062001
S315080030E080B270BD064629462046E7E70D46691CAC
S315080030F00446C9B2E2E72DE9F541089C1F464CB3E0
S31508003100254689B200A8FFF7CDFF0646B9B201A841
S31508003110FFF7C8FF07463046B84238BF3846C0F101
S315080031202000C0B2A842B8BF05469DF80400FFF7C4
S31508003130FBFD80469DF80000FFF7F6FDAAB207EBF7
S315080031400801301800F036F8641BA919EF19A4B263
S31508003150002CD5D1BDE8F38170B504460D4604F0C0
S3150800316055F80D4B21781B68FF2908BFED5403D08D
S31508003170C9180E78EE540D702570BDE8704004F03D
S315080031804BB80000382400203C240020D02400201E
S31508003190352400204424002048240020342400201C
S315080031A0402400207061636B65742D6275666665E0
S315080031B0722E6300814233D210185118401E491EE0
S315080031C010E011F8013900F80139121F11F8013918
S315080031D000F8013911F8013900F8013911F80139F7
S315080031E000F8013992B2042AEBDA92B2002A1EBF1D
S315080031F011F8013900F80139521EF6D1704711F855
S31508003200013B00F8013B121F11F8013B00F8013B96
S3150800321011F8013B00F8013B11F8013B00F8013BAE
S3150800322092B2042AEBDA92B2002A1EBF11F8013BC9
S3150800323000F8013B521EF6D17047130003D00A4628
S31508003240194604F0ABB8704710B500E0521E92B2AA
S3150800325022B100F012F8F9D0181B10BD002010BDDD
S3150800326010B500E0521E92B22AB100F006F8F9D065
S31508003270181B40B210BD002010BD10F8013B11F814
S31508003280014BA3427047000000F10103810704D0F7
S3150800329010F8011B89B18107FAD10268B2F1013130
S315080032A0914311F0803F04BF50F8042FF6E710F859
S315080032B0011B11B110F8011BFBE7C01A704700008B
S315080032C038B50446611D206A2368451A2079EAB292
S315080032D0984708B1002032BD00F018F8601D20623A
S315080032E0012032BD38B50446002500E06D1CEDB25C
S315080032F0685C0028FAD1207923682A46984718B9C5
S3150800330000F004F8012032BD002032BD94F82900EF
S31508003310281884F8290070472DE9F04F044683B031
S31508003320601D206204F1200704F1150078600E463E
S31508003330002091467872DFF8608312E010B1601DB4
S315080033402062164625B17D2000F065F901F8010DC9
S31508003350206A7968884203D300F063F9002863D0AD
S31508003360761C3078002800F04D81252898F8011041
S3150800337018BF26280AD07B281CBF7D28232802D1FF
S315080033800029E5D0E0E798F80210F9E716F8012FCA
S31508003390252A18BF262A04D100F03DF901F8012D87
S315080033A0D6E726280BD151B101256E2A18BF4E2A19
S315080033B006D000F030F97B2001F8010D00E0002569
S315080033C0317800204E2906D0542926D06E2902D0FD
S315080033D0742922D034E098F8000059F804BB002874
S315080033E0B6D03DB1206A7B2100F8011B411C216241
S315080033F02821017000F015F9002815D000F008F909
S31508003400002811D0002DA3D0206A292100F8011B1D
S31508003410411C21627D2101709AE700F000F900281D
S3150800342002D000F0F5F800287BD000F0FAF8002862
S3150800343077D000F0F0F83A2001F8010D761C01204B
S31508003440317896F801E0A1F13002D2B2911E052931
S315080034503CD2BEF1640F18BFBEF1750F36D159F8CC
S31508003460041B1FFA81FC00230121BEF1640FE2460A
S3150800347009D15FEA0C4E06D56FEA0C0C0CF1010C6B
S3150800348001231FFA8CFCBCF1000F0AD04FF00A0E7C
S315080034909CFBFEFC5B1C1FFA8CFCBCF1000FF5D1F3
S315080034A00BE05B1C09E0D7F800E00EF1010EC7F847
S315080034B000E04FF0200C0EF801CD9C460CF10103FC
S315080034C05FFA8CFC9445EEDB761C00E0002133782D
S315080034D0721E002B00F09280322B18BF342B69D055
S315080034E0482B5CD0582B5CD0632B0CD0642B1BD09C
S315080034F0682B54D0702B18BF732B0BD0752B13D099
S31508003500782B4ED01AE7206A411C216259F8041B11
S31508003510017017E700F083F818B100F079F8002871
S31508003520F7D10020BDE8FE8F002919BF1FFA8AFAD5
S31508003530514659F8041B89B229B900F06CF83020B5
S3150800354001F8010DFEE60020642B0DD10A040BD507
S315080035503B685B1C2D223B60B1F5004F03F8012D3B
S3150800356002D0494289B259B10A2291FBF2F20A23E2
S3150800357003FB121100ABC0B2C154401C91B2F2E772
S315080035800146481EC9B2002913D000A9C0B23A683C
S31508003590415C521C3A60303102F8011DF0E700F038
S315080035A042F8022259F8041B206AC9B2FFF794FAB6
S315080035B02062C7E616F8010F682818BF48280BD1FD
S315080035C000F031F816F8011C206A32290AD159F898
S315080035D0041B042289B2E9E7782818BF5828F1D0D5
S315080035E0761EAFE659F804BB04224FEA1B41FFF7E3
S315080035F073FA206204221FFA8BF1D7E700287FF4BA
S315080036009DAE9EE600F00DF800288AD0787A89E704
S315080036105946204666E63968491C3960704759F8A4
S3150800362004BB20464CE6206A302100F8011B411CE9
S3150800363021627821017070470EB410B517490978D0
S315080036408BB0002409B900200BE0154900910DAA9A
S3150800365000F01CF8014600A8FFF75EFE00B9012439
S3150800366020460FE00EB410B58BB00D49009100242A
S3150800367000F00CF80DAA014600A8FFF74DFE00B9A8
S31508003680012420460BB010BC5DF810FB05490978EB
S315080036908DF8041070470000092400200824002033
S315080036A0C33D0008D023002062B38B0708D0521E02
S315080036B011F8013B00F8013B00F024808B07F6D196
S315080036C0830740F0208000BF103A07D330B4B1E832
S315080036D03810103AA0E83810F9D230BC530724BF86
S315080036E0B1E80810A0E8081044BF51F8043B40F8B8
S315080036F0043BD20724BF31F8022B20F8022B44BF23
S315080037000B7803707047083A07D3B1E80810083AEF
S3150800371040F8043B40F804CBF7D25307E4E700002F
S315080037202D480068C00701D42C4870472C487047BC
S3150800373080B5FFF7F5FF2B49096801B9400802BDB6
S3150800374080B5FFF7EDFF400802BD03F01CBF264811
S31508003750012181604EF6BE2141600121016070475A
S315080037602249012008607047A52805D11E484DF654
S31508003770AD6141600221016070471B480068C007BF
S3150800378001D5012070470020704780B51849194AAD
S315080037901020086018491948007858B103280CBF4A
S315080037A000200120106040F651000860002004F057
S315080037B0A4F906E0022010604FF40060086003F0E8
S315080037C09BFE07210E4801600021016410200D4967
S315080037D00860002002BD00001C400040001BB70026
S315080037E000366E012040004000600040086000403E
S315080037F080E100E0080000400C600040D22F002065
S3150800380014A0004000E100E07047704780B5A54865
S315080038100021416041708170A5210170012003F0EB
S31508003820FFFC03F02FFD00F01EF8002002BD9E48A5
S315080038300168C90700D4704780B59C490A6822F414
S3150800384040620A6001684908490001600168090286
S31508003850FCD49748006810B1642004F033F9954900
S315080038600020086001BD80B59348016841F0807169
S3150800387001600120914908600020914904F04BF944
S315080038809049914A022008600020904908609049B2
S315080038909048016001211160834A8F49116040F206
S315080038A0014101654FF480308C49086001BD8148AB
S315080038B0006800281EBF7E480068002805D07E489C
S315080038C00068000E00F00100704700207047D12202
S315080038D002704170090A817081490A78C270501CC9
S315080038E00870042070472DE9F14F82B0DFF8F481A3
S315080038F000900026D8F800000099085C451DEDB236
S3150800390004F04AF901904FF6FF7B19E0B11E9DF8C5
S315080039100800C9B2FFF7D2FB0746594604F06EF90C
S3150800392083465646F9B24FEAC90001FA00F0044345
S3150800393009F10109B9F1040F17DB4FF06040046083
S31508003940F6B2FFF7B4FF90B3AE4230DA04F024F9CA
S315080039500199401A80B2B0F5FA7F28DC4FF0604032
S3150800396000680128ECD10024A146F6B216B95B27F7
S315080039700126D7E7012E06F1010A04D1D8F800007E
S3150800398000990F5CCDE7E91E8E4208BF5F46C8D096
S31508003990A91E8E4208BF4FEA1B27C2D0691E8E4257
S315080039A008BF5D27BDD0AE42B0D10027BAE74FF4B5
S315080039B0C87004F087F8AE420CBF00200120BDE8AD
S315080039C0FE8F48490968415C0429A8BFFFF78BBFE9
S315080039D0012070472DE9F04D324D6E78002E5ED0ED
S315080039E004F0DAF8834631460020FFF754FA044615
S315080039F0FF2CA04602D10020687050E0202EB4BFEC
S31508003A0037462027FFF790F96860AF70DFF8D8A02F
S31508003A1004E04046FFF788F96860AF706878C0B17F
S31508003A2004F0BAF8A0EB0B0080B2B0F5FA7F10DC10
S31508003A30A8780028F2D1F61B6E70F6B2002EEDD0EB
S31508003A40DAF8000018F80080202EB4BF3746202781
S31508003A50DFE7002E04BF6878002818D1A878B0B927
S31508003A6020480068205C851EE9B22046FFF731FB36
S31508003A70122808D1E9B22046FFF7D5FA21461220C6
S31508003A8004F098F906E0204604F0DEF802E000208B
S31508003A906870A8702046BDE8F04DFFF7B9B9BDE8D3
S31508003AA0F08D0000F02F0020800E00E0001000E0EE
S31508003AB034000040100004E0FCED00E0040004E0DF
S31508003AC020A10700F00004E0000E00E0040304E073
S31508003AD055CEACC5B00F00E00D00010000E100E0D6
S31508003AE0D62F00203C240020442400202DE9F0474E
S31508003AF00446884691469A4600F0E3F9002801BF35
S31508003B0025460FF2DC30285C012823D1DFF8A463B0
S31508003B1056F8257003F07AFB0021B9803980798040
S31508003B2003F07AFB06EB8500066903F06FFBDFF806
S31508003B3088230021B18031807180A95403F06CFB81
S31508003B4004F0E3FA53464A4641462046BDE8F047A4
S31508003B5004F0A2B92120BDE8F08710B5044604F0A8
S31508003B609EFADFF8500300EB84000069808810BDD8
S31508003B702DE9F84381464C46DFF8380300EB84000C
S31508003B8088460669484600F09CF908B1012037E0E6
S31508003B90DFF82453605D05EB440760B1B888718887
S31508003BA0884208D103F032FB665D0021615503F0B7
S31508003BB033FB304624E0484604F071FAB088F0B189
S31508003BC003F024FB71880FF224328919897988F861
S31508003BD000104FF6FF78718832F8142000F0EBF8E1
S31508003BE07180B1884144B18003F016FB605D20B155
S31508003BF0B888404504BF3088B880002000E02620F9
S31508003C00BDE8F283F8B51F46044638780D461646D1
S31508003C1008B1B04208D30020287005E03878411C66
S31508003C2039709DF80010415500A92046FFF7A0FFFE
S31508003C30002855D19DF800008028F5DA397819B999
S31508003C400A2818BF0028EFD0B14207D300203870E1
S31508003C509DF800000D2818BF0028E5D09DF8000043
S31508003C60082818BF7F280CD138780028DCD0401ED9
S31508003C7038700021C0B2415520468DA100F057F892
S31508003C80D2E73878801C8642BCBF0D208DF800002C
S31508003C909DF80010204600F038F89DF800006138BD
S31508003CA01A2804D29DF8000020388DF800009DF8E7
S31508003CB000000D2818BF0A28B0D1397800204855C9
S31508003CC09DF800000D2805D10A21204600F01DF8B0
S31508003CD0002603E00D21204600F017F83E7000206C
S31508003CE0F2BD70B582B0044600200D4616468DF822
S31508003CF0000001E0FFF734FD00AB324629462046B6
S31508003D00FFF780FF0028F5D176BD02B5012200A98C
S31508003D1000F057F802BD80880FF2BC1333F8111073
S31508003D20891A884201DA01207047002070472DE978
S31508003D30F047824656460FF2A810305C01280D4619
S31508003D4036D15C480FF2AC1850F826700FF2941969
S31508003D50002414E003F05AFAB98801B901243A8814
S31508003D6015F8011BD2199171398839F8162000F017
S31508003D7022F83980B988491CB98003F04DFA2878A9
S31508003D8088B1002251463846FFF7C5FF0028E1D121
S31508003D901CB1504604F0C3F8002416F808000028A1
S31508003DA0EFD1222005E0504604F0B9F8002000E0E3
S31508003DB00120BDE8F087491C91FBF2F302FB1311C1
S31508003DC070472DE9F84F804647460FF21410385CC5
S31508003DD001288B46164638D136480FF2181950F87E
S31508003DE027400FF2001A002514E003F00FFAA18805
S31508003DF001B9012522881BF8011B12199171218826
S31508003E003AF81720FFF7D7FF2180A188491CA1801F
S31508003E1003F002FA3046461EC0B288B10022414677
S31508003E202046FFF778FF0028DFD11DB1404604F091
S31508003E3076F8002517F809000028EFD1222005E0BA
S31508003E40404604F06CF8002000E00120BDE8F28F3F
S31508003E5080B501460FF288028A5C012A05D1154A07
S31508003E6052F821108A88002AFCD104F0ADF8002007
S31508003E7002BD0CB438B504460D4604F07DF804AB13
S31508003E802A4621460D48FEF73CFE0FF2540120460D
S31508003E90415C012907D1074951F82000808810B1F3
S31508003EA0204604F03CF832BC00205DF80CFB00000C
S31508003EB008200800D4240020942D0020897F0008BB
S31508003EC07047042806DA0FF21801415C481E804143
S31508003ED0C00F704701207047800080008000800076
S31508003EE00101010180008000800080004000400040
S31508003EF04000400001010101002181F3118870474B
S31508003F0042DE704738B504460D46FFF729FC03F034
S31508003F107DF92946204603F083FE2B4622460FF2FA
S31508003F20CC110120FFF7A5FF29462046BDE83440FD
S31508003F30E6E72DE9F84F6548654D01682E1D4FF4F3
S31508003F40206A7165016AB16562490968F165416A65
S31508003F503166816A7166C16AB166016BF166806B0A
S31508003F60306796F8340040074CBFF76BB76BBB4613
S31508003F7004F0CFF90022584CDFF86081DFF8609131
S31508003F80F2648742014624BFA4F12003BB4231658F
S31508003F901DD357F8180F306457F8040F7064706D06
S31508003FA0C005C00D062815D1306C484512D34045CA
S31508003FB010D200884DF6426290420BD105F18C0072
S31508003FC06A68426040F2017A7268826002E032648E
S31508003FD0726483464348814202D2014600E0091DC5
S31508003FE0A14203D20B68B3F1CD3FF8D0601AB06492
S31508003FF0182105F1780004F0B7F9002003E0C0B2F3
S3150800400005EB80029167A34523D254F8041D494560
S31508004010F9D34145F7D2CA07F5D5002205EB820345
S315080040209B6F8B4203D0521CD2B2062AF6DB062AB5
S31508004030E9D1002814BF401E0520E0E7716F002271
S3150800404005EB8203521CDF6F9F67052AF8DBC5F86C
S315080040508C100146481EC9B20029EFD1706DC00503
S31508004060C00D02280AD0032815D0042816D0052822
S3150800407017D0062818D00C281CD01EE01A4801684C
S31508004080890748BF40F6021A1CD40068C00719D52C
S3150800409040F2025A16E040F6012A13E040F6022AD8
S315080040A010E040F6032A0DE0BAF5206F0AD140F673
S315080040B0042A07E040F6052A04E018B1242838BF88
S315080040C040F6072A5046BDE8F28F000004ED00E0EE
S315080040D00000002000E300E0D0230020F60C0108D1
S315080040E090210008980000201CA000400D0A5B41A2
S315080040F053534552543A25703A25645D0D0A00001B
S315080041002DE9F8430446DFF8F8030068255C002625
S31508004110E807B14648BF002020D400270FF204580C
S3150800412002E04FEA00197F1CFFB2AF4211DA3946A6
S315080041302046FEF7C3FF10F80800F90700F00F0045
S31508004140EFD549EA0002F1B22046FEF7BCFF761C1D
S31508004150E9E7F1B22046FEF7EDFD0120BDE8F2835E
S31508004160FF2180F826100021C173C18380F824102E
S3150800417081730168016370472DE9F64F83B0814664
S3150800418000208DF8010009F104050AE0687A09F1B2
S31508004190240148720120E87249469DF8000000F0A3
S315080041A0C1F903980026002760BB9DF8100000A9F6
S315080041B0FFF7DEFC002839D0262826D001214846FC
S315080041C000F0A2F97820B0468DF8000010260020ED
S315080041D08DF80100E87A0828E3D8DFE810F00A002D
S315080041E04D009700FD00FD0055016101BA00AA00C7
S315080041F0D7E7102ECAD09DF80000232838D108200A
S31508004200E872CEE79DF8100020B99DF8010005B0C8
S31508004210BDE8F08F0398401C0390401E00788DF887
S3150800422000009DF81000401E8DF81000B0469DF85D
S315080042300000672811D29DF800100FF2E830085CDC
S3150800424000F0300600F00F08400609D509F12401F0
S31508004250497A884504D2012702E07B2838BF102610
S315080042609DF800000A2818BF0D28B0D10120AFE735
S31508004270202E96D003203DE1102E1CBF9DF800008D
S315080042805F2800D027B199F824000C28F2DA83E7D2
S31508004290202E18BF302E48D199F824104944002002
S315080042A04874002409F11100029009F12400D0F89D
S315080042B00CA00DE01BF8010B00F02DF90199491C23
S315080042C00191491E0978814209D0641C0AF1100A35
S315080042D0DAF8040048B3DAF800B0029801900198B9
S315080042E000780028E6D19BF800000028EDD109F1F6
S315080042F024006C83C068698B00EB01108068E86154
S315080043000020A87289F824000220E87209F1240125
S31508004310687A487287B32B20087209F12400C0F81E
S315080043200480687A487204206AE70321484600F048
S31508004330EBF89DF8010000280AD0287B28B1D9F8A7
S31508004340041048468847002028734846FFF708FFA8
S3150800435027E79DF8010018B1484600F0EFF8F4E7A2
S315080043609DF80000232803D1484600F0E7F846E701
S31508004370202EEDD00420BDE09DF800002D2818BFA2
S315080043802B2806D1087200204860687A48720320F4
S3150800439036E722280CD10120FEF7D1FC09F12401C9
S315080043A0FF2888700DD00021FEF7C4FC052027E7FA
S315080043B07B28CED10120FEF7C2FC09F12401FF2893
S315080043C0887000F096800021FEF7B4FC09F12401FC
S315080043D010204872062013E76FB109F1240009F18D
S315080043E024014068497A01FB00800421E97209F139
S315080043F024014860D5E69DF80010782918BF582989
S3150800440008D109F12401496821B909F124011020CC
S315080044104872C6E603285AD0202E18BF302E56D129
S3150800442009F12403E8691B7A0278407809F1240126
S315080044302D2B496808BF4942752A08D134281AD055
S315080044400022312814BF4FF6FF70FF200FE0732AB1
S3150800445008D1312807BF6FF07F027F20294A47F627
S31508004460FF7004E00421484600F04EF861E79142E7
S31508004470A8BF884206DB0222484600F07EF80028DC
S31508004480F4D041E70621EEE79DF80000222820D166
S315080044900021484600F086F80028BAD00220AFE688
S315080044A09DF800007D280FD109F124008078FFF7D8
S315080044B027FE06460121484600F074F808B1022096
S315080044C0E872002EA5D102E0202EA2D00FB907204F
S315080044D010E009F124000A4980780968415CFF293F
S315080044E008BF082006D0012200A9FEF75AFD0028B9
S315080044F08FD002208DF800009DF8001016E7000006
S315080045003C2400200080FFFF027C1AB90822C273EF
S3150800451001745DE07047A0F141011A293CBF2030C3
S31508004520C0B2704738B50C4694F82450FFF7F3FF2D
S3150800453029194874681C84F8240031BD10B504464E
S31508004540206A017831B162290CBF01210221085C79
S315080045502A2807D1216BE28B01EB02112046496814
S31508004560884706E0042020742046616888470020B2
S3150800457020742046BDE810402AE010B5837B047BF2
S31508004580A34201D105211FE0846844F82310817BEA
S31508004590491C8173016A535C2A2B1CBF511801629E
S315080045A0012010BD10B5026A1278622A01D00421D2
S315080045B00AE000F12002FF24937994710122BDE8F4
S315080045C0104003EB0121D8E7FFF79EFF002010BD3E
S315080045D0F8B5044604F10805A86AE98A00EB011053
S315080045E00027866805E00220815D2A2918BF8619FA
S315080045F07F1CA879FFB287420AD230786228F2D1A6
S31508004600A06850F82700C0B2FEF702FC0120EBE7CD
S315080046100020A871A87FFF2803D0FEF7F9FBFF202A
S31508004620A877F1BD0000000000000000002020204F
S31508004630202000000000000000000000000000002C
S3150800464000000000200030300000000000000030AC
S31508004650003000004041424344454647484900006F
S3150800466000000000005A5B5C5D5E5F1010101010C1
S31508004670101010101010101010101010101010300C
S3150800468000000000005A5B5C5D5E5F0010B540F2FA
S31508004690A17403F0ACFE24FA00F0C0070BD5064C53
S315080046A0207803F0BBFE207803F042FF2078BDE8AF
S315080046B0104004F040B810BDD023002010B5DFF834
S315080046C034440FF218012078FEF706FB20780FF223
S315080046D01C01BDE81040FEF7FFBA0000286C69749B
S315080046E0746C6520656E6469616E00002C20616CCF
S315080046F06C206461746120726570726573656E748E
S3150800470065642061732062797465206172726179CB
S31508004710290D0A000178A1F130030A2B0AD3A1F169
S315080047204103062B38BF373904D3A1F16102062AA3
S3150800473003D257390907090E00E000214078A0F195
S3150800474030030A2B02D2401830380CE0A0F141039E
S31508004750062B02D24018373805E0A0F16102062A76
S3150800476003D240185738C0B270470809704710B5C9
S3150800477004F0EAFA02001AD0DE4C2078042A08BFB0
S315080047800FF22C0108D0062A08BF0FF2700103D0D9
S31508004790072A04D10FF2A801FEF79EFA03E00FF2EA
S315080047A0E801FEF799FA20780FF2101191E710BD8B
S315080047B068616C537461636B496E6974546F6B6599
S315080047C06E73204641494C454420776974682045F4
S315080047D04D4245525F454550524F4D5F4D46475FE6
S315080047E0535441434B5F56455253494F4E5F4D49CB
S315080047F0534D415443480D0A0000000068616C534C
S315080048007461636B496E6974546F6B656E73204689
S3150800481041494C4544207769746820454D424552C4
S315080048205F454550524F4D5F4D46475F564552537B
S31508004830494F4E5F4D49534D415443480D0A0000B8
S3150800484068616C537461636B496E6974546F6B6508
S315080048506E73204641494C45442077697468204563
S315080048604D4245525F454550524F4D5F5354414363
S315080048704B5F56455253494F4E5F4D49534D415430
S3150800488043480D0A0000000068616C537461636B4D
S31508004890496E6974546F6B656E73204641494C4581
S315080048A044207769746820456D6265725374617433
S315080048B075733A2025580D0A00000000546F6B6581
S315080048C06E7320617265207374696C6C2061637401
S315080048D0697665207768656E207573696E672074DA
S315080048E0686973206170706C69636174696F6E2E94
S315080048F00D0A00002DE9F04FC1B080680568FFF782
S31508004900DDFEA8B204F05AFC0446A8B204F096FAF2
S315080049108046A8B204F034FD764F8346002C3878DA
S315080049201ABF4FF6FF7188450FF27C212CD023461B
S31508004930AAB20FF20C11FEF7CFF900250FF2AC1947
S315080049400FF2AC1A0AE000A9725C38784946FEF7FD
S31508004950C3F9761CF6B2A642F5DB6D1CEDB25D45D1
S3150800496010DABBF1010F234603D17F2200F06EF85F
S3150800497006E02A4600F06AF838785146FEF7ACF9A0
S315080049800026E7E738785146FEF7A6F941B0BDE8B4
S31508004990F08F2DE9F047C0B0806804684768FFF7D4
S315080049A08DFEA0B204F00AFC8146A0B204F046FAD5
S315080049B08046A0B204F0E4FC4E4E0546B9F1000F5D
S315080049C030781ABF4FF6FF7188450FF2DC1132D0E6
S315080049D0A5F1010A15B1FFB2BA450BDA0FF2D411E7
S315080049E0FEF77AF930780FF2042153460022FEF7D3
S315080049F073F922E04B46A2B20FF24401FEF76CF9B6
S31508004A00012D08BF7F274B463A4600F01FF838A409
S31508004A1030782146FEF760F900270FF2D00805E046
S31508004A2000AA4146BA5CFEF757F97F1C3078FFB2F8
S31508004A304F45F5DB2146FEF74FF940B0BDE8F08754
S31508004A405B2532785D28256429203D00414600A86B
S31508004A5004F0BEB92DE9F047C2B080680668FFF7D2
S31508004A602DFEB0B204F0AAFB8146B0B204F0E6F916
S31508004A708246B0B204F084FC0646B9F1000F1CBFAA
S31508004A804FF6FF708245DFF8587E05D138780FF269
S31508004A901811FEF721F928E00FF27418002403E034
S31508004AA0504604F0A6F9641CB4421EDA002513E049
S31508004AB006FB09F0431E387809FB04524146FEF707
S31508004AC00BF93878032200A9FFF70BF900A8FFF7BE
S31508004AD021FE01A968546D1C4D45E9DB012E4B46A4
S31508004AE001AA0CBF7F21E1B2DAE759E02025580078
S31508004AF00D0A0000D02300202DE9F047C2B08068D7
S31508004B0007684468FFF7DAFDB8B204F057FB804639
S31508004B10B8B204F093F98146B8B204F031FCDFF874
S31508004B20C05D0746B8F1000F28781CBF4FF6FF7125
S31508004B30894504D10FF27001FEF7CEF830E07E1EEB
S31508004B4017B1E4B2A6420BDA0FF26801FEF7C4F811
S31508004B5028780FF2980133460022FEF7BDF81FE0C9
S31508004B6000260FF2AC0A10E02878A8F101033246B5
S31508004B7000F0E0FF2878032200A9FFF7B2F800A8A2
S31508004B80FFF7C8FD01A97054761C4645ECDB012FDA
S31508004B9008BF7F24434601AA2146484604F029F95E
S31508004BA042B0BDE8F08700006E6F7420666F756EC0
S31508004BB0640D0A004552524F523A20446573697291
S31508004BC0656420696E646578206973206F75742042
S31508004BD06F662072616E676520666F7220746869F9
S31508004BE07320746F6B656E0D0A000000202020206C
S31508004BF020202056616C69642072616E67652069A1
S31508004C007320255820746872752025580D0A0000EF
S31508004C106461746120627974655B2564206F66201F
S31508004C2025645D3A000000002DE9F043FDB0FFF76A
S31508004C3045FDDFF8AC4CDFF8AC8C20784CF24432FA
S31508004C4000F07BFF20780FF6CC41FFF770F8DFF80D
S31508004C50980C01880FF2883918237F221DA804F0C2
S31508004C60B7F800271DA849463A5C00F094FF7F1C58
S31508004C70182FF7D3DBA700F04DFF20784FF2640218
S31508004C8000F05BFF20780FF69C41FFF750F8DFF83D
S31508004C905C0C0188062300F026FF002500F078FF4B
S31508004CA06D1C062DFAD300F035FF20784FF26442CA
S31508004CB000F043FF20780FF67C41FFF738F8DFF85D
S31508004CC0300C018806237F2212A804F081F80025FB
S31508004CD012A800F05EFF6D1C062DF9D300F01AFF2E
S31508004CE020784EF2455200F028FF20780FF65441FE
S31508004CF0FFF71DF8DFF8FC0B00F0F3FE002500F0C7
S31508004D0047FF6D1C082DFAD300F004FF20784FF2F8
S31508004D106E4200F012FF20780FF63C41FFF707F8C5
S31508004D20DFF8D40B018814237F2214A804F050F866
S31508004D30002514A800F02DFF6D1C142DF9D300F0E2
S31508004D40E9FE20784FF2424200F0F7FE20780FF68F
S31508004D502041FEF7ECFFDFF8A40B00F0B3FE0025B8
S31508004D6009A800F016FF6D1C142DF9D300F0D2FE29
S31508004D7020784FF2624200F0E0FE20780FF60841F4
S31508004D80FEF7D5FFDFF8780B01880A237F220FA8E4
S31508004D9004F01EF800250FA800F0FBFE6D1C0A2D76
S31508004DA0F9D300F0B7FE20784FF2742200F0C5FE62
S31508004DB020780FF6EC31FEF7BAFF0125DFF8440B31
S31508004DC000F09CFE00F0A0FE9DF8012000F09EFE7B
S31508004DD06D1EF3D100F09EFE20784FF2762200F089
S31508004DE0ACFE20780FF6C831FEF7A1FF0125DFF8E3
S31508004DF0180B00F07CFE9DF8022000F087FE9DF857
S31508004E00032000F083FE6D1EF1D100F083FE2078AA
S31508004E104FF2766200F091FE20780FF6A831FEF781
S31508004E2086FF0125DFF8E40A00F068FE00F06CFE54
S31508004E309DF8012000F06AFE6D1EF3D100F06AFEAF
S31508004E4020784FF2634200F078FE20780FF688311A
S31508004E50FEF76DFF0125DFF8B80A00F048FE9DF859
S31508004E60022000F053FE9DF8032000F04FFE6D1E51
S31508004E70F1D100F04FFE20784FF2744200F05DFE4B
S31508004E8020780FF66431FEF752FF0125DFF88C0C07
S31508004E9000F034FE00F038FE9DF8012000F036FEE2
S31508004EA06D1EF3D100F036FE20784FF6097200F039
S31508004EB044FE20780FF64031FEF739FF0125DFF86A
S31508004EC0600C00F014FE9DF8022000F01FFE9DF80D
S31508004ED0032000F01BFE6D1EF1D100F01BFE2078AA
S31508004EE04EF2636200F029FE20780FF61C31FEF7B9
S31508004EF01EFF0125DFF82C0C00F000FE00F004FE72
S31508004F009DF8012000F002FE6D1EF3D100F002FEAE
S31508004F1020784EF26F6200F010FE20780FF6FC2122
S31508004F20FEF705FFDFF8000C00F0DBFD00F030FEB1
S31508004F306D1C082DFAD300F0EDFD20784EF26F3285
S31508004F4000F0FBFD20780FF6E021FEF7F0FEDFF813
S31508004F50DC0B00F0C0FD002505A800F01AFE6D1C4C
S31508004F60102DF9D300F0D6FD20784CF2563200F019
S31508004F70E4FD20780FF6BC21FEF7D9FE0125DFF8FF
S31508004F80B00B00F0BBFD00F0BFFD9DF8012000F05E
S31508004F90BDFD6D1EF3D100F0BDFD20784EF2453201
S31508004FA000F0CBFD20780FF6A021FEF7C0FEDFF853
S31508004FB0900B00F096FD00F0EBFD6D1C082DFAD362
S31508004FC000F0A8FD20784EF6735200F0B6FD207862
S31508004FD00FF68821FEF7ABFEDFF8680B04E000BF8A
S31508004FE0202558000D0A000000F075FD002505A8CB
S31508004FF000F0CFFD6D1C102DF9D300F08BFD207845
S315080050004CF24E2200F099FD20780FF65C21FEF74F
S315080050108EFEDFF8340B018810237F2219A803F0CF
S31508005020D7FE002519A800F0B4FD6D1C102DF9D384
S3150800503000F070FD20784CF6441200F07EFD2078D2
S315080050400FF63421FEF773FE0125DFF8000B00F09A
S3150800505055FD00F059FD9DF8012000F057FD6D1E25
S31508005060F3D100F057FD20784DF2430200F065FDBC
S3150800507020780FF61421FEF75AFE0125DFF8D00A2C
S3150800508000F035FD9DF8022000F040FD9DF8032054
S3150800509000F03CFD6D1EF1D100F03CFD20784CF28D
S315080050A04B2200F04AFD20780FF6EC11FEF73FFE82
S315080050B0DFF8A00A00F00FFD05A800F06AFD6D1CD8
S315080050C0102DF9D300F026FD20784CF6535200F047
S315080050D034FD20780FF6D811FEF729FEDFF8780A96
S315080050E000F0FFFC002500F053FD6D1C082DFAD3D7
S315080050F000F010FD20784CF2431200F01EFD2078D7
S315080051000FF69821FEF713FE0025DFF8500A0188EE
S315080051100223EAB200F0DCFC00F0F6FC9DF8012060
S3150800512000F0F4FC6D1C142DEFDB00F0F3FC207886
S315080051304CF2423200F001FD20780FF67021FEF79E
S31508005140F6FDDFF81C0A01885C237F2266A803F0B7
S315080051503FFE002566A800F01CFD6D1C5C2DF9D3EA
S3150800516000F0D8FC20784CF6431200F0E6FC2078D4
S315080051700FF64821FEF7DBFDDFF8E80900F0A2FC90
S31508005180002509A800F005FD6D1C142DF9D300F0C3
S31508005190C1FC20784BF2542200F0CFFC20780FF6A1
S315080051A03421FEF7C4FD0125DFF8BC0900F0A6FC92
S315080051B000F0AAFC9DF8012000F0A8FC6D1EF3D1B2
S315080051C000F0A8FC20784DF2463200F0B6FC2078B4
S315080051D00FF61821FEF7ABFD0125DFF8900900F060
S315080051E086FC9DF8022000F091FC9DF8032000F053
S315080051F08DFC6D1EF1D100F08DFC20784BF2532208
S3150800520000F09BFC20780FF6FC11FEF790FD0125B7
S31508005210DFF85C0900F072FC00F076FC9DF80120CE
S3150800522000F074FC6D1EF3D100F074FC20784DF28A
S31508005230433200F082FC20780FF6E011FEF777FD86
S315080052400125DFF8300900F052FC9DF8022000F035
S315080052505DFC9DF8032000F059FC6D1EF1D100F0AD
S3150800526059FC20784CF2433200F067FC20780FF6A0
S31508005270C011FEF75CFD0125DFF8FC0800F03EFCD6
S3150800528000F042FC9DF8012000F040FC6D1EF3D1B1
S3150800529000F040FC20784DF2423200F04EFC2078B7
S315080052A00FF6A011FEF743FDDFF8D00800F013FC57
S315080052B005A800F06EFC6D1C102DF9D300F02AFC31
S315080052C020784CF2545200F038FC20780FF69011F2
S315080052D0FEF72DFDDFF8A8080188062300F003FC79
S315080052E0002500F055FC6D1C062DFAD300F012FCC3
S315080052F020784CF2453200F020FC20780FF6781121
S31508005300FEF715FDDFF87C08018894237F2241A863
S3150800531003F05EFD002541A800F03BFC6D1C942DB2
S31508005320F9D300F0F7FB20784DF6540200F005FC9F
S3150800533020780FF65811FEF7FAFC0125DFF8480821
S3150800534000F0DCFB00F0E0FB9DF8012000F0DEFB3E
S315080053506D1EF3D100F0DEFB20784BF2346200F0CC
S31508005360ECFB20780FF63011FEF7E1FCDFF81C089D
S3150800537000F0B7FB00F00CFC6D1C082DFAD300F00A
S31508005380C9FB20784FF6017200F0D7FB20780FF69C
S315080053901411FEF7CCFC012502237F22002100F020
S315080053A097FB00F0B1FB9DF8012000F0AFFB6D1EE6
S315080053B0F2D100F0AFFB20784EF2231200F0BDFBCD
S315080053C020780FF6F801FEF7B2FC04237F220121AC
S315080053D003A803F0FDFC03A800F0DBFB6D1C042DFD
S315080053E0F9D300F097FB20784EF2754200F0A5FB42
S315080053F020780FF6E001FEF79AFC11237F2202219E
S3150800540000F063FB002509A800F0C3FB6D1C112DF5
S31508005410F9D300F07FFB20784EF2632200F08DFB73
S3150800542020780FF6C401FEF782FC04237F220321AD
S3150800543003A803F0CDFC002503A800F0AAFB6D1C09
S31508005440042DF9D300F066FB20784EF2635200F083
S3150800545074FB20780FF6A401FEF769FC04237F226B
S31508005460042104A803F0B4FC002504A800F091FB6D
S315080054706D1C042DF9D300F04DFB20784EF2621214
S3150800548000F05BFB20780FF68801FEF750FC01253B
S3150800549002237F22052100F01BFB00F035FB9DF857
S315080054A0012000F033FB6D1EF2D100F033FB2078AB
S315080054B04EF6793200F041FB20780FF66C01FEF7C4
S315080054C036FC11237F22062100F0FFFA09A800F016
S315080054D060FB6D1C112DF9D300F01CFB20784EF6ED
S315080054E0646200F02AFB20780FF64801FEF71FFCDD
S315080054F010237F22072105A803F06AFC002505A8CA
S3150800550000F047FB6D1C102DF9D300F003FB207843
S315080055104EF2241200F011FB20780FF62801FEF750
S3150800552006FC1A237F2208213AA803F051FC00251D
S315080055303AA800F02EFB6D1C1A2DF9D300F0EAFAF2
S3150800554020784EF2251200F0F8FA20780FF60801B6
S31508005550FEF7EDFB08237F22092101A803F038FC9A
S31508005560002500F015FB6D1C082DFAD300F0D2FAC1
S3150800557020784EF2261200F0E0FA20780FF2F47145
S31508005580FEF7D5FB0A237F220A210FA803F020FC89
S3150800559000250FA800F0FDFA6D1C0A2DF9D300F0BE
S315080055A0B9FA20784EF2271200F0C7FA20780FF2DF
S315080055B0D871FEF7BCFB012502237F220B2100F0E0
S315080055C087FA00F0A1FA9DF8012000F09FFA6D1EF7
S315080055D0F2D100F09FFA20784DF2452200F0ADFA9C
S315080055E020780FF2C471FEF7A2FB0423EAB20C215D
S315080055F003A803F0EDFB002603A84946325C00F039
S31508005600CAFA761C042EF7D36D1C102DEDDB00F0BC
S3150800561081FA20784EF2102200F08FFA20780FF2E5
S315080056209871FEF784FB00F075FA20784EF2112285
S3150800563000F083FA20780FF29C71FEF778FB00F0F1
S3150800564069FA20784EF2122200F077FA20780FF2E3
S31508005650A471FEF76CFB00F05DFA20784EF2132277
S3150800566000F06BFA20780FF2B071FEF760FB00F0DD
S3150800567051FA20784EF2142200F05FFA20780FF2E1
S31508005680BC71FEF754FB00F045FA20784EF215225D
S3150800569000F053FA20780FF2CC71FEF748FB00F0C1
S315080056A039FA20784EF2202200F047FA20780FF2D5
S315080056B0D471FEF73CFB04237F22132104A803F0D0
S315080056C087FB002504A800F064FA6D1C042DF9D3A5
S315080056D000F020FA20784EF2212200F02EFA2078E7
S315080056E00FF2C471FEF723FB00F014FA20784EF28D
S315080056F0742200F022FA20780FF2D871FEF717FB11
S3150800570000F008FA20784FF60D7200F016FA2078A5
S315080057100FF2D471FEF70BFB00250B23EAB2162114
S315080057200FA803F055FB00260FA84946325C00F087
S3150800573032FA761C0B2EF7D36D1C062DEDDB00F026
S31508005740E9F920784EF2564200F0F7F920780FF280
S31508005750AC71FEF7ECFA00F0DDF920784FF46542FB
S3150800576000F0EBF920780FF2A471FEF7E0FA00F0EA
S31508005770D1F920784EF2035200F0DFF920780FF2C3
S31508005780A471FEF7D4FA00250123EAB219210EA85E
S3150800579003F01EFB9DF8382000F0B8F96D1C062DA5
S315080057A0F2DB00F0B7F920784EF2015200F0C5F9A5
S315080057B020780FF28C71FEF7BAFA10237F221A218D
S315080057C005A803F005FB002505A800F0E2F96D1C05
S315080057D0102DF9D300F09EF920784EF2025200F00F
S315080057E0ACF920780FF26871FEF7A1FA28237F2218
S315080057F01B2130A803F0ECFA002530A800F0C9F9FF
S315080058006D1C282DF9D300F085F920784EF2502228
S3150800581000F093F920780FF24C71FEF788FA1223FC
S315080058207F221C2100F051F9002509A800F0B1F9E2
S315080058306D1C122DF9D300F06DF920784EF2512225
S3150800584000F07BF920780FF23071FEF770FA00F05D
S3150800585061F920784EF2582200F06FF920780FF29D
S315080058603471FEF764FA12237F221E2114A803F06E
S31508005870AFFA002514A800F08CF96D1C122DF9D387
S3150800588000F048F920784EF2592200F056F92078AF
S315080058900FF21071FEF74BFA00253423EAB21F21E6
S315080058A023A803F095FA002623A84946325C00F09F
S315080058B072F9761C342EF7D36D1C052DEDDB00F03E
S315080058C029F920784EF25A2200F037F920780FF29B
S315080058D0EC61FEF72CFA00F01DF97DB0BDE8F08307
S315080058E0D0230020542301080C2E01080E2E01088F
S315080058F0102E0108122E0108142E0108162E010872
S31508005900182E01081A2E01081C2E01081E2E010841
S31508005910202E01084D46475F434849505F4441548D
S31508005920410000004D46475F504152545F44415480
S31508005930410000004D46475F5445535445525F4465
S31508005940415441004D46475F454D4245525F4555D6
S31508005950495F3634000000004D46475F414E414CD2
S315080059604F475F5452494D5F4E4F524D414C0000D0
S315080059704D46475F414E414C4F475F5452494D5F34
S31508005980424F4F53540000004D46475F414E414C2D
S315080059904F475F5452494D5F424F5448000000003C
S315080059A04D46475F5245475F5452494D0000000037
S315080059B04D46475F3156385F5245475F564F4C5400
S315080059C0414745004D46475F565245465F564F4C40
S315080059D054414745000000004D46475F54454D5029
S315080059E05F43414C000000004D46475F5445535401
S315080059F05F54454D500000004D46475F4649425F9B
S31508005A0056455253494F4E004D46475F4649425FF9
S31508005A10434845434B53554D000000004D46475FEC
S31508005A204649425F4F4253004D46475F4349425FEE
S31508005A304F4253004D46475F435553544F4D5F56AB
S31508005A40455253494F4E00004D46475F4355535400
S31508005A504F4D5F4555495F36340000004D46475F58
S31508005A60535452494E4700004D46475F424F4152F4
S31508005A70445F4E414D4500004D46475F4D414E55EA
S31508005A80465F4944000000004D46475F5048595F4D
S31508005A90434F4E46494700004D46475F424F4F54D5
S31508005AA04C4F41445F4145535F4B45590000000048
S31508005AB04D46475F455A53505F53544F52414745E9
S31508005AC000000000018814237F2209A803F080B98A
S31508005AD000A803F07DB9018810237F2205A803F0EA
S31508005AE077B9018808237F2201A803F071B90188D4
S31508005AF002237F220DF1020003F06AB9018802230E
S31508005B007F2200A803F064B99DF800202078494652
S31508005B10FDF7E2B820783946FDF7DEB8222E0108EF
S31508005B20242E0108262E0108282E01082A2E0108EF
S31508005B302C2E01085146FDF7CFB84146FDF7CCB8E3
S31508005B402E2E0108302E0108322E0108342E0108A7
S31508005B50362E0108382E01083A2E01083C2E010877
S31508005B603E2E0108402E0108422E0108442E010847
S31508005B70462E0108482E01084A2E01084C2E010817
S31508005B804E2E0108502E0108522E0108542E0108E7
S31508005B9001A849462A5C2078FDF79EB84D46475F1E
S31508005BA04153485F434F4E46494700004D46475FBD
S31508005BB043424B455F444154410000004D46475F10
S31508005BC0494E5354414C4C4154494F4E5F434F4400
S31508005BD0450000004D46475F4F534332344D5F4200
S31508005BE04941535F5452494D000000004D46475FF6
S31508005BF053594E54485F465245515F4F46465345A2
S31508005C00540000004D46475F4F534332344D5F53AF
S31508005C104554544C455F44454C4159004D46475FF1
S31508005C2053454355524954595F434F4E46494700D9
S31508005C304D46475F4343415F5448524553484F4C8E
S31508005C40440000004D46475F5345435552455F4261
S31508005C504F4F544C4F414445525F4B455900000045
S31508005C604D46475F45544845524E45545F41444466
S31508005C7052455353000000004D46475F43424B458B
S31508005C805F3238334B315F44415441004D46475FDC
S31508005C90584F5F54554E45004D46475F4555495F39
S31508005CA036340000535441434B5F4E5644415441E9
S31508005CB05F56455253494F4E000000005354414326
S31508005CC04B5F4150535F4652414D455F434F554EDA
S31508005CD054455200535441434B5F414C5445524E30
S31508005CE04154455F4B455900535441434B5F424F1E
S31508005CF04F545F434F554E54455200005354414349
S31508005D004B5F4E4F4E43455F434F554E54455200E9
S31508005D10535441434B5F414E414C595349535F528B
S31508005D2045424F4F54000000535441434B5F4B4587
S31508005D3059530000535441434B5F4E4F44455F440B
S31508005D4041544100535441434B5F54525553545F99
S31508005D5043454E5445520000535441434B5F4E450C
S31508005D6054574F524B5F4D414E4147454D454E5452
S31508005D7000000000535441434B5F504152454E5476
S31508005D805F494E464F000000535441434B5F504114
S31508005D9052454E545F4144444954494F4E414C5F25
S31508005DA0494E464F00000000535441434B5F434160
S31508005DB04C5F4441544100004D554C54495F4E4593
S31508005DC054574F524B5F535441434B5F4B455953BE
S31508005DD0000000004D554C54495F4E4554574F52EC
S31508005DE04B5F535441434B5F4E4F44455F444154C8
S31508005DF0410000004D554C54495F4E4554574F528B
S31508005E004B5F535441434B5F414C5445524E4154AA
S31508005E10455F4B45590000004D554C54495F4E456A
S31508005E2054574F524B5F535441434B5F545255534B
S31508005E30545F43454E544552000000004D554C549E
S31508005E40495F4E4554574F524B5F535441434B5F3E
S31508005E504E4554574F524B5F4D414E4147454D4570
S31508005E604E5400004D554C54495F4E4554574F52B9
S31508005E704B5F535441434B5F504152454E545F4923
S31508005E804E464F004D554C54495F4E4554574F5258
S31508005E904B5F535441434B5F4E4F4E43455F434F11
S31508005EA0554E5445520000004D554C54495F4E45D9
S31508005EB054574F524B5F535441434B5F50415245E1
S31508005EC04E545F4144444954494F4E414C5F494EF4
S31508005ED0464F0000535441434B5F42494E44494E96
S31508005EE0475F5441424C4500535441434B5F434836
S31508005EF0494C445F5441424C4500000053544143C9
S31508005F004B5F4B45595F5441424C450053544143FE
S31508005F104B5F43455254494649434154455F5441B2
S31508005F20424C4500535441434B5F4144444954490C
S31508005F304F4E414C5F4348494C445F4441544100ED
S31508005F40535441434B5F5A4C4C5F44415441000003
S31508005F50535441434B5F5A4C4C5F53454355524942
S31508005F6054590000535441434B5F52463443455FEE
S31508005F704441544100000000535441434B5F52468C
S31508005F803443455F50414952494E475F5441424C5C
S31508005F9045000000535441434B5F47505F4441540A
S31508005FA041000000535441434B5F47505F50524FE6
S31508005FB058595F5441424C45000000005354414330
S31508005FC04B5F47505F53494E4B5F5441424C450027
S31508005FD021210FF22C00FDF795BF10B501F0DCF872
S31508005FE0044601F0D3F80246234604480FF220017E
S31508005FF00078BDE81040FCF76FBE0000D0230020F3
S3150800600072657365742D746573742E6300000000E1
S3150800601052455345543A25702D25700D0A00000047
S3150800602010B50446002003F0A1FD002003F0B2FDE0
S3150800603001F062F9012003F07AFC03F074FC10F019
S31508006040060018BF012003F010FF204604F008FBE5
S315080060502046BDE8104000F05BBC80B5022100F088
S31508006060D9F8009804F0FCFB01BD8068006800B10F
S315080060700120DFF8B8120FF2D0220870087800283D
S31508006080DFF8AC02D0F870130FF2B02014BF0FF28D
S31508006090C8230FF2CC23FDF7E5BA80B503F041FD1E
S315080060A0012808BF0FF2C42305D000280CBF0FF241
S315080060B0C4230FF2C823DFF878020FF2F022D0F8D3
S315080060C0B0130FF2C820BDE80050FDF7CBBA38B5BB
S315080060D00446A0680568DFF85802D0F8C0130FF226
S315080060E0D820FDF7BFFAEDB215B1012D07D00CE0A7
S315080060F00FF2CC20FDF7B6FA03F0A4FC05E00FF288
S31508006100D420FDF7AFFA03F0DAFC0FF2D820FDF73A
S31508006110A9FA2046BDE83240BFE7F8B504F0E9FD24
S31508006120054604F0A4FD0446284603F077FE064615
S31508006130DFF8FC010FF2CC22D0F880130FF2AC2066
S315080061402B46FDF78FFAAE420FF2C02705D032462E
S315080061500FF2C0213846FDF785FA14F1010F0FF248
S31508006160BC200FF2C02108BF0FF2C0220DD014B90F
S315080061700FF2C02209E0DFF8BC01B4FBF0F200FB25
S31508006180124028B90FF2C0213846FDF76BFA11E024
S315080061904FF47A71DFF8A0010078B4FBF1F201FB45
S315080061A0124100290EBF0FF2A82122460FF2B02194
S315080061B0FCF792FDBDE8F24059A0FDF753BA38B591
S315080061C0044603F0AEFC05005948D0F890130FF2C8
S315080061D0A02018BF0125FDF745FA03F070FCA0685A
S315080061E00068C0B204F07DFD02460FF298110FF266
S315080061F0B420FDF737FA0DB103F024FC2046BDE8BC
S3150800620032408AE7FFE700F111010FF2A020FDF7FF
S3150800621029BA012100A805F079B838B5044603F073
S3150800622080FC050018BF012503F049FC502001F049
S3150800623049FC03F04DFD03463AA204F111010FF2A1
S315080062408420FDF70FFA002D1CBFBDE8314003F08E
S31508006250F9BB31BD2DE9F84F0646894615464FF07C
S315080062607F0A6FF07F0B4FF0000803F05AFC04001A
S3150800627018BF012403F058FC002E8DF8000008D141
S315080062800126002003F053FC502001F01BFC374682
S315080062900FE0F6D57642F4E7802001F013FC03F010
S315080062A058FC8345B8BF83465045D8BF82468044CC
S315080062B07F1E012FF0DA9DF8000003F038FC0CB1C0
S315080062C003F0C0FBB9F1000F18BF89F800A015B19B
S315080062D098FBF6F028705846BDE8F28F10B500F026
S315080062E01AF804F11101BDE8104003460FF2F41242
S315080062F00FF2DC10FDF7B6B910B500F00CF803F094
S315080063001FF904F11101BDE81040034606A20FF279
S31508006310DC10FDF7A7B9044600220021012099E701
S315080063207D0D0A0043434100454400000D2400202A
S31508006330841D010840420F00D02300207B264E20F2
S315080063402674737D0D0A00005045522054657374F7
S31508006350204D6F6465000000656E61626C656400BF
S3150800636064697361626C65640000000061736C6542
S31508006370657000006177616B65000000656E657287
S315080063806779000073746174757300007B264E206C
S31508006390526164696F20706F7765722073746174D7
S315080063A065202674737D0D0A00000000706F7765FE
S315080063B072207374617465007B264E20000000000D
S315080063C0536C656570696E6720726164696F2E2EFD
S315080063D02E00000057616B696E6720726164696FF1
S315080063E02E2E2E00646F6E657D0D0A007B264E20CC
S315080063F0526164696F206368616E6E656C202674ED
S31508006400680000006368616E6E656C00202674750E
S31508006410000000005074694368616E00202674709D
S31508006420000000006672657100000000696C6C650A
S3150800643067616C0050657252616D526164696F43A1
S315080064406F6E666967000000667265714D487A006E
S31508006450207B667265714B487A3A256C7D00000090
S31508006460207B66726571487A3A256C7D00000000CB
S315080064707B264E2053657474696E67206368616E67
S315080064806E656C20616E642063616C69627261740A
S31508006490696E6720286173206E6565646564292EB8
S315080064A02E2E00002674687D0D0A00007B264E20DD
S315080064B06E6F7420696D706C656D656E7465647D4C
S315080064C00D0A00007B264E202674647D0D0A000006
S315080064D07B264E20267464205B64426D5D7D0D0A22
S315080064E00000000052535349000000007B264E204E
S315080064F0267464205B3830322E31352E3420756E82
S315080065006974735D7D0D0A00DFF82014DFF8203406
S315080065100A785A70486003F03FB82DE9F843DFF867
S315080065201044DFF810740FF23C490D466169491CA6
S3150800653016466161804640B1402814D0892820D08B
S315080065408D2817D08F2807D01DE06068401C606032
S31508006550387B10B39E211DE0E068401CE060387B64
S31508006560D8B1A22116E02069401C2061387BA0B171
S31508006570AD210FE0A068401CA060387B68B1B1214E
S3150800658008E0BB2106E042460FF2F0310120FDF794
S3150800659070FCC1214846FDF7B5FCB8F1400F2670DE
S315080065A025620BD16078401E6070C0B230B1608839
S315080065B0401C6080BDE8F14304F0D5BF0120387364
S315080065C0BDE8F18380B504F097FB0346DFF868035E
S315080065D00FF2E832D0F860140FF2D430BDE800505C
S315080065E0FDF740B830B5044683B0A068056868B2C0
S315080065F004F086FB01906BB20FF2EC300FF2D83242
S315080066000090DFF83403D0F870140FF2BC30FDF7B1
S3150800661029F86EA0FDF726F82046BDE83E40D1E7EA
S3150800662000B5DFF810130FF2DC32CB890FF2EC312C
S3150800663083B00091019300F111010FF2B430FDF718
S3150800664011F807BD8168DFF8EC220968D181E7E710
S315080066502DE9FE4F00218DF8081001248068008876
S315080066600090401E8041C00F019003F05AFA5FEA7D
S3150800667000090098DFF8BC72DFF8C06218BFA146AF
S3150800668001284FF000081BD030780FF2A831FCF72C
S3150800669023FB3078019921B10FF2A031FCF71CFBDE
S315080066A003E0009A4AA1FCF717FBFA8930780FF243
S315080066B09831FCF711FB30780FF29C21FCF70CFBA4
S315080066C0DFF87CA20025019818B90098ADB285427A
S315080066D03DDA30786D1C02A9FDF74AFA9DF80800E4
S315080066E0652834D0DFF85C02007820B104F077FE24
S315080066F008B104F0BBFFF88901F0E4F9DFF84802B5
S31508006700007860B19AF80000504400F8034CA4B22F
S315080067109AF800105144200A01F8020C641C002063
S3150800672038735046FFF7F0FE5FEA00080FD101F014
S3150800673033FA8346387B0028C5D101F02DFAA0EB41
S315080067400B0080B2B0F57A7FF4D94FF001083078A3
S315080067500FF20C31AAB2FCF7BFFA30780FF21C31EF
S315080067604246FCF7B9FADFF8E4010FF22C31028849
S315080067703078FCF7B1FA30780FF23C31FCF7ACFA16
S31508006780DFF8AC4130782178002914BF0FF2443184
S315080067900FF24831FCF7A0FA03F0B4FA28B1E2691F
S315080067A030780FF24031FCF797FA226A30780FF208
S315080067B06031FCF791FA642001F084F9B9F1000F11
S315080067C018BF03F03FF9BDE8F78F00000D0A000077
S315080067D02575000038B500F039F800F030F818BF14
S315080067E00124FCF779FA03F06AF903F028FA01E0C4
S315080067F000F007F89DF800006528F9D103F027FA9C
S3150800680019E0287800A9FDF7B3B938B500F01EF8E5
S3150800681000F015F818BF0124FCF75EFA03F04FF9EB
S3150800682003F01FFA01E0FFF7ECFF9DF8000065286A
S31508006830F9D103F037FA0CB103F004F931BD0400BD
S31508006840DFF8F8500FF210112878704700208DF8FD
S31508006850000003F066B92DE9F041DFF8E0400FF2D9
S31508006860E0212078FCF738FA0FF2E4260FF2D82850
S31508006870DFF8CC70002515E0EA5D20784146FCF784
S315080068802BFA681005EB90708010B5EB800007D1E5
S315080068903878854204DA20782A463146FCF71CFA0D
S315080068A06D1CEDB23878401C8542E5DBBDE8F08109
S315080068B0806823490068087070472DE9F843044644
S315080068C00025A0681D4E07680FF29029DFF8708032
S315080068D0781CC7B2802F06DAA06800EB85004068EE
S315080068E007F8080005E030786B1C7A1E4946FCF765
S315080068F0F3F96D1C042DEBDBBDE8F1831048142178
S31508006900017001214A1E0A54491C8029FAD370478E
S315080069100F4A07480021116041608160C16001612A
S315080069204161816141800B4A11607047142400203F
S315080069301C2700201C240020841D0108D0230020C9
S31508006940402F00200E2400200D240020E02D0020DA
S31508006950E42D0020EC2D00202765276E642E2E2EB0
S31508006960000000007068792D636F6D6D6F6E2D7471
S31508006970782D746573742E6300000000656D62657A
S3150800698072526164696F5472616E736D6974436F94
S315080069906D706C65746549737243616C6C62616392
S315080069A06B207374617475733A203078257800000B
S315080069B07B264E2026746464426D7D00616374757F
S315080069C0616C506F776572007B264E20267464646E
S315080069D0426D202674647D007265717565737465F1
S315080069E064506F7765720000737461747573000084
S315080069F07B264E2026746475732026743278757348
S31508006A007D0000007472616E736D69742064656C34
S31508006A106179202864656329000000007472616E3C
S31508006A20736D69742064656C6179202868657829B6
S31508006A30000000005478696E67200000696E666978
S31508006A406E69746500000000207061636B6574737D
S31508006A502025752075732061706172742E200000E0
S31508006A600D0A2575207061636B65747320747261F5
S31508006A706E736D69747465642E0D0A004C617374C7
S31508006A80207061636B6574207374617475733A2042
S31508006A9030782532780D0A004C6173742070616372
S31508006AA06B6574206261636B6F66663A2030782581
S31508006AB032780D0A000000004672616D6520706527
S31508006AC06E64696E6720696E206C61737420414339
S31508006AD04B3A20005965732E0D0A00004E6F2E0D95
S31508006AE00A0000005346442074696D6520287669BB
S31508006AF061205346442073656E742063616C6C6232
S31508006B0061636B293A2030782532780D0A00000037
S31508006B105346442074696D65202876696120545867
S31508006B2020636F6D706C6574652063616C6C62615F
S31508006B30636B293A2030782532780D0A0000000068
S31508006B40206C656E3A200000307825782000000019
S31508006B500D0A307825783A20000000007061796CBB
S31508006B606F6164206279746520696E6465783A207D
S31508006B702564206973206F7574206F662072616EB4
S31508006B8067652E20617267756D656E7420256420B1
S31508006B9069676E6F7265642E0D0A00002DE9F04173
S31508006BA084B000F033FB00210FF22C2400AD54F81A
S31508006BB02120926800F04AF8F9DB00F02DFB002747
S31508006BC0DFF864620FF2642800F045F87F1C032F93
S31508006BD0FADB00F01BFB002154F82120D26800F0F4
S31508006BE035F8F9DB00F018FB0FF25828002700F0FB
S31508006BF032F87F1C032FFADB00F008FB002154F85B
S31508006C0021205368126842EA034200F01FF8F6DBB7
S31508006C1000F002FB00240FF2442755F824303078A0
S31508006C2004F141023946FCF757F8641C032CF4DBDF
S31508006C303078DFF8F011096889064CBF0FF2382161
S31508006C400FF24421FCF748F8BDE8FF8145F82120FA
S31508006C50491C0329704755F82730307807F1410257
S31508006C604146FCF739B8806801784368A02905DBF6
S31508006C7001F007000122090902FA00F30A29DFF8E0
S31508006C80A8010078A4BF0A39C9B203290BDA0FF2A2
S31508006C90481252F82120DBB2136101F141020FF2CA
S31508006CA0F811FCF719B81FE0806801784368A02935
S31508006CB005DB01F007000122090902FA00F30A2997
S31508006CC0DFF864010078A4BF0A39C9B203290BDAD0
S31508006CD00FF2041252F82120DBB2536101F141028E
S31508006CE00FF2EC11FBF7F8BF43220FF2C411FBF7C2
S31508006CF0F3BF70B58068017803790124A0294FF0A5
S31508006D00FF3206DB01F00702090913B104FA02F3A0
S31508006D10DBB20A29DFF810010078A4BF0A39C9B224
S31508006D20032916DA0FF2B00555F821500C3516006E
S31508006D3006D42E6804FA02F2D24332401343DBB279
S31508006D402B6001F14102BDE870400FF29C11FBF780
S31508006D50C3BFBDE87040C7E7F8B5806801784368E7
S31508006D60DFF8C4000078A0294FF0FF350CDB01F0EE
S31508006D7007050909102B05D3BDE8F4400FF2801169
S31508006D80FBF7AABFAA0093400A29A4BF0A39C9B2C9
S31508006D9003291EDA0FF2400252F82140221D2E0066
S31508006DA00AD42668176846EA07460F27AD0007FA89
S31508006DB005F526EA05052B439DB225601C0C1460D3
S31508006DC001B0BDE8F04001F141020FF29001FBF776
S31508006DD083BFBDE8F84087E700B0004000B4004034
S31508006DE000B800400146104889680E4A09680078CC
S31508006DF0C9B2002911680AD041F020011160116852
S31508006E00890654BF0FF220110FF20C1104E021F08D
S31508006E10200111600FF22811FBF75EBF0FF2301048
S31508006E2004F097BC00BC0040D02300204750494FCF
S31508006E305F502563494E20202020203D20307825AC
S31508006E40580D0A004750494F5F5025634F55542047
S31508006E502020203D20307825580D0A004750494FFC
S31508006E605F502563434647482F4C203D2030782500
S31508006E7034580D0A0000000053574A2044697361CC
S31508006E80626C65640D0A000053574A20456E6162BC
S31508006E906C65640D0A0000004750494F5F50256332
S31508006EA0534554203D20307825580D0A000000002F
S31508006EB0546865206F6E6C79206C6567616C20700C
S31508006EC06F7274732061726520412D25630D0A0067
S31508006ED04750494F5F502563434C52203D20307838
S31508006EE025580D0A000000004750494F5F5025639A
S31508006EF04F5554203D20307825580D0A00000000D3
S31508006F00436F6E6669672073686F756C6420626587
S31508006F1020302D440D0A000044697361626C696E65
S31508006F20672053574A0D0A0043616E6E6F742064DA
S31508006F30697361626C652053574A0D0A00000000A8
S31508006F40456E61626C696E672053574A0D0A0000E8
S31508006F50442A0020150B010800000000000000006C
S31508006F6038B5012000F073FB002000F043FD794C92
S31508006F70206840F008002060FCF7E9FB00F02AFDD5
S31508006F80754900F038F88D78744BDD608D8805609A
S31508006F90CD88456000F026F800F0A4F8206820F0B7
S31508006FA01000206004F05FFC01F0AFF804F050FD1B
S31508006FB000F0E4FBFCF7C9FBBDE83140FCF7E5BB94
S31508006FC010B5FCF734FC01F08BF8654900F013F8AE
S31508006FD08C78624BDC608C880460CC88446000F056
S31508006FE001F810BD088910604889506088891860C2
S31508006FF0C889586070475B480A78C2604B785A4A15
S31508007000D360704710B500F0FAFA00F0E3FC00F020
S3150800701011F800F008F800F0F7FB01F06AF8BDE88F
S315080070201040FCF720BC4B48016821F010010160B4
S3150800703004F019BC48494B480A78C2604B784A4A5A
S31508007040D3608C78454BDC608C880460CC884460BF
S31508007050088910604889506088891860C88958600E
S3150800706040E0F0B50B68424C0F252468960005FAF7
S3150800707006F6344215D0002606EB820724FA07F7EF
S31508007080FF070BD5B70005FA07FC23EA0C0330F80F
S3150800709012C005FA07F707EA0C073B43761C042ECD
S315080070A0EADB0B60F0BDF0B50B68314CFF252468B0
S315080070B0D600B5402C4213D00025012605EBC207A1
S315080070C024FA07F7FF0708D506FA05F7BB43175C46
S315080070D006FA05FC0CEA07073B436D1C082DEDDB99
S315080070E00B60F0BD10B52248006808B11C4C07E0DB
S315080070F010BD10B51E48006808B1174C00E010BD59
S315080071001C4900222046FFF7CEFF01221A492046D5
S31508007110FFF7C9FF022219492046FFF7C4FF0022DC
S31508007120104900F031F80122104900F02DF802222A
S315080071300D4900F029F80322114900F025F8042228
S31508007140064900F021F8201DBDE8104005220D492A
S3150800715087E7000000BC0040B024002000B80040CB
S31508007160C024002000B0004000B4004004B0004035
S31508007170282A00200CB000400CB400400CB800408F
S3150800718004B4004004B80040201D6AE780B501F049
S315080071902EF90FF2200109E080B501F02CF90FF263
S315080071A040010204120E51F82210C0B201EB800011
S315080071B002BD0000554E4B004649420042544C0061
S315080071C0455854005057520057444700205357001B
S315080071D0435253004653480042414400464C54002B
S315080071E0242C0108282C0108802C0108A02C010851
S315080071F0A82C0108B42C0108C02C0108CC2C0108C5
S31508007200D42C0108E02C0108F02C0108EFF31180BA
S31508007210602181F31188704780F311887047000058
S315080072202B49087070470EB43CB5044628480078C8
S3150800723028B3FCF73CFB10B3FCF742FE0120FBF732
S315080072407EFD0546FF2D1AD0FBF76EFD0221FCF7E1
S315080072503EFB01462846FBF76DFD05AB224629464F
S315080072601C48FBF74EFCC0B230B12846FCF7A9FB18
S3150800727010B1042000F00BF82846FBF7C9FD33BC13
S315080072805DF810FB0C2200211348FBF7D6BF124904
S3150800729031F81020521C21F8102070470C49097843
S315080072A0A1B9002818BF012810D0042818BF05283E
S315080072B00CD0312818BF332808D037281EBF3B28E2
S315080072C04FF6FF71884201D00120704700207047B1
S315080072D0D52F0020A32F0008A02D0020302818BF86
S315080072E0322806D034281CBF3628382801D000207A
S315080072F0704701207047000010B51F481F4C0068F2
S315080073002060606048220021FBF797FF1C4821682F
S3150800731000780870002021680873216848730B20DC
S315080073202168887303202168C8734FF6FE712068A8
S3150800733001824FF6FF71418203F0A6FA21680876AA
S3150800734003F0A2FA2168487603F09EFA2168887647
S315080073500C4821680078C8760B492068096881625C
S315080073600A49097880F82C100948216800680863DA
S3150800737010BD002070470000582400204C2A002029
S31508007380CE2F0020682400205C24002060240020E2
S315080073906424002004F069B90000000062F30F229B
S315080073A062F31F42401810F0030308D0C91A1FD30E
S315080073B0DB0748BF00F8012D28BF20F8022D13006F
S315080073C030B414461546103928BF20E93C00FAD8CF
S315080073D0490728BF20E90C0048BF40F8042D89005A
S315080073E028BF20F8022D48BF00F8012D30BC704791
S315080073F0C91818BF00F8012DCB0728BF00F8012DC2
S3150800740070470000DFF864155120086070472DE9C1
S31508007410F0410546FCF78CF9DFF85415B0FBF1F698
S315080074204FF4F070B0FBF6F71E2D3FB201DBE81BF8
S3150800743004D5A8B2BDE8F04100F044BBFFF7E6FE6C
S31508007440804604F0A1FBDFF82C15DFF82C25012077
S3150800745048700721DFF8240500F041F8E91B09B256
S315080074607143C91C8908491EDFF81455416000F0AC
S31508007470BDF8DFF8F8743C68386820F040003860DA
S3150800748004F084FB3C602E6004F084FB04F08AFB65
S315080074904046BDE8F041FFF7BFBE38B50546FCF7E4
S315080074A047F9DFF8CC14B0FBF1F44FF4F070B0FBF9
S315080074B0F4F02D1A1E2D04DA92210FF20C50FCF767
S315080074C021FDDFF8B804DFF8B024072100F007F83B
S315080074D005FB04F1C91C8908491E416031BD0160DC
S315080074E00021416081604FF0007111607047DFF83C
S315080074F0842401215170D0E7DFF88804006800B9B8
S3150800750070472DE9F041DFF88054DFF880640024E5
S315080075102C6034604FF4A040706041F29A084046EF
S31508007520FFF775FF6F68FCF70BF9000142F210715F
S31508007530B0FBF1F000F5C870C01B00B24FF44871FB
S3150800754090FBF1F000B20828A8BF072004DA10F172
S31508007550080FB8BF6FF0070030604046FFF757FFC7
