:020000040800F2
:10000000000400207500000881000008810000083D
:10001000A70B090100000000010100570040000883
:10002000041200009F0A0008610D0008780500080E
:1000300000000000000000000000000000000000C0
:100040000000000000000000000000009B01000014
:10005000FFFFFFFF05480068202100EA010020B1F2
:100060000348016842688D46104770472C000040E5
:1000700000400008FFF7EEFF00F00DF800F042F836
:1000800005E00000854670474548008870474FF4FA
:10009000017000F09FB838B54FF20F04414D00F0E9
:1000A000C7F828B140F2052028806C80012032BDBD
:1000B0003D480068C00615D56888A0421ED1288832
:1000C00040F2022188421CBF40F20621884215D02E
:1000D00040F2011188421EBFB0F58A7F40F2111133
:1000E00088420BD0314C208A40F6A721884205D1A6
:1000F0002068FFF7C7FF6068804700BF002032BD5F
:100100000000000038B50400294872B601684908AB
:100110004900016000F0D2F823480068000910F09F
:1001200001000CBF2349244902E0CD2201F8012B34
:10013000224A9142F9D32249224A234B03E011F883
:10014000015B02F8015B9A42F9D32049204A00235F
:1001500001E001F8013B9142FBD3124A53884FF270
:100160000F05AB4240F205210AD113888B4205D01E
:1001700030B1180A012818BF022801D1194601E040
:1001800004B90021064801804CF23C30508000F058
:10019000C9F94FF40170BDE8324000F01BB800000F
:1001A000240C0020000000202C000040004000082B
:1001B000FCED00E00000002098000020000400207A
:1001C0000C12000800040020040400200404002095
:1001D0002D0C00200E4A302111600E4A11600E4A8B
:1001E000116010210D4A1160010A00290C4908BF55
:1001F000000208804FF20F004880BFF35F8F09486C
:10020000002101604160084808490860704700000B
:100210003020004030C8004030C0004010E00040B6
:10022000000000201C4000400400FA050CED00E036
:100230000020704780B500F0B8F90121062000F0D9
:10024000C1F9062000F0EEF90121072000F0BAF90B
:10025000072000F0DBF91748016821F01001016068
:1002600001BD0000052800D9704710B5DFE800F097
:100270001721030F1C17104C2088411E2180C0B984
:10028000072000F0DBF942F21070208010BD07203B
:1002900000F0C8F9BDE81040062000F0CFB9BDE875
:1002A0001040062000F0B2B9BDE81040062000F072
:1002B000B9B910BD00BC0040260C00207A4951207D
:1002C0000860704738B5054600F062F97749B0FB21
:1002D000F1F44FF4F070B0FBF4F02D1A1E2DBCBFFA
:1002E0004FF40170FFF776FF7148724A07210160F1
:1002F0000021416081604FF00071116005FB04F145
:10030000C91C8908491E416031BD6B4A01215170E9
:10031000D8E76B48016841F00101016001214160AB
:100320005120614908607047002070472DE9F0476F
:10033000624D614E2968814640F2DC580129C2466F
:100340005B48604F604C1DDA0221618039600068B3
:10035000C00348BF00F08FF8B86900F0030003281D
:1003600061D02868002803D5B86940F00200B86160
:100370004846FFF7D9FF5FEA000A1BD1286800282A
:1003800051D54EE061884FF6FF75A9421DD14F4807
:10039000018802237F22A01C00F066F96088A84231
:1003A00004BF02206080B869800703D4B86940F0B8
:1003B0000200B8610120B070608838600FFA8AF0DE
:1003C000FFF7A3FF5046BDE8F087B9698907EDD56F
:1003D0000068C00348BF00F04EF8B07808B140464E
:1003E000F1E7B868B968628810F0010003D10F2AFC
:1003F00008D2521C06E0890704D5217811B1032ADE
:10040000A8BFAA1892B2022A2070B8BF0222628046
:10041000386861888842CDD1B86900F003000328AC
:1004200001D0FFF776FF0020CDE710B5044628483D
:10043000017869B9C078072818BF092813D00328A4
:1004400018BF11280FD013281CBF15280B280AD05D
:100450002048016841F48071016004E000F03AF93D
:100460000620FFF761FF2046FFF760FF0028F5D167
:1004700010BD0220D9E70E480E4A0021416081607C
:10048000016821F00201016000210B4841704FF02A
:1004900000711160817801B9704780B500218170C9
:1004A0000620FFF741FF01BD0080004090D003000F
:1004B00010E000E004ED00E0280C00200412000829
:1004C0001C400040044000400004002008120008C6
:1004D00096070808384000400078704730B5DBB018
:1004E0000446214636A800F051F9002000904FF450
:1004F00002630B4A36A901A800F0D1FA0FF26C0290
:100500000FF2740001A900F02BFC054600F056F82C
:100510001DB12146284600F089F928465BB030BD60
:100520000404002080B5FFF7A4FFFFF7ADFDB0F590
:100530008A7F09D100F034FC00F098FC0028FBD041
:1005400040F21110FFF746FEFFF774FE00F028FCA2
:1005500000F0B2FC40F20120FFF73CFE002002BD9B
:10056000012A08BF00F031BC704700007B11000871
:10057000B7110008D9040008ED090008250A000891
:100580001A480068C00701D41948704719487047D5
:1005900080B5FFF7F5FF1849096801B9400802BDA9
:1005A00080B5FFF7EDFF400802BD144801218160CE
:1005B0004EF6BE21416001210160704710490120C3
:1005C00008607047C208430710B54CBF0D4B0E4B77
:1005D00003EB422200F00300800013680F248440E4
:1005E000A34301FA00F01843106010BD1C40004006
:1005F000001BB70000366E01204000400060004044
:100600000860004004B0004000B00040C108032969
:1006100007DA012100F007029140C00840020F4AAA
:1006200011507047C108032907DA012100F00702C1
:100630009140C00840020A4A11507047C10803297E
:100640000ADA084A02EB412101230A6800F0070098
:1006500003FA00F0504008607047000014B00040FA
:1006600010B000400CB0004030B5044610467F2862
:1006700008BF00204BF23462914283B01AD10823A4
:100680007F2240F6120100A8FFF7EEFF08220FF2CA
:100690003C0100A800F02BFD30B908237F2240F276
:1006A000A27100A8FFF7E0FF082200A9204600F091
:1006B00005FD37BD044D294300FB03111A462046B2
:1006C00000F0FCFC37BD000000000808FFFFFFFF42
:1006D000FFFFFFFF70B5274C25680646FFF760FF58
:1006E0002549B0FBF1F070432F303021B0FBF1F021
:1006F000032809D3616D41F0010161652168491B3F
:100700000903090B8142F9D370BD38B504000D46C9
:1007100005D0022C10D00FD3032C26D027E0174C85
:1007200045B1FFF73DFF1649B0FBF1F0401EB0F5B3
:10073000005F0CD2206018E04DB1FFF731FF69086F
:1007400001EB4000B0FBF5F0B0F5003F01D32020F5
:1007500032BD4108022C00F0010008BF094A02D056
:10076000012C02D1084A50601160002032BD2120C6
:1007700032BD00003820004090D00300100004E09B
:1007800020A1070068D8004068C80040017001221D
:100790004270012982700CBF80214021818000219C
:1007A000C18001811F4801600E218162016821F032
:1007B000100101600021416341627047F8B50D46A8
:1007C00004461949174F4FF0FF3008601646FE6285
:1007D00000207862386840F001003860FFF7EEFED4
:1007E000012C11D135B900F041FB00F0010080F07F
:1007F000010002E0284600F041FB38B938684008A3
:10080000400038600020F2BD0120F2BD786AB0429D
:10081000E4D3002EE2D0386840084000386016204B
:10082000F2BD000000F0004000A8004038B50446CA
:100830000D4600F009F800F007F82A462146BDE809
:1008400038401820FFF78CBE2A4621461820FFF7B3
:1008500087BE38B50446002020814AF6B43220789D
:1008600000A9FFF7ABFF08B11C2032BD9DF80000C6
:10087000032818BF182801D1182032BD042801D13F
:10088000172032BD012801D0212032BD002500E013
:100890006D1CA188EDB2091D8D420BDA281900F1FB
:1008A0000A01207840F2DD22FFF788FF0028EFD010
:1008B000262032BD0025002006E00146EDB22819B1
:1008C000007B00F027FC6D1CA188EAB28A42F4D3B9
:1008D000A27AE37A9B18FF2B01D0222032BD0B199C
:1008E0001D7BB5EB102F01D0232032BD5B7BC0B246
:1008F000834201D0242032BDA078824207D0401E1E
:10090000C0B2824201D1272032BD252032BD881CD1
:1009100020810220E080002032BD38B50446607896
:10092000012804D028D3032859D01DD324E02078EF
:10093000012816D13B2500A800F0A0FA0028FAD023
:10094000432000F042FA207840F2DD220021FFF738
:1009500035FF30B12846451EC0B20028F0D11B201B
:1009600032BD022060700FE000F09AFA00F039F812
:10097000A078401CA07007E0182032BDA078227833
:10098000411EC9B200F02FF82046FFF762FF0500B4
:1009900018BF00F085FA272DF0D0A8060BD52278D5
:1009A000A1781520FFF7DCFD002DEDD10320FFF726
:1009B00059FC002032BD680603D4182D18BF1C2D29
:1009C00007D121782846FFF731FF042060702846C0
:1009D00032BD172DE8D100F004F803206070172015
:1009E00032BD2278A1780620FFF7BABDF8B50446DB
:1009F0000D461646002706E0E088411C0019E180FC
:100A0000807A78557F1CBFB2B74209D2E08821892D
:100A10008842F1D32046FFF780FF0028ECD0F2BDDA
:100A20000020F2BD10B504462046FFF776FF0028EF
:100A3000FAD010BDF8B504460D4616461F4607E02D
:100A40003046A047294600F077FB05467F1E761CFE
:100A5000BFB2002FF4D12846F2BD38B50C4615467A
:100A600005E0014614F8010B00F066FB6D1EADB207
:100A7000002DF6D132BDF8B504460D461F46164688
:100A8000286823683A4631469847040005D1E8684B
:100A90003A463146FFF7E1FFE8602046F2BD10B567
:100AA000029C84720381426001604FF0FF31C1609B
:100AB0000021017410BD2DE9F84F8946044699F8CC
:100AC0001BB0D068A249BBF1800FA8BF4FF0800BCC
:100AD00088421E4651D1002E4DD0B06800904FF094
:100AE000FF38002509EB450A9AF848700DE0FFF73A
:100AF00065FDF80240F0006200984FF40063414643
:100B0000FFF798FF8046781CC7B20AF1480040788A
:100B1000B84204DA681CC5B2062D02DAE2E7FF2FFC
:100B2000E5D1D9F844006FEA0801884225D1A068D0
:100B3000736800BA4FEA5B0249469847C8B9E06853
:100B400005BAA06802BAB0685B464FF0FF31FFF704
:100B500071FFC04385420CD140F6A720A9F81000D0
:100B60000122A068736800BA09F11001103098479B
:100B700008B1422002E0172000E04320BDE8F28FD8
:100B80002DE9F04F0D4683B08046D5F804A02889A2
:100B9000ADF80400914605F1140606F11007042390
:100BA00052464046FFF767FF002870D1BAF80000B0
:100BB00040BA80B20090BAF8020040BA84B2E007AE
:100BC00048BF462063D4B4F5026FC8BF4E205EDC38
:100BD000002C5BD00098DFF87CB148B14FF604419F
:100BE000401A00F09C80FF3853D0FE3851D0ACE062
:100BF000287C08B151204AE08D2C28BF4F2046D2D6
:100C00002346321D00F0A9F8002840D1FA7E802A40
:100C1000A8BF802202F10C00844201BFB08840BA14
:100C200000F47F40B0F5007F2CD1F08840BA4EF23E
:100C30005031884202BF388A40F6A721884221D12C
:100C4000788A00F47F40B0F5807F01BFB06800BAB9
:100C5000DBF81C10884215D14FF6FF70388206F180
:100C600010014FF0FF30FFF7F8FEF16809BAC943F1
:100C7000884204BF387E042804D1787E122818BF29
:100C8000062801D0452002E0012028740020BDE89C
:100C9000FE8F287C002844D0042300F05DF8002853
:100CA000F5D1DAF8000006BA201F84B2DBF81C0088
:100CB000864238BF4820EAD3796DA019884228BF00
:100CC0004920E4D200984FF6035188420DD1B9F182
:100CD000000F0AD0D9F8002031460220904720B1F9
:100CE0004A20D4E7E01B84B2BE19002CCED0BDF858
:100CF00004008442B4BF274607463B4600F02CF868
:100D00000028C4D1B9F1000FECD0D9F804307A082A
:100D10005146304698470028E4D04B20B7E7287C5E
:100D200008B94120B3E7042C18BF4C20AFD16A6842
:100D3000042300F012F80028A9D14B462A46394670
:100D4000304603B0BDE8F04FB5E644209FE7000011
:100D5000E320BBDE000000085246294640468AE6F2
:100D600070B50D4604462889C107164601D480286F
:100D700003DA4F2070BDA87A78B93246294620465A
:100D8000FFF7FEFE0028F6D0172807D12868616813
:100D90008847172802D1002070BD502070BD000088
:100DA00080B54FF4E1310120FFF7AFFC3948022153
:100DB00081600121016009200921FFF703FCBDE8E2
:100DC000044004210A20FFF7FDBB3449CA685207DA
:100DD000FCD50860704710B5044603E014F8010B19
:100DE000FFF7F3FF20780028F8D110BD30B583B0AD
:100DF0000FF2BC0218CA00A9042218C1052100ADD7
:100E00000DE080B20A2390FBF3F30A2404FB1304E1
:100E1000E4B2184604F130034B5504B10A46491EAA
:100E200049B20029EDD500A8D2B21018FFF7D3FFC0
:100E300037BD10B5044620090A28ACBF3730303022
:100E4000C0B2FFF7C2FF04F00F000A28BDE810404F
:100E5000ACBF37303030C0B2B7E710B50446200A17
:100E6000FFF7E7FFE0B2BDE81040E2E70A4800689C
:100E7000800701D5012070470020704710B5044657
:100E8000FFF7F4FF20B1054800682070002010BD76
:100E9000012010BD54C8004048C800403CC8004074
:100EA00080B500A8FFF7EAFF0028FAD001BD0000D6
:100EB00030303030300000002DE9F84FFFF77EFB76
:100EC000FFF7EEFF0020FFF7CDF90FF26C18474D4A
:100ED0000FF2381BDFF818910FF2181A41A642A43E
:100EE0001EE05046FFF777FF0C27B9F81A00F840CC
:100EF00000F00F00FFF77AFF012FA4BF2E20FFF7AD
:100F000064FF3F1FF1D52046FFF765FF09F11A0086
:100F1000408EFFF76BFF5846FFF75DFFFFF7C0FFFE
:100F2000FFF74CFB0220FFF79DF900A8FFF7A6FF93
:100F30000028F5D19DF80000FFF747FF9DF800005D
:100F40000A2818BF0D28CCD0312804D032282ED042
:100F5000332831D0E2E70FF2F000FFF73CFF012029
:100F6000FFF7BCFA07460FF2F400FFF734FF2FB982
:100F70000520FFF777F90FF2F800CDE70420FFF71F
:100F800071F90FF2F800FFF726FFB80648BF0FF21D
:100F9000F80005D478064CBF0FF204100FF21010C1
:100FA000FFF719FF3846FFF758FF3046B4E7012036
:100FB000FFF758F9BDE8F18F00273046FFF70BFF28
:100FC000288A40F6A721884218BF4046A4D1781944
:100FD0007F1C90F8240020B1FFF7F7FEFFB2202F0E
:100FE000F5DBE2E70D0A0000206200000040000887
:100FF000000000080D0A45465220333253657269DD
:10100000616C2042746C2076000000000D0A312EC5
:101010002075706C6F61642065626C0D0A322E2041
:1010200072756E0D0A332E2065626C20696E666FD4
:101030000D0A424C203E20002A2A206E6F2061704B
:1010400070202A2A0D0A00000D0A626567696E2069
:1010500075706C6F61640D0A000000000D0A536525
:101060007269616C2075706C6F6164200000000013
:10107000636F6D706C6574650D0A000061626F725C
:101080007465640D0A0000000D0A584D6F64656DAB
:1010900020626C6F636B206572726F722030780013
:1010A0000D0A66696C65206572726F722030780077
:1010B0000D0A6572726F722030780000814212D280
:1010C00010185118401E491E92B2002A1EBF11F876
:1010D000013900F80139521EF6D1704711F8013B71
:1010E00000F8013B521E92B2002AF7D1704710B5AA
:1010F00000E0521E92B222B100F005F8F9D0181BA0
:1011000010BD002010BD10F8013B11F8014BA342A7
:10111000704700000A0242EA11214840C0F303115F
:10112000484080EA003041010206C9B2D20E41EACD
:101130000221484080B270470A0A4840C0B20821E4
:101140004308C00746BF034858401846491EF7D118
:10115000504070472083B8ED2748018A40F6A772B7
:10116000914202BF408A4FF47F41084203D10228D6
:1011700001DB0120704700207047F8B504461D4E82
:1011800001200D463070FFF7E7FF18B94FF40170EA
:10119000FFF720F829461848876A44F48070B8475A
:1011A000002131700FF2540618B9294644F400703A
:1011B000B847805DF2BD2DE9F041044688465600EF
:1011C000FFF7CAFF18B94FF40170FFF703F80A4898
:1011D000476A0023324641462046B8470FF21C05B5
:1011E00020B93346002241462046B847405DBDE85D
:1011F000F08100002C0C0020000008080002020210
:101200004B4B464700366E01EE0800000100FFFF21
:10121000FFFFFFFFFFFFFFFFFFFFFFFFFFFFFFFFDE
:10122000FFFFFFFFFFFFFFFFFFFFFFFFFFFFFFFFCE
:10123000FFFFFFFFFFFFFFFFFFFFFFFFFFFFFFFFBE
:10124000FFFFFFFFFFFFFFFFFFFFFFFFFFFFFFFFAE
:10400000B0EC0020C53B0108753401087934010883
:10401000A70A090100410008041203AC00579B01E4
:10402000DCDCC956000000000000000000000000B9
:104030000000000000000000000000000000000080
:1040400000000000BBED62AC082CFFFFFFFFFFFF8C
:10405000FFFFFFFF00E00708000000000000000075
:10406000AEDAD6F0D24BCC00FFFFFFFFFFFFFFFF21
:10407000FFFFFFFFFFFFFFFFFFFFFFFFFFFFFFFF50
:10408000F0FF002000000000E7FF0020E7FF002015
:10409000B0EC002064620108B23D010850E300204A
:1040A000A40F00200000080800000120FFFFFFFF10
:1040B000FFFFFFFFFFFFFFFFFFFFFFFFFFFFFFFF10
:1040C000FFFFFFFFFFFFFFFFFFFFFFFFFFFFFFFF00
:1040D000FFFFFFFFFFFFFFFFFFFFFFFFFFFFFFFFF0
:1040E000FFFFFFFFFFFFFFFFFFFFFFFFFFFFFFFFE0
:1040F000FFFFFFFFFFFFFFFFFFFFFFFFFFFFFFFFD0
:10410000B0EC0020C53B0108753401087934010882
:10411000813401087D34010885340108FC3401082C
:10412000FC340108FC340108FC340108FC340108AB
:1041300089340108FC340108FC340108C7990008DF
:10414000D70C0108FC340108FBA50008FC34010869
:10415000AB9D000893A40008FC340108FC3401085E
:10416000EDF8000899BA000819D50008C9DA000866
:10417000FC34010803DE00084BDE000803370108A9
:10418000D5590008C5A40008FC3401085F350108B2
:1041900070472DE9F84FDFF83C580FF29C010446B8
:1041A0002878002600F098FD0FF2BC2A0FF2845BFD
:1041B0000FF27058DFF8209804E0514600F08CFDB3
:1041C000701C86B22168287837017A185368CBB101
:1041D0004B4509D15269130018BF4A45F0D07A58AF
:1041E000414600F079FDEBE793687A58594600F0B4
:1041F00073FD20683818C2682878002ADDD00FF2D5
:104200003C51EEE70FF2AC0100F066FD28780FF2AA
:10421000CC0100F061FD28780FF2F00100F05CFDA8
:1042200028780FF2141100F057FD28785146BDE8A8
:10423000F44F00F051BD0000434F4D4D414E44201E
:104240005B504152414D45544552535D205B2D20FA
:104250004445534352495054494F4E5D0D0A202066
:1042600077686572653A20623D6275666665722C94
:104270002073313D696E74385F742C2073323D6950
:104280006E7431365F742C2075313D75696E7438EB
:104290005F742C2075323D75696E7431365F742CF5
:1042A0002075343D75696E7433325F740D0A0D0AE2
:1042B0000000000020202120202D20526563616C29
:1042C0006C73207468652070726576696F757320F1
:1042D000636F6D6D616E640D0A00000020205B74D9
:1042E00061625D202D20417474656D70747320745B
:1042F0006F2074616220636F6D706C6574652063FC
:104300006F6D6D616E640D0A00000000202020209A
:104310002A2A204E4F54453A20616C6C20696E70F9
:1043200075742076616C7565732061726520696EA5
:1043300020686578210D0A00202020202A2A2043A9
:104340006F6D6D616E647320617265204E4F5420F5
:10435000636173652073656E7369746976650D0AB0
:1043600000000000A0F141011A293CBF2030C0B27A
:1043700070472DE9F84F0546DFF86016A868006819
:104380000968DFF85066C0B2002410F80180B8F167
:10439000210FA34607DB30780FF2D001BDE8F84FBC
:1043A000202200F099BC00F0BFFC8246A14607E045
:1043B00019F80A00FFF7D6FF09F80A0009F1010908
:1043C000C145F5DB42460FF2E801504600F048FFD8
:1043D00040B94FF0010B05E030780FF2DC013A46AE
:1043E00000F07AFC2968200142185268130039D085
:1043F000641CDFF8E4954A45A4B2F3D14758BBF1F9
:10440000000FE9D1384600F03FFF4045EAD142466F
:104410005146384600F018FF0028E3D10FF2F82883
:104420000FF2183B0FF2980A04E0414600F054FCEA
:10443000641CA4B22868270139184A68130018BF01
:104440004A450FD03A588B683078514600F044FC0A
:1044500028683818C2683078002AE6D0594600F03B
:104460003BFCE5E7BDE8F18F0D0A00004572726F75
:10447000723A206C69737420617267756D656E7431
:1044800020746F6F206C6F6E672C207765206F6EC5
:104490006C7920737570706F727420757020746FF2
:1044A0002025752062797465732E0D0A00000000C6
:1044B0006D6F64756C65730025700D0A0000000057
:1044C000257020257000000070B5044688B0A068F3
:1044D000016801B10121DFF808552970406800B179
:1044E0000120DFF8006530700FF25C0001F0BAF8CF
:1044F000A068C16801B10121DFF8EC2411700069E6
:1045000000B10120DFF8E4142B78087008780790D8
:1045100004F111010FF25800069010780FF25802C2
:1045200005900FF25C000490012003907BA00290A4
:10453000307801900FF2500000900FF2540001F01B
:1045400091F808B070BD00005475726E696E6720F6
:104550006F66662074616773206E6F74207965746E
:1045600020737570706F727465640D0A000000002E
:10457000746578740000000068656164657200000D
:1045800064656C696D000000636F6D6D616E640041
:104590007B264E20566572626F73697479206F7046
:1045A00074696F6E732073657420746F3A0D0A26F8
:1045B00074750D0A2674750D0A2674750D0A267415
:1045C000750D0A2674757D0D0A000000DFF82014B1
:1045D000007C51F82020DFF8FC030FF2080100787E
:1045E00000F07ABB4349204572726F723A20257001
:1045F0000D0A000038B5DFF8DC43207846A500F04E
:1046000039FA20780FF2340100F066FB00F031FA3D
:1046100020780FF24C0100F05FFB207840A100F001
:104620005BFB20780FF2440100F056FB20780FF27C
:104630004801BDE8344000F04FBB0000456D6265A5
:1046400072204E6F64652054657374204170706CE5
:1046500069636174696F6E2076312E30000000004E
:1046600046656220323120323031360031353A35FC
:10467000303A3339000000000D0A0D0A0000000036
:104680002DE9F24F044682B0256BDFF8489390463F
:10469000002705E020A100F01FFB7F1CBFB21035F2
:1046A0006868B8B32E68DDF808A04FF0000B0EE084
:1046B0001AF8010BFFF756FE009016F8010BFFF7F2
:1046C00051FE0099C9B28142E7D10BF1010B1FFAEB
:1046D0008BFBC345ECD32068DFF8FCC23E013118E8
:1046E00032584B6899F80000634504D10FF2340149
:1046F00000F0F2FAD1E78B680FF2380100F0ECFA23
:1047000020683018C26899F80000002AC2D00FF261
:104710002C01EDE7BDE8F78F0D0A0000746167001A
:104720002C2000002D2D2D2D202570202D2D2D2D00
:104730000D0A00002020257020257000202D202546
:10474000700D0A002DE9F0439BB00EA80FF2A421D2
:10475000342200F0B9FF4FF000098DF80190A52038
:1047600001F002F801F052F8002201230F21104657
:1047700001F0BCF9050006D0002201230A211046F1
:1047800001F0B4F90546012300220F21184601F07B
:10479000ADF9060006D0012300220A21184601F0D7
:1047A000A5F90646012300220F21022001F09EF9FF
:1047B0005FEA000806D0012300220A21022001F04E
:1047C00095F9804601F098FB824C5DB1002E68D0CF
:1047D000B8F1000F6BD040F2E5110FF24C2001F060
:1047E00091FB04E0002E18BFB8F1000F62D084F8EE
:1047F0000090201D01F0B4FC201DFFF7FBFE0FF21E
:10480000382500F036F920780FF2802100F064FAA4
:1048100020786DA600F02AF9201D01F037FF00F086
:1048200028F920780FF2702100F056FA00F01DF9F7
:10483000201D01F09CFF00F01CF920780FF264218C
:1048400000F04AFA00F011F9201D03F0C6FB00F059
:1048500010F920780FF2582100F03EFA00F005F927
:10486000201D03F0DDFB00F004F920780FF24C214D
:1048700000F032FA00F0F9F8201D03F0EEFB00F032
:10488000F8F820780FF2402100F026FA00F0EDF859
:10489000201D04F033F84DA54DA60FF2A41801AF6A
:1048A0003FE0B8F1000F05D001202070A1E7022001
:1048B000FBE725702078FF289BD1002500A928461A
:1048C00001F056F938B99DF800000D2818BF0A28E4
:1048D00018BF2A28EDD06D1CEDB2032DEEDBE9E701
:1048E0008DF800009DF80010CA5D481C0A2A18BF08
:1048F0000D2A18BF002AF3D10D22CA558DF80000E9
:1049000001A99DF80020201D01F036FC9DF8002033
:1049100001A90EA800F04EFC9DF8009000208DF833
:10492000010000F09EF820780DF10103322201A968
:1049300001F068F90028D3D000F012FF04F0ACFABF
:104940009DF8010020B39DF8011001A8081810F887
:10495000010C09281CD100F088F89DF80100401EC8
:104960008DF8010001A99DF80120201DFFF788FEA8
:104970009DF801100020C85500F073F8002004E0F5
:1049800000F06AF89DF80000401C00F05DF8F7D3D5
:104990009DF804002128C6D100F067F84A460EA908
:1049A00001A800F007FCA9F101008DF8010000F05A
:1049B00058F8002000F048F8B5D200F04DF89DF806
:1049C0000000401CF6E700005D0D0A0025630000B2
:1049D0000D0A0000B0EC0020914100081CED002001
:1049E000E8EC0020E9EC0020EAEC0020EBEC0020F1
:1049F00094EE00200D000000000000000000000008
:104A000000000000000000000000000000000000A6
:104A10000000000000000000000000000000000096
:104A20000000000000000000706C6174666F726D21
:104A3000746573742E6300005B494E495420000076
:104A40000D0A3E20000000008DF800009DF80110C6
:104A50009DF8000088427047C25D2078294600F02A
:104A60003BB94146207800F037B92078314600F054
:104A700033B92078294600F02FB980B504F0B0FA98
:104A8000BDE8024000205DE600207047637261735C
:104A900068696E666F000000696E6974546F6B65BB
:104AA0006E7300007265736574737472696E67006B
:104AB000696E6974526164696F00000073656564B2
:104AC000506E726700000000736574506572546523
:104AD000737454780000000070B51346101802E09B
:104AE000A4192C705B1EDBB24BB101F00F06090953
:104AF000451E0A2E2846B4BF30243724F0E710188C
:104B000070BD2DE9F24F88B0804601A81446994641
:104B100001AD4FF0000B00278DF8000010E00127D9
:104B2000641E05A885420AD39DF800002E1A00F0E5
:104B3000B5F8002839D1B3445FFA8BFB01AD641C92
:104B40009DF800002E1A207800280BD0252803D0CD
:104B500017B905F8010BE4E7002F14BF0027641C08
:104B60002078010000F08F80B0F1250113D00B39BF
:104B7000092968D928395DD00B390ED0491E2CD0AF
:104B800008392AD0091F0BD0C91E09D0891E24D08C
:104B9000C91E4FD0C5E72520DBE759F8040BD8E73D
:104BA00059F804AB00F07AF8002873D1B3445FFAE7
:104BB0008BFB01AD002600E0761CF6B216F80A0069
:104BC0000028F9D19DF8200032465146C047002800
:104BD00060D1B3445FFA8BFBA3E759F8040B0021C3
:104BE000002803D52D2129704042012100220023F5
:104BF0004FF0000C02E0801B0CF1010C0FF20416C8
:104C000056F82360B042F6D25FFA8CF6002E08BF49
:104C1000002A05D0C9B206F130024A55491C0122CA
:104C20005B1C092BE4DBC9B230304855481CC0B2CC
:104C3000451976E759F8041B0222C9B22846FFF746
:104C40004BFF05466DE760780127782818BF582884
:104C5000F8D1641C002714F8010C322804D159F84B
:104C6000041B042289B2E9E734287FF458AF59F8CD
:104C700004AB04224FEA1A412846FFF72DFF042215
:104C80001FFA8AF1DBE700F009F818B906EB0B0010
:104C9000C0B200E0002009B0BDE8F08F9DF8200010
:104CA000F2B201A9404709A116E010B5084BC35C58
:104CB0000024012B07D113460A4601460548FFF799
:104CC00020FF00B90124204610BD00000D0A00009D
:104CD000E05E0008C35D00080CB480B502AAFFF7CF
:104CE000E4FF02BC5DF80CFB0CB438B5044604AA22
:104CF000FFF7DBFF05462046FFF7D5FF284632BC0D
:104D00005DF80CFB00CA9A3B00E1F505809698001F
:104D100040420F00A086010010270000E8030000B9
:104D2000640000000A000000DFF85814096801EB75
:104D300040107047DFF850241268815470472DE905
:104D4000F041040035D004F029FBDFF84014DFF80F
:104D500040340E78FF228046FE2EDFF838041BD147
:104D600000260E70DFF830C4DFF8306437781F702B
:104D7000002708E007F1010E07F805E0DCF8005015
:104D80007A555FFA8EF796F800E005687745F1DB13
:104D90000EEB050606F8012C1E78A6420BD2404603
:104DA00004F002FB052004F03AFB00211B2004F074
:104DB000B9FBFF201CE0361B1E70DFF8E4330E78D1
:104DC0000F78D3F800E0012507F80E50641E05683F
:104DD00017F805E081F800E0E4B2002CF0D17A5534
:104DE00000213046FFF7A6FF404604F0DDFA3046CA
:104DF000BDE8F08110B5044604F0D0FADFF8A01346
:104E00000968625C521C6254BDE8104004F0CCBAE0
:104E10002DE9F041054600F031F8044604F0BEFAF1
:104E2000DFF86823DFF86833DFF86863DFF8708342
:104E3000FF2D1FD0D8F800106F5C7F1E6F547F27A6
:104E4000D8F800E015F80E10394213D13168695CCA
:104E5000002705F80E701F787F1C1F70FF29376828
:104E600092F800E005F807E0157006BF2546FF241C
:104E70000D46DDE7BDE8F04104F096BA80B5DFF8F5
:104E800020130968415C090603D5FFF74DFF007840
:104E900002BDFF2002BD70B504460D4605F11F009E
:104EA0000004400D82B0C0B2FFF749FF0646FF2E56
:104EB0000CD02946FFF73EFF3CB1012000902B4665
:104EC00000223146204600F002F8304676BD73B528
:104ED00000F0BBF8085C15461E467119884203DADB
:104EE0004FF4B07100F0DAF866B1294601A800F07D
:104EF000D9F8024606989DF80410009033462046E3
:104F000000F001F873BD2DE9F843089CDFF88482B6
:104F10000546894616461F460BE04A5D0A54491C61
:104F2000B142FADBD8F80000BF1B751919F80090E0
:104F30000026FFB2BFB14846FFF7F6FE3018F11960
:104F40002029B2BF3E46C6F12006F6B2324624B949
:104F50000146284600F02EF9E4E7012C08BF294657
:104F6000F8D00021DCE7BDE8F1832DE9F04100F045
:104F70006CF882B01600255C88461F460ED0711969
:104F8000C9B2204600F04FF808B1182007E000979A
:104F900033462A4621464046FFF799FF0020BDE8E8
:104FA000F6810123E1E70A4600E0521C1378002B4A
:104FB000FBD1521A0223D2B2D7E7F8B5044601F169
:104FC0001F00C50402F11F00C0042D0E000E05B91C
:104FD000012500B90120854223D08542DFF8B46164
:104FE00010DA401BC0B2FFF7AAFE0746FF2F01D11F
:104FF0000020F2BD691EC9B2204600F02BF83168CE
:1050000047540EE08A420CD2411EC9B2204600F03D
:1050100021F804463068205CFFF7FAFE3168FF2073
:1050200060540120F2BD38B500F00FF80D46215C48
:105030002A462046FFF7C1FF28B129462046FFF740
:1050400079FE002032BD182032BD0446DFF8380159
:105050000068704704E0DFF83C211268805C491E5C
:10506000C9B20029F7D1704711B581B0DFF8180136
:1050700000680C469DF80410085C844203D34FF48A
:10508000F47100F00BF8214601A800F00BF804467B
:105090009DF80400FFF748FE201816BD0FF204101B
:1050A00000F030BF38B504460D46E9042078090EFB
:1050B000FFF7D0FF207005F01F0032BD80B5FFF76D
:1050C000D3FF007802BD10B51446FFF7CDFF047082
:1050D00010BD70B500F00AF800F004F800EB0620EF
:1050E00080B270BD064629462046E7E70D46691C9A
:1050F0000446C9B2E2E72DE9F541089C1F464CB3CE
:10510000254689B200A8FFF7CDFF0646B9B201A82F
:10511000FFF7C8FF07463046B84238BF3846C0F1EF
:105120002000C0B2A842B8BF05469DF80400FFF7B2
:10513000FBFD80469DF80000FFF7F6FDAAB207EBE5
:105140000801301800F036F8641BA919EF19A4B251
:10515000002CD5D1BDE8F38170B504460D4604F0AE
:105160001DF90D4B21781B68FF2908BFED5403D0B2
:10517000C9180E78EE540D702570BDE8704004F02B
:1051800013B9000018ED00201CED002070EE002087
:1051900015ED002024ED002028ED002014ED002066
:1051A00020ED00207061636B65742D627566666525
:1051B000722E6300814233D210185118401E491ECE
:1051C00010E011F8013900F80139121F11F8013906
:1051D00000F8013911F8013900F8013911F80139E5
:1051E00000F8013992B2042AEBDA92B2002A1EBF0B
:1051F00011F8013900F80139521EF6D1704711F843
:10520000013B00F8013B121F11F8013B00F8013B84
:1052100011F8013B00F8013B11F8013B00F8013B9C
:1052200092B2042AEBDA92B2002A1EBF11F8013BB7
:1052300000F8013B521EF6D17047130003D00A4616
:10524000194604F073B9704710B500E0521E92B2CF
:1052500022B100F012F8F9D0181B10BD002010BDCB
:1052600010B500E0521E92B22AB100F006F8F9D053
:10527000181B40B210BD002010BD10F8013B11F802
:10528000014BA3427047000000F10103810704D0E5
:1052900010F8011B89B18107FAD10268B2F101311E
:1052A000914311F0803F04BF50F8042FF6E710F847
:1052B000011B11B110F8011BFBE7C01A7047000079
:1052C00038B50446611D206A2368451A2079EAB280
:1052D000984708B1002032BD00F018F8601D206228
:1052E000012032BD38B50446002500E06D1CEDB24A
:1052F000685C0028FAD1207923682A46984718B9B3
:1053000000F004F8012032BD002032BD94F82900DD
:10531000281884F8290070472DE9F04F044683B01F
:10532000601D206204F1200704F1150078600E462C
:10533000002091467872DFF8608312E010B1601DA2
:105340002062164625B17D2000F065F901F8010DB7
:10535000206A7968884203D300F063F9002863D09B
:10536000761C3078002800F04D81252898F801102F
:1053700018BF26280AD07B281CBF7D28232802D1ED
:105380000029E5D0E0E798F80210F9E716F8012FB8
:10539000252A18BF262A04D100F03DF901F8012D75
:1053A000D6E726280BD151B101256E2A18BF4E2A07
:1053B00006D000F030F97B2001F8010D00E0002557
:1053C000317800204E2906D0542926D06E2902D0EB
:1053D000742922D034E098F8000059F804BB002862
:1053E000B6D03DB1206A7B2100F8011B411C21622F
:1053F0002821017000F015F9002815D000F008F9F7
:10540000002811D0002DA3D0206A292100F8011B0B
:10541000411C21627D2101709AE700F000F900280B
:1054200002D000F0F5F800287BD000F0FAF8002850
:1054300077D000F0F0F83A2001F8010D761C012039
:10544000317896F801E0A1F13002D2B2911E05291F
:105450003CD2BEF1640F18BFBEF1750F36D159F8BA
:10546000041B1FFA81FC00230121BEF1640FE246F8
:1054700009D15FEA0C4E06D56FEA0C0C0CF1010C59
:1054800001231FFA8CFCBCF1000F0AD04FF00A0E6A
:105490009CFBFEFC5B1C1FFA8CFCBCF1000FF5D1E1
:1054A0000BE05B1C09E0D7F800E00EF1010EC7F835
:1054B00000E04FF0200C0EF801CD9C460CF10103EA
:1054C0005FFA8CFC9445EEDB761C00E0002133781B
:1054D000721E002B00F09280322B18BF342B69D043
:1054E000482B5CD0582B5CD0632B0CD0642B1BD08A
:1054F000682B54D0702B18BF732B0BD0752B13D087
:10550000782B4ED01AE7206A411C216259F8041BFF
:10551000017017E700F083F818B100F079F800285F
:10552000F7D10020BDE8FE8F002919BF1FFA8AFAC3
:10553000514659F8041B89B229B900F06CF83020A3
:1055400001F8010DFEE60020642B0DD10A040BD5F5
:105550003B685B1C2D223B60B1F5004F03F8012D29
:1055600002D0494289B259B10A2291FBF2F20A23D0
:1055700003FB121100ABC0B2C154401C91B2F2E760
:105580000146481EC9B2002913D000A9C0B23A682A
:10559000415C521C3A60303102F8011DF0E700F026
:1055A00042F8022259F8041B206AC9B2FFF794FAA4
:1055B0002062C7E616F8010F682818BF48280BD1EB
:1055C00000F031F816F8011C206A32290AD159F886
:1055D000041B042289B2E9E7782818BF5828F1D0C3
:1055E000761EAFE659F804BB04224FEA1B41FFF7D1
:1055F00073FA206204221FFA8BF1D7E700287FF4A8
:105600009DAE9EE600F00DF800288AD0787A89E7F2
:105610005946204666E63968491C3960704759F892
:1056200004BB20464CE6206A302100F8011B411CD7
:1056300021627821017070470EB410B517490978BE
:105640008BB0002409B900200BE0154900910DAA88
:1056500000F01CF8014600A8FFF75EFE00B9012427
:1056600020460FE00EB410B58BB00D490091002418
:1056700000F00CF80DAA014600A8FFF74DFE00B996
:10568000012420460BB010BC5DF810FB05490978D9
:105690008DF8041070470000E9EC0020E8EC0020D1
:1056A000C35D0008B0EC002062B38B0708D0521E27
:1056B00011F8013B00F8013B00F024808B07F6D184
:1056C000830740F0208000BF103A07D330B4B1E820
:1056D0003810103AA0E83810F9D230BC530724BF74
:1056E000B1E80810A0E8081044BF51F8043B40F8A6
:1056F000043BD20724BF31F8022B20F8022B44BF11
:105700000B7803707047083A07D3B1E80810083ADD
:1057100040F8043B40F804CBF7D25307E4E700001D
:105720002D480068C00701D42C4870472C487047AA
:1057300080B5FFF7F5FF2B49096801B9400802BDA4
:1057400080B5FFF7EDFF400802BD03F0E4BF264837
:10575000012181604EF6BE21416001210160704748
:105760002249012008607047A52805D11E484DF642
:10577000AD6141600221016070471B480068C007AD
:1057800001D5012070470020704780B51849194A9B
:105790001020086018491948007858B103280CBF38
:1057A00000200120106040F651000860002004F045
:1057B00092FA06E0022010604FF40060086003F0E7
:1057C00063FF07210E4801600021016410200D498C
:1057D0000860002002BD00001C400040001BB70014
:1057E00000366E012040004000600040086000402C
:1057F00080E100E0080000400C600040CAFF00208B
:1058000014A0004000E100E07047704780B5A54853
:105810000021416041708170A5210170012003F0D9
:10582000C7FD03F0F7FD00F01EF8002002BD9E4802
:105830000168C90700D4704780B59C490A6822F402
:1058400040620A6001684908490001600168090274
:10585000FCD49748006810B1642004F021FA9549FF
:105860000020086001BD80B59348016841F0807157
:1058700001600120914908600020914904F039FA43
:105880009049914A022008600020904908609049A0
:105890009048016001211160834A8F49116040F2F4
:1058A000014101654FF480308C49086001BD814899
:1058B000006800281EBF7E480068002805D07E488A
:1058C0000068000E00F00100704700207047D122F0
:1058D00002704170090A817081490A78C270501CB7
:1058E0000870042070472DE9F14F82B0DFF8F48191
:1058F00000900026D8F800000099085C451DEDB224
:1059000004F042FA01904FF6FF7B19E0B11E9DF8BA
:105910000800C9B2FFF7D2FB0746594604F056FA11
:1059200083465646F9B24FEAC90001FA00F0044333
:1059300009F10109B9F1040F17DB4FF06040046071
:10594000F6B2FFF7B4FF90B3AE4230DA04F01CFABF
:105950000199401A80B2B0F5FA7F28DC4FF0604020
:1059600000680128ECD10024A146F6B216B95B27E5
:105970000126D7E7012E06F1010A04D1D8F800006C
:1059800000990F5CCDE7E91E8E4208BF5F46C8D084
:10599000A91E8E4208BF4FEA1B27C2D0691E8E4245
:1059A00008BF5D27BDD0AE42B0D10027BAE74FF4A3
:1059B000C87004F075F9AE420CBF00200120BDE8AC
:1059C000FE8F48490968415C0429A8BFFFF78BBFD7
:1059D000012070472DE9F04D324D6E78002E5ED0DB
:1059E00004F0D2F9834631460020FFF754FA04460A
:1059F000FF2CA04602D10020687050E0202EB4BFDA
:105A000037462027FFF790F96860AF70DFF8D8A01D
:105A100004E04046FFF788F96860AF706878C0B16D
:105A200004F0B2F9A0EB0B0080B2B0F5FA7F10DC05
:105A3000A8780028F2D1F61B6E70F6B2002EEDD0D9
:105A4000DAF8000018F80080202EB4BF374620276F
:105A5000DFE7002E04BF6878002818D1A878B0B915
:105A600020480068205C851EE9B22046FFF731FB24
:105A7000122808D1E9B22046FFF7D5FA21461220B4
:105A800004F080FA06E0204604F0C6F902E00020A7
:105A90006870A8702046BDE8F04DFFF7B9B9BDE8C1
:105AA000F08D0000F0FF0020800E00E0001000E00C
:105AB00034000040100004E0FCED00E0040004E0CD
:105AC00020A10700F00004E0000E00E0040304E061
:105AD00055CEACC5B00F00E00D00010000E100E0C4
:105AE000CFFF00201CED002024ED00202DE9F04721
:105AF0000446884691469A4600F0E3F9002801BF23
:105B000025460FF2DC30285C012823D1DFF8A4639E
:105B100056F8257003F042FC0021B9803980798065
:105B200003F042FC06EB8500066903F037FCDFF862
:105B300088230021B18031807180A95403F034FCA6
:105B400004F0A6FC53464A4641462046BDE8F047CD
:105B500004F0D9BA2120BDE8F08710B5044604F05E
:105B600042FCDFF8500300EB84000069808810BD20
:105B70002DE9F84381464C46DFF8380300EB8400FA
:105B800088460669484600F09CF908B1012037E0D4
:105B9000DFF82453605D05EB440760B1B888718875
:105BA000884208D103F0FAFB665D0021615503F0DD
:105BB000FBFB304624E0484604F015FCB088F0B109
:105BC00003F0ECFB71880FF224328919897988F887
:105BD00000104FF6FF78718832F8142000F0EBF8CF
:105BE0007180B1884144B18003F0DEFB605D20B17B
:105BF000B888404504BF3088B880002000E02620E7
:105C0000BDE8F283F8B51F46044638780D461646BF
:105C100008B1B04208D30020287005E03878411C54
:105C200039709DF80010415500A92046FFF7A0FFEC
:105C3000002855D19DF800008028F5DA397819B987
:105C40000A2818BF0028EFD0B14207D300203870CF
:105C50009DF800000D2818BF0028E5D09DF8000031
:105C6000082818BF7F280CD138780028DCD0401EC7
:105C700038700021C0B2415520468DA100F057F880
:105C8000D2E73878801C8642BCBF0D208DF800001A
:105C90009DF80010204600F038F89DF800006138AB
:105CA0001A2804D29DF8000020388DF800009DF8D5
:105CB00000000D2818BF0A28B0D1397800204855B7
:105CC0009DF800000D2805D10A21204600F01DF89E
:105CD000002603E00D21204600F017F83E7000205A
:105CE000F2BD70B582B0044600200D4616468DF810
:105CF000000001E0FFF734FD00AB324629462046A4
:105D0000FFF780FF0028F5D176BD02B5012200A97A
:105D100000F057F802BD80880FF2BC1333F8111061
:105D2000891A884201DA01207047002070472DE966
:105D3000F047824656460FF2A810305C01280D4607
:105D400036D15C480FF2AC1850F826700FF2941957
:105D5000002414E003F022FBB98801B901243A8839
:105D600015F8011BD2199171398839F8162000F005
:105D700022F83980B988491CB98003F015FB2878CE
:105D800088B1002251463846FFF7C5FF0028E1D10F
:105D90001CB1504604F008FA002416F80800002848
:105DA000EFD1222005E0504604F0FEF9002000E08B
:105DB0000120BDE8F087491C91FBF2F302FB1311AF
:105DC00070472DE9F84F804647460FF21410385CB3
:105DD00001288B46164638D136480FF2181950F86C
:105DE00027400FF2001A002514E003F0D7FAA1882B
:105DF00001B9012522881BF8011B12199171218814
:105E00003AF81720FFF7D7FF2180A188491CA1800D
:105E100003F0CAFA3046461EC0B288B1002241469D
:105E20002046FFF778FF0028DFD11DB1404604F07F
:105E3000BBF9002517F809000028EFD1222005E062
:105E4000404604F0B1F9002000E00120BDE8F28FE7
:105E500080B501460FF288028A5C012A05D1154AF5
:105E600052F821108A88002AFCD104F01AFA002086
:105E700002BD0CB438B504460D4604F0D5F904ABA8
:105E80002A4621460D48FEF73CFE0FF254012046FB
:105E9000415C012907D1074951F82000808810B1E1
:105EA000204604F081F932BC00205DF80CFB0000B4
:105EB0000820080074EE002094FD002047A200088E
:105EC0007047042806DA0FF21801415C481E804131
:105ED000C00F704701207047800080008000800064
:105EE000010101018000800080008000400040002E
:105EF0004000400001010101002181F31188704739
:105F000042DE704738B504460D46FFF729FC03F022
:105F100045FA2946204603F06BFF2B4622460FF236
:105F2000CC110120FFF7A5FF29462046BDE83440EB
:105F3000E6E72DE9F84F6548654D01682E1D4FF4E1
:105F4000206A7165016AB16562490968F165416A53
:105F50003166816A7166C16AB166016BF166806BF8
:105F6000306796F8340040074CBFF76BB76BBB4601
:105F700004F0B1FB0022584CDFF86081DFF860913B
:105F8000F2648742014624BFA4F12003BB4231657D
:105F90001DD357F8180F306457F8040F7064706DF4
:105FA000C005C00D062815D1306C484512D34045B8
:105FB00010D200884DF6426290420BD105F18C0060
:105FC0006A68426040F2017A7268826002E032647C
:105FD000726483464348814202D2014600E0091DB3
:105FE000A14203D20B68B3F1CD3FF8D0601AB06480
:105FF000182105F1780004F097FB002003E0C0B2FF
:1060000005EB80029167A34523D254F8041D49454E
:10601000F9D34145F7D2CA07F5D5002205EB820333
:106020009B6F8B4203D0521CD2B2062AF6DB062AA3
:10603000E9D1002814BF401E0520E0E7716F00225F
:1060400005EB8203521CDF6F9F67052AF8DBC5F85A
:106050008C100146481EC9B20029EFD1706DC005F1
:10606000C00D02280AD0032815D0042816D0052810
:1060700017D0062818D00C281CD01EE01A4801683A
:10608000890748BF40F6021A1CD40068C00719D51A
:1060900040F2025A16E040F6012A13E040F6022AC6
:1060A00010E040F6032A0DE0BAF5206F0AD140F661
:1060B000042A07E040F6052A04E018B1242838BF76
:1060C00040F6072A5046BDE8F28F000004ED00E0DC
:1060D0000000002000E300E0B0EC0020B23D010829
:1060E00090410008980000201CA000400D0A5B4170
:1060F00053534552543A25703A25645D0D0A000009
:106100002DE9F8430446DFF8F8030068255C002613
:10611000E807B14648BF002020D400270FF20458FA
:1061200002E04FEA00197F1CFFB2AF4211DA394694
:106130002046FEF7C3FF10F80800F90700F00F0033
:10614000EFD549EA0002F1B22046FEF7BCFF761C0B
:10615000E9E7F1B22046FEF7EDFD0120BDE8F2834C
:10616000FF2180F826100021C173C18380F824101C
:1061700081730168016370472DE9F64F83B0814652
:1061800000208DF8010009F104050AE0687A09F1A0
:10619000240148720120E87249469DF8000000F091
:1061A000C1F903980026002760BB9DF8100000A9E4
:1061B000FFF7DEFC002839D0262826D001214846EA
:1061C00000F0A2F97820B0468DF8000010260020DB
:1061D0008DF80100E87A0828E3D8DFE810F00A001B
:1061E0004D009700FD00FD0055016101BA00AA00B5
:1061F000D7E7102ECAD09DF80000232838D10820F8
:10620000E872CEE79DF8100020B99DF8010005B0B6
:10621000BDE8F08F0398401C0390401E00788DF875
:1062200000009DF81000401E8DF81000B0469DF84B
:106230000000672811D29DF800100FF2E830085CCA
:1062400000F0300600F00F08400609D509F12401DE
:10625000497A884504D2012702E07B2838BF1026FE
:106260009DF800000A2818BF0D28B0D10120AFE723
:10627000202E96D003203DE1102E1CBF9DF800007B
:106280005F2800D027B199F824000C28F2DA83E7C0
:10629000202E18BF302E48D199F8241049440020F0
:1062A0004874002409F11100029009F12400D0F88B
:1062B0000CA00DE01BF8010B00F02DF90199491C11
:1062C0000191491E0978814209D0641C0AF1100A23
:1062D000DAF8040048B3DAF800B0029801900198A7
:1062E00000780028E6D19BF800000028EDD109F1E4
:1062F00024006C83C068698B00EB01108068E86142
:106300000020A87289F824000220E87209F1240113
:10631000687A487287B32B20087209F12400C0F80C
:106320000480687A487204206AE70321484600F036
:10633000EBF89DF8010000280AD0287B28B1D9F895
:10634000041048468847002028734846FFF708FF96
:1063500027E79DF8010018B1484600F0EFF8F4E790
:106360009DF80000232803D1484600F0E7F846E7EF
:10637000202EEDD00420BDE09DF800002D2818BF90
:106380002B2806D1087200204860687A48720320E2
:1063900036E722280CD10120FEF7D1FC09F12401B7
:1063A000FF2888700DD00021FEF7C4FC052027E7E8
:1063B0007B28CED10120FEF7C2FC09F12401FF2881
:1063C000887000F096800021FEF7B4FC09F12401EA
:1063D00010204872062013E76FB109F1240009F17B
:1063E00024014068497A01FB00800421E97209F127
:1063F00024014860D5E69DF80010782918BF582977
:1064000008D109F12401496821B909F124011020BA
:106410004872C6E603285AD0202E18BF302E56D117
:1064200009F12403E8691B7A0278407809F1240114
:106430002D2B496808BF4942752A08D134281AD043
:106440000022312814BF4FF6FF70FF200FE0732A9F
:1064500008D1312807BF6FF07F027F20294A47F615
:10646000FF7004E00421484600F04EF861E79142D5
:10647000A8BF884206DB0222484600F07EF80028CA
:10648000F4D041E70621EEE79DF80000222820D154
:106490000021484600F086F80028BAD00220AFE676
:1064A0009DF800007D280FD109F124008078FFF7C6
:1064B00027FE06460121484600F074F808B1022084
:1064C000E872002EA5D102E0202EA2D00FB907203D
:1064D00010E009F124000A4980780968415CFF292D
:1064E00008BF082006D0012200A9FEF75AFD0028A7
:1064F0008FD002208DF800009DF8001016E70000F4
:106500001CED00200080FFFF027C1AB90822C27334
:1065100001745DE07047A0F141011A293CBF2030B1
:10652000C0B2704738B50C4694F82450FFF7F3FF1B
:1065300029194874681C84F8240031BD10B504463C
:10654000206A017831B162290CBF01210221085C67
:106550002A2807D1216BE28B01EB02112046496802
:10656000884706E0042020742046616888470020A0
:1065700020742046BDE810402AE010B5837B047BE0
:10658000A34201D105211FE0846844F82310817BD8
:10659000491C8173016A535C2A2B1CBF511801628C
:1065A000012010BD10B5026A1278622A01D00421C0
:1065B0000AE000F12002FF24937994710122BDE8E2
:1065C000104003EB0121D8E7FFF79EFF002010BD2C
:1065D000F8B5044604F10805A86AE98A00EB011041
:1065E0000027866805E00220815D2A2918BF8619E8
:1065F0007F1CA879FFB287420AD230786228F2D194
:10660000A06850F82700C0B2FEF702FC0120EBE7BB
:106610000020A871A87FFF2803D0FEF7F9FBFF2018
:10662000A877F1BD0000000000000000002020203D
:10663000202000000000000000000000000000001A
:10664000000000002000303000000000000000309A
:10665000003000004041424344454647484900005D
:1066600000000000005A5B5C5D5E5F1010101010AF
:1066700010101010101010101010101010101030FA
:1066800000000000005A5B5C5D5E5F0010B540F2E8
:10669000A17404F08CF824FA00F0C0070BD5064C66
:1066A000207804F09BF8207804F022F92078BDE8E7
:1066B000104004F020BA10BDB0EC002010B5DFF897
:1066C00034440FF218012078FEF706FB20780FF211
:1066D0001C01BDE81040FEF7FFBA0000286C697489
:1066E000746C6520656E6469616E00002C20616CBD
:1066F0006C206461746120726570726573656E747C
:1067000065642061732062797465206172726179B9
:10671000290D0A000178A1F130030A2B0AD3A1F157
:106720004103062B38BF373904D3A1F16102062A91
:1067300003D257390907090E00E000214078A0F183
:1067400030030A2B02D2401830380CE0A0F141038C
:10675000062B02D24018373805E0A0F16102062A64
:1067600003D240185738C0B270470809704710B5B7
:1067700004F0CAFC02001AD0DE4C2078042A08BFBC
:106780000FF22C0108D0062A08BF0FF2700103D0C7
:10679000072A04D10FF2A801FEF79EFA03E00FF2D8
:1067A000E801FEF799FA20780FF2101191E710BD79
:1067B00068616C537461636B496E6974546F6B6587
:1067C0006E73204641494C454420776974682045E2
:1067D0004D4245525F454550524F4D5F4D46475FD4
:1067E000535441434B5F56455253494F4E5F4D49B9
:1067F000534D415443480D0A0000000068616C533A
:106800007461636B496E6974546F6B656E73204677
:1068100041494C4544207769746820454D424552B2
:106820005F454550524F4D5F4D46475F5645525369
:10683000494F4E5F4D49534D415443480D0A0000A6
:1068400068616C537461636B496E6974546F6B65F6
:106850006E73204641494C45442077697468204551
:106860004D4245525F454550524F4D5F5354414351
:106870004B5F56455253494F4E5F4D49534D41541E
:1068800043480D0A0000000068616C537461636B3B
:10689000496E6974546F6B656E73204641494C456F
:1068A00044207769746820456D6265725374617421
:1068B00075733A2025580D0A00000000546F6B656F
:1068C0006E7320617265207374696C6C20616374EF
:1068D000697665207768656E207573696E672074C8
:1068E000686973206170706C69636174696F6E2E82
:1068F0000D0A00002DE9F04FC1B080680568FFF770
:10690000DDFEA8B204F03AFE0446A8B204F076FC1C
:106910008046A8B204F014FF764F8346002C3878E6
:106920001ABF4FF6FF7188450FF27C212CD0234609
:10693000AAB20FF20C11FEF7CFF900250FF2AC1935
:106940000FF2AC1A0AE000A9725C38784946FEF7EB
:10695000C3F9761CF6B2A642F5DB6D1CEDB25D45BF
:1069600010DABBF1010F234603D17F2200F06EF84D
:1069700006E02A4600F06AF838785146FEF7ACF98E
:106980000026E7E738785146FEF7A6F941B0BDE8A2
:10699000F08F2DE9F047C0B0806804684768FFF7C2
:1069A0008DFEA0B204F0EAFD8146A0B204F026FC00
:1069B0008046A0B204F0C4FE4E4E0546B9F1000F69
:1069C00030781ABF4FF6FF7188450FF2DC1132D0D4
:1069D000A5F1010A15B1FFB2BA450BDA0FF2D411D5
:1069E000FEF77AF930780FF2042153460022FEF7C1
:1069F00073F922E04B46A2B20FF24401FEF76CF9A4
:106A0000012D08BF7F274B463A4600F01FF838A4F7
:106A100030782146FEF760F900270FF2D00805E034
:106A200000AA4146BA5CFEF757F97F1C3078FFB2E6
:106A30004F45F5DB2146FEF74FF940B0BDE8F08742
:106A40005B2532785D28256429203D00414600A859
:106A500004F09EBB2DE9F047C2B080680668FFF7DE
:106A60002DFEB0B204F08AFD8146B0B204F0C6FB40
:106A70008246B0B204F064FE0646B9F1000F1CBFB6
:106A80004FF6FF708245DFF8587E05D138780FF257
:106A90001811FEF721F928E00FF27418002403E022
:106AA000504604F086FB641CB4421EDA002513E055
:106AB00006FB09F0431E387809FB04524146FEF7F5
:106AC0000BF93878032200A9FFF70BF900A8FFF7AC
:106AD00021FE01A968546D1C4D45E9DB012E4B4692
:106AE00001AA0CBF7F21E1B2DAE759E02025580066
:106AF0000D0A0000B0EC00202DE9F047C2B080681C
:106B000007684468FFF7DAFDB8B204F037FD804645
:106B1000B8B204F073FB8146B8B204F011FEDFF89E
:106B2000C05D0746B8F1000F28781CBF4FF6FF7113
:106B3000894504D10FF27001FEF7CEF830E07E1ED9
:106B400017B1E4B2A6420BDA0FF26801FEF7C4F8FF
:106B500028780FF2980133460022FEF7BDF81FE0B7
:106B600000260FF2AC0A10E02878A8F101033246A3
:106B700000F0E0FF2878032200A9FFF7B2F800A890
:106B8000FFF7C8FD01A97054761C4645ECDB012FC8
:106B900008BF7F24434601AA2146484604F009FB6A
:106BA00042B0BDE8F08700006E6F7420666F756EAE
:106BB000640D0A004552524F523A2044657369727F
:106BC000656420696E646578206973206F75742030
:106BD0006F662072616E676520666F7220746869E7
:106BE0007320746F6B656E0D0A000000202020205A
:106BF00020202056616C69642072616E676520698F
:106C00007320255820746872752025580D0A0000DD
:106C10006461746120627974655B2564206F66200D
:106C200025645D3A000000002DE9F043FDB0FFF758
:106C300045FDDFF8AC4CDFF8AC8C20784CF24432E8
:106C400000F07BFF20780FF6CC41FFF770F8DFF8FB
:106C5000980C01880FF2883918237F221DA804F0B0
:106C600097FA00271DA849463A5C00F094FF7F1C64
:106C7000182FF7D3DBA700F04DFF20784FF2640206
:106C800000F05BFF20780FF69C41FFF750F8DFF82B
:106C90005C0C0188062300F026FF002500F078FF39
:106CA0006D1C062DFAD300F035FF20784FF26442B8
:106CB00000F043FF20780FF67C41FFF738F8DFF84B
:106CC000300C018806237F2212A804F061FA002507
:106CD00012A800F05EFF6D1C062DF9D300F01AFF1C
:106CE00020784EF2455200F028FF20780FF65441EC
:106CF000FFF71DF8DFF8FC0B00F0F3FE002500F0B5
:106D000047FF6D1C082DFAD300F004FF20784FF2E6
:106D10006E4200F012FF20780FF63C41FFF707F8B3
:106D2000DFF8D40B018814237F2214A804F030FA72
:106D3000002514A800F02DFF6D1C142DF9D300F0D0
:106D4000E9FE20784FF2424200F0F7FE20780FF67D
:106D50002041FEF7ECFFDFF8A40B00F0B3FE0025A6
:106D600009A800F016FF6D1C142DF9D300F0D2FE17
:106D700020784FF2624200F0E0FE20780FF60841E2
:106D8000FEF7D5FFDFF8780B01880A237F220FA8D2
:106D900004F0FEF900250FA800F0FBFE6D1C0A2D83
:106DA000F9D300F0B7FE20784FF2742200F0C5FE50
:106DB00020780FF6EC31FEF7BAFF0125DFF8440B1F
:106DC00000F09CFE00F0A0FE9DF8012000F09EFE69
:106DD0006D1EF3D100F09EFE20784FF2762200F077
:106DE000ACFE20780FF6C831FEF7A1FF0125DFF8D1
:106DF000180B00F07CFE9DF8022000F087FE9DF845
:106E0000032000F083FE6D1EF1D100F083FE207898
:106E10004FF2766200F091FE20780FF6A831FEF76F
:106E200086FF0125DFF8E40A00F068FE00F06CFE42
:106E30009DF8012000F06AFE6D1EF3D100F06AFE9D
:106E400020784FF2634200F078FE20780FF6883108
:106E5000FEF76DFF0125DFF8B80A00F048FE9DF847
:106E6000022000F053FE9DF8032000F04FFE6D1E3F
:106E7000F1D100F04FFE20784FF2744200F05DFE39
:106E800020780FF66431FEF752FF0125DFF88C0CF5
:106E900000F034FE00F038FE9DF8012000F036FED0
:106EA0006D1EF3D100F036FE20784FF6097200F027
:106EB00044FE20780FF64031FEF739FF0125DFF858
:106EC000600C00F014FE9DF8022000F01FFE9DF8FB
:106ED000032000F01BFE6D1EF1D100F01BFE207898
:106EE0004EF2636200F029FE20780FF61C31FEF7A7
:106EF0001EFF0125DFF82C0C00F000FE00F004FE60
:106F00009DF8012000F002FE6D1EF3D100F002FE9C
:106F100020784EF26F6200F010FE20780FF6FC2110
:106F2000FEF705FFDFF8000C00F0DBFD00F030FE9F
:106F30006D1C082DFAD300F0EDFD20784EF26F3273
:106F400000F0FBFD20780FF6E021FEF7F0FEDFF801
:106F5000DC0B00F0C0FD002505A800F01AFE6D1C3A
:106F6000102DF9D300F0D6FD20784CF2563200F007
:106F7000E4FD20780FF6BC21FEF7D9FE0125DFF8ED
:106F8000B00B00F0BBFD00F0BFFD9DF8012000F04C
:106F9000BDFD6D1EF3D100F0BDFD20784EF24532EF
:106FA00000F0CBFD20780FF6A021FEF7C0FEDFF841
:106FB000900B00F096FD00F0EBFD6D1C082DFAD350
:106FC00000F0A8FD20784EF6735200F0B6FD207850
:106FD0000FF68821FEF7ABFEDFF8680B04E000BF78
:106FE000202558000D0A000000F075FD002505A8B9
:106FF00000F0CFFD6D1C102DF9D300F08BFD207833
:107000004CF24E2200F099FD20780FF65C21FEF73D
:107010008EFEDFF8340B018810237F2219A804F0BC
:10702000B7F8002519A800F0B4FD6D1C102DF9D398
:1070300000F070FD20784CF6441200F07EFD2078C0
:107040000FF63421FEF773FE0125DFF8000B00F088
:1070500055FD00F059FD9DF8012000F057FD6D1E13
:10706000F3D100F057FD20784DF2430200F065FDAA
:1070700020780FF61421FEF75AFE0125DFF8D00A1A
:1070800000F035FD9DF8022000F040FD9DF8032042
:1070900000F03CFD6D1EF1D100F03CFD20784CF27B
:1070A0004B2200F04AFD20780FF6EC11FEF73FFE70
:1070B000DFF8A00A00F00FFD05A800F06AFD6D1CC6
:1070C000102DF9D300F026FD20784CF6535200F035
:1070D00034FD20780FF6D811FEF729FEDFF8780A84
:1070E00000F0FFFC002500F053FD6D1C082DFAD3C5
:1070F00000F010FD20784CF2431200F01EFD2078C5
:107100000FF69821FEF713FE0025DFF8500A0188DC
:107110000223EAB200F0DCFC00F0F6FC9DF801204E
:1071200000F0F4FC6D1C142DEFDB00F0F3FC207874
:107130004CF2423200F001FD20780FF67021FEF78C
:10714000F6FDDFF81C0A01885C237F2266A804F0A4
:107150001FF8002566A800F01CFD6D1C5C2DF9D3FE
:1071600000F0D8FC20784CF6431200F0E6FC2078C2
:107170000FF64821FEF7DBFDDFF8E80900F0A2FC7E
:10718000002509A800F005FD6D1C142DF9D300F0B1
:10719000C1FC20784BF2542200F0CFFC20780FF68F
:1071A0003421FEF7C4FD0125DFF8BC0900F0A6FC80
:1071B00000F0AAFC9DF8012000F0A8FC6D1EF3D1A0
:1071C00000F0A8FC20784DF2463200F0B6FC2078A2
:1071D0000FF61821FEF7ABFD0125DFF8900900F04E
:1071E00086FC9DF8022000F091FC9DF8032000F041
:1071F0008DFC6D1EF1D100F08DFC20784BF25322F6
:1072000000F09BFC20780FF6FC11FEF790FD0125A5
:10721000DFF85C0900F072FC00F076FC9DF80120BC
:1072200000F074FC6D1EF3D100F074FC20784DF278
:10723000433200F082FC20780FF6E011FEF777FD74
:107240000125DFF8300900F052FC9DF8022000F023
:107250005DFC9DF8032000F059FC6D1EF1D100F09B
:1072600059FC20784CF2433200F067FC20780FF68E
:10727000C011FEF75CFD0125DFF8FC0800F03EFCC4
:1072800000F042FC9DF8012000F040FC6D1EF3D19F
:1072900000F040FC20784DF2423200F04EFC2078A5
:1072A0000FF6A011FEF743FDDFF8D00800F013FC45
:1072B00005A800F06EFC6D1C102DF9D300F02AFC1F
:1072C00020784CF2545200F038FC20780FF69011E0
:1072D000FEF72DFDDFF8A8080188062300F003FC67
:1072E000002500F055FC6D1C062DFAD300F012FCB1
:1072F00020784CF2453200F020FC20780FF678110F
:10730000FEF715FDDFF87C08018894237F2241A851
:1073100003F03EFF002541A800F03BFC6D1C942DBE
:10732000F9D300F0F7FB20784DF6540200F005FC8D
:1073300020780FF65811FEF7FAFC0125DFF848080F
:1073400000F0DCFB00F0E0FB9DF8012000F0DEFB2C
:107350006D1EF3D100F0DEFB20784BF2346200F0BA
:10736000ECFB20780FF63011FEF7E1FCDFF81C088B
:1073700000F0B7FB00F00CFC6D1C082DFAD300F0F8
:10738000C9FB20784FF6017200F0D7FB20780FF68A
:107390001411FEF7CCFC012502237F22002100F00E
:1073A00097FB00F0B1FB9DF8012000F0AFFB6D1ED4
:1073B000F2D100F0AFFB20784EF2231200F0BDFBBB
:1073C00020780FF6F801FEF7B2FC04237F2201219A
:1073D00003A803F0DDFE03A800F0DBFB6D1C042D09
:1073E000F9D300F097FB20784EF2754200F0A5FB30
:1073F00020780FF6E001FEF79AFC11237F2202218C
:1074000000F063FB002509A800F0C3FB6D1C112DE3
:10741000F9D300F07FFB20784EF2632200F08DFB61
:1074200020780FF6C401FEF782FC04237F2203219B
:1074300003A803F0ADFE002503A800F0AAFB6D1C15
:10744000042DF9D300F066FB20784EF2635200F071
:1074500074FB20780FF6A401FEF769FC04237F2259
:10746000042104A803F094FE002504A800F091FB79
:107470006D1C042DF9D300F04DFB20784EF2621202
:1074800000F05BFB20780FF68801FEF750FC012529
:1074900002237F22052100F01BFB00F035FB9DF845
:1074A000012000F033FB6D1EF2D100F033FB207899
:1074B0004EF6793200F041FB20780FF66C01FEF7B2
:1074C00036FC11237F22062100F0FFFA09A800F004
:1074D00060FB6D1C112DF9D300F01CFB20784EF6DB
:1074E000646200F02AFB20780FF64801FEF71FFCCB
:1074F00010237F22072105A803F04AFE002505A8D6
:1075000000F047FB6D1C102DF9D300F003FB207831
:107510004EF2241200F011FB20780FF62801FEF73E
:1075200006FC1A237F2208213AA803F031FE002529
:107530003AA800F02EFB6D1C1A2DF9D300F0EAFAE0
:1075400020784EF2251200F0F8FA20780FF60801A4
:10755000FEF7EDFB08237F22092101A803F018FEA6
:10756000002500F015FB6D1C082DFAD300F0D2FAAF
:1075700020784EF2261200F0E0FA20780FF2F47133
:10758000FEF7D5FB0A237F220A210FA803F000FE95
:1075900000250FA800F0FDFA6D1C0A2DF9D300F0AC
:1075A000B9FA20784EF2271200F0C7FA20780FF2CD
:1075B000D871FEF7BCFB012502237F220B2100F0CE
:1075C00087FA00F0A1FA9DF8012000F09FFA6D1EE5
:1075D000F2D100F09FFA20784DF2452200F0ADFA8A
:1075E00020780FF2C471FEF7A2FB0423EAB20C214B
:1075F00003A803F0CDFD002603A84946325C00F045
:10760000CAFA761C042EF7D36D1C102DEDDB00F0AA
:1076100081FA20784EF2102200F08FFA20780FF2D3
:107620009871FEF784FB00F075FA20784EF2112273
:1076300000F083FA20780FF29C71FEF778FB00F0DF
:1076400069FA20784EF2122200F077FA20780FF2D1
:10765000A471FEF76CFB00F05DFA20784EF2132265
:1076600000F06BFA20780FF2B071FEF760FB00F0CB
:1076700051FA20784EF2142200F05FFA20780FF2CF
:10768000BC71FEF754FB00F045FA20784EF215224B
:1076900000F053FA20780FF2CC71FEF748FB00F0AF
:1076A00039FA20784EF2202200F047FA20780FF2C3
:1076B000D471FEF73CFB04237F22132104A803F0BE
:1076C00067FD002504A800F064FA6D1C042DF9D3B1
:1076D00000F020FA20784EF2212200F02EFA2078D5
:1076E0000FF2C471FEF723FB00F014FA20784EF27B
:1076F000742200F022FA20780FF2D871FEF717FBFF
:1077000000F008FA20784FF60D7200F016FA207893
:107710000FF2D471FEF70BFB00250B23EAB2162102
:107720000FA803F035FD00260FA84946325C00F093
:1077300032FA761C0B2EF7D36D1C062DEDDB00F014
:10774000E9F920784EF2564200F0F7F920780FF26E
:10775000AC71FEF7ECFA00F0DDF920784FF46542E9
:1077600000F0EBF920780FF2A471FEF7E0FA00F0D8
:10777000D1F920784EF2035200F0DFF920780FF2B1
:10778000A471FEF7D4FA00250123EAB219210EA84C
:1077900003F0FEFC9DF8382000F0B8F96D1C062DB2
:1077A000F2DB00F0B7F920784EF2015200F0C5F993
:1077B00020780FF28C71FEF7BAFA10237F221A217B
:1077C00005A803F0E5FC002505A800F0E2F96D1C12
:1077D000102DF9D300F09EF920784EF2025200F0FD
:1077E000ACF920780FF26871FEF7A1FA28237F2206
:1077F0001B2130A803F0CCFC002530A800F0C9F90B
:107800006D1C282DF9D300F085F920784EF2502216
:1078100000F093F920780FF24C71FEF788FA1223EA
:107820007F221C2100F051F9002509A800F0B1F9D0
:107830006D1C122DF9D300F06DF920784EF2512213
:1078400000F07BF920780FF23071FEF770FA00F04B
:1078500061F920784EF2582200F06FF920780FF28B
:107860003471FEF764FA12237F221E2114A803F05C
:107870008FFC002514A800F08CF96D1C122DF9D393
:1078800000F048F920784EF2592200F056F920789D
:107890000FF21071FEF74BFA00253423EAB21F21D4
:1078A00023A803F075FC002623A84946325C00F0AB
:1078B00072F9761C342EF7D36D1C052DEDDB00F02C
:1078C00029F920784EF25A2200F037F920780FF289
:1078D000EC61FEF72CFA00F01DF97DB0BDE8F083F5
:1078E000B0EC002010540108D45F0108D65F0108F5
:1078F000D85F0108DA5F0108DC5F0108DE5F01087C
:10790000E05F0108E25F0108E45F0108E65F01084B
:10791000E85F01084D46475F434849505F44415482
:10792000410000004D46475F504152545F4441546E
:10793000410000004D46475F5445535445525F4453
:10794000415441004D46475F454D4245525F4555C4
:10795000495F3634000000004D46475F414E414CC0
:107960004F475F5452494D5F4E4F524D414C0000BE
:107970004D46475F414E414C4F475F5452494D5F22
:10798000424F4F53540000004D46475F414E414C1B
:107990004F475F5452494D5F424F5448000000002A
:1079A0004D46475F5245475F5452494D0000000025
:1079B0004D46475F3156385F5245475F564F4C54EE
:1079C000414745004D46475F565245465F564F4C2E
:1079D00054414745000000004D46475F54454D5017
:1079E0005F43414C000000004D46475F54455354EF
:1079F0005F54454D500000004D46475F4649425F89
:107A000056455253494F4E004D46475F4649425FE7
:107A1000434845434B53554D000000004D46475FDA
:107A20004649425F4F4253004D46475F4349425FDC
:107A30004F4253004D46475F435553544F4D5F5699
:107A4000455253494F4E00004D46475F43555354EE
:107A50004F4D5F4555495F36340000004D46475F46
:107A6000535452494E4700004D46475F424F4152E2
:107A7000445F4E414D4500004D46475F4D414E55D8
:107A8000465F4944000000004D46475F5048595F3B
:107A9000434F4E46494700004D46475F424F4F54C3
:107AA0004C4F41445F4145535F4B45590000000036
:107AB0004D46475F455A53505F53544F52414745D7
:107AC00000000000018814237F2209A803F060BB96
:107AD00000A803F05DBB018810237F2205A803F0F6
:107AE00057BB018808237F2201A803F051BB0188FE
:107AF00002237F220DF1020003F04ABB018802231A
:107B00007F2200A803F044BB9DF80020207849465E
:107B1000FDF7E2B820783946FDF7DEB8EA5F0108E4
:107B2000EC5F0108EE5F0108F05F0108F25F0108F9
:107B3000F45F01085146FDF7CFB84146FDF7CCB8D8
:107B4000F65F0108F85F0108FA5F0108FC5F0108B1
:107B5000FE5F01080060010802600108046001087E
:107B600006600108086001080A6001080C6001084D
:107B70000E6001081060010812600108146001081D
:107B800016600108186001081A6001081C600108ED
:107B900001A849462A5C2078FDF79EB84D46475F0C
:107BA0004153485F434F4E46494700004D46475FAB
:107BB00043424B455F444154410000004D46475FFE
:107BC000494E5354414C4C4154494F4E5F434F44EE
:107BD000450000004D46475F4F534332344D5F42EE
:107BE0004941535F5452494D000000004D46475FE4
:107BF00053594E54485F465245515F4F4646534590
:107C0000540000004D46475F4F534332344D5F539D
:107C10004554544C455F44454C4159004D46475FDF
:107C200053454355524954595F434F4E46494700C7
:107C30004D46475F4343415F5448524553484F4C7C
:107C4000440000004D46475F5345435552455F424F
:107C50004F4F544C4F414445525F4B455900000033
:107C60004D46475F45544845524E45545F41444454
:107C700052455353000000004D46475F43424B4579
:107C80005F3238334B315F44415441004D46475FCA
:107C9000584F5F54554E45004D46475F4555495F27
:107CA00036340000535441434B5F4E5644415441D7
:107CB0005F56455253494F4E000000005354414314
:107CC0004B5F4150535F4652414D455F434F554EC8
:107CD00054455200535441434B5F414C5445524E1E
:107CE0004154455F4B455900535441434B5F424F0C
:107CF0004F545F434F554E54455200005354414337
:107D00004B5F4E4F4E43455F434F554E54455200D7
:107D1000535441434B5F414E414C595349535F5279
:107D200045424F4F54000000535441434B5F4B4575
:107D300059530000535441434B5F4E4F44455F44F9
:107D400041544100535441434B5F54525553545F87
:107D500043454E5445520000535441434B5F4E45FA
:107D600054574F524B5F4D414E4147454D454E5440
:107D700000000000535441434B5F504152454E5464
:107D80005F494E464F000000535441434B5F504102
:107D900052454E545F4144444954494F4E414C5F13
:107DA000494E464F00000000535441434B5F43414E
:107DB0004C5F4441544100004D554C54495F4E4581
:107DC00054574F524B5F535441434B5F4B455953AC
:107DD000000000004D554C54495F4E4554574F52DA
:107DE0004B5F535441434B5F4E4F44455F444154B6
:107DF000410000004D554C54495F4E4554574F5279
:107E00004B5F535441434B5F414C5445524E415498
:107E1000455F4B45590000004D554C54495F4E4558
:107E200054574F524B5F535441434B5F5452555339
:107E3000545F43454E544552000000004D554C548C
:107E4000495F4E4554574F524B5F535441434B5F2C
:107E50004E4554574F524B5F4D414E4147454D455E
:107E60004E5400004D554C54495F4E4554574F52A7
:107E70004B5F535441434B5F504152454E545F4911
:107E80004E464F004D554C54495F4E4554574F5246
:107E90004B5F535441434B5F4E4F4E43455F434FFF
:107EA000554E5445520000004D554C54495F4E45C7
:107EB00054574F524B5F535441434B5F50415245CF
:107EC0004E545F4144444954494F4E414C5F494EE2
:107ED000464F0000535441434B5F42494E44494E84
:107EE000475F5441424C4500535441434B5F434824
:107EF000494C445F5441424C4500000053544143B7
:107F00004B5F4B45595F5441424C450053544143EC
:107F10004B5F43455254494649434154455F5441A0
:107F2000424C4500535441434B5F414444495449FA
:107F30004F4E414C5F4348494C445F4441544100DB
:107F4000535441434B5F5A4C4C5F444154410000F1
:107F5000535441434B5F5A4C4C5F53454355524930
:107F600054590000535441434B5F52463443455FDC
:107F70004441544100000000535441434B5F52467A
:107F80003443455F50414952494E475F5441424C4A
:107F900045000000535441434B5F47505F444154F8
:107FA00041000000535441434B5F47505F50524FD4
:107FB00058595F5441424C4500000000535441431E
:107FC0004B5F47505F53494E4B5F5441424C450015
:107FD00021210FF22C00FDF795BF10B501F0A4F997
:107FE000044601F09BF90246234604480FF22001A3
:107FF0000078BDE81040FCF76FBE0000B0EC002038
:1080000072657365742D746573742E6300000000CF
:1080100052455345543A25702D25700D0A00000035
:1080200010B50446002003F04AFF002003F05BFF78
:1080300001F02AFA012003F033FE03F02DFE10F0C8
:10804000060018BF012004F0B4F8204604F0ACFC90
:108050002046BDE8104000F05BBC80B5022100F076
:10806000D9F8009804F0A0FD01BD8068006800B157
:108070000120DFF8B8120FF2D0220870087800282B
:10808000DFF8AC02D0F870130FF2B02014BF0FF27B
:10809000C8230FF2CC23FDF7E5BA80B503F0EAFE62
:1080A000012808BF0FF2C42305D000280CBF0FF22F
:1080B000C4230FF2C823DFF878020FF2F022D0F8C1
:1080C000B0130FF2C820BDE80050FDF7CBBA38B5A9
:1080D0000446A0680568DFF85802D0F8C0130FF214
:1080E000D820FDF7BFFAEDB215B1012D07D00CE095
:1080F0000FF2CC20FDF7B6FA03F05DFE05E00FF2BB
:10810000D420FDF7AFFA03F083FE0FF2D820FDF77D
:10811000A9FA2046BDE83240BFE7F8B504F08DFF6C
:10812000054604F048FF0446284604F01BF80646BE
:10813000DFF8FC010FF2CC22D0F880130FF2AC2054
:108140002B46FDF78FFAAE420FF2C02705D032461C
:108150000FF2C0213846FDF785FA14F1010F0FF236
:10816000BC200FF2C02108BF0FF2C0220DD014B9FD
:108170000FF2C02209E0DFF8BC01B4FBF0F200FB13
:10818000124028B90FF2C0213846FDF76BFA11E012
:108190004FF47A71DFF8A0010078B4FBF1F201FB33
:1081A000124100290EBF0FF2A82122460FF2B02182
:1081B000FCF792FDBDE8F24059A0FDF753BA38B57F
:1081C000044603F057FE05005948D0F890130FF20B
:1081D000A02018BF0125FDF745FA03F019FEA0689D
:1081E0000068C0B204F021FF02460FF298110FF2AE
:1081F000B420FDF737FA0DB103F0DDFD2046BDE8F0
:1082000032408AE7FFE700F111010FF2A020FDF7ED
:1082100029BA012100A805F00FBA38B5044603F0C9
:1082200029FE050018BF012503F0F2FD502001F0E2
:1082300037FD03F0F6FE03463AA204F111010FF2F6
:108240008420FDF70FFA002D1CBFBDE8314003F07C
:10825000B2BD31BD2DE9F84F0646894615464FF0AF
:108260007F0A6FF07F0B4FF0000803F003FE04005D
:1082700018BF012403F001FE002E8DF8000008D184
:108280000126002003F0FCFD502001F009FD3746D7
:108290000FE0F6D57642F4E7802001F001FD03F00F
:1082A00001FE8345B8BF83465045D8BF824680440F
:1082B0007F1E012FF0DA9DF8000003F0E1FD0CB104
:1082C00003F079FDB9F1000F18BF89F800A015B1CE
:1082D00098FBF6F028705846BDE8F28F10B500F014
:1082E0001AF804F11101BDE8104003460FF2F41230
:1082F0000FF2DC10FDF7B6B910B500F00CF803F082
:10830000DFFA04F11101BDE81040034606A20FF2A6
:10831000DC10FDF7A7B9044600220021012099E7EF
:108320007D0D0A004343410045440000EDEC002070
:10833000404E010840420F00B0EC00207B264E204A
:108340002674737D0D0A00005045522054657374E5
:10835000204D6F6465000000656E61626C656400AD
:1083600064697361626C65640000000061736C6530
:10837000657000006177616B65000000656E657275
:108380006779000073746174757300007B264E205A
:10839000526164696F20706F7765722073746174C5
:1083A00065202674737D0D0A00000000706F7765EC
:1083B00072207374617465007B264E2000000000FB
:1083C000536C656570696E6720726164696F2E2EEB
:1083D0002E00000057616B696E6720726164696FDF
:1083E0002E2E2E00646F6E657D0D0A007B264E20BA
:1083F000526164696F206368616E6E656C202674DB
:10840000680000006368616E6E656C0020267475FC
:10841000000000005074694368616E00202674708B
:10842000000000006672657100000000696C6C65F8
:1084300067616C0050657252616D526164696F438F
:108440006F6E666967000000667265714D487A005C
:10845000207B667265714B487A3A256C7D0000007E
:10846000207B66726571487A3A256C7D00000000B9
:108470007B264E2053657474696E67206368616E55
:108480006E656C20616E642063616C6962726174F8
:10849000696E6720286173206E6565646564292EA6
:1084A0002E2E00002674687D0D0A00007B264E20CB
:1084B0006E6F7420696D706C656D656E7465647D3A
:1084C0000D0A00007B264E202674647D0D0A0000F4
:1084D0007B264E20267464205B64426D5D7D0D0A10
:1084E0000000000052535349000000007B264E203C
:1084F000267464205B3830322E31352E3420756E70
:108500006974735D7D0D0A00DFF82014DFF82034F4
:108510000A785A70486003F0FFB92DE9F843DFF894
:108520001044DFF810740FF23C490D466169491C94
:1085300016466161804640B1402814D0892820D079
:108540008D2817D08F2807D01DE06068401C606020
:10855000387B10B39E211DE0E068401CE060387B52
:10856000D8B1A22116E02069401C2061387BA0B15F
:10857000AD210FE0A068401CA060387B68B1B1213C
:1085800008E0BB2106E042460FF2F0310120FDF782
:1085900070FCC1214846FDF7B5FCB8F1400F2670CC
:1085A00025620BD16078401E6070C0B230B1608827
:1085B000401C6080BDE8F14305F069B901203873C3
:1085C000BDE8F18380B504F03BFD0346DFF86803A6
:1085D0000FF2E832D0F860140FF2D430BDE800504A
:1085E000FDF740B830B5044683B0A068056868B2AE
:1085F00004F02AFD01906BB20FF2EC300FF2D8328A
:108600000090DFF83403D0F870140FF2BC30FDF79F
:1086100029F86EA0FDF726F82046BDE83E40D1E7D8
:1086200000B5DFF810130FF2DC32CB890FF2EC311A
:1086300083B00091019300F111010FF2B430FDF706
:1086400011F807BD8168DFF8EC220968D181E7E7FE
:108650002DE9FE4F00218DF8081001248068008864
:108660000090401E8041C00F019003F003FC5FEAC0
:1086700000090098DFF8BC72DFF8C06218BFA1469D
:1086800001284FF000081BD030780FF2A831FCF71A
:1086900023FB3078019921B10FF2A031FCF71CFBCC
:1086A00003E0009A4AA1FCF717FBFA8930780FF231
:1086B0009831FCF711FB30780FF29C21FCF70CFB92
:1086C000DFF87CA20025019818B90098ADB2854268
:1086D0003DDA30786D1C02A9FDF74AFA9DF80800D2
:1086E000652834D0DFF85C02007820B105F00DF881
:1086F00008B105F04FF9F88901F0D2FADFF8480225
:10870000007860B19AF80000504400F8034CA4B21D
:108710009AF800105144200A01F8020C641C002051
:1087200038735046FFF7F0FE5FEA00080FD101F002
:108730002BFB8346387B0028C5D101F025FBA0EB3D
:108740000B0080B2B0F57A7FF4D94FF00108307891
:108750000FF20C31AAB2FCF7BFFA30780FF21C31DD
:108760004246FCF7B9FADFF8E4010FF22C31028837
:108770003078FCF7B1FA30780FF23C31FCF7ACFA04
:10878000DFF8AC4130782178002914BF0FF2443172
:108790000FF24831FCF7A0FA03F05DFC28B1E26962
:1087A00030780FF24031FCF797FA226A30780FF2F6
:1087B0006031FCF791FA642001F072FAB9F1000F10
:1087C00018BF03F0F8FABDE8F78F00000D0A0000AB
:1087D0002575000038B500F039F800F030F818BF02
:1087E0000124FCF779FA03F013FB03F0D1FB01E05D
:1087F00000F007F89DF800006528F9D103F0D0FBE0
:1088000019E0287800A9FDF7B3B938B500F01EF8D3
:1088100000F015F818BF0124FCF75EFA03F0F8FA2F
:1088200003F0C8FB01E0FFF7ECFF9DF800006528AE
:10883000F9D103F0E0FB0CB103F0BDFA31BD040047
:10884000DFF8F8500FF210112878704700208DF8EB
:10885000000003F00FBB2DE9F041DFF8E0400FF21C
:10886000E0212078FCF738FA0FF2E4260FF2D8283E
:10887000DFF8CC70002515E0EA5D20784146FCF772
:108880002BFA681005EB90708010B5EB800007D1D3
