S01500005A6C6C53616D706C654C696768742E73333753
S31508002000081C00206D4D02083125020835250208F6
S31508002010A70A090100210008040303AC00579B0125
S3150800202000000000000000000000000000000000A2
S315080020300000000000000000000000000000000092
S315080020400000000000000000FFFFFFFFFFFFFFFF8A
S31508002050FFFFFFFF00E0020800000000000000008C
S31508002060FFFFFFFFFFFFFFFFFFFFFFFFFFFFFFFF72
S31508002070FFFFFFFFFFFFFFFFFFFFFFFFFFFFFFFF62
S315080020800000000000000000EA2F0020EA2F0020D0
S31508002090081C002044AE02085C4F0208A812002063
S311080020A0200F00200000030800000000CC
S31508002100081C00206D4D02083125020835250208F5
S315080021103D250208392502084125020888280208B3
S3150800212088280208882802088828020888280208B9
S31508002130452502088828020888280208B12C0008C4
S31508002140CFCB0108882802080373000888280208EC
S3150800215049790008C77000088828020888280208F4
S3150800216015640008A93A00083935000891210008C5
S3150800217088280208137200085B72000835430008B5
S315080021808828020888280208882802088828020859
S3150800219070B52C4C2C4D60782968490726D503283C
S315080021A024DAA18804EB400291810121A27801FA80
S315080021B000F01043A070254A207890B1002320FA39
S315080021C003F6F60708D5994063704840207014EB6B
S315080021D04300808A106009E05B1CDBB2032BEEDB50
S315080021E004E0106000F0AAF8032060704FF6FF7054
S315080021F02860BFF35F8F70BD12480021017000226E
S31508002200032141700021C1700521018100218170DF
S31508002210001D0E490A604A604FF400428A60102287
S31508002220CA604861012088610320C8600421064805
S3150800223001644FF6FF7101604FF4006004490860BD
S3150800224000F0BAB8081F002010A8004004D00040CB
S3150800225000E100E02D480068C00701D42C4870470B
S315080022602C48704780B5FFF7F5FF2B49096801B977
S31508002270400802BD80B5FFF7EDFF400802BD00F03B
S315080022800ABC2648012181604EF6BE214160012123
S31508002290016070472249012008607047A52805D1CA
S315080022A01E484DF6AD6141600221016070471B482A
S315080022B00068C00701D5012070470020704780B527
S315080022C01849194A1020086018491948007858B161
S315080022D003280CBF00200120106040F6510008605A
S315080022E0002000F0F8FD06E0022010604FF40060C0
S315080022F0086000F089FB07210E480160002101648F
S3150800230010200D490860002002BD00001C40004056
S31508002310001BB70000366E012040004000600040F8
S315080023200860004080E100E0080000400C600040C2
S31508002330AD2F002014A0004000E100E07047704770
S31508002340DFF8E83433F810001040C840704730B55D
S315080023500FF29854DFF8D83434F810409C601140D6
S31508002360DFF8C84434F8105095432943D96002224F
S315080023701A6000221A6024F8101058680028FCD148
S3150800238030BDDFF8B024DFF8B0041278DFF8AC14FB
S315080023900AB149780EE0895611F1090FB8BF302104
S315080023A008DBC16D39B1C26D40F24A31B1FBF2F1B9
S315080023B089B2C91E01607047E0B5DFF88404018858
S315080023C00A2300F064F8BDF806104FF6FF720D20D8
S315080023D0FFF7BDFF07BDF8B50546B5F5004FDFF8B1
S315080023E05C4419D1DFF85C040188022300F04FF839
S315080023F0BDF80000000AFF2814BF002818206070E6
S31508002400BDF800000006C00E10281CBF001D00F015
S315080024109CF9BDF80000C543DFF81864707808B168
S31508002420002005E0A089ADB26840C00701D50120AB
S315080024307070DFF81404A58105F00104016841F401
S3150800244000410160C5F340070FF2C44000EB4400A9
S315080024504FF440524078010389B20220FFF777FF14
S31508002460204600F087FD4022B90100F009FA2D0642
S31508002470A80E00F0010038433070FFF782FF70782D
S3150800248018B1FFF799FF002070700020F2BD7F2277
S3150800249000A800F0E5BD2DE9F04FDFF8B443207839
S315080024A087B0042304900C210B38C0B2039000A80F
S315080024B0039A00F093FE9DF800008DF80A009DF837
S315080024C001008DF809009DF802008DF808009DF8B6
S315080024D003008DF80500DFF87C030078012806BFA5
S315080024E0607880F00105012501F0FEF882469DF925
S315080024F002000399D54F0AF10A06AAF10A09B04261
S31508002500B6BF81454FF001084FF00008012088400A
S31508002510ADF806009DF80100000604D47888BDF8D9
S315080025200610084201D04FF0010801F071F99DF834
S31508002530030000060AD4B888BDF80610084205D17B
S315080025409DF90000B042B8BF814502DB4FF0010992
S3150800255001E04FF0000948EA050059EA000000F0DA
S31508002560A480DFF8F4B2BD49DBF80000400800F0AB
S3150800257001008DF80400BA48006800F4E060059090
S315080025804FF4E0600860002001F021FD00F0A8FB90
S31508002590B44EADB1607858B1DBF80000AD494008DB
S315080025A04000CBF800000120087000F079FC07E035
S315080025B0306840F400503060306820F48050306055
S315080025C0A4480078012810D161780D4208BF01F0AF
S315080025D04FFEDBF800009F4940F00100CBF80000F1
S315080025E000200870642000F05BFC607880F0010031
S315080025F0054203D00498C0B201F00DFF607838B1E7
S31508002600306820F480503060306840F40050306004
S31508002610BDF80600C543B8F1000F08D001F0E6FF83
S315080026208DF801008DF802A0788828407880B9F1E5
S31508002630000F08D002F08BF88DF803008DF800A083
S31508002640B8882840B8809DF900009DF90A1088428C
S3150800265002BF9DF801009DF8091088420BD19DF92B
S3150800266002009DF90810884202BF9DF803009DF8F4
S315080026700510884206D00399042300AAC9B20C2083
S3150800268000F0BDFD05987649086000F0EFFD9DF85D
S31508002690040001F09CFC02F07AF9607828B148F24F
S315080026A060703060642000F0FBFB9DF8010001F0CB
S315080026B009FF9DF8030002F045F807B0BDE8F08F62
S315080026C080B501F004F8BDE80140E4E600F0FFBF7C
S315080026D070B50646A6F10B0401F0E7FB0546A6F120
S315080026E00B00102801D38A2070BD5F48816809074E
S315080026F002D40068C00701D58C2070BD5448067006
S315080027005A4801680C290FD00FF27811584A92F9E5
S315080027100020A4B231F824105118C161FFF7BBFE9E
S31508002720012D08BF01F052FB002070BD10B504460C
S3150800273000F0CDFF2046BDE81040C9E744480078C0
S3150800274070473E4890F9000070472DE9F04104466D
S3150800275014F12B0F86B045DB464801881423FFF792
S3150800276096FEBDF810004FF6FF71884203D040046C
S3150800277048BF012606D43F2200211020FFF7E0FDBE
S315080027800546002604F12B022F2A2C483A491AD26C
S3150800279013220FF2301300E0521ED2B213F9127050
S315080027A0BC42F9DB03EB4204032764780C6000247F
S315080027B013F81210017000208046AEB1BDF8101053
S315080027C04FF6BF7229E0092C0CDA225C0A60047005
S315080027D014232A480188FFF75AFE01240320A0463D
S315080027E02827EAE78B201DE0C1024FF4605200F06B
S315080027F047F84FF4E062210200F042F880224FEADF
S31508002800C81100F03DF885F020003D18ADB2402D06
S31508002810A8BF3F253F2285F0200100F031F8FFF7D9
S31508002820B0FD002006B0BDE8F08100006C2B00204A
S31508002830E8100040BA2F0020641000405C1E0020FB
S3150800284038AB020844AB02081C100040B22D002029
S31508002850581E0020C61E00208020004080E100E0AF
S3150800286000E100E0D010004060200040AC100040BD
S31508002870B92F002034AB0208C010004036AB02085E
S315080028800B2064E5AA2129005523290000252800E4
S31508002890AA26270055282700002A2600AA2B260044
S315080028A0552D2500002F2400AA3024005532230078
S315080028B000342200AA3522005537210000392000AD
S315080028C0AA3A2000D500E601EC02EF03F204F4056B
S315080028D0F506F707F808F909FA0AFB0BFC0DFD0FD0
S315080028E0FE11FF1300160119021C031F1000110028
S315080028F02000300040004100500060007000800059
S315080029009000A000B000C000D000E000F000000079
S3150800291000000103DFF838145120086070472DE9DC
S31508002920F0410546FFF79EFCDFF82814B0FBF1F6E8
S315080029304FF4F070B0FBF6F71E2D3FB201DBE81B33
S3150800294004D5A8B2BDE8F04100F0AABA02F05AF8D8
S31508002950804602F05DF8DFF80014DFF80024012055
S3150800296048700721DFF8F80300F041F8E91B09B2BF
S315080029707143C91C8908491EDFF8E853416000F015
S31508002980BDF8DFF8CC733C68386820F04000386042
S3150800299002F040F83C602E6002F040F802F046F87B
S315080029A04046BDE8F04102F043B838B50546FFF7A2
S315080029B059FCDFF8A013B0FBF1F44FF4F070B0FB4C
S315080029C0F4F02D1A1E2D04DA92210FF2D83002F0F7
S315080029D035F8DFF88C03DFF88423072100F007F8C1
S315080029E005FB04F1C91C8908491E416031BD016017
S315080029F00021416081604FF0007111607047DFF877
S31508002A00582301215170D0E7DFF85C03006800B94C
S31508002A1070472DE9F041DFF85453DFF8546300247A
S31508002A202C6034604FF4A040706041F29A0840462A
S31508002A30FFF775FF6F68FFF71DFC000142F2107182
S31508002A40B0FBF1F000F5C870C01B00B24FF4487136
S31508002A5090FBF1F000B20828A8BF072004DA10F1AD
S31508002A60080FB8BF6FF0070030604046FFF757FF02
S31508002A7008274046FFF753FF686804197F1EF8D1F8
S31508002A80FFF7F8FB211D4001C908B0FBF1F080B241
S31508002A907060BDE8F081DFF8D002006800B97047C1
S31508002AA038B5DFF8D05201206FF00F04A8602C600B
S31508002AB08020FFF734FFE868FF2802D8641C102C32
S31508002AC0F5DB31BD70B5DFF8B002016841F00101F0
S31508002AD001600121416001F095FF0446DFF8845248
S31508002AE000F00CF85120DFF8681208602E6001F03B
S31508002AF095FF2046BDE8704001F09ABF2E68286809
S31508002B0040084000286001F089BF002070472DE981
S31508002B10F041954C904D226840F2DC51012A8846D6
S31508002B20964E974F17DA0221B9803160B16901F0E4
S31508002B30030103295BD02168002903D5B16941F057
S31508002B400201B161FFF7E1FF5FEA00081BD12068C7
S31508002B5000284CD549E0B8884FF6FF74A0421DD12D
S31508002B608848018802237F22381D00F079FAB88840
S31508002B70A04204BF0220B880B069800703D4B069B8
S31508002B8040F00200B0610120A870B88830600FFAE2
S31508002B9088F0FFF734FF4046BDE8F081B3699B072C
S31508002BA0EDD5AB780BB10846F6E7B168B36811F016
S31508002BB0010103D10F2809D2401C06E09B0705D561
S31508002BC03B781BB1032801DB2018B880B888397018
S31508002BD00228BCBF0220B8803068B9888842D2D1A2
S31508002BE0B06900F00300032801D0FFF76BFF00204F
S31508002BF0D2E72DE9F04780460024554D594E01F09D
S31508002C0001FF814601F004FF4046FFF780FF08B93F
S31508002C1001240AE000F05DF8D5F800A000F0BCF841
S31508002C20C5F800A0376001F0F9FE01F0FFFE48463E
S31508002C3001F0FEFE002CE2D0BDE8F0870220D8E7BE
S31508002C4010B54748444C002141608160016821F075
S31508002C5002010160002060704FF000703F49086073
S31508002C60A07838B10020A0700620FFF74EFF00F0CC
S31508002C702BF81CDBE078012814D1434801210160B8
S31508002C8042490968C90748BF03200FD40221E170E9
S31508002C90016C41F00101016404203D4908603D4989
S31508002CA0086010BDE078042801D10520E07010BD49
S31508002CB080B52948407800281CBFBDE80140FFF7C9
S31508002CC0BFBF00F0C8FE01BD27480068012870474D
S31508002CD0244E3768306840084000306001F09EBED8
S31508002CE02DE9F8431C4C2179207881F0010108422E
S31508002CF02AD0FFF7E9FF1FDA40F2EB310FF2A40002
S31508002D0001F09CFE18E001F07DFE804601F080FE91
S31508002D10E07805280BD0FFF7DBFF0D4DD5F80090BE
S31508002D2000F03AF8C5F80090376001F077FE01F038
S31508002D307DFE404601F07CFEE0780528E3D10020C0
S31508002D40A0700520FFF755FF00202070BDE8F1832D
S31508002D500080004090D00300CA2F002004ED00E058
S31508002D6010E000E094ED00E07CA502081040004069
S31508002D700C000040084000401C4000400440004051
S31508002D80B21E002046AB020818A000400C400040C6
S31508002D9080E200E000E100E0286820F040002860BA
S31508002DA001F038BE636C6F636B732E63000000001E
S31508002DB010B5664C002001F0F0FD40F68C218842E3
S31508002DC02068B4BF40F0080020F00800206010BD5D
S31508002DD010B504465E48018882B000F05CF89DF89C
S31508002DE000109DF80100FF2902BFFF2804200021DA
S31508002DF004B1801C574A1368C0B20828A8BF072028
S31508002E0023F4607343EAC010106008291068A8BF4D
S31508002E100721C00841EAC00010604F48047013BD7E
S31508002E2000B54E48018883B000F035F8BDF80000BB
S31508002E304FF6FF7188420EBF4FF4E1600A2190FBFE
S31508002E40F1F0ADF800004448007808B3404801881E
S31508002E5002237F2201A800F003F99DF80500BDF8BA
S31508002E600030FF2808BF0420811CC9B20829A8BF62
S31508002E700721C1F12F0202EBD272C0F12F005210C6
S31508002E8000FB0320C1F12F01B0FBF1F0ADF8000003
S31508002E90BDF800000EBD02237F2200A800F0E0B8AE
S31508002EA070B52F4C25680646FFF7E4F92D49B0FBA7
S31508002EB0F1F070432F303021B0FBF1F0032809D32D
S31508002EC0616D41F0010161652168491B0903090B20
S31508002ED08142F9D370BD10B5040004D110BD4FF47A
S31508002EE07A70FFF7DDFF2046441E80B20028F6D12F
S31508002EF010BD704738B50C4620B101280FD00328FD
S31508002F0020D021E0184D44B1FFF7B4F91749B0FBBA
S31508002F10F1F0401EB0F5005F0CD2286012E04CB10B
S31508002F20FFF7A8F9610801EB4000B0FBF4F0B0F533
S31508002F30003F01D3202032BD0D4900F001024A604E
S31508002F4040080860002032BD212032BD00BC004088
S31508002F503AAB020818000040BC2F00203CAB020820
S31508002F603820004090D00300100004E020A107009C
S31508002F7068C80040F0B5044689B00020FFF728FF6E
S31508002F80264801880A237F2200A800F069F8BDF8C0
S31508002F9002004FF6FF75A84204D1DC210FF2940017
S31508002FA001F04CFD0FF2A407002601E02A4616B9E7
S31508002FB04FF47C4203E0022E08BF4EF23F0200A8FF
S31508002FC000F032F8761C052EF0D3012C03D1142319
S31508002FD07F22134802E014237F221248018803A89F
S31508002FE000F03EF800260FF26C072A4608E02A464B
S31508002FF0012E08BF4FF6C07202D0082E08BF002265
S3150800300003A800F011F8761C0A2EF0D3012C04BF91
S315080030100120FFF7DDFE09B0F0BD000038AB02085D
S3150800302036AB020834AB020830F81610F05DFFF72D
S315080030308EB90000616E616C6F6775652D63656C8E
S315080030406C2D626961732E630000000000100C0D80
S315080030500E000000010203040708090A0B0F00000E
S3150800306030B5044610467F2808BF00204BF234626C
S31508003070914283B01AD108237F2240F6120100A894
S31508003080FFF7EEFF08220FF2C40100A801F01EFEAA
S3150800309030B908237F2240F2A27100A8FFF7E0FFAB
S315080030A0082200A9204601F0C7FD37BD1F4D294358
S315080030B000FB03111A46204601F0BEFD37BD2DE977
S315080030C0F0440C4619490FF2780A41EA0006C0078F
S315080030D0154602D5622100F02FF8E80702D56321CC
S315080030E000F02AF81248864204D3A819401E11494E
S315080030F0884202D3642100F01FF8002706E0B85D75
S31508003100FF2802D06B2100F017F87F1CAF42F6D3D8
S315080031106A082146304601F043FE28B15046BDE80C
S31508003120F044712101F08ABCBDE8F084000004086F
S315080031300008040800100408504601F07FBC00008F
S315080031406D66672D746F6B656E2E6300FFFFFFFF5C
S31508003150FFFFFFFF30B50FF21011DFF8FC500A68C9
S3150800316083B001A80024026001202870002001F025
S315080031705DFE30B1002001F059FE10B12C704920D7
S315080031803EBDDFF8D800018802237F220DF1020038
S3150800319000F024F802237F22002100A800F01EF880
S315080031A0204601A9BDF8022031F81010914208BF47
S315080031B00124401C0228F4D3BDF8000024B1B0F560
S315080031C07F7F07D100203EBDB0F57F7F0CBF06206C
S315080031D0042000E00720002129703EBD10B5FF2914
S315080031E008DCDFF87440247844B1BDE81040C9B261
S315080031F002F02AB9BDE81040FFF732BF10BD2DE92D
S31508003200F0410546FF2D0E46174698460FF2500028
S3150800321013DCDFF844402178A1B1617811B1C021EF
S3150800322001F00CFC01206070434632463946E8B28C
S3150800323002F072FA0020607004E0BDE8F041CB218C
S3150800324001F0FCBBBDE8F08103490978002918BFE5
S3150800325002F068BB70470000B42F002040AB02089C
S31508003260746F6B656E2E6300FE01FD0210B5DFF804
S3150800327044451020206301F0C5FBDFF83C150A68B9
S3150800328042F001020A6001F0D3FBDFF8300500F1D5
S3150800329008016160216092306168893161600121AD
S315080032A02163E060A060DFF81815E0688930E06007
S315080032B0022020634FF6FF70086010BDDFF8040592
S315080032C045F26401C1601E21416250210162C82194
S315080032D0C1618165F021C16545F690014166882185
S315080032E081660621C16644F2066101604FF6FF71E8
S315080032F04160DFF8D404007838B1DFF8D00448F22A
S31508003300607101604FF4C1514160DFF8C40401687F
S3150800331041F0040101600020DFF8B81448707047D6
S315080033202DE9F047DFF894248A2101FB002101F1F9
S31508003330080909F1010104244B78097801EB0321F6
S315080033401FFA81FA00210AF44063B3F5006F0546B7
S315080033500AF4404708BF082403D0B3F5406F08BFF6
S315080033600E2427B15FEA4A635CBFA41CE4B2DFF807
S3150800337068341B78537000EB02080AF027002328EC
S3150800338088F8021067D1DFF85464706E000662D5BB
S31508003390B7F5404F04EB090003D102F0C4FB014620
S315080033A017E0B7F5004F14D1407814F8091001EB6F
S315080033B0002080B202F044FE0021FF2808D0DFF882
S315080033C02024126832F810004FF4FE62104200D032
S315080033D001214FF480604FF40062F9B15FEA0A7385
S315080033E01CD4B7F5004F08BFA41C03D0B7F5404F4F
S315080033F001D10834E4B26308002D14BF7768376832
S315080034009F421CD3002D14BF7768376803F1010C5F
S315080034106745F7D314F80930042B10D179B1F16D4B
S31508003420C90608D4B16C05B11046014203D0706CC8
S3150800343040F001007064012088F802000BE0F16D8D
S31508003440C90608D5B16C05B11046014203D0706CA7
S31508003450400840007064BDE8F0872DE9F04E044648
S31508003460DFF85863DFF874538A2000FB046000F124
S31508003470080B002C0CBF28686868C1B2052903DA56
S315080034807068401C706055E040005FFA80F909EBEF
S315080034900B00A0F108073878797801EB00201FFAAD
S315080034A080FA7078387002F09AFE7870CD4FF86B13
S315080034B020F48050F863686E14B93868400504D45F
S315080034C0012C1FD1386800051CD5C748017889B179
S315080034D0002101701AF4E45FC448016802D0002292
S315080034E0402005E09BF80100000900F001028F204A
S315080034F002F0F3FE002C0CBF4FF480604FF400601E
S31508003500386012E01AF4E45F0FD100F05DFD10B1E7
S315080035105FEA4A4009D59BF80000802805DAA01919
S3150800352049468278584602F0A1FF002C0CBF0120BC
S3150800353002202861BDE8F08E2DE9F84FA04CA74E71
S315080035402068216CDFF8A8A2DFF89C82DFF86C926D
S31508003550A84F01EA00051AE040B14878C00605D42C
S31508003560A248016800228F2002F0B7FE280605D57A
S3150800357002F010FF802025F080052060E80506D5BA
S3150800358002F008FF4FF4807025F480752060002D46
S3150800359068D0280706D50020FFF7C2FE082025F0C8
S315080035A008052060E80606D50120FFF7B9FE1020B9
S315080035B025F01005206005F06000602803D1B06C86
S315080035C0C0050AD401E0A80605D52020206025F00C
S315080035D02005002006E0680606D54020206025F074
S315080035E040050120FFF739FFE80410D54FF4805055
S315080035F0206025F48055D7F800B008203860786830
S31508003600000548BF00F03CF91FFA8BF03860E80760
S31508003610ACD5012020606D0899F800006D000028DF
S31508003620A4D000F04CFC0128A0D198F8000000288E
S315080036309CD09AF80000042898D1F068400800F059
S3150800364001008A2101FB00910831002814BF726825
S31508003650326812B92268D204F7D5002814BF7068F8
S31508003660306879E700202060BDE8F18F624800687D
S315080036707047F0B504460D4689B00021032001F0D5
S315080036802FF904AE1BE0002701F045F926F81700CC
S3150800369001F041F900A921F817007F1C082FF3DB78
S315080036A004A803F075F800202080218836F8102039
S315080036B05140401C08282180F7DB6D1EA41CEDB282
S315080036C0002DE0D101F063F9012009B0F0BD032116
S315080036D0022001F005B94FF6FF71081A292190FB5F
S315080036E0F1F03A3040B2704738B501F014F9FFF7F7
S315080036F0F2FF424D04462878B0B90321032001F0B1
S31508003700EFF83F48018802237F2200A8FFF7A8FCAC
S3150800371001F001F9BDF80010401880B2FFF7DBFF91
S31508003720153868700120287001F031F96878201A78
S3150800373040B232BD80B50321022001F0D1F8BDE8C0
S315080037400140D1E770B52F480078002490B9FFF7FB
S31508003750F1FF204E0546707848B13078401B40B2DC
S3150800376003F01FF80B2805DB3570012402E0012061
S3150800377035707070204670BD23480078704722491E
S315080037800A78904200D1704780B5087040B11F4949
S31508003790002008600848016821F08001016001BD29
S315080037A000F049FC00F01FFC00F0D7FBBDE8024022
S315080037B000F0BBBB00200040842000404C2C0020B9
S315080037C000A000404C100040591E0020D0100040B8
S315080037D080200040D12F0020581E002020200040C5
S315080037E0AC1C002004A00040982D0020A02D00202D
S315080037F0C51E0020B820004038200040CF2F0020EA
S315080038003EAB0208C61E0020D32F002054100040ED
S3150800381010B50D48018884B00A237F2200A8FFF757
S315080038201FFCBDF800004FF6FF74A04204D14E21DC
S315080038300FF2180001F002F9BDF800102246002028
S31508003840FEF785FD1FBD000038AB0208616E616C8E
S315080038506F6775652D66696C7465722E6300000066
S31508003860DFF8DC07007848B1DFF8D80701790129C5
S3150800387004BF4079042801D1012070470020704711
S31508003880DFF8C407016821F480510160DFF8BC073E
S31508003890017881B100210170DFF8B4170A6852086F
S315080038A052000A600A6842F001020A600022816832
S315080038B0402002F012BD70470FF62C014008405C0C
S315080038C07047010603D54FF67F710840C000704760
S315080038D0491C800189B2B0FBF1F080B2FF288CBF89
S315080038E00020C0F1FF00C0B2704738B5DFF85C07AA
S315080038F0C17809B1002032BDDFF85C47617871B143
S31508003900E178007945182079ADB2854228BF054689
S3150800391002F060FF0121A940491E084000E000208E
S3150800392061790818C0B232BD2DE9F0470446C007D0
S3150800393005D54FF4BE710FF2A07001F07FF8DFF8DD
S315080039401C57286DC00748BF8C2000F18280DFF81D
S31508003950FC06DFF8047700210170417829B9397827
S3150800396019B1A96F41F0010102E0A96F49084900A0
S31508003970A967DFF8D0867A7898F80610DFF8E09617
S31508003980DFF8E06692B1002202710129286D40F045
S315080039900400286506D14FF6FF7030604FF40070BA
S315080039A0C9F80000FFF7A1FF82460CE0286D20F059
S315080039B00400012928654FF0000A04D100F043FAF3
S315080039C06420FFF76DFAA86F20F00800A867142096
S315080039D0E864C5F848A0787838B198F80600002851
S315080039E001BFA86C00280120A864B8790028286DB2
S315080039F014BF40F0080020F008002865FFF730FFE4
S31508003A0018B1306C40F008003064202028626C60E1
S31508003A102C604FF4E06468687F3068600420286290
S31508003A20DFF84406046006E002F0E4FE18B102F08E
S31508003A30E9FE00F0E7FFDFF83406006800F003004F
S31508003A400328F1D0C9F80040286D40F00100286528
S31508003A500020BDE8F087DFF8180600214160816084
S31508003A60016821F0020101604FF00070DFF80416CA
S31508003A7008600120DFF8001608707047A0F13301CE
S31508003A80DFF8F825914200D3704710B5DFF8E8450E
S31508003A9000212170FEF789FF02E0012002F0B6FE40
S31508003AA020780028F9D010BD2DE9F84FDFF8D06549
S31508003AB0DFF898557068716CDFF8A07508401FFA32
S31508003AC080F8C6F804806878002840F0DD805FEA50
S31508003AD0C870DFF8B045DFF8809553D5D7F800A051
S31508003AE0386C796C41EA004199F80000A960002811
S31508003AF044D09AF80100800640D5012028704FF47A
S31508003B0080503060306C40F480503064FFF7A8FE77
S31508003B10C0B31920FFF7C4F94FF44040DFF868B581
S31508003B20CBF82800DBF800000090E06E40F4005067
S31508003B30E066E06E40F48050E0669AF80010A868E7
S31508003B404901B83101EB000AFFF790FDAAEB000026
S31508003B500003000BFFF792FFE06E80098001E06624
S31508003B6000A9E06E09880843E0660020CBF8280023
S31508003B7048F26070E066E888206003E000220020D2
S31508003B8002F0ABFB5FEA08600CD5287830B100205C
S31508003B9028700022A968402002F09FFB306C20F4B0
S31508003BA0805030645FEA486008D5687830B9FFF716
S31508003BB05DFD01460022892002F08FFB5FEAC8609E
S31508003BC054D5DFF880A4DFF898B49AF804000128E1
S31508003BD004BF9AF8061001291FD100F049FB386F77
S31508003BE040F00100386700208AF80600FFF73EFB20
S31508003BF00A20FFF755F94FF6FF7070604FF000087E
S31508003C004FF4E060CBF800000920B8660120B864DC
S31508003C10B86F40F00800B86718E0297999F80220CB
S31508003C20491C2971C9B2914215D2012808BF00F072
S31508003C30CDF8B86F20F00800B8671420B866FFF70B
S31508003C4054FEB8644FF40070CBF80000386D40F0AD
S31508003C50010038650AE0012808BF00F0B7F8FFF749
S31508003C6005FD014600228D2002F037FB5FEA087049
S31508003C700AD5FFF7F5FD38B12068E88001202060F5
S31508003C80706C20F0080070645FEA88600AD520200E
S31508003C903862687830B9FFF7E9FC014600228820C7
S31508003CA002F01BFB687820B118F4407F04BF01209E
S31508003CB0A870BDE8F18F70B582B00446FEF706FD20
S31508003CC0DFF8D003DFF88853002101601521E96089
S31508003CD0092101651F21416001210166DFF8B00352
S31508003CE00088FEF778FBFFF7E9FA03F0CDF800F055
S31508003CF037F9DFF85063308900F05CF9708900F015
S31508003D005EF900F07FFE696841F04001696000F0E5
S31508003D108FFE707800F0F5F8B07800F006F9DFF855
S31508003D207803007800F033F9DFF8700390F90000A3
S31508003D30FEF70BFD307800F04AF996F9030000F01B
S31508003D4052F9DFF85C0300F070F9BDF80000DFF8FF
S31508003D505413C0054CBF0020BDF800000870DFF8FA
S31508003D6048030078FEF7B4FC28B10FF26C3040F235
S31508003D70B23100F063FE012C05D12868C00711D5C1
S31508003D8000F024F80EE06CB92868C0070AD400F0E1
S31508003D906FFA286840F001002860C820FFF780F80D
S31508003DA00020B071F120DFF8BC42206440F2F9101F
S31508003DB0E063FFF75BFA2868C00704D54FF6FF7083
S31508003DC0206000F06DF8FEF78BFF73BD70B5DFF865
S31508003DD0DC52DFF870422E68A079012832D000F054
S31508003DE011FE48F2D00129606A68520509D548F2E1
S31508003DF022022A606A68D205F5D529606A685207E0
S31508003E00F1D4B6B2DFF860222E604FF4E06111609B
S31508003E10DFF878120A6A520852000A620A685208DB
S31508003E2052000A600A6842F002020A604A6A42F0D0
S31508003E3001024A620121A17100F0FAFDBDE8704055
S31508003E4000F0DBB970BD70B57E4CA07938B300F0D0
S31508003E500FFA00F0D7FD0546DFF854127D4E012013
S31508003E600860306D40F0010030650020A071FFF752
S31508003E70FDF920203060306B40F002003063F06DB1
S31508003E8040F00800F065284600F0D2FD0A20FFF74A
S31508003E9007F874494FF6FF70086000F001F870BD26
S31508003EA04FF4E0606E49086070476648807970474D
S31508003EB064480079012808BFFFF788BF7047614842
S31508003EC00079704780B5022801DB012002BD5D49F3
S31508003ED008718979884205D010B9FFF7B4FF01E067
S31508003EE0FFF774FF002002BD7248006880020014C4
S31508003EF09A3801B211F1800FB8BF6FF07F0040B257
S31508003F00704710B5044600F07DFD6B490A68002C21
S31508003F1004D042F012020A60012103E022F01202E4
S31508003F200A600021474A517040E038B5044600F05F
S31508003F3069FD0546FFF720FC40B95F480168002C7B
S31508003F4014BF41F0800121F0800101603D48847072
S31508003F502846BDE8324000F06BBD3A488078704785
S31508003F6056494A780B78564803EB022202608B784A
S31508003F70CA7803EB022242600B794A7903EB0222E4
S31508003F808260CA79897901EB0221C160704710B550
S31508003F90044600F037FD48490A68002C14BF42F071
S31508003FA0200222F020020A603B490C70BDE810404E
S31508003FB000F03EBD234908814249086070472149FF
S31508003FC04881414908607047404800787047204951
S31508003FD00A68002814BF42F0020222F002020A60B0
S31508003FE018490870704738B504467F2C0AD13848F6
S31508003FF000F01BF8BDF80000C00554BFBDF800402E
S315080040006FF04A0400F0FEFC0546FFF7B5FB30B931
S3150800401064B204F19A0080052E49000C086009482C
S31508004020C470284600F004FD31BD018802237F22B2
S3150800403000A8FFF715B8034890F903007047000079
S31508004040D82F0020C01E002040A00040982D002038
S315080040508020004030200040941E002010200040A0
S3150800406000E100E004A0004080E100E0A820004054
S3150800407010E000E004ED00E0D92F0020CDFF070096
S3150800408000A0004064100040E4100040602000409A
S31508004090681E00205C100040D72F00205C1E002000
S315080040A048AB0208B92F0020581E00201C100040FB
S315080040B0281000400C10004084200040D42B00201B
S315080040C0982000409420004090200040BE1E00200A
S315080040D04CAB0208541000407068792D636F6D6D03
S315080040E06F6E2E6300000000FEF7C80138B5012088
S315080040F0FEF70DFD0020FEF76BFEDFF86042206834
S3150800410040F008002060FEF7BCF8FEF751FE00F00C
S3150800411020F88D78DFF84832DD600D8905604D8915
S31508004120456000F020F8206820F010002060FEF7B7
S3150800413063F802F0C7FF03F027F8FEF77FFDFEF7E6
S315080041409EF8BDE83140FEF7BAB840F2016003F0C8
S31508004150B7B8DFF81012DFF810020A78C2604B7899
S31508004160824AD360704788891060C8895060088A77
S315080041701860488A586040E0F0B50B687C4C0F25FB
S315080041806468960005FA06F6344215D0002606EB52
S31508004190820724FA07F7FF070BD5B70005FA07FCCD
S315080041A023EA0C0330F812C005FA07F707EA0C07EA
S315080041B03B43761C042EEADB0B60F0BDF0B50B68BA
S315080041C06B4CFF256468D600B5402C4213D00025F9
S315080041D0012605EBC20724FA07F7FF0708D506FAF2
S315080041E005F7BB43175C06FA05FC0CEA07073B43D1
S315080041F06D1C082DEDDB0B60F0BD10B55C48017831
S3150800420001F0FD010170C90703D55A4A4FF4004170
S3150800421011604068002827D000F066F8201DFFF7D7
S31508004220CDFF01225449201DFFF7C8FF022253493A
S31508004230201DFFF7C3FF00224B4900F016F80122A4
S315080042404F4900F012F80222484900F00EF80322FE
S315080042504C4900F00AF80422414900F006F804F136
S315080042601400BDE8104046E010BD04F1140083E7D1
S3150800427038B53F4C207840F002002070C00707D5BB
S315080042803C484FF40045056000F054F83E48056088
S315080042906068002827D000F027F82046FFF78EFF31
S315080042A0012235492046FFF789FF02223349204675
S315080042B0FFF784FF00222C4900F01AF80122304942
S315080042C000F016F80222294900F012F803222D49B7
S315080042D000F00EF80422224900F00AF804F108005A
S315080042E0BDE8384007E031BD1E4C2849002270471A
S315080042F004F1080040E7052225493DE70320FEF7BB
S31508004300A3BF80B503F0E5F80FF2900109E080B588
S3150800431003F0E3F80FF2B0010204120E51F822106E
S31508004320C0B201EB800002BD00001148007800F021
S31508004330010070470E4917480978C9070BD54FF48D
S315080043400041C1600821016013480068800900F037
S315080043500100FFF714BA08210160704700BC00404D
S3150800436000B800407C1D002000B0004000B40040AA
S315080043706827002080E100E00CB400400CB800403B
S3150800438004B0004004B4004000E100E00CB0004076
S3150800439004B8004014A8004008B00040554E4B0031
S315080043A04649420042544C00455854005057520062
S315080043B0574447002053570043525300465348007A
S315080043C042414400464C540080A5020884A50208D0
S315080043D0DCA50208FCA5020804A6020810A6020825
S315080043E01CA6020828A6020830A602083CA602084F
S315080043F04CA602082A490A68920992010A600A68C4
S31508004400104308604FF4004126480160002101600E
S315080044106420FEF745BD2DE9F047234D204FD5F81A
S315080044200090224C8046286840F40040286038688E
S3150800443020F480503860207868B162781C48A178EA
S3150800444000EB820200EB880012F82A2C10F82A0CDE
S31508004450891A461802E0012020262070B0B2FFF71C
S31508004460C9FF0FF2500A02E0B0B2FFF7C3FF386B7C
S31508004470042805D0386B400754BF761E761CF3E730
S31508004480F86A38B184F80180A6701FFA89F02860A6
S31508004490BDE8F08740F22111504600F0CFFAE6E772
S315080044A0D0100040181000401C100040D42F0020E7
S315080044B084280008616E616C6F6775652D76636F79
S315080044C02E63000081014FF4FE5289B20C20FDF7DD
S315080044D03EBF2DE9F84F8F4CA56820680127ADB27D
S315080044E000264FF00A08B9461FFA80FA00F04FFA7C
S315080044F0B0202063DFF820B208E016F1190FB8BF24
S315080045004FF00A08464436B27019A060DBF800007E
S31508004510000702D559EA070028D00120FEF7C0FC9B
S31508004520B9F1000F11D0AAF10300874202DAF81C8C
S3150800453087B213E00AF50040206057460621092095
S3150800454000F0CEF94FF000090BE0DBF80000000799
S3150800455007D5042FA6BFF81E87B2002707F5004027
S3150800456020601A2EC9DB6FF00908CBE7A560C4F8EE
S3150800457000A00820CBF800006848006880B2BDE8B3
S31508004580F28F80B5624B66491B784FF0FF326BB1EC
S31508004590002819BF4A606348486041F21110086054
S315080045A0614841880088BDE8044092E7002819BFA1
S315080045B04A600A604860086000F0E9F9BDE804400E
S315080045C00621092000F0DDB938B50120FFF7D9FF2B
S315080045D004460020FFF7D5FF05460120FFF7D1FF67
S315080045E04042001B00EB450000B232BD2DE9FE4FEC
S315080045F04E4CDFF83C81A06A454EADF802002568AE
S31508004600D8F800B0307860B14FF6FF720021082064
S31508004610FDF796FEADF80000C022C0210820FDF780
S3150800462096FE4448DFF81091007818B148F2607099
S31508004630C9F80000708840F4404040F04C00C9F8C2
S315080046403C000220A0620120206040F24C40FEF7A8
S3150800465027FC0120C8F80C00C8F800000020324FDB
S31508004660388040207880307800B12020FFF72AFF74
S31508004670FFF7AAFF8246402038807F207880FFF720
S3150800468021FFFFF7A1FF0290504602F08AF8FE21AB
S3150800469001FB00F70298AAEB00000190307860B1A0
S315080046A0029802F07EF88246019802F07AF880B203
S315080046B007EB8A11B1FBF0F005E0019802F071F8FA
S315080046C080B2B7FBF0F080B2401CC7031FFA8BF02C
S315080046D0C8F80000ADB20020C8F80C00022020601F
S315080046E02560BDF80200A0620020C9F83C003078B9
S315080046F030B1BDF800104FF6FF720820FDF727FE0F
S3150800470040F24C40FEF7CCFB380CBDE8FE8F0000AB
S31508004710BA1E0020C010004018A0004000700040DB
S3150800472038100040EEEEFFFF902F0020602000407A
S3150800473028100040591E0020D010004041003F229A
S3150800474089B201E001463F220220FDF700BE2DE9AD
S31508004750F04F564C564D95B0E06CADF810004FF63C
S31508004760FF782068ADF80E004246E86AADF80C00FE
S3150800477000210120FDF7E4FDADF80A0042460021BC
S315080047800B20FDF7DDFDADF808004FF40040206072
S3150800479000202861686148F2020000F08BF84CF6A8
S315080047A08C30E0644FF4805248F2F000E86211461B
S315080047B00120FDF7CCFD424600210B20FDF7C7FD81
S315080047C00621062000F0DDF8019000F085F800903B
S315080047D04CF69C30E0640020FFF7B0FF062108463F
S315080047E000F07EF800260DF1140BB0B2FFF7A6FF15
S315080047F00621062000F074F800F08DF82BF8160054
S31508004800761C202EF1DB00F086F81020FFF796FFC5
S3150800481000F062F80099019A401ABBF82010891A2C
S31508004820404301FB01094FF0100A112700F04EF82A
S3150800483000F052F800F043F806DB81461FFA87FAC3
S31508004840781C07B2202FF1DBBAF1100F0ED10F2713
S3150800485000F03CF800F040F800F031F806DB81463D
S315080048601FFA87FA781E07B2002FF1D5BDF8100097
S31508004870E0644246BDF80E002060BDF80C00E86210
S315080048800120BDF80A10FDF762FDBDF80810424682
S315080048900B20FDF75CFD01202861002000F00AF8D6
S315080048A04FEA4A00C0B215B0BDE8F08FC01000400C
S315080048B018100040286040F24C40FEF7F1BA009903
S315080048C0401A404306FB0600484570473BF8170068
S315080048D00199461AB8B231E70621072000F051B807
S315080048E070B505460E4600F093F83F4C206C20F054
S315080048F00800206400F09AF800F084F8310341EAD1
S31508004900C5113A4A41F00101116008212160BDE84C
S31508004910704000F08DB82DE9F041354C354D324EDA
S3150800492025E000F075F8344904200860306C40F042
S31508004930080030642F68286840084000286000F0A6
S315080049406DF8D4F80080206820F04000206000F060
S3150800495061F8C4F800802F6000F060F8306C2749D1
S3150800496020F0080030640420086000F05FF8306822
S315080049700007D6D5082030602148006880B2BDE817
S31508004980F08180B5FFF7ACFFBDE80140C3E71748E3
S3150800499001684908490001607047F8B50746FEF7FF
S315080049A03FFA044639460320FFF7EBFF054639462A
S315080049B00120FFF7E6FF0646FDF7C1FC3946002051
S315080049C0FFF7DFFF0746FDF7B9FC08480168490805
S315080049D049000160781B0004711BB0FBF1F06043CD
S315080049E04000000CF2BD000018A000400470004012
S315080049F00080004094ED00E000E100E080E200E085
S31508004A0000700040EFF31180602181F31188704730
S31508004A1072B6704700BF30BF00BF7047BFF35F8FE5
S31508004A20BFF34F8FBFF36F8F7047704762B67047FB
S31508004A3080F311887047000042DE704738B5044697
S31508004A400D46FDF727FCFFF7DDFF2946204602F055
S31508004A5058FD2B4622460FF2CC11012002F069FEC2
S31508004A6029462046BDE83440E6E72DE9F84F654873
S31508004A70654D01682E1D4FF4206A7165016AB1659E
S31508004A8062490968F165416A3166816A7166C16A77
S31508004A90B166016BF166806B306796F834004007A3
S31508004AA04CBFF76BB76BBB4602F0A9FC0022584C0B
S31508004AB0DFF86081DFF86091F2648742014624BF1F
S31508004AC0A4F12003BB4231651DD357F8180F306493
S31508004AD057F8040F7064706DC005C00D062815D10F
S31508004AE0306C484512D3404510D200884DF64262D4
S31508004AF090420BD105F18C006A68426040F2017A57
S31508004B007268826002E03264726483464348814276
S31508004B1002D2014600E0091DA14203D20B68B3F197
S31508004B20CD3FF8D0601AB064182105F1780002F07C
S31508004B3041FE002003E0C0B205EB80029167A34561
S31508004B4023D254F8041D4945F9D34145F7D2CA077B
S31508004B50F5D5002205EB82039B6F8B4203D0521CCE
S31508004B60D2B2062AF6DB062AE9D1002814BF401E6F
S31508004B700520E0E7716F002205EB8203521CDF6F08
S31508004B809F67052AF8DBC5F88C100146481EC9B28E
S31508004B900029EFD1706DC005C00D02280AD0032880
S31508004BA015D0042816D0052817D0062818D00C28A2
S31508004BB01CD01EE01A480168890748BF40F6021A49
S31508004BC01CD40068C00719D540F2025A16E040F610
S31508004BD0012A13E040F6022A10E040F6032A0DE007
S31508004BE0BAF5206F0AD140F6042A07E040F6052AEE
S31508004BF004E018B1242838BF40F6072A5046BDE815
S31508004C00F28F000004ED00E00000002000E300E061
S31508004C10081C00205C4F020890210008980000201C
S31508004C201CA000400D0A5B4153534552543A257067
S31508004C303A25645D0D0A0000814233D210185118D6
S31508004C40401E491E10E011F8013900F80139121FFB
S31508004C5011F8013900F8013911F8013900F801395C
S31508004C6011F8013900F8013992B2042AEBDA92B246
S31508004C70002A1EBF11F8013900F80139521EF6D173
S31508004C80704711F8013B00F8013B121F11F8013B70
S31508004C9000F8013B11F8013B00F8013B11F8013B14
S31508004CA000F8013B92B2042AEBDA92B2002A1EBF40
S31508004CB011F8013B00F8013B521EF6D1704713006C
S31508004CC003D00A46194602F079BD704710B500E0D0
S31508004CD0521E92B222B100F012F8F9D0181B10BD7C
S31508004CE0002010BD10B500E0521E92B22AB100F0A5
S31508004CF006F8F9D0181B40B210BD002010BD10F8F8
S31508004D00013B11F8014BA342704700004148018A54
S31508004D1040F6A772914202BF408A4FF47F4108428B
S31508004D2003D1022801DB01207047002070472DE9D6
S31508004D30F84F82468846FFF765FE374D2F680446CA
S31508004D402868400840002860FFF768FE0120DFF861
S31508004D50C0B08BF80000FFF7D9FF20B9FE210FF28B
S31508004D60BC00FFF76BFE2B48D0F8289041464AF462
S31508004D708070C84706462F60FFF750FE2046FFF7AB
S31508004D8057FE00208BF800000FF298040EB1305D34
S31508004D9004E041464AF40070C847005DBDE8F28F5A
S31508004DA02DE9F84F804689464FEA420AFFF72AFE60
S31508004DB0194E376805463068400840003060FFF7EE
S31508004DC02DFEFFF7A3FF28B940F241110FF24C0060
S31508004DD0FFF734FE0F48D0F824B000235246494660
S31508004DE04046D84704463760FFF718FE2846FFF7BF
S31508004DF01FFE0FF230050CB1605D05E05346002238
S31508004E0049464046D847405DBDE8F28F000000009D
S31508004E10C92F00200000040894ED00E0666C617359
S31508004E20682E6300000202024B4B46472DE9F04FFD
S31508004E3089B0804623252322FF2100A8FFF73FFFDC
S31508004E40DFF8ACA09222FF215046FFF738FF002773
S31508004E50284CDFF8A490294EB85D17F809B0395DDB
S31508004E60401C00EBD070401001B11930401C00FB0B
S31508004E700BF2234830F817100FF2880092B202F0AE
S31508004E80D0FCBBF1010F1CBF2AF817505D447F1CEC
S31508004E90232FE1DB0FF28800232340F21C4240F265
S31508004EA03B2102F0BEFC0FF2A8054FF4E04000F0EB
S31508004EB00DF918B1CA212846FFF7C0FD4FF4804006
S31508004EC000F004F918B1CC212846FFF7B7FD4FF4D6
S31508004ED0805000F0FBF818B1CE212846FFF7AEFD4A
S31508004EE000A9404600F01FF909B0BDE8F08F0000A0
S31508004EF0B82900203CA7020884A7020860A7020870
S31508004F00F4A6020843726561746F723A20307825F8
S31508004F1032582C20576F7264733A2025640A0000B1
S31508004F2053696D454520646174613A20256420778C
S31508004F306F726473206F66202564206D61782C205B
S31508004F40746F6B656E436F756E743A2025640A003C
S31508004F5073696D2D656570726F6D2E6300000000B4
S31508004F6010B5DFF8B44ADFF8B43A2488001B06E027
S31508004F7010B5DFF8AC4ADFF8A43A24681B1B03EB2C
S31508004F804000002304E030F8134021F813405B1C6E
S31508004F909342F8DB002010BD2DE9F04182B00446AB
S31508004FA00D4616460027DFF8748A01E0B81CC7B21A
S31508004FB0B74217DA7819795D4078DFF85C3A1B88CA
S31508004FC001EB0020ADF80000012207EBD77004EBD7
S31508004FD06000C01A00F09BFB0028E7D002F03FFCF7
S31508004FE0002000E00120BDE8F681F8B504460E462B
S31508004FF0154600270DE000F019F8BDF8000004EB8F
S315080050004701000A4870761CBDF8000004F817002E
S315080050107F1CB7EB550FEEDBE80706D500F006F860
S31508005020BDF80000291901F8010CF1BD012200A9FB
S31508005030B0B295E7DFF8E029DFF8E0191288801AA0
S3150800504001EB40010220FFF772BEDFF8D819DFF83E
S31508005050D829415C825CDFF8D439C05C10B102F50E
S31508005060997292B241EAC21080B2704710B5DFF861
S31508005070C039DFF8B04903EB4002005D012801D1D1
S31508005080104610BD1088081803EB400010BD38B54F
S315080050900C46DFF8A0190D782A462146FFF760FF6F
S315080050A0208800281CBF4FF6FF7188420AD00120CD
S315080050B000E0401CC0B2A84206D234F8101022887C
S315080050C09142F6D0002032BD012032BDF0B5DFF89E
S315080050D0501987B008600C2200A90020FFF748FF86
S315080050E000A90025C88A8A890346040A01204FF6C2
S315080050F0FF7631F81570BDF800C0BC4503D1B7423C
S3150800510018BF002F00D100206D1C062DF1DBB21A46
S31508005110944518BF0020DBB2C4F1FF018B4218BFCB
S31508005120002007B0F0BD2DE9F24F0446DFF8086904
S315080051300020307070809CB0DFF800090088ADF858
S31508005140020007A9FFF7A3FF83460120707009A98B
S31508005150DFF8EC080588DFF8EC08B0F80080DFF81F
S31508005160B808BDF802A007883846FFF790FFB8B11F
S31508005170BBF1000F3CD0BDF81C10BDF824004FF65B
S31508005180FE72914202D1012804D10CE0012908BF20
S3150800519090422DD00846BDF82410884228D202E055
S315080051A0BBF1000F23D00020707002975046069579
S315080051B0CDF810800122DFF87C1891F80080404471
S315080051C0ADF8060000A9BDF80600FFF7C9FEDFF82E
S315080051D07808008805904FF6FF79BDF80000000BA7
S315080051E0404518BF0F2800D10CB3002516E001244E
S315080051F070780028D9D03846CDF808A0CDF81880A0
S315080052000495D7E7059805FB00F4E01900F02AFC99
S31508005210BDF80200201800F025FC6D1C4545F1DBA1
S31508005220012030704D2002F01AFB0025FEE0BDF883
S315080052300650012201A92846FFF792FEBDF8040090
S31508005240C043C0B2ADF804006F1CDFF8000805883B
S31508005250BDF80400A84218BF01244FF0000A20E058
S31508005260401CC1B2A94218D2C0B2DFF8E417BDF893
S315080052700E20834631F81B109142F1D1FFF7E5FE67
S315080052804FF680710840BDF80C104FF68072114039
S31508005290884204BF1C980BF800A00AF101001FFA07
S315080052A080FABDF80400824507DA022203A9B8B2DB
S315080052B0FFF756FEBF1C0020D3E7002001E0401C84
S315080052C080B2A84217DA1C99415C8142F7D00124C2
S315080052D011E02AF81070BDF8060000EB4300401CE8
S315080052E000F0D5FABDF80200C0F3C710401C00EB69
S315080052F0D07007EB60070498DFF834A7BFB287427F
S3150800530011DA012200A93846FFF72AFEBDF8000087
S31508005310484508D0030A00F07F01BDF804007F1C49
S31508005320834202DB012400252FE0002001E0401C17
S3150800533080B2A842CFDA1C9A825C9A42F7D1C0B2F0
S31508005340FF28C8D0DFF8DC26825C7F290CBF4FF027
S31508005350000C8C4694450BDABDF800C0DFF8CCE6A5
S3150800536010F80EE04FEA0C6C4FEADC7CF44501D0ED
S315080053700124B0E7012AACD07F293AF8100008BF0B
S3150800538000210818A5E76D1CADB2DFF8C80600882D
S31508005390854204DA3AF815004845F4D101247780A5
S315080053A00498BDB285420ADA012200A92846FFF709
S315080053B0D7FDBDF800006F1C4845F1D032E7002C38
S315080053C0FCD1029801220BA980B2FFF7C9FDBDF8EE
S315080053D02C0048450DD105E0401C80B2202813DB7F
S315080053E02034A4B20699029A891A8C4205DB012058
S315080053F0307000201DB0BDE8F08FA51820220BA93B
S31508005400A8B2FFF7ADFD00200BA931F810104945E9
S31508005410E2D0A8B2FFF70EFE203CA4B2E0E702985D
S31508005420059905FB010000F01DFB6D1C4545F6DBE3
S3150800543001203070494600F042F818B100F02CF906
S315080054400028D6D10120D5E72DE9F0420F46DFF82E
S31508005450FC15DFF8D45509888F4204461646994646
S315080054600CD2DFF8C015795C30467F2808BF0020CB
S31508005470884203DA785D814500D11CB940F2D641ED
S3150800548000F001FA31463846FFF7F0FD0188DFF8EB
S315080054909C05385C60B1384600F02AFA795D012926
S315080054A008BF207009D0022914BF2060208004E0BC
S315080054B04A462046BDE8F04297E5BDE8F0822DE968
S315080054C0F34FDFF85405DFF86C150488DFF8680534
S315080054D00978407883B000281ABFDFF8600500888D
S315080054E020460D18DFF864050088ADF80800ADB24F
S315080054F0C043C0B200EB013000F55060ADF80200C1
S315080055002B1BDFF8180500F0C8F96E1C0028B6B288
S3150800551038D10025DFF8387514E0E8B2FFF795FDB5
S31508005520ADF80400331B37F81500ADF80600022263
S31508005530DFF8E80400F0ABF8002823D1B61C6D1C90
S31508005540B6B2ADB2BDF808008542E6DB002501E03B
S315080055506D1CADB2BDF80800854280F293804FF00D
S31508005560000A1CE001220DF102011FFA89F0FFF77B
S31508005570F7FCBB19DFF8A4041B1B09F1010900F0AD
S315080055808CF9002878D17F1CFFB2B7EB1B6FE9DBDB
S31508005590DFF8C404285C8619B6B20AF1010ADFF8F6
S315080055A0840415F800B05FFA8AFADA45D0D2514673
S315080055B0E8B2FFF75BFD8046DFF87004B8F80090A4
S315080055C02F5CF80140EA0520ADF80000BBF1010F99
S315080055D0BDF800000CBF40F07F004AEA0000ADF8B5
S315080055E00000311BDFF8340400EB4100711C89B25E
S315080055F001914FF6FF7189451EBFBDF80010BDF831
S315080056001020914218D19DF80C100029C5D001220E
S3150800561000A9FFF7C5FB019E70BBDFF80C04A8F8CC
S3150800562000602A5CDFF8340450F82510B0B2FFF7A2
S31508005630B3FC0028ACD122E0DFF8EC13695C491C06
S3150800564001EBD1714FEAC15B012200A9FFF7A8FB64
S31508005650019E88B9002FA8F8006095D04946E8B29F
S3150800566000F046F90190331BDFF8B0034FEA1B62DE
S3150800567000F00DF800288BD002F0F1F8002005B0F4
S31508005680BDE8F08FDFF8B00346800120F7E701A9EF
S3150800569000EB4300FFF784BB2DE9F041DFF89C03DC
S315080056A0DFF894530688DFF87003048868780028C2
S315080056B082B012BF204630462646012200A9FFF7CF
S315080056C04FFCBDF80000DFF8548301280CBF4FF6E5
S315080056D0FE70401EADF80000DFF85803077838461C
S315080056E0471E58B1BFB2B819001B012200F00FF8C7
S315080056F00028F4D002F0B3F8002006E0687880F0BD
S3150800570001006870002028700120BDE8F68100A914
S3150800571008EB4000FFF744BB2DE9FE4F0D46CB4989
S3150800572009888842044617461E464FF000094FF07E
S3150800573001080CD2BB49615C38467F2808BF0020A7
S31508005740884204DAB848205C864200D11DB940F286
S31508005750FA5100F098F839462046FFF787FC019081
S31508005760B54F787820B1B648B0F800A0AA4803E04B
S31508005770B448B0F800A0B1483978008849B97988A2
S31508005780081AB74909888842B4BF4320442002F062
S3150800579066F801980188A548205CF8B1204600F013
S315080057A0A7F8012E08BF297803D0022E0CBF298836
S315080057B02968814265D001980088401E00F067F884
S315080057C0A548265C7888AAF10101891B814201DB7C
S315080057D0002835D1387858BB452044E00291CB469D
S315080057E020E002980BEBDB7300EB630000F03DF959
S315080057F00BEB05001BF80510407801EB0020711E25
S315080058008B4580B205D1BDF80010C9B2C0B2ADF85B
S315080058100010BDF8001088420BF1020018BFC846F8
S315080058205FFA80FBB345DCDBB8F1000FC3D028E094
S31508005830BDF802100020FFF742FE10B34FF0010931
S3150800584078887949401C788080B2625C2946FFF7DF
S31508005850A3FBB0B1704C7B88248870485B1E1B1B69
S3150800586000F01BF810B101F0FAFF0AE0B9F1000FD9
S3150800587002D0FFF711FF20B1019978880880301807
S315080058807880BDE8F78F0FF2EC10FFF7D7B8012242
S315080058900DF1020180B2FFF763BB01220DF102018F
S315080058A000EB4300FFF77CBA70B582B004460025CA
S315080058B01926012200A9A0B2FFF752FBBDF8000085
S315080058C0641C48B14FF47F41401A02D0FF3806D015
S315080058D007E0681C40B276BDAD1C761EE9D168B2F9
S315080058E076BDBDF80000C0B200B96D1CE843F1E70B
S315080058F038B50C46002100914B49455C2A4621469D
S3150800590000A8FFF772FB681C00EBD07004EB600080
S3150800591080B2FFF7C9FF002848BFC043009940B2CC
S31508005920401832BDF0B5494909880446404883B055
S31508005930254630F815608C4202D23C48285C18B9D6
S3150800594040F23B71FFF79FFF37482D5C681C00EB60
S31508005950D07006EB6007B8B2FFF7A6FF322814D25C
S31508005960C107BFB207EB60002B4F2C4B3F884CBFDB
S3150800597000214FF47F41ADF80410C01B012201A994
S3150800598003EB4000FFF70CFA60B131462046FFF7FB
S31508005990AFFF00902B46401C00907F2200A92046AE
S315080059A0FFF7BAFEF7BDF8B5234C20780027002884
S315080059B030D119480588607800281ABF1F4806881C
S315080059C02E461C4807783846471E02281BDBFFB2BE
S315080059D0B81900F04AF8BDF800000028F3D01A48B4
S315080059E0008807FB006000F03DF80020ADF80000D5
S315080059F0BB190A485B1B012200A9FFF749FE48B1FB
S31508005A0001F02DFF06E03046FFF714FBFFB20FB991
S31508005A10012020703846F2BDC0A6020800E0020840
S31508005A20E42B002084A7020860A702083CA7020806
S31508005A30B8290020BCA602088C2F0020C4A602089C
S31508005A40C2A60208C6A60208BEA60208CAA6020878
S31508005A50F4A60208CCA60208D0A6020828AA0208BC
S31508005A60C8A6020880B2FFF7E5BA012200A980B2EB
S31508005A70FFF776BA73696D2D656570726F6D2D695E
S31508005A806E7465726E616C2E63000000DFF8841513
S31508005A9000200870FF21DFF880050170017170474A
S31508005AA0F8B5044601F02CFF0546DFF87005DFF867
S31508005AB068750688204602F034F8B0F5006F16D1EE
S31508005AC0204602F052F800F0BBFAFF280DD000F08D
S31508005AD029FA2146381D02F0DCFBDFF83805017883
S31508005AE081B10089A9190E1A10E09320F2BDFF2191
S31508005AF0384602F0F9FB052802DA21463846EAE775
S31508005B003920F2BD0581314602F04FFCB2B20321BD
S31508005B10204601F084FF032200F070F8204602F0C8
S31508005B20FDF80020F2BDF8B50446DFF8EC0400786D
S31508005B30FF2813D0DFF8E8542968465C374638460C
S31508005B4002F004F8014608222046FFF7BFF808B914
S31508005B500120F2BD28683F5CB742F0D10020F2BDB3
S31508005B60F8B5044601F087FF000B00F00105204652
S31508005B7002F010F80646204601F0FBFFB0F5404F4C
S31508005B8011D1002D36D03146002000F086F90446A2
S31508005B90FF2C2FD0002102F003FD58B300F0A3F923
S31508005BA000F02AF826E0304602F030FF00F048FA06
S31508005BB00446FF2C01D10020F2BD01200021224617
S31508005BC002F052FFDFF85C24D2E9006706430F4370
S31508005BD0C2E9006775B1DFF850341B6833F8143032
S31508005BE04FF4FE64234205D0D2E9024520432943F7
S31508005BF0C2E902010120F2BD40F0800205212046DB
S31508005C0001F018BF38B5044601F08BFFB0F5006FF8
S31508005C100CBF01250025204601F098FF04462146C1
S31508005C20284600F03AF9FF2810D18DB1204602F037
S31508005C30EDFE00F005FAFF280AD0DFF8EC13096834
S31508005C4031F810004FF4FA61084201D0012032BD44
S31508005C50002032BD2DE9F04107460C46DFF8B8535F
S31508005C6001F05FFFB0F5006F0CBF281D28460078CD
S31508005C70FF2846D0DFF8A8130968405C0646B742F5
S31508005C803CD1FEF7BFFE80460521304601F0D9FE1D
S31508005C9000F07F00471EFAB20521304601F0CAFE21
S31508005CA0002C18BF312C01D0F8B200BBFEF7AAFEB3
S31508005CB00746F0B201F035FFB0F5006FF1B205D135
S31508005CC0281D02F011FB00F012F902E0284602F046
S31508005CD00BFB3846FEF7ACFE4046FEF7A9FE21460A
S31508005CE0304603F0E3FD304602F026F804E000F003
S31508005CF0FEF84046FEF79CFE012003E0765C8642ED
S31508005D00BDD10020BDE8F08138B501F0F9FDC14CE0
S31508005D1021892081421A4FF6FF75ADF8005000A977
S31508005D2090B200F008F9BDF80000A84202D10020A0
S31508005D30207031BD0146204602F037FB31BD0021F7
S31508005D404FF6FF70F7E02DE9F84FDFF8D892D9E95A
S31508005D500001002908BF002800F0988000264FF0AF
S31508005D600108B24600270024FEF74CFED9E90023B5
S31508005D70844608EA02001AEA030108BF002817D079
S31508005D806FEA08006FEA0A0102400B40C9E90023DE
S31508005D90D9E9025B012708EA05021AEA0B0308BFDC
S31508005DA0002A05D028400BEA0101C9E902010124AD
S31508005DB06046FEF73DFE002F57D09B48006830F836
S31508005DC01600810751D59949096831F816702CB122
S31508005DD000F49871102908BF012500D000259449C0
S31508005DE00978C9070AD5934A1268002142F826108D
S31508005DF091490968725C42F0F0027254F4B1800667
S31508005E001CD5380A8DF801008DF8007000A901200C
S31508005E1000F043F80446FF2C07D100F039F84FF696
S31508005E20DF72114020F8161014E0002102F0B8FBCA
S31508005E3080B100F058F8FFF7DFFE0BE085F00100AF
S31508005E40044207D000F024F841F4006120F8161047
S31508005E5004F0D4F800953B461A226DA1032001F000
S31508005E60E4FC2946384601F0EBFC761CF6B24FEA0C
S31508005E704A0040EAD87A402E4FEA480806DAD9E9B5
S31508005E800001002908BF00287FF46CAFBDE8F18F38
S31508005E906548006830F8161070472DE9F0418846C5
S31508005EA05D4900281ABF091D022508250878FF281C
S31508005EB016D05B4E3168475C3C4600F014F8000685
S31508005EC00AD4204601F042FE01462A464046FEF71D
S31508005ED0FDFE08B9204604E03068245CBC42ECD1DB
S31508005EE0FF20BDE8F0810521204601F0AABD70B566
S31508005EF00021202004F01FFB47480079FF2810D016
S31508005F00474C2168455C2E46304601F02EFE00F0CF
S31508005F1097F8FF2801D000F005F82068365CAE42F5
S31508005F20F2D170BD4049096831F8102042F02002CC
S31508005F3021F8102070472DE9F84F80460FF2FC0033
S31508005F40354E0068364F00908A46344600E0341DC8
S31508005F50FEF758FD814606E0204602F0AFF92946CD
S31508005F6000A802F096F9204602F0F2F940B938681E
S31508005F7021780D5C0321284601F048FD8045EBD2C7
S31508005F80301D844208BFFFF7B2FF4846FEF750FDB2
S31508005F902078FF281CD0396810F801904D46032157
S31508005FA0284601F033FDA0EB080B1FFA8BF20321FC
S31508005FB0284601F034FDBAF800001FFA8BFB83452A
S31508005FC088BF8346AAF800B038682D5C4D45E6D1EF
S31508005FD0301D8442BBD100A802F0BAF9A8B900A8BE
S31508005FE002F06CF9044601F050FD00F0FAF8FFF7EC
S31508005FF07AFF000603D44221204603F057FC2046C8
S3150800600001F09AFE00F0EEF8E5E7BDE8F18F000032
S3150800601042574200A42E0020E01E00201C1D00202E
S315080060209C1C0020F81E0020AC1C0020A41C00208C
S315080060305C2E0020B01C0020F81C0020FF00000089
S31508006040F8B50D4C2768060014D0FEF7DBFC0B4D9F
S3150800605021682A7821F8126037F8021BB142FBD171
S31508006060FEF7E6FCB81E2168401AC0052978000E1E
S31508006070884200D1FF20F2BDA41C0020A81C0020E5
S3150800608010B57348734C0068206060604822002190
S31508006090FEF715FE70482168007808700020216810
S315080060A00873216848730B202168887303202168C8
S315080060B0C8734FF6FE71206801824FF6FF71418260
S315080060C000F088FB2168087600F084FB2168487692
S315080060D000F080FB21688876604821680078C876D9
S315080060E05F492068096881625E49097880F82C1042
S315080060F05D4821680068086310BD10B5FCF71EFBF3
S31508006100544C6168897B884203D00846FCF70EFB2D
S3150800611050B9FCF716FB0146606890F90F008142FA
S3150800612004D0FCF712FB08B1012010BD6068008A94
S31508006130FDF740FF6068408AFDF741FF6068007B15
S31508006140012818BF0020FDF722FF002010BD10B55A
S31508006150464C0020207004F05AF920B92046BDE8C4
S31508006160104002F017B904F009FE08B104F037FE32
S3150800617062E080B5002000F015F828B1002000F094
S3150800618005F808B1002002BDFF2002BD31480068AD
S31508006190407B02281CBF1128432801D101207047E3
S315080061A0002070472B480068007B012818BF02288A
S315080061B004D003281CBF0628072801D101207047F0
S315080061C000207047002070470020704770477047CE
S315080061D00020704701207047704700207047002054
S315080061E07047704770470020704780B50020FFF75A
S315080061F0CDFF18B1BDE802400020D3E702BD80B547
S315080062000020FFF7C3FF30B112480068007B03285F
S3150800621001DA002002BDFF2002BD10B5040004D03B
S31508006220E5210FF26C00FEF709FC094800684821D1
S3150800623001FB040007494860BDE810405DE70548D2
S315080062404068008A704703484068408A70470000E3
S31508006250D01C0020A02B0020181D0020191D00208E
S31508006260D81C0020DC1C0020E01C0020902B0020FD
S315080062707047002070470020704702F0C6B9704783
S31508006280704701F0D7BA04F03CBF01F0E0BA00004D
S31508006290656D6265722D6D756C74692D6E657477A2
S315080062A06F726B2D737475622E63000038B50446E1
S315080062B00D46012005F0E0F85F48002D12BF0021C9
S315080062C00178491C01705D4844705D48FDF72CFB58
S315080062D0BDE83240002005F0CFB810B500281446B6
S315080062E043D0402823D0882818BF892844D08D2831
S315080062F031D08F284AD15348007804280DD144B1AB
S3150800630051490220087040F60620BDE8104005F005
S31508006310BBB8FDF7CDFD312034E0012001F084FA49
S31508006320FDF7C6FD002C0CBF312000202AE005F041
S31508006330D9F8FDF7BDFD40484449007809788842F8
S3150800634004D2BDE8104000210120AFE7002001F08B
S315080063506BFA402016E0002001F066FAFDF7A8FD6A
S3150800636000212020FFF791FF0BE0012001F05CFAE5
S31508006370FDF79EFD002005E0002001F055FAFDF727
S3150800638097FD8D20BDE8104002F006BABDE8104022
S31508006390A6213BE02C480078022800D0704780B53B
S315080063A02B480078042807D00C280ED129480078F5
S315080063B0022818BF7C2808D105F081F8FDF778FD7A
S315080063C0BDE80240002002F0E7B901BD38B5002457
S315080063D0FEF718FB05461C48007810B9FDF7B2F918
S315080063E004462846FEF724FB002C1CBFBDE83140B6
S315080063F001F033BA31BD80B5FFF7E8FFBDE80440C8
S315080064004FF4A051144801F0D0BFE2210FF250001A
S31508006410FEF714BB38B5114C2068216C01EA00055B
S31508006420ADB2680705D5206C20F00400206403F09F
S31508006430CDFE256031BD0000E62F0020941E002009
S31508006440C42D0020C51E0020B82D0020F41E0020F3
S31508006450C62F0020C72F0020502F002008A000407C
S315080064606D61632D656D3235302E630070B5044657
S315080064700D461646FDF771FD38B16078002E14BF3B
S3150800648040F0200000F0DF0060702946204601F049
S31508006490D6FCFF2821D0974C0146201D01F0F9FEB5
S315080064A0954D28882188401C288080B281420AD2CE
S315080064B06888401C6880201D01F000FF01F03CFC44
S315080064C02888401E2880208829888842F3D3BDE87A
S315080064D070408A48007802F04BB870BD2DE9F04F3D
S315080064E0A5B082460027FEF78DFA834C2188491EFF
S315080064F02180FEF79DFA504601F0AAFB90F800901D
S3150800650081784078009700EB01201FFA80F800F0A8
S31508006510D4F8A0F108020823D2B2514602A801F025
S31508006520AAFC02AD6878FFF75CFE7548007808B3E8
S31508006530606800281DD0E878FDF7C3F94946FDF7DD
S31508006540C7F9074695F9020000F166050020009094
S3150800655009F10103DBB20022514604A801F08BFCC5
S31508006560FFF73AFE63686AB2394604A89847FFF708
S3150800657039FE98E008F0070002282DD0FF208DF894
S315080065800400504601F064FB00F1010B584601F087
S31508006590ADFA0446A9EB0400801E46B2002E1BD4B1
S315080065A05FEA885003D508F00700032810D101A92F
S315080065B0584605F0A1F8002876D108F0070001280A
S315080065C00BD19DF8040004EB0B0103F092FC20B9F3
S315080065D09DF8040001F0B0FB66E04A499DF8040006
S315080065E00968475C4849096800F801A000F065F8A1
S315080065F000F120019DF80400C9B201F02FFB9DF8B7
S31508006600040001F03DFA00F00C0004281CBFA6198E
S31508006610002470B280B20090631C9DF804009BB2FF
S315080066205246394601F004FEF1199DF80400C9B234
S3150800663001F0C3FC354968780978884204D3CD212E
S315080066400FF2D000FEF7FAF99DF8040001F013FAEC
S3150800665069788004800C40EA81319DF8040089B28B
S3150800666001F00BFAE878FDF72CF94946FDF730F901
S3150800667002469DF80400032101F0DCF9A87800F130
S3150800668066029DF80400D2B2042101F0D3F99DF800
S3150800669008209DF80400052101F0CCF99DF804A016
S315080066A0504602F0D5F80127504601F045FBFFF7A2
S315080066B099FD384625B0BDE8F08F124800681AF8EB
S315080066C00000704710B50C4C618829B1C9B21D206D
S315080066D0FFF7DBFD002060800D4801F0EFFDFF2885
S315080066E003D0FFF7FBFE0028F6D010BD084801F0DE
S315080066F02FBE0000EC1E0020D02E0020C42F002044
S31508006700992D0020901C0020981C0020D41C0020E5
S31508006710F01E00206D61632D726563656976652ECE
S31508006720630000000268174912BACA60426812BAC2
S315080067308A60826812BA4A60C06800BA0860704700
S31508006740704710B5104980220A6006230F4A136065
S3150800675007230B6013689B07FCD5002350F82340DA
S315080067605B1C24BA042B8C62F8D313685B07FCD530
S3150800677000220B6B1BBA40F82230521C042AF8D3AD
S3150800678010BD0000383000400030004010A0004026
S3150800679010B504460846FFF7C5FF2046BDE8104079
S315080067A0CFE7002848BF40427047000081B209B9C8
S315080067B04BF6EF610E4A1180000C08BF4FF6CE204B
S315080067C0508070470288130448BF4A405100018030
S315080067D01046704738B5064C62212046FFF7F2FF8F
S315080067E0054641F20B01A01CFFF7ECFF684032BDDD
S315080067F0F21D0020EFF3118060288041C043C00FCE
S3150800680070470000002181F3118870472DE9F04F89
S31508006810DFF818469BB0804660681990B8F1070FF4
S3150800682008BF4FF003080AD0B8F1080F08BF4FF0A9
S31508006830020804D0B8F1050F08BF4FF00408DFF8C6
S31508006840F0552868696840EA0120A96840EA0140CD
S3150800685000906868400703D5E06940F00200E061EF
S315080068602868400703D5E06940F00400E061009815
S315080068702969C840C00703D5E06940F00800E0610F
S315080068800020DFF8A465DFF8AC953060B8F1010F99
S3150800689000F06F82C0F09882B8F1030F1ED005D3BE
S315080068A0B8F1040F40F09082606017E0D9F8400014
S315080068B0C00703D5E06940F04000E061D9F8400020
S315080068C0400703D5E06940F02000E061D9F84000B0
S315080068D0800703D5E06940F01000E061FEF792F802
S315080068E0FBF7E5FC8DF860004FF0000BD9F8400087
S315080068F0DFF844A5DFF84475DFF844151790D9F892
S3150800690044001690DFF83C05C06C1590DFF8340596
S31508006910006D1490DFF82C05406D1390DFF8240500
S31508006920806D1290DAF800001190DAF804001090E1
S31508006930DAF814000F90DAF824000E90DAF834002A
S315080069400D9038680C9078680B90B8680A90F868CB
S3150800695009903869089078690790B8690690F869C7
S315080069600590B86B0490DFF8E004006809680391A5
S3150800697002212160DFF8D41409688DF80410DFF8C5
S31508006980D01409688DF80510DFF8C81409688DF861
S3150800699006104FF0FF316162DFF8BC140968C904BC
S315080069A00BD56968C90708D5E169C90705D53168EE
S315080069B041F480714FF0010B3160DFF89C140968CF
S315080069C089040BD56968490608D5E169C90705D55B
S315080069D0316841F480414FF0010B31600121DFF845
S315080069E07824126852040ED5009AEB68DA40D2076A
S315080069F009D5E269D20706D53268EB6801FA03F3CE
S31508006A001A438B463260DFF850241268120410D5F8
S31508006A10009A2B69DA40D2070BD5E269D20702D46D
S31508006A20E269120705D532682B698B4699401143EE
S31508006A303160DFF824140968C90308D5E169090635
S31508006A4005D5F17841F008014FF0010BF1700021EE
S31508006A506A68D2076A6848BF4FF480515206009A9E
S31508006A60EB6848BF41F40051DA40D207009A2B6917
S31508006A7048BF41F48041DA40D207E26948BF41F491
S31508006A800041D20605D4E269920602D4E2695206AA
S31508006A9001D541F01001E269120648BF41F4803180
S31508006AA008400290A520FBF7F9FB0120E063E069A6
S31508006AB0A16B11B1616A0142FAD0616A014200F024
S31508006AC0F5800020E0634FF0010BF07840F04000BD
S31508006AD0F070FDF79DFF0D98DFF86813CAF83400CB
S31508006AE00720C9F800000F20086004F0C7FE1998AF
S31508006AF0D44960601798C9F840001698C9F8440048
S31508006B001598C86414980865139848651298886596
S31508006B10CD491198CAF800001098CAF804000F98D1
S31508006B20CAF814000E98CAF824000C9838600B9816
S31508006B3078600A98B8600998F860089838610798E4
S31508006B4078610698B8610598F8610498B863029860
S31508006B500860BB49039808604FF0FF30BF490860DA
S31508006B60BA4800683070BA4800687070B94800685A
S31508006B70B070626AE06910402A69336801994B402F
S31508006B8000990B400106490E01F0010143EA8123F1
S31508006B900106890E01F0010143EA81030106C90EC7
S31508006BA001F0010101FA02F21A4300F47C7042EA8C
S31508006BB000503060FDF726FFFDF738FF0020206003
S31508006BC09DF8600008B1FBF75CFBF0789E49096800
S31508006BD0C90304D5C0F3C00109B120212162D9F83F
S31508006BE04010890704D5C10744BF0221C9F80C1013
S31508006BF0D9F84010490705D5C0F3400111B1042161
S31508006C00C9F80C10D9F84010C90705D5C0F380009B
S31508006C1010B10120C9F80C0030688A49C96C11F016
S31508006C20E00F05D0C10503D58B4A4FF4805111609A
S31508006C308449096D11F0E00F05D0410403D5864A51
S31508006C404FF4005111607F49496D11F0E00F08D0EB
S31508006C50E96820FA01F1C90703D57F4A4FF4804154
S31508006C6011607849896D11F0E00F07D02969C8408D
S31508006C70C00703D578494FF400400860BBF1000F00
S31508006C806ED17748006800056AD56068800767D5C1
S31508006C90B8F1040F64D06C480068C0063DD56E484C
S31508006CA00068C00639D50120307159E0BBF1000FE4
S31508006CB07FF40BAFDAF81800614940084000CAF8BB
S31508006CC018005F48806840F00400886040F2072199
S31508006CD064480088884201BF624840884FF20F0125
S31508006CE0884205D15F494CF23C3048804FF0010B91
S31508006CF0012004F0FDFDBBF1000F05D059494FF204
S31508006D000F0048804FF0000B55485549406800046D
S31508006D10B06089680843B060DDE6FBF7ABFA524914
S31508006D20B0FBF1F04FF47A7148432F303021B0FBB5
S31508006D30F1F0002131714D494A6D42F001024A6570
S31508006D400A68474B464C5B68A46844EA0343B46840
S31508006D50A34205D10B689B1A1B031B0B8342F0D376
S31508006D60F07840F08000F0701BB0BDE8F04FFFF7F8
S31508006D7049BDFBF79CFA0446A520FBF78FFAFDF7F9
S31508006D8047FEFFF73FFD3A4F3E6838684008400027
S31508006D903860FDF743FEDFF8DCB0DBF80050DBF8BF
S31508006DA0000020F04000CBF80000FDF733FECBF8DA
S31508006DB000503E60FDF732FE0CB1FBF762FA1BB0DD
S31508006DC0BDE8F04FFDF732BE1BB0BDE8F04F40F20C
S31508006DD04C410FF2AC00FDF731BE11F1010F144A18
S31508006DE007D0CBB21360C1F307235360C1F3074141
S31508006DF09160002320490B601368002B04BF536879
S31508006E00002B01D192681AB10A6842F001020A60A1
S31508006E100A6842F400720A600A6842F080020A6050
S31508006E20F4E41649D9E700004C2A00200400004083
S31508006E3008BC004014A00040044000400050004038
S31508006E4008ED00E014A8004000E100E008B00040AA
S31508006E5008B4004008B8004000E200E080E200E024
S31508006E600C6000400000002090D00300382000404D
S31508006E7094ED00E000800040200000400040400003
S31508006E80736C6565702E6300034801880348082300
S31508006E907F22FCF7E5B800BF4EAB0208D42B0020D2
S31508006EA0DFF89402016C41F4C04141F00901016424
S31508006EB04FF6FF7101602020DFF8801208607047E6
S31508006EC070B515461E46002804BFBDE8614000F0AF
S31508006ED01BBB012835D113293CBF0FF29820095C4A
S31508006EE008096422504301F00F010B2903DA884090
S31508006EF006E00A2250430A46511ED2B20B2AF8DA95
S31508006F0001460120FBF7F6FFE0B9300907280CBF58
S31508006F1000200220012D08BF40F0180003D0022DE2
S31508006F2008BF40F0080006F00F0102298449A8BFEF
S31508006F3040F00400886001200860FFF7B1FF0020D8
S31508006F4062BD212062BD38B5040012D17D480468AF
S31508006F50608828B14FF42C710FF21020FDF76EFDF2
S31508006F60A188C9B2A01D00F0CDFA0020A08020801B
S31508006F7031BD012802BF7248006801280FD1FDF70C
S31508006F8041FD05467048016841F00601016001208F
S31508006F9000F078F82846BDE83240FDF749BD31BD16
S31508006FA0012804D16848016821F00601016070478C
S31508006FB080B50B46114620B9184600F0A3FA002002
S31508006FC002BD012802BF61488269012A07D0212033
S31508006FD002BDC2685207FCD513F8012B02600A46A7
S31508006FE0511ED2B2002AF4D1C1684906FCD5E6E79B
S31508006FF010B50446FBF74EF9012C03D15648006834
S315080070004006FBD510BD2DE9F84304465048DFF885
S315080070104491DFF848814D4F254650F8256014E025
S31508007020B18838F81520521E91421CDA3188891920
S315080070308871308839F81510401C90FBF1F201FB75
S3150800704012003080B088401CB080F868800716D5DA
S31508007050F86810F038013868E2D0080705D4C80681
S3150800706005D5242107E0232105E0272103E088062A
S315080070704CBF25210121204600F03EF8E5E7BDE892
S31508007080F183704770B52F49354A51F820102F4BB8
S315080070900CE04C886418A4791C604C8832F81050AF
S315080070A000F00AF84C808C88641E8C808C8814B199
S315080070B0DC686407EDD470BD641C94FBF5F605FB2B
S315080070C016447047704738B51B4C0FE046F22970D6
S315080070D00542256003D0A9B20120FFF794FF41F6C7
S315080070E0D60005421CBF0120FFF7CCFF2068216CA3
S315080070F011EA0005EAD131BD30B5154A194C52F8E6
S315080071002020055D184B25B9128823F81020015553
S3150800711030BD33F8103013800155138851888B42DF
S3150800712005D20E4C34F81000401A181800E0581A08
S31508007130908030BD0000000008A8004000E100E093
S3150800714054C80040181E002048A800403CC800400B
S31508007150281E0020A877000848C80040B4A60208E0
S31508007160A0770008982900209C2900207561727470
S315080071702E630000306090C0C1C2C394C495C55C3C
S3150800718096C6AC9798990D002DE9F041454C464EA8
S31508007190DFF81881002020654FF40055356002207D
S315080071A02060E56000202065206D40F060002065C5
S315080071B00E2000F01DF888F800004FF480470020E4
S315080071C06065376004202060E7601620384908604B
S315080071D000206065606D40F060006065162000F074
S315080071E007F888F80100334805600760BDE8F081B4
S315080071F00E2802D0162802D009E02F4800E02F48B2
S315080072000068800900F0010080F001007047002046
S31508007210704710B523484FF40051C1600221016040
S315080072200E20FFF7E5FF214C227801468A4218BF57
S3150800723021700DD1501E8041C00F20700E2021787C
S3150800724004F022FF2178481E8041C00F2070217863
S31508007250BDE810400E2004F017BF10B511484FF4D2
S315080072608041C160042101601620FFF7C1FF0F4C61
S31508007270627801468A4218BF61700DD1501E80415E
S31508007280C00F60701620617804F0FEFE6178481E13
S315080072908041C00F60706178BDE81040162004F088
S315080072A0F3BE000014A8004080E100E09C2F0020F7
S315080072B014BC004000E100E008B4004008B80040F3
S315080072C010B50446FDF79EFB4E49302008604E492E
S315080072D008604E49086010204D4908604FF20F01BA
S315080072E0200A00284B4808BF240204804180BFF3C7
S315080072F05F8F494800210160416048484849086055
S3150800730010BD10B5474C2068C0060BD54649414804
S315080073100A68C0F894204968C0F8901040F606201C
S31508007320FFF7CEFF2068C00708D54049032008703C
S31508007330206C400840002064012020602068000777
S3150800734003D5206C20F00800206410BD80B500200D
S3150800735000F009F830B9BDE80440FC210FF2E0005E
S31508007360FDF76CBB01BD2DE9F044314C21680D1ABF
S3150800737015F01F0105D0002852BF6D1A681A00F1D2
S3150800738020052C48A5F12006A84224BF2A48864293
S3150800739003D3EFF30880854201D300202DE0FDF7E3
S315080073A031FB82462548006810F0010718BF04F033
S315080073B07DFA206801468D4206D2A84224BFCD2117
S315080073C000F80119F9D206E02038002201E000F899
S315080073D0012B8842FBD32560304604F06CFAE22084
S315080073E001E006F8010BAE42FBD30FB104F046FAF2
S315080073F05046FDF71DFB20682038BDE8F0840C4890
S31508007400006870473020004030C8004030C0004057
S3150800741010D00040000000201C4000400400FA057F
S315080074200CED00E018A0004030500040CD2F0020A1
S31508007430A01E0020A8120020200F002094ED00E0D6
S315080074406D6963726F2D696E7465726E616C2E63F9
S315080074500000000030B522480168002000220124FF
S315080074609440CBB2234213D00FF284001D4C30F85F
S31508007470120006284CF23C324FF20F031DD16088E9
S31508007480984216D12188080A0B2812DA084612E013
S31508007490521C92B2082AE2D31349088140F20172BB
S315080074A00889904204D11148D0E90023C1E9002394
S315080074B030BD4FF4C0606280EEE740F20725A8426F
S315080074C001BF618899422188A942E5D162800846B0
S315080074D0E2E705480089000A7047034800897047B3
S315080074E02C000040000000209C2000209000002076
S315080074F00104020401030105060007020309010944
S315080075007047704770477047012070472DE9F0476C
S315080075100446884691469A4600F031F9002801BF8C
S3150800752025460FF27820285C012823D1DFF840622F
S3150800753056F82570FDF766FA0021B98039807980FA
S31508007540FDF776FA06EB85000669FDF75BFADFF8C4
